{
	"contracts/Token.sol": {
		"FooToken": {
			"abi": [
				{
					"inputs": [],
					"stateMutability": "nonpayable",
					"type": "constructor"
				},
				{
					"anonymous": false,
					"inputs": [
						{
							"indexed": true,
							"internalType": "address",
							"name": "owner",
							"type": "address"
						},
						{
							"indexed": true,
							"internalType": "address",
							"name": "spender",
							"type": "address"
						},
						{
							"indexed": false,
							"internalType": "uint256",
							"name": "value",
							"type": "uint256"
						}
					],
					"name": "Approval",
					"type": "event"
				},
				{
					"anonymous": false,
					"inputs": [
						{
							"indexed": true,
							"internalType": "bytes32",
							"name": "role",
							"type": "bytes32"
						},
						{
							"indexed": true,
							"internalType": "bytes32",
							"name": "previousAdminRole",
							"type": "bytes32"
						},
						{
							"indexed": true,
							"internalType": "bytes32",
							"name": "newAdminRole",
							"type": "bytes32"
						}
					],
					"name": "RoleAdminChanged",
					"type": "event"
				},
				{
					"anonymous": false,
					"inputs": [
						{
							"indexed": true,
							"internalType": "bytes32",
							"name": "role",
							"type": "bytes32"
						},
						{
							"indexed": true,
							"internalType": "address",
							"name": "account",
							"type": "address"
						},
						{
							"indexed": true,
							"internalType": "address",
							"name": "sender",
							"type": "address"
						}
					],
					"name": "RoleGranted",
					"type": "event"
				},
				{
					"anonymous": false,
					"inputs": [
						{
							"indexed": true,
							"internalType": "bytes32",
							"name": "role",
							"type": "bytes32"
						},
						{
							"indexed": true,
							"internalType": "address",
							"name": "account",
							"type": "address"
						},
						{
							"indexed": true,
							"internalType": "address",
							"name": "sender",
							"type": "address"
						}
					],
					"name": "RoleRevoked",
					"type": "event"
				},
				{
					"anonymous": false,
					"inputs": [
						{
							"indexed": true,
							"internalType": "address",
							"name": "from",
							"type": "address"
						},
						{
							"indexed": true,
							"internalType": "address",
							"name": "to",
							"type": "address"
						},
						{
							"indexed": false,
							"internalType": "uint256",
							"name": "value",
							"type": "uint256"
						}
					],
					"name": "Transfer",
					"type": "event"
				},
				{
					"inputs": [],
					"name": "BURNER_ROLE",
					"outputs": [
						{
							"internalType": "bytes32",
							"name": "",
							"type": "bytes32"
						}
					],
					"stateMutability": "view",
					"type": "function"
				},
				{
					"inputs": [],
					"name": "DEFAULT_ADMIN_ROLE",
					"outputs": [
						{
							"internalType": "bytes32",
							"name": "",
							"type": "bytes32"
						}
					],
					"stateMutability": "view",
					"type": "function"
				},
				{
					"inputs": [],
					"name": "REWARDER_ROLE",
					"outputs": [
						{
							"internalType": "bytes32",
							"name": "",
							"type": "bytes32"
						}
					],
					"stateMutability": "view",
					"type": "function"
				},
				{
					"inputs": [
						{
							"internalType": "address",
							"name": "owner",
							"type": "address"
						},
						{
							"internalType": "address",
							"name": "spender",
							"type": "address"
						}
					],
					"name": "allowance",
					"outputs": [
						{
							"internalType": "uint256",
							"name": "",
							"type": "uint256"
						}
					],
					"stateMutability": "view",
					"type": "function"
				},
				{
					"inputs": [
						{
							"internalType": "address",
							"name": "spender",
							"type": "address"
						},
						{
							"internalType": "uint256",
							"name": "amount",
							"type": "uint256"
						}
					],
					"name": "approve",
					"outputs": [
						{
							"internalType": "bool",
							"name": "",
							"type": "bool"
						}
					],
					"stateMutability": "nonpayable",
					"type": "function"
				},
				{
					"inputs": [
						{
							"internalType": "address",
							"name": "account",
							"type": "address"
						}
					],
					"name": "balanceOf",
					"outputs": [
						{
							"internalType": "uint256",
							"name": "",
							"type": "uint256"
						}
					],
					"stateMutability": "view",
					"type": "function"
				},
				{
					"inputs": [
						{
							"internalType": "address",
							"name": "from",
							"type": "address"
						},
						{
							"internalType": "uint256",
							"name": "amount",
							"type": "uint256"
						}
					],
					"name": "burn",
					"outputs": [],
					"stateMutability": "nonpayable",
					"type": "function"
				},
				{
					"inputs": [],
					"name": "claim",
					"outputs": [],
					"stateMutability": "payable",
					"type": "function"
				},
				{
					"inputs": [
						{
							"internalType": "address",
							"name": "",
							"type": "address"
						}
					],
					"name": "claimed",
					"outputs": [
						{
							"internalType": "uint256",
							"name": "",
							"type": "uint256"
						}
					],
					"stateMutability": "view",
					"type": "function"
				},
				{
					"inputs": [
						{
							"internalType": "address",
							"name": "_account",
							"type": "address"
						},
						{
							"internalType": "uint256",
							"name": "_amount",
							"type": "uint256"
						}
					],
					"name": "createClaimable",
					"outputs": [],
					"stateMutability": "nonpayable",
					"type": "function"
				},
				{
					"inputs": [],
					"name": "decimals",
					"outputs": [
						{
							"internalType": "uint8",
							"name": "",
							"type": "uint8"
						}
					],
					"stateMutability": "view",
					"type": "function"
				},
				{
					"inputs": [
						{
							"internalType": "address",
							"name": "spender",
							"type": "address"
						},
						{
							"internalType": "uint256",
							"name": "subtractedValue",
							"type": "uint256"
						}
					],
					"name": "decreaseAllowance",
					"outputs": [
						{
							"internalType": "bool",
							"name": "",
							"type": "bool"
						}
					],
					"stateMutability": "nonpayable",
					"type": "function"
				},
				{
					"inputs": [
						{
							"internalType": "bytes32",
							"name": "role",
							"type": "bytes32"
						}
					],
					"name": "getRoleAdmin",
					"outputs": [
						{
							"internalType": "bytes32",
							"name": "",
							"type": "bytes32"
						}
					],
					"stateMutability": "view",
					"type": "function"
				},
				{
					"inputs": [
						{
							"internalType": "bytes32",
							"name": "role",
							"type": "bytes32"
						},
						{
							"internalType": "address",
							"name": "account",
							"type": "address"
						}
					],
					"name": "grantRole",
					"outputs": [],
					"stateMutability": "nonpayable",
					"type": "function"
				},
				{
					"inputs": [
						{
							"internalType": "bytes32",
							"name": "role",
							"type": "bytes32"
						},
						{
							"internalType": "address",
							"name": "account",
							"type": "address"
						}
					],
					"name": "hasRole",
					"outputs": [
						{
							"internalType": "bool",
							"name": "",
							"type": "bool"
						}
					],
					"stateMutability": "view",
					"type": "function"
				},
				{
					"inputs": [
						{
							"internalType": "address",
							"name": "spender",
							"type": "address"
						},
						{
							"internalType": "uint256",
							"name": "addedValue",
							"type": "uint256"
						}
					],
					"name": "increaseAllowance",
					"outputs": [
						{
							"internalType": "bool",
							"name": "",
							"type": "bool"
						}
					],
					"stateMutability": "nonpayable",
					"type": "function"
				},
				{
					"inputs": [],
					"name": "maxSupply",
					"outputs": [
						{
							"internalType": "uint256",
							"name": "",
							"type": "uint256"
						}
					],
					"stateMutability": "view",
					"type": "function"
				},
				{
					"inputs": [
						{
							"internalType": "uint256",
							"name": "a",
							"type": "uint256"
						},
						{
							"internalType": "uint256",
							"name": "b",
							"type": "uint256"
						}
					],
					"name": "min",
					"outputs": [
						{
							"internalType": "uint256",
							"name": "",
							"type": "uint256"
						}
					],
					"stateMutability": "pure",
					"type": "function"
				},
				{
					"inputs": [],
					"name": "mintedAmt",
					"outputs": [
						{
							"internalType": "uint256",
							"name": "",
							"type": "uint256"
						}
					],
					"stateMutability": "view",
					"type": "function"
				},
				{
					"inputs": [],
					"name": "name",
					"outputs": [
						{
							"internalType": "string",
							"name": "",
							"type": "string"
						}
					],
					"stateMutability": "view",
					"type": "function"
				},
				{
					"inputs": [
						{
							"internalType": "address",
							"name": "_account",
							"type": "address"
						},
						{
							"internalType": "uint256",
							"name": "_amount",
							"type": "uint256"
						}
					],
					"name": "removeClaimable",
					"outputs": [],
					"stateMutability": "nonpayable",
					"type": "function"
				},
				{
					"inputs": [
						{
							"internalType": "bytes32",
							"name": "role",
							"type": "bytes32"
						},
						{
							"internalType": "address",
							"name": "account",
							"type": "address"
						}
					],
					"name": "renounceRole",
					"outputs": [],
					"stateMutability": "nonpayable",
					"type": "function"
				},
				{
					"inputs": [
						{
							"internalType": "bytes32",
							"name": "role",
							"type": "bytes32"
						},
						{
							"internalType": "address",
							"name": "account",
							"type": "address"
						}
					],
					"name": "revokeRole",
					"outputs": [],
					"stateMutability": "nonpayable",
					"type": "function"
				},
				{
					"inputs": [
						{
							"internalType": "bytes4",
							"name": "interfaceId",
							"type": "bytes4"
						}
					],
					"name": "supportsInterface",
					"outputs": [
						{
							"internalType": "bool",
							"name": "",
							"type": "bool"
						}
					],
					"stateMutability": "view",
					"type": "function"
				},
				{
					"inputs": [],
					"name": "symbol",
					"outputs": [
						{
							"internalType": "string",
							"name": "",
							"type": "string"
						}
					],
					"stateMutability": "view",
					"type": "function"
				},
				{
					"inputs": [],
					"name": "totalSupply",
					"outputs": [
						{
							"internalType": "uint256",
							"name": "",
							"type": "uint256"
						}
					],
					"stateMutability": "view",
					"type": "function"
				},
				{
					"inputs": [
						{
							"internalType": "address",
							"name": "to",
							"type": "address"
						},
						{
							"internalType": "uint256",
							"name": "amount",
							"type": "uint256"
						}
					],
					"name": "transfer",
					"outputs": [
						{
							"internalType": "bool",
							"name": "",
							"type": "bool"
						}
					],
					"stateMutability": "nonpayable",
					"type": "function"
				},
				{
					"inputs": [
						{
							"internalType": "address",
							"name": "from",
							"type": "address"
						},
						{
							"internalType": "address",
							"name": "to",
							"type": "address"
						},
						{
							"internalType": "uint256",
							"name": "amount",
							"type": "uint256"
						}
					],
					"name": "transferFrom",
					"outputs": [
						{
							"internalType": "bool",
							"name": "",
							"type": "bool"
						}
					],
					"stateMutability": "nonpayable",
					"type": "function"
				},
				{
					"inputs": [
						{
							"internalType": "address",
							"name": "",
							"type": "address"
						}
					],
					"name": "unclaimed",
					"outputs": [
						{
							"internalType": "uint256",
							"name": "",
							"type": "uint256"
						}
					],
					"stateMutability": "view",
					"type": "function"
				}
			],
			"devdoc": {
				"kind": "dev",
				"methods": {
					"allowance(address,address)": {
						"details": "See {IERC20-allowance}."
					},
					"approve(address,uint256)": {
						"details": "See {IERC20-approve}. NOTE: If `amount` is the maximum `uint256`, the allowance is not updated on `transferFrom`. This is semantically equivalent to an infinite approval. Requirements: - `spender` cannot be the zero address."
					},
					"balanceOf(address)": {
						"details": "See {IERC20-balanceOf}."
					},
					"claim()": {
						"details": "Transfer unclaimed value"
					},
					"createClaimable(address,uint256)": {
						"details": "Store value in address mapped with unclaimed amounts using virtual amount (offchain value)",
						"params": {
							"_account": "account with value stored",
							"_amount": "value from offchain"
						}
					},
					"decimals()": {
						"details": "Returns the number of decimals used to get its user representation. For example, if `decimals` equals `2`, a balance of `505` tokens should be displayed to a user as `5.05` (`505 / 10 ** 2`). Tokens usually opt for a value of 18, imitating the relationship between Ether and Wei. This is the value {ERC20} uses, unless this function is overridden; NOTE: This information is only used for _display_ purposes: it in no way affects any of the arithmetic of the contract, including {IERC20-balanceOf} and {IERC20-transfer}."
					},
					"decreaseAllowance(address,uint256)": {
						"details": "Atomically decreases the allowance granted to `spender` by the caller. This is an alternative to {approve} that can be used as a mitigation for problems described in {IERC20-approve}. Emits an {Approval} event indicating the updated allowance. Requirements: - `spender` cannot be the zero address. - `spender` must have allowance for the caller of at least `subtractedValue`."
					},
					"getRoleAdmin(bytes32)": {
						"details": "Returns the admin role that controls `role`. See {grantRole} and {revokeRole}. To change a role's admin, use {_setRoleAdmin}."
					},
					"grantRole(bytes32,address)": {
						"details": "Grants `role` to `account`. If `account` had not been already granted `role`, emits a {RoleGranted} event. Requirements: - the caller must have ``role``'s admin role."
					},
					"hasRole(bytes32,address)": {
						"details": "Returns `true` if `account` has been granted `role`."
					},
					"increaseAllowance(address,uint256)": {
						"details": "Atomically increases the allowance granted to `spender` by the caller. This is an alternative to {approve} that can be used as a mitigation for problems described in {IERC20-approve}. Emits an {Approval} event indicating the updated allowance. Requirements: - `spender` cannot be the zero address."
					},
					"name()": {
						"details": "Returns the name of the token."
					},
					"removeClaimable(address,uint256)": {
						"details": "Remove value in address mapped with unclaimed amounts using virtual amount (offchain value)",
						"params": {
							"_account": "account with value stored",
							"_amount": "value to remove"
						}
					},
					"renounceRole(bytes32,address)": {
						"details": "Revokes `role` from the calling account. Roles are often managed via {grantRole} and {revokeRole}: this function's purpose is to provide a mechanism for accounts to lose their privileges if they are compromised (such as when a trusted device is misplaced). If the calling account had been revoked `role`, emits a {RoleRevoked} event. Requirements: - the caller must be `account`."
					},
					"revokeRole(bytes32,address)": {
						"details": "Revokes `role` from `account`. If `account` had been granted `role`, emits a {RoleRevoked} event. Requirements: - the caller must have ``role``'s admin role."
					},
					"supportsInterface(bytes4)": {
						"details": "See {IERC165-supportsInterface}."
					},
					"symbol()": {
						"details": "Returns the symbol of the token, usually a shorter version of the name."
					},
					"totalSupply()": {
						"details": "See {IERC20-totalSupply}."
					},
					"transfer(address,uint256)": {
						"details": "See {IERC20-transfer}. Requirements: - `to` cannot be the zero address. - the caller must have a balance of at least `amount`."
					},
					"transferFrom(address,address,uint256)": {
						"details": "See {IERC20-transferFrom}. Emits an {Approval} event indicating the updated allowance. This is not required by the EIP. See the note at the beginning of {ERC20}. NOTE: Does not update the allowance if the current allowance is the maximum `uint256`. Requirements: - `from` and `to` cannot be the zero address. - `from` must have a balance of at least `amount`. - the caller must have allowance for ``from``'s tokens of at least `amount`."
					}
				},
				"version": 1
			},
			"evm": {
				"assembly": "    /* \"contracts/Token.sol\":207:2460  contract FooToken is ERC20, AccessControl, Claim {... */\n  mstore(0x40, 0x80)\n    /* \"contracts/Token.sol\":491:590  constructor() ERC20('Foo Token', 'FOO') {... */\n  callvalue\n  dup1\n  iszero\n  tag_1\n  jumpi\n  0x00\n  dup1\n  revert\ntag_1:\n  pop\n    /* \"@openzeppelin/contracts/token/ERC20/ERC20.sol\":1978:2091  constructor(string memory name_, string memory symbol_) {... */\n  mload(0x40)\n  dup1\n  0x40\n  add\n  0x40\n  mstore\n  dup1\n  0x09\n  dup2\n  mstore\n  0x20\n  add\n  0x466f6f20546f6b656e0000000000000000000000000000000000000000000000\n  dup2\n  mstore\n  pop\n  mload(0x40)\n  dup1\n  0x40\n  add\n  0x40\n  mstore\n  dup1\n  0x03\n  dup2\n  mstore\n  0x20\n  add\n  0x464f4f0000000000000000000000000000000000000000000000000000000000\n  dup2\n  mstore\n  pop\n    /* \"@openzeppelin/contracts/token/ERC20/ERC20.sol\":2052:2057  name_ */\n  dup2\n    /* \"@openzeppelin/contracts/token/ERC20/ERC20.sol\":2044:2049  _name */\n  0x03\n    /* \"@openzeppelin/contracts/token/ERC20/ERC20.sol\":2044:2057  _name = name_ */\n  swap1\n  dup1\n  mload\n  swap1\n  0x20\n  add\n  swap1\n  tag_5\n  swap3\n  swap2\n  swap1\n  tag_6\n  jump\t// in\ntag_5:\n  pop\n    /* \"@openzeppelin/contracts/token/ERC20/ERC20.sol\":2077:2084  symbol_ */\n  dup1\n    /* \"@openzeppelin/contracts/token/ERC20/ERC20.sol\":2067:2074  _symbol */\n  0x04\n    /* \"@openzeppelin/contracts/token/ERC20/ERC20.sol\":2067:2084  _symbol = symbol_ */\n  swap1\n  dup1\n  mload\n  swap1\n  0x20\n  add\n  swap1\n  tag_7\n  swap3\n  swap2\n  swap1\n  tag_6\n  jump\t// in\ntag_7:\n  pop\n    /* \"@openzeppelin/contracts/token/ERC20/ERC20.sol\":1978:2091  constructor(string memory name_, string memory symbol_) {... */\n  pop\n  pop\n    /* \"contracts/Token.sol\":541:583  _setupRole(DEFAULT_ADMIN_ROLE, msg.sender) */\n  tag_9\n    /* \"@openzeppelin/contracts/access/AccessControl.sol\":2072:2076  0x00 */\n  0x00\n    /* \"contracts/Token.sol\":552:570  DEFAULT_ADMIN_ROLE */\n  dup1\n  shl\n    /* \"contracts/Token.sol\":572:582  msg.sender */\n  caller\n    /* \"contracts/Token.sol\":541:551  _setupRole */\n  shl(0x20, tag_10)\n    /* \"contracts/Token.sol\":541:583  _setupRole(DEFAULT_ADMIN_ROLE, msg.sender) */\n  0x20\n  shr\n  jump\t// in\ntag_9:\n    /* \"contracts/Token.sol\":207:2460  contract FooToken is ERC20, AccessControl, Claim {... */\n  jump(tag_11)\n    /* \"@openzeppelin/contracts/access/AccessControl.sol\":6257:6367  function _setupRole(bytes32 role, address account) internal virtual {... */\ntag_10:\n    /* \"@openzeppelin/contracts/access/AccessControl.sol\":6335:6360  _grantRole(role, account) */\n  tag_13\n    /* \"@openzeppelin/contracts/access/AccessControl.sol\":6346:6350  role */\n  dup3\n    /* \"@openzeppelin/contracts/access/AccessControl.sol\":6352:6359  account */\n  dup3\n    /* \"@openzeppelin/contracts/access/AccessControl.sol\":6335:6345  _grantRole */\n  shl(0x20, tag_14)\n    /* \"@openzeppelin/contracts/access/AccessControl.sol\":6335:6360  _grantRole(role, account) */\n  0x20\n  shr\n  jump\t// in\ntag_13:\n    /* \"@openzeppelin/contracts/access/AccessControl.sol\":6257:6367  function _setupRole(bytes32 role, address account) internal virtual {... */\n  pop\n  pop\n  jump\t// out\n    /* \"@openzeppelin/contracts/access/AccessControl.sol\":6861:7094  function _grantRole(bytes32 role, address account) internal virtual {... */\ntag_14:\n    /* \"@openzeppelin/contracts/access/AccessControl.sol\":6944:6966  hasRole(role, account) */\n  tag_16\n    /* \"@openzeppelin/contracts/access/AccessControl.sol\":6952:6956  role */\n  dup3\n    /* \"@openzeppelin/contracts/access/AccessControl.sol\":6958:6965  account */\n  dup3\n    /* \"@openzeppelin/contracts/access/AccessControl.sol\":6944:6951  hasRole */\n  shl(0x20, tag_17)\n    /* \"@openzeppelin/contracts/access/AccessControl.sol\":6944:6966  hasRole(role, account) */\n  0x20\n  shr\n  jump\t// in\ntag_16:\n    /* \"@openzeppelin/contracts/access/AccessControl.sol\":6939:7088  if (!hasRole(role, account)) {... */\n  tag_18\n  jumpi\n    /* \"@openzeppelin/contracts/access/AccessControl.sol\":7014:7018  true */\n  0x01\n    /* \"@openzeppelin/contracts/access/AccessControl.sol\":6982:6988  _roles */\n  0x05\n    /* \"@openzeppelin/contracts/access/AccessControl.sol\":6982:6994  _roles[role] */\n  0x00\n    /* \"@openzeppelin/contracts/access/AccessControl.sol\":6989:6993  role */\n  dup5\n    /* \"@openzeppelin/contracts/access/AccessControl.sol\":6982:6994  _roles[role] */\n  dup2\n  mstore\n  0x20\n  add\n  swap1\n  dup2\n  mstore\n  0x20\n  add\n  0x00\n  keccak256\n    /* \"@openzeppelin/contracts/access/AccessControl.sol\":6982:7002  _roles[role].members */\n  0x00\n  add\n    /* \"@openzeppelin/contracts/access/AccessControl.sol\":6982:7011  _roles[role].members[account] */\n  0x00\n    /* \"@openzeppelin/contracts/access/AccessControl.sol\":7003:7010  account */\n  dup4\n    /* \"@openzeppelin/contracts/access/AccessControl.sol\":6982:7011  _roles[role].members[account] */\n  0xffffffffffffffffffffffffffffffffffffffff\n  and\n  0xffffffffffffffffffffffffffffffffffffffff\n  and\n  dup2\n  mstore\n  0x20\n  add\n  swap1\n  dup2\n  mstore\n  0x20\n  add\n  0x00\n  keccak256\n  0x00\n    /* \"@openzeppelin/contracts/access/AccessControl.sol\":6982:7018  _roles[role].members[account] = true */\n  0x0100\n  exp\n  dup2\n  sload\n  dup2\n  0xff\n  mul\n  not\n  and\n  swap1\n  dup4\n  iszero\n  iszero\n  mul\n  or\n  swap1\n  sstore\n  pop\n    /* \"@openzeppelin/contracts/access/AccessControl.sol\":7064:7076  _msgSender() */\n  tag_19\n    /* \"@openzeppelin/contracts/access/AccessControl.sol\":7064:7074  _msgSender */\n  shl(0x20, tag_20)\n    /* \"@openzeppelin/contracts/access/AccessControl.sol\":7064:7076  _msgSender() */\n  0x20\n  shr\n  jump\t// in\ntag_19:\n    /* \"@openzeppelin/contracts/access/AccessControl.sol\":7037:7077  RoleGranted(role, account, _msgSender()) */\n  0xffffffffffffffffffffffffffffffffffffffff\n  and\n    /* \"@openzeppelin/contracts/access/AccessControl.sol\":7055:7062  account */\n  dup2\n    /* \"@openzeppelin/contracts/access/AccessControl.sol\":7037:7077  RoleGranted(role, account, _msgSender()) */\n  0xffffffffffffffffffffffffffffffffffffffff\n  and\n    /* \"@openzeppelin/contracts/access/AccessControl.sol\":7049:7053  role */\n  dup4\n    /* \"@openzeppelin/contracts/access/AccessControl.sol\":7037:7077  RoleGranted(role, account, _msgSender()) */\n  0x2f8788117e7eff1d82e926ec794901d17c78024a50270940304540a733656f0d\n  mload(0x40)\n  mload(0x40)\n  dup1\n  swap2\n  sub\n  swap1\n  log4\n    /* \"@openzeppelin/contracts/access/AccessControl.sol\":6939:7088  if (!hasRole(role, account)) {... */\ntag_18:\n    /* \"@openzeppelin/contracts/access/AccessControl.sol\":6861:7094  function _grantRole(bytes32 role, address account) internal virtual {... */\n  pop\n  pop\n  jump\t// out\n    /* \"@openzeppelin/contracts/access/AccessControl.sol\":2909:3054  function hasRole(bytes32 role, address account) public view virtual override returns (bool) {... */\ntag_17:\n    /* \"@openzeppelin/contracts/access/AccessControl.sol\":2995:2999  bool */\n  0x00\n    /* \"@openzeppelin/contracts/access/AccessControl.sol\":3018:3024  _roles */\n  0x05\n    /* \"@openzeppelin/contracts/access/AccessControl.sol\":3018:3030  _roles[role] */\n  0x00\n    /* \"@openzeppelin/contracts/access/AccessControl.sol\":3025:3029  role */\n  dup5\n    /* \"@openzeppelin/contracts/access/AccessControl.sol\":3018:3030  _roles[role] */\n  dup2\n  mstore\n  0x20\n  add\n  swap1\n  dup2\n  mstore\n  0x20\n  add\n  0x00\n  keccak256\n    /* \"@openzeppelin/contracts/access/AccessControl.sol\":3018:3038  _roles[role].members */\n  0x00\n  add\n    /* \"@openzeppelin/contracts/access/AccessControl.sol\":3018:3047  _roles[role].members[account] */\n  0x00\n    /* \"@openzeppelin/contracts/access/AccessControl.sol\":3039:3046  account */\n  dup4\n    /* \"@openzeppelin/contracts/access/AccessControl.sol\":3018:3047  _roles[role].members[account] */\n  0xffffffffffffffffffffffffffffffffffffffff\n  and\n  0xffffffffffffffffffffffffffffffffffffffff\n  and\n  dup2\n  mstore\n  0x20\n  add\n  swap1\n  dup2\n  mstore\n  0x20\n  add\n  0x00\n  keccak256\n  0x00\n  swap1\n  sload\n  swap1\n  0x0100\n  exp\n  swap1\n  div\n  0xff\n  and\n    /* \"@openzeppelin/contracts/access/AccessControl.sol\":3011:3047  return _roles[role].members[account] */\n  swap1\n  pop\n    /* \"@openzeppelin/contracts/access/AccessControl.sol\":2909:3054  function hasRole(bytes32 role, address account) public view virtual override returns (bool) {... */\n  swap3\n  swap2\n  pop\n  pop\n  jump\t// out\n    /* \"@openzeppelin/contracts/utils/Context.sol\":640:736  function _msgSender() internal view virtual returns (address) {... */\ntag_20:\n    /* \"@openzeppelin/contracts/utils/Context.sol\":693:700  address */\n  0x00\n    /* \"@openzeppelin/contracts/utils/Context.sol\":719:729  msg.sender */\n  caller\n    /* \"@openzeppelin/contracts/utils/Context.sol\":712:729  return msg.sender */\n  swap1\n  pop\n    /* \"@openzeppelin/contracts/utils/Context.sol\":640:736  function _msgSender() internal view virtual returns (address) {... */\n  swap1\n  jump\t// out\n    /* \"contracts/Token.sol\":207:2460  contract FooToken is ERC20, AccessControl, Claim {... */\ntag_6:\n  dup3\n  dup1\n  sload\n  tag_23\n  swap1\n  tag_24\n  jump\t// in\ntag_23:\n  swap1\n  0x00\n  mstore\n  keccak256(0x00, 0x20)\n  swap1\n  0x1f\n  add\n  0x20\n  swap1\n  div\n  dup2\n  add\n  swap3\n  dup3\n  tag_26\n  jumpi\n  0x00\n  dup6\n  sstore\n  jump(tag_25)\ntag_26:\n  dup3\n  0x1f\n  lt\n  tag_27\n  jumpi\n  dup1\n  mload\n  not(0xff)\n  and\n  dup4\n  dup1\n  add\n  or\n  dup6\n  sstore\n  jump(tag_25)\ntag_27:\n  dup3\n  dup1\n  add\n  0x01\n  add\n  dup6\n  sstore\n  dup3\n  iszero\n  tag_25\n  jumpi\n  swap2\n  dup3\n  add\ntag_28:\n  dup3\n  dup2\n  gt\n  iszero\n  tag_29\n  jumpi\n  dup3\n  mload\n  dup3\n  sstore\n  swap2\n  0x20\n  add\n  swap2\n  swap1\n  0x01\n  add\n  swap1\n  jump(tag_28)\ntag_29:\ntag_25:\n  pop\n  swap1\n  pop\n  tag_30\n  swap2\n  swap1\n  tag_31\n  jump\t// in\ntag_30:\n  pop\n  swap1\n  jump\t// out\ntag_31:\ntag_32:\n  dup1\n  dup3\n  gt\n  iszero\n  tag_33\n  jumpi\n  0x00\n  dup2\n  0x00\n  swap1\n  sstore\n  pop\n  0x01\n  add\n  jump(tag_32)\ntag_33:\n  pop\n  swap1\n  jump\t// out\n    /* \"#utility.yul\":7:327   */\ntag_24:\n    /* \"#utility.yul\":51:57   */\n  0x00\n    /* \"#utility.yul\":88:89   */\n  0x02\n    /* \"#utility.yul\":82:86   */\n  dup3\n    /* \"#utility.yul\":78:90   */\n  div\n    /* \"#utility.yul\":68:90   */\n  swap1\n  pop\n    /* \"#utility.yul\":135:136   */\n  0x01\n    /* \"#utility.yul\":129:133   */\n  dup3\n    /* \"#utility.yul\":125:137   */\n  and\n    /* \"#utility.yul\":156:174   */\n  dup1\n    /* \"#utility.yul\":146:227   */\n  tag_36\n  jumpi\n    /* \"#utility.yul\":212:216   */\n  0x7f\n    /* \"#utility.yul\":204:210   */\n  dup3\n    /* \"#utility.yul\":200:217   */\n  and\n    /* \"#utility.yul\":190:217   */\n  swap2\n  pop\n    /* \"#utility.yul\":146:227   */\ntag_36:\n    /* \"#utility.yul\":274:276   */\n  0x20\n    /* \"#utility.yul\":266:272   */\n  dup3\n    /* \"#utility.yul\":263:277   */\n  lt\n    /* \"#utility.yul\":243:261   */\n  dup2\n    /* \"#utility.yul\":240:278   */\n  eq\n    /* \"#utility.yul\":237:321   */\n  iszero\n  tag_37\n  jumpi\n    /* \"#utility.yul\":293:311   */\n  tag_38\n  tag_39\n  jump\t// in\ntag_38:\n    /* \"#utility.yul\":237:321   */\ntag_37:\n    /* \"#utility.yul\":58:327   */\n  pop\n    /* \"#utility.yul\":7:327   */\n  swap2\n  swap1\n  pop\n  jump\t// out\n    /* \"#utility.yul\":333:513   */\ntag_39:\n    /* \"#utility.yul\":381:458   */\n  0x4e487b7100000000000000000000000000000000000000000000000000000000\n    /* \"#utility.yul\":378:379   */\n  0x00\n    /* \"#utility.yul\":371:459   */\n  mstore\n    /* \"#utility.yul\":478:482   */\n  0x22\n    /* \"#utility.yul\":475:476   */\n  0x04\n    /* \"#utility.yul\":468:483   */\n  mstore\n    /* \"#utility.yul\":502:506   */\n  0x24\n    /* \"#utility.yul\":499:500   */\n  0x00\n    /* \"#utility.yul\":492:507   */\n  revert\n    /* \"contracts/Token.sol\":207:2460  contract FooToken is ERC20, AccessControl, Claim {... */\ntag_11:\n  dataSize(sub_0)\n  dup1\n  dataOffset(sub_0)\n  0x00\n  codecopy\n  0x00\n  return\nstop\n\nsub_0: assembly {\n        /* \"contracts/Token.sol\":207:2460  contract FooToken is ERC20, AccessControl, Claim {... */\n      mstore(0x40, 0x80)\n      jumpi(tag_1, lt(calldatasize, 0x04))\n      shr(0xe0, calldataload(0x00))\n      dup1\n      0x70a08231\n      gt\n      tag_31\n      jumpi\n      dup1\n      0xa217fddf\n      gt\n      tag_32\n      jumpi\n      dup1\n      0xd547741f\n      gt\n      tag_33\n      jumpi\n      dup1\n      0xd547741f\n      eq\n      tag_27\n      jumpi\n      dup1\n      0xd5abeb01\n      eq\n      tag_28\n      jumpi\n      dup1\n      0xdd62ed3e\n      eq\n      tag_29\n      jumpi\n      dup1\n      0xe5b7f305\n      eq\n      tag_30\n      jumpi\n      jump(tag_1)\n    tag_33:\n      dup1\n      0xa217fddf\n      eq\n      tag_23\n      jumpi\n      dup1\n      0xa457c2d7\n      eq\n      tag_24\n      jumpi\n      dup1\n      0xa9059cbb\n      eq\n      tag_25\n      jumpi\n      dup1\n      0xc884ef83\n      eq\n      tag_26\n      jumpi\n      jump(tag_1)\n    tag_32:\n      dup1\n      0x8a9db765\n      gt\n      tag_34\n      jumpi\n      dup1\n      0x8a9db765\n      eq\n      tag_19\n      jumpi\n      dup1\n      0x91d14854\n      eq\n      tag_20\n      jumpi\n      dup1\n      0x95d89b41\n      eq\n      tag_21\n      jumpi\n      dup1\n      0x9dc29fac\n      eq\n      tag_22\n      jumpi\n      jump(tag_1)\n    tag_34:\n      dup1\n      0x70a08231\n      eq\n      tag_16\n      jumpi\n      dup1\n      0x7ae2b5c7\n      eq\n      tag_17\n      jumpi\n      dup1\n      0x8580cf76\n      eq\n      tag_18\n      jumpi\n      jump(tag_1)\n    tag_31:\n      dup1\n      0x282c51f3\n      gt\n      tag_35\n      jumpi\n      dup1\n      0x36568abe\n      gt\n      tag_36\n      jumpi\n      dup1\n      0x36568abe\n      eq\n      tag_12\n      jumpi\n      dup1\n      0x39509351\n      eq\n      tag_13\n      jumpi\n      dup1\n      0x4e71d92d\n      eq\n      tag_14\n      jumpi\n      dup1\n      0x505bd3da\n      eq\n      tag_15\n      jumpi\n      jump(tag_1)\n    tag_36:\n      dup1\n      0x282c51f3\n      eq\n      tag_9\n      jumpi\n      dup1\n      0x2f2ff15d\n      eq\n      tag_10\n      jumpi\n      dup1\n      0x313ce567\n      eq\n      tag_11\n      jumpi\n      jump(tag_1)\n    tag_35:\n      dup1\n      0x18160ddd\n      gt\n      tag_37\n      jumpi\n      dup1\n      0x18160ddd\n      eq\n      tag_5\n      jumpi\n      dup1\n      0x1adb068a\n      eq\n      tag_6\n      jumpi\n      dup1\n      0x23b872dd\n      eq\n      tag_7\n      jumpi\n      dup1\n      0x248a9ca3\n      eq\n      tag_8\n      jumpi\n      jump(tag_1)\n    tag_37:\n      dup1\n      0x01ffc9a7\n      eq\n      tag_2\n      jumpi\n      dup1\n      0x06fdde03\n      eq\n      tag_3\n      jumpi\n      dup1\n      0x095ea7b3\n      eq\n      tag_4\n      jumpi\n    tag_1:\n      0x00\n      dup1\n      revert\n        /* \"@openzeppelin/contracts/access/AccessControl.sol\":2620:2822  function supportsInterface(bytes4 interfaceId) public view virtual override returns (bool) {... */\n    tag_2:\n      callvalue\n      dup1\n      iszero\n      tag_38\n      jumpi\n      0x00\n      dup1\n      revert\n    tag_38:\n      pop\n      tag_39\n      0x04\n      dup1\n      calldatasize\n      sub\n      dup2\n      add\n      swap1\n      tag_40\n      swap2\n      swap1\n      tag_41\n      jump\t// in\n    tag_40:\n      tag_42\n      jump\t// in\n    tag_39:\n      mload(0x40)\n      tag_43\n      swap2\n      swap1\n      tag_44\n      jump\t// in\n    tag_43:\n      mload(0x40)\n      dup1\n      swap2\n      sub\n      swap1\n      return\n        /* \"@openzeppelin/contracts/token/ERC20/ERC20.sol\":2156:2254  function name() public view virtual override returns (string memory) {... */\n    tag_3:\n      callvalue\n      dup1\n      iszero\n      tag_45\n      jumpi\n      0x00\n      dup1\n      revert\n    tag_45:\n      pop\n      tag_46\n      tag_47\n      jump\t// in\n    tag_46:\n      mload(0x40)\n      tag_48\n      swap2\n      swap1\n      tag_49\n      jump\t// in\n    tag_48:\n      mload(0x40)\n      dup1\n      swap2\n      sub\n      swap1\n      return\n        /* \"@openzeppelin/contracts/token/ERC20/ERC20.sol\":4433:4630  function approve(address spender, uint256 amount) public virtual override returns (bool) {... */\n    tag_4:\n      callvalue\n      dup1\n      iszero\n      tag_50\n      jumpi\n      0x00\n      dup1\n      revert\n    tag_50:\n      pop\n      tag_51\n      0x04\n      dup1\n      calldatasize\n      sub\n      dup2\n      add\n      swap1\n      tag_52\n      swap2\n      swap1\n      tag_53\n      jump\t// in\n    tag_52:\n      tag_54\n      jump\t// in\n    tag_51:\n      mload(0x40)\n      tag_55\n      swap2\n      swap1\n      tag_44\n      jump\t// in\n    tag_55:\n      mload(0x40)\n      dup1\n      swap2\n      sub\n      swap1\n      return\n        /* \"@openzeppelin/contracts/token/ERC20/ERC20.sol\":3244:3350  function totalSupply() public view virtual override returns (uint256) {... */\n    tag_5:\n      callvalue\n      dup1\n      iszero\n      tag_56\n      jumpi\n      0x00\n      dup1\n      revert\n    tag_56:\n      pop\n      tag_57\n      tag_58\n      jump\t// in\n    tag_57:\n      mload(0x40)\n      tag_59\n      swap2\n      swap1\n      tag_60\n      jump\t// in\n    tag_59:\n      mload(0x40)\n      dup1\n      swap2\n      sub\n      swap1\n      return\n        /* \"contracts/Token.sol\":463:484  uint public mintedAmt */\n    tag_6:\n      callvalue\n      dup1\n      iszero\n      tag_61\n      jumpi\n      0x00\n      dup1\n      revert\n    tag_61:\n      pop\n      tag_62\n      tag_63\n      jump\t// in\n    tag_62:\n      mload(0x40)\n      tag_64\n      swap2\n      swap1\n      tag_60\n      jump\t// in\n    tag_64:\n      mload(0x40)\n      dup1\n      swap2\n      sub\n      swap1\n      return\n        /* \"@openzeppelin/contracts/token/ERC20/ERC20.sol\":5192:5478  function transferFrom(... */\n    tag_7:\n      callvalue\n      dup1\n      iszero\n      tag_65\n      jumpi\n      0x00\n      dup1\n      revert\n    tag_65:\n      pop\n      tag_66\n      0x04\n      dup1\n      calldatasize\n      sub\n      dup2\n      add\n      swap1\n      tag_67\n      swap2\n      swap1\n      tag_68\n      jump\t// in\n    tag_67:\n      tag_69\n      jump\t// in\n    tag_66:\n      mload(0x40)\n      tag_70\n      swap2\n      swap1\n      tag_44\n      jump\t// in\n    tag_70:\n      mload(0x40)\n      dup1\n      swap2\n      sub\n      swap1\n      return\n        /* \"@openzeppelin/contracts/access/AccessControl.sol\":4008:4137  function getRoleAdmin(bytes32 role) public view virtual override returns (bytes32) {... */\n    tag_8:\n      callvalue\n      dup1\n      iszero\n      tag_71\n      jumpi\n      0x00\n      dup1\n      revert\n    tag_71:\n      pop\n      tag_72\n      0x04\n      dup1\n      calldatasize\n      sub\n      dup2\n      add\n      swap1\n      tag_73\n      swap2\n      swap1\n      tag_74\n      jump\t// in\n    tag_73:\n      tag_75\n      jump\t// in\n    tag_72:\n      mload(0x40)\n      tag_76\n      swap2\n      swap1\n      tag_77\n      jump\t// in\n    tag_76:\n      mload(0x40)\n      dup1\n      swap2\n      sub\n      swap1\n      return\n        /* \"contracts/Token.sol\":263:325  bytes32 public constant BURNER_ROLE = keccak256(\"BURNER_ROLE\") */\n    tag_9:\n      callvalue\n      dup1\n      iszero\n      tag_78\n      jumpi\n      0x00\n      dup1\n      revert\n    tag_78:\n      pop\n      tag_79\n      tag_80\n      jump\t// in\n    tag_79:\n      mload(0x40)\n      tag_81\n      swap2\n      swap1\n      tag_77\n      jump\t// in\n    tag_81:\n      mload(0x40)\n      dup1\n      swap2\n      sub\n      swap1\n      return\n        /* \"@openzeppelin/contracts/access/AccessControl.sol\":4387:4532  function grantRole(bytes32 role, address account) public virtual override onlyRole(getRoleAdmin(role)) {... */\n    tag_10:\n      callvalue\n      dup1\n      iszero\n      tag_82\n      jumpi\n      0x00\n      dup1\n      revert\n    tag_82:\n      pop\n      tag_83\n      0x04\n      dup1\n      calldatasize\n      sub\n      dup2\n      add\n      swap1\n      tag_84\n      swap2\n      swap1\n      tag_85\n      jump\t// in\n    tag_84:\n      tag_86\n      jump\t// in\n    tag_83:\n      stop\n        /* \"@openzeppelin/contracts/token/ERC20/ERC20.sol\":3093:3184  function decimals() public view virtual override returns (uint8) {... */\n    tag_11:\n      callvalue\n      dup1\n      iszero\n      tag_87\n      jumpi\n      0x00\n      dup1\n      revert\n    tag_87:\n      pop\n      tag_88\n      tag_89\n      jump\t// in\n    tag_88:\n      mload(0x40)\n      tag_90\n      swap2\n      swap1\n      tag_91\n      jump\t// in\n    tag_90:\n      mload(0x40)\n      dup1\n      swap2\n      sub\n      swap1\n      return\n        /* \"@openzeppelin/contracts/access/AccessControl.sol\":5404:5618  function renounceRole(bytes32 role, address account) public virtual override {... */\n    tag_12:\n      callvalue\n      dup1\n      iszero\n      tag_92\n      jumpi\n      0x00\n      dup1\n      revert\n    tag_92:\n      pop\n      tag_93\n      0x04\n      dup1\n      calldatasize\n      sub\n      dup2\n      add\n      swap1\n      tag_94\n      swap2\n      swap1\n      tag_85\n      jump\t// in\n    tag_94:\n      tag_95\n      jump\t// in\n    tag_93:\n      stop\n        /* \"@openzeppelin/contracts/token/ERC20/ERC20.sol\":5873:6109  function increaseAllowance(address spender, uint256 addedValue) public virtual returns (bool) {... */\n    tag_13:\n      callvalue\n      dup1\n      iszero\n      tag_96\n      jumpi\n      0x00\n      dup1\n      revert\n    tag_96:\n      pop\n      tag_97\n      0x04\n      dup1\n      calldatasize\n      sub\n      dup2\n      add\n      swap1\n      tag_98\n      swap2\n      swap1\n      tag_53\n      jump\t// in\n    tag_98:\n      tag_99\n      jump\t// in\n    tag_97:\n      mload(0x40)\n      tag_100\n      swap2\n      swap1\n      tag_44\n      jump\t// in\n    tag_100:\n      mload(0x40)\n      dup1\n      swap2\n      sub\n      swap1\n      return\n        /* \"contracts/Token.sol\":1941:2458  function claim() public payable {... */\n    tag_14:\n      tag_101\n      tag_102\n      jump\t// in\n    tag_101:\n      stop\n        /* \"contracts/Claim.sol\":163:204  mapping(address => uint) public unclaimed */\n    tag_15:\n      callvalue\n      dup1\n      iszero\n      tag_103\n      jumpi\n      0x00\n      dup1\n      revert\n    tag_103:\n      pop\n      tag_104\n      0x04\n      dup1\n      calldatasize\n      sub\n      dup2\n      add\n      swap1\n      tag_105\n      swap2\n      swap1\n      tag_106\n      jump\t// in\n    tag_105:\n      tag_107\n      jump\t// in\n    tag_104:\n      mload(0x40)\n      tag_108\n      swap2\n      swap1\n      tag_60\n      jump\t// in\n    tag_108:\n      mload(0x40)\n      dup1\n      swap2\n      sub\n      swap1\n      return\n        /* \"@openzeppelin/contracts/token/ERC20/ERC20.sol\":3408:3533  function balanceOf(address account) public view virtual override returns (uint256) {... */\n    tag_16:\n      callvalue\n      dup1\n      iszero\n      tag_109\n      jumpi\n      0x00\n      dup1\n      revert\n    tag_109:\n      pop\n      tag_110\n      0x04\n      dup1\n      calldatasize\n      sub\n      dup2\n      add\n      swap1\n      tag_111\n      swap2\n      swap1\n      tag_106\n      jump\t// in\n    tag_111:\n      tag_112\n      jump\t// in\n    tag_110:\n      mload(0x40)\n      tag_113\n      swap2\n      swap1\n      tag_60\n      jump\t// in\n    tag_113:\n      mload(0x40)\n      dup1\n      swap2\n      sub\n      swap1\n      return\n        /* \"contracts/Token.sol\":1779:1882  function min(uint256 a, uint256 b) public pure returns (uint256) {... */\n    tag_17:\n      callvalue\n      dup1\n      iszero\n      tag_114\n      jumpi\n      0x00\n      dup1\n      revert\n    tag_114:\n      pop\n      tag_115\n      0x04\n      dup1\n      calldatasize\n      sub\n      dup2\n      add\n      swap1\n      tag_116\n      swap2\n      swap1\n      tag_117\n      jump\t// in\n    tag_116:\n      tag_118\n      jump\t// in\n    tag_115:\n      mload(0x40)\n      tag_119\n      swap2\n      swap1\n      tag_60\n      jump\t// in\n    tag_119:\n      mload(0x40)\n      dup1\n      swap2\n      sub\n      swap1\n      return\n        /* \"contracts/Token.sol\":331:397  bytes32 public constant REWARDER_ROLE = keccak256(\"REWARDER_ROLE\") */\n    tag_18:\n      callvalue\n      dup1\n      iszero\n      tag_120\n      jumpi\n      0x00\n      dup1\n      revert\n    tag_120:\n      pop\n      tag_121\n      tag_122\n      jump\t// in\n    tag_121:\n      mload(0x40)\n      tag_123\n      swap2\n      swap1\n      tag_77\n      jump\t// in\n    tag_123:\n      mload(0x40)\n      dup1\n      swap2\n      sub\n      swap1\n      return\n        /* \"contracts/Token.sol\":987:1348  function createClaimable(address _account, uint256 _amount) external {... */\n    tag_19:\n      callvalue\n      dup1\n      iszero\n      tag_124\n      jumpi\n      0x00\n      dup1\n      revert\n    tag_124:\n      pop\n      tag_125\n      0x04\n      dup1\n      calldatasize\n      sub\n      dup2\n      add\n      swap1\n      tag_126\n      swap2\n      swap1\n      tag_53\n      jump\t// in\n    tag_126:\n      tag_127\n      jump\t// in\n    tag_125:\n      stop\n        /* \"@openzeppelin/contracts/access/AccessControl.sol\":2909:3054  function hasRole(bytes32 role, address account) public view virtual override returns (bool) {... */\n    tag_20:\n      callvalue\n      dup1\n      iszero\n      tag_128\n      jumpi\n      0x00\n      dup1\n      revert\n    tag_128:\n      pop\n      tag_129\n      0x04\n      dup1\n      calldatasize\n      sub\n      dup2\n      add\n      swap1\n      tag_130\n      swap2\n      swap1\n      tag_85\n      jump\t// in\n    tag_130:\n      tag_131\n      jump\t// in\n    tag_129:\n      mload(0x40)\n      tag_132\n      swap2\n      swap1\n      tag_44\n      jump\t// in\n    tag_132:\n      mload(0x40)\n      dup1\n      swap2\n      sub\n      swap1\n      return\n        /* \"@openzeppelin/contracts/token/ERC20/ERC20.sol\":2367:2469  function symbol() public view virtual override returns (string memory) {... */\n    tag_21:\n      callvalue\n      dup1\n      iszero\n      tag_133\n      jumpi\n      0x00\n      dup1\n      revert\n    tag_133:\n      pop\n      tag_134\n      tag_135\n      jump\t// in\n    tag_134:\n      mload(0x40)\n      tag_136\n      swap2\n      swap1\n      tag_49\n      jump\t// in\n    tag_136:\n      mload(0x40)\n      dup1\n      swap2\n      sub\n      swap1\n      return\n        /* \"contracts/Token.sol\":596:771  function burn(address from, uint256 amount) public {... */\n    tag_22:\n      callvalue\n      dup1\n      iszero\n      tag_137\n      jumpi\n      0x00\n      dup1\n      revert\n    tag_137:\n      pop\n      tag_138\n      0x04\n      dup1\n      calldatasize\n      sub\n      dup2\n      add\n      swap1\n      tag_139\n      swap2\n      swap1\n      tag_53\n      jump\t// in\n    tag_139:\n      tag_140\n      jump\t// in\n    tag_138:\n      stop\n        /* \"@openzeppelin/contracts/access/AccessControl.sol\":2027:2076  bytes32 public constant DEFAULT_ADMIN_ROLE = 0x00 */\n    tag_23:\n      callvalue\n      dup1\n      iszero\n      tag_141\n      jumpi\n      0x00\n      dup1\n      revert\n    tag_141:\n      pop\n      tag_142\n      tag_143\n      jump\t// in\n    tag_142:\n      mload(0x40)\n      tag_144\n      swap2\n      swap1\n      tag_77\n      jump\t// in\n    tag_144:\n      mload(0x40)\n      dup1\n      swap2\n      sub\n      swap1\n      return\n        /* \"@openzeppelin/contracts/token/ERC20/ERC20.sol\":6596:7025  function decreaseAllowance(address spender, uint256 subtractedValue) public virtual returns (bool) {... */\n    tag_24:\n      callvalue\n      dup1\n      iszero\n      tag_145\n      jumpi\n      0x00\n      dup1\n      revert\n    tag_145:\n      pop\n      tag_146\n      0x04\n      dup1\n      calldatasize\n      sub\n      dup2\n      add\n      swap1\n      tag_147\n      swap2\n      swap1\n      tag_53\n      jump\t// in\n    tag_147:\n      tag_148\n      jump\t// in\n    tag_146:\n      mload(0x40)\n      tag_149\n      swap2\n      swap1\n      tag_44\n      jump\t// in\n    tag_149:\n      mload(0x40)\n      dup1\n      swap2\n      sub\n      swap1\n      return\n        /* \"@openzeppelin/contracts/token/ERC20/ERC20.sol\":3729:3918  function transfer(address to, uint256 amount) public virtual override returns (bool) {... */\n    tag_25:\n      callvalue\n      dup1\n      iszero\n      tag_150\n      jumpi\n      0x00\n      dup1\n      revert\n    tag_150:\n      pop\n      tag_151\n      0x04\n      dup1\n      calldatasize\n      sub\n      dup2\n      add\n      swap1\n      tag_152\n      swap2\n      swap1\n      tag_53\n      jump\t// in\n    tag_152:\n      tag_153\n      jump\t// in\n    tag_151:\n      mload(0x40)\n      tag_154\n      swap2\n      swap1\n      tag_44\n      jump\t// in\n    tag_154:\n      mload(0x40)\n      dup1\n      swap2\n      sub\n      swap1\n      return\n        /* \"contracts/Claim.sol\":210:249  mapping(address => uint) public claimed */\n    tag_26:\n      callvalue\n      dup1\n      iszero\n      tag_155\n      jumpi\n      0x00\n      dup1\n      revert\n    tag_155:\n      pop\n      tag_156\n      0x04\n      dup1\n      calldatasize\n      sub\n      dup2\n      add\n      swap1\n      tag_157\n      swap2\n      swap1\n      tag_106\n      jump\t// in\n    tag_157:\n      tag_158\n      jump\t// in\n    tag_156:\n      mload(0x40)\n      tag_159\n      swap2\n      swap1\n      tag_60\n      jump\t// in\n    tag_159:\n      mload(0x40)\n      dup1\n      swap2\n      sub\n      swap1\n      return\n        /* \"@openzeppelin/contracts/access/AccessControl.sol\":4766:4913  function revokeRole(bytes32 role, address account) public virtual override onlyRole(getRoleAdmin(role)) {... */\n    tag_27:\n      callvalue\n      dup1\n      iszero\n      tag_160\n      jumpi\n      0x00\n      dup1\n      revert\n    tag_160:\n      pop\n      tag_161\n      0x04\n      dup1\n      calldatasize\n      sub\n      dup2\n      add\n      swap1\n      tag_162\n      swap2\n      swap1\n      tag_85\n      jump\t// in\n    tag_162:\n      tag_163\n      jump\t// in\n    tag_161:\n      stop\n        /* \"contracts/Token.sol\":404:457  uint public constant maxSupply = 100000000 * 10 ** 18 */\n    tag_28:\n      callvalue\n      dup1\n      iszero\n      tag_164\n      jumpi\n      0x00\n      dup1\n      revert\n    tag_164:\n      pop\n      tag_165\n      tag_166\n      jump\t// in\n    tag_165:\n      mload(0x40)\n      tag_167\n      swap2\n      swap1\n      tag_60\n      jump\t// in\n    tag_167:\n      mload(0x40)\n      dup1\n      swap2\n      sub\n      swap1\n      return\n        /* \"@openzeppelin/contracts/token/ERC20/ERC20.sol\":3976:4125  function allowance(address owner, address spender) public view virtual override returns (uint256) {... */\n    tag_29:\n      callvalue\n      dup1\n      iszero\n      tag_168\n      jumpi\n      0x00\n      dup1\n      revert\n    tag_168:\n      pop\n      tag_169\n      0x04\n      dup1\n      calldatasize\n      sub\n      dup2\n      add\n      swap1\n      tag_170\n      swap2\n      swap1\n      tag_171\n      jump\t// in\n    tag_170:\n      tag_172\n      jump\t// in\n    tag_169:\n      mload(0x40)\n      tag_173\n      swap2\n      swap1\n      tag_60\n      jump\t// in\n    tag_173:\n      mload(0x40)\n      dup1\n      swap2\n      sub\n      swap1\n      return\n        /* \"contracts/Token.sol\":1561:1773  function removeClaimable(address _account, uint256 _amount) external {... */\n    tag_30:\n      callvalue\n      dup1\n      iszero\n      tag_174\n      jumpi\n      0x00\n      dup1\n      revert\n    tag_174:\n      pop\n      tag_175\n      0x04\n      dup1\n      calldatasize\n      sub\n      dup2\n      add\n      swap1\n      tag_176\n      swap2\n      swap1\n      tag_53\n      jump\t// in\n    tag_176:\n      tag_177\n      jump\t// in\n    tag_175:\n      stop\n        /* \"@openzeppelin/contracts/access/AccessControl.sol\":2620:2822  function supportsInterface(bytes4 interfaceId) public view virtual override returns (bool) {... */\n    tag_42:\n        /* \"@openzeppelin/contracts/access/AccessControl.sol\":2705:2709  bool */\n      0x00\n        /* \"@openzeppelin/contracts/access/AccessControl.sol\":2743:2775  type(IAccessControl).interfaceId */\n      0x7965db0b00000000000000000000000000000000000000000000000000000000\n        /* \"@openzeppelin/contracts/access/AccessControl.sol\":2728:2775  interfaceId == type(IAccessControl).interfaceId */\n      not(0xffffffffffffffffffffffffffffffffffffffffffffffffffffffff)\n      and\n        /* \"@openzeppelin/contracts/access/AccessControl.sol\":2728:2739  interfaceId */\n      dup3\n        /* \"@openzeppelin/contracts/access/AccessControl.sol\":2728:2775  interfaceId == type(IAccessControl).interfaceId */\n      not(0xffffffffffffffffffffffffffffffffffffffffffffffffffffffff)\n      and\n      eq\n        /* \"@openzeppelin/contracts/access/AccessControl.sol\":2728:2815  interfaceId == type(IAccessControl).interfaceId || super.supportsInterface(interfaceId) */\n      dup1\n      tag_179\n      jumpi\n      pop\n        /* \"@openzeppelin/contracts/access/AccessControl.sol\":2779:2815  super.supportsInterface(interfaceId) */\n      tag_180\n        /* \"@openzeppelin/contracts/access/AccessControl.sol\":2803:2814  interfaceId */\n      dup3\n        /* \"@openzeppelin/contracts/access/AccessControl.sol\":2779:2802  super.supportsInterface */\n      tag_181\n        /* \"@openzeppelin/contracts/access/AccessControl.sol\":2779:2815  super.supportsInterface(interfaceId) */\n      jump\t// in\n    tag_180:\n        /* \"@openzeppelin/contracts/access/AccessControl.sol\":2728:2815  interfaceId == type(IAccessControl).interfaceId || super.supportsInterface(interfaceId) */\n    tag_179:\n        /* \"@openzeppelin/contracts/access/AccessControl.sol\":2721:2815  return interfaceId == type(IAccessControl).interfaceId || super.supportsInterface(interfaceId) */\n      swap1\n      pop\n        /* \"@openzeppelin/contracts/access/AccessControl.sol\":2620:2822  function supportsInterface(bytes4 interfaceId) public view virtual override returns (bool) {... */\n      swap2\n      swap1\n      pop\n      jump\t// out\n        /* \"@openzeppelin/contracts/token/ERC20/ERC20.sol\":2156:2254  function name() public view virtual override returns (string memory) {... */\n    tag_47:\n        /* \"@openzeppelin/contracts/token/ERC20/ERC20.sol\":2210:2223  string memory */\n      0x60\n        /* \"@openzeppelin/contracts/token/ERC20/ERC20.sol\":2242:2247  _name */\n      0x03\n        /* \"@openzeppelin/contracts/token/ERC20/ERC20.sol\":2235:2247  return _name */\n      dup1\n      sload\n      tag_183\n      swap1\n      tag_184\n      jump\t// in\n    tag_183:\n      dup1\n      0x1f\n      add\n      0x20\n      dup1\n      swap2\n      div\n      mul\n      0x20\n      add\n      mload(0x40)\n      swap1\n      dup2\n      add\n      0x40\n      mstore\n      dup1\n      swap3\n      swap2\n      swap1\n      dup2\n      dup2\n      mstore\n      0x20\n      add\n      dup3\n      dup1\n      sload\n      tag_185\n      swap1\n      tag_184\n      jump\t// in\n    tag_185:\n      dup1\n      iszero\n      tag_186\n      jumpi\n      dup1\n      0x1f\n      lt\n      tag_187\n      jumpi\n      0x0100\n      dup1\n      dup4\n      sload\n      div\n      mul\n      dup4\n      mstore\n      swap2\n      0x20\n      add\n      swap2\n      jump(tag_186)\n    tag_187:\n      dup3\n      add\n      swap2\n      swap1\n      0x00\n      mstore\n      keccak256(0x00, 0x20)\n      swap1\n    tag_188:\n      dup2\n      sload\n      dup2\n      mstore\n      swap1\n      0x01\n      add\n      swap1\n      0x20\n      add\n      dup1\n      dup4\n      gt\n      tag_188\n      jumpi\n      dup3\n      swap1\n      sub\n      0x1f\n      and\n      dup3\n      add\n      swap2\n    tag_186:\n      pop\n      pop\n      pop\n      pop\n      pop\n      swap1\n      pop\n        /* \"@openzeppelin/contracts/token/ERC20/ERC20.sol\":2156:2254  function name() public view virtual override returns (string memory) {... */\n      swap1\n      jump\t// out\n        /* \"@openzeppelin/contracts/token/ERC20/ERC20.sol\":4433:4630  function approve(address spender, uint256 amount) public virtual override returns (bool) {... */\n    tag_54:\n        /* \"@openzeppelin/contracts/token/ERC20/ERC20.sol\":4516:4520  bool */\n      0x00\n        /* \"@openzeppelin/contracts/token/ERC20/ERC20.sol\":4532:4545  address owner */\n      dup1\n        /* \"@openzeppelin/contracts/token/ERC20/ERC20.sol\":4548:4560  _msgSender() */\n      tag_190\n        /* \"@openzeppelin/contracts/token/ERC20/ERC20.sol\":4548:4558  _msgSender */\n      tag_191\n        /* \"@openzeppelin/contracts/token/ERC20/ERC20.sol\":4548:4560  _msgSender() */\n      jump\t// in\n    tag_190:\n        /* \"@openzeppelin/contracts/token/ERC20/ERC20.sol\":4532:4560  address owner = _msgSender() */\n      swap1\n      pop\n        /* \"@openzeppelin/contracts/token/ERC20/ERC20.sol\":4570:4602  _approve(owner, spender, amount) */\n      tag_192\n        /* \"@openzeppelin/contracts/token/ERC20/ERC20.sol\":4579:4584  owner */\n      dup2\n        /* \"@openzeppelin/contracts/token/ERC20/ERC20.sol\":4586:4593  spender */\n      dup6\n        /* \"@openzeppelin/contracts/token/ERC20/ERC20.sol\":4595:4601  amount */\n      dup6\n        /* \"@openzeppelin/contracts/token/ERC20/ERC20.sol\":4570:4578  _approve */\n      tag_193\n        /* \"@openzeppelin/contracts/token/ERC20/ERC20.sol\":4570:4602  _approve(owner, spender, amount) */\n      jump\t// in\n    tag_192:\n        /* \"@openzeppelin/contracts/token/ERC20/ERC20.sol\":4619:4623  true */\n      0x01\n        /* \"@openzeppelin/contracts/token/ERC20/ERC20.sol\":4612:4623  return true */\n      swap2\n      pop\n      pop\n        /* \"@openzeppelin/contracts/token/ERC20/ERC20.sol\":4433:4630  function approve(address spender, uint256 amount) public virtual override returns (bool) {... */\n      swap3\n      swap2\n      pop\n      pop\n      jump\t// out\n        /* \"@openzeppelin/contracts/token/ERC20/ERC20.sol\":3244:3350  function totalSupply() public view virtual override returns (uint256) {... */\n    tag_58:\n        /* \"@openzeppelin/contracts/token/ERC20/ERC20.sol\":3305:3312  uint256 */\n      0x00\n        /* \"@openzeppelin/contracts/token/ERC20/ERC20.sol\":3331:3343  _totalSupply */\n      sload(0x02)\n        /* \"@openzeppelin/contracts/token/ERC20/ERC20.sol\":3324:3343  return _totalSupply */\n      swap1\n      pop\n        /* \"@openzeppelin/contracts/token/ERC20/ERC20.sol\":3244:3350  function totalSupply() public view virtual override returns (uint256) {... */\n      swap1\n      jump\t// out\n        /* \"contracts/Token.sol\":463:484  uint public mintedAmt */\n    tag_63:\n      sload(0x08)\n      dup2\n      jump\t// out\n        /* \"@openzeppelin/contracts/token/ERC20/ERC20.sol\":5192:5478  function transferFrom(... */\n    tag_69:\n        /* \"@openzeppelin/contracts/token/ERC20/ERC20.sol\":5319:5323  bool */\n      0x00\n        /* \"@openzeppelin/contracts/token/ERC20/ERC20.sol\":5335:5350  address spender */\n      dup1\n        /* \"@openzeppelin/contracts/token/ERC20/ERC20.sol\":5353:5365  _msgSender() */\n      tag_196\n        /* \"@openzeppelin/contracts/token/ERC20/ERC20.sol\":5353:5363  _msgSender */\n      tag_191\n        /* \"@openzeppelin/contracts/token/ERC20/ERC20.sol\":5353:5365  _msgSender() */\n      jump\t// in\n    tag_196:\n        /* \"@openzeppelin/contracts/token/ERC20/ERC20.sol\":5335:5365  address spender = _msgSender() */\n      swap1\n      pop\n        /* \"@openzeppelin/contracts/token/ERC20/ERC20.sol\":5375:5413  _spendAllowance(from, spender, amount) */\n      tag_197\n        /* \"@openzeppelin/contracts/token/ERC20/ERC20.sol\":5391:5395  from */\n      dup6\n        /* \"@openzeppelin/contracts/token/ERC20/ERC20.sol\":5397:5404  spender */\n      dup3\n        /* \"@openzeppelin/contracts/token/ERC20/ERC20.sol\":5406:5412  amount */\n      dup6\n        /* \"@openzeppelin/contracts/token/ERC20/ERC20.sol\":5375:5390  _spendAllowance */\n      tag_198\n        /* \"@openzeppelin/contracts/token/ERC20/ERC20.sol\":5375:5413  _spendAllowance(from, spender, amount) */\n      jump\t// in\n    tag_197:\n        /* \"@openzeppelin/contracts/token/ERC20/ERC20.sol\":5423:5450  _transfer(from, to, amount) */\n      tag_199\n        /* \"@openzeppelin/contracts/token/ERC20/ERC20.sol\":5433:5437  from */\n      dup6\n        /* \"@openzeppelin/contracts/token/ERC20/ERC20.sol\":5439:5441  to */\n      dup6\n        /* \"@openzeppelin/contracts/token/ERC20/ERC20.sol\":5443:5449  amount */\n      dup6\n        /* \"@openzeppelin/contracts/token/ERC20/ERC20.sol\":5423:5432  _transfer */\n      tag_200\n        /* \"@openzeppelin/contracts/token/ERC20/ERC20.sol\":5423:5450  _transfer(from, to, amount) */\n      jump\t// in\n    tag_199:\n        /* \"@openzeppelin/contracts/token/ERC20/ERC20.sol\":5467:5471  true */\n      0x01\n        /* \"@openzeppelin/contracts/token/ERC20/ERC20.sol\":5460:5471  return true */\n      swap2\n      pop\n      pop\n        /* \"@openzeppelin/contracts/token/ERC20/ERC20.sol\":5192:5478  function transferFrom(... */\n      swap4\n      swap3\n      pop\n      pop\n      pop\n      jump\t// out\n        /* \"@openzeppelin/contracts/access/AccessControl.sol\":4008:4137  function getRoleAdmin(bytes32 role) public view virtual override returns (bytes32) {... */\n    tag_75:\n        /* \"@openzeppelin/contracts/access/AccessControl.sol\":4082:4089  bytes32 */\n      0x00\n        /* \"@openzeppelin/contracts/access/AccessControl.sol\":4108:4114  _roles */\n      0x05\n        /* \"@openzeppelin/contracts/access/AccessControl.sol\":4108:4120  _roles[role] */\n      0x00\n        /* \"@openzeppelin/contracts/access/AccessControl.sol\":4115:4119  role */\n      dup4\n        /* \"@openzeppelin/contracts/access/AccessControl.sol\":4108:4120  _roles[role] */\n      dup2\n      mstore\n      0x20\n      add\n      swap1\n      dup2\n      mstore\n      0x20\n      add\n      0x00\n      keccak256\n        /* \"@openzeppelin/contracts/access/AccessControl.sol\":4108:4130  _roles[role].adminRole */\n      0x01\n      add\n      sload\n        /* \"@openzeppelin/contracts/access/AccessControl.sol\":4101:4130  return _roles[role].adminRole */\n      swap1\n      pop\n        /* \"@openzeppelin/contracts/access/AccessControl.sol\":4008:4137  function getRoleAdmin(bytes32 role) public view virtual override returns (bytes32) {... */\n      swap2\n      swap1\n      pop\n      jump\t// out\n        /* \"contracts/Token.sol\":263:325  bytes32 public constant BURNER_ROLE = keccak256(\"BURNER_ROLE\") */\n    tag_80:\n        /* \"contracts/Token.sol\":301:325  keccak256(\"BURNER_ROLE\") */\n      0x3c11d16cbaffd01df69ce1c404f6340ee057498f5f00246190ea54220576a848\n        /* \"contracts/Token.sol\":263:325  bytes32 public constant BURNER_ROLE = keccak256(\"BURNER_ROLE\") */\n      dup2\n      jump\t// out\n        /* \"@openzeppelin/contracts/access/AccessControl.sol\":4387:4532  function grantRole(bytes32 role, address account) public virtual override onlyRole(getRoleAdmin(role)) {... */\n    tag_86:\n        /* \"@openzeppelin/contracts/access/AccessControl.sol\":4470:4488  getRoleAdmin(role) */\n      tag_202\n        /* \"@openzeppelin/contracts/access/AccessControl.sol\":4483:4487  role */\n      dup3\n        /* \"@openzeppelin/contracts/access/AccessControl.sol\":4470:4482  getRoleAdmin */\n      tag_75\n        /* \"@openzeppelin/contracts/access/AccessControl.sol\":4470:4488  getRoleAdmin(role) */\n      jump\t// in\n    tag_202:\n        /* \"@openzeppelin/contracts/access/AccessControl.sol\":2505:2535  _checkRole(role, _msgSender()) */\n      tag_204\n        /* \"@openzeppelin/contracts/access/AccessControl.sol\":2516:2520  role */\n      dup2\n        /* \"@openzeppelin/contracts/access/AccessControl.sol\":2522:2534  _msgSender() */\n      tag_205\n        /* \"@openzeppelin/contracts/access/AccessControl.sol\":2522:2532  _msgSender */\n      tag_191\n        /* \"@openzeppelin/contracts/access/AccessControl.sol\":2522:2534  _msgSender() */\n      jump\t// in\n    tag_205:\n        /* \"@openzeppelin/contracts/access/AccessControl.sol\":2505:2515  _checkRole */\n      tag_206\n        /* \"@openzeppelin/contracts/access/AccessControl.sol\":2505:2535  _checkRole(role, _msgSender()) */\n      jump\t// in\n    tag_204:\n        /* \"@openzeppelin/contracts/access/AccessControl.sol\":4500:4525  _grantRole(role, account) */\n      tag_208\n        /* \"@openzeppelin/contracts/access/AccessControl.sol\":4511:4515  role */\n      dup4\n        /* \"@openzeppelin/contracts/access/AccessControl.sol\":4517:4524  account */\n      dup4\n        /* \"@openzeppelin/contracts/access/AccessControl.sol\":4500:4510  _grantRole */\n      tag_209\n        /* \"@openzeppelin/contracts/access/AccessControl.sol\":4500:4525  _grantRole(role, account) */\n      jump\t// in\n    tag_208:\n        /* \"@openzeppelin/contracts/access/AccessControl.sol\":4387:4532  function grantRole(bytes32 role, address account) public virtual override onlyRole(getRoleAdmin(role)) {... */\n      pop\n      pop\n      pop\n      jump\t// out\n        /* \"@openzeppelin/contracts/token/ERC20/ERC20.sol\":3093:3184  function decimals() public view virtual override returns (uint8) {... */\n    tag_89:\n        /* \"@openzeppelin/contracts/token/ERC20/ERC20.sol\":3151:3156  uint8 */\n      0x00\n        /* \"@openzeppelin/contracts/token/ERC20/ERC20.sol\":3175:3177  18 */\n      0x12\n        /* \"@openzeppelin/contracts/token/ERC20/ERC20.sol\":3168:3177  return 18 */\n      swap1\n      pop\n        /* \"@openzeppelin/contracts/token/ERC20/ERC20.sol\":3093:3184  function decimals() public view virtual override returns (uint8) {... */\n      swap1\n      jump\t// out\n        /* \"@openzeppelin/contracts/access/AccessControl.sol\":5404:5618  function renounceRole(bytes32 role, address account) public virtual override {... */\n    tag_95:\n        /* \"@openzeppelin/contracts/access/AccessControl.sol\":5510:5522  _msgSender() */\n      tag_212\n        /* \"@openzeppelin/contracts/access/AccessControl.sol\":5510:5520  _msgSender */\n      tag_191\n        /* \"@openzeppelin/contracts/access/AccessControl.sol\":5510:5522  _msgSender() */\n      jump\t// in\n    tag_212:\n        /* \"@openzeppelin/contracts/access/AccessControl.sol\":5499:5522  account == _msgSender() */\n      0xffffffffffffffffffffffffffffffffffffffff\n      and\n        /* \"@openzeppelin/contracts/access/AccessControl.sol\":5499:5506  account */\n      dup2\n        /* \"@openzeppelin/contracts/access/AccessControl.sol\":5499:5522  account == _msgSender() */\n      0xffffffffffffffffffffffffffffffffffffffff\n      and\n      eq\n        /* \"@openzeppelin/contracts/access/AccessControl.sol\":5491:5574  require(account == _msgSender(), \"AccessControl: can only renounce roles for self\") */\n      tag_213\n      jumpi\n      mload(0x40)\n      0x08c379a000000000000000000000000000000000000000000000000000000000\n      dup2\n      mstore\n      0x04\n      add\n      tag_214\n      swap1\n      tag_215\n      jump\t// in\n    tag_214:\n      mload(0x40)\n      dup1\n      swap2\n      sub\n      swap1\n      revert\n    tag_213:\n        /* \"@openzeppelin/contracts/access/AccessControl.sol\":5585:5611  _revokeRole(role, account) */\n      tag_216\n        /* \"@openzeppelin/contracts/access/AccessControl.sol\":5597:5601  role */\n      dup3\n        /* \"@openzeppelin/contracts/access/AccessControl.sol\":5603:5610  account */\n      dup3\n        /* \"@openzeppelin/contracts/access/AccessControl.sol\":5585:5596  _revokeRole */\n      tag_217\n        /* \"@openzeppelin/contracts/access/AccessControl.sol\":5585:5611  _revokeRole(role, account) */\n      jump\t// in\n    tag_216:\n        /* \"@openzeppelin/contracts/access/AccessControl.sol\":5404:5618  function renounceRole(bytes32 role, address account) public virtual override {... */\n      pop\n      pop\n      jump\t// out\n        /* \"@openzeppelin/contracts/token/ERC20/ERC20.sol\":5873:6109  function increaseAllowance(address spender, uint256 addedValue) public virtual returns (bool) {... */\n    tag_99:\n        /* \"@openzeppelin/contracts/token/ERC20/ERC20.sol\":5961:5965  bool */\n      0x00\n        /* \"@openzeppelin/contracts/token/ERC20/ERC20.sol\":5977:5990  address owner */\n      dup1\n        /* \"@openzeppelin/contracts/token/ERC20/ERC20.sol\":5993:6005  _msgSender() */\n      tag_219\n        /* \"@openzeppelin/contracts/token/ERC20/ERC20.sol\":5993:6003  _msgSender */\n      tag_191\n        /* \"@openzeppelin/contracts/token/ERC20/ERC20.sol\":5993:6005  _msgSender() */\n      jump\t// in\n    tag_219:\n        /* \"@openzeppelin/contracts/token/ERC20/ERC20.sol\":5977:6005  address owner = _msgSender() */\n      swap1\n      pop\n        /* \"@openzeppelin/contracts/token/ERC20/ERC20.sol\":6015:6081  _approve(owner, spender, _allowances[owner][spender] + addedValue) */\n      tag_220\n        /* \"@openzeppelin/contracts/token/ERC20/ERC20.sol\":6024:6029  owner */\n      dup2\n        /* \"@openzeppelin/contracts/token/ERC20/ERC20.sol\":6031:6038  spender */\n      dup6\n        /* \"@openzeppelin/contracts/token/ERC20/ERC20.sol\":6070:6080  addedValue */\n      dup6\n        /* \"@openzeppelin/contracts/token/ERC20/ERC20.sol\":6040:6051  _allowances */\n      0x01\n        /* \"@openzeppelin/contracts/token/ERC20/ERC20.sol\":6040:6058  _allowances[owner] */\n      0x00\n        /* \"@openzeppelin/contracts/token/ERC20/ERC20.sol\":6052:6057  owner */\n      dup7\n        /* \"@openzeppelin/contracts/token/ERC20/ERC20.sol\":6040:6058  _allowances[owner] */\n      0xffffffffffffffffffffffffffffffffffffffff\n      and\n      0xffffffffffffffffffffffffffffffffffffffff\n      and\n      dup2\n      mstore\n      0x20\n      add\n      swap1\n      dup2\n      mstore\n      0x20\n      add\n      0x00\n      keccak256\n        /* \"@openzeppelin/contracts/token/ERC20/ERC20.sol\":6040:6067  _allowances[owner][spender] */\n      0x00\n        /* \"@openzeppelin/contracts/token/ERC20/ERC20.sol\":6059:6066  spender */\n      dup10\n        /* \"@openzeppelin/contracts/token/ERC20/ERC20.sol\":6040:6067  _allowances[owner][spender] */\n      0xffffffffffffffffffffffffffffffffffffffff\n      and\n      0xffffffffffffffffffffffffffffffffffffffff\n      and\n      dup2\n      mstore\n      0x20\n      add\n      swap1\n      dup2\n      mstore\n      0x20\n      add\n      0x00\n      keccak256\n      sload\n        /* \"@openzeppelin/contracts/token/ERC20/ERC20.sol\":6040:6080  _allowances[owner][spender] + addedValue */\n      tag_221\n      swap2\n      swap1\n      tag_222\n      jump\t// in\n    tag_221:\n        /* \"@openzeppelin/contracts/token/ERC20/ERC20.sol\":6015:6023  _approve */\n      tag_193\n        /* \"@openzeppelin/contracts/token/ERC20/ERC20.sol\":6015:6081  _approve(owner, spender, _allowances[owner][spender] + addedValue) */\n      jump\t// in\n    tag_220:\n        /* \"@openzeppelin/contracts/token/ERC20/ERC20.sol\":6098:6102  true */\n      0x01\n        /* \"@openzeppelin/contracts/token/ERC20/ERC20.sol\":6091:6102  return true */\n      swap2\n      pop\n      pop\n        /* \"@openzeppelin/contracts/token/ERC20/ERC20.sol\":5873:6109  function increaseAllowance(address spender, uint256 addedValue) public virtual returns (bool) {... */\n      swap3\n      swap2\n      pop\n      pop\n      jump\t// out\n        /* \"contracts/Token.sol\":1941:2458  function claim() public payable {... */\n    tag_102:\n        /* \"contracts/Token.sol\":1983:2001  uint256 _unclaimed */\n      0x00\n        /* \"contracts/Token.sol\":2004:2013  unclaimed */\n      0x06\n        /* \"contracts/Token.sol\":2004:2025  unclaimed[msg.sender] */\n      0x00\n        /* \"contracts/Token.sol\":2014:2024  msg.sender */\n      caller\n        /* \"contracts/Token.sol\":2004:2025  unclaimed[msg.sender] */\n      0xffffffffffffffffffffffffffffffffffffffff\n      and\n      0xffffffffffffffffffffffffffffffffffffffff\n      and\n      dup2\n      mstore\n      0x20\n      add\n      swap1\n      dup2\n      mstore\n      0x20\n      add\n      0x00\n      keccak256\n      sload\n        /* \"contracts/Token.sol\":1983:2025  uint256 _unclaimed = unclaimed[msg.sender] */\n      swap1\n      pop\n        /* \"contracts/Token.sol\":2056:2057  0 */\n      0x00\n        /* \"contracts/Token.sol\":2043:2053  _unclaimed */\n      dup2\n        /* \"contracts/Token.sol\":2043:2057  _unclaimed > 0 */\n      gt\n        /* \"contracts/Token.sol\":2035:2102  require(_unclaimed > 0, \"Unclaimed balance must be greater than 0\") */\n      tag_224\n      jumpi\n      mload(0x40)\n      0x08c379a000000000000000000000000000000000000000000000000000000000\n      dup2\n      mstore\n      0x04\n      add\n      tag_225\n      swap1\n      tag_226\n      jump\t// in\n    tag_225:\n      mload(0x40)\n      dup1\n      swap2\n      sub\n      swap1\n      revert\n    tag_224:\n        /* \"contracts/Token.sol\":2112:2132  uint256 to_maxSupply */\n      0x00\n        /* \"contracts/Token.sol\":2147:2156  mintedAmt */\n      sload(0x08)\n        /* \"contracts/Token.sol\":437:457  100000000 * 10 ** 18 */\n      0x52b7d2dcc80cd2e4000000\n        /* \"contracts/Token.sol\":2135:2156  maxSupply - mintedAmt */\n      tag_227\n      swap2\n      swap1\n      tag_228\n      jump\t// in\n    tag_227:\n        /* \"contracts/Token.sol\":2112:2156  uint256 to_maxSupply = maxSupply - mintedAmt */\n      swap1\n      pop\n        /* \"contracts/Token.sol\":2189:2190  0 */\n      0x00\n        /* \"contracts/Token.sol\":2174:2186  to_maxSupply */\n      dup2\n        /* \"contracts/Token.sol\":2174:2190  to_maxSupply > 0 */\n      gt\n        /* \"contracts/Token.sol\":2166:2229  require(to_maxSupply > 0, \"The max supply has been exhausted.\") */\n      tag_229\n      jumpi\n      mload(0x40)\n      0x08c379a000000000000000000000000000000000000000000000000000000000\n      dup2\n      mstore\n      0x04\n      add\n      tag_230\n      swap1\n      tag_231\n      jump\t// in\n    tag_230:\n      mload(0x40)\n      dup1\n      swap2\n      sub\n      swap1\n      revert\n    tag_229:\n        /* \"contracts/Token.sol\":2239:2260  uint256 min_unclaimed */\n      0x00\n        /* \"contracts/Token.sol\":2263:2292  min(_unclaimed, to_maxSupply) */\n      tag_232\n        /* \"contracts/Token.sol\":2267:2277  _unclaimed */\n      dup4\n        /* \"contracts/Token.sol\":2279:2291  to_maxSupply */\n      dup4\n        /* \"contracts/Token.sol\":2263:2266  min */\n      tag_118\n        /* \"contracts/Token.sol\":2263:2292  min(_unclaimed, to_maxSupply) */\n      jump\t// in\n    tag_232:\n        /* \"contracts/Token.sol\":2239:2292  uint256 min_unclaimed = min(_unclaimed, to_maxSupply) */\n      swap1\n      pop\n        /* \"contracts/Token.sol\":2325:2338  min_unclaimed */\n      dup1\n        /* \"contracts/Token.sol\":2302:2309  claimed */\n      0x07\n        /* \"contracts/Token.sol\":2302:2321  claimed[msg.sender] */\n      0x00\n        /* \"contracts/Token.sol\":2310:2320  msg.sender */\n      caller\n        /* \"contracts/Token.sol\":2302:2321  claimed[msg.sender] */\n      0xffffffffffffffffffffffffffffffffffffffff\n      and\n      0xffffffffffffffffffffffffffffffffffffffff\n      and\n      dup2\n      mstore\n      0x20\n      add\n      swap1\n      dup2\n      mstore\n      0x20\n      add\n      0x00\n      keccak256\n      0x00\n        /* \"contracts/Token.sol\":2302:2338  claimed[msg.sender] += min_unclaimed */\n      dup3\n      dup3\n      sload\n      tag_233\n      swap2\n      swap1\n      tag_222\n      jump\t// in\n    tag_233:\n      swap3\n      pop\n      pop\n      dup2\n      swap1\n      sstore\n      pop\n        /* \"contracts/Token.sol\":2372:2373  0 */\n      0x00\n        /* \"contracts/Token.sol\":2348:2357  unclaimed */\n      0x06\n        /* \"contracts/Token.sol\":2348:2369  unclaimed[msg.sender] */\n      0x00\n        /* \"contracts/Token.sol\":2358:2368  msg.sender */\n      caller\n        /* \"contracts/Token.sol\":2348:2369  unclaimed[msg.sender] */\n      0xffffffffffffffffffffffffffffffffffffffff\n      and\n      0xffffffffffffffffffffffffffffffffffffffff\n      and\n      dup2\n      mstore\n      0x20\n      add\n      swap1\n      dup2\n      mstore\n      0x20\n      add\n      0x00\n      keccak256\n        /* \"contracts/Token.sol\":2348:2373  unclaimed[msg.sender] = 0 */\n      dup2\n      swap1\n      sstore\n      pop\n        /* \"contracts/Token.sol\":2396:2409  min_unclaimed */\n      dup1\n        /* \"contracts/Token.sol\":2383:2392  mintedAmt */\n      0x08\n      0x00\n        /* \"contracts/Token.sol\":2383:2409  mintedAmt += min_unclaimed */\n      dup3\n      dup3\n      sload\n      tag_234\n      swap2\n      swap1\n      tag_222\n      jump\t// in\n    tag_234:\n      swap3\n      pop\n      pop\n      dup2\n      swap1\n      sstore\n      pop\n        /* \"contracts/Token.sol\":2419:2451  _mint(msg.sender, min_unclaimed) */\n      tag_235\n        /* \"contracts/Token.sol\":2425:2435  msg.sender */\n      caller\n        /* \"contracts/Token.sol\":2437:2450  min_unclaimed */\n      dup3\n        /* \"contracts/Token.sol\":2419:2424  _mint */\n      tag_236\n        /* \"contracts/Token.sol\":2419:2451  _mint(msg.sender, min_unclaimed) */\n      jump\t// in\n    tag_235:\n        /* \"contracts/Token.sol\":1973:2458  {... */\n      pop\n      pop\n      pop\n        /* \"contracts/Token.sol\":1941:2458  function claim() public payable {... */\n      jump\t// out\n        /* \"contracts/Claim.sol\":163:204  mapping(address => uint) public unclaimed */\n    tag_107:\n      mstore(0x20, 0x06)\n      dup1\n      0x00\n      mstore\n      keccak256(0x00, 0x40)\n      0x00\n      swap2\n      pop\n      swap1\n      pop\n      sload\n      dup2\n      jump\t// out\n        /* \"@openzeppelin/contracts/token/ERC20/ERC20.sol\":3408:3533  function balanceOf(address account) public view virtual override returns (uint256) {... */\n    tag_112:\n        /* \"@openzeppelin/contracts/token/ERC20/ERC20.sol\":3482:3489  uint256 */\n      0x00\n        /* \"@openzeppelin/contracts/token/ERC20/ERC20.sol\":3508:3517  _balances */\n      dup1\n        /* \"@openzeppelin/contracts/token/ERC20/ERC20.sol\":3508:3526  _balances[account] */\n      0x00\n        /* \"@openzeppelin/contracts/token/ERC20/ERC20.sol\":3518:3525  account */\n      dup4\n        /* \"@openzeppelin/contracts/token/ERC20/ERC20.sol\":3508:3526  _balances[account] */\n      0xffffffffffffffffffffffffffffffffffffffff\n      and\n      0xffffffffffffffffffffffffffffffffffffffff\n      and\n      dup2\n      mstore\n      0x20\n      add\n      swap1\n      dup2\n      mstore\n      0x20\n      add\n      0x00\n      keccak256\n      sload\n        /* \"@openzeppelin/contracts/token/ERC20/ERC20.sol\":3501:3526  return _balances[account] */\n      swap1\n      pop\n        /* \"@openzeppelin/contracts/token/ERC20/ERC20.sol\":3408:3533  function balanceOf(address account) public view virtual override returns (uint256) {... */\n      swap2\n      swap1\n      pop\n      jump\t// out\n        /* \"contracts/Token.sol\":1779:1882  function min(uint256 a, uint256 b) public pure returns (uint256) {... */\n    tag_118:\n        /* \"contracts/Token.sol\":1835:1842  uint256 */\n      0x00\n        /* \"contracts/Token.sol\":1866:1867  b */\n      dup2\n        /* \"contracts/Token.sol\":1861:1862  a */\n      dup4\n        /* \"contracts/Token.sol\":1861:1867  a <= b */\n      gt\n      iszero\n        /* \"contracts/Token.sol\":1861:1875  a <= b ? a : b */\n      tag_239\n      jumpi\n        /* \"contracts/Token.sol\":1874:1875  b */\n      dup2\n        /* \"contracts/Token.sol\":1861:1875  a <= b ? a : b */\n      jump(tag_240)\n    tag_239:\n        /* \"contracts/Token.sol\":1870:1871  a */\n      dup3\n        /* \"contracts/Token.sol\":1861:1875  a <= b ? a : b */\n    tag_240:\n        /* \"contracts/Token.sol\":1854:1875  return a <= b ? a : b */\n      swap1\n      pop\n        /* \"contracts/Token.sol\":1779:1882  function min(uint256 a, uint256 b) public pure returns (uint256) {... */\n      swap3\n      swap2\n      pop\n      pop\n      jump\t// out\n        /* \"contracts/Token.sol\":331:397  bytes32 public constant REWARDER_ROLE = keccak256(\"REWARDER_ROLE\") */\n    tag_122:\n        /* \"contracts/Token.sol\":371:397  keccak256(\"REWARDER_ROLE\") */\n      0xbeec13769b5f410b0584f69811bfd923818456d5edcf426b0e31cf90eed7a3f6\n        /* \"contracts/Token.sol\":331:397  bytes32 public constant REWARDER_ROLE = keccak256(\"REWARDER_ROLE\") */\n      dup2\n      jump\t// out\n        /* \"contracts/Token.sol\":987:1348  function createClaimable(address _account, uint256 _amount) external {... */\n    tag_127:\n        /* \"contracts/Token.sol\":1074:1108  hasRole(REWARDER_ROLE, msg.sender) */\n      tag_242\n        /* \"contracts/Token.sol\":371:397  keccak256(\"REWARDER_ROLE\") */\n      0xbeec13769b5f410b0584f69811bfd923818456d5edcf426b0e31cf90eed7a3f6\n        /* \"contracts/Token.sol\":1097:1107  msg.sender */\n      caller\n        /* \"contracts/Token.sol\":1074:1081  hasRole */\n      tag_131\n        /* \"contracts/Token.sol\":1074:1108  hasRole(REWARDER_ROLE, msg.sender) */\n      jump\t// in\n    tag_242:\n        /* \"contracts/Token.sol\":1066:1137  require(hasRole(REWARDER_ROLE, msg.sender), \"Caller is not a rewarder\") */\n      tag_243\n      jumpi\n      mload(0x40)\n      0x08c379a000000000000000000000000000000000000000000000000000000000\n      dup2\n      mstore\n      0x04\n      add\n      tag_244\n      swap1\n      tag_245\n      jump\t// in\n    tag_244:\n      mload(0x40)\n      dup1\n      swap2\n      sub\n      swap1\n      revert\n    tag_243:\n        /* \"contracts/Token.sol\":1147:1165  uint256 _unclaimed */\n      0x00\n        /* \"contracts/Token.sol\":1198:1207  unclaimed */\n      0x06\n        /* \"contracts/Token.sol\":1198:1217  unclaimed[_account] */\n      0x00\n        /* \"contracts/Token.sol\":1208:1216  _account */\n      dup5\n        /* \"contracts/Token.sol\":1198:1217  unclaimed[_account] */\n      0xffffffffffffffffffffffffffffffffffffffff\n      and\n      0xffffffffffffffffffffffffffffffffffffffff\n      and\n      dup2\n      mstore\n      0x20\n      add\n      swap1\n      dup2\n      mstore\n      0x20\n      add\n      0x00\n      keccak256\n      sload\n        /* \"contracts/Token.sol\":1178:1185  claimed */\n      0x07\n        /* \"contracts/Token.sol\":1178:1195  claimed[_account] */\n      0x00\n        /* \"contracts/Token.sol\":1186:1194  _account */\n      dup6\n        /* \"contracts/Token.sol\":1178:1195  claimed[_account] */\n      0xffffffffffffffffffffffffffffffffffffffff\n      and\n      0xffffffffffffffffffffffffffffffffffffffff\n      and\n      dup2\n      mstore\n      0x20\n      add\n      swap1\n      dup2\n      mstore\n      0x20\n      add\n      0x00\n      keccak256\n      sload\n        /* \"contracts/Token.sol\":1168:1175  _amount */\n      dup4\n        /* \"contracts/Token.sol\":1168:1195  _amount - claimed[_account] */\n      tag_246\n      swap2\n      swap1\n      tag_228\n      jump\t// in\n    tag_246:\n        /* \"contracts/Token.sol\":1168:1217  _amount - claimed[_account] - unclaimed[_account] */\n      tag_247\n      swap2\n      swap1\n      tag_228\n      jump\t// in\n    tag_247:\n        /* \"contracts/Token.sol\":1147:1217  uint256 _unclaimed = _amount - claimed[_account] - unclaimed[_account] */\n      swap1\n      pop\n        /* \"contracts/Token.sol\":1248:1249  0 */\n      0x00\n        /* \"contracts/Token.sol\":1235:1245  _unclaimed */\n      dup2\n        /* \"contracts/Token.sol\":1235:1249  _unclaimed > 0 */\n      gt\n        /* \"contracts/Token.sol\":1227:1286  require(_unclaimed > 0, 'claimable must be greater than 0') */\n      tag_248\n      jumpi\n      mload(0x40)\n      0x08c379a000000000000000000000000000000000000000000000000000000000\n      dup2\n      mstore\n      0x04\n      add\n      tag_249\n      swap1\n      tag_250\n      jump\t// in\n    tag_249:\n      mload(0x40)\n      dup1\n      swap2\n      sub\n      swap1\n      revert\n    tag_248:\n        /* \"contracts/Token.sol\":1296:1341  addUnclaimed(_account, _unclaimed * 10 ** 18) */\n      tag_251\n        /* \"contracts/Token.sol\":1309:1317  _account */\n      dup4\n        /* \"contracts/Token.sol\":1332:1340  10 ** 18 */\n      0x0de0b6b3a7640000\n        /* \"contracts/Token.sol\":1319:1329  _unclaimed */\n      dup4\n        /* \"contracts/Token.sol\":1319:1340  _unclaimed * 10 ** 18 */\n      tag_252\n      swap2\n      swap1\n      tag_253\n      jump\t// in\n    tag_252:\n        /* \"contracts/Token.sol\":1296:1308  addUnclaimed */\n      tag_254\n        /* \"contracts/Token.sol\":1296:1341  addUnclaimed(_account, _unclaimed * 10 ** 18) */\n      jump\t// in\n    tag_251:\n        /* \"contracts/Token.sol\":1056:1348  {... */\n      pop\n        /* \"contracts/Token.sol\":987:1348  function createClaimable(address _account, uint256 _amount) external {... */\n      pop\n      pop\n      jump\t// out\n        /* \"@openzeppelin/contracts/access/AccessControl.sol\":2909:3054  function hasRole(bytes32 role, address account) public view virtual override returns (bool) {... */\n    tag_131:\n        /* \"@openzeppelin/contracts/access/AccessControl.sol\":2995:2999  bool */\n      0x00\n        /* \"@openzeppelin/contracts/access/AccessControl.sol\":3018:3024  _roles */\n      0x05\n        /* \"@openzeppelin/contracts/access/AccessControl.sol\":3018:3030  _roles[role] */\n      0x00\n        /* \"@openzeppelin/contracts/access/AccessControl.sol\":3025:3029  role */\n      dup5\n        /* \"@openzeppelin/contracts/access/AccessControl.sol\":3018:3030  _roles[role] */\n      dup2\n      mstore\n      0x20\n      add\n      swap1\n      dup2\n      mstore\n      0x20\n      add\n      0x00\n      keccak256\n        /* \"@openzeppelin/contracts/access/AccessControl.sol\":3018:3038  _roles[role].members */\n      0x00\n      add\n        /* \"@openzeppelin/contracts/access/AccessControl.sol\":3018:3047  _roles[role].members[account] */\n      0x00\n        /* \"@openzeppelin/contracts/access/AccessControl.sol\":3039:3046  account */\n      dup4\n        /* \"@openzeppelin/contracts/access/AccessControl.sol\":3018:3047  _roles[role].members[account] */\n      0xffffffffffffffffffffffffffffffffffffffff\n      and\n      0xffffffffffffffffffffffffffffffffffffffff\n      and\n      dup2\n      mstore\n      0x20\n      add\n      swap1\n      dup2\n      mstore\n      0x20\n      add\n      0x00\n      keccak256\n      0x00\n      swap1\n      sload\n      swap1\n      0x0100\n      exp\n      swap1\n      div\n      0xff\n      and\n        /* \"@openzeppelin/contracts/access/AccessControl.sol\":3011:3047  return _roles[role].members[account] */\n      swap1\n      pop\n        /* \"@openzeppelin/contracts/access/AccessControl.sol\":2909:3054  function hasRole(bytes32 role, address account) public view virtual override returns (bool) {... */\n      swap3\n      swap2\n      pop\n      pop\n      jump\t// out\n        /* \"@openzeppelin/contracts/token/ERC20/ERC20.sol\":2367:2469  function symbol() public view virtual override returns (string memory) {... */\n    tag_135:\n        /* \"@openzeppelin/contracts/token/ERC20/ERC20.sol\":2423:2436  string memory */\n      0x60\n        /* \"@openzeppelin/contracts/token/ERC20/ERC20.sol\":2455:2462  _symbol */\n      0x04\n        /* \"@openzeppelin/contracts/token/ERC20/ERC20.sol\":2448:2462  return _symbol */\n      dup1\n      sload\n      tag_257\n      swap1\n      tag_184\n      jump\t// in\n    tag_257:\n      dup1\n      0x1f\n      add\n      0x20\n      dup1\n      swap2\n      div\n      mul\n      0x20\n      add\n      mload(0x40)\n      swap1\n      dup2\n      add\n      0x40\n      mstore\n      dup1\n      swap3\n      swap2\n      swap1\n      dup2\n      dup2\n      mstore\n      0x20\n      add\n      dup3\n      dup1\n      sload\n      tag_258\n      swap1\n      tag_184\n      jump\t// in\n    tag_258:\n      dup1\n      iszero\n      tag_259\n      jumpi\n      dup1\n      0x1f\n      lt\n      tag_260\n      jumpi\n      0x0100\n      dup1\n      dup4\n      sload\n      div\n      mul\n      dup4\n      mstore\n      swap2\n      0x20\n      add\n      swap2\n      jump(tag_259)\n    tag_260:\n      dup3\n      add\n      swap2\n      swap1\n      0x00\n      mstore\n      keccak256(0x00, 0x20)\n      swap1\n    tag_261:\n      dup2\n      sload\n      dup2\n      mstore\n      swap1\n      0x01\n      add\n      swap1\n      0x20\n      add\n      dup1\n      dup4\n      gt\n      tag_261\n      jumpi\n      dup3\n      swap1\n      sub\n      0x1f\n      and\n      dup3\n      add\n      swap2\n    tag_259:\n      pop\n      pop\n      pop\n      pop\n      pop\n      swap1\n      pop\n        /* \"@openzeppelin/contracts/token/ERC20/ERC20.sol\":2367:2469  function symbol() public view virtual override returns (string memory) {... */\n      swap1\n      jump\t// out\n        /* \"contracts/Token.sol\":596:771  function burn(address from, uint256 amount) public {... */\n    tag_140:\n        /* \"contracts/Token.sol\":665:697  hasRole(BURNER_ROLE, msg.sender) */\n      tag_263\n        /* \"contracts/Token.sol\":301:325  keccak256(\"BURNER_ROLE\") */\n      0x3c11d16cbaffd01df69ce1c404f6340ee057498f5f00246190ea54220576a848\n        /* \"contracts/Token.sol\":686:696  msg.sender */\n      caller\n        /* \"contracts/Token.sol\":665:672  hasRole */\n      tag_131\n        /* \"contracts/Token.sol\":665:697  hasRole(BURNER_ROLE, msg.sender) */\n      jump\t// in\n    tag_263:\n        /* \"contracts/Token.sol\":657:724  require(hasRole(BURNER_ROLE, msg.sender), \"Caller is not a burner\") */\n      tag_264\n      jumpi\n      mload(0x40)\n      0x08c379a000000000000000000000000000000000000000000000000000000000\n      dup2\n      mstore\n      0x04\n      add\n      tag_265\n      swap1\n      tag_266\n      jump\t// in\n    tag_265:\n      mload(0x40)\n      dup1\n      swap2\n      sub\n      swap1\n      revert\n    tag_264:\n        /* \"contracts/Token.sol\":734:764  _burn(from, amount * 10 ** 18) */\n      tag_267\n        /* \"contracts/Token.sol\":740:744  from */\n      dup3\n        /* \"contracts/Token.sol\":755:763  10 ** 18 */\n      0x0de0b6b3a7640000\n        /* \"contracts/Token.sol\":746:752  amount */\n      dup4\n        /* \"contracts/Token.sol\":746:763  amount * 10 ** 18 */\n      tag_268\n      swap2\n      swap1\n      tag_253\n      jump\t// in\n    tag_268:\n        /* \"contracts/Token.sol\":734:739  _burn */\n      tag_269\n        /* \"contracts/Token.sol\":734:764  _burn(from, amount * 10 ** 18) */\n      jump\t// in\n    tag_267:\n        /* \"contracts/Token.sol\":596:771  function burn(address from, uint256 amount) public {... */\n      pop\n      pop\n      jump\t// out\n        /* \"@openzeppelin/contracts/access/AccessControl.sol\":2027:2076  bytes32 public constant DEFAULT_ADMIN_ROLE = 0x00 */\n    tag_143:\n        /* \"@openzeppelin/contracts/access/AccessControl.sol\":2072:2076  0x00 */\n      0x00\n        /* \"@openzeppelin/contracts/access/AccessControl.sol\":2027:2076  bytes32 public constant DEFAULT_ADMIN_ROLE = 0x00 */\n      dup1\n      shl\n      dup2\n      jump\t// out\n        /* \"@openzeppelin/contracts/token/ERC20/ERC20.sol\":6596:7025  function decreaseAllowance(address spender, uint256 subtractedValue) public virtual returns (bool) {... */\n    tag_148:\n        /* \"@openzeppelin/contracts/token/ERC20/ERC20.sol\":6689:6693  bool */\n      0x00\n        /* \"@openzeppelin/contracts/token/ERC20/ERC20.sol\":6705:6718  address owner */\n      dup1\n        /* \"@openzeppelin/contracts/token/ERC20/ERC20.sol\":6721:6733  _msgSender() */\n      tag_271\n        /* \"@openzeppelin/contracts/token/ERC20/ERC20.sol\":6721:6731  _msgSender */\n      tag_191\n        /* \"@openzeppelin/contracts/token/ERC20/ERC20.sol\":6721:6733  _msgSender() */\n      jump\t// in\n    tag_271:\n        /* \"@openzeppelin/contracts/token/ERC20/ERC20.sol\":6705:6733  address owner = _msgSender() */\n      swap1\n      pop\n        /* \"@openzeppelin/contracts/token/ERC20/ERC20.sol\":6743:6767  uint256 currentAllowance */\n      0x00\n        /* \"@openzeppelin/contracts/token/ERC20/ERC20.sol\":6770:6781  _allowances */\n      0x01\n        /* \"@openzeppelin/contracts/token/ERC20/ERC20.sol\":6770:6788  _allowances[owner] */\n      0x00\n        /* \"@openzeppelin/contracts/token/ERC20/ERC20.sol\":6782:6787  owner */\n      dup4\n        /* \"@openzeppelin/contracts/token/ERC20/ERC20.sol\":6770:6788  _allowances[owner] */\n      0xffffffffffffffffffffffffffffffffffffffff\n      and\n      0xffffffffffffffffffffffffffffffffffffffff\n      and\n      dup2\n      mstore\n      0x20\n      add\n      swap1\n      dup2\n      mstore\n      0x20\n      add\n      0x00\n      keccak256\n        /* \"@openzeppelin/contracts/token/ERC20/ERC20.sol\":6770:6797  _allowances[owner][spender] */\n      0x00\n        /* \"@openzeppelin/contracts/token/ERC20/ERC20.sol\":6789:6796  spender */\n      dup7\n        /* \"@openzeppelin/contracts/token/ERC20/ERC20.sol\":6770:6797  _allowances[owner][spender] */\n      0xffffffffffffffffffffffffffffffffffffffff\n      and\n      0xffffffffffffffffffffffffffffffffffffffff\n      and\n      dup2\n      mstore\n      0x20\n      add\n      swap1\n      dup2\n      mstore\n      0x20\n      add\n      0x00\n      keccak256\n      sload\n        /* \"@openzeppelin/contracts/token/ERC20/ERC20.sol\":6743:6797  uint256 currentAllowance = _allowances[owner][spender] */\n      swap1\n      pop\n        /* \"@openzeppelin/contracts/token/ERC20/ERC20.sol\":6835:6850  subtractedValue */\n      dup4\n        /* \"@openzeppelin/contracts/token/ERC20/ERC20.sol\":6815:6831  currentAllowance */\n      dup2\n        /* \"@openzeppelin/contracts/token/ERC20/ERC20.sol\":6815:6850  currentAllowance >= subtractedValue */\n      lt\n      iszero\n        /* \"@openzeppelin/contracts/token/ERC20/ERC20.sol\":6807:6892  require(currentAllowance >= subtractedValue, \"ERC20: decreased allowance below zero\") */\n      tag_272\n      jumpi\n      mload(0x40)\n      0x08c379a000000000000000000000000000000000000000000000000000000000\n      dup2\n      mstore\n      0x04\n      add\n      tag_273\n      swap1\n      tag_274\n      jump\t// in\n    tag_273:\n      mload(0x40)\n      dup1\n      swap2\n      sub\n      swap1\n      revert\n    tag_272:\n        /* \"@openzeppelin/contracts/token/ERC20/ERC20.sol\":6926:6986  _approve(owner, spender, currentAllowance - subtractedValue) */\n      tag_275\n        /* \"@openzeppelin/contracts/token/ERC20/ERC20.sol\":6935:6940  owner */\n      dup3\n        /* \"@openzeppelin/contracts/token/ERC20/ERC20.sol\":6942:6949  spender */\n      dup7\n        /* \"@openzeppelin/contracts/token/ERC20/ERC20.sol\":6970:6985  subtractedValue */\n      dup7\n        /* \"@openzeppelin/contracts/token/ERC20/ERC20.sol\":6951:6967  currentAllowance */\n      dup5\n        /* \"@openzeppelin/contracts/token/ERC20/ERC20.sol\":6951:6985  currentAllowance - subtractedValue */\n      sub\n        /* \"@openzeppelin/contracts/token/ERC20/ERC20.sol\":6926:6934  _approve */\n      tag_193\n        /* \"@openzeppelin/contracts/token/ERC20/ERC20.sol\":6926:6986  _approve(owner, spender, currentAllowance - subtractedValue) */\n      jump\t// in\n    tag_275:\n        /* \"@openzeppelin/contracts/token/ERC20/ERC20.sol\":7014:7018  true */\n      0x01\n        /* \"@openzeppelin/contracts/token/ERC20/ERC20.sol\":7007:7018  return true */\n      swap3\n      pop\n      pop\n      pop\n        /* \"@openzeppelin/contracts/token/ERC20/ERC20.sol\":6596:7025  function decreaseAllowance(address spender, uint256 subtractedValue) public virtual returns (bool) {... */\n      swap3\n      swap2\n      pop\n      pop\n      jump\t// out\n        /* \"@openzeppelin/contracts/token/ERC20/ERC20.sol\":3729:3918  function transfer(address to, uint256 amount) public virtual override returns (bool) {... */\n    tag_153:\n        /* \"@openzeppelin/contracts/token/ERC20/ERC20.sol\":3808:3812  bool */\n      0x00\n        /* \"@openzeppelin/contracts/token/ERC20/ERC20.sol\":3824:3837  address owner */\n      dup1\n        /* \"@openzeppelin/contracts/token/ERC20/ERC20.sol\":3840:3852  _msgSender() */\n      tag_277\n        /* \"@openzeppelin/contracts/token/ERC20/ERC20.sol\":3840:3850  _msgSender */\n      tag_191\n        /* \"@openzeppelin/contracts/token/ERC20/ERC20.sol\":3840:3852  _msgSender() */\n      jump\t// in\n    tag_277:\n        /* \"@openzeppelin/contracts/token/ERC20/ERC20.sol\":3824:3852  address owner = _msgSender() */\n      swap1\n      pop\n        /* \"@openzeppelin/contracts/token/ERC20/ERC20.sol\":3862:3890  _transfer(owner, to, amount) */\n      tag_278\n        /* \"@openzeppelin/contracts/token/ERC20/ERC20.sol\":3872:3877  owner */\n      dup2\n        /* \"@openzeppelin/contracts/token/ERC20/ERC20.sol\":3879:3881  to */\n      dup6\n        /* \"@openzeppelin/contracts/token/ERC20/ERC20.sol\":3883:3889  amount */\n      dup6\n        /* \"@openzeppelin/contracts/token/ERC20/ERC20.sol\":3862:3871  _transfer */\n      tag_200\n        /* \"@openzeppelin/contracts/token/ERC20/ERC20.sol\":3862:3890  _transfer(owner, to, amount) */\n      jump\t// in\n    tag_278:\n        /* \"@openzeppelin/contracts/token/ERC20/ERC20.sol\":3907:3911  true */\n      0x01\n        /* \"@openzeppelin/contracts/token/ERC20/ERC20.sol\":3900:3911  return true */\n      swap2\n      pop\n      pop\n        /* \"@openzeppelin/contracts/token/ERC20/ERC20.sol\":3729:3918  function transfer(address to, uint256 amount) public virtual override returns (bool) {... */\n      swap3\n      swap2\n      pop\n      pop\n      jump\t// out\n        /* \"contracts/Claim.sol\":210:249  mapping(address => uint) public claimed */\n    tag_158:\n      mstore(0x20, 0x07)\n      dup1\n      0x00\n      mstore\n      keccak256(0x00, 0x40)\n      0x00\n      swap2\n      pop\n      swap1\n      pop\n      sload\n      dup2\n      jump\t// out\n        /* \"@openzeppelin/contracts/access/AccessControl.sol\":4766:4913  function revokeRole(bytes32 role, address account) public virtual override onlyRole(getRoleAdmin(role)) {... */\n    tag_163:\n        /* \"@openzeppelin/contracts/access/AccessControl.sol\":4850:4868  getRoleAdmin(role) */\n      tag_279\n        /* \"@openzeppelin/contracts/access/AccessControl.sol\":4863:4867  role */\n      dup3\n        /* \"@openzeppelin/contracts/access/AccessControl.sol\":4850:4862  getRoleAdmin */\n      tag_75\n        /* \"@openzeppelin/contracts/access/AccessControl.sol\":4850:4868  getRoleAdmin(role) */\n      jump\t// in\n    tag_279:\n        /* \"@openzeppelin/contracts/access/AccessControl.sol\":2505:2535  _checkRole(role, _msgSender()) */\n      tag_281\n        /* \"@openzeppelin/contracts/access/AccessControl.sol\":2516:2520  role */\n      dup2\n        /* \"@openzeppelin/contracts/access/AccessControl.sol\":2522:2534  _msgSender() */\n      tag_282\n        /* \"@openzeppelin/contracts/access/AccessControl.sol\":2522:2532  _msgSender */\n      tag_191\n        /* \"@openzeppelin/contracts/access/AccessControl.sol\":2522:2534  _msgSender() */\n      jump\t// in\n    tag_282:\n        /* \"@openzeppelin/contracts/access/AccessControl.sol\":2505:2515  _checkRole */\n      tag_206\n        /* \"@openzeppelin/contracts/access/AccessControl.sol\":2505:2535  _checkRole(role, _msgSender()) */\n      jump\t// in\n    tag_281:\n        /* \"@openzeppelin/contracts/access/AccessControl.sol\":4880:4906  _revokeRole(role, account) */\n      tag_284\n        /* \"@openzeppelin/contracts/access/AccessControl.sol\":4892:4896  role */\n      dup4\n        /* \"@openzeppelin/contracts/access/AccessControl.sol\":4898:4905  account */\n      dup4\n        /* \"@openzeppelin/contracts/access/AccessControl.sol\":4880:4891  _revokeRole */\n      tag_217\n        /* \"@openzeppelin/contracts/access/AccessControl.sol\":4880:4906  _revokeRole(role, account) */\n      jump\t// in\n    tag_284:\n        /* \"@openzeppelin/contracts/access/AccessControl.sol\":4766:4913  function revokeRole(bytes32 role, address account) public virtual override onlyRole(getRoleAdmin(role)) {... */\n      pop\n      pop\n      pop\n      jump\t// out\n        /* \"contracts/Token.sol\":404:457  uint public constant maxSupply = 100000000 * 10 ** 18 */\n    tag_166:\n        /* \"contracts/Token.sol\":437:457  100000000 * 10 ** 18 */\n      0x52b7d2dcc80cd2e4000000\n        /* \"contracts/Token.sol\":404:457  uint public constant maxSupply = 100000000 * 10 ** 18 */\n      dup2\n      jump\t// out\n        /* \"@openzeppelin/contracts/token/ERC20/ERC20.sol\":3976:4125  function allowance(address owner, address spender) public view virtual override returns (uint256) {... */\n    tag_172:\n        /* \"@openzeppelin/contracts/token/ERC20/ERC20.sol\":4065:4072  uint256 */\n      0x00\n        /* \"@openzeppelin/contracts/token/ERC20/ERC20.sol\":4091:4102  _allowances */\n      0x01\n        /* \"@openzeppelin/contracts/token/ERC20/ERC20.sol\":4091:4109  _allowances[owner] */\n      0x00\n        /* \"@openzeppelin/contracts/token/ERC20/ERC20.sol\":4103:4108  owner */\n      dup5\n        /* \"@openzeppelin/contracts/token/ERC20/ERC20.sol\":4091:4109  _allowances[owner] */\n      0xffffffffffffffffffffffffffffffffffffffff\n      and\n      0xffffffffffffffffffffffffffffffffffffffff\n      and\n      dup2\n      mstore\n      0x20\n      add\n      swap1\n      dup2\n      mstore\n      0x20\n      add\n      0x00\n      keccak256\n        /* \"@openzeppelin/contracts/token/ERC20/ERC20.sol\":4091:4118  _allowances[owner][spender] */\n      0x00\n        /* \"@openzeppelin/contracts/token/ERC20/ERC20.sol\":4110:4117  spender */\n      dup4\n        /* \"@openzeppelin/contracts/token/ERC20/ERC20.sol\":4091:4118  _allowances[owner][spender] */\n      0xffffffffffffffffffffffffffffffffffffffff\n      and\n      0xffffffffffffffffffffffffffffffffffffffff\n      and\n      dup2\n      mstore\n      0x20\n      add\n      swap1\n      dup2\n      mstore\n      0x20\n      add\n      0x00\n      keccak256\n      sload\n        /* \"@openzeppelin/contracts/token/ERC20/ERC20.sol\":4084:4118  return _allowances[owner][spender] */\n      swap1\n      pop\n        /* \"@openzeppelin/contracts/token/ERC20/ERC20.sol\":3976:4125  function allowance(address owner, address spender) public view virtual override returns (uint256) {... */\n      swap3\n      swap2\n      pop\n      pop\n      jump\t// out\n        /* \"contracts/Token.sol\":1561:1773  function removeClaimable(address _account, uint256 _amount) external {... */\n    tag_177:\n        /* \"contracts/Token.sol\":1648:1682  hasRole(REWARDER_ROLE, msg.sender) */\n      tag_287\n        /* \"contracts/Token.sol\":371:397  keccak256(\"REWARDER_ROLE\") */\n      0xbeec13769b5f410b0584f69811bfd923818456d5edcf426b0e31cf90eed7a3f6\n        /* \"contracts/Token.sol\":1671:1681  msg.sender */\n      caller\n        /* \"contracts/Token.sol\":1648:1655  hasRole */\n      tag_131\n        /* \"contracts/Token.sol\":1648:1682  hasRole(REWARDER_ROLE, msg.sender) */\n      jump\t// in\n    tag_287:\n        /* \"contracts/Token.sol\":1640:1711  require(hasRole(REWARDER_ROLE, msg.sender), \"Caller is not a rewarder\") */\n      tag_288\n      jumpi\n      mload(0x40)\n      0x08c379a000000000000000000000000000000000000000000000000000000000\n      dup2\n      mstore\n      0x04\n      add\n      tag_289\n      swap1\n      tag_245\n      jump\t// in\n    tag_289:\n      mload(0x40)\n      dup1\n      swap2\n      sub\n      swap1\n      revert\n    tag_288:\n        /* \"contracts/Token.sol\":1721:1766  removeUnclaimed(_account, _amount * 10 ** 18) */\n      tag_290\n        /* \"contracts/Token.sol\":1737:1745  _account */\n      dup3\n        /* \"contracts/Token.sol\":1757:1765  10 ** 18 */\n      0x0de0b6b3a7640000\n        /* \"contracts/Token.sol\":1747:1754  _amount */\n      dup4\n        /* \"contracts/Token.sol\":1747:1765  _amount * 10 ** 18 */\n      tag_291\n      swap2\n      swap1\n      tag_253\n      jump\t// in\n    tag_291:\n        /* \"contracts/Token.sol\":1721:1736  removeUnclaimed */\n      tag_292\n        /* \"contracts/Token.sol\":1721:1766  removeUnclaimed(_account, _amount * 10 ** 18) */\n      jump\t// in\n    tag_290:\n        /* \"contracts/Token.sol\":1561:1773  function removeClaimable(address _account, uint256 _amount) external {... */\n      pop\n      pop\n      jump\t// out\n        /* \"@openzeppelin/contracts/utils/introspection/ERC165.sol\":829:984  function supportsInterface(bytes4 interfaceId) public view virtual override returns (bool) {... */\n    tag_181:\n        /* \"@openzeppelin/contracts/utils/introspection/ERC165.sol\":914:918  bool */\n      0x00\n        /* \"@openzeppelin/contracts/utils/introspection/ERC165.sol\":952:977  type(IERC165).interfaceId */\n      0x01ffc9a700000000000000000000000000000000000000000000000000000000\n        /* \"@openzeppelin/contracts/utils/introspection/ERC165.sol\":937:977  interfaceId == type(IERC165).interfaceId */\n      not(0xffffffffffffffffffffffffffffffffffffffffffffffffffffffff)\n      and\n        /* \"@openzeppelin/contracts/utils/introspection/ERC165.sol\":937:948  interfaceId */\n      dup3\n        /* \"@openzeppelin/contracts/utils/introspection/ERC165.sol\":937:977  interfaceId == type(IERC165).interfaceId */\n      not(0xffffffffffffffffffffffffffffffffffffffffffffffffffffffff)\n      and\n      eq\n        /* \"@openzeppelin/contracts/utils/introspection/ERC165.sol\":930:977  return interfaceId == type(IERC165).interfaceId */\n      swap1\n      pop\n        /* \"@openzeppelin/contracts/utils/introspection/ERC165.sol\":829:984  function supportsInterface(bytes4 interfaceId) public view virtual override returns (bool) {... */\n      swap2\n      swap1\n      pop\n      jump\t// out\n        /* \"@openzeppelin/contracts/utils/Context.sol\":640:736  function _msgSender() internal view virtual returns (address) {... */\n    tag_191:\n        /* \"@openzeppelin/contracts/utils/Context.sol\":693:700  address */\n      0x00\n        /* \"@openzeppelin/contracts/utils/Context.sol\":719:729  msg.sender */\n      caller\n        /* \"@openzeppelin/contracts/utils/Context.sol\":712:729  return msg.sender */\n      swap1\n      pop\n        /* \"@openzeppelin/contracts/utils/Context.sol\":640:736  function _msgSender() internal view virtual returns (address) {... */\n      swap1\n      jump\t// out\n        /* \"@openzeppelin/contracts/token/ERC20/ERC20.sol\":10123:10493  function _approve(... */\n    tag_193:\n        /* \"@openzeppelin/contracts/token/ERC20/ERC20.sol\":10271:10272  0 */\n      0x00\n        /* \"@openzeppelin/contracts/token/ERC20/ERC20.sol\":10254:10273  owner != address(0) */\n      0xffffffffffffffffffffffffffffffffffffffff\n      and\n        /* \"@openzeppelin/contracts/token/ERC20/ERC20.sol\":10254:10259  owner */\n      dup4\n        /* \"@openzeppelin/contracts/token/ERC20/ERC20.sol\":10254:10273  owner != address(0) */\n      0xffffffffffffffffffffffffffffffffffffffff\n      and\n      eq\n      iszero\n        /* \"@openzeppelin/contracts/token/ERC20/ERC20.sol\":10246:10314  require(owner != address(0), \"ERC20: approve from the zero address\") */\n      tag_296\n      jumpi\n      mload(0x40)\n      0x08c379a000000000000000000000000000000000000000000000000000000000\n      dup2\n      mstore\n      0x04\n      add\n      tag_297\n      swap1\n      tag_298\n      jump\t// in\n    tag_297:\n      mload(0x40)\n      dup1\n      swap2\n      sub\n      swap1\n      revert\n    tag_296:\n        /* \"@openzeppelin/contracts/token/ERC20/ERC20.sol\":10351:10352  0 */\n      0x00\n        /* \"@openzeppelin/contracts/token/ERC20/ERC20.sol\":10332:10353  spender != address(0) */\n      0xffffffffffffffffffffffffffffffffffffffff\n      and\n        /* \"@openzeppelin/contracts/token/ERC20/ERC20.sol\":10332:10339  spender */\n      dup3\n        /* \"@openzeppelin/contracts/token/ERC20/ERC20.sol\":10332:10353  spender != address(0) */\n      0xffffffffffffffffffffffffffffffffffffffff\n      and\n      eq\n      iszero\n        /* \"@openzeppelin/contracts/token/ERC20/ERC20.sol\":10324:10392  require(spender != address(0), \"ERC20: approve to the zero address\") */\n      tag_299\n      jumpi\n      mload(0x40)\n      0x08c379a000000000000000000000000000000000000000000000000000000000\n      dup2\n      mstore\n      0x04\n      add\n      tag_300\n      swap1\n      tag_301\n      jump\t// in\n    tag_300:\n      mload(0x40)\n      dup1\n      swap2\n      sub\n      swap1\n      revert\n    tag_299:\n        /* \"@openzeppelin/contracts/token/ERC20/ERC20.sol\":10433:10439  amount */\n      dup1\n        /* \"@openzeppelin/contracts/token/ERC20/ERC20.sol\":10403:10414  _allowances */\n      0x01\n        /* \"@openzeppelin/contracts/token/ERC20/ERC20.sol\":10403:10421  _allowances[owner] */\n      0x00\n        /* \"@openzeppelin/contracts/token/ERC20/ERC20.sol\":10415:10420  owner */\n      dup6\n        /* \"@openzeppelin/contracts/token/ERC20/ERC20.sol\":10403:10421  _allowances[owner] */\n      0xffffffffffffffffffffffffffffffffffffffff\n      and\n      0xffffffffffffffffffffffffffffffffffffffff\n      and\n      dup2\n      mstore\n      0x20\n      add\n      swap1\n      dup2\n      mstore\n      0x20\n      add\n      0x00\n      keccak256\n        /* \"@openzeppelin/contracts/token/ERC20/ERC20.sol\":10403:10430  _allowances[owner][spender] */\n      0x00\n        /* \"@openzeppelin/contracts/token/ERC20/ERC20.sol\":10422:10429  spender */\n      dup5\n        /* \"@openzeppelin/contracts/token/ERC20/ERC20.sol\":10403:10430  _allowances[owner][spender] */\n      0xffffffffffffffffffffffffffffffffffffffff\n      and\n      0xffffffffffffffffffffffffffffffffffffffff\n      and\n      dup2\n      mstore\n      0x20\n      add\n      swap1\n      dup2\n      mstore\n      0x20\n      add\n      0x00\n      keccak256\n        /* \"@openzeppelin/contracts/token/ERC20/ERC20.sol\":10403:10439  _allowances[owner][spender] = amount */\n      dup2\n      swap1\n      sstore\n      pop\n        /* \"@openzeppelin/contracts/token/ERC20/ERC20.sol\":10470:10477  spender */\n      dup2\n        /* \"@openzeppelin/contracts/token/ERC20/ERC20.sol\":10454:10486  Approval(owner, spender, amount) */\n      0xffffffffffffffffffffffffffffffffffffffff\n      and\n        /* \"@openzeppelin/contracts/token/ERC20/ERC20.sol\":10463:10468  owner */\n      dup4\n        /* \"@openzeppelin/contracts/token/ERC20/ERC20.sol\":10454:10486  Approval(owner, spender, amount) */\n      0xffffffffffffffffffffffffffffffffffffffff\n      and\n      0x8c5be1e5ebec7d5bd14f71427d1e84f3dd0314c0f7b2291e5b200ac8c7c3b925\n        /* \"@openzeppelin/contracts/token/ERC20/ERC20.sol\":10479:10485  amount */\n      dup4\n        /* \"@openzeppelin/contracts/token/ERC20/ERC20.sol\":10454:10486  Approval(owner, spender, amount) */\n      mload(0x40)\n      tag_302\n      swap2\n      swap1\n      tag_60\n      jump\t// in\n    tag_302:\n      mload(0x40)\n      dup1\n      swap2\n      sub\n      swap1\n      log3\n        /* \"@openzeppelin/contracts/token/ERC20/ERC20.sol\":10123:10493  function _approve(... */\n      pop\n      pop\n      pop\n      jump\t// out\n        /* \"@openzeppelin/contracts/token/ERC20/ERC20.sol\":10770:11211  function _spendAllowance(... */\n    tag_198:\n        /* \"@openzeppelin/contracts/token/ERC20/ERC20.sol\":10900:10924  uint256 currentAllowance */\n      0x00\n        /* \"@openzeppelin/contracts/token/ERC20/ERC20.sol\":10927:10952  allowance(owner, spender) */\n      tag_304\n        /* \"@openzeppelin/contracts/token/ERC20/ERC20.sol\":10937:10942  owner */\n      dup5\n        /* \"@openzeppelin/contracts/token/ERC20/ERC20.sol\":10944:10951  spender */\n      dup5\n        /* \"@openzeppelin/contracts/token/ERC20/ERC20.sol\":10927:10936  allowance */\n      tag_172\n        /* \"@openzeppelin/contracts/token/ERC20/ERC20.sol\":10927:10952  allowance(owner, spender) */\n      jump\t// in\n    tag_304:\n        /* \"@openzeppelin/contracts/token/ERC20/ERC20.sol\":10900:10952  uint256 currentAllowance = allowance(owner, spender) */\n      swap1\n      pop\n        /* \"@openzeppelin/contracts/token/ERC20/ERC20.sol\":10986:11003  type(uint256).max */\n      0xffffffffffffffffffffffffffffffffffffffffffffffffffffffffffffffff\n        /* \"@openzeppelin/contracts/token/ERC20/ERC20.sol\":10966:10982  currentAllowance */\n      dup2\n        /* \"@openzeppelin/contracts/token/ERC20/ERC20.sol\":10966:11003  currentAllowance != type(uint256).max */\n      eq\n        /* \"@openzeppelin/contracts/token/ERC20/ERC20.sol\":10962:11205  if (currentAllowance != type(uint256).max) {... */\n      tag_305\n      jumpi\n        /* \"@openzeppelin/contracts/token/ERC20/ERC20.sol\":11047:11053  amount */\n      dup2\n        /* \"@openzeppelin/contracts/token/ERC20/ERC20.sol\":11027:11043  currentAllowance */\n      dup2\n        /* \"@openzeppelin/contracts/token/ERC20/ERC20.sol\":11027:11053  currentAllowance >= amount */\n      lt\n      iszero\n        /* \"@openzeppelin/contracts/token/ERC20/ERC20.sol\":11019:11087  require(currentAllowance >= amount, \"ERC20: insufficient allowance\") */\n      tag_306\n      jumpi\n      mload(0x40)\n      0x08c379a000000000000000000000000000000000000000000000000000000000\n      dup2\n      mstore\n      0x04\n      add\n      tag_307\n      swap1\n      tag_308\n      jump\t// in\n    tag_307:\n      mload(0x40)\n      dup1\n      swap2\n      sub\n      swap1\n      revert\n    tag_306:\n        /* \"@openzeppelin/contracts/token/ERC20/ERC20.sol\":11129:11180  _approve(owner, spender, currentAllowance - amount) */\n      tag_309\n        /* \"@openzeppelin/contracts/token/ERC20/ERC20.sol\":11138:11143  owner */\n      dup5\n        /* \"@openzeppelin/contracts/token/ERC20/ERC20.sol\":11145:11152  spender */\n      dup5\n        /* \"@openzeppelin/contracts/token/ERC20/ERC20.sol\":11173:11179  amount */\n      dup5\n        /* \"@openzeppelin/contracts/token/ERC20/ERC20.sol\":11154:11170  currentAllowance */\n      dup5\n        /* \"@openzeppelin/contracts/token/ERC20/ERC20.sol\":11154:11179  currentAllowance - amount */\n      sub\n        /* \"@openzeppelin/contracts/token/ERC20/ERC20.sol\":11129:11137  _approve */\n      tag_193\n        /* \"@openzeppelin/contracts/token/ERC20/ERC20.sol\":11129:11180  _approve(owner, spender, currentAllowance - amount) */\n      jump\t// in\n    tag_309:\n        /* \"@openzeppelin/contracts/token/ERC20/ERC20.sol\":10962:11205  if (currentAllowance != type(uint256).max) {... */\n    tag_305:\n        /* \"@openzeppelin/contracts/token/ERC20/ERC20.sol\":10890:11211  {... */\n      pop\n        /* \"@openzeppelin/contracts/token/ERC20/ERC20.sol\":10770:11211  function _spendAllowance(... */\n      pop\n      pop\n      pop\n      jump\t// out\n        /* \"@openzeppelin/contracts/token/ERC20/ERC20.sol\":7488:8139  function _transfer(... */\n    tag_200:\n        /* \"@openzeppelin/contracts/token/ERC20/ERC20.sol\":7630:7631  0 */\n      0x00\n        /* \"@openzeppelin/contracts/token/ERC20/ERC20.sol\":7614:7632  from != address(0) */\n      0xffffffffffffffffffffffffffffffffffffffff\n      and\n        /* \"@openzeppelin/contracts/token/ERC20/ERC20.sol\":7614:7618  from */\n      dup4\n        /* \"@openzeppelin/contracts/token/ERC20/ERC20.sol\":7614:7632  from != address(0) */\n      0xffffffffffffffffffffffffffffffffffffffff\n      and\n      eq\n      iszero\n        /* \"@openzeppelin/contracts/token/ERC20/ERC20.sol\":7606:7674  require(from != address(0), \"ERC20: transfer from the zero address\") */\n      tag_311\n      jumpi\n      mload(0x40)\n      0x08c379a000000000000000000000000000000000000000000000000000000000\n      dup2\n      mstore\n      0x04\n      add\n      tag_312\n      swap1\n      tag_313\n      jump\t// in\n    tag_312:\n      mload(0x40)\n      dup1\n      swap2\n      sub\n      swap1\n      revert\n    tag_311:\n        /* \"@openzeppelin/contracts/token/ERC20/ERC20.sol\":7706:7707  0 */\n      0x00\n        /* \"@openzeppelin/contracts/token/ERC20/ERC20.sol\":7692:7708  to != address(0) */\n      0xffffffffffffffffffffffffffffffffffffffff\n      and\n        /* \"@openzeppelin/contracts/token/ERC20/ERC20.sol\":7692:7694  to */\n      dup3\n        /* \"@openzeppelin/contracts/token/ERC20/ERC20.sol\":7692:7708  to != address(0) */\n      0xffffffffffffffffffffffffffffffffffffffff\n      and\n      eq\n      iszero\n        /* \"@openzeppelin/contracts/token/ERC20/ERC20.sol\":7684:7748  require(to != address(0), \"ERC20: transfer to the zero address\") */\n      tag_314\n      jumpi\n      mload(0x40)\n      0x08c379a000000000000000000000000000000000000000000000000000000000\n      dup2\n      mstore\n      0x04\n      add\n      tag_315\n      swap1\n      tag_316\n      jump\t// in\n    tag_315:\n      mload(0x40)\n      dup1\n      swap2\n      sub\n      swap1\n      revert\n    tag_314:\n        /* \"@openzeppelin/contracts/token/ERC20/ERC20.sol\":7759:7797  _beforeTokenTransfer(from, to, amount) */\n      tag_317\n        /* \"@openzeppelin/contracts/token/ERC20/ERC20.sol\":7780:7784  from */\n      dup4\n        /* \"@openzeppelin/contracts/token/ERC20/ERC20.sol\":7786:7788  to */\n      dup4\n        /* \"@openzeppelin/contracts/token/ERC20/ERC20.sol\":7790:7796  amount */\n      dup4\n        /* \"@openzeppelin/contracts/token/ERC20/ERC20.sol\":7759:7779  _beforeTokenTransfer */\n      tag_318\n        /* \"@openzeppelin/contracts/token/ERC20/ERC20.sol\":7759:7797  _beforeTokenTransfer(from, to, amount) */\n      jump\t// in\n    tag_317:\n        /* \"@openzeppelin/contracts/token/ERC20/ERC20.sol\":7808:7827  uint256 fromBalance */\n      0x00\n        /* \"@openzeppelin/contracts/token/ERC20/ERC20.sol\":7830:7839  _balances */\n      dup1\n        /* \"@openzeppelin/contracts/token/ERC20/ERC20.sol\":7830:7845  _balances[from] */\n      0x00\n        /* \"@openzeppelin/contracts/token/ERC20/ERC20.sol\":7840:7844  from */\n      dup6\n        /* \"@openzeppelin/contracts/token/ERC20/ERC20.sol\":7830:7845  _balances[from] */\n      0xffffffffffffffffffffffffffffffffffffffff\n      and\n      0xffffffffffffffffffffffffffffffffffffffff\n      and\n      dup2\n      mstore\n      0x20\n      add\n      swap1\n      dup2\n      mstore\n      0x20\n      add\n      0x00\n      keccak256\n      sload\n        /* \"@openzeppelin/contracts/token/ERC20/ERC20.sol\":7808:7845  uint256 fromBalance = _balances[from] */\n      swap1\n      pop\n        /* \"@openzeppelin/contracts/token/ERC20/ERC20.sol\":7878:7884  amount */\n      dup2\n        /* \"@openzeppelin/contracts/token/ERC20/ERC20.sol\":7863:7874  fromBalance */\n      dup2\n        /* \"@openzeppelin/contracts/token/ERC20/ERC20.sol\":7863:7884  fromBalance >= amount */\n      lt\n      iszero\n        /* \"@openzeppelin/contracts/token/ERC20/ERC20.sol\":7855:7927  require(fromBalance >= amount, \"ERC20: transfer amount exceeds balance\") */\n      tag_319\n      jumpi\n      mload(0x40)\n      0x08c379a000000000000000000000000000000000000000000000000000000000\n      dup2\n      mstore\n      0x04\n      add\n      tag_320\n      swap1\n      tag_321\n      jump\t// in\n    tag_320:\n      mload(0x40)\n      dup1\n      swap2\n      sub\n      swap1\n      revert\n    tag_319:\n        /* \"@openzeppelin/contracts/token/ERC20/ERC20.sol\":7993:7999  amount */\n      dup2\n        /* \"@openzeppelin/contracts/token/ERC20/ERC20.sol\":7979:7990  fromBalance */\n      dup2\n        /* \"@openzeppelin/contracts/token/ERC20/ERC20.sol\":7979:7999  fromBalance - amount */\n      sub\n        /* \"@openzeppelin/contracts/token/ERC20/ERC20.sol\":7961:7970  _balances */\n      0x00\n        /* \"@openzeppelin/contracts/token/ERC20/ERC20.sol\":7961:7976  _balances[from] */\n      dup1\n        /* \"@openzeppelin/contracts/token/ERC20/ERC20.sol\":7971:7975  from */\n      dup7\n        /* \"@openzeppelin/contracts/token/ERC20/ERC20.sol\":7961:7976  _balances[from] */\n      0xffffffffffffffffffffffffffffffffffffffff\n      and\n      0xffffffffffffffffffffffffffffffffffffffff\n      and\n      dup2\n      mstore\n      0x20\n      add\n      swap1\n      dup2\n      mstore\n      0x20\n      add\n      0x00\n      keccak256\n        /* \"@openzeppelin/contracts/token/ERC20/ERC20.sol\":7961:7999  _balances[from] = fromBalance - amount */\n      dup2\n      swap1\n      sstore\n      pop\n        /* \"@openzeppelin/contracts/token/ERC20/ERC20.sol\":8036:8042  amount */\n      dup2\n        /* \"@openzeppelin/contracts/token/ERC20/ERC20.sol\":8019:8028  _balances */\n      0x00\n        /* \"@openzeppelin/contracts/token/ERC20/ERC20.sol\":8019:8032  _balances[to] */\n      dup1\n        /* \"@openzeppelin/contracts/token/ERC20/ERC20.sol\":8029:8031  to */\n      dup6\n        /* \"@openzeppelin/contracts/token/ERC20/ERC20.sol\":8019:8032  _balances[to] */\n      0xffffffffffffffffffffffffffffffffffffffff\n      and\n      0xffffffffffffffffffffffffffffffffffffffff\n      and\n      dup2\n      mstore\n      0x20\n      add\n      swap1\n      dup2\n      mstore\n      0x20\n      add\n      0x00\n      keccak256\n      0x00\n        /* \"@openzeppelin/contracts/token/ERC20/ERC20.sol\":8019:8042  _balances[to] += amount */\n      dup3\n      dup3\n      sload\n      tag_322\n      swap2\n      swap1\n      tag_222\n      jump\t// in\n    tag_322:\n      swap3\n      pop\n      pop\n      dup2\n      swap1\n      sstore\n      pop\n        /* \"@openzeppelin/contracts/token/ERC20/ERC20.sol\":8073:8075  to */\n      dup3\n        /* \"@openzeppelin/contracts/token/ERC20/ERC20.sol\":8058:8084  Transfer(from, to, amount) */\n      0xffffffffffffffffffffffffffffffffffffffff\n      and\n        /* \"@openzeppelin/contracts/token/ERC20/ERC20.sol\":8067:8071  from */\n      dup5\n        /* \"@openzeppelin/contracts/token/ERC20/ERC20.sol\":8058:8084  Transfer(from, to, amount) */\n      0xffffffffffffffffffffffffffffffffffffffff\n      and\n      0xddf252ad1be2c89b69c2b068fc378daa952ba7f163c4a11628f55a4df523b3ef\n        /* \"@openzeppelin/contracts/token/ERC20/ERC20.sol\":8077:8083  amount */\n      dup5\n        /* \"@openzeppelin/contracts/token/ERC20/ERC20.sol\":8058:8084  Transfer(from, to, amount) */\n      mload(0x40)\n      tag_323\n      swap2\n      swap1\n      tag_60\n      jump\t// in\n    tag_323:\n      mload(0x40)\n      dup1\n      swap2\n      sub\n      swap1\n      log3\n        /* \"@openzeppelin/contracts/token/ERC20/ERC20.sol\":8095:8132  _afterTokenTransfer(from, to, amount) */\n      tag_324\n        /* \"@openzeppelin/contracts/token/ERC20/ERC20.sol\":8115:8119  from */\n      dup5\n        /* \"@openzeppelin/contracts/token/ERC20/ERC20.sol\":8121:8123  to */\n      dup5\n        /* \"@openzeppelin/contracts/token/ERC20/ERC20.sol\":8125:8131  amount */\n      dup5\n        /* \"@openzeppelin/contracts/token/ERC20/ERC20.sol\":8095:8114  _afterTokenTransfer */\n      tag_325\n        /* \"@openzeppelin/contracts/token/ERC20/ERC20.sol\":8095:8132  _afterTokenTransfer(from, to, amount) */\n      jump\t// in\n    tag_324:\n        /* \"@openzeppelin/contracts/token/ERC20/ERC20.sol\":7596:8139  {... */\n      pop\n        /* \"@openzeppelin/contracts/token/ERC20/ERC20.sol\":7488:8139  function _transfer(... */\n      pop\n      pop\n      pop\n      jump\t// out\n        /* \"@openzeppelin/contracts/access/AccessControl.sol\":3335:3827  function _checkRole(bytes32 role, address account) internal view virtual {... */\n    tag_206:\n        /* \"@openzeppelin/contracts/access/AccessControl.sol\":3423:3445  hasRole(role, account) */\n      tag_327\n        /* \"@openzeppelin/contracts/access/AccessControl.sol\":3431:3435  role */\n      dup3\n        /* \"@openzeppelin/contracts/access/AccessControl.sol\":3437:3444  account */\n      dup3\n        /* \"@openzeppelin/contracts/access/AccessControl.sol\":3423:3430  hasRole */\n      tag_131\n        /* \"@openzeppelin/contracts/access/AccessControl.sol\":3423:3445  hasRole(role, account) */\n      jump\t// in\n    tag_327:\n        /* \"@openzeppelin/contracts/access/AccessControl.sol\":3418:3821  if (!hasRole(role, account)) {... */\n      tag_328\n      jumpi\n        /* \"@openzeppelin/contracts/access/AccessControl.sol\":3606:3647  Strings.toHexString(uint160(account), 20) */\n      tag_329\n        /* \"@openzeppelin/contracts/access/AccessControl.sol\":3634:3641  account */\n      dup2\n        /* \"@openzeppelin/contracts/access/AccessControl.sol\":3606:3647  Strings.toHexString(uint160(account), 20) */\n      0xffffffffffffffffffffffffffffffffffffffff\n      and\n        /* \"@openzeppelin/contracts/access/AccessControl.sol\":3644:3646  20 */\n      0x14\n        /* \"@openzeppelin/contracts/access/AccessControl.sol\":3606:3625  Strings.toHexString */\n      tag_330\n        /* \"@openzeppelin/contracts/access/AccessControl.sol\":3606:3647  Strings.toHexString(uint160(account), 20) */\n      jump\t// in\n    tag_329:\n        /* \"@openzeppelin/contracts/access/AccessControl.sol\":3718:3756  Strings.toHexString(uint256(role), 32) */\n      tag_331\n        /* \"@openzeppelin/contracts/access/AccessControl.sol\":3746:3750  role */\n      dup4\n        /* \"@openzeppelin/contracts/access/AccessControl.sol\":3738:3751  uint256(role) */\n      0x00\n      shr\n        /* \"@openzeppelin/contracts/access/AccessControl.sol\":3753:3755  32 */\n      0x20\n        /* \"@openzeppelin/contracts/access/AccessControl.sol\":3718:3737  Strings.toHexString */\n      tag_330\n        /* \"@openzeppelin/contracts/access/AccessControl.sol\":3718:3756  Strings.toHexString(uint256(role), 32) */\n      jump\t// in\n    tag_331:\n        /* \"@openzeppelin/contracts/access/AccessControl.sol\":3513:3778  abi.encodePacked(... */\n      add(0x20, mload(0x40))\n      tag_332\n      swap3\n      swap2\n      swap1\n      tag_333\n      jump\t// in\n    tag_332:\n      mload(0x40)\n      0x20\n      dup2\n      dup4\n      sub\n      sub\n      dup2\n      mstore\n      swap1\n      0x40\n      mstore\n        /* \"@openzeppelin/contracts/access/AccessControl.sol\":3461:3810  revert(... */\n      mload(0x40)\n      0x08c379a000000000000000000000000000000000000000000000000000000000\n      dup2\n      mstore\n      0x04\n      add\n      tag_334\n      swap2\n      swap1\n      tag_49\n      jump\t// in\n    tag_334:\n      mload(0x40)\n      dup1\n      swap2\n      sub\n      swap1\n      revert\n        /* \"@openzeppelin/contracts/access/AccessControl.sol\":3418:3821  if (!hasRole(role, account)) {... */\n    tag_328:\n        /* \"@openzeppelin/contracts/access/AccessControl.sol\":3335:3827  function _checkRole(bytes32 role, address account) internal view virtual {... */\n      pop\n      pop\n      jump\t// out\n        /* \"@openzeppelin/contracts/access/AccessControl.sol\":6861:7094  function _grantRole(bytes32 role, address account) internal virtual {... */\n    tag_209:\n        /* \"@openzeppelin/contracts/access/AccessControl.sol\":6944:6966  hasRole(role, account) */\n      tag_336\n        /* \"@openzeppelin/contracts/access/AccessControl.sol\":6952:6956  role */\n      dup3\n        /* \"@openzeppelin/contracts/access/AccessControl.sol\":6958:6965  account */\n      dup3\n        /* \"@openzeppelin/contracts/access/AccessControl.sol\":6944:6951  hasRole */\n      tag_131\n        /* \"@openzeppelin/contracts/access/AccessControl.sol\":6944:6966  hasRole(role, account) */\n      jump\t// in\n    tag_336:\n        /* \"@openzeppelin/contracts/access/AccessControl.sol\":6939:7088  if (!hasRole(role, account)) {... */\n      tag_337\n      jumpi\n        /* \"@openzeppelin/contracts/access/AccessControl.sol\":7014:7018  true */\n      0x01\n        /* \"@openzeppelin/contracts/access/AccessControl.sol\":6982:6988  _roles */\n      0x05\n        /* \"@openzeppelin/contracts/access/AccessControl.sol\":6982:6994  _roles[role] */\n      0x00\n        /* \"@openzeppelin/contracts/access/AccessControl.sol\":6989:6993  role */\n      dup5\n        /* \"@openzeppelin/contracts/access/AccessControl.sol\":6982:6994  _roles[role] */\n      dup2\n      mstore\n      0x20\n      add\n      swap1\n      dup2\n      mstore\n      0x20\n      add\n      0x00\n      keccak256\n        /* \"@openzeppelin/contracts/access/AccessControl.sol\":6982:7002  _roles[role].members */\n      0x00\n      add\n        /* \"@openzeppelin/contracts/access/AccessControl.sol\":6982:7011  _roles[role].members[account] */\n      0x00\n        /* \"@openzeppelin/contracts/access/AccessControl.sol\":7003:7010  account */\n      dup4\n        /* \"@openzeppelin/contracts/access/AccessControl.sol\":6982:7011  _roles[role].members[account] */\n      0xffffffffffffffffffffffffffffffffffffffff\n      and\n      0xffffffffffffffffffffffffffffffffffffffff\n      and\n      dup2\n      mstore\n      0x20\n      add\n      swap1\n      dup2\n      mstore\n      0x20\n      add\n      0x00\n      keccak256\n      0x00\n        /* \"@openzeppelin/contracts/access/AccessControl.sol\":6982:7018  _roles[role].members[account] = true */\n      0x0100\n      exp\n      dup2\n      sload\n      dup2\n      0xff\n      mul\n      not\n      and\n      swap1\n      dup4\n      iszero\n      iszero\n      mul\n      or\n      swap1\n      sstore\n      pop\n        /* \"@openzeppelin/contracts/access/AccessControl.sol\":7064:7076  _msgSender() */\n      tag_338\n        /* \"@openzeppelin/contracts/access/AccessControl.sol\":7064:7074  _msgSender */\n      tag_191\n        /* \"@openzeppelin/contracts/access/AccessControl.sol\":7064:7076  _msgSender() */\n      jump\t// in\n    tag_338:\n        /* \"@openzeppelin/contracts/access/AccessControl.sol\":7037:7077  RoleGranted(role, account, _msgSender()) */\n      0xffffffffffffffffffffffffffffffffffffffff\n      and\n        /* \"@openzeppelin/contracts/access/AccessControl.sol\":7055:7062  account */\n      dup2\n        /* \"@openzeppelin/contracts/access/AccessControl.sol\":7037:7077  RoleGranted(role, account, _msgSender()) */\n      0xffffffffffffffffffffffffffffffffffffffff\n      and\n        /* \"@openzeppelin/contracts/access/AccessControl.sol\":7049:7053  role */\n      dup4\n        /* \"@openzeppelin/contracts/access/AccessControl.sol\":7037:7077  RoleGranted(role, account, _msgSender()) */\n      0x2f8788117e7eff1d82e926ec794901d17c78024a50270940304540a733656f0d\n      mload(0x40)\n      mload(0x40)\n      dup1\n      swap2\n      sub\n      swap1\n      log4\n        /* \"@openzeppelin/contracts/access/AccessControl.sol\":6939:7088  if (!hasRole(role, account)) {... */\n    tag_337:\n        /* \"@openzeppelin/contracts/access/AccessControl.sol\":6861:7094  function _grantRole(bytes32 role, address account) internal virtual {... */\n      pop\n      pop\n      jump\t// out\n        /* \"@openzeppelin/contracts/access/AccessControl.sol\":7219:7453  function _revokeRole(bytes32 role, address account) internal virtual {... */\n    tag_217:\n        /* \"@openzeppelin/contracts/access/AccessControl.sol\":7302:7324  hasRole(role, account) */\n      tag_340\n        /* \"@openzeppelin/contracts/access/AccessControl.sol\":7310:7314  role */\n      dup3\n        /* \"@openzeppelin/contracts/access/AccessControl.sol\":7316:7323  account */\n      dup3\n        /* \"@openzeppelin/contracts/access/AccessControl.sol\":7302:7309  hasRole */\n      tag_131\n        /* \"@openzeppelin/contracts/access/AccessControl.sol\":7302:7324  hasRole(role, account) */\n      jump\t// in\n    tag_340:\n        /* \"@openzeppelin/contracts/access/AccessControl.sol\":7298:7447  if (hasRole(role, account)) {... */\n      iszero\n      tag_341\n      jumpi\n        /* \"@openzeppelin/contracts/access/AccessControl.sol\":7372:7377  false */\n      0x00\n        /* \"@openzeppelin/contracts/access/AccessControl.sol\":7340:7346  _roles */\n      0x05\n        /* \"@openzeppelin/contracts/access/AccessControl.sol\":7340:7352  _roles[role] */\n      0x00\n        /* \"@openzeppelin/contracts/access/AccessControl.sol\":7347:7351  role */\n      dup5\n        /* \"@openzeppelin/contracts/access/AccessControl.sol\":7340:7352  _roles[role] */\n      dup2\n      mstore\n      0x20\n      add\n      swap1\n      dup2\n      mstore\n      0x20\n      add\n      0x00\n      keccak256\n        /* \"@openzeppelin/contracts/access/AccessControl.sol\":7340:7360  _roles[role].members */\n      0x00\n      add\n        /* \"@openzeppelin/contracts/access/AccessControl.sol\":7340:7369  _roles[role].members[account] */\n      0x00\n        /* \"@openzeppelin/contracts/access/AccessControl.sol\":7361:7368  account */\n      dup4\n        /* \"@openzeppelin/contracts/access/AccessControl.sol\":7340:7369  _roles[role].members[account] */\n      0xffffffffffffffffffffffffffffffffffffffff\n      and\n      0xffffffffffffffffffffffffffffffffffffffff\n      and\n      dup2\n      mstore\n      0x20\n      add\n      swap1\n      dup2\n      mstore\n      0x20\n      add\n      0x00\n      keccak256\n      0x00\n        /* \"@openzeppelin/contracts/access/AccessControl.sol\":7340:7377  _roles[role].members[account] = false */\n      0x0100\n      exp\n      dup2\n      sload\n      dup2\n      0xff\n      mul\n      not\n      and\n      swap1\n      dup4\n      iszero\n      iszero\n      mul\n      or\n      swap1\n      sstore\n      pop\n        /* \"@openzeppelin/contracts/access/AccessControl.sol\":7423:7435  _msgSender() */\n      tag_342\n        /* \"@openzeppelin/contracts/access/AccessControl.sol\":7423:7433  _msgSender */\n      tag_191\n        /* \"@openzeppelin/contracts/access/AccessControl.sol\":7423:7435  _msgSender() */\n      jump\t// in\n    tag_342:\n        /* \"@openzeppelin/contracts/access/AccessControl.sol\":7396:7436  RoleRevoked(role, account, _msgSender()) */\n      0xffffffffffffffffffffffffffffffffffffffff\n      and\n        /* \"@openzeppelin/contracts/access/AccessControl.sol\":7414:7421  account */\n      dup2\n        /* \"@openzeppelin/contracts/access/AccessControl.sol\":7396:7436  RoleRevoked(role, account, _msgSender()) */\n      0xffffffffffffffffffffffffffffffffffffffff\n      and\n        /* \"@openzeppelin/contracts/access/AccessControl.sol\":7408:7412  role */\n      dup4\n        /* \"@openzeppelin/contracts/access/AccessControl.sol\":7396:7436  RoleRevoked(role, account, _msgSender()) */\n      0xf6391f5c32d9c69d2a47ea670b442974b53935d1edc7fd64eb21e047a839171b\n      mload(0x40)\n      mload(0x40)\n      dup1\n      swap2\n      sub\n      swap1\n      log4\n        /* \"@openzeppelin/contracts/access/AccessControl.sol\":7298:7447  if (hasRole(role, account)) {... */\n    tag_341:\n        /* \"@openzeppelin/contracts/access/AccessControl.sol\":7219:7453  function _revokeRole(bytes32 role, address account) internal virtual {... */\n      pop\n      pop\n      jump\t// out\n        /* \"@openzeppelin/contracts/token/ERC20/ERC20.sol\":8415:8804  function _mint(address account, uint256 amount) internal virtual {... */\n    tag_236:\n        /* \"@openzeppelin/contracts/token/ERC20/ERC20.sol\":8517:8518  0 */\n      0x00\n        /* \"@openzeppelin/contracts/token/ERC20/ERC20.sol\":8498:8519  account != address(0) */\n      0xffffffffffffffffffffffffffffffffffffffff\n      and\n        /* \"@openzeppelin/contracts/token/ERC20/ERC20.sol\":8498:8505  account */\n      dup3\n        /* \"@openzeppelin/contracts/token/ERC20/ERC20.sol\":8498:8519  account != address(0) */\n      0xffffffffffffffffffffffffffffffffffffffff\n      and\n      eq\n      iszero\n        /* \"@openzeppelin/contracts/token/ERC20/ERC20.sol\":8490:8555  require(account != address(0), \"ERC20: mint to the zero address\") */\n      tag_344\n      jumpi\n      mload(0x40)\n      0x08c379a000000000000000000000000000000000000000000000000000000000\n      dup2\n      mstore\n      0x04\n      add\n      tag_345\n      swap1\n      tag_346\n      jump\t// in\n    tag_345:\n      mload(0x40)\n      dup1\n      swap2\n      sub\n      swap1\n      revert\n    tag_344:\n        /* \"@openzeppelin/contracts/token/ERC20/ERC20.sol\":8566:8615  _beforeTokenTransfer(address(0), account, amount) */\n      tag_347\n        /* \"@openzeppelin/contracts/token/ERC20/ERC20.sol\":8595:8596  0 */\n      0x00\n        /* \"@openzeppelin/contracts/token/ERC20/ERC20.sol\":8599:8606  account */\n      dup4\n        /* \"@openzeppelin/contracts/token/ERC20/ERC20.sol\":8608:8614  amount */\n      dup4\n        /* \"@openzeppelin/contracts/token/ERC20/ERC20.sol\":8566:8586  _beforeTokenTransfer */\n      tag_318\n        /* \"@openzeppelin/contracts/token/ERC20/ERC20.sol\":8566:8615  _beforeTokenTransfer(address(0), account, amount) */\n      jump\t// in\n    tag_347:\n        /* \"@openzeppelin/contracts/token/ERC20/ERC20.sol\":8642:8648  amount */\n      dup1\n        /* \"@openzeppelin/contracts/token/ERC20/ERC20.sol\":8626:8638  _totalSupply */\n      0x02\n      0x00\n        /* \"@openzeppelin/contracts/token/ERC20/ERC20.sol\":8626:8648  _totalSupply += amount */\n      dup3\n      dup3\n      sload\n      tag_348\n      swap2\n      swap1\n      tag_222\n      jump\t// in\n    tag_348:\n      swap3\n      pop\n      pop\n      dup2\n      swap1\n      sstore\n      pop\n        /* \"@openzeppelin/contracts/token/ERC20/ERC20.sol\":8680:8686  amount */\n      dup1\n        /* \"@openzeppelin/contracts/token/ERC20/ERC20.sol\":8658:8667  _balances */\n      0x00\n        /* \"@openzeppelin/contracts/token/ERC20/ERC20.sol\":8658:8676  _balances[account] */\n      dup1\n        /* \"@openzeppelin/contracts/token/ERC20/ERC20.sol\":8668:8675  account */\n      dup5\n        /* \"@openzeppelin/contracts/token/ERC20/ERC20.sol\":8658:8676  _balances[account] */\n      0xffffffffffffffffffffffffffffffffffffffff\n      and\n      0xffffffffffffffffffffffffffffffffffffffff\n      and\n      dup2\n      mstore\n      0x20\n      add\n      swap1\n      dup2\n      mstore\n      0x20\n      add\n      0x00\n      keccak256\n      0x00\n        /* \"@openzeppelin/contracts/token/ERC20/ERC20.sol\":8658:8686  _balances[account] += amount */\n      dup3\n      dup3\n      sload\n      tag_349\n      swap2\n      swap1\n      tag_222\n      jump\t// in\n    tag_349:\n      swap3\n      pop\n      pop\n      dup2\n      swap1\n      sstore\n      pop\n        /* \"@openzeppelin/contracts/token/ERC20/ERC20.sol\":8722:8729  account */\n      dup2\n        /* \"@openzeppelin/contracts/token/ERC20/ERC20.sol\":8701:8738  Transfer(address(0), account, amount) */\n      0xffffffffffffffffffffffffffffffffffffffff\n      and\n        /* \"@openzeppelin/contracts/token/ERC20/ERC20.sol\":8718:8719  0 */\n      0x00\n        /* \"@openzeppelin/contracts/token/ERC20/ERC20.sol\":8701:8738  Transfer(address(0), account, amount) */\n      0xffffffffffffffffffffffffffffffffffffffff\n      and\n      0xddf252ad1be2c89b69c2b068fc378daa952ba7f163c4a11628f55a4df523b3ef\n        /* \"@openzeppelin/contracts/token/ERC20/ERC20.sol\":8731:8737  amount */\n      dup4\n        /* \"@openzeppelin/contracts/token/ERC20/ERC20.sol\":8701:8738  Transfer(address(0), account, amount) */\n      mload(0x40)\n      tag_350\n      swap2\n      swap1\n      tag_60\n      jump\t// in\n    tag_350:\n      mload(0x40)\n      dup1\n      swap2\n      sub\n      swap1\n      log3\n        /* \"@openzeppelin/contracts/token/ERC20/ERC20.sol\":8749:8797  _afterTokenTransfer(address(0), account, amount) */\n      tag_351\n        /* \"@openzeppelin/contracts/token/ERC20/ERC20.sol\":8777:8778  0 */\n      0x00\n        /* \"@openzeppelin/contracts/token/ERC20/ERC20.sol\":8781:8788  account */\n      dup4\n        /* \"@openzeppelin/contracts/token/ERC20/ERC20.sol\":8790:8796  amount */\n      dup4\n        /* \"@openzeppelin/contracts/token/ERC20/ERC20.sol\":8749:8768  _afterTokenTransfer */\n      tag_325\n        /* \"@openzeppelin/contracts/token/ERC20/ERC20.sol\":8749:8797  _afterTokenTransfer(address(0), account, amount) */\n      jump\t// in\n    tag_351:\n        /* \"@openzeppelin/contracts/token/ERC20/ERC20.sol\":8415:8804  function _mint(address account, uint256 amount) internal virtual {... */\n      pop\n      pop\n      jump\t// out\n        /* \"contracts/Claim.sol\":429:536  function addUnclaimed(address _account, uint256 _amt) internal {... */\n    tag_254:\n        /* \"contracts/Claim.sol\":525:529  _amt */\n      dup1\n        /* \"contracts/Claim.sol\":502:511  unclaimed */\n      0x06\n        /* \"contracts/Claim.sol\":502:521  unclaimed[_account] */\n      0x00\n        /* \"contracts/Claim.sol\":512:520  _account */\n      dup5\n        /* \"contracts/Claim.sol\":502:521  unclaimed[_account] */\n      0xffffffffffffffffffffffffffffffffffffffff\n      and\n      0xffffffffffffffffffffffffffffffffffffffff\n      and\n      dup2\n      mstore\n      0x20\n      add\n      swap1\n      dup2\n      mstore\n      0x20\n      add\n      0x00\n      keccak256\n      0x00\n        /* \"contracts/Claim.sol\":502:529  unclaimed[_account] += _amt */\n      dup3\n      dup3\n      sload\n      tag_353\n      swap2\n      swap1\n      tag_222\n      jump\t// in\n    tag_353:\n      swap3\n      pop\n      pop\n      dup2\n      swap1\n      sstore\n      pop\n        /* \"contracts/Claim.sol\":429:536  function addUnclaimed(address _account, uint256 _amt) internal {... */\n      pop\n      pop\n      jump\t// out\n        /* \"@openzeppelin/contracts/token/ERC20/ERC20.sol\":9124:9700  function _burn(address account, uint256 amount) internal virtual {... */\n    tag_269:\n        /* \"@openzeppelin/contracts/token/ERC20/ERC20.sol\":9226:9227  0 */\n      0x00\n        /* \"@openzeppelin/contracts/token/ERC20/ERC20.sol\":9207:9228  account != address(0) */\n      0xffffffffffffffffffffffffffffffffffffffff\n      and\n        /* \"@openzeppelin/contracts/token/ERC20/ERC20.sol\":9207:9214  account */\n      dup3\n        /* \"@openzeppelin/contracts/token/ERC20/ERC20.sol\":9207:9228  account != address(0) */\n      0xffffffffffffffffffffffffffffffffffffffff\n      and\n      eq\n      iszero\n        /* \"@openzeppelin/contracts/token/ERC20/ERC20.sol\":9199:9266  require(account != address(0), \"ERC20: burn from the zero address\") */\n      tag_355\n      jumpi\n      mload(0x40)\n      0x08c379a000000000000000000000000000000000000000000000000000000000\n      dup2\n      mstore\n      0x04\n      add\n      tag_356\n      swap1\n      tag_357\n      jump\t// in\n    tag_356:\n      mload(0x40)\n      dup1\n      swap2\n      sub\n      swap1\n      revert\n    tag_355:\n        /* \"@openzeppelin/contracts/token/ERC20/ERC20.sol\":9277:9326  _beforeTokenTransfer(account, address(0), amount) */\n      tag_358\n        /* \"@openzeppelin/contracts/token/ERC20/ERC20.sol\":9298:9305  account */\n      dup3\n        /* \"@openzeppelin/contracts/token/ERC20/ERC20.sol\":9315:9316  0 */\n      0x00\n        /* \"@openzeppelin/contracts/token/ERC20/ERC20.sol\":9319:9325  amount */\n      dup4\n        /* \"@openzeppelin/contracts/token/ERC20/ERC20.sol\":9277:9297  _beforeTokenTransfer */\n      tag_318\n        /* \"@openzeppelin/contracts/token/ERC20/ERC20.sol\":9277:9326  _beforeTokenTransfer(account, address(0), amount) */\n      jump\t// in\n    tag_358:\n        /* \"@openzeppelin/contracts/token/ERC20/ERC20.sol\":9337:9359  uint256 accountBalance */\n      0x00\n        /* \"@openzeppelin/contracts/token/ERC20/ERC20.sol\":9362:9371  _balances */\n      dup1\n        /* \"@openzeppelin/contracts/token/ERC20/ERC20.sol\":9362:9380  _balances[account] */\n      0x00\n        /* \"@openzeppelin/contracts/token/ERC20/ERC20.sol\":9372:9379  account */\n      dup5\n        /* \"@openzeppelin/contracts/token/ERC20/ERC20.sol\":9362:9380  _balances[account] */\n      0xffffffffffffffffffffffffffffffffffffffff\n      and\n      0xffffffffffffffffffffffffffffffffffffffff\n      and\n      dup2\n      mstore\n      0x20\n      add\n      swap1\n      dup2\n      mstore\n      0x20\n      add\n      0x00\n      keccak256\n      sload\n        /* \"@openzeppelin/contracts/token/ERC20/ERC20.sol\":9337:9380  uint256 accountBalance = _balances[account] */\n      swap1\n      pop\n        /* \"@openzeppelin/contracts/token/ERC20/ERC20.sol\":9416:9422  amount */\n      dup2\n        /* \"@openzeppelin/contracts/token/ERC20/ERC20.sol\":9398:9412  accountBalance */\n      dup2\n        /* \"@openzeppelin/contracts/token/ERC20/ERC20.sol\":9398:9422  accountBalance >= amount */\n      lt\n      iszero\n        /* \"@openzeppelin/contracts/token/ERC20/ERC20.sol\":9390:9461  require(accountBalance >= amount, \"ERC20: burn amount exceeds balance\") */\n      tag_359\n      jumpi\n      mload(0x40)\n      0x08c379a000000000000000000000000000000000000000000000000000000000\n      dup2\n      mstore\n      0x04\n      add\n      tag_360\n      swap1\n      tag_361\n      jump\t// in\n    tag_360:\n      mload(0x40)\n      dup1\n      swap2\n      sub\n      swap1\n      revert\n    tag_359:\n        /* \"@openzeppelin/contracts/token/ERC20/ERC20.sol\":9533:9539  amount */\n      dup2\n        /* \"@openzeppelin/contracts/token/ERC20/ERC20.sol\":9516:9530  accountBalance */\n      dup2\n        /* \"@openzeppelin/contracts/token/ERC20/ERC20.sol\":9516:9539  accountBalance - amount */\n      sub\n        /* \"@openzeppelin/contracts/token/ERC20/ERC20.sol\":9495:9504  _balances */\n      0x00\n        /* \"@openzeppelin/contracts/token/ERC20/ERC20.sol\":9495:9513  _balances[account] */\n      dup1\n        /* \"@openzeppelin/contracts/token/ERC20/ERC20.sol\":9505:9512  account */\n      dup6\n        /* \"@openzeppelin/contracts/token/ERC20/ERC20.sol\":9495:9513  _balances[account] */\n      0xffffffffffffffffffffffffffffffffffffffff\n      and\n      0xffffffffffffffffffffffffffffffffffffffff\n      and\n      dup2\n      mstore\n      0x20\n      add\n      swap1\n      dup2\n      mstore\n      0x20\n      add\n      0x00\n      keccak256\n        /* \"@openzeppelin/contracts/token/ERC20/ERC20.sol\":9495:9539  _balances[account] = accountBalance - amount */\n      dup2\n      swap1\n      sstore\n      pop\n        /* \"@openzeppelin/contracts/token/ERC20/ERC20.sol\":9575:9581  amount */\n      dup2\n        /* \"@openzeppelin/contracts/token/ERC20/ERC20.sol\":9559:9571  _totalSupply */\n      0x02\n      0x00\n        /* \"@openzeppelin/contracts/token/ERC20/ERC20.sol\":9559:9581  _totalSupply -= amount */\n      dup3\n      dup3\n      sload\n      tag_362\n      swap2\n      swap1\n      tag_228\n      jump\t// in\n    tag_362:\n      swap3\n      pop\n      pop\n      dup2\n      swap1\n      sstore\n      pop\n        /* \"@openzeppelin/contracts/token/ERC20/ERC20.sol\":9623:9624  0 */\n      0x00\n        /* \"@openzeppelin/contracts/token/ERC20/ERC20.sol\":9597:9634  Transfer(account, address(0), amount) */\n      0xffffffffffffffffffffffffffffffffffffffff\n      and\n        /* \"@openzeppelin/contracts/token/ERC20/ERC20.sol\":9606:9613  account */\n      dup4\n        /* \"@openzeppelin/contracts/token/ERC20/ERC20.sol\":9597:9634  Transfer(account, address(0), amount) */\n      0xffffffffffffffffffffffffffffffffffffffff\n      and\n      0xddf252ad1be2c89b69c2b068fc378daa952ba7f163c4a11628f55a4df523b3ef\n        /* \"@openzeppelin/contracts/token/ERC20/ERC20.sol\":9627:9633  amount */\n      dup5\n        /* \"@openzeppelin/contracts/token/ERC20/ERC20.sol\":9597:9634  Transfer(account, address(0), amount) */\n      mload(0x40)\n      tag_363\n      swap2\n      swap1\n      tag_60\n      jump\t// in\n    tag_363:\n      mload(0x40)\n      dup1\n      swap2\n      sub\n      swap1\n      log3\n        /* \"@openzeppelin/contracts/token/ERC20/ERC20.sol\":9645:9693  _afterTokenTransfer(account, address(0), amount) */\n      tag_364\n        /* \"@openzeppelin/contracts/token/ERC20/ERC20.sol\":9665:9672  account */\n      dup4\n        /* \"@openzeppelin/contracts/token/ERC20/ERC20.sol\":9682:9683  0 */\n      0x00\n        /* \"@openzeppelin/contracts/token/ERC20/ERC20.sol\":9686:9692  amount */\n      dup5\n        /* \"@openzeppelin/contracts/token/ERC20/ERC20.sol\":9645:9664  _afterTokenTransfer */\n      tag_325\n        /* \"@openzeppelin/contracts/token/ERC20/ERC20.sol\":9645:9693  _afterTokenTransfer(account, address(0), amount) */\n      jump\t// in\n    tag_364:\n        /* \"@openzeppelin/contracts/token/ERC20/ERC20.sol\":9189:9700  {... */\n      pop\n        /* \"@openzeppelin/contracts/token/ERC20/ERC20.sol\":9124:9700  function _burn(address account, uint256 amount) internal virtual {... */\n      pop\n      pop\n      jump\t// out\n        /* \"contracts/Claim.sol\":715:931  function removeUnclaimed(address _account, uint256 _amt) internal {... */\n    tag_292:\n        /* \"contracts/Claim.sol\":807:816  unclaimed */\n      0x06\n        /* \"contracts/Claim.sol\":807:826  unclaimed[_account] */\n      0x00\n        /* \"contracts/Claim.sol\":817:825  _account */\n      dup4\n        /* \"contracts/Claim.sol\":807:826  unclaimed[_account] */\n      0xffffffffffffffffffffffffffffffffffffffff\n      and\n      0xffffffffffffffffffffffffffffffffffffffff\n      and\n      dup2\n      mstore\n      0x20\n      add\n      swap1\n      dup2\n      mstore\n      0x20\n      add\n      0x00\n      keccak256\n      sload\n        /* \"contracts/Claim.sol\":799:803  _amt */\n      dup2\n        /* \"contracts/Claim.sol\":799:826  _amt <= unclaimed[_account] */\n      gt\n      iszero\n        /* \"contracts/Claim.sol\":791:887  require(_amt <= unclaimed[_account], \"Amount to remove cannot be greater than unclaimed amount\") */\n      tag_366\n      jumpi\n      mload(0x40)\n      0x08c379a000000000000000000000000000000000000000000000000000000000\n      dup2\n      mstore\n      0x04\n      add\n      tag_367\n      swap1\n      tag_368\n      jump\t// in\n    tag_367:\n      mload(0x40)\n      dup1\n      swap2\n      sub\n      swap1\n      revert\n    tag_366:\n        /* \"contracts/Claim.sol\":920:924  _amt */\n      dup1\n        /* \"contracts/Claim.sol\":897:906  unclaimed */\n      0x06\n        /* \"contracts/Claim.sol\":897:916  unclaimed[_account] */\n      0x00\n        /* \"contracts/Claim.sol\":907:915  _account */\n      dup5\n        /* \"contracts/Claim.sol\":897:916  unclaimed[_account] */\n      0xffffffffffffffffffffffffffffffffffffffff\n      and\n      0xffffffffffffffffffffffffffffffffffffffff\n      and\n      dup2\n      mstore\n      0x20\n      add\n      swap1\n      dup2\n      mstore\n      0x20\n      add\n      0x00\n      keccak256\n      0x00\n        /* \"contracts/Claim.sol\":897:924  unclaimed[_account] -= _amt */\n      dup3\n      dup3\n      sload\n      tag_369\n      swap2\n      swap1\n      tag_228\n      jump\t// in\n    tag_369:\n      swap3\n      pop\n      pop\n      dup2\n      swap1\n      sstore\n      pop\n        /* \"contracts/Claim.sol\":715:931  function removeUnclaimed(address _account, uint256 _amt) internal {... */\n      pop\n      pop\n      jump\t// out\n        /* \"@openzeppelin/contracts/token/ERC20/ERC20.sol\":11795:11916  function _beforeTokenTransfer(... */\n    tag_318:\n      pop\n      pop\n      pop\n      jump\t// out\n        /* \"@openzeppelin/contracts/token/ERC20/ERC20.sol\":12504:12624  function _afterTokenTransfer(... */\n    tag_325:\n      pop\n      pop\n      pop\n      jump\t// out\n        /* \"@openzeppelin/contracts/utils/Strings.sol\":1588:2029  function toHexString(uint256 value, uint256 length) internal pure returns (string memory) {... */\n    tag_330:\n        /* \"@openzeppelin/contracts/utils/Strings.sol\":1663:1676  string memory */\n      0x60\n        /* \"@openzeppelin/contracts/utils/Strings.sol\":1688:1707  bytes memory buffer */\n      0x00\n        /* \"@openzeppelin/contracts/utils/Strings.sol\":1733:1734  2 */\n      0x02\n        /* \"@openzeppelin/contracts/utils/Strings.sol\":1724:1730  length */\n      dup4\n        /* \"@openzeppelin/contracts/utils/Strings.sol\":1720:1721  2 */\n      0x02\n        /* \"@openzeppelin/contracts/utils/Strings.sol\":1720:1730  2 * length */\n      tag_373\n      swap2\n      swap1\n      tag_253\n      jump\t// in\n    tag_373:\n        /* \"@openzeppelin/contracts/utils/Strings.sol\":1720:1734  2 * length + 2 */\n      tag_374\n      swap2\n      swap1\n      tag_222\n      jump\t// in\n    tag_374:\n        /* \"@openzeppelin/contracts/utils/Strings.sol\":1710:1735  new bytes(2 * length + 2) */\n      0xffffffffffffffff\n      dup2\n      gt\n      iszero\n      tag_375\n      jumpi\n      tag_376\n      tag_377\n      jump\t// in\n    tag_376:\n    tag_375:\n      mload(0x40)\n      swap1\n      dup1\n      dup3\n      mstore\n      dup1\n      0x1f\n      add\n      not(0x1f)\n      and\n      0x20\n      add\n      dup3\n      add\n      0x40\n      mstore\n      dup1\n      iszero\n      tag_378\n      jumpi\n      dup2\n      0x20\n      add\n      0x01\n      dup3\n      mul\n      dup1\n      calldatasize\n      dup4\n      calldatacopy\n      dup1\n      dup3\n      add\n      swap2\n      pop\n      pop\n      swap1\n      pop\n    tag_378:\n      pop\n        /* \"@openzeppelin/contracts/utils/Strings.sol\":1688:1735  bytes memory buffer = new bytes(2 * length + 2) */\n      swap1\n      pop\n        /* \"@openzeppelin/contracts/utils/Strings.sol\":1745:1760  buffer[0] = \"0\" */\n      0x3000000000000000000000000000000000000000000000000000000000000000\n        /* \"@openzeppelin/contracts/utils/Strings.sol\":1745:1751  buffer */\n      dup2\n        /* \"@openzeppelin/contracts/utils/Strings.sol\":1752:1753  0 */\n      0x00\n        /* \"@openzeppelin/contracts/utils/Strings.sol\":1745:1754  buffer[0] */\n      dup2\n      mload\n      dup2\n      lt\n      tag_379\n      jumpi\n      tag_380\n      tag_381\n      jump\t// in\n    tag_380:\n    tag_379:\n      0x20\n      add\n      add\n        /* \"@openzeppelin/contracts/utils/Strings.sol\":1745:1760  buffer[0] = \"0\" */\n      swap1\n      not(0xffffffffffffffffffffffffffffffffffffffffffffffffffffffffffffff)\n      and\n      swap1\n      dup2\n      0x00\n      byte\n      swap1\n      mstore8\n      pop\n        /* \"@openzeppelin/contracts/utils/Strings.sol\":1770:1785  buffer[1] = \"x\" */\n      0x7800000000000000000000000000000000000000000000000000000000000000\n        /* \"@openzeppelin/contracts/utils/Strings.sol\":1770:1776  buffer */\n      dup2\n        /* \"@openzeppelin/contracts/utils/Strings.sol\":1777:1778  1 */\n      0x01\n        /* \"@openzeppelin/contracts/utils/Strings.sol\":1770:1779  buffer[1] */\n      dup2\n      mload\n      dup2\n      lt\n      tag_382\n      jumpi\n      tag_383\n      tag_381\n      jump\t// in\n    tag_383:\n    tag_382:\n      0x20\n      add\n      add\n        /* \"@openzeppelin/contracts/utils/Strings.sol\":1770:1785  buffer[1] = \"x\" */\n      swap1\n      not(0xffffffffffffffffffffffffffffffffffffffffffffffffffffffffffffff)\n      and\n      swap1\n      dup2\n      0x00\n      byte\n      swap1\n      mstore8\n      pop\n        /* \"@openzeppelin/contracts/utils/Strings.sol\":1800:1809  uint256 i */\n      0x00\n        /* \"@openzeppelin/contracts/utils/Strings.sol\":1825:1826  1 */\n      0x01\n        /* \"@openzeppelin/contracts/utils/Strings.sol\":1816:1822  length */\n      dup5\n        /* \"@openzeppelin/contracts/utils/Strings.sol\":1812:1813  2 */\n      0x02\n        /* \"@openzeppelin/contracts/utils/Strings.sol\":1812:1822  2 * length */\n      tag_387\n      swap2\n      swap1\n      tag_253\n      jump\t// in\n    tag_387:\n        /* \"@openzeppelin/contracts/utils/Strings.sol\":1812:1826  2 * length + 1 */\n      tag_388\n      swap2\n      swap1\n      tag_222\n      jump\t// in\n    tag_388:\n        /* \"@openzeppelin/contracts/utils/Strings.sol\":1800:1826  uint256 i = 2 * length + 1 */\n      swap1\n      pop\n        /* \"@openzeppelin/contracts/utils/Strings.sol\":1795:1927  for (uint256 i = 2 * length + 1; i > 1; --i) {... */\n    tag_384:\n        /* \"@openzeppelin/contracts/utils/Strings.sol\":1832:1833  1 */\n      0x01\n        /* \"@openzeppelin/contracts/utils/Strings.sol\":1828:1829  i */\n      dup2\n        /* \"@openzeppelin/contracts/utils/Strings.sol\":1828:1833  i > 1 */\n      gt\n        /* \"@openzeppelin/contracts/utils/Strings.sol\":1795:1927  for (uint256 i = 2 * length + 1; i > 1; --i) {... */\n      iszero\n      tag_385\n      jumpi\n        /* \"@openzeppelin/contracts/utils/Strings.sol\":1866:1878  _HEX_SYMBOLS */\n      0x3031323334353637383961626364656600000000000000000000000000000000\n        /* \"@openzeppelin/contracts/utils/Strings.sol\":1887:1890  0xf */\n      0x0f\n        /* \"@openzeppelin/contracts/utils/Strings.sol\":1879:1884  value */\n      dup7\n        /* \"@openzeppelin/contracts/utils/Strings.sol\":1879:1890  value & 0xf */\n      and\n        /* \"@openzeppelin/contracts/utils/Strings.sol\":1866:1891  _HEX_SYMBOLS[value & 0xf] */\n      0x10\n      dup2\n      lt\n      tag_389\n      jumpi\n      tag_390\n      tag_381\n      jump\t// in\n    tag_390:\n    tag_389:\n      byte\n      0xf8\n      shl\n        /* \"@openzeppelin/contracts/utils/Strings.sol\":1854:1860  buffer */\n      dup3\n        /* \"@openzeppelin/contracts/utils/Strings.sol\":1861:1862  i */\n      dup3\n        /* \"@openzeppelin/contracts/utils/Strings.sol\":1854:1863  buffer[i] */\n      dup2\n      mload\n      dup2\n      lt\n      tag_391\n      jumpi\n      tag_392\n      tag_381\n      jump\t// in\n    tag_392:\n    tag_391:\n      0x20\n      add\n      add\n        /* \"@openzeppelin/contracts/utils/Strings.sol\":1854:1891  buffer[i] = _HEX_SYMBOLS[value & 0xf] */\n      swap1\n      not(0xffffffffffffffffffffffffffffffffffffffffffffffffffffffffffffff)\n      and\n      swap1\n      dup2\n      0x00\n      byte\n      swap1\n      mstore8\n      pop\n        /* \"@openzeppelin/contracts/utils/Strings.sol\":1915:1916  4 */\n      0x04\n        /* \"@openzeppelin/contracts/utils/Strings.sol\":1905:1916  value >>= 4 */\n      dup6\n      swap1\n      shr\n      swap5\n      pop\n        /* \"@openzeppelin/contracts/utils/Strings.sol\":1835:1838  --i */\n      dup1\n      tag_393\n      swap1\n      tag_394\n      jump\t// in\n    tag_393:\n      swap1\n      pop\n        /* \"@openzeppelin/contracts/utils/Strings.sol\":1795:1927  for (uint256 i = 2 * length + 1; i > 1; --i) {... */\n      jump(tag_384)\n    tag_385:\n      pop\n        /* \"@openzeppelin/contracts/utils/Strings.sol\":1953:1954  0 */\n      0x00\n        /* \"@openzeppelin/contracts/utils/Strings.sol\":1944:1949  value */\n      dup5\n        /* \"@openzeppelin/contracts/utils/Strings.sol\":1944:1954  value == 0 */\n      eq\n        /* \"@openzeppelin/contracts/utils/Strings.sol\":1936:1991  require(value == 0, \"Strings: hex length insufficient\") */\n      tag_395\n      jumpi\n      mload(0x40)\n      0x08c379a000000000000000000000000000000000000000000000000000000000\n      dup2\n      mstore\n      0x04\n      add\n      tag_396\n      swap1\n      tag_397\n      jump\t// in\n    tag_396:\n      mload(0x40)\n      dup1\n      swap2\n      sub\n      swap1\n      revert\n    tag_395:\n        /* \"@openzeppelin/contracts/utils/Strings.sol\":2015:2021  buffer */\n      dup1\n        /* \"@openzeppelin/contracts/utils/Strings.sol\":2001:2022  return string(buffer) */\n      swap2\n      pop\n      pop\n        /* \"@openzeppelin/contracts/utils/Strings.sol\":1588:2029  function toHexString(uint256 value, uint256 length) internal pure returns (string memory) {... */\n      swap3\n      swap2\n      pop\n      pop\n      jump\t// out\n        /* \"#utility.yul\":7:146   */\n    tag_399:\n        /* \"#utility.yul\":53:58   */\n      0x00\n        /* \"#utility.yul\":91:97   */\n      dup2\n        /* \"#utility.yul\":78:98   */\n      calldataload\n        /* \"#utility.yul\":69:98   */\n      swap1\n      pop\n        /* \"#utility.yul\":107:140   */\n      tag_401\n        /* \"#utility.yul\":134:139   */\n      dup2\n        /* \"#utility.yul\":107:140   */\n      tag_402\n      jump\t// in\n    tag_401:\n        /* \"#utility.yul\":7:146   */\n      swap3\n      swap2\n      pop\n      pop\n      jump\t// out\n        /* \"#utility.yul\":152:291   */\n    tag_403:\n        /* \"#utility.yul\":198:203   */\n      0x00\n        /* \"#utility.yul\":236:242   */\n      dup2\n        /* \"#utility.yul\":223:243   */\n      calldataload\n        /* \"#utility.yul\":214:243   */\n      swap1\n      pop\n        /* \"#utility.yul\":252:285   */\n      tag_405\n        /* \"#utility.yul\":279:284   */\n      dup2\n        /* \"#utility.yul\":252:285   */\n      tag_406\n      jump\t// in\n    tag_405:\n        /* \"#utility.yul\":152:291   */\n      swap3\n      swap2\n      pop\n      pop\n      jump\t// out\n        /* \"#utility.yul\":297:434   */\n    tag_407:\n        /* \"#utility.yul\":342:347   */\n      0x00\n        /* \"#utility.yul\":380:386   */\n      dup2\n        /* \"#utility.yul\":367:387   */\n      calldataload\n        /* \"#utility.yul\":358:387   */\n      swap1\n      pop\n        /* \"#utility.yul\":396:428   */\n      tag_409\n        /* \"#utility.yul\":422:427   */\n      dup2\n        /* \"#utility.yul\":396:428   */\n      tag_410\n      jump\t// in\n    tag_409:\n        /* \"#utility.yul\":297:434   */\n      swap3\n      swap2\n      pop\n      pop\n      jump\t// out\n        /* \"#utility.yul\":440:579   */\n    tag_411:\n        /* \"#utility.yul\":486:491   */\n      0x00\n        /* \"#utility.yul\":524:530   */\n      dup2\n        /* \"#utility.yul\":511:531   */\n      calldataload\n        /* \"#utility.yul\":502:531   */\n      swap1\n      pop\n        /* \"#utility.yul\":540:573   */\n      tag_413\n        /* \"#utility.yul\":567:572   */\n      dup2\n        /* \"#utility.yul\":540:573   */\n      tag_414\n      jump\t// in\n    tag_413:\n        /* \"#utility.yul\":440:579   */\n      swap3\n      swap2\n      pop\n      pop\n      jump\t// out\n        /* \"#utility.yul\":585:914   */\n    tag_106:\n        /* \"#utility.yul\":644:650   */\n      0x00\n        /* \"#utility.yul\":693:695   */\n      0x20\n        /* \"#utility.yul\":681:690   */\n      dup3\n        /* \"#utility.yul\":672:679   */\n      dup5\n        /* \"#utility.yul\":668:691   */\n      sub\n        /* \"#utility.yul\":664:696   */\n      slt\n        /* \"#utility.yul\":661:780   */\n      iszero\n      tag_416\n      jumpi\n        /* \"#utility.yul\":699:778   */\n      tag_417\n      tag_418\n      jump\t// in\n    tag_417:\n        /* \"#utility.yul\":661:780   */\n    tag_416:\n        /* \"#utility.yul\":819:820   */\n      0x00\n        /* \"#utility.yul\":844:897   */\n      tag_419\n        /* \"#utility.yul\":889:896   */\n      dup5\n        /* \"#utility.yul\":880:886   */\n      dup3\n        /* \"#utility.yul\":869:878   */\n      dup6\n        /* \"#utility.yul\":865:887   */\n      add\n        /* \"#utility.yul\":844:897   */\n      tag_399\n      jump\t// in\n    tag_419:\n        /* \"#utility.yul\":834:897   */\n      swap2\n      pop\n        /* \"#utility.yul\":790:907   */\n      pop\n        /* \"#utility.yul\":585:914   */\n      swap3\n      swap2\n      pop\n      pop\n      jump\t// out\n        /* \"#utility.yul\":920:1394   */\n    tag_171:\n        /* \"#utility.yul\":988:994   */\n      0x00\n        /* \"#utility.yul\":996:1002   */\n      dup1\n        /* \"#utility.yul\":1045:1047   */\n      0x40\n        /* \"#utility.yul\":1033:1042   */\n      dup4\n        /* \"#utility.yul\":1024:1031   */\n      dup6\n        /* \"#utility.yul\":1020:1043   */\n      sub\n        /* \"#utility.yul\":1016:1048   */\n      slt\n        /* \"#utility.yul\":1013:1132   */\n      iszero\n      tag_421\n      jumpi\n        /* \"#utility.yul\":1051:1130   */\n      tag_422\n      tag_418\n      jump\t// in\n    tag_422:\n        /* \"#utility.yul\":1013:1132   */\n    tag_421:\n        /* \"#utility.yul\":1171:1172   */\n      0x00\n        /* \"#utility.yul\":1196:1249   */\n      tag_423\n        /* \"#utility.yul\":1241:1248   */\n      dup6\n        /* \"#utility.yul\":1232:1238   */\n      dup3\n        /* \"#utility.yul\":1221:1230   */\n      dup7\n        /* \"#utility.yul\":1217:1239   */\n      add\n        /* \"#utility.yul\":1196:1249   */\n      tag_399\n      jump\t// in\n    tag_423:\n        /* \"#utility.yul\":1186:1249   */\n      swap3\n      pop\n        /* \"#utility.yul\":1142:1259   */\n      pop\n        /* \"#utility.yul\":1298:1300   */\n      0x20\n        /* \"#utility.yul\":1324:1377   */\n      tag_424\n        /* \"#utility.yul\":1369:1376   */\n      dup6\n        /* \"#utility.yul\":1360:1366   */\n      dup3\n        /* \"#utility.yul\":1349:1358   */\n      dup7\n        /* \"#utility.yul\":1345:1367   */\n      add\n        /* \"#utility.yul\":1324:1377   */\n      tag_399\n      jump\t// in\n    tag_424:\n        /* \"#utility.yul\":1314:1377   */\n      swap2\n      pop\n        /* \"#utility.yul\":1269:1387   */\n      pop\n        /* \"#utility.yul\":920:1394   */\n      swap3\n      pop\n      swap3\n      swap1\n      pop\n      jump\t// out\n        /* \"#utility.yul\":1400:2019   */\n    tag_68:\n        /* \"#utility.yul\":1477:1483   */\n      0x00\n        /* \"#utility.yul\":1485:1491   */\n      dup1\n        /* \"#utility.yul\":1493:1499   */\n      0x00\n        /* \"#utility.yul\":1542:1544   */\n      0x60\n        /* \"#utility.yul\":1530:1539   */\n      dup5\n        /* \"#utility.yul\":1521:1528   */\n      dup7\n        /* \"#utility.yul\":1517:1540   */\n      sub\n        /* \"#utility.yul\":1513:1545   */\n      slt\n        /* \"#utility.yul\":1510:1629   */\n      iszero\n      tag_426\n      jumpi\n        /* \"#utility.yul\":1548:1627   */\n      tag_427\n      tag_418\n      jump\t// in\n    tag_427:\n        /* \"#utility.yul\":1510:1629   */\n    tag_426:\n        /* \"#utility.yul\":1668:1669   */\n      0x00\n        /* \"#utility.yul\":1693:1746   */\n      tag_428\n        /* \"#utility.yul\":1738:1745   */\n      dup7\n        /* \"#utility.yul\":1729:1735   */\n      dup3\n        /* \"#utility.yul\":1718:1727   */\n      dup8\n        /* \"#utility.yul\":1714:1736   */\n      add\n        /* \"#utility.yul\":1693:1746   */\n      tag_399\n      jump\t// in\n    tag_428:\n        /* \"#utility.yul\":1683:1746   */\n      swap4\n      pop\n        /* \"#utility.yul\":1639:1756   */\n      pop\n        /* \"#utility.yul\":1795:1797   */\n      0x20\n        /* \"#utility.yul\":1821:1874   */\n      tag_429\n        /* \"#utility.yul\":1866:1873   */\n      dup7\n        /* \"#utility.yul\":1857:1863   */\n      dup3\n        /* \"#utility.yul\":1846:1855   */\n      dup8\n        /* \"#utility.yul\":1842:1864   */\n      add\n        /* \"#utility.yul\":1821:1874   */\n      tag_399\n      jump\t// in\n    tag_429:\n        /* \"#utility.yul\":1811:1874   */\n      swap3\n      pop\n        /* \"#utility.yul\":1766:1884   */\n      pop\n        /* \"#utility.yul\":1923:1925   */\n      0x40\n        /* \"#utility.yul\":1949:2002   */\n      tag_430\n        /* \"#utility.yul\":1994:2001   */\n      dup7\n        /* \"#utility.yul\":1985:1991   */\n      dup3\n        /* \"#utility.yul\":1974:1983   */\n      dup8\n        /* \"#utility.yul\":1970:1992   */\n      add\n        /* \"#utility.yul\":1949:2002   */\n      tag_411\n      jump\t// in\n    tag_430:\n        /* \"#utility.yul\":1939:2002   */\n      swap2\n      pop\n        /* \"#utility.yul\":1894:2012   */\n      pop\n        /* \"#utility.yul\":1400:2019   */\n      swap3\n      pop\n      swap3\n      pop\n      swap3\n      jump\t// out\n        /* \"#utility.yul\":2025:2499   */\n    tag_53:\n        /* \"#utility.yul\":2093:2099   */\n      0x00\n        /* \"#utility.yul\":2101:2107   */\n      dup1\n        /* \"#utility.yul\":2150:2152   */\n      0x40\n        /* \"#utility.yul\":2138:2147   */\n      dup4\n        /* \"#utility.yul\":2129:2136   */\n      dup6\n        /* \"#utility.yul\":2125:2148   */\n      sub\n        /* \"#utility.yul\":2121:2153   */\n      slt\n        /* \"#utility.yul\":2118:2237   */\n      iszero\n      tag_432\n      jumpi\n        /* \"#utility.yul\":2156:2235   */\n      tag_433\n      tag_418\n      jump\t// in\n    tag_433:\n        /* \"#utility.yul\":2118:2237   */\n    tag_432:\n        /* \"#utility.yul\":2276:2277   */\n      0x00\n        /* \"#utility.yul\":2301:2354   */\n      tag_434\n        /* \"#utility.yul\":2346:2353   */\n      dup6\n        /* \"#utility.yul\":2337:2343   */\n      dup3\n        /* \"#utility.yul\":2326:2335   */\n      dup7\n        /* \"#utility.yul\":2322:2344   */\n      add\n        /* \"#utility.yul\":2301:2354   */\n      tag_399\n      jump\t// in\n    tag_434:\n        /* \"#utility.yul\":2291:2354   */\n      swap3\n      pop\n        /* \"#utility.yul\":2247:2364   */\n      pop\n        /* \"#utility.yul\":2403:2405   */\n      0x20\n        /* \"#utility.yul\":2429:2482   */\n      tag_435\n        /* \"#utility.yul\":2474:2481   */\n      dup6\n        /* \"#utility.yul\":2465:2471   */\n      dup3\n        /* \"#utility.yul\":2454:2463   */\n      dup7\n        /* \"#utility.yul\":2450:2472   */\n      add\n        /* \"#utility.yul\":2429:2482   */\n      tag_411\n      jump\t// in\n    tag_435:\n        /* \"#utility.yul\":2419:2482   */\n      swap2\n      pop\n        /* \"#utility.yul\":2374:2492   */\n      pop\n        /* \"#utility.yul\":2025:2499   */\n      swap3\n      pop\n      swap3\n      swap1\n      pop\n      jump\t// out\n        /* \"#utility.yul\":2505:2834   */\n    tag_74:\n        /* \"#utility.yul\":2564:2570   */\n      0x00\n        /* \"#utility.yul\":2613:2615   */\n      0x20\n        /* \"#utility.yul\":2601:2610   */\n      dup3\n        /* \"#utility.yul\":2592:2599   */\n      dup5\n        /* \"#utility.yul\":2588:2611   */\n      sub\n        /* \"#utility.yul\":2584:2616   */\n      slt\n        /* \"#utility.yul\":2581:2700   */\n      iszero\n      tag_437\n      jumpi\n        /* \"#utility.yul\":2619:2698   */\n      tag_438\n      tag_418\n      jump\t// in\n    tag_438:\n        /* \"#utility.yul\":2581:2700   */\n    tag_437:\n        /* \"#utility.yul\":2739:2740   */\n      0x00\n        /* \"#utility.yul\":2764:2817   */\n      tag_439\n        /* \"#utility.yul\":2809:2816   */\n      dup5\n        /* \"#utility.yul\":2800:2806   */\n      dup3\n        /* \"#utility.yul\":2789:2798   */\n      dup6\n        /* \"#utility.yul\":2785:2807   */\n      add\n        /* \"#utility.yul\":2764:2817   */\n      tag_403\n      jump\t// in\n    tag_439:\n        /* \"#utility.yul\":2754:2817   */\n      swap2\n      pop\n        /* \"#utility.yul\":2710:2827   */\n      pop\n        /* \"#utility.yul\":2505:2834   */\n      swap3\n      swap2\n      pop\n      pop\n      jump\t// out\n        /* \"#utility.yul\":2840:3314   */\n    tag_85:\n        /* \"#utility.yul\":2908:2914   */\n      0x00\n        /* \"#utility.yul\":2916:2922   */\n      dup1\n        /* \"#utility.yul\":2965:2967   */\n      0x40\n        /* \"#utility.yul\":2953:2962   */\n      dup4\n        /* \"#utility.yul\":2944:2951   */\n      dup6\n        /* \"#utility.yul\":2940:2963   */\n      sub\n        /* \"#utility.yul\":2936:2968   */\n      slt\n        /* \"#utility.yul\":2933:3052   */\n      iszero\n      tag_441\n      jumpi\n        /* \"#utility.yul\":2971:3050   */\n      tag_442\n      tag_418\n      jump\t// in\n    tag_442:\n        /* \"#utility.yul\":2933:3052   */\n    tag_441:\n        /* \"#utility.yul\":3091:3092   */\n      0x00\n        /* \"#utility.yul\":3116:3169   */\n      tag_443\n        /* \"#utility.yul\":3161:3168   */\n      dup6\n        /* \"#utility.yul\":3152:3158   */\n      dup3\n        /* \"#utility.yul\":3141:3150   */\n      dup7\n        /* \"#utility.yul\":3137:3159   */\n      add\n        /* \"#utility.yul\":3116:3169   */\n      tag_403\n      jump\t// in\n    tag_443:\n        /* \"#utility.yul\":3106:3169   */\n      swap3\n      pop\n        /* \"#utility.yul\":3062:3179   */\n      pop\n        /* \"#utility.yul\":3218:3220   */\n      0x20\n        /* \"#utility.yul\":3244:3297   */\n      tag_444\n        /* \"#utility.yul\":3289:3296   */\n      dup6\n        /* \"#utility.yul\":3280:3286   */\n      dup3\n        /* \"#utility.yul\":3269:3278   */\n      dup7\n        /* \"#utility.yul\":3265:3287   */\n      add\n        /* \"#utility.yul\":3244:3297   */\n      tag_399\n      jump\t// in\n    tag_444:\n        /* \"#utility.yul\":3234:3297   */\n      swap2\n      pop\n        /* \"#utility.yul\":3189:3307   */\n      pop\n        /* \"#utility.yul\":2840:3314   */\n      swap3\n      pop\n      swap3\n      swap1\n      pop\n      jump\t// out\n        /* \"#utility.yul\":3320:3647   */\n    tag_41:\n        /* \"#utility.yul\":3378:3384   */\n      0x00\n        /* \"#utility.yul\":3427:3429   */\n      0x20\n        /* \"#utility.yul\":3415:3424   */\n      dup3\n        /* \"#utility.yul\":3406:3413   */\n      dup5\n        /* \"#utility.yul\":3402:3425   */\n      sub\n        /* \"#utility.yul\":3398:3430   */\n      slt\n        /* \"#utility.yul\":3395:3514   */\n      iszero\n      tag_446\n      jumpi\n        /* \"#utility.yul\":3433:3512   */\n      tag_447\n      tag_418\n      jump\t// in\n    tag_447:\n        /* \"#utility.yul\":3395:3514   */\n    tag_446:\n        /* \"#utility.yul\":3553:3554   */\n      0x00\n        /* \"#utility.yul\":3578:3630   */\n      tag_448\n        /* \"#utility.yul\":3622:3629   */\n      dup5\n        /* \"#utility.yul\":3613:3619   */\n      dup3\n        /* \"#utility.yul\":3602:3611   */\n      dup6\n        /* \"#utility.yul\":3598:3620   */\n      add\n        /* \"#utility.yul\":3578:3630   */\n      tag_407\n      jump\t// in\n    tag_448:\n        /* \"#utility.yul\":3568:3630   */\n      swap2\n      pop\n        /* \"#utility.yul\":3524:3640   */\n      pop\n        /* \"#utility.yul\":3320:3647   */\n      swap3\n      swap2\n      pop\n      pop\n      jump\t// out\n        /* \"#utility.yul\":3653:4127   */\n    tag_117:\n        /* \"#utility.yul\":3721:3727   */\n      0x00\n        /* \"#utility.yul\":3729:3735   */\n      dup1\n        /* \"#utility.yul\":3778:3780   */\n      0x40\n        /* \"#utility.yul\":3766:3775   */\n      dup4\n        /* \"#utility.yul\":3757:3764   */\n      dup6\n        /* \"#utility.yul\":3753:3776   */\n      sub\n        /* \"#utility.yul\":3749:3781   */\n      slt\n        /* \"#utility.yul\":3746:3865   */\n      iszero\n      tag_450\n      jumpi\n        /* \"#utility.yul\":3784:3863   */\n      tag_451\n      tag_418\n      jump\t// in\n    tag_451:\n        /* \"#utility.yul\":3746:3865   */\n    tag_450:\n        /* \"#utility.yul\":3904:3905   */\n      0x00\n        /* \"#utility.yul\":3929:3982   */\n      tag_452\n        /* \"#utility.yul\":3974:3981   */\n      dup6\n        /* \"#utility.yul\":3965:3971   */\n      dup3\n        /* \"#utility.yul\":3954:3963   */\n      dup7\n        /* \"#utility.yul\":3950:3972   */\n      add\n        /* \"#utility.yul\":3929:3982   */\n      tag_411\n      jump\t// in\n    tag_452:\n        /* \"#utility.yul\":3919:3982   */\n      swap3\n      pop\n        /* \"#utility.yul\":3875:3992   */\n      pop\n        /* \"#utility.yul\":4031:4033   */\n      0x20\n        /* \"#utility.yul\":4057:4110   */\n      tag_453\n        /* \"#utility.yul\":4102:4109   */\n      dup6\n        /* \"#utility.yul\":4093:4099   */\n      dup3\n        /* \"#utility.yul\":4082:4091   */\n      dup7\n        /* \"#utility.yul\":4078:4100   */\n      add\n        /* \"#utility.yul\":4057:4110   */\n      tag_411\n      jump\t// in\n    tag_453:\n        /* \"#utility.yul\":4047:4110   */\n      swap2\n      pop\n        /* \"#utility.yul\":4002:4120   */\n      pop\n        /* \"#utility.yul\":3653:4127   */\n      swap3\n      pop\n      swap3\n      swap1\n      pop\n      jump\t// out\n        /* \"#utility.yul\":4133:4242   */\n    tag_454:\n        /* \"#utility.yul\":4214:4235   */\n      tag_456\n        /* \"#utility.yul\":4229:4234   */\n      dup2\n        /* \"#utility.yul\":4214:4235   */\n      tag_457\n      jump\t// in\n    tag_456:\n        /* \"#utility.yul\":4209:4212   */\n      dup3\n        /* \"#utility.yul\":4202:4236   */\n      mstore\n        /* \"#utility.yul\":4133:4242   */\n      pop\n      pop\n      jump\t// out\n        /* \"#utility.yul\":4248:4366   */\n    tag_458:\n        /* \"#utility.yul\":4335:4359   */\n      tag_460\n        /* \"#utility.yul\":4353:4358   */\n      dup2\n        /* \"#utility.yul\":4335:4359   */\n      tag_461\n      jump\t// in\n    tag_460:\n        /* \"#utility.yul\":4330:4333   */\n      dup3\n        /* \"#utility.yul\":4323:4360   */\n      mstore\n        /* \"#utility.yul\":4248:4366   */\n      pop\n      pop\n      jump\t// out\n        /* \"#utility.yul\":4372:4736   */\n    tag_462:\n        /* \"#utility.yul\":4460:4463   */\n      0x00\n        /* \"#utility.yul\":4488:4527   */\n      tag_464\n        /* \"#utility.yul\":4521:4526   */\n      dup3\n        /* \"#utility.yul\":4488:4527   */\n      tag_465\n      jump\t// in\n    tag_464:\n        /* \"#utility.yul\":4543:4614   */\n      tag_466\n        /* \"#utility.yul\":4607:4613   */\n      dup2\n        /* \"#utility.yul\":4602:4605   */\n      dup6\n        /* \"#utility.yul\":4543:4614   */\n      tag_467\n      jump\t// in\n    tag_466:\n        /* \"#utility.yul\":4536:4614   */\n      swap4\n      pop\n        /* \"#utility.yul\":4623:4675   */\n      tag_468\n        /* \"#utility.yul\":4668:4674   */\n      dup2\n        /* \"#utility.yul\":4663:4666   */\n      dup6\n        /* \"#utility.yul\":4656:4660   */\n      0x20\n        /* \"#utility.yul\":4649:4654   */\n      dup7\n        /* \"#utility.yul\":4645:4661   */\n      add\n        /* \"#utility.yul\":4623:4675   */\n      tag_469\n      jump\t// in\n    tag_468:\n        /* \"#utility.yul\":4700:4729   */\n      tag_470\n        /* \"#utility.yul\":4722:4728   */\n      dup2\n        /* \"#utility.yul\":4700:4729   */\n      tag_471\n      jump\t// in\n    tag_470:\n        /* \"#utility.yul\":4695:4698   */\n      dup5\n        /* \"#utility.yul\":4691:4730   */\n      add\n        /* \"#utility.yul\":4684:4730   */\n      swap2\n      pop\n        /* \"#utility.yul\":4464:4736   */\n      pop\n        /* \"#utility.yul\":4372:4736   */\n      swap3\n      swap2\n      pop\n      pop\n      jump\t// out\n        /* \"#utility.yul\":4742:5119   */\n    tag_472:\n        /* \"#utility.yul\":4848:4851   */\n      0x00\n        /* \"#utility.yul\":4876:4915   */\n      tag_474\n        /* \"#utility.yul\":4909:4914   */\n      dup3\n        /* \"#utility.yul\":4876:4915   */\n      tag_465\n      jump\t// in\n    tag_474:\n        /* \"#utility.yul\":4931:5020   */\n      tag_475\n        /* \"#utility.yul\":5013:5019   */\n      dup2\n        /* \"#utility.yul\":5008:5011   */\n      dup6\n        /* \"#utility.yul\":4931:5020   */\n      tag_476\n      jump\t// in\n    tag_475:\n        /* \"#utility.yul\":4924:5020   */\n      swap4\n      pop\n        /* \"#utility.yul\":5029:5081   */\n      tag_477\n        /* \"#utility.yul\":5074:5080   */\n      dup2\n        /* \"#utility.yul\":5069:5072   */\n      dup6\n        /* \"#utility.yul\":5062:5066   */\n      0x20\n        /* \"#utility.yul\":5055:5060   */\n      dup7\n        /* \"#utility.yul\":5051:5067   */\n      add\n        /* \"#utility.yul\":5029:5081   */\n      tag_469\n      jump\t// in\n    tag_477:\n        /* \"#utility.yul\":5106:5112   */\n      dup1\n        /* \"#utility.yul\":5101:5104   */\n      dup5\n        /* \"#utility.yul\":5097:5113   */\n      add\n        /* \"#utility.yul\":5090:5113   */\n      swap2\n      pop\n        /* \"#utility.yul\":4852:5119   */\n      pop\n        /* \"#utility.yul\":4742:5119   */\n      swap3\n      swap2\n      pop\n      pop\n      jump\t// out\n        /* \"#utility.yul\":5125:5491   */\n    tag_478:\n        /* \"#utility.yul\":5267:5270   */\n      0x00\n        /* \"#utility.yul\":5288:5355   */\n      tag_480\n        /* \"#utility.yul\":5352:5354   */\n      0x20\n        /* \"#utility.yul\":5347:5350   */\n      dup4\n        /* \"#utility.yul\":5288:5355   */\n      tag_467\n      jump\t// in\n    tag_480:\n        /* \"#utility.yul\":5281:5355   */\n      swap2\n      pop\n        /* \"#utility.yul\":5364:5457   */\n      tag_481\n        /* \"#utility.yul\":5453:5456   */\n      dup3\n        /* \"#utility.yul\":5364:5457   */\n      tag_482\n      jump\t// in\n    tag_481:\n        /* \"#utility.yul\":5482:5484   */\n      0x20\n        /* \"#utility.yul\":5477:5480   */\n      dup3\n        /* \"#utility.yul\":5473:5485   */\n      add\n        /* \"#utility.yul\":5466:5485   */\n      swap1\n      pop\n        /* \"#utility.yul\":5125:5491   */\n      swap2\n      swap1\n      pop\n      jump\t// out\n        /* \"#utility.yul\":5497:5863   */\n    tag_483:\n        /* \"#utility.yul\":5639:5642   */\n      0x00\n        /* \"#utility.yul\":5660:5727   */\n      tag_485\n        /* \"#utility.yul\":5724:5726   */\n      0x23\n        /* \"#utility.yul\":5719:5722   */\n      dup4\n        /* \"#utility.yul\":5660:5727   */\n      tag_467\n      jump\t// in\n    tag_485:\n        /* \"#utility.yul\":5653:5727   */\n      swap2\n      pop\n        /* \"#utility.yul\":5736:5829   */\n      tag_486\n        /* \"#utility.yul\":5825:5828   */\n      dup3\n        /* \"#utility.yul\":5736:5829   */\n      tag_487\n      jump\t// in\n    tag_486:\n        /* \"#utility.yul\":5854:5856   */\n      0x40\n        /* \"#utility.yul\":5849:5852   */\n      dup3\n        /* \"#utility.yul\":5845:5857   */\n      add\n        /* \"#utility.yul\":5838:5857   */\n      swap1\n      pop\n        /* \"#utility.yul\":5497:5863   */\n      swap2\n      swap1\n      pop\n      jump\t// out\n        /* \"#utility.yul\":5869:6235   */\n    tag_488:\n        /* \"#utility.yul\":6011:6014   */\n      0x00\n        /* \"#utility.yul\":6032:6099   */\n      tag_490\n        /* \"#utility.yul\":6096:6098   */\n      0x38\n        /* \"#utility.yul\":6091:6094   */\n      dup4\n        /* \"#utility.yul\":6032:6099   */\n      tag_467\n      jump\t// in\n    tag_490:\n        /* \"#utility.yul\":6025:6099   */\n      swap2\n      pop\n        /* \"#utility.yul\":6108:6201   */\n      tag_491\n        /* \"#utility.yul\":6197:6200   */\n      dup3\n        /* \"#utility.yul\":6108:6201   */\n      tag_492\n      jump\t// in\n    tag_491:\n        /* \"#utility.yul\":6226:6228   */\n      0x40\n        /* \"#utility.yul\":6221:6224   */\n      dup3\n        /* \"#utility.yul\":6217:6229   */\n      add\n        /* \"#utility.yul\":6210:6229   */\n      swap1\n      pop\n        /* \"#utility.yul\":5869:6235   */\n      swap2\n      swap1\n      pop\n      jump\t// out\n        /* \"#utility.yul\":6241:6607   */\n    tag_493:\n        /* \"#utility.yul\":6383:6386   */\n      0x00\n        /* \"#utility.yul\":6404:6471   */\n      tag_495\n        /* \"#utility.yul\":6468:6470   */\n      0x22\n        /* \"#utility.yul\":6463:6466   */\n      dup4\n        /* \"#utility.yul\":6404:6471   */\n      tag_467\n      jump\t// in\n    tag_495:\n        /* \"#utility.yul\":6397:6471   */\n      swap2\n      pop\n        /* \"#utility.yul\":6480:6573   */\n      tag_496\n        /* \"#utility.yul\":6569:6572   */\n      dup3\n        /* \"#utility.yul\":6480:6573   */\n      tag_497\n      jump\t// in\n    tag_496:\n        /* \"#utility.yul\":6598:6600   */\n      0x40\n        /* \"#utility.yul\":6593:6596   */\n      dup3\n        /* \"#utility.yul\":6589:6601   */\n      add\n        /* \"#utility.yul\":6582:6601   */\n      swap1\n      pop\n        /* \"#utility.yul\":6241:6607   */\n      swap2\n      swap1\n      pop\n      jump\t// out\n        /* \"#utility.yul\":6613:6979   */\n    tag_498:\n        /* \"#utility.yul\":6755:6758   */\n      0x00\n        /* \"#utility.yul\":6776:6843   */\n      tag_500\n        /* \"#utility.yul\":6840:6842   */\n      0x22\n        /* \"#utility.yul\":6835:6838   */\n      dup4\n        /* \"#utility.yul\":6776:6843   */\n      tag_467\n      jump\t// in\n    tag_500:\n        /* \"#utility.yul\":6769:6843   */\n      swap2\n      pop\n        /* \"#utility.yul\":6852:6945   */\n      tag_501\n        /* \"#utility.yul\":6941:6944   */\n      dup3\n        /* \"#utility.yul\":6852:6945   */\n      tag_502\n      jump\t// in\n    tag_501:\n        /* \"#utility.yul\":6970:6972   */\n      0x40\n        /* \"#utility.yul\":6965:6968   */\n      dup3\n        /* \"#utility.yul\":6961:6973   */\n      add\n        /* \"#utility.yul\":6954:6973   */\n      swap1\n      pop\n        /* \"#utility.yul\":6613:6979   */\n      swap2\n      swap1\n      pop\n      jump\t// out\n        /* \"#utility.yul\":6985:7351   */\n    tag_503:\n        /* \"#utility.yul\":7127:7130   */\n      0x00\n        /* \"#utility.yul\":7148:7215   */\n      tag_505\n        /* \"#utility.yul\":7212:7214   */\n      0x22\n        /* \"#utility.yul\":7207:7210   */\n      dup4\n        /* \"#utility.yul\":7148:7215   */\n      tag_467\n      jump\t// in\n    tag_505:\n        /* \"#utility.yul\":7141:7215   */\n      swap2\n      pop\n        /* \"#utility.yul\":7224:7317   */\n      tag_506\n        /* \"#utility.yul\":7313:7316   */\n      dup3\n        /* \"#utility.yul\":7224:7317   */\n      tag_507\n      jump\t// in\n    tag_506:\n        /* \"#utility.yul\":7342:7344   */\n      0x40\n        /* \"#utility.yul\":7337:7340   */\n      dup3\n        /* \"#utility.yul\":7333:7345   */\n      add\n        /* \"#utility.yul\":7326:7345   */\n      swap1\n      pop\n        /* \"#utility.yul\":6985:7351   */\n      swap2\n      swap1\n      pop\n      jump\t// out\n        /* \"#utility.yul\":7357:7723   */\n    tag_508:\n        /* \"#utility.yul\":7499:7502   */\n      0x00\n        /* \"#utility.yul\":7520:7587   */\n      tag_510\n        /* \"#utility.yul\":7584:7586   */\n      0x1d\n        /* \"#utility.yul\":7579:7582   */\n      dup4\n        /* \"#utility.yul\":7520:7587   */\n      tag_467\n      jump\t// in\n    tag_510:\n        /* \"#utility.yul\":7513:7587   */\n      swap2\n      pop\n        /* \"#utility.yul\":7596:7689   */\n      tag_511\n        /* \"#utility.yul\":7685:7688   */\n      dup3\n        /* \"#utility.yul\":7596:7689   */\n      tag_512\n      jump\t// in\n    tag_511:\n        /* \"#utility.yul\":7714:7716   */\n      0x20\n        /* \"#utility.yul\":7709:7712   */\n      dup3\n        /* \"#utility.yul\":7705:7717   */\n      add\n        /* \"#utility.yul\":7698:7717   */\n      swap1\n      pop\n        /* \"#utility.yul\":7357:7723   */\n      swap2\n      swap1\n      pop\n      jump\t// out\n        /* \"#utility.yul\":7729:8095   */\n    tag_513:\n        /* \"#utility.yul\":7871:7874   */\n      0x00\n        /* \"#utility.yul\":7892:7959   */\n      tag_515\n        /* \"#utility.yul\":7956:7958   */\n      0x26\n        /* \"#utility.yul\":7951:7954   */\n      dup4\n        /* \"#utility.yul\":7892:7959   */\n      tag_467\n      jump\t// in\n    tag_515:\n        /* \"#utility.yul\":7885:7959   */\n      swap2\n      pop\n        /* \"#utility.yul\":7968:8061   */\n      tag_516\n        /* \"#utility.yul\":8057:8060   */\n      dup3\n        /* \"#utility.yul\":7968:8061   */\n      tag_517\n      jump\t// in\n    tag_516:\n        /* \"#utility.yul\":8086:8088   */\n      0x40\n        /* \"#utility.yul\":8081:8084   */\n      dup3\n        /* \"#utility.yul\":8077:8089   */\n      add\n        /* \"#utility.yul\":8070:8089   */\n      swap1\n      pop\n        /* \"#utility.yul\":7729:8095   */\n      swap2\n      swap1\n      pop\n      jump\t// out\n        /* \"#utility.yul\":8101:8467   */\n    tag_518:\n        /* \"#utility.yul\":8243:8246   */\n      0x00\n        /* \"#utility.yul\":8264:8331   */\n      tag_520\n        /* \"#utility.yul\":8328:8330   */\n      0x28\n        /* \"#utility.yul\":8323:8326   */\n      dup4\n        /* \"#utility.yul\":8264:8331   */\n      tag_467\n      jump\t// in\n    tag_520:\n        /* \"#utility.yul\":8257:8331   */\n      swap2\n      pop\n        /* \"#utility.yul\":8340:8433   */\n      tag_521\n        /* \"#utility.yul\":8429:8432   */\n      dup3\n        /* \"#utility.yul\":8340:8433   */\n      tag_522\n      jump\t// in\n    tag_521:\n        /* \"#utility.yul\":8458:8460   */\n      0x40\n        /* \"#utility.yul\":8453:8456   */\n      dup3\n        /* \"#utility.yul\":8449:8461   */\n      add\n        /* \"#utility.yul\":8442:8461   */\n      swap1\n      pop\n        /* \"#utility.yul\":8101:8467   */\n      swap2\n      swap1\n      pop\n      jump\t// out\n        /* \"#utility.yul\":8473:8839   */\n    tag_523:\n        /* \"#utility.yul\":8615:8618   */\n      0x00\n        /* \"#utility.yul\":8636:8703   */\n      tag_525\n        /* \"#utility.yul\":8700:8702   */\n      0x16\n        /* \"#utility.yul\":8695:8698   */\n      dup4\n        /* \"#utility.yul\":8636:8703   */\n      tag_467\n      jump\t// in\n    tag_525:\n        /* \"#utility.yul\":8629:8703   */\n      swap2\n      pop\n        /* \"#utility.yul\":8712:8805   */\n      tag_526\n        /* \"#utility.yul\":8801:8804   */\n      dup3\n        /* \"#utility.yul\":8712:8805   */\n      tag_527\n      jump\t// in\n    tag_526:\n        /* \"#utility.yul\":8830:8832   */\n      0x20\n        /* \"#utility.yul\":8825:8828   */\n      dup3\n        /* \"#utility.yul\":8821:8833   */\n      add\n        /* \"#utility.yul\":8814:8833   */\n      swap1\n      pop\n        /* \"#utility.yul\":8473:8839   */\n      swap2\n      swap1\n      pop\n      jump\t// out\n        /* \"#utility.yul\":8845:9211   */\n    tag_528:\n        /* \"#utility.yul\":8987:8990   */\n      0x00\n        /* \"#utility.yul\":9008:9075   */\n      tag_530\n        /* \"#utility.yul\":9072:9074   */\n      0x21\n        /* \"#utility.yul\":9067:9070   */\n      dup4\n        /* \"#utility.yul\":9008:9075   */\n      tag_467\n      jump\t// in\n    tag_530:\n        /* \"#utility.yul\":9001:9075   */\n      swap2\n      pop\n        /* \"#utility.yul\":9084:9177   */\n      tag_531\n        /* \"#utility.yul\":9173:9176   */\n      dup3\n        /* \"#utility.yul\":9084:9177   */\n      tag_532\n      jump\t// in\n    tag_531:\n        /* \"#utility.yul\":9202:9204   */\n      0x40\n        /* \"#utility.yul\":9197:9200   */\n      dup3\n        /* \"#utility.yul\":9193:9205   */\n      add\n        /* \"#utility.yul\":9186:9205   */\n      swap1\n      pop\n        /* \"#utility.yul\":8845:9211   */\n      swap2\n      swap1\n      pop\n      jump\t// out\n        /* \"#utility.yul\":9217:9583   */\n    tag_533:\n        /* \"#utility.yul\":9359:9362   */\n      0x00\n        /* \"#utility.yul\":9380:9447   */\n      tag_535\n        /* \"#utility.yul\":9444:9446   */\n      0x25\n        /* \"#utility.yul\":9439:9442   */\n      dup4\n        /* \"#utility.yul\":9380:9447   */\n      tag_467\n      jump\t// in\n    tag_535:\n        /* \"#utility.yul\":9373:9447   */\n      swap2\n      pop\n        /* \"#utility.yul\":9456:9549   */\n      tag_536\n        /* \"#utility.yul\":9545:9548   */\n      dup3\n        /* \"#utility.yul\":9456:9549   */\n      tag_537\n      jump\t// in\n    tag_536:\n        /* \"#utility.yul\":9574:9576   */\n      0x40\n        /* \"#utility.yul\":9569:9572   */\n      dup3\n        /* \"#utility.yul\":9565:9577   */\n      add\n        /* \"#utility.yul\":9558:9577   */\n      swap1\n      pop\n        /* \"#utility.yul\":9217:9583   */\n      swap2\n      swap1\n      pop\n      jump\t// out\n        /* \"#utility.yul\":9589:9955   */\n    tag_538:\n        /* \"#utility.yul\":9731:9734   */\n      0x00\n        /* \"#utility.yul\":9752:9819   */\n      tag_540\n        /* \"#utility.yul\":9816:9818   */\n      0x18\n        /* \"#utility.yul\":9811:9814   */\n      dup4\n        /* \"#utility.yul\":9752:9819   */\n      tag_467\n      jump\t// in\n    tag_540:\n        /* \"#utility.yul\":9745:9819   */\n      swap2\n      pop\n        /* \"#utility.yul\":9828:9921   */\n      tag_541\n        /* \"#utility.yul\":9917:9920   */\n      dup3\n        /* \"#utility.yul\":9828:9921   */\n      tag_542\n      jump\t// in\n    tag_541:\n        /* \"#utility.yul\":9946:9948   */\n      0x20\n        /* \"#utility.yul\":9941:9944   */\n      dup3\n        /* \"#utility.yul\":9937:9949   */\n      add\n        /* \"#utility.yul\":9930:9949   */\n      swap1\n      pop\n        /* \"#utility.yul\":9589:9955   */\n      swap2\n      swap1\n      pop\n      jump\t// out\n        /* \"#utility.yul\":9961:10327   */\n    tag_543:\n        /* \"#utility.yul\":10103:10106   */\n      0x00\n        /* \"#utility.yul\":10124:10191   */\n      tag_545\n        /* \"#utility.yul\":10188:10190   */\n      0x24\n        /* \"#utility.yul\":10183:10186   */\n      dup4\n        /* \"#utility.yul\":10124:10191   */\n      tag_467\n      jump\t// in\n    tag_545:\n        /* \"#utility.yul\":10117:10191   */\n      swap2\n      pop\n        /* \"#utility.yul\":10200:10293   */\n      tag_546\n        /* \"#utility.yul\":10289:10292   */\n      dup3\n        /* \"#utility.yul\":10200:10293   */\n      tag_547\n      jump\t// in\n    tag_546:\n        /* \"#utility.yul\":10318:10320   */\n      0x40\n        /* \"#utility.yul\":10313:10316   */\n      dup3\n        /* \"#utility.yul\":10309:10321   */\n      add\n        /* \"#utility.yul\":10302:10321   */\n      swap1\n      pop\n        /* \"#utility.yul\":9961:10327   */\n      swap2\n      swap1\n      pop\n      jump\t// out\n        /* \"#utility.yul\":10333:10699   */\n    tag_548:\n        /* \"#utility.yul\":10475:10478   */\n      0x00\n        /* \"#utility.yul\":10496:10563   */\n      tag_550\n        /* \"#utility.yul\":10560:10562   */\n      0x20\n        /* \"#utility.yul\":10555:10558   */\n      dup4\n        /* \"#utility.yul\":10496:10563   */\n      tag_467\n      jump\t// in\n    tag_550:\n        /* \"#utility.yul\":10489:10563   */\n      swap2\n      pop\n        /* \"#utility.yul\":10572:10665   */\n      tag_551\n        /* \"#utility.yul\":10661:10664   */\n      dup3\n        /* \"#utility.yul\":10572:10665   */\n      tag_552\n      jump\t// in\n    tag_551:\n        /* \"#utility.yul\":10690:10692   */\n      0x20\n        /* \"#utility.yul\":10685:10688   */\n      dup3\n        /* \"#utility.yul\":10681:10693   */\n      add\n        /* \"#utility.yul\":10674:10693   */\n      swap1\n      pop\n        /* \"#utility.yul\":10333:10699   */\n      swap2\n      swap1\n      pop\n      jump\t// out\n        /* \"#utility.yul\":10705:11107   */\n    tag_553:\n        /* \"#utility.yul\":10865:10868   */\n      0x00\n        /* \"#utility.yul\":10886:10971   */\n      tag_555\n        /* \"#utility.yul\":10968:10970   */\n      0x17\n        /* \"#utility.yul\":10963:10966   */\n      dup4\n        /* \"#utility.yul\":10886:10971   */\n      tag_476\n      jump\t// in\n    tag_555:\n        /* \"#utility.yul\":10879:10971   */\n      swap2\n      pop\n        /* \"#utility.yul\":10980:11073   */\n      tag_556\n        /* \"#utility.yul\":11069:11072   */\n      dup3\n        /* \"#utility.yul\":10980:11073   */\n      tag_557\n      jump\t// in\n    tag_556:\n        /* \"#utility.yul\":11098:11100   */\n      0x17\n        /* \"#utility.yul\":11093:11096   */\n      dup3\n        /* \"#utility.yul\":11089:11101   */\n      add\n        /* \"#utility.yul\":11082:11101   */\n      swap1\n      pop\n        /* \"#utility.yul\":10705:11107   */\n      swap2\n      swap1\n      pop\n      jump\t// out\n        /* \"#utility.yul\":11113:11479   */\n    tag_558:\n        /* \"#utility.yul\":11255:11258   */\n      0x00\n        /* \"#utility.yul\":11276:11343   */\n      tag_560\n        /* \"#utility.yul\":11340:11342   */\n      0x25\n        /* \"#utility.yul\":11335:11338   */\n      dup4\n        /* \"#utility.yul\":11276:11343   */\n      tag_467\n      jump\t// in\n    tag_560:\n        /* \"#utility.yul\":11269:11343   */\n      swap2\n      pop\n        /* \"#utility.yul\":11352:11445   */\n      tag_561\n        /* \"#utility.yul\":11441:11444   */\n      dup3\n        /* \"#utility.yul\":11352:11445   */\n      tag_562\n      jump\t// in\n    tag_561:\n        /* \"#utility.yul\":11470:11472   */\n      0x40\n        /* \"#utility.yul\":11465:11468   */\n      dup3\n        /* \"#utility.yul\":11461:11473   */\n      add\n        /* \"#utility.yul\":11454:11473   */\n      swap1\n      pop\n        /* \"#utility.yul\":11113:11479   */\n      swap2\n      swap1\n      pop\n      jump\t// out\n        /* \"#utility.yul\":11485:11887   */\n    tag_563:\n        /* \"#utility.yul\":11645:11648   */\n      0x00\n        /* \"#utility.yul\":11666:11751   */\n      tag_565\n        /* \"#utility.yul\":11748:11750   */\n      0x11\n        /* \"#utility.yul\":11743:11746   */\n      dup4\n        /* \"#utility.yul\":11666:11751   */\n      tag_476\n      jump\t// in\n    tag_565:\n        /* \"#utility.yul\":11659:11751   */\n      swap2\n      pop\n        /* \"#utility.yul\":11760:11853   */\n      tag_566\n        /* \"#utility.yul\":11849:11852   */\n      dup3\n        /* \"#utility.yul\":11760:11853   */\n      tag_567\n      jump\t// in\n    tag_566:\n        /* \"#utility.yul\":11878:11880   */\n      0x11\n        /* \"#utility.yul\":11873:11876   */\n      dup3\n        /* \"#utility.yul\":11869:11881   */\n      add\n        /* \"#utility.yul\":11862:11881   */\n      swap1\n      pop\n        /* \"#utility.yul\":11485:11887   */\n      swap2\n      swap1\n      pop\n      jump\t// out\n        /* \"#utility.yul\":11893:12259   */\n    tag_568:\n        /* \"#utility.yul\":12035:12038   */\n      0x00\n        /* \"#utility.yul\":12056:12123   */\n      tag_570\n        /* \"#utility.yul\":12120:12122   */\n      0x2f\n        /* \"#utility.yul\":12115:12118   */\n      dup4\n        /* \"#utility.yul\":12056:12123   */\n      tag_467\n      jump\t// in\n    tag_570:\n        /* \"#utility.yul\":12049:12123   */\n      swap2\n      pop\n        /* \"#utility.yul\":12132:12225   */\n      tag_571\n        /* \"#utility.yul\":12221:12224   */\n      dup3\n        /* \"#utility.yul\":12132:12225   */\n      tag_572\n      jump\t// in\n    tag_571:\n        /* \"#utility.yul\":12250:12252   */\n      0x40\n        /* \"#utility.yul\":12245:12248   */\n      dup3\n        /* \"#utility.yul\":12241:12253   */\n      add\n        /* \"#utility.yul\":12234:12253   */\n      swap1\n      pop\n        /* \"#utility.yul\":11893:12259   */\n      swap2\n      swap1\n      pop\n      jump\t// out\n        /* \"#utility.yul\":12265:12631   */\n    tag_573:\n        /* \"#utility.yul\":12407:12410   */\n      0x00\n        /* \"#utility.yul\":12428:12495   */\n      tag_575\n        /* \"#utility.yul\":12492:12494   */\n      0x1f\n        /* \"#utility.yul\":12487:12490   */\n      dup4\n        /* \"#utility.yul\":12428:12495   */\n      tag_467\n      jump\t// in\n    tag_575:\n        /* \"#utility.yul\":12421:12495   */\n      swap2\n      pop\n        /* \"#utility.yul\":12504:12597   */\n      tag_576\n        /* \"#utility.yul\":12593:12596   */\n      dup3\n        /* \"#utility.yul\":12504:12597   */\n      tag_577\n      jump\t// in\n    tag_576:\n        /* \"#utility.yul\":12622:12624   */\n      0x20\n        /* \"#utility.yul\":12617:12620   */\n      dup3\n        /* \"#utility.yul\":12613:12625   */\n      add\n        /* \"#utility.yul\":12606:12625   */\n      swap1\n      pop\n        /* \"#utility.yul\":12265:12631   */\n      swap2\n      swap1\n      pop\n      jump\t// out\n        /* \"#utility.yul\":12637:12755   */\n    tag_578:\n        /* \"#utility.yul\":12724:12748   */\n      tag_580\n        /* \"#utility.yul\":12742:12747   */\n      dup2\n        /* \"#utility.yul\":12724:12748   */\n      tag_581\n      jump\t// in\n    tag_580:\n        /* \"#utility.yul\":12719:12722   */\n      dup3\n        /* \"#utility.yul\":12712:12749   */\n      mstore\n        /* \"#utility.yul\":12637:12755   */\n      pop\n      pop\n      jump\t// out\n        /* \"#utility.yul\":12761:12873   */\n    tag_582:\n        /* \"#utility.yul\":12844:12866   */\n      tag_584\n        /* \"#utility.yul\":12860:12865   */\n      dup2\n        /* \"#utility.yul\":12844:12866   */\n      tag_585\n      jump\t// in\n    tag_584:\n        /* \"#utility.yul\":12839:12842   */\n      dup3\n        /* \"#utility.yul\":12832:12867   */\n      mstore\n        /* \"#utility.yul\":12761:12873   */\n      pop\n      pop\n      jump\t// out\n        /* \"#utility.yul\":12879:13846   */\n    tag_333:\n        /* \"#utility.yul\":13261:13264   */\n      0x00\n        /* \"#utility.yul\":13283:13431   */\n      tag_587\n        /* \"#utility.yul\":13427:13430   */\n      dup3\n        /* \"#utility.yul\":13283:13431   */\n      tag_553\n      jump\t// in\n    tag_587:\n        /* \"#utility.yul\":13276:13431   */\n      swap2\n      pop\n        /* \"#utility.yul\":13448:13543   */\n      tag_588\n        /* \"#utility.yul\":13539:13542   */\n      dup3\n        /* \"#utility.yul\":13530:13536   */\n      dup6\n        /* \"#utility.yul\":13448:13543   */\n      tag_472\n      jump\t// in\n    tag_588:\n        /* \"#utility.yul\":13441:13543   */\n      swap2\n      pop\n        /* \"#utility.yul\":13560:13708   */\n      tag_589\n        /* \"#utility.yul\":13704:13707   */\n      dup3\n        /* \"#utility.yul\":13560:13708   */\n      tag_563\n      jump\t// in\n    tag_589:\n        /* \"#utility.yul\":13553:13708   */\n      swap2\n      pop\n        /* \"#utility.yul\":13725:13820   */\n      tag_590\n        /* \"#utility.yul\":13816:13819   */\n      dup3\n        /* \"#utility.yul\":13807:13813   */\n      dup5\n        /* \"#utility.yul\":13725:13820   */\n      tag_472\n      jump\t// in\n    tag_590:\n        /* \"#utility.yul\":13718:13820   */\n      swap2\n      pop\n        /* \"#utility.yul\":13837:13840   */\n      dup2\n        /* \"#utility.yul\":13830:13840   */\n      swap1\n      pop\n        /* \"#utility.yul\":12879:13846   */\n      swap4\n      swap3\n      pop\n      pop\n      pop\n      jump\t// out\n        /* \"#utility.yul\":13852:14062   */\n    tag_44:\n        /* \"#utility.yul\":13939:13943   */\n      0x00\n        /* \"#utility.yul\":13977:13979   */\n      0x20\n        /* \"#utility.yul\":13966:13975   */\n      dup3\n        /* \"#utility.yul\":13962:13980   */\n      add\n        /* \"#utility.yul\":13954:13980   */\n      swap1\n      pop\n        /* \"#utility.yul\":13990:14055   */\n      tag_592\n        /* \"#utility.yul\":14052:14053   */\n      0x00\n        /* \"#utility.yul\":14041:14050   */\n      dup4\n        /* \"#utility.yul\":14037:14054   */\n      add\n        /* \"#utility.yul\":14028:14034   */\n      dup5\n        /* \"#utility.yul\":13990:14055   */\n      tag_454\n      jump\t// in\n    tag_592:\n        /* \"#utility.yul\":13852:14062   */\n      swap3\n      swap2\n      pop\n      pop\n      jump\t// out\n        /* \"#utility.yul\":14068:14290   */\n    tag_77:\n        /* \"#utility.yul\":14161:14165   */\n      0x00\n        /* \"#utility.yul\":14199:14201   */\n      0x20\n        /* \"#utility.yul\":14188:14197   */\n      dup3\n        /* \"#utility.yul\":14184:14202   */\n      add\n        /* \"#utility.yul\":14176:14202   */\n      swap1\n      pop\n        /* \"#utility.yul\":14212:14283   */\n      tag_594\n        /* \"#utility.yul\":14280:14281   */\n      0x00\n        /* \"#utility.yul\":14269:14278   */\n      dup4\n        /* \"#utility.yul\":14265:14282   */\n      add\n        /* \"#utility.yul\":14256:14262   */\n      dup5\n        /* \"#utility.yul\":14212:14283   */\n      tag_458\n      jump\t// in\n    tag_594:\n        /* \"#utility.yul\":14068:14290   */\n      swap3\n      swap2\n      pop\n      pop\n      jump\t// out\n        /* \"#utility.yul\":14296:14609   */\n    tag_49:\n        /* \"#utility.yul\":14409:14413   */\n      0x00\n        /* \"#utility.yul\":14447:14449   */\n      0x20\n        /* \"#utility.yul\":14436:14445   */\n      dup3\n        /* \"#utility.yul\":14432:14450   */\n      add\n        /* \"#utility.yul\":14424:14450   */\n      swap1\n      pop\n        /* \"#utility.yul\":14496:14505   */\n      dup2\n        /* \"#utility.yul\":14490:14494   */\n      dup2\n        /* \"#utility.yul\":14486:14506   */\n      sub\n        /* \"#utility.yul\":14482:14483   */\n      0x00\n        /* \"#utility.yul\":14471:14480   */\n      dup4\n        /* \"#utility.yul\":14467:14484   */\n      add\n        /* \"#utility.yul\":14460:14507   */\n      mstore\n        /* \"#utility.yul\":14524:14602   */\n      tag_596\n        /* \"#utility.yul\":14597:14601   */\n      dup2\n        /* \"#utility.yul\":14588:14594   */\n      dup5\n        /* \"#utility.yul\":14524:14602   */\n      tag_462\n      jump\t// in\n    tag_596:\n        /* \"#utility.yul\":14516:14602   */\n      swap1\n      pop\n        /* \"#utility.yul\":14296:14609   */\n      swap3\n      swap2\n      pop\n      pop\n      jump\t// out\n        /* \"#utility.yul\":14615:15034   */\n    tag_397:\n        /* \"#utility.yul\":14781:14785   */\n      0x00\n        /* \"#utility.yul\":14819:14821   */\n      0x20\n        /* \"#utility.yul\":14808:14817   */\n      dup3\n        /* \"#utility.yul\":14804:14822   */\n      add\n        /* \"#utility.yul\":14796:14822   */\n      swap1\n      pop\n        /* \"#utility.yul\":14868:14877   */\n      dup2\n        /* \"#utility.yul\":14862:14866   */\n      dup2\n        /* \"#utility.yul\":14858:14878   */\n      sub\n        /* \"#utility.yul\":14854:14855   */\n      0x00\n        /* \"#utility.yul\":14843:14852   */\n      dup4\n        /* \"#utility.yul\":14839:14856   */\n      add\n        /* \"#utility.yul\":14832:14879   */\n      mstore\n        /* \"#utility.yul\":14896:15027   */\n      tag_598\n        /* \"#utility.yul\":15022:15026   */\n      dup2\n        /* \"#utility.yul\":14896:15027   */\n      tag_478\n      jump\t// in\n    tag_598:\n        /* \"#utility.yul\":14888:15027   */\n      swap1\n      pop\n        /* \"#utility.yul\":14615:15034   */\n      swap2\n      swap1\n      pop\n      jump\t// out\n        /* \"#utility.yul\":15040:15459   */\n    tag_316:\n        /* \"#utility.yul\":15206:15210   */\n      0x00\n        /* \"#utility.yul\":15244:15246   */\n      0x20\n        /* \"#utility.yul\":15233:15242   */\n      dup3\n        /* \"#utility.yul\":15229:15247   */\n      add\n        /* \"#utility.yul\":15221:15247   */\n      swap1\n      pop\n        /* \"#utility.yul\":15293:15302   */\n      dup2\n        /* \"#utility.yul\":15287:15291   */\n      dup2\n        /* \"#utility.yul\":15283:15303   */\n      sub\n        /* \"#utility.yul\":15279:15280   */\n      0x00\n        /* \"#utility.yul\":15268:15277   */\n      dup4\n        /* \"#utility.yul\":15264:15281   */\n      add\n        /* \"#utility.yul\":15257:15304   */\n      mstore\n        /* \"#utility.yul\":15321:15452   */\n      tag_600\n        /* \"#utility.yul\":15447:15451   */\n      dup2\n        /* \"#utility.yul\":15321:15452   */\n      tag_483\n      jump\t// in\n    tag_600:\n        /* \"#utility.yul\":15313:15452   */\n      swap1\n      pop\n        /* \"#utility.yul\":15040:15459   */\n      swap2\n      swap1\n      pop\n      jump\t// out\n        /* \"#utility.yul\":15465:15884   */\n    tag_368:\n        /* \"#utility.yul\":15631:15635   */\n      0x00\n        /* \"#utility.yul\":15669:15671   */\n      0x20\n        /* \"#utility.yul\":15658:15667   */\n      dup3\n        /* \"#utility.yul\":15654:15672   */\n      add\n        /* \"#utility.yul\":15646:15672   */\n      swap1\n      pop\n        /* \"#utility.yul\":15718:15727   */\n      dup2\n        /* \"#utility.yul\":15712:15716   */\n      dup2\n        /* \"#utility.yul\":15708:15728   */\n      sub\n        /* \"#utility.yul\":15704:15705   */\n      0x00\n        /* \"#utility.yul\":15693:15702   */\n      dup4\n        /* \"#utility.yul\":15689:15706   */\n      add\n        /* \"#utility.yul\":15682:15729   */\n      mstore\n        /* \"#utility.yul\":15746:15877   */\n      tag_602\n        /* \"#utility.yul\":15872:15876   */\n      dup2\n        /* \"#utility.yul\":15746:15877   */\n      tag_488\n      jump\t// in\n    tag_602:\n        /* \"#utility.yul\":15738:15877   */\n      swap1\n      pop\n        /* \"#utility.yul\":15465:15884   */\n      swap2\n      swap1\n      pop\n      jump\t// out\n        /* \"#utility.yul\":15890:16309   */\n    tag_231:\n        /* \"#utility.yul\":16056:16060   */\n      0x00\n        /* \"#utility.yul\":16094:16096   */\n      0x20\n        /* \"#utility.yul\":16083:16092   */\n      dup3\n        /* \"#utility.yul\":16079:16097   */\n      add\n        /* \"#utility.yul\":16071:16097   */\n      swap1\n      pop\n        /* \"#utility.yul\":16143:16152   */\n      dup2\n        /* \"#utility.yul\":16137:16141   */\n      dup2\n        /* \"#utility.yul\":16133:16153   */\n      sub\n        /* \"#utility.yul\":16129:16130   */\n      0x00\n        /* \"#utility.yul\":16118:16127   */\n      dup4\n        /* \"#utility.yul\":16114:16131   */\n      add\n        /* \"#utility.yul\":16107:16154   */\n      mstore\n        /* \"#utility.yul\":16171:16302   */\n      tag_604\n        /* \"#utility.yul\":16297:16301   */\n      dup2\n        /* \"#utility.yul\":16171:16302   */\n      tag_493\n      jump\t// in\n    tag_604:\n        /* \"#utility.yul\":16163:16302   */\n      swap1\n      pop\n        /* \"#utility.yul\":15890:16309   */\n      swap2\n      swap1\n      pop\n      jump\t// out\n        /* \"#utility.yul\":16315:16734   */\n    tag_361:\n        /* \"#utility.yul\":16481:16485   */\n      0x00\n        /* \"#utility.yul\":16519:16521   */\n      0x20\n        /* \"#utility.yul\":16508:16517   */\n      dup3\n        /* \"#utility.yul\":16504:16522   */\n      add\n        /* \"#utility.yul\":16496:16522   */\n      swap1\n      pop\n        /* \"#utility.yul\":16568:16577   */\n      dup2\n        /* \"#utility.yul\":16562:16566   */\n      dup2\n        /* \"#utility.yul\":16558:16578   */\n      sub\n        /* \"#utility.yul\":16554:16555   */\n      0x00\n        /* \"#utility.yul\":16543:16552   */\n      dup4\n        /* \"#utility.yul\":16539:16556   */\n      add\n        /* \"#utility.yul\":16532:16579   */\n      mstore\n        /* \"#utility.yul\":16596:16727   */\n      tag_606\n        /* \"#utility.yul\":16722:16726   */\n      dup2\n        /* \"#utility.yul\":16596:16727   */\n      tag_498\n      jump\t// in\n    tag_606:\n        /* \"#utility.yul\":16588:16727   */\n      swap1\n      pop\n        /* \"#utility.yul\":16315:16734   */\n      swap2\n      swap1\n      pop\n      jump\t// out\n        /* \"#utility.yul\":16740:17159   */\n    tag_301:\n        /* \"#utility.yul\":16906:16910   */\n      0x00\n        /* \"#utility.yul\":16944:16946   */\n      0x20\n        /* \"#utility.yul\":16933:16942   */\n      dup3\n        /* \"#utility.yul\":16929:16947   */\n      add\n        /* \"#utility.yul\":16921:16947   */\n      swap1\n      pop\n        /* \"#utility.yul\":16993:17002   */\n      dup2\n        /* \"#utility.yul\":16987:16991   */\n      dup2\n        /* \"#utility.yul\":16983:17003   */\n      sub\n        /* \"#utility.yul\":16979:16980   */\n      0x00\n        /* \"#utility.yul\":16968:16977   */\n      dup4\n        /* \"#utility.yul\":16964:16981   */\n      add\n        /* \"#utility.yul\":16957:17004   */\n      mstore\n        /* \"#utility.yul\":17021:17152   */\n      tag_608\n        /* \"#utility.yul\":17147:17151   */\n      dup2\n        /* \"#utility.yul\":17021:17152   */\n      tag_503\n      jump\t// in\n    tag_608:\n        /* \"#utility.yul\":17013:17152   */\n      swap1\n      pop\n        /* \"#utility.yul\":16740:17159   */\n      swap2\n      swap1\n      pop\n      jump\t// out\n        /* \"#utility.yul\":17165:17584   */\n    tag_308:\n        /* \"#utility.yul\":17331:17335   */\n      0x00\n        /* \"#utility.yul\":17369:17371   */\n      0x20\n        /* \"#utility.yul\":17358:17367   */\n      dup3\n        /* \"#utility.yul\":17354:17372   */\n      add\n        /* \"#utility.yul\":17346:17372   */\n      swap1\n      pop\n        /* \"#utility.yul\":17418:17427   */\n      dup2\n        /* \"#utility.yul\":17412:17416   */\n      dup2\n        /* \"#utility.yul\":17408:17428   */\n      sub\n        /* \"#utility.yul\":17404:17405   */\n      0x00\n        /* \"#utility.yul\":17393:17402   */\n      dup4\n        /* \"#utility.yul\":17389:17406   */\n      add\n        /* \"#utility.yul\":17382:17429   */\n      mstore\n        /* \"#utility.yul\":17446:17577   */\n      tag_610\n        /* \"#utility.yul\":17572:17576   */\n      dup2\n        /* \"#utility.yul\":17446:17577   */\n      tag_508\n      jump\t// in\n    tag_610:\n        /* \"#utility.yul\":17438:17577   */\n      swap1\n      pop\n        /* \"#utility.yul\":17165:17584   */\n      swap2\n      swap1\n      pop\n      jump\t// out\n        /* \"#utility.yul\":17590:18009   */\n    tag_321:\n        /* \"#utility.yul\":17756:17760   */\n      0x00\n        /* \"#utility.yul\":17794:17796   */\n      0x20\n        /* \"#utility.yul\":17783:17792   */\n      dup3\n        /* \"#utility.yul\":17779:17797   */\n      add\n        /* \"#utility.yul\":17771:17797   */\n      swap1\n      pop\n        /* \"#utility.yul\":17843:17852   */\n      dup2\n        /* \"#utility.yul\":17837:17841   */\n      dup2\n        /* \"#utility.yul\":17833:17853   */\n      sub\n        /* \"#utility.yul\":17829:17830   */\n      0x00\n        /* \"#utility.yul\":17818:17827   */\n      dup4\n        /* \"#utility.yul\":17814:17831   */\n      add\n        /* \"#utility.yul\":17807:17854   */\n      mstore\n        /* \"#utility.yul\":17871:18002   */\n      tag_612\n        /* \"#utility.yul\":17997:18001   */\n      dup2\n        /* \"#utility.yul\":17871:18002   */\n      tag_513\n      jump\t// in\n    tag_612:\n        /* \"#utility.yul\":17863:18002   */\n      swap1\n      pop\n        /* \"#utility.yul\":17590:18009   */\n      swap2\n      swap1\n      pop\n      jump\t// out\n        /* \"#utility.yul\":18015:18434   */\n    tag_226:\n        /* \"#utility.yul\":18181:18185   */\n      0x00\n        /* \"#utility.yul\":18219:18221   */\n      0x20\n        /* \"#utility.yul\":18208:18217   */\n      dup3\n        /* \"#utility.yul\":18204:18222   */\n      add\n        /* \"#utility.yul\":18196:18222   */\n      swap1\n      pop\n        /* \"#utility.yul\":18268:18277   */\n      dup2\n        /* \"#utility.yul\":18262:18266   */\n      dup2\n        /* \"#utility.yul\":18258:18278   */\n      sub\n        /* \"#utility.yul\":18254:18255   */\n      0x00\n        /* \"#utility.yul\":18243:18252   */\n      dup4\n        /* \"#utility.yul\":18239:18256   */\n      add\n        /* \"#utility.yul\":18232:18279   */\n      mstore\n        /* \"#utility.yul\":18296:18427   */\n      tag_614\n        /* \"#utility.yul\":18422:18426   */\n      dup2\n        /* \"#utility.yul\":18296:18427   */\n      tag_518\n      jump\t// in\n    tag_614:\n        /* \"#utility.yul\":18288:18427   */\n      swap1\n      pop\n        /* \"#utility.yul\":18015:18434   */\n      swap2\n      swap1\n      pop\n      jump\t// out\n        /* \"#utility.yul\":18440:18859   */\n    tag_266:\n        /* \"#utility.yul\":18606:18610   */\n      0x00\n        /* \"#utility.yul\":18644:18646   */\n      0x20\n        /* \"#utility.yul\":18633:18642   */\n      dup3\n        /* \"#utility.yul\":18629:18647   */\n      add\n        /* \"#utility.yul\":18621:18647   */\n      swap1\n      pop\n        /* \"#utility.yul\":18693:18702   */\n      dup2\n        /* \"#utility.yul\":18687:18691   */\n      dup2\n        /* \"#utility.yul\":18683:18703   */\n      sub\n        /* \"#utility.yul\":18679:18680   */\n      0x00\n        /* \"#utility.yul\":18668:18677   */\n      dup4\n        /* \"#utility.yul\":18664:18681   */\n      add\n        /* \"#utility.yul\":18657:18704   */\n      mstore\n        /* \"#utility.yul\":18721:18852   */\n      tag_616\n        /* \"#utility.yul\":18847:18851   */\n      dup2\n        /* \"#utility.yul\":18721:18852   */\n      tag_523\n      jump\t// in\n    tag_616:\n        /* \"#utility.yul\":18713:18852   */\n      swap1\n      pop\n        /* \"#utility.yul\":18440:18859   */\n      swap2\n      swap1\n      pop\n      jump\t// out\n        /* \"#utility.yul\":18865:19284   */\n    tag_357:\n        /* \"#utility.yul\":19031:19035   */\n      0x00\n        /* \"#utility.yul\":19069:19071   */\n      0x20\n        /* \"#utility.yul\":19058:19067   */\n      dup3\n        /* \"#utility.yul\":19054:19072   */\n      add\n        /* \"#utility.yul\":19046:19072   */\n      swap1\n      pop\n        /* \"#utility.yul\":19118:19127   */\n      dup2\n        /* \"#utility.yul\":19112:19116   */\n      dup2\n        /* \"#utility.yul\":19108:19128   */\n      sub\n        /* \"#utility.yul\":19104:19105   */\n      0x00\n        /* \"#utility.yul\":19093:19102   */\n      dup4\n        /* \"#utility.yul\":19089:19106   */\n      add\n        /* \"#utility.yul\":19082:19129   */\n      mstore\n        /* \"#utility.yul\":19146:19277   */\n      tag_618\n        /* \"#utility.yul\":19272:19276   */\n      dup2\n        /* \"#utility.yul\":19146:19277   */\n      tag_528\n      jump\t// in\n    tag_618:\n        /* \"#utility.yul\":19138:19277   */\n      swap1\n      pop\n        /* \"#utility.yul\":18865:19284   */\n      swap2\n      swap1\n      pop\n      jump\t// out\n        /* \"#utility.yul\":19290:19709   */\n    tag_313:\n        /* \"#utility.yul\":19456:19460   */\n      0x00\n        /* \"#utility.yul\":19494:19496   */\n      0x20\n        /* \"#utility.yul\":19483:19492   */\n      dup3\n        /* \"#utility.yul\":19479:19497   */\n      add\n        /* \"#utility.yul\":19471:19497   */\n      swap1\n      pop\n        /* \"#utility.yul\":19543:19552   */\n      dup2\n        /* \"#utility.yul\":19537:19541   */\n      dup2\n        /* \"#utility.yul\":19533:19553   */\n      sub\n        /* \"#utility.yul\":19529:19530   */\n      0x00\n        /* \"#utility.yul\":19518:19527   */\n      dup4\n        /* \"#utility.yul\":19514:19531   */\n      add\n        /* \"#utility.yul\":19507:19554   */\n      mstore\n        /* \"#utility.yul\":19571:19702   */\n      tag_620\n        /* \"#utility.yul\":19697:19701   */\n      dup2\n        /* \"#utility.yul\":19571:19702   */\n      tag_533\n      jump\t// in\n    tag_620:\n        /* \"#utility.yul\":19563:19702   */\n      swap1\n      pop\n        /* \"#utility.yul\":19290:19709   */\n      swap2\n      swap1\n      pop\n      jump\t// out\n        /* \"#utility.yul\":19715:20134   */\n    tag_245:\n        /* \"#utility.yul\":19881:19885   */\n      0x00\n        /* \"#utility.yul\":19919:19921   */\n      0x20\n        /* \"#utility.yul\":19908:19917   */\n      dup3\n        /* \"#utility.yul\":19904:19922   */\n      add\n        /* \"#utility.yul\":19896:19922   */\n      swap1\n      pop\n        /* \"#utility.yul\":19968:19977   */\n      dup2\n        /* \"#utility.yul\":19962:19966   */\n      dup2\n        /* \"#utility.yul\":19958:19978   */\n      sub\n        /* \"#utility.yul\":19954:19955   */\n      0x00\n        /* \"#utility.yul\":19943:19952   */\n      dup4\n        /* \"#utility.yul\":19939:19956   */\n      add\n        /* \"#utility.yul\":19932:19979   */\n      mstore\n        /* \"#utility.yul\":19996:20127   */\n      tag_622\n        /* \"#utility.yul\":20122:20126   */\n      dup2\n        /* \"#utility.yul\":19996:20127   */\n      tag_538\n      jump\t// in\n    tag_622:\n        /* \"#utility.yul\":19988:20127   */\n      swap1\n      pop\n        /* \"#utility.yul\":19715:20134   */\n      swap2\n      swap1\n      pop\n      jump\t// out\n        /* \"#utility.yul\":20140:20559   */\n    tag_298:\n        /* \"#utility.yul\":20306:20310   */\n      0x00\n        /* \"#utility.yul\":20344:20346   */\n      0x20\n        /* \"#utility.yul\":20333:20342   */\n      dup3\n        /* \"#utility.yul\":20329:20347   */\n      add\n        /* \"#utility.yul\":20321:20347   */\n      swap1\n      pop\n        /* \"#utility.yul\":20393:20402   */\n      dup2\n        /* \"#utility.yul\":20387:20391   */\n      dup2\n        /* \"#utility.yul\":20383:20403   */\n      sub\n        /* \"#utility.yul\":20379:20380   */\n      0x00\n        /* \"#utility.yul\":20368:20377   */\n      dup4\n        /* \"#utility.yul\":20364:20381   */\n      add\n        /* \"#utility.yul\":20357:20404   */\n      mstore\n        /* \"#utility.yul\":20421:20552   */\n      tag_624\n        /* \"#utility.yul\":20547:20551   */\n      dup2\n        /* \"#utility.yul\":20421:20552   */\n      tag_543\n      jump\t// in\n    tag_624:\n        /* \"#utility.yul\":20413:20552   */\n      swap1\n      pop\n        /* \"#utility.yul\":20140:20559   */\n      swap2\n      swap1\n      pop\n      jump\t// out\n        /* \"#utility.yul\":20565:20984   */\n    tag_250:\n        /* \"#utility.yul\":20731:20735   */\n      0x00\n        /* \"#utility.yul\":20769:20771   */\n      0x20\n        /* \"#utility.yul\":20758:20767   */\n      dup3\n        /* \"#utility.yul\":20754:20772   */\n      add\n        /* \"#utility.yul\":20746:20772   */\n      swap1\n      pop\n        /* \"#utility.yul\":20818:20827   */\n      dup2\n        /* \"#utility.yul\":20812:20816   */\n      dup2\n        /* \"#utility.yul\":20808:20828   */\n      sub\n        /* \"#utility.yul\":20804:20805   */\n      0x00\n        /* \"#utility.yul\":20793:20802   */\n      dup4\n        /* \"#utility.yul\":20789:20806   */\n      add\n        /* \"#utility.yul\":20782:20829   */\n      mstore\n        /* \"#utility.yul\":20846:20977   */\n      tag_626\n        /* \"#utility.yul\":20972:20976   */\n      dup2\n        /* \"#utility.yul\":20846:20977   */\n      tag_548\n      jump\t// in\n    tag_626:\n        /* \"#utility.yul\":20838:20977   */\n      swap1\n      pop\n        /* \"#utility.yul\":20565:20984   */\n      swap2\n      swap1\n      pop\n      jump\t// out\n        /* \"#utility.yul\":20990:21409   */\n    tag_274:\n        /* \"#utility.yul\":21156:21160   */\n      0x00\n        /* \"#utility.yul\":21194:21196   */\n      0x20\n        /* \"#utility.yul\":21183:21192   */\n      dup3\n        /* \"#utility.yul\":21179:21197   */\n      add\n        /* \"#utility.yul\":21171:21197   */\n      swap1\n      pop\n        /* \"#utility.yul\":21243:21252   */\n      dup2\n        /* \"#utility.yul\":21237:21241   */\n      dup2\n        /* \"#utility.yul\":21233:21253   */\n      sub\n        /* \"#utility.yul\":21229:21230   */\n      0x00\n        /* \"#utility.yul\":21218:21227   */\n      dup4\n        /* \"#utility.yul\":21214:21231   */\n      add\n        /* \"#utility.yul\":21207:21254   */\n      mstore\n        /* \"#utility.yul\":21271:21402   */\n      tag_628\n        /* \"#utility.yul\":21397:21401   */\n      dup2\n        /* \"#utility.yul\":21271:21402   */\n      tag_558\n      jump\t// in\n    tag_628:\n        /* \"#utility.yul\":21263:21402   */\n      swap1\n      pop\n        /* \"#utility.yul\":20990:21409   */\n      swap2\n      swap1\n      pop\n      jump\t// out\n        /* \"#utility.yul\":21415:21834   */\n    tag_215:\n        /* \"#utility.yul\":21581:21585   */\n      0x00\n        /* \"#utility.yul\":21619:21621   */\n      0x20\n        /* \"#utility.yul\":21608:21617   */\n      dup3\n        /* \"#utility.yul\":21604:21622   */\n      add\n        /* \"#utility.yul\":21596:21622   */\n      swap1\n      pop\n        /* \"#utility.yul\":21668:21677   */\n      dup2\n        /* \"#utility.yul\":21662:21666   */\n      dup2\n        /* \"#utility.yul\":21658:21678   */\n      sub\n        /* \"#utility.yul\":21654:21655   */\n      0x00\n        /* \"#utility.yul\":21643:21652   */\n      dup4\n        /* \"#utility.yul\":21639:21656   */\n      add\n        /* \"#utility.yul\":21632:21679   */\n      mstore\n        /* \"#utility.yul\":21696:21827   */\n      tag_630\n        /* \"#utility.yul\":21822:21826   */\n      dup2\n        /* \"#utility.yul\":21696:21827   */\n      tag_568\n      jump\t// in\n    tag_630:\n        /* \"#utility.yul\":21688:21827   */\n      swap1\n      pop\n        /* \"#utility.yul\":21415:21834   */\n      swap2\n      swap1\n      pop\n      jump\t// out\n        /* \"#utility.yul\":21840:22259   */\n    tag_346:\n        /* \"#utility.yul\":22006:22010   */\n      0x00\n        /* \"#utility.yul\":22044:22046   */\n      0x20\n        /* \"#utility.yul\":22033:22042   */\n      dup3\n        /* \"#utility.yul\":22029:22047   */\n      add\n        /* \"#utility.yul\":22021:22047   */\n      swap1\n      pop\n        /* \"#utility.yul\":22093:22102   */\n      dup2\n        /* \"#utility.yul\":22087:22091   */\n      dup2\n        /* \"#utility.yul\":22083:22103   */\n      sub\n        /* \"#utility.yul\":22079:22080   */\n      0x00\n        /* \"#utility.yul\":22068:22077   */\n      dup4\n        /* \"#utility.yul\":22064:22081   */\n      add\n        /* \"#utility.yul\":22057:22104   */\n      mstore\n        /* \"#utility.yul\":22121:22252   */\n      tag_632\n        /* \"#utility.yul\":22247:22251   */\n      dup2\n        /* \"#utility.yul\":22121:22252   */\n      tag_573\n      jump\t// in\n    tag_632:\n        /* \"#utility.yul\":22113:22252   */\n      swap1\n      pop\n        /* \"#utility.yul\":21840:22259   */\n      swap2\n      swap1\n      pop\n      jump\t// out\n        /* \"#utility.yul\":22265:22487   */\n    tag_60:\n        /* \"#utility.yul\":22358:22362   */\n      0x00\n        /* \"#utility.yul\":22396:22398   */\n      0x20\n        /* \"#utility.yul\":22385:22394   */\n      dup3\n        /* \"#utility.yul\":22381:22399   */\n      add\n        /* \"#utility.yul\":22373:22399   */\n      swap1\n      pop\n        /* \"#utility.yul\":22409:22480   */\n      tag_634\n        /* \"#utility.yul\":22477:22478   */\n      0x00\n        /* \"#utility.yul\":22466:22475   */\n      dup4\n        /* \"#utility.yul\":22462:22479   */\n      add\n        /* \"#utility.yul\":22453:22459   */\n      dup5\n        /* \"#utility.yul\":22409:22480   */\n      tag_578\n      jump\t// in\n    tag_634:\n        /* \"#utility.yul\":22265:22487   */\n      swap3\n      swap2\n      pop\n      pop\n      jump\t// out\n        /* \"#utility.yul\":22493:22707   */\n    tag_91:\n        /* \"#utility.yul\":22582:22586   */\n      0x00\n        /* \"#utility.yul\":22620:22622   */\n      0x20\n        /* \"#utility.yul\":22609:22618   */\n      dup3\n        /* \"#utility.yul\":22605:22623   */\n      add\n        /* \"#utility.yul\":22597:22623   */\n      swap1\n      pop\n        /* \"#utility.yul\":22633:22700   */\n      tag_636\n        /* \"#utility.yul\":22697:22698   */\n      0x00\n        /* \"#utility.yul\":22686:22695   */\n      dup4\n        /* \"#utility.yul\":22682:22699   */\n      add\n        /* \"#utility.yul\":22673:22679   */\n      dup5\n        /* \"#utility.yul\":22633:22700   */\n      tag_582\n      jump\t// in\n    tag_636:\n        /* \"#utility.yul\":22493:22707   */\n      swap3\n      swap2\n      pop\n      pop\n      jump\t// out\n        /* \"#utility.yul\":22794:22893   */\n    tag_465:\n        /* \"#utility.yul\":22846:22852   */\n      0x00\n        /* \"#utility.yul\":22880:22885   */\n      dup2\n        /* \"#utility.yul\":22874:22886   */\n      mload\n        /* \"#utility.yul\":22864:22886   */\n      swap1\n      pop\n        /* \"#utility.yul\":22794:22893   */\n      swap2\n      swap1\n      pop\n      jump\t// out\n        /* \"#utility.yul\":22899:23068   */\n    tag_467:\n        /* \"#utility.yul\":22983:22994   */\n      0x00\n        /* \"#utility.yul\":23017:23023   */\n      dup3\n        /* \"#utility.yul\":23012:23015   */\n      dup3\n        /* \"#utility.yul\":23005:23024   */\n      mstore\n        /* \"#utility.yul\":23057:23061   */\n      0x20\n        /* \"#utility.yul\":23052:23055   */\n      dup3\n        /* \"#utility.yul\":23048:23062   */\n      add\n        /* \"#utility.yul\":23033:23062   */\n      swap1\n      pop\n        /* \"#utility.yul\":22899:23068   */\n      swap3\n      swap2\n      pop\n      pop\n      jump\t// out\n        /* \"#utility.yul\":23074:23222   */\n    tag_476:\n        /* \"#utility.yul\":23176:23187   */\n      0x00\n        /* \"#utility.yul\":23213:23216   */\n      dup2\n        /* \"#utility.yul\":23198:23216   */\n      swap1\n      pop\n        /* \"#utility.yul\":23074:23222   */\n      swap3\n      swap2\n      pop\n      pop\n      jump\t// out\n        /* \"#utility.yul\":23228:23533   */\n    tag_222:\n        /* \"#utility.yul\":23268:23271   */\n      0x00\n        /* \"#utility.yul\":23287:23307   */\n      tag_643\n        /* \"#utility.yul\":23305:23306   */\n      dup3\n        /* \"#utility.yul\":23287:23307   */\n      tag_581\n      jump\t// in\n    tag_643:\n        /* \"#utility.yul\":23282:23307   */\n      swap2\n      pop\n        /* \"#utility.yul\":23321:23341   */\n      tag_644\n        /* \"#utility.yul\":23339:23340   */\n      dup4\n        /* \"#utility.yul\":23321:23341   */\n      tag_581\n      jump\t// in\n    tag_644:\n        /* \"#utility.yul\":23316:23341   */\n      swap3\n      pop\n        /* \"#utility.yul\":23475:23476   */\n      dup3\n        /* \"#utility.yul\":23407:23473   */\n      0xffffffffffffffffffffffffffffffffffffffffffffffffffffffffffffffff\n        /* \"#utility.yul\":23403:23477   */\n      sub\n        /* \"#utility.yul\":23400:23401   */\n      dup3\n        /* \"#utility.yul\":23397:23478   */\n      gt\n        /* \"#utility.yul\":23394:23501   */\n      iszero\n      tag_645\n      jumpi\n        /* \"#utility.yul\":23481:23499   */\n      tag_646\n      tag_647\n      jump\t// in\n    tag_646:\n        /* \"#utility.yul\":23394:23501   */\n    tag_645:\n        /* \"#utility.yul\":23525:23526   */\n      dup3\n        /* \"#utility.yul\":23522:23523   */\n      dup3\n        /* \"#utility.yul\":23518:23527   */\n      add\n        /* \"#utility.yul\":23511:23527   */\n      swap1\n      pop\n        /* \"#utility.yul\":23228:23533   */\n      swap3\n      swap2\n      pop\n      pop\n      jump\t// out\n        /* \"#utility.yul\":23539:23887   */\n    tag_253:\n        /* \"#utility.yul\":23579:23586   */\n      0x00\n        /* \"#utility.yul\":23602:23622   */\n      tag_649\n        /* \"#utility.yul\":23620:23621   */\n      dup3\n        /* \"#utility.yul\":23602:23622   */\n      tag_581\n      jump\t// in\n    tag_649:\n        /* \"#utility.yul\":23597:23622   */\n      swap2\n      pop\n        /* \"#utility.yul\":23636:23656   */\n      tag_650\n        /* \"#utility.yul\":23654:23655   */\n      dup4\n        /* \"#utility.yul\":23636:23656   */\n      tag_581\n      jump\t// in\n    tag_650:\n        /* \"#utility.yul\":23631:23656   */\n      swap3\n      pop\n        /* \"#utility.yul\":23824:23825   */\n      dup2\n        /* \"#utility.yul\":23756:23822   */\n      0xffffffffffffffffffffffffffffffffffffffffffffffffffffffffffffffff\n        /* \"#utility.yul\":23752:23826   */\n      div\n        /* \"#utility.yul\":23749:23750   */\n      dup4\n        /* \"#utility.yul\":23746:23827   */\n      gt\n        /* \"#utility.yul\":23741:23742   */\n      dup3\n        /* \"#utility.yul\":23734:23743   */\n      iszero\n        /* \"#utility.yul\":23727:23744   */\n      iszero\n        /* \"#utility.yul\":23723:23828   */\n      and\n        /* \"#utility.yul\":23720:23851   */\n      iszero\n      tag_651\n      jumpi\n        /* \"#utility.yul\":23831:23849   */\n      tag_652\n      tag_647\n      jump\t// in\n    tag_652:\n        /* \"#utility.yul\":23720:23851   */\n    tag_651:\n        /* \"#utility.yul\":23879:23880   */\n      dup3\n        /* \"#utility.yul\":23876:23877   */\n      dup3\n        /* \"#utility.yul\":23872:23881   */\n      mul\n        /* \"#utility.yul\":23861:23881   */\n      swap1\n      pop\n        /* \"#utility.yul\":23539:23887   */\n      swap3\n      swap2\n      pop\n      pop\n      jump\t// out\n        /* \"#utility.yul\":23893:24084   */\n    tag_228:\n        /* \"#utility.yul\":23933:23937   */\n      0x00\n        /* \"#utility.yul\":23953:23973   */\n      tag_654\n        /* \"#utility.yul\":23971:23972   */\n      dup3\n        /* \"#utility.yul\":23953:23973   */\n      tag_581\n      jump\t// in\n    tag_654:\n        /* \"#utility.yul\":23948:23973   */\n      swap2\n      pop\n        /* \"#utility.yul\":23987:24007   */\n      tag_655\n        /* \"#utility.yul\":24005:24006   */\n      dup4\n        /* \"#utility.yul\":23987:24007   */\n      tag_581\n      jump\t// in\n    tag_655:\n        /* \"#utility.yul\":23982:24007   */\n      swap3\n      pop\n        /* \"#utility.yul\":24026:24027   */\n      dup3\n        /* \"#utility.yul\":24023:24024   */\n      dup3\n        /* \"#utility.yul\":24020:24028   */\n      lt\n        /* \"#utility.yul\":24017:24051   */\n      iszero\n      tag_656\n      jumpi\n        /* \"#utility.yul\":24031:24049   */\n      tag_657\n      tag_647\n      jump\t// in\n    tag_657:\n        /* \"#utility.yul\":24017:24051   */\n    tag_656:\n        /* \"#utility.yul\":24076:24077   */\n      dup3\n        /* \"#utility.yul\":24073:24074   */\n      dup3\n        /* \"#utility.yul\":24069:24078   */\n      sub\n        /* \"#utility.yul\":24061:24078   */\n      swap1\n      pop\n        /* \"#utility.yul\":23893:24084   */\n      swap3\n      swap2\n      pop\n      pop\n      jump\t// out\n        /* \"#utility.yul\":24090:24186   */\n    tag_658:\n        /* \"#utility.yul\":24127:24134   */\n      0x00\n        /* \"#utility.yul\":24156:24180   */\n      tag_660\n        /* \"#utility.yul\":24174:24179   */\n      dup3\n        /* \"#utility.yul\":24156:24180   */\n      tag_661\n      jump\t// in\n    tag_660:\n        /* \"#utility.yul\":24145:24180   */\n      swap1\n      pop\n        /* \"#utility.yul\":24090:24186   */\n      swap2\n      swap1\n      pop\n      jump\t// out\n        /* \"#utility.yul\":24192:24282   */\n    tag_457:\n        /* \"#utility.yul\":24226:24233   */\n      0x00\n        /* \"#utility.yul\":24269:24274   */\n      dup2\n        /* \"#utility.yul\":24262:24275   */\n      iszero\n        /* \"#utility.yul\":24255:24276   */\n      iszero\n        /* \"#utility.yul\":24244:24276   */\n      swap1\n      pop\n        /* \"#utility.yul\":24192:24282   */\n      swap2\n      swap1\n      pop\n      jump\t// out\n        /* \"#utility.yul\":24288:24365   */\n    tag_461:\n        /* \"#utility.yul\":24325:24332   */\n      0x00\n        /* \"#utility.yul\":24354:24359   */\n      dup2\n        /* \"#utility.yul\":24343:24359   */\n      swap1\n      pop\n        /* \"#utility.yul\":24288:24365   */\n      swap2\n      swap1\n      pop\n      jump\t// out\n        /* \"#utility.yul\":24371:24520   */\n    tag_664:\n        /* \"#utility.yul\":24407:24414   */\n      0x00\n        /* \"#utility.yul\":24447:24513   */\n      0xffffffff00000000000000000000000000000000000000000000000000000000\n        /* \"#utility.yul\":24440:24445   */\n      dup3\n        /* \"#utility.yul\":24436:24514   */\n      and\n        /* \"#utility.yul\":24425:24514   */\n      swap1\n      pop\n        /* \"#utility.yul\":24371:24520   */\n      swap2\n      swap1\n      pop\n      jump\t// out\n        /* \"#utility.yul\":24526:24652   */\n    tag_661:\n        /* \"#utility.yul\":24563:24570   */\n      0x00\n        /* \"#utility.yul\":24603:24645   */\n      0xffffffffffffffffffffffffffffffffffffffff\n        /* \"#utility.yul\":24596:24601   */\n      dup3\n        /* \"#utility.yul\":24592:24646   */\n      and\n        /* \"#utility.yul\":24581:24646   */\n      swap1\n      pop\n        /* \"#utility.yul\":24526:24652   */\n      swap2\n      swap1\n      pop\n      jump\t// out\n        /* \"#utility.yul\":24658:24735   */\n    tag_581:\n        /* \"#utility.yul\":24695:24702   */\n      0x00\n        /* \"#utility.yul\":24724:24729   */\n      dup2\n        /* \"#utility.yul\":24713:24729   */\n      swap1\n      pop\n        /* \"#utility.yul\":24658:24735   */\n      swap2\n      swap1\n      pop\n      jump\t// out\n        /* \"#utility.yul\":24741:24827   */\n    tag_585:\n        /* \"#utility.yul\":24776:24783   */\n      0x00\n        /* \"#utility.yul\":24816:24820   */\n      0xff\n        /* \"#utility.yul\":24809:24814   */\n      dup3\n        /* \"#utility.yul\":24805:24821   */\n      and\n        /* \"#utility.yul\":24794:24821   */\n      swap1\n      pop\n        /* \"#utility.yul\":24741:24827   */\n      swap2\n      swap1\n      pop\n      jump\t// out\n        /* \"#utility.yul\":24833:25140   */\n    tag_469:\n        /* \"#utility.yul\":24901:24902   */\n      0x00\n        /* \"#utility.yul\":24911:25024   */\n    tag_670:\n        /* \"#utility.yul\":24925:24931   */\n      dup4\n        /* \"#utility.yul\":24922:24923   */\n      dup2\n        /* \"#utility.yul\":24919:24932   */\n      lt\n        /* \"#utility.yul\":24911:25024   */\n      iszero\n      tag_672\n      jumpi\n        /* \"#utility.yul\":25010:25011   */\n      dup1\n        /* \"#utility.yul\":25005:25008   */\n      dup3\n        /* \"#utility.yul\":25001:25012   */\n      add\n        /* \"#utility.yul\":24995:25013   */\n      mload\n        /* \"#utility.yul\":24991:24992   */\n      dup2\n        /* \"#utility.yul\":24986:24989   */\n      dup5\n        /* \"#utility.yul\":24982:24993   */\n      add\n        /* \"#utility.yul\":24975:25014   */\n      mstore\n        /* \"#utility.yul\":24947:24949   */\n      0x20\n        /* \"#utility.yul\":24944:24945   */\n      dup2\n        /* \"#utility.yul\":24940:24950   */\n      add\n        /* \"#utility.yul\":24935:24950   */\n      swap1\n      pop\n        /* \"#utility.yul\":24911:25024   */\n      jump(tag_670)\n    tag_672:\n        /* \"#utility.yul\":25042:25048   */\n      dup4\n        /* \"#utility.yul\":25039:25040   */\n      dup2\n        /* \"#utility.yul\":25036:25049   */\n      gt\n        /* \"#utility.yul\":25033:25134   */\n      iszero\n      tag_673\n      jumpi\n        /* \"#utility.yul\":25122:25123   */\n      0x00\n        /* \"#utility.yul\":25113:25119   */\n      dup5\n        /* \"#utility.yul\":25108:25111   */\n      dup5\n        /* \"#utility.yul\":25104:25120   */\n      add\n        /* \"#utility.yul\":25097:25124   */\n      mstore\n        /* \"#utility.yul\":25033:25134   */\n    tag_673:\n        /* \"#utility.yul\":24882:25140   */\n      pop\n        /* \"#utility.yul\":24833:25140   */\n      pop\n      pop\n      pop\n      jump\t// out\n        /* \"#utility.yul\":25146:25317   */\n    tag_394:\n        /* \"#utility.yul\":25185:25188   */\n      0x00\n        /* \"#utility.yul\":25208:25232   */\n      tag_675\n        /* \"#utility.yul\":25226:25231   */\n      dup3\n        /* \"#utility.yul\":25208:25232   */\n      tag_581\n      jump\t// in\n    tag_675:\n        /* \"#utility.yul\":25199:25232   */\n      swap2\n      pop\n        /* \"#utility.yul\":25254:25258   */\n      0x00\n        /* \"#utility.yul\":25247:25252   */\n      dup3\n        /* \"#utility.yul\":25244:25259   */\n      eq\n        /* \"#utility.yul\":25241:25282   */\n      iszero\n      tag_676\n      jumpi\n        /* \"#utility.yul\":25262:25280   */\n      tag_677\n      tag_647\n      jump\t// in\n    tag_677:\n        /* \"#utility.yul\":25241:25282   */\n    tag_676:\n        /* \"#utility.yul\":25309:25310   */\n      0x01\n        /* \"#utility.yul\":25302:25307   */\n      dup3\n        /* \"#utility.yul\":25298:25311   */\n      sub\n        /* \"#utility.yul\":25291:25311   */\n      swap1\n      pop\n        /* \"#utility.yul\":25146:25317   */\n      swap2\n      swap1\n      pop\n      jump\t// out\n        /* \"#utility.yul\":25323:25643   */\n    tag_184:\n        /* \"#utility.yul\":25367:25373   */\n      0x00\n        /* \"#utility.yul\":25404:25405   */\n      0x02\n        /* \"#utility.yul\":25398:25402   */\n      dup3\n        /* \"#utility.yul\":25394:25406   */\n      div\n        /* \"#utility.yul\":25384:25406   */\n      swap1\n      pop\n        /* \"#utility.yul\":25451:25452   */\n      0x01\n        /* \"#utility.yul\":25445:25449   */\n      dup3\n        /* \"#utility.yul\":25441:25453   */\n      and\n        /* \"#utility.yul\":25472:25490   */\n      dup1\n        /* \"#utility.yul\":25462:25543   */\n      tag_679\n      jumpi\n        /* \"#utility.yul\":25528:25532   */\n      0x7f\n        /* \"#utility.yul\":25520:25526   */\n      dup3\n        /* \"#utility.yul\":25516:25533   */\n      and\n        /* \"#utility.yul\":25506:25533   */\n      swap2\n      pop\n        /* \"#utility.yul\":25462:25543   */\n    tag_679:\n        /* \"#utility.yul\":25590:25592   */\n      0x20\n        /* \"#utility.yul\":25582:25588   */\n      dup3\n        /* \"#utility.yul\":25579:25593   */\n      lt\n        /* \"#utility.yul\":25559:25577   */\n      dup2\n        /* \"#utility.yul\":25556:25594   */\n      eq\n        /* \"#utility.yul\":25553:25637   */\n      iszero\n      tag_680\n      jumpi\n        /* \"#utility.yul\":25609:25627   */\n      tag_681\n      tag_682\n      jump\t// in\n    tag_681:\n        /* \"#utility.yul\":25553:25637   */\n    tag_680:\n        /* \"#utility.yul\":25374:25643   */\n      pop\n        /* \"#utility.yul\":25323:25643   */\n      swap2\n      swap1\n      pop\n      jump\t// out\n        /* \"#utility.yul\":25649:25829   */\n    tag_647:\n        /* \"#utility.yul\":25697:25774   */\n      0x4e487b7100000000000000000000000000000000000000000000000000000000\n        /* \"#utility.yul\":25694:25695   */\n      0x00\n        /* \"#utility.yul\":25687:25775   */\n      mstore\n        /* \"#utility.yul\":25794:25798   */\n      0x11\n        /* \"#utility.yul\":25791:25792   */\n      0x04\n        /* \"#utility.yul\":25784:25799   */\n      mstore\n        /* \"#utility.yul\":25818:25822   */\n      0x24\n        /* \"#utility.yul\":25815:25816   */\n      0x00\n        /* \"#utility.yul\":25808:25823   */\n      revert\n        /* \"#utility.yul\":25835:26015   */\n    tag_682:\n        /* \"#utility.yul\":25883:25960   */\n      0x4e487b7100000000000000000000000000000000000000000000000000000000\n        /* \"#utility.yul\":25880:25881   */\n      0x00\n        /* \"#utility.yul\":25873:25961   */\n      mstore\n        /* \"#utility.yul\":25980:25984   */\n      0x22\n        /* \"#utility.yul\":25977:25978   */\n      0x04\n        /* \"#utility.yul\":25970:25985   */\n      mstore\n        /* \"#utility.yul\":26004:26008   */\n      0x24\n        /* \"#utility.yul\":26001:26002   */\n      0x00\n        /* \"#utility.yul\":25994:26009   */\n      revert\n        /* \"#utility.yul\":26021:26201   */\n    tag_381:\n        /* \"#utility.yul\":26069:26146   */\n      0x4e487b7100000000000000000000000000000000000000000000000000000000\n        /* \"#utility.yul\":26066:26067   */\n      0x00\n        /* \"#utility.yul\":26059:26147   */\n      mstore\n        /* \"#utility.yul\":26166:26170   */\n      0x32\n        /* \"#utility.yul\":26163:26164   */\n      0x04\n        /* \"#utility.yul\":26156:26171   */\n      mstore\n        /* \"#utility.yul\":26190:26194   */\n      0x24\n        /* \"#utility.yul\":26187:26188   */\n      0x00\n        /* \"#utility.yul\":26180:26195   */\n      revert\n        /* \"#utility.yul\":26207:26387   */\n    tag_377:\n        /* \"#utility.yul\":26255:26332   */\n      0x4e487b7100000000000000000000000000000000000000000000000000000000\n        /* \"#utility.yul\":26252:26253   */\n      0x00\n        /* \"#utility.yul\":26245:26333   */\n      mstore\n        /* \"#utility.yul\":26352:26356   */\n      0x41\n        /* \"#utility.yul\":26349:26350   */\n      0x04\n        /* \"#utility.yul\":26342:26357   */\n      mstore\n        /* \"#utility.yul\":26376:26380   */\n      0x24\n        /* \"#utility.yul\":26373:26374   */\n      0x00\n        /* \"#utility.yul\":26366:26381   */\n      revert\n        /* \"#utility.yul\":26516:26633   */\n    tag_418:\n        /* \"#utility.yul\":26625:26626   */\n      0x00\n        /* \"#utility.yul\":26622:26623   */\n      dup1\n        /* \"#utility.yul\":26615:26627   */\n      revert\n        /* \"#utility.yul\":26639:26741   */\n    tag_471:\n        /* \"#utility.yul\":26680:26686   */\n      0x00\n        /* \"#utility.yul\":26731:26733   */\n      0x1f\n        /* \"#utility.yul\":26727:26734   */\n      not\n        /* \"#utility.yul\":26722:26724   */\n      0x1f\n        /* \"#utility.yul\":26715:26720   */\n      dup4\n        /* \"#utility.yul\":26711:26725   */\n      add\n        /* \"#utility.yul\":26707:26735   */\n      and\n        /* \"#utility.yul\":26697:26735   */\n      swap1\n      pop\n        /* \"#utility.yul\":26639:26741   */\n      swap2\n      swap1\n      pop\n      jump\t// out\n        /* \"#utility.yul\":26747:26929   */\n    tag_482:\n        /* \"#utility.yul\":26887:26921   */\n      0x537472696e67733a20686578206c656e67746820696e73756666696369656e74\n        /* \"#utility.yul\":26883:26884   */\n      0x00\n        /* \"#utility.yul\":26875:26881   */\n      dup3\n        /* \"#utility.yul\":26871:26885   */\n      add\n        /* \"#utility.yul\":26864:26922   */\n      mstore\n        /* \"#utility.yul\":26747:26929   */\n      pop\n      jump\t// out\n        /* \"#utility.yul\":26935:27157   */\n    tag_487:\n        /* \"#utility.yul\":27075:27109   */\n      0x45524332303a207472616e7366657220746f20746865207a65726f2061646472\n        /* \"#utility.yul\":27071:27072   */\n      0x00\n        /* \"#utility.yul\":27063:27069   */\n      dup3\n        /* \"#utility.yul\":27059:27073   */\n      add\n        /* \"#utility.yul\":27052:27110   */\n      mstore\n        /* \"#utility.yul\":27144:27149   */\n      0x6573730000000000000000000000000000000000000000000000000000000000\n        /* \"#utility.yul\":27139:27141   */\n      0x20\n        /* \"#utility.yul\":27131:27137   */\n      dup3\n        /* \"#utility.yul\":27127:27142   */\n      add\n        /* \"#utility.yul\":27120:27150   */\n      mstore\n        /* \"#utility.yul\":26935:27157   */\n      pop\n      jump\t// out\n        /* \"#utility.yul\":27163:27406   */\n    tag_492:\n        /* \"#utility.yul\":27303:27337   */\n      0x416d6f756e7420746f2072656d6f76652063616e6e6f74206265206772656174\n        /* \"#utility.yul\":27299:27300   */\n      0x00\n        /* \"#utility.yul\":27291:27297   */\n      dup3\n        /* \"#utility.yul\":27287:27301   */\n      add\n        /* \"#utility.yul\":27280:27338   */\n      mstore\n        /* \"#utility.yul\":27372:27398   */\n      0x6572207468616e20756e636c61696d656420616d6f756e740000000000000000\n        /* \"#utility.yul\":27367:27369   */\n      0x20\n        /* \"#utility.yul\":27359:27365   */\n      dup3\n        /* \"#utility.yul\":27355:27370   */\n      add\n        /* \"#utility.yul\":27348:27399   */\n      mstore\n        /* \"#utility.yul\":27163:27406   */\n      pop\n      jump\t// out\n        /* \"#utility.yul\":27412:27633   */\n    tag_497:\n        /* \"#utility.yul\":27552:27586   */\n      0x546865206d617820737570706c7920686173206265656e206578686175737465\n        /* \"#utility.yul\":27548:27549   */\n      0x00\n        /* \"#utility.yul\":27540:27546   */\n      dup3\n        /* \"#utility.yul\":27536:27550   */\n      add\n        /* \"#utility.yul\":27529:27587   */\n      mstore\n        /* \"#utility.yul\":27621:27625   */\n      0x642e000000000000000000000000000000000000000000000000000000000000\n        /* \"#utility.yul\":27616:27618   */\n      0x20\n        /* \"#utility.yul\":27608:27614   */\n      dup3\n        /* \"#utility.yul\":27604:27619   */\n      add\n        /* \"#utility.yul\":27597:27626   */\n      mstore\n        /* \"#utility.yul\":27412:27633   */\n      pop\n      jump\t// out\n        /* \"#utility.yul\":27639:27860   */\n    tag_502:\n        /* \"#utility.yul\":27779:27813   */\n      0x45524332303a206275726e20616d6f756e7420657863656564732062616c616e\n        /* \"#utility.yul\":27775:27776   */\n      0x00\n        /* \"#utility.yul\":27767:27773   */\n      dup3\n        /* \"#utility.yul\":27763:27777   */\n      add\n        /* \"#utility.yul\":27756:27814   */\n      mstore\n        /* \"#utility.yul\":27848:27852   */\n      0x6365000000000000000000000000000000000000000000000000000000000000\n        /* \"#utility.yul\":27843:27845   */\n      0x20\n        /* \"#utility.yul\":27835:27841   */\n      dup3\n        /* \"#utility.yul\":27831:27846   */\n      add\n        /* \"#utility.yul\":27824:27853   */\n      mstore\n        /* \"#utility.yul\":27639:27860   */\n      pop\n      jump\t// out\n        /* \"#utility.yul\":27866:28087   */\n    tag_507:\n        /* \"#utility.yul\":28006:28040   */\n      0x45524332303a20617070726f766520746f20746865207a65726f206164647265\n        /* \"#utility.yul\":28002:28003   */\n      0x00\n        /* \"#utility.yul\":27994:28000   */\n      dup3\n        /* \"#utility.yul\":27990:28004   */\n      add\n        /* \"#utility.yul\":27983:28041   */\n      mstore\n        /* \"#utility.yul\":28075:28079   */\n      0x7373000000000000000000000000000000000000000000000000000000000000\n        /* \"#utility.yul\":28070:28072   */\n      0x20\n        /* \"#utility.yul\":28062:28068   */\n      dup3\n        /* \"#utility.yul\":28058:28073   */\n      add\n        /* \"#utility.yul\":28051:28080   */\n      mstore\n        /* \"#utility.yul\":27866:28087   */\n      pop\n      jump\t// out\n        /* \"#utility.yul\":28093:28272   */\n    tag_512:\n        /* \"#utility.yul\":28233:28264   */\n      0x45524332303a20696e73756666696369656e7420616c6c6f77616e6365000000\n        /* \"#utility.yul\":28229:28230   */\n      0x00\n        /* \"#utility.yul\":28221:28227   */\n      dup3\n        /* \"#utility.yul\":28217:28231   */\n      add\n        /* \"#utility.yul\":28210:28265   */\n      mstore\n        /* \"#utility.yul\":28093:28272   */\n      pop\n      jump\t// out\n        /* \"#utility.yul\":28278:28503   */\n    tag_517:\n        /* \"#utility.yul\":28418:28452   */\n      0x45524332303a207472616e7366657220616d6f756e7420657863656564732062\n        /* \"#utility.yul\":28414:28415   */\n      0x00\n        /* \"#utility.yul\":28406:28412   */\n      dup3\n        /* \"#utility.yul\":28402:28416   */\n      add\n        /* \"#utility.yul\":28395:28453   */\n      mstore\n        /* \"#utility.yul\":28487:28495   */\n      0x616c616e63650000000000000000000000000000000000000000000000000000\n        /* \"#utility.yul\":28482:28484   */\n      0x20\n        /* \"#utility.yul\":28474:28480   */\n      dup3\n        /* \"#utility.yul\":28470:28485   */\n      add\n        /* \"#utility.yul\":28463:28496   */\n      mstore\n        /* \"#utility.yul\":28278:28503   */\n      pop\n      jump\t// out\n        /* \"#utility.yul\":28509:28736   */\n    tag_522:\n        /* \"#utility.yul\":28649:28683   */\n      0x556e636c61696d65642062616c616e6365206d75737420626520677265617465\n        /* \"#utility.yul\":28645:28646   */\n      0x00\n        /* \"#utility.yul\":28637:28643   */\n      dup3\n        /* \"#utility.yul\":28633:28647   */\n      add\n        /* \"#utility.yul\":28626:28684   */\n      mstore\n        /* \"#utility.yul\":28718:28728   */\n      0x72207468616e2030000000000000000000000000000000000000000000000000\n        /* \"#utility.yul\":28713:28715   */\n      0x20\n        /* \"#utility.yul\":28705:28711   */\n      dup3\n        /* \"#utility.yul\":28701:28716   */\n      add\n        /* \"#utility.yul\":28694:28729   */\n      mstore\n        /* \"#utility.yul\":28509:28736   */\n      pop\n      jump\t// out\n        /* \"#utility.yul\":28742:28914   */\n    tag_527:\n        /* \"#utility.yul\":28882:28906   */\n      0x43616c6c6572206973206e6f742061206275726e657200000000000000000000\n        /* \"#utility.yul\":28878:28879   */\n      0x00\n        /* \"#utility.yul\":28870:28876   */\n      dup3\n        /* \"#utility.yul\":28866:28880   */\n      add\n        /* \"#utility.yul\":28859:28907   */\n      mstore\n        /* \"#utility.yul\":28742:28914   */\n      pop\n      jump\t// out\n        /* \"#utility.yul\":28920:29140   */\n    tag_532:\n        /* \"#utility.yul\":29060:29094   */\n      0x45524332303a206275726e2066726f6d20746865207a65726f20616464726573\n        /* \"#utility.yul\":29056:29057   */\n      0x00\n        /* \"#utility.yul\":29048:29054   */\n      dup3\n        /* \"#utility.yul\":29044:29058   */\n      add\n        /* \"#utility.yul\":29037:29095   */\n      mstore\n        /* \"#utility.yul\":29129:29132   */\n      0x7300000000000000000000000000000000000000000000000000000000000000\n        /* \"#utility.yul\":29124:29126   */\n      0x20\n        /* \"#utility.yul\":29116:29122   */\n      dup3\n        /* \"#utility.yul\":29112:29127   */\n      add\n        /* \"#utility.yul\":29105:29133   */\n      mstore\n        /* \"#utility.yul\":28920:29140   */\n      pop\n      jump\t// out\n        /* \"#utility.yul\":29146:29370   */\n    tag_537:\n        /* \"#utility.yul\":29286:29320   */\n      0x45524332303a207472616e736665722066726f6d20746865207a65726f206164\n        /* \"#utility.yul\":29282:29283   */\n      0x00\n        /* \"#utility.yul\":29274:29280   */\n      dup3\n        /* \"#utility.yul\":29270:29284   */\n      add\n        /* \"#utility.yul\":29263:29321   */\n      mstore\n        /* \"#utility.yul\":29355:29362   */\n      0x6472657373000000000000000000000000000000000000000000000000000000\n        /* \"#utility.yul\":29350:29352   */\n      0x20\n        /* \"#utility.yul\":29342:29348   */\n      dup3\n        /* \"#utility.yul\":29338:29353   */\n      add\n        /* \"#utility.yul\":29331:29363   */\n      mstore\n        /* \"#utility.yul\":29146:29370   */\n      pop\n      jump\t// out\n        /* \"#utility.yul\":29376:29550   */\n    tag_542:\n        /* \"#utility.yul\":29516:29542   */\n      0x43616c6c6572206973206e6f7420612072657761726465720000000000000000\n        /* \"#utility.yul\":29512:29513   */\n      0x00\n        /* \"#utility.yul\":29504:29510   */\n      dup3\n        /* \"#utility.yul\":29500:29514   */\n      add\n        /* \"#utility.yul\":29493:29543   */\n      mstore\n        /* \"#utility.yul\":29376:29550   */\n      pop\n      jump\t// out\n        /* \"#utility.yul\":29556:29779   */\n    tag_547:\n        /* \"#utility.yul\":29696:29730   */\n      0x45524332303a20617070726f76652066726f6d20746865207a65726f20616464\n        /* \"#utility.yul\":29692:29693   */\n      0x00\n        /* \"#utility.yul\":29684:29690   */\n      dup3\n        /* \"#utility.yul\":29680:29694   */\n      add\n        /* \"#utility.yul\":29673:29731   */\n      mstore\n        /* \"#utility.yul\":29765:29771   */\n      0x7265737300000000000000000000000000000000000000000000000000000000\n        /* \"#utility.yul\":29760:29762   */\n      0x20\n        /* \"#utility.yul\":29752:29758   */\n      dup3\n        /* \"#utility.yul\":29748:29763   */\n      add\n        /* \"#utility.yul\":29741:29772   */\n      mstore\n        /* \"#utility.yul\":29556:29779   */\n      pop\n      jump\t// out\n        /* \"#utility.yul\":29785:29967   */\n    tag_552:\n        /* \"#utility.yul\":29925:29959   */\n      0x636c61696d61626c65206d7573742062652067726561746572207468616e2030\n        /* \"#utility.yul\":29921:29922   */\n      0x00\n        /* \"#utility.yul\":29913:29919   */\n      dup3\n        /* \"#utility.yul\":29909:29923   */\n      add\n        /* \"#utility.yul\":29902:29960   */\n      mstore\n        /* \"#utility.yul\":29785:29967   */\n      pop\n      jump\t// out\n        /* \"#utility.yul\":29973:30146   */\n    tag_557:\n        /* \"#utility.yul\":30113:30138   */\n      0x416363657373436f6e74726f6c3a206163636f756e7420000000000000000000\n        /* \"#utility.yul\":30109:30110   */\n      0x00\n        /* \"#utility.yul\":30101:30107   */\n      dup3\n        /* \"#utility.yul\":30097:30111   */\n      add\n        /* \"#utility.yul\":30090:30139   */\n      mstore\n        /* \"#utility.yul\":29973:30146   */\n      pop\n      jump\t// out\n        /* \"#utility.yul\":30152:30376   */\n    tag_562:\n        /* \"#utility.yul\":30292:30326   */\n      0x45524332303a2064656372656173656420616c6c6f77616e63652062656c6f77\n        /* \"#utility.yul\":30288:30289   */\n      0x00\n        /* \"#utility.yul\":30280:30286   */\n      dup3\n        /* \"#utility.yul\":30276:30290   */\n      add\n        /* \"#utility.yul\":30269:30327   */\n      mstore\n        /* \"#utility.yul\":30361:30368   */\n      0x207a65726f000000000000000000000000000000000000000000000000000000\n        /* \"#utility.yul\":30356:30358   */\n      0x20\n        /* \"#utility.yul\":30348:30354   */\n      dup3\n        /* \"#utility.yul\":30344:30359   */\n      add\n        /* \"#utility.yul\":30337:30369   */\n      mstore\n        /* \"#utility.yul\":30152:30376   */\n      pop\n      jump\t// out\n        /* \"#utility.yul\":30382:30549   */\n    tag_567:\n        /* \"#utility.yul\":30522:30541   */\n      0x206973206d697373696e6720726f6c6520000000000000000000000000000000\n        /* \"#utility.yul\":30518:30519   */\n      0x00\n        /* \"#utility.yul\":30510:30516   */\n      dup3\n        /* \"#utility.yul\":30506:30520   */\n      add\n        /* \"#utility.yul\":30499:30542   */\n      mstore\n        /* \"#utility.yul\":30382:30549   */\n      pop\n      jump\t// out\n        /* \"#utility.yul\":30555:30789   */\n    tag_572:\n        /* \"#utility.yul\":30695:30729   */\n      0x416363657373436f6e74726f6c3a2063616e206f6e6c792072656e6f756e6365\n        /* \"#utility.yul\":30691:30692   */\n      0x00\n        /* \"#utility.yul\":30683:30689   */\n      dup3\n        /* \"#utility.yul\":30679:30693   */\n      add\n        /* \"#utility.yul\":30672:30730   */\n      mstore\n        /* \"#utility.yul\":30764:30781   */\n      0x20726f6c657320666f722073656c660000000000000000000000000000000000\n        /* \"#utility.yul\":30759:30761   */\n      0x20\n        /* \"#utility.yul\":30751:30757   */\n      dup3\n        /* \"#utility.yul\":30747:30762   */\n      add\n        /* \"#utility.yul\":30740:30782   */\n      mstore\n        /* \"#utility.yul\":30555:30789   */\n      pop\n      jump\t// out\n        /* \"#utility.yul\":30795:30976   */\n    tag_577:\n        /* \"#utility.yul\":30935:30968   */\n      0x45524332303a206d696e7420746f20746865207a65726f206164647265737300\n        /* \"#utility.yul\":30931:30932   */\n      0x00\n        /* \"#utility.yul\":30923:30929   */\n      dup3\n        /* \"#utility.yul\":30919:30933   */\n      add\n        /* \"#utility.yul\":30912:30969   */\n      mstore\n        /* \"#utility.yul\":30795:30976   */\n      pop\n      jump\t// out\n        /* \"#utility.yul\":30982:31104   */\n    tag_402:\n        /* \"#utility.yul\":31055:31079   */\n      tag_712\n        /* \"#utility.yul\":31073:31078   */\n      dup2\n        /* \"#utility.yul\":31055:31079   */\n      tag_658\n      jump\t// in\n    tag_712:\n        /* \"#utility.yul\":31048:31053   */\n      dup2\n        /* \"#utility.yul\":31045:31080   */\n      eq\n        /* \"#utility.yul\":31035:31098   */\n      tag_713\n      jumpi\n        /* \"#utility.yul\":31094:31095   */\n      0x00\n        /* \"#utility.yul\":31091:31092   */\n      dup1\n        /* \"#utility.yul\":31084:31096   */\n      revert\n        /* \"#utility.yul\":31035:31098   */\n    tag_713:\n        /* \"#utility.yul\":30982:31104   */\n      pop\n      jump\t// out\n        /* \"#utility.yul\":31110:31232   */\n    tag_406:\n        /* \"#utility.yul\":31183:31207   */\n      tag_715\n        /* \"#utility.yul\":31201:31206   */\n      dup2\n        /* \"#utility.yul\":31183:31207   */\n      tag_461\n      jump\t// in\n    tag_715:\n        /* \"#utility.yul\":31176:31181   */\n      dup2\n        /* \"#utility.yul\":31173:31208   */\n      eq\n        /* \"#utility.yul\":31163:31226   */\n      tag_716\n      jumpi\n        /* \"#utility.yul\":31222:31223   */\n      0x00\n        /* \"#utility.yul\":31219:31220   */\n      dup1\n        /* \"#utility.yul\":31212:31224   */\n      revert\n        /* \"#utility.yul\":31163:31226   */\n    tag_716:\n        /* \"#utility.yul\":31110:31232   */\n      pop\n      jump\t// out\n        /* \"#utility.yul\":31238:31358   */\n    tag_410:\n        /* \"#utility.yul\":31310:31333   */\n      tag_718\n        /* \"#utility.yul\":31327:31332   */\n      dup2\n        /* \"#utility.yul\":31310:31333   */\n      tag_664\n      jump\t// in\n    tag_718:\n        /* \"#utility.yul\":31303:31308   */\n      dup2\n        /* \"#utility.yul\":31300:31334   */\n      eq\n        /* \"#utility.yul\":31290:31352   */\n      tag_719\n      jumpi\n        /* \"#utility.yul\":31348:31349   */\n      0x00\n        /* \"#utility.yul\":31345:31346   */\n      dup1\n        /* \"#utility.yul\":31338:31350   */\n      revert\n        /* \"#utility.yul\":31290:31352   */\n    tag_719:\n        /* \"#utility.yul\":31238:31358   */\n      pop\n      jump\t// out\n        /* \"#utility.yul\":31364:31486   */\n    tag_414:\n        /* \"#utility.yul\":31437:31461   */\n      tag_721\n        /* \"#utility.yul\":31455:31460   */\n      dup2\n        /* \"#utility.yul\":31437:31461   */\n      tag_581\n      jump\t// in\n    tag_721:\n        /* \"#utility.yul\":31430:31435   */\n      dup2\n        /* \"#utility.yul\":31427:31462   */\n      eq\n        /* \"#utility.yul\":31417:31480   */\n      tag_722\n      jumpi\n        /* \"#utility.yul\":31476:31477   */\n      0x00\n        /* \"#utility.yul\":31473:31474   */\n      dup1\n        /* \"#utility.yul\":31466:31478   */\n      revert\n        /* \"#utility.yul\":31417:31480   */\n    tag_722:\n        /* \"#utility.yul\":31364:31486   */\n      pop\n      jump\t// out\n\n    auxdata: 0xa26469706673582212203d494aa226c2dcc4ae6a0c5934f85600dfe4ebe1d65cd15bc921100647ea783664736f6c63430008070033\n}\n",
				"bytecode": {
					"linkReferences": {},
					"object": "60806040523480156200001157600080fd5b506040518060400160405280600981526020017f466f6f20546f6b656e00000000000000000000000000000000000000000000008152506040518060400160405280600381526020017f464f4f000000000000000000000000000000000000000000000000000000000081525081600390805190602001906200009692919062000248565b508060049080519060200190620000af92919062000248565b505050620000c76000801b33620000cd60201b60201c565b6200035d565b620000df8282620000e360201b60201c565b5050565b620000f58282620001d560201b60201c565b620001d15760016005600084815260200190815260200160002060000160008373ffffffffffffffffffffffffffffffffffffffff1673ffffffffffffffffffffffffffffffffffffffff16815260200190815260200160002060006101000a81548160ff021916908315150217905550620001766200024060201b60201c565b73ffffffffffffffffffffffffffffffffffffffff168173ffffffffffffffffffffffffffffffffffffffff16837f2f8788117e7eff1d82e926ec794901d17c78024a50270940304540a733656f0d60405160405180910390a45b5050565b60006005600084815260200190815260200160002060000160008373ffffffffffffffffffffffffffffffffffffffff1673ffffffffffffffffffffffffffffffffffffffff16815260200190815260200160002060009054906101000a900460ff16905092915050565b600033905090565b8280546200025690620002f8565b90600052602060002090601f0160209004810192826200027a5760008555620002c6565b82601f106200029557805160ff1916838001178555620002c6565b82800160010185558215620002c6579182015b82811115620002c5578251825591602001919060010190620002a8565b5b509050620002d59190620002d9565b5090565b5b80821115620002f4576000816000905550600101620002da565b5090565b600060028204905060018216806200031157607f821691505b602082108114156200032857620003276200032e565b5b50919050565b7f4e487b7100000000000000000000000000000000000000000000000000000000600052602260045260246000fd5b6131a7806200036d6000396000f3fe6080604052600436106101c25760003560e01c806370a08231116100f7578063a217fddf11610095578063d547741f11610064578063d547741f146106a9578063d5abeb01146106d2578063dd62ed3e146106fd578063e5b7f3051461073a576101c2565b8063a217fddf146105c7578063a457c2d7146105f2578063a9059cbb1461062f578063c884ef831461066c576101c2565b80638a9db765116100d15780638a9db7651461050d57806391d148541461053657806395d89b41146105735780639dc29fac1461059e576101c2565b806370a08231146104685780637ae2b5c7146104a55780638580cf76146104e2576101c2565b8063282c51f31161016457806336568abe1161013e57806336568abe146103bb57806339509351146103e45780634e71d92d14610421578063505bd3da1461042b576101c2565b8063282c51f31461033c5780632f2ff15d14610367578063313ce56714610390576101c2565b806318160ddd116101a057806318160ddd1461026c5780631adb068a1461029757806323b872dd146102c2578063248a9ca3146102ff576101c2565b806301ffc9a7146101c757806306fdde0314610204578063095ea7b31461022f575b600080fd5b3480156101d357600080fd5b506101ee60048036038101906101e9919061224b565b610763565b6040516101fb9190612654565b60405180910390f35b34801561021057600080fd5b506102196107dd565b604051610226919061268a565b60405180910390f35b34801561023b57600080fd5b506102566004803603810190610251919061219e565b61086f565b6040516102639190612654565b60405180910390f35b34801561027857600080fd5b50610281610892565b60405161028e91906128ec565b60405180910390f35b3480156102a357600080fd5b506102ac61089c565b6040516102b991906128ec565b60405180910390f35b3480156102ce57600080fd5b506102e960048036038101906102e4919061214b565b6108a2565b6040516102f69190612654565b60405180910390f35b34801561030b57600080fd5b50610326600480360381019061032191906121de565b6108d1565b604051610333919061266f565b60405180910390f35b34801561034857600080fd5b506103516108f1565b60405161035e919061266f565b60405180910390f35b34801561037357600080fd5b5061038e6004803603810190610389919061220b565b610915565b005b34801561039c57600080fd5b506103a561093e565b6040516103b29190612907565b60405180910390f35b3480156103c757600080fd5b506103e260048036038101906103dd919061220b565b610947565b005b3480156103f057600080fd5b5061040b6004803603810190610406919061219e565b6109ca565b6040516104189190612654565b60405180910390f35b610429610a74565b005b34801561043757600080fd5b50610452600480360381019061044d91906120de565b610c2c565b60405161045f91906128ec565b60405180910390f35b34801561047457600080fd5b5061048f600480360381019061048a91906120de565b610c44565b60405161049c91906128ec565b60405180910390f35b3480156104b157600080fd5b506104cc60048036038101906104c79190612278565b610c8c565b6040516104d991906128ec565b60405180910390f35b3480156104ee57600080fd5b506104f7610ca6565b604051610504919061266f565b60405180910390f35b34801561051957600080fd5b50610534600480360381019061052f919061219e565b610cca565b005b34801561054257600080fd5b5061055d6004803603810190610558919061220b565b610e31565b60405161056a9190612654565b60405180910390f35b34801561057f57600080fd5b50610588610e9c565b604051610595919061268a565b60405180910390f35b3480156105aa57600080fd5b506105c560048036038101906105c0919061219e565b610f2e565b005b3480156105d357600080fd5b506105dc610fb8565b6040516105e9919061266f565b60405180910390f35b3480156105fe57600080fd5b506106196004803603810190610614919061219e565b610fbf565b6040516106269190612654565b60405180910390f35b34801561063b57600080fd5b506106566004803603810190610651919061219e565b6110a9565b6040516106639190612654565b60405180910390f35b34801561067857600080fd5b50610693600480360381019061068e91906120de565b6110cc565b6040516106a091906128ec565b60405180910390f35b3480156106b557600080fd5b506106d060048036038101906106cb919061220b565b6110e4565b005b3480156106de57600080fd5b506106e761110d565b6040516106f491906128ec565b60405180910390f35b34801561070957600080fd5b50610724600480360381019061071f919061210b565b61111c565b60405161073191906128ec565b60405180910390f35b34801561074657600080fd5b50610761600480360381019061075c919061219e565b6111a3565b005b60007f7965db0b000000000000000000000000000000000000000000000000000000007bffffffffffffffffffffffffffffffffffffffffffffffffffffffff1916827bffffffffffffffffffffffffffffffffffffffffffffffffffffffff191614806107d657506107d58261122d565b5b9050919050565b6060600380546107ec90612b15565b80601f016020809104026020016040519081016040528092919081815260200182805461081890612b15565b80156108655780601f1061083a57610100808354040283529160200191610865565b820191906000526020600020905b81548152906001019060200180831161084857829003601f168201915b5050505050905090565b60008061087a611297565b905061088781858561129f565b600191505092915050565b6000600254905090565b60085481565b6000806108ad611297565b90506108ba85828561146a565b6108c58585856114f6565b60019150509392505050565b600060056000838152602001908152602001600020600101549050919050565b7f3c11d16cbaffd01df69ce1c404f6340ee057498f5f00246190ea54220576a84881565b61091e826108d1565b61092f8161092a611297565b611777565b6109398383611814565b505050565b60006012905090565b61094f611297565b73ffffffffffffffffffffffffffffffffffffffff168173ffffffffffffffffffffffffffffffffffffffff16146109bc576040517f08c379a00000000000000000000000000000000000000000000000000000000081526004016109b3906128ac565b60405180910390fd5b6109c682826118f5565b5050565b6000806109d5611297565b9050610a69818585600160008673ffffffffffffffffffffffffffffffffffffffff1673ffffffffffffffffffffffffffffffffffffffff16815260200190815260200160002060008973ffffffffffffffffffffffffffffffffffffffff1673ffffffffffffffffffffffffffffffffffffffff16815260200190815260200160002054610a649190612949565b61129f565b600191505092915050565b6000600660003373ffffffffffffffffffffffffffffffffffffffff1673ffffffffffffffffffffffffffffffffffffffff16815260200190815260200160002054905060008111610afb576040517f08c379a0000000000000000000000000000000000000000000000000000000008152600401610af2906127ac565b60405180910390fd5b60006008546a52b7d2dcc80cd2e4000000610b1691906129f9565b905060008111610b5b576040517f08c379a0000000000000000000000000000000000000000000000000000000008152600401610b529061270c565b60405180910390fd5b6000610b678383610c8c565b905080600760003373ffffffffffffffffffffffffffffffffffffffff1673ffffffffffffffffffffffffffffffffffffffff1681526020019081526020016000206000828254610bb89190612949565b925050819055506000600660003373ffffffffffffffffffffffffffffffffffffffff1673ffffffffffffffffffffffffffffffffffffffff168152602001908152602001600020819055508060086000828254610c169190612949565b92505081905550610c2733826119d7565b505050565b60066020528060005260406000206000915090505481565b60008060008373ffffffffffffffffffffffffffffffffffffffff1673ffffffffffffffffffffffffffffffffffffffff168152602001908152602001600020549050919050565b600081831115610c9c5781610c9e565b825b905092915050565b7fbeec13769b5f410b0584f69811bfd923818456d5edcf426b0e31cf90eed7a3f681565b610cf47fbeec13769b5f410b0584f69811bfd923818456d5edcf426b0e31cf90eed7a3f633610e31565b610d33576040517f08c379a0000000000000000000000000000000000000000000000000000000008152600401610d2a9061282c565b60405180910390fd5b6000600660008473ffffffffffffffffffffffffffffffffffffffff1673ffffffffffffffffffffffffffffffffffffffff16815260200190815260200160002054600760008573ffffffffffffffffffffffffffffffffffffffff1673ffffffffffffffffffffffffffffffffffffffff1681526020019081526020016000205483610dc091906129f9565b610dca91906129f9565b905060008111610e0f576040517f08c379a0000000000000000000000000000000000000000000000000000000008152600401610e069061286c565b60405180910390fd5b610e2c83670de0b6b3a764000083610e27919061299f565b611b37565b505050565b60006005600084815260200190815260200160002060000160008373ffffffffffffffffffffffffffffffffffffffff1673ffffffffffffffffffffffffffffffffffffffff16815260200190815260200160002060009054906101000a900460ff16905092915050565b606060048054610eab90612b15565b80601f0160208091040260200160405190810160405280929190818152602001828054610ed790612b15565b8015610f245780601f10610ef957610100808354040283529160200191610f24565b820191906000526020600020905b815481529060010190602001808311610f0757829003601f168201915b5050505050905090565b610f587f3c11d16cbaffd01df69ce1c404f6340ee057498f5f00246190ea54220576a84833610e31565b610f97576040517f08c379a0000000000000000000000000000000000000000000000000000000008152600401610f8e906127cc565b60405180910390fd5b610fb482670de0b6b3a764000083610faf919061299f565b611b91565b5050565b6000801b81565b600080610fca611297565b90506000600160008373ffffffffffffffffffffffffffffffffffffffff1673ffffffffffffffffffffffffffffffffffffffff16815260200190815260200160002060008673ffffffffffffffffffffffffffffffffffffffff1673ffffffffffffffffffffffffffffffffffffffff16815260200190815260200160002054905083811015611090576040517f08c379a00000000000000000000000000000000000000000000000000000000081526004016110879061288c565b60405180910390fd5b61109d828686840361129f565b60019250505092915050565b6000806110b4611297565b90506110c18185856114f6565b600191505092915050565b60076020528060005260406000206000915090505481565b6110ed826108d1565b6110fe816110f9611297565b611777565b61110883836118f5565b505050565b6a52b7d2dcc80cd2e400000081565b6000600160008473ffffffffffffffffffffffffffffffffffffffff1673ffffffffffffffffffffffffffffffffffffffff16815260200190815260200160002060008373ffffffffffffffffffffffffffffffffffffffff1673ffffffffffffffffffffffffffffffffffffffff16815260200190815260200160002054905092915050565b6111cd7fbeec13769b5f410b0584f69811bfd923818456d5edcf426b0e31cf90eed7a3f633610e31565b61120c576040517f08c379a00000000000000000000000000000000000000000000000000000000081526004016112039061282c565b60405180910390fd5b61122982670de0b6b3a764000083611224919061299f565b611d68565b5050565b60007f01ffc9a7000000000000000000000000000000000000000000000000000000007bffffffffffffffffffffffffffffffffffffffffffffffffffffffff1916827bffffffffffffffffffffffffffffffffffffffffffffffffffffffff1916149050919050565b600033905090565b600073ffffffffffffffffffffffffffffffffffffffff168373ffffffffffffffffffffffffffffffffffffffff16141561130f576040517f08c379a00000000000000000000000000000000000000000000000000000000081526004016113069061284c565b60405180910390fd5b600073ffffffffffffffffffffffffffffffffffffffff168273ffffffffffffffffffffffffffffffffffffffff16141561137f576040517f08c379a00000000000000000000000000000000000000000000000000000000081526004016113769061274c565b60405180910390fd5b80600160008573ffffffffffffffffffffffffffffffffffffffff1673ffffffffffffffffffffffffffffffffffffffff16815260200190815260200160002060008473ffffffffffffffffffffffffffffffffffffffff1673ffffffffffffffffffffffffffffffffffffffff168152602001908152602001600020819055508173ffffffffffffffffffffffffffffffffffffffff168373ffffffffffffffffffffffffffffffffffffffff167f8c5be1e5ebec7d5bd14f71427d1e84f3dd0314c0f7b2291e5b200ac8c7c3b9258360405161145d91906128ec565b60405180910390a3505050565b6000611476848461111c565b90507fffffffffffffffffffffffffffffffffffffffffffffffffffffffffffffffff81146114f057818110156114e2576040517f08c379a00000000000000000000000000000000000000000000000000000000081526004016114d99061276c565b60405180910390fd5b6114ef848484840361129f565b5b50505050565b600073ffffffffffffffffffffffffffffffffffffffff168373ffffffffffffffffffffffffffffffffffffffff161415611566576040517f08c379a000000000000000000000000000000000000000000000000000000000815260040161155d9061280c565b60405180910390fd5b600073ffffffffffffffffffffffffffffffffffffffff168273ffffffffffffffffffffffffffffffffffffffff1614156115d6576040517f08c379a00000000000000000000000000000000000000000000000000000000081526004016115cd906126cc565b60405180910390fd5b6115e1838383611e44565b60008060008573ffffffffffffffffffffffffffffffffffffffff1673ffffffffffffffffffffffffffffffffffffffff16815260200190815260200160002054905081811015611667576040517f08c379a000000000000000000000000000000000000000000000000000000000815260040161165e9061278c565b60405180910390fd5b8181036000808673ffffffffffffffffffffffffffffffffffffffff1673ffffffffffffffffffffffffffffffffffffffff16815260200190815260200160002081905550816000808573ffffffffffffffffffffffffffffffffffffffff1673ffffffffffffffffffffffffffffffffffffffff16815260200190815260200160002060008282546116fa9190612949565b925050819055508273ffffffffffffffffffffffffffffffffffffffff168473ffffffffffffffffffffffffffffffffffffffff167fddf252ad1be2c89b69c2b068fc378daa952ba7f163c4a11628f55a4df523b3ef8460405161175e91906128ec565b60405180910390a3611771848484611e49565b50505050565b6117818282610e31565b611810576117a68173ffffffffffffffffffffffffffffffffffffffff166014611e4e565b6117b48360001c6020611e4e565b6040516020016117c592919061261a565b6040516020818303038152906040526040517f08c379a0000000000000000000000000000000000000000000000000000000008152600401611807919061268a565b60405180910390fd5b5050565b61181e8282610e31565b6118f15760016005600084815260200190815260200160002060000160008373ffffffffffffffffffffffffffffffffffffffff1673ffffffffffffffffffffffffffffffffffffffff16815260200190815260200160002060006101000a81548160ff021916908315150217905550611896611297565b73ffffffffffffffffffffffffffffffffffffffff168173ffffffffffffffffffffffffffffffffffffffff16837f2f8788117e7eff1d82e926ec794901d17c78024a50270940304540a733656f0d60405160405180910390a45b5050565b6118ff8282610e31565b156119d35760006005600084815260200190815260200160002060000160008373ffffffffffffffffffffffffffffffffffffffff1673ffffffffffffffffffffffffffffffffffffffff16815260200190815260200160002060006101000a81548160ff021916908315150217905550611978611297565b73ffffffffffffffffffffffffffffffffffffffff168173ffffffffffffffffffffffffffffffffffffffff16837ff6391f5c32d9c69d2a47ea670b442974b53935d1edc7fd64eb21e047a839171b60405160405180910390a45b5050565b600073ffffffffffffffffffffffffffffffffffffffff168273ffffffffffffffffffffffffffffffffffffffff161415611a47576040517f08c379a0000000000000000000000000000000000000000000000000000000008152600401611a3e906128cc565b60405180910390fd5b611a5360008383611e44565b8060026000828254611a659190612949565b92505081905550806000808473ffffffffffffffffffffffffffffffffffffffff1673ffffffffffffffffffffffffffffffffffffffff1681526020019081526020016000206000828254611aba9190612949565b925050819055508173ffffffffffffffffffffffffffffffffffffffff16600073ffffffffffffffffffffffffffffffffffffffff167fddf252ad1be2c89b69c2b068fc378daa952ba7f163c4a11628f55a4df523b3ef83604051611b1f91906128ec565b60405180910390a3611b3360008383611e49565b5050565b80600660008473ffffffffffffffffffffffffffffffffffffffff1673ffffffffffffffffffffffffffffffffffffffff1681526020019081526020016000206000828254611b869190612949565b925050819055505050565b600073ffffffffffffffffffffffffffffffffffffffff168273ffffffffffffffffffffffffffffffffffffffff161415611c01576040517f08c379a0000000000000000000000000000000000000000000000000000000008152600401611bf8906127ec565b60405180910390fd5b611c0d82600083611e44565b60008060008473ffffffffffffffffffffffffffffffffffffffff1673ffffffffffffffffffffffffffffffffffffffff16815260200190815260200160002054905081811015611c93576040517f08c379a0000000000000000000000000000000000000000000000000000000008152600401611c8a9061272c565b60405180910390fd5b8181036000808573ffffffffffffffffffffffffffffffffffffffff1673ffffffffffffffffffffffffffffffffffffffff168152602001908152602001600020819055508160026000828254611cea91906129f9565b92505081905550600073ffffffffffffffffffffffffffffffffffffffff168373ffffffffffffffffffffffffffffffffffffffff167fddf252ad1be2c89b69c2b068fc378daa952ba7f163c4a11628f55a4df523b3ef84604051611d4f91906128ec565b60405180910390a3611d6383600084611e49565b505050565b600660008373ffffffffffffffffffffffffffffffffffffffff1673ffffffffffffffffffffffffffffffffffffffff16815260200190815260200160002054811115611dea576040517f08c379a0000000000000000000000000000000000000000000000000000000008152600401611de1906126ec565b60405180910390fd5b80600660008473ffffffffffffffffffffffffffffffffffffffff1673ffffffffffffffffffffffffffffffffffffffff1681526020019081526020016000206000828254611e3991906129f9565b925050819055505050565b505050565b505050565b606060006002836002611e61919061299f565b611e6b9190612949565b67ffffffffffffffff811115611e8457611e83612bd4565b5b6040519080825280601f01601f191660200182016040528015611eb65781602001600182028036833780820191505090505b5090507f300000000000000000000000000000000000000000000000000000000000000081600081518110611eee57611eed612ba5565b5b60200101907effffffffffffffffffffffffffffffffffffffffffffffffffffffffffffff1916908160001a9053507f780000000000000000000000000000000000000000000000000000000000000081600181518110611f5257611f51612ba5565b5b60200101907effffffffffffffffffffffffffffffffffffffffffffffffffffffffffffff1916908160001a90535060006001846002611f92919061299f565b611f9c9190612949565b90505b600181111561203c577f3031323334353637383961626364656600000000000000000000000000000000600f861660108110611fde57611fdd612ba5565b5b1a60f81b828281518110611ff557611ff4612ba5565b5b60200101907effffffffffffffffffffffffffffffffffffffffffffffffffffffffffffff1916908160001a905350600485901c94508061203590612aeb565b9050611f9f565b5060008414612080576040517f08c379a0000000000000000000000000000000000000000000000000000000008152600401612077906126ac565b60405180910390fd5b8091505092915050565b60008135905061209981613115565b92915050565b6000813590506120ae8161312c565b92915050565b6000813590506120c381613143565b92915050565b6000813590506120d88161315a565b92915050565b6000602082840312156120f4576120f3612c03565b5b60006121028482850161208a565b91505092915050565b6000806040838503121561212257612121612c03565b5b60006121308582860161208a565b92505060206121418582860161208a565b9150509250929050565b60008060006060848603121561216457612163612c03565b5b60006121728682870161208a565b93505060206121838682870161208a565b9250506040612194868287016120c9565b9150509250925092565b600080604083850312156121b5576121b4612c03565b5b60006121c38582860161208a565b92505060206121d4858286016120c9565b9150509250929050565b6000602082840312156121f4576121f3612c03565b5b60006122028482850161209f565b91505092915050565b6000806040838503121561222257612221612c03565b5b60006122308582860161209f565b92505060206122418582860161208a565b9150509250929050565b60006020828403121561226157612260612c03565b5b600061226f848285016120b4565b91505092915050565b6000806040838503121561228f5761228e612c03565b5b600061229d858286016120c9565b92505060206122ae858286016120c9565b9150509250929050565b6122c181612a3f565b82525050565b6122d081612a4b565b82525050565b60006122e182612922565b6122eb818561292d565b93506122fb818560208601612ab8565b61230481612c08565b840191505092915050565b600061231a82612922565b612324818561293e565b9350612334818560208601612ab8565b80840191505092915050565b600061234d60208361292d565b915061235882612c19565b602082019050919050565b600061237060238361292d565b915061237b82612c42565b604082019050919050565b600061239360388361292d565b915061239e82612c91565b604082019050919050565b60006123b660228361292d565b91506123c182612ce0565b604082019050919050565b60006123d960228361292d565b91506123e482612d2f565b604082019050919050565b60006123fc60228361292d565b915061240782612d7e565b604082019050919050565b600061241f601d8361292d565b915061242a82612dcd565b602082019050919050565b600061244260268361292d565b915061244d82612df6565b604082019050919050565b600061246560288361292d565b915061247082612e45565b604082019050919050565b600061248860168361292d565b915061249382612e94565b602082019050919050565b60006124ab60218361292d565b91506124b682612ebd565b604082019050919050565b60006124ce60258361292d565b91506124d982612f0c565b604082019050919050565b60006124f160188361292d565b91506124fc82612f5b565b602082019050919050565b600061251460248361292d565b915061251f82612f84565b604082019050919050565b600061253760208361292d565b915061254282612fd3565b602082019050919050565b600061255a60178361293e565b915061256582612ffc565b601782019050919050565b600061257d60258361292d565b915061258882613025565b604082019050919050565b60006125a060118361293e565b91506125ab82613074565b601182019050919050565b60006125c3602f8361292d565b91506125ce8261309d565b604082019050919050565b60006125e6601f8361292d565b91506125f1826130ec565b602082019050919050565b61260581612aa1565b82525050565b61261481612aab565b82525050565b60006126258261254d565b9150612631828561230f565b915061263c82612593565b9150612648828461230f565b91508190509392505050565b600060208201905061266960008301846122b8565b92915050565b600060208201905061268460008301846122c7565b92915050565b600060208201905081810360008301526126a481846122d6565b905092915050565b600060208201905081810360008301526126c581612340565b9050919050565b600060208201905081810360008301526126e581612363565b9050919050565b6000602082019050818103600083015261270581612386565b9050919050565b60006020820190508181036000830152612725816123a9565b9050919050565b60006020820190508181036000830152612745816123cc565b9050919050565b60006020820190508181036000830152612765816123ef565b9050919050565b6000602082019050818103600083015261278581612412565b9050919050565b600060208201905081810360008301526127a581612435565b9050919050565b600060208201905081810360008301526127c581612458565b9050919050565b600060208201905081810360008301526127e58161247b565b9050919050565b600060208201905081810360008301526128058161249e565b9050919050565b60006020820190508181036000830152612825816124c1565b9050919050565b60006020820190508181036000830152612845816124e4565b9050919050565b6000602082019050818103600083015261286581612507565b9050919050565b600060208201905081810360008301526128858161252a565b9050919050565b600060208201905081810360008301526128a581612570565b9050919050565b600060208201905081810360008301526128c5816125b6565b9050919050565b600060208201905081810360008301526128e5816125d9565b9050919050565b600060208201905061290160008301846125fc565b92915050565b600060208201905061291c600083018461260b565b92915050565b600081519050919050565b600082825260208201905092915050565b600081905092915050565b600061295482612aa1565b915061295f83612aa1565b9250827fffffffffffffffffffffffffffffffffffffffffffffffffffffffffffffffff0382111561299457612993612b47565b5b828201905092915050565b60006129aa82612aa1565b91506129b583612aa1565b9250817fffffffffffffffffffffffffffffffffffffffffffffffffffffffffffffffff04831182151516156129ee576129ed612b47565b5b828202905092915050565b6000612a0482612aa1565b9150612a0f83612aa1565b925082821015612a2257612a21612b47565b5b828203905092915050565b6000612a3882612a81565b9050919050565b60008115159050919050565b6000819050919050565b60007fffffffff0000000000000000000000000000000000000000000000000000000082169050919050565b600073ffffffffffffffffffffffffffffffffffffffff82169050919050565b6000819050919050565b600060ff82169050919050565b60005b83811015612ad6578082015181840152602081019050612abb565b83811115612ae5576000848401525b50505050565b6000612af682612aa1565b91506000821415612b0a57612b09612b47565b5b600182039050919050565b60006002820490506001821680612b2d57607f821691505b60208210811415612b4157612b40612b76565b5b50919050565b7f4e487b7100000000000000000000000000000000000000000000000000000000600052601160045260246000fd5b7f4e487b7100000000000000000000000000000000000000000000000000000000600052602260045260246000fd5b7f4e487b7100000000000000000000000000000000000000000000000000000000600052603260045260246000fd5b7f4e487b7100000000000000000000000000000000000000000000000000000000600052604160045260246000fd5b600080fd5b6000601f19601f8301169050919050565b7f537472696e67733a20686578206c656e67746820696e73756666696369656e74600082015250565b7f45524332303a207472616e7366657220746f20746865207a65726f206164647260008201527f6573730000000000000000000000000000000000000000000000000000000000602082015250565b7f416d6f756e7420746f2072656d6f76652063616e6e6f7420626520677265617460008201527f6572207468616e20756e636c61696d656420616d6f756e740000000000000000602082015250565b7f546865206d617820737570706c7920686173206265656e20657868617573746560008201527f642e000000000000000000000000000000000000000000000000000000000000602082015250565b7f45524332303a206275726e20616d6f756e7420657863656564732062616c616e60008201527f6365000000000000000000000000000000000000000000000000000000000000602082015250565b7f45524332303a20617070726f766520746f20746865207a65726f20616464726560008201527f7373000000000000000000000000000000000000000000000000000000000000602082015250565b7f45524332303a20696e73756666696369656e7420616c6c6f77616e6365000000600082015250565b7f45524332303a207472616e7366657220616d6f756e742065786365656473206260008201527f616c616e63650000000000000000000000000000000000000000000000000000602082015250565b7f556e636c61696d65642062616c616e6365206d7573742062652067726561746560008201527f72207468616e2030000000000000000000000000000000000000000000000000602082015250565b7f43616c6c6572206973206e6f742061206275726e657200000000000000000000600082015250565b7f45524332303a206275726e2066726f6d20746865207a65726f2061646472657360008201527f7300000000000000000000000000000000000000000000000000000000000000602082015250565b7f45524332303a207472616e736665722066726f6d20746865207a65726f20616460008201527f6472657373000000000000000000000000000000000000000000000000000000602082015250565b7f43616c6c6572206973206e6f7420612072657761726465720000000000000000600082015250565b7f45524332303a20617070726f76652066726f6d20746865207a65726f2061646460008201527f7265737300000000000000000000000000000000000000000000000000000000602082015250565b7f636c61696d61626c65206d7573742062652067726561746572207468616e2030600082015250565b7f416363657373436f6e74726f6c3a206163636f756e7420000000000000000000600082015250565b7f45524332303a2064656372656173656420616c6c6f77616e63652062656c6f7760008201527f207a65726f000000000000000000000000000000000000000000000000000000602082015250565b7f206973206d697373696e6720726f6c6520000000000000000000000000000000600082015250565b7f416363657373436f6e74726f6c3a2063616e206f6e6c792072656e6f756e636560008201527f20726f6c657320666f722073656c660000000000000000000000000000000000602082015250565b7f45524332303a206d696e7420746f20746865207a65726f206164647265737300600082015250565b61311e81612a2d565b811461312957600080fd5b50565b61313581612a4b565b811461314057600080fd5b50565b61314c81612a55565b811461315757600080fd5b50565b61316381612aa1565b811461316e57600080fd5b5056fea26469706673582212203d494aa226c2dcc4ae6a0c5934f85600dfe4ebe1d65cd15bc921100647ea783664736f6c63430008070033",
					"opcodes": "PUSH1 0x80 PUSH1 0x40 MSTORE CALLVALUE DUP1 ISZERO PUSH3 0x11 JUMPI PUSH1 0x0 DUP1 REVERT JUMPDEST POP PUSH1 0x40 MLOAD DUP1 PUSH1 0x40 ADD PUSH1 0x40 MSTORE DUP1 PUSH1 0x9 DUP2 MSTORE PUSH1 0x20 ADD PUSH32 0x466F6F20546F6B656E0000000000000000000000000000000000000000000000 DUP2 MSTORE POP PUSH1 0x40 MLOAD DUP1 PUSH1 0x40 ADD PUSH1 0x40 MSTORE DUP1 PUSH1 0x3 DUP2 MSTORE PUSH1 0x20 ADD PUSH32 0x464F4F0000000000000000000000000000000000000000000000000000000000 DUP2 MSTORE POP DUP2 PUSH1 0x3 SWAP1 DUP1 MLOAD SWAP1 PUSH1 0x20 ADD SWAP1 PUSH3 0x96 SWAP3 SWAP2 SWAP1 PUSH3 0x248 JUMP JUMPDEST POP DUP1 PUSH1 0x4 SWAP1 DUP1 MLOAD SWAP1 PUSH1 0x20 ADD SWAP1 PUSH3 0xAF SWAP3 SWAP2 SWAP1 PUSH3 0x248 JUMP JUMPDEST POP POP POP PUSH3 0xC7 PUSH1 0x0 DUP1 SHL CALLER PUSH3 0xCD PUSH1 0x20 SHL PUSH1 0x20 SHR JUMP JUMPDEST PUSH3 0x35D JUMP JUMPDEST PUSH3 0xDF DUP3 DUP3 PUSH3 0xE3 PUSH1 0x20 SHL PUSH1 0x20 SHR JUMP JUMPDEST POP POP JUMP JUMPDEST PUSH3 0xF5 DUP3 DUP3 PUSH3 0x1D5 PUSH1 0x20 SHL PUSH1 0x20 SHR JUMP JUMPDEST PUSH3 0x1D1 JUMPI PUSH1 0x1 PUSH1 0x5 PUSH1 0x0 DUP5 DUP2 MSTORE PUSH1 0x20 ADD SWAP1 DUP2 MSTORE PUSH1 0x20 ADD PUSH1 0x0 KECCAK256 PUSH1 0x0 ADD PUSH1 0x0 DUP4 PUSH20 0xFFFFFFFFFFFFFFFFFFFFFFFFFFFFFFFFFFFFFFFF AND PUSH20 0xFFFFFFFFFFFFFFFFFFFFFFFFFFFFFFFFFFFFFFFF AND DUP2 MSTORE PUSH1 0x20 ADD SWAP1 DUP2 MSTORE PUSH1 0x20 ADD PUSH1 0x0 KECCAK256 PUSH1 0x0 PUSH2 0x100 EXP DUP2 SLOAD DUP2 PUSH1 0xFF MUL NOT AND SWAP1 DUP4 ISZERO ISZERO MUL OR SWAP1 SSTORE POP PUSH3 0x176 PUSH3 0x240 PUSH1 0x20 SHL PUSH1 0x20 SHR JUMP JUMPDEST PUSH20 0xFFFFFFFFFFFFFFFFFFFFFFFFFFFFFFFFFFFFFFFF AND DUP2 PUSH20 0xFFFFFFFFFFFFFFFFFFFFFFFFFFFFFFFFFFFFFFFF AND DUP4 PUSH32 0x2F8788117E7EFF1D82E926EC794901D17C78024A50270940304540A733656F0D PUSH1 0x40 MLOAD PUSH1 0x40 MLOAD DUP1 SWAP2 SUB SWAP1 LOG4 JUMPDEST POP POP JUMP JUMPDEST PUSH1 0x0 PUSH1 0x5 PUSH1 0x0 DUP5 DUP2 MSTORE PUSH1 0x20 ADD SWAP1 DUP2 MSTORE PUSH1 0x20 ADD PUSH1 0x0 KECCAK256 PUSH1 0x0 ADD PUSH1 0x0 DUP4 PUSH20 0xFFFFFFFFFFFFFFFFFFFFFFFFFFFFFFFFFFFFFFFF AND PUSH20 0xFFFFFFFFFFFFFFFFFFFFFFFFFFFFFFFFFFFFFFFF AND DUP2 MSTORE PUSH1 0x20 ADD SWAP1 DUP2 MSTORE PUSH1 0x20 ADD PUSH1 0x0 KECCAK256 PUSH1 0x0 SWAP1 SLOAD SWAP1 PUSH2 0x100 EXP SWAP1 DIV PUSH1 0xFF AND SWAP1 POP SWAP3 SWAP2 POP POP JUMP JUMPDEST PUSH1 0x0 CALLER SWAP1 POP SWAP1 JUMP JUMPDEST DUP3 DUP1 SLOAD PUSH3 0x256 SWAP1 PUSH3 0x2F8 JUMP JUMPDEST SWAP1 PUSH1 0x0 MSTORE PUSH1 0x20 PUSH1 0x0 KECCAK256 SWAP1 PUSH1 0x1F ADD PUSH1 0x20 SWAP1 DIV DUP2 ADD SWAP3 DUP3 PUSH3 0x27A JUMPI PUSH1 0x0 DUP6 SSTORE PUSH3 0x2C6 JUMP JUMPDEST DUP3 PUSH1 0x1F LT PUSH3 0x295 JUMPI DUP1 MLOAD PUSH1 0xFF NOT AND DUP4 DUP1 ADD OR DUP6 SSTORE PUSH3 0x2C6 JUMP JUMPDEST DUP3 DUP1 ADD PUSH1 0x1 ADD DUP6 SSTORE DUP3 ISZERO PUSH3 0x2C6 JUMPI SWAP2 DUP3 ADD JUMPDEST DUP3 DUP2 GT ISZERO PUSH3 0x2C5 JUMPI DUP3 MLOAD DUP3 SSTORE SWAP2 PUSH1 0x20 ADD SWAP2 SWAP1 PUSH1 0x1 ADD SWAP1 PUSH3 0x2A8 JUMP JUMPDEST JUMPDEST POP SWAP1 POP PUSH3 0x2D5 SWAP2 SWAP1 PUSH3 0x2D9 JUMP JUMPDEST POP SWAP1 JUMP JUMPDEST JUMPDEST DUP1 DUP3 GT ISZERO PUSH3 0x2F4 JUMPI PUSH1 0x0 DUP2 PUSH1 0x0 SWAP1 SSTORE POP PUSH1 0x1 ADD PUSH3 0x2DA JUMP JUMPDEST POP SWAP1 JUMP JUMPDEST PUSH1 0x0 PUSH1 0x2 DUP3 DIV SWAP1 POP PUSH1 0x1 DUP3 AND DUP1 PUSH3 0x311 JUMPI PUSH1 0x7F DUP3 AND SWAP2 POP JUMPDEST PUSH1 0x20 DUP3 LT DUP2 EQ ISZERO PUSH3 0x328 JUMPI PUSH3 0x327 PUSH3 0x32E JUMP JUMPDEST JUMPDEST POP SWAP2 SWAP1 POP JUMP JUMPDEST PUSH32 0x4E487B7100000000000000000000000000000000000000000000000000000000 PUSH1 0x0 MSTORE PUSH1 0x22 PUSH1 0x4 MSTORE PUSH1 0x24 PUSH1 0x0 REVERT JUMPDEST PUSH2 0x31A7 DUP1 PUSH3 0x36D PUSH1 0x0 CODECOPY PUSH1 0x0 RETURN INVALID PUSH1 0x80 PUSH1 0x40 MSTORE PUSH1 0x4 CALLDATASIZE LT PUSH2 0x1C2 JUMPI PUSH1 0x0 CALLDATALOAD PUSH1 0xE0 SHR DUP1 PUSH4 0x70A08231 GT PUSH2 0xF7 JUMPI DUP1 PUSH4 0xA217FDDF GT PUSH2 0x95 JUMPI DUP1 PUSH4 0xD547741F GT PUSH2 0x64 JUMPI DUP1 PUSH4 0xD547741F EQ PUSH2 0x6A9 JUMPI DUP1 PUSH4 0xD5ABEB01 EQ PUSH2 0x6D2 JUMPI DUP1 PUSH4 0xDD62ED3E EQ PUSH2 0x6FD JUMPI DUP1 PUSH4 0xE5B7F305 EQ PUSH2 0x73A JUMPI PUSH2 0x1C2 JUMP JUMPDEST DUP1 PUSH4 0xA217FDDF EQ PUSH2 0x5C7 JUMPI DUP1 PUSH4 0xA457C2D7 EQ PUSH2 0x5F2 JUMPI DUP1 PUSH4 0xA9059CBB EQ PUSH2 0x62F JUMPI DUP1 PUSH4 0xC884EF83 EQ PUSH2 0x66C JUMPI PUSH2 0x1C2 JUMP JUMPDEST DUP1 PUSH4 0x8A9DB765 GT PUSH2 0xD1 JUMPI DUP1 PUSH4 0x8A9DB765 EQ PUSH2 0x50D JUMPI DUP1 PUSH4 0x91D14854 EQ PUSH2 0x536 JUMPI DUP1 PUSH4 0x95D89B41 EQ PUSH2 0x573 JUMPI DUP1 PUSH4 0x9DC29FAC EQ PUSH2 0x59E JUMPI PUSH2 0x1C2 JUMP JUMPDEST DUP1 PUSH4 0x70A08231 EQ PUSH2 0x468 JUMPI DUP1 PUSH4 0x7AE2B5C7 EQ PUSH2 0x4A5 JUMPI DUP1 PUSH4 0x8580CF76 EQ PUSH2 0x4E2 JUMPI PUSH2 0x1C2 JUMP JUMPDEST DUP1 PUSH4 0x282C51F3 GT PUSH2 0x164 JUMPI DUP1 PUSH4 0x36568ABE GT PUSH2 0x13E JUMPI DUP1 PUSH4 0x36568ABE EQ PUSH2 0x3BB JUMPI DUP1 PUSH4 0x39509351 EQ PUSH2 0x3E4 JUMPI DUP1 PUSH4 0x4E71D92D EQ PUSH2 0x421 JUMPI DUP1 PUSH4 0x505BD3DA EQ PUSH2 0x42B JUMPI PUSH2 0x1C2 JUMP JUMPDEST DUP1 PUSH4 0x282C51F3 EQ PUSH2 0x33C JUMPI DUP1 PUSH4 0x2F2FF15D EQ PUSH2 0x367 JUMPI DUP1 PUSH4 0x313CE567 EQ PUSH2 0x390 JUMPI PUSH2 0x1C2 JUMP JUMPDEST DUP1 PUSH4 0x18160DDD GT PUSH2 0x1A0 JUMPI DUP1 PUSH4 0x18160DDD EQ PUSH2 0x26C JUMPI DUP1 PUSH4 0x1ADB068A EQ PUSH2 0x297 JUMPI DUP1 PUSH4 0x23B872DD EQ PUSH2 0x2C2 JUMPI DUP1 PUSH4 0x248A9CA3 EQ PUSH2 0x2FF JUMPI PUSH2 0x1C2 JUMP JUMPDEST DUP1 PUSH4 0x1FFC9A7 EQ PUSH2 0x1C7 JUMPI DUP1 PUSH4 0x6FDDE03 EQ PUSH2 0x204 JUMPI DUP1 PUSH4 0x95EA7B3 EQ PUSH2 0x22F JUMPI JUMPDEST PUSH1 0x0 DUP1 REVERT JUMPDEST CALLVALUE DUP1 ISZERO PUSH2 0x1D3 JUMPI PUSH1 0x0 DUP1 REVERT JUMPDEST POP PUSH2 0x1EE PUSH1 0x4 DUP1 CALLDATASIZE SUB DUP2 ADD SWAP1 PUSH2 0x1E9 SWAP2 SWAP1 PUSH2 0x224B JUMP JUMPDEST PUSH2 0x763 JUMP JUMPDEST PUSH1 0x40 MLOAD PUSH2 0x1FB SWAP2 SWAP1 PUSH2 0x2654 JUMP JUMPDEST PUSH1 0x40 MLOAD DUP1 SWAP2 SUB SWAP1 RETURN JUMPDEST CALLVALUE DUP1 ISZERO PUSH2 0x210 JUMPI PUSH1 0x0 DUP1 REVERT JUMPDEST POP PUSH2 0x219 PUSH2 0x7DD JUMP JUMPDEST PUSH1 0x40 MLOAD PUSH2 0x226 SWAP2 SWAP1 PUSH2 0x268A JUMP JUMPDEST PUSH1 0x40 MLOAD DUP1 SWAP2 SUB SWAP1 RETURN JUMPDEST CALLVALUE DUP1 ISZERO PUSH2 0x23B JUMPI PUSH1 0x0 DUP1 REVERT JUMPDEST POP PUSH2 0x256 PUSH1 0x4 DUP1 CALLDATASIZE SUB DUP2 ADD SWAP1 PUSH2 0x251 SWAP2 SWAP1 PUSH2 0x219E JUMP JUMPDEST PUSH2 0x86F JUMP JUMPDEST PUSH1 0x40 MLOAD PUSH2 0x263 SWAP2 SWAP1 PUSH2 0x2654 JUMP JUMPDEST PUSH1 0x40 MLOAD DUP1 SWAP2 SUB SWAP1 RETURN JUMPDEST CALLVALUE DUP1 ISZERO PUSH2 0x278 JUMPI PUSH1 0x0 DUP1 REVERT JUMPDEST POP PUSH2 0x281 PUSH2 0x892 JUMP JUMPDEST PUSH1 0x40 MLOAD PUSH2 0x28E SWAP2 SWAP1 PUSH2 0x28EC JUMP JUMPDEST PUSH1 0x40 MLOAD DUP1 SWAP2 SUB SWAP1 RETURN JUMPDEST CALLVALUE DUP1 ISZERO PUSH2 0x2A3 JUMPI PUSH1 0x0 DUP1 REVERT JUMPDEST POP PUSH2 0x2AC PUSH2 0x89C JUMP JUMPDEST PUSH1 0x40 MLOAD PUSH2 0x2B9 SWAP2 SWAP1 PUSH2 0x28EC JUMP JUMPDEST PUSH1 0x40 MLOAD DUP1 SWAP2 SUB SWAP1 RETURN JUMPDEST CALLVALUE DUP1 ISZERO PUSH2 0x2CE JUMPI PUSH1 0x0 DUP1 REVERT JUMPDEST POP PUSH2 0x2E9 PUSH1 0x4 DUP1 CALLDATASIZE SUB DUP2 ADD SWAP1 PUSH2 0x2E4 SWAP2 SWAP1 PUSH2 0x214B JUMP JUMPDEST PUSH2 0x8A2 JUMP JUMPDEST PUSH1 0x40 MLOAD PUSH2 0x2F6 SWAP2 SWAP1 PUSH2 0x2654 JUMP JUMPDEST PUSH1 0x40 MLOAD DUP1 SWAP2 SUB SWAP1 RETURN JUMPDEST CALLVALUE DUP1 ISZERO PUSH2 0x30B JUMPI PUSH1 0x0 DUP1 REVERT JUMPDEST POP PUSH2 0x326 PUSH1 0x4 DUP1 CALLDATASIZE SUB DUP2 ADD SWAP1 PUSH2 0x321 SWAP2 SWAP1 PUSH2 0x21DE JUMP JUMPDEST PUSH2 0x8D1 JUMP JUMPDEST PUSH1 0x40 MLOAD PUSH2 0x333 SWAP2 SWAP1 PUSH2 0x266F JUMP JUMPDEST PUSH1 0x40 MLOAD DUP1 SWAP2 SUB SWAP1 RETURN JUMPDEST CALLVALUE DUP1 ISZERO PUSH2 0x348 JUMPI PUSH1 0x0 DUP1 REVERT JUMPDEST POP PUSH2 0x351 PUSH2 0x8F1 JUMP JUMPDEST PUSH1 0x40 MLOAD PUSH2 0x35E SWAP2 SWAP1 PUSH2 0x266F JUMP JUMPDEST PUSH1 0x40 MLOAD DUP1 SWAP2 SUB SWAP1 RETURN JUMPDEST CALLVALUE DUP1 ISZERO PUSH2 0x373 JUMPI PUSH1 0x0 DUP1 REVERT JUMPDEST POP PUSH2 0x38E PUSH1 0x4 DUP1 CALLDATASIZE SUB DUP2 ADD SWAP1 PUSH2 0x389 SWAP2 SWAP1 PUSH2 0x220B JUMP JUMPDEST PUSH2 0x915 JUMP JUMPDEST STOP JUMPDEST CALLVALUE DUP1 ISZERO PUSH2 0x39C JUMPI PUSH1 0x0 DUP1 REVERT JUMPDEST POP PUSH2 0x3A5 PUSH2 0x93E JUMP JUMPDEST PUSH1 0x40 MLOAD PUSH2 0x3B2 SWAP2 SWAP1 PUSH2 0x2907 JUMP JUMPDEST PUSH1 0x40 MLOAD DUP1 SWAP2 SUB SWAP1 RETURN JUMPDEST CALLVALUE DUP1 ISZERO PUSH2 0x3C7 JUMPI PUSH1 0x0 DUP1 REVERT JUMPDEST POP PUSH2 0x3E2 PUSH1 0x4 DUP1 CALLDATASIZE SUB DUP2 ADD SWAP1 PUSH2 0x3DD SWAP2 SWAP1 PUSH2 0x220B JUMP JUMPDEST PUSH2 0x947 JUMP JUMPDEST STOP JUMPDEST CALLVALUE DUP1 ISZERO PUSH2 0x3F0 JUMPI PUSH1 0x0 DUP1 REVERT JUMPDEST POP PUSH2 0x40B PUSH1 0x4 DUP1 CALLDATASIZE SUB DUP2 ADD SWAP1 PUSH2 0x406 SWAP2 SWAP1 PUSH2 0x219E JUMP JUMPDEST PUSH2 0x9CA JUMP JUMPDEST PUSH1 0x40 MLOAD PUSH2 0x418 SWAP2 SWAP1 PUSH2 0x2654 JUMP JUMPDEST PUSH1 0x40 MLOAD DUP1 SWAP2 SUB SWAP1 RETURN JUMPDEST PUSH2 0x429 PUSH2 0xA74 JUMP JUMPDEST STOP JUMPDEST CALLVALUE DUP1 ISZERO PUSH2 0x437 JUMPI PUSH1 0x0 DUP1 REVERT JUMPDEST POP PUSH2 0x452 PUSH1 0x4 DUP1 CALLDATASIZE SUB DUP2 ADD SWAP1 PUSH2 0x44D SWAP2 SWAP1 PUSH2 0x20DE JUMP JUMPDEST PUSH2 0xC2C JUMP JUMPDEST PUSH1 0x40 MLOAD PUSH2 0x45F SWAP2 SWAP1 PUSH2 0x28EC JUMP JUMPDEST PUSH1 0x40 MLOAD DUP1 SWAP2 SUB SWAP1 RETURN JUMPDEST CALLVALUE DUP1 ISZERO PUSH2 0x474 JUMPI PUSH1 0x0 DUP1 REVERT JUMPDEST POP PUSH2 0x48F PUSH1 0x4 DUP1 CALLDATASIZE SUB DUP2 ADD SWAP1 PUSH2 0x48A SWAP2 SWAP1 PUSH2 0x20DE JUMP JUMPDEST PUSH2 0xC44 JUMP JUMPDEST PUSH1 0x40 MLOAD PUSH2 0x49C SWAP2 SWAP1 PUSH2 0x28EC JUMP JUMPDEST PUSH1 0x40 MLOAD DUP1 SWAP2 SUB SWAP1 RETURN JUMPDEST CALLVALUE DUP1 ISZERO PUSH2 0x4B1 JUMPI PUSH1 0x0 DUP1 REVERT JUMPDEST POP PUSH2 0x4CC PUSH1 0x4 DUP1 CALLDATASIZE SUB DUP2 ADD SWAP1 PUSH2 0x4C7 SWAP2 SWAP1 PUSH2 0x2278 JUMP JUMPDEST PUSH2 0xC8C JUMP JUMPDEST PUSH1 0x40 MLOAD PUSH2 0x4D9 SWAP2 SWAP1 PUSH2 0x28EC JUMP JUMPDEST PUSH1 0x40 MLOAD DUP1 SWAP2 SUB SWAP1 RETURN JUMPDEST CALLVALUE DUP1 ISZERO PUSH2 0x4EE JUMPI PUSH1 0x0 DUP1 REVERT JUMPDEST POP PUSH2 0x4F7 PUSH2 0xCA6 JUMP JUMPDEST PUSH1 0x40 MLOAD PUSH2 0x504 SWAP2 SWAP1 PUSH2 0x266F JUMP JUMPDEST PUSH1 0x40 MLOAD DUP1 SWAP2 SUB SWAP1 RETURN JUMPDEST CALLVALUE DUP1 ISZERO PUSH2 0x519 JUMPI PUSH1 0x0 DUP1 REVERT JUMPDEST POP PUSH2 0x534 PUSH1 0x4 DUP1 CALLDATASIZE SUB DUP2 ADD SWAP1 PUSH2 0x52F SWAP2 SWAP1 PUSH2 0x219E JUMP JUMPDEST PUSH2 0xCCA JUMP JUMPDEST STOP JUMPDEST CALLVALUE DUP1 ISZERO PUSH2 0x542 JUMPI PUSH1 0x0 DUP1 REVERT JUMPDEST POP PUSH2 0x55D PUSH1 0x4 DUP1 CALLDATASIZE SUB DUP2 ADD SWAP1 PUSH2 0x558 SWAP2 SWAP1 PUSH2 0x220B JUMP JUMPDEST PUSH2 0xE31 JUMP JUMPDEST PUSH1 0x40 MLOAD PUSH2 0x56A SWAP2 SWAP1 PUSH2 0x2654 JUMP JUMPDEST PUSH1 0x40 MLOAD DUP1 SWAP2 SUB SWAP1 RETURN JUMPDEST CALLVALUE DUP1 ISZERO PUSH2 0x57F JUMPI PUSH1 0x0 DUP1 REVERT JUMPDEST POP PUSH2 0x588 PUSH2 0xE9C JUMP JUMPDEST PUSH1 0x40 MLOAD PUSH2 0x595 SWAP2 SWAP1 PUSH2 0x268A JUMP JUMPDEST PUSH1 0x40 MLOAD DUP1 SWAP2 SUB SWAP1 RETURN JUMPDEST CALLVALUE DUP1 ISZERO PUSH2 0x5AA JUMPI PUSH1 0x0 DUP1 REVERT JUMPDEST POP PUSH2 0x5C5 PUSH1 0x4 DUP1 CALLDATASIZE SUB DUP2 ADD SWAP1 PUSH2 0x5C0 SWAP2 SWAP1 PUSH2 0x219E JUMP JUMPDEST PUSH2 0xF2E JUMP JUMPDEST STOP JUMPDEST CALLVALUE DUP1 ISZERO PUSH2 0x5D3 JUMPI PUSH1 0x0 DUP1 REVERT JUMPDEST POP PUSH2 0x5DC PUSH2 0xFB8 JUMP JUMPDEST PUSH1 0x40 MLOAD PUSH2 0x5E9 SWAP2 SWAP1 PUSH2 0x266F JUMP JUMPDEST PUSH1 0x40 MLOAD DUP1 SWAP2 SUB SWAP1 RETURN JUMPDEST CALLVALUE DUP1 ISZERO PUSH2 0x5FE JUMPI PUSH1 0x0 DUP1 REVERT JUMPDEST POP PUSH2 0x619 PUSH1 0x4 DUP1 CALLDATASIZE SUB DUP2 ADD SWAP1 PUSH2 0x614 SWAP2 SWAP1 PUSH2 0x219E JUMP JUMPDEST PUSH2 0xFBF JUMP JUMPDEST PUSH1 0x40 MLOAD PUSH2 0x626 SWAP2 SWAP1 PUSH2 0x2654 JUMP JUMPDEST PUSH1 0x40 MLOAD DUP1 SWAP2 SUB SWAP1 RETURN JUMPDEST CALLVALUE DUP1 ISZERO PUSH2 0x63B JUMPI PUSH1 0x0 DUP1 REVERT JUMPDEST POP PUSH2 0x656 PUSH1 0x4 DUP1 CALLDATASIZE SUB DUP2 ADD SWAP1 PUSH2 0x651 SWAP2 SWAP1 PUSH2 0x219E JUMP JUMPDEST PUSH2 0x10A9 JUMP JUMPDEST PUSH1 0x40 MLOAD PUSH2 0x663 SWAP2 SWAP1 PUSH2 0x2654 JUMP JUMPDEST PUSH1 0x40 MLOAD DUP1 SWAP2 SUB SWAP1 RETURN JUMPDEST CALLVALUE DUP1 ISZERO PUSH2 0x678 JUMPI PUSH1 0x0 DUP1 REVERT JUMPDEST POP PUSH2 0x693 PUSH1 0x4 DUP1 CALLDATASIZE SUB DUP2 ADD SWAP1 PUSH2 0x68E SWAP2 SWAP1 PUSH2 0x20DE JUMP JUMPDEST PUSH2 0x10CC JUMP JUMPDEST PUSH1 0x40 MLOAD PUSH2 0x6A0 SWAP2 SWAP1 PUSH2 0x28EC JUMP JUMPDEST PUSH1 0x40 MLOAD DUP1 SWAP2 SUB SWAP1 RETURN JUMPDEST CALLVALUE DUP1 ISZERO PUSH2 0x6B5 JUMPI PUSH1 0x0 DUP1 REVERT JUMPDEST POP PUSH2 0x6D0 PUSH1 0x4 DUP1 CALLDATASIZE SUB DUP2 ADD SWAP1 PUSH2 0x6CB SWAP2 SWAP1 PUSH2 0x220B JUMP JUMPDEST PUSH2 0x10E4 JUMP JUMPDEST STOP JUMPDEST CALLVALUE DUP1 ISZERO PUSH2 0x6DE JUMPI PUSH1 0x0 DUP1 REVERT JUMPDEST POP PUSH2 0x6E7 PUSH2 0x110D JUMP JUMPDEST PUSH1 0x40 MLOAD PUSH2 0x6F4 SWAP2 SWAP1 PUSH2 0x28EC JUMP JUMPDEST PUSH1 0x40 MLOAD DUP1 SWAP2 SUB SWAP1 RETURN JUMPDEST CALLVALUE DUP1 ISZERO PUSH2 0x709 JUMPI PUSH1 0x0 DUP1 REVERT JUMPDEST POP PUSH2 0x724 PUSH1 0x4 DUP1 CALLDATASIZE SUB DUP2 ADD SWAP1 PUSH2 0x71F SWAP2 SWAP1 PUSH2 0x210B JUMP JUMPDEST PUSH2 0x111C JUMP JUMPDEST PUSH1 0x40 MLOAD PUSH2 0x731 SWAP2 SWAP1 PUSH2 0x28EC JUMP JUMPDEST PUSH1 0x40 MLOAD DUP1 SWAP2 SUB SWAP1 RETURN JUMPDEST CALLVALUE DUP1 ISZERO PUSH2 0x746 JUMPI PUSH1 0x0 DUP1 REVERT JUMPDEST POP PUSH2 0x761 PUSH1 0x4 DUP1 CALLDATASIZE SUB DUP2 ADD SWAP1 PUSH2 0x75C SWAP2 SWAP1 PUSH2 0x219E JUMP JUMPDEST PUSH2 0x11A3 JUMP JUMPDEST STOP JUMPDEST PUSH1 0x0 PUSH32 0x7965DB0B00000000000000000000000000000000000000000000000000000000 PUSH28 0xFFFFFFFFFFFFFFFFFFFFFFFFFFFFFFFFFFFFFFFFFFFFFFFFFFFFFFFF NOT AND DUP3 PUSH28 0xFFFFFFFFFFFFFFFFFFFFFFFFFFFFFFFFFFFFFFFFFFFFFFFFFFFFFFFF NOT AND EQ DUP1 PUSH2 0x7D6 JUMPI POP PUSH2 0x7D5 DUP3 PUSH2 0x122D JUMP JUMPDEST JUMPDEST SWAP1 POP SWAP2 SWAP1 POP JUMP JUMPDEST PUSH1 0x60 PUSH1 0x3 DUP1 SLOAD PUSH2 0x7EC SWAP1 PUSH2 0x2B15 JUMP JUMPDEST DUP1 PUSH1 0x1F ADD PUSH1 0x20 DUP1 SWAP2 DIV MUL PUSH1 0x20 ADD PUSH1 0x40 MLOAD SWAP1 DUP2 ADD PUSH1 0x40 MSTORE DUP1 SWAP3 SWAP2 SWAP1 DUP2 DUP2 MSTORE PUSH1 0x20 ADD DUP3 DUP1 SLOAD PUSH2 0x818 SWAP1 PUSH2 0x2B15 JUMP JUMPDEST DUP1 ISZERO PUSH2 0x865 JUMPI DUP1 PUSH1 0x1F LT PUSH2 0x83A JUMPI PUSH2 0x100 DUP1 DUP4 SLOAD DIV MUL DUP4 MSTORE SWAP2 PUSH1 0x20 ADD SWAP2 PUSH2 0x865 JUMP JUMPDEST DUP3 ADD SWAP2 SWAP1 PUSH1 0x0 MSTORE PUSH1 0x20 PUSH1 0x0 KECCAK256 SWAP1 JUMPDEST DUP2 SLOAD DUP2 MSTORE SWAP1 PUSH1 0x1 ADD SWAP1 PUSH1 0x20 ADD DUP1 DUP4 GT PUSH2 0x848 JUMPI DUP3 SWAP1 SUB PUSH1 0x1F AND DUP3 ADD SWAP2 JUMPDEST POP POP POP POP POP SWAP1 POP SWAP1 JUMP JUMPDEST PUSH1 0x0 DUP1 PUSH2 0x87A PUSH2 0x1297 JUMP JUMPDEST SWAP1 POP PUSH2 0x887 DUP2 DUP6 DUP6 PUSH2 0x129F JUMP JUMPDEST PUSH1 0x1 SWAP2 POP POP SWAP3 SWAP2 POP POP JUMP JUMPDEST PUSH1 0x0 PUSH1 0x2 SLOAD SWAP1 POP SWAP1 JUMP JUMPDEST PUSH1 0x8 SLOAD DUP2 JUMP JUMPDEST PUSH1 0x0 DUP1 PUSH2 0x8AD PUSH2 0x1297 JUMP JUMPDEST SWAP1 POP PUSH2 0x8BA DUP6 DUP3 DUP6 PUSH2 0x146A JUMP JUMPDEST PUSH2 0x8C5 DUP6 DUP6 DUP6 PUSH2 0x14F6 JUMP JUMPDEST PUSH1 0x1 SWAP2 POP POP SWAP4 SWAP3 POP POP POP JUMP JUMPDEST PUSH1 0x0 PUSH1 0x5 PUSH1 0x0 DUP4 DUP2 MSTORE PUSH1 0x20 ADD SWAP1 DUP2 MSTORE PUSH1 0x20 ADD PUSH1 0x0 KECCAK256 PUSH1 0x1 ADD SLOAD SWAP1 POP SWAP2 SWAP1 POP JUMP JUMPDEST PUSH32 0x3C11D16CBAFFD01DF69CE1C404F6340EE057498F5F00246190EA54220576A848 DUP2 JUMP JUMPDEST PUSH2 0x91E DUP3 PUSH2 0x8D1 JUMP JUMPDEST PUSH2 0x92F DUP2 PUSH2 0x92A PUSH2 0x1297 JUMP JUMPDEST PUSH2 0x1777 JUMP JUMPDEST PUSH2 0x939 DUP4 DUP4 PUSH2 0x1814 JUMP JUMPDEST POP POP POP JUMP JUMPDEST PUSH1 0x0 PUSH1 0x12 SWAP1 POP SWAP1 JUMP JUMPDEST PUSH2 0x94F PUSH2 0x1297 JUMP JUMPDEST PUSH20 0xFFFFFFFFFFFFFFFFFFFFFFFFFFFFFFFFFFFFFFFF AND DUP2 PUSH20 0xFFFFFFFFFFFFFFFFFFFFFFFFFFFFFFFFFFFFFFFF AND EQ PUSH2 0x9BC JUMPI PUSH1 0x40 MLOAD PUSH32 0x8C379A000000000000000000000000000000000000000000000000000000000 DUP2 MSTORE PUSH1 0x4 ADD PUSH2 0x9B3 SWAP1 PUSH2 0x28AC JUMP JUMPDEST PUSH1 0x40 MLOAD DUP1 SWAP2 SUB SWAP1 REVERT JUMPDEST PUSH2 0x9C6 DUP3 DUP3 PUSH2 0x18F5 JUMP JUMPDEST POP POP JUMP JUMPDEST PUSH1 0x0 DUP1 PUSH2 0x9D5 PUSH2 0x1297 JUMP JUMPDEST SWAP1 POP PUSH2 0xA69 DUP2 DUP6 DUP6 PUSH1 0x1 PUSH1 0x0 DUP7 PUSH20 0xFFFFFFFFFFFFFFFFFFFFFFFFFFFFFFFFFFFFFFFF AND PUSH20 0xFFFFFFFFFFFFFFFFFFFFFFFFFFFFFFFFFFFFFFFF AND DUP2 MSTORE PUSH1 0x20 ADD SWAP1 DUP2 MSTORE PUSH1 0x20 ADD PUSH1 0x0 KECCAK256 PUSH1 0x0 DUP10 PUSH20 0xFFFFFFFFFFFFFFFFFFFFFFFFFFFFFFFFFFFFFFFF AND PUSH20 0xFFFFFFFFFFFFFFFFFFFFFFFFFFFFFFFFFFFFFFFF AND DUP2 MSTORE PUSH1 0x20 ADD SWAP1 DUP2 MSTORE PUSH1 0x20 ADD PUSH1 0x0 KECCAK256 SLOAD PUSH2 0xA64 SWAP2 SWAP1 PUSH2 0x2949 JUMP JUMPDEST PUSH2 0x129F JUMP JUMPDEST PUSH1 0x1 SWAP2 POP POP SWAP3 SWAP2 POP POP JUMP JUMPDEST PUSH1 0x0 PUSH1 0x6 PUSH1 0x0 CALLER PUSH20 0xFFFFFFFFFFFFFFFFFFFFFFFFFFFFFFFFFFFFFFFF AND PUSH20 0xFFFFFFFFFFFFFFFFFFFFFFFFFFFFFFFFFFFFFFFF AND DUP2 MSTORE PUSH1 0x20 ADD SWAP1 DUP2 MSTORE PUSH1 0x20 ADD PUSH1 0x0 KECCAK256 SLOAD SWAP1 POP PUSH1 0x0 DUP2 GT PUSH2 0xAFB JUMPI PUSH1 0x40 MLOAD PUSH32 0x8C379A000000000000000000000000000000000000000000000000000000000 DUP2 MSTORE PUSH1 0x4 ADD PUSH2 0xAF2 SWAP1 PUSH2 0x27AC JUMP JUMPDEST PUSH1 0x40 MLOAD DUP1 SWAP2 SUB SWAP1 REVERT JUMPDEST PUSH1 0x0 PUSH1 0x8 SLOAD PUSH11 0x52B7D2DCC80CD2E4000000 PUSH2 0xB16 SWAP2 SWAP1 PUSH2 0x29F9 JUMP JUMPDEST SWAP1 POP PUSH1 0x0 DUP2 GT PUSH2 0xB5B JUMPI PUSH1 0x40 MLOAD PUSH32 0x8C379A000000000000000000000000000000000000000000000000000000000 DUP2 MSTORE PUSH1 0x4 ADD PUSH2 0xB52 SWAP1 PUSH2 0x270C JUMP JUMPDEST PUSH1 0x40 MLOAD DUP1 SWAP2 SUB SWAP1 REVERT JUMPDEST PUSH1 0x0 PUSH2 0xB67 DUP4 DUP4 PUSH2 0xC8C JUMP JUMPDEST SWAP1 POP DUP1 PUSH1 0x7 PUSH1 0x0 CALLER PUSH20 0xFFFFFFFFFFFFFFFFFFFFFFFFFFFFFFFFFFFFFFFF AND PUSH20 0xFFFFFFFFFFFFFFFFFFFFFFFFFFFFFFFFFFFFFFFF AND DUP2 MSTORE PUSH1 0x20 ADD SWAP1 DUP2 MSTORE PUSH1 0x20 ADD PUSH1 0x0 KECCAK256 PUSH1 0x0 DUP3 DUP3 SLOAD PUSH2 0xBB8 SWAP2 SWAP1 PUSH2 0x2949 JUMP JUMPDEST SWAP3 POP POP DUP2 SWAP1 SSTORE POP PUSH1 0x0 PUSH1 0x6 PUSH1 0x0 CALLER PUSH20 0xFFFFFFFFFFFFFFFFFFFFFFFFFFFFFFFFFFFFFFFF AND PUSH20 0xFFFFFFFFFFFFFFFFFFFFFFFFFFFFFFFFFFFFFFFF AND DUP2 MSTORE PUSH1 0x20 ADD SWAP1 DUP2 MSTORE PUSH1 0x20 ADD PUSH1 0x0 KECCAK256 DUP2 SWAP1 SSTORE POP DUP1 PUSH1 0x8 PUSH1 0x0 DUP3 DUP3 SLOAD PUSH2 0xC16 SWAP2 SWAP1 PUSH2 0x2949 JUMP JUMPDEST SWAP3 POP POP DUP2 SWAP1 SSTORE POP PUSH2 0xC27 CALLER DUP3 PUSH2 0x19D7 JUMP JUMPDEST POP POP POP JUMP JUMPDEST PUSH1 0x6 PUSH1 0x20 MSTORE DUP1 PUSH1 0x0 MSTORE PUSH1 0x40 PUSH1 0x0 KECCAK256 PUSH1 0x0 SWAP2 POP SWAP1 POP SLOAD DUP2 JUMP JUMPDEST PUSH1 0x0 DUP1 PUSH1 0x0 DUP4 PUSH20 0xFFFFFFFFFFFFFFFFFFFFFFFFFFFFFFFFFFFFFFFF AND PUSH20 0xFFFFFFFFFFFFFFFFFFFFFFFFFFFFFFFFFFFFFFFF AND DUP2 MSTORE PUSH1 0x20 ADD SWAP1 DUP2 MSTORE PUSH1 0x20 ADD PUSH1 0x0 KECCAK256 SLOAD SWAP1 POP SWAP2 SWAP1 POP JUMP JUMPDEST PUSH1 0x0 DUP2 DUP4 GT ISZERO PUSH2 0xC9C JUMPI DUP2 PUSH2 0xC9E JUMP JUMPDEST DUP3 JUMPDEST SWAP1 POP SWAP3 SWAP2 POP POP JUMP JUMPDEST PUSH32 0xBEEC13769B5F410B0584F69811BFD923818456D5EDCF426B0E31CF90EED7A3F6 DUP2 JUMP JUMPDEST PUSH2 0xCF4 PUSH32 0xBEEC13769B5F410B0584F69811BFD923818456D5EDCF426B0E31CF90EED7A3F6 CALLER PUSH2 0xE31 JUMP JUMPDEST PUSH2 0xD33 JUMPI PUSH1 0x40 MLOAD PUSH32 0x8C379A000000000000000000000000000000000000000000000000000000000 DUP2 MSTORE PUSH1 0x4 ADD PUSH2 0xD2A SWAP1 PUSH2 0x282C JUMP JUMPDEST PUSH1 0x40 MLOAD DUP1 SWAP2 SUB SWAP1 REVERT JUMPDEST PUSH1 0x0 PUSH1 0x6 PUSH1 0x0 DUP5 PUSH20 0xFFFFFFFFFFFFFFFFFFFFFFFFFFFFFFFFFFFFFFFF AND PUSH20 0xFFFFFFFFFFFFFFFFFFFFFFFFFFFFFFFFFFFFFFFF AND DUP2 MSTORE PUSH1 0x20 ADD SWAP1 DUP2 MSTORE PUSH1 0x20 ADD PUSH1 0x0 KECCAK256 SLOAD PUSH1 0x7 PUSH1 0x0 DUP6 PUSH20 0xFFFFFFFFFFFFFFFFFFFFFFFFFFFFFFFFFFFFFFFF AND PUSH20 0xFFFFFFFFFFFFFFFFFFFFFFFFFFFFFFFFFFFFFFFF AND DUP2 MSTORE PUSH1 0x20 ADD SWAP1 DUP2 MSTORE PUSH1 0x20 ADD PUSH1 0x0 KECCAK256 SLOAD DUP4 PUSH2 0xDC0 SWAP2 SWAP1 PUSH2 0x29F9 JUMP JUMPDEST PUSH2 0xDCA SWAP2 SWAP1 PUSH2 0x29F9 JUMP JUMPDEST SWAP1 POP PUSH1 0x0 DUP2 GT PUSH2 0xE0F JUMPI PUSH1 0x40 MLOAD PUSH32 0x8C379A000000000000000000000000000000000000000000000000000000000 DUP2 MSTORE PUSH1 0x4 ADD PUSH2 0xE06 SWAP1 PUSH2 0x286C JUMP JUMPDEST PUSH1 0x40 MLOAD DUP1 SWAP2 SUB SWAP1 REVERT JUMPDEST PUSH2 0xE2C DUP4 PUSH8 0xDE0B6B3A7640000 DUP4 PUSH2 0xE27 SWAP2 SWAP1 PUSH2 0x299F JUMP JUMPDEST PUSH2 0x1B37 JUMP JUMPDEST POP POP POP JUMP JUMPDEST PUSH1 0x0 PUSH1 0x5 PUSH1 0x0 DUP5 DUP2 MSTORE PUSH1 0x20 ADD SWAP1 DUP2 MSTORE PUSH1 0x20 ADD PUSH1 0x0 KECCAK256 PUSH1 0x0 ADD PUSH1 0x0 DUP4 PUSH20 0xFFFFFFFFFFFFFFFFFFFFFFFFFFFFFFFFFFFFFFFF AND PUSH20 0xFFFFFFFFFFFFFFFFFFFFFFFFFFFFFFFFFFFFFFFF AND DUP2 MSTORE PUSH1 0x20 ADD SWAP1 DUP2 MSTORE PUSH1 0x20 ADD PUSH1 0x0 KECCAK256 PUSH1 0x0 SWAP1 SLOAD SWAP1 PUSH2 0x100 EXP SWAP1 DIV PUSH1 0xFF AND SWAP1 POP SWAP3 SWAP2 POP POP JUMP JUMPDEST PUSH1 0x60 PUSH1 0x4 DUP1 SLOAD PUSH2 0xEAB SWAP1 PUSH2 0x2B15 JUMP JUMPDEST DUP1 PUSH1 0x1F ADD PUSH1 0x20 DUP1 SWAP2 DIV MUL PUSH1 0x20 ADD PUSH1 0x40 MLOAD SWAP1 DUP2 ADD PUSH1 0x40 MSTORE DUP1 SWAP3 SWAP2 SWAP1 DUP2 DUP2 MSTORE PUSH1 0x20 ADD DUP3 DUP1 SLOAD PUSH2 0xED7 SWAP1 PUSH2 0x2B15 JUMP JUMPDEST DUP1 ISZERO PUSH2 0xF24 JUMPI DUP1 PUSH1 0x1F LT PUSH2 0xEF9 JUMPI PUSH2 0x100 DUP1 DUP4 SLOAD DIV MUL DUP4 MSTORE SWAP2 PUSH1 0x20 ADD SWAP2 PUSH2 0xF24 JUMP JUMPDEST DUP3 ADD SWAP2 SWAP1 PUSH1 0x0 MSTORE PUSH1 0x20 PUSH1 0x0 KECCAK256 SWAP1 JUMPDEST DUP2 SLOAD DUP2 MSTORE SWAP1 PUSH1 0x1 ADD SWAP1 PUSH1 0x20 ADD DUP1 DUP4 GT PUSH2 0xF07 JUMPI DUP3 SWAP1 SUB PUSH1 0x1F AND DUP3 ADD SWAP2 JUMPDEST POP POP POP POP POP SWAP1 POP SWAP1 JUMP JUMPDEST PUSH2 0xF58 PUSH32 0x3C11D16CBAFFD01DF69CE1C404F6340EE057498F5F00246190EA54220576A848 CALLER PUSH2 0xE31 JUMP JUMPDEST PUSH2 0xF97 JUMPI PUSH1 0x40 MLOAD PUSH32 0x8C379A000000000000000000000000000000000000000000000000000000000 DUP2 MSTORE PUSH1 0x4 ADD PUSH2 0xF8E SWAP1 PUSH2 0x27CC JUMP JUMPDEST PUSH1 0x40 MLOAD DUP1 SWAP2 SUB SWAP1 REVERT JUMPDEST PUSH2 0xFB4 DUP3 PUSH8 0xDE0B6B3A7640000 DUP4 PUSH2 0xFAF SWAP2 SWAP1 PUSH2 0x299F JUMP JUMPDEST PUSH2 0x1B91 JUMP JUMPDEST POP POP JUMP JUMPDEST PUSH1 0x0 DUP1 SHL DUP2 JUMP JUMPDEST PUSH1 0x0 DUP1 PUSH2 0xFCA PUSH2 0x1297 JUMP JUMPDEST SWAP1 POP PUSH1 0x0 PUSH1 0x1 PUSH1 0x0 DUP4 PUSH20 0xFFFFFFFFFFFFFFFFFFFFFFFFFFFFFFFFFFFFFFFF AND PUSH20 0xFFFFFFFFFFFFFFFFFFFFFFFFFFFFFFFFFFFFFFFF AND DUP2 MSTORE PUSH1 0x20 ADD SWAP1 DUP2 MSTORE PUSH1 0x20 ADD PUSH1 0x0 KECCAK256 PUSH1 0x0 DUP7 PUSH20 0xFFFFFFFFFFFFFFFFFFFFFFFFFFFFFFFFFFFFFFFF AND PUSH20 0xFFFFFFFFFFFFFFFFFFFFFFFFFFFFFFFFFFFFFFFF AND DUP2 MSTORE PUSH1 0x20 ADD SWAP1 DUP2 MSTORE PUSH1 0x20 ADD PUSH1 0x0 KECCAK256 SLOAD SWAP1 POP DUP4 DUP2 LT ISZERO PUSH2 0x1090 JUMPI PUSH1 0x40 MLOAD PUSH32 0x8C379A000000000000000000000000000000000000000000000000000000000 DUP2 MSTORE PUSH1 0x4 ADD PUSH2 0x1087 SWAP1 PUSH2 0x288C JUMP JUMPDEST PUSH1 0x40 MLOAD DUP1 SWAP2 SUB SWAP1 REVERT JUMPDEST PUSH2 0x109D DUP3 DUP7 DUP7 DUP5 SUB PUSH2 0x129F JUMP JUMPDEST PUSH1 0x1 SWAP3 POP POP POP SWAP3 SWAP2 POP POP JUMP JUMPDEST PUSH1 0x0 DUP1 PUSH2 0x10B4 PUSH2 0x1297 JUMP JUMPDEST SWAP1 POP PUSH2 0x10C1 DUP2 DUP6 DUP6 PUSH2 0x14F6 JUMP JUMPDEST PUSH1 0x1 SWAP2 POP POP SWAP3 SWAP2 POP POP JUMP JUMPDEST PUSH1 0x7 PUSH1 0x20 MSTORE DUP1 PUSH1 0x0 MSTORE PUSH1 0x40 PUSH1 0x0 KECCAK256 PUSH1 0x0 SWAP2 POP SWAP1 POP SLOAD DUP2 JUMP JUMPDEST PUSH2 0x10ED DUP3 PUSH2 0x8D1 JUMP JUMPDEST PUSH2 0x10FE DUP2 PUSH2 0x10F9 PUSH2 0x1297 JUMP JUMPDEST PUSH2 0x1777 JUMP JUMPDEST PUSH2 0x1108 DUP4 DUP4 PUSH2 0x18F5 JUMP JUMPDEST POP POP POP JUMP JUMPDEST PUSH11 0x52B7D2DCC80CD2E4000000 DUP2 JUMP JUMPDEST PUSH1 0x0 PUSH1 0x1 PUSH1 0x0 DUP5 PUSH20 0xFFFFFFFFFFFFFFFFFFFFFFFFFFFFFFFFFFFFFFFF AND PUSH20 0xFFFFFFFFFFFFFFFFFFFFFFFFFFFFFFFFFFFFFFFF AND DUP2 MSTORE PUSH1 0x20 ADD SWAP1 DUP2 MSTORE PUSH1 0x20 ADD PUSH1 0x0 KECCAK256 PUSH1 0x0 DUP4 PUSH20 0xFFFFFFFFFFFFFFFFFFFFFFFFFFFFFFFFFFFFFFFF AND PUSH20 0xFFFFFFFFFFFFFFFFFFFFFFFFFFFFFFFFFFFFFFFF AND DUP2 MSTORE PUSH1 0x20 ADD SWAP1 DUP2 MSTORE PUSH1 0x20 ADD PUSH1 0x0 KECCAK256 SLOAD SWAP1 POP SWAP3 SWAP2 POP POP JUMP JUMPDEST PUSH2 0x11CD PUSH32 0xBEEC13769B5F410B0584F69811BFD923818456D5EDCF426B0E31CF90EED7A3F6 CALLER PUSH2 0xE31 JUMP JUMPDEST PUSH2 0x120C JUMPI PUSH1 0x40 MLOAD PUSH32 0x8C379A000000000000000000000000000000000000000000000000000000000 DUP2 MSTORE PUSH1 0x4 ADD PUSH2 0x1203 SWAP1 PUSH2 0x282C JUMP JUMPDEST PUSH1 0x40 MLOAD DUP1 SWAP2 SUB SWAP1 REVERT JUMPDEST PUSH2 0x1229 DUP3 PUSH8 0xDE0B6B3A7640000 DUP4 PUSH2 0x1224 SWAP2 SWAP1 PUSH2 0x299F JUMP JUMPDEST PUSH2 0x1D68 JUMP JUMPDEST POP POP JUMP JUMPDEST PUSH1 0x0 PUSH32 0x1FFC9A700000000000000000000000000000000000000000000000000000000 PUSH28 0xFFFFFFFFFFFFFFFFFFFFFFFFFFFFFFFFFFFFFFFFFFFFFFFFFFFFFFFF NOT AND DUP3 PUSH28 0xFFFFFFFFFFFFFFFFFFFFFFFFFFFFFFFFFFFFFFFFFFFFFFFFFFFFFFFF NOT AND EQ SWAP1 POP SWAP2 SWAP1 POP JUMP JUMPDEST PUSH1 0x0 CALLER SWAP1 POP SWAP1 JUMP JUMPDEST PUSH1 0x0 PUSH20 0xFFFFFFFFFFFFFFFFFFFFFFFFFFFFFFFFFFFFFFFF AND DUP4 PUSH20 0xFFFFFFFFFFFFFFFFFFFFFFFFFFFFFFFFFFFFFFFF AND EQ ISZERO PUSH2 0x130F JUMPI PUSH1 0x40 MLOAD PUSH32 0x8C379A000000000000000000000000000000000000000000000000000000000 DUP2 MSTORE PUSH1 0x4 ADD PUSH2 0x1306 SWAP1 PUSH2 0x284C JUMP JUMPDEST PUSH1 0x40 MLOAD DUP1 SWAP2 SUB SWAP1 REVERT JUMPDEST PUSH1 0x0 PUSH20 0xFFFFFFFFFFFFFFFFFFFFFFFFFFFFFFFFFFFFFFFF AND DUP3 PUSH20 0xFFFFFFFFFFFFFFFFFFFFFFFFFFFFFFFFFFFFFFFF AND EQ ISZERO PUSH2 0x137F JUMPI PUSH1 0x40 MLOAD PUSH32 0x8C379A000000000000000000000000000000000000000000000000000000000 DUP2 MSTORE PUSH1 0x4 ADD PUSH2 0x1376 SWAP1 PUSH2 0x274C JUMP JUMPDEST PUSH1 0x40 MLOAD DUP1 SWAP2 SUB SWAP1 REVERT JUMPDEST DUP1 PUSH1 0x1 PUSH1 0x0 DUP6 PUSH20 0xFFFFFFFFFFFFFFFFFFFFFFFFFFFFFFFFFFFFFFFF AND PUSH20 0xFFFFFFFFFFFFFFFFFFFFFFFFFFFFFFFFFFFFFFFF AND DUP2 MSTORE PUSH1 0x20 ADD SWAP1 DUP2 MSTORE PUSH1 0x20 ADD PUSH1 0x0 KECCAK256 PUSH1 0x0 DUP5 PUSH20 0xFFFFFFFFFFFFFFFFFFFFFFFFFFFFFFFFFFFFFFFF AND PUSH20 0xFFFFFFFFFFFFFFFFFFFFFFFFFFFFFFFFFFFFFFFF AND DUP2 MSTORE PUSH1 0x20 ADD SWAP1 DUP2 MSTORE PUSH1 0x20 ADD PUSH1 0x0 KECCAK256 DUP2 SWAP1 SSTORE POP DUP2 PUSH20 0xFFFFFFFFFFFFFFFFFFFFFFFFFFFFFFFFFFFFFFFF AND DUP4 PUSH20 0xFFFFFFFFFFFFFFFFFFFFFFFFFFFFFFFFFFFFFFFF AND PUSH32 0x8C5BE1E5EBEC7D5BD14F71427D1E84F3DD0314C0F7B2291E5B200AC8C7C3B925 DUP4 PUSH1 0x40 MLOAD PUSH2 0x145D SWAP2 SWAP1 PUSH2 0x28EC JUMP JUMPDEST PUSH1 0x40 MLOAD DUP1 SWAP2 SUB SWAP1 LOG3 POP POP POP JUMP JUMPDEST PUSH1 0x0 PUSH2 0x1476 DUP5 DUP5 PUSH2 0x111C JUMP JUMPDEST SWAP1 POP PUSH32 0xFFFFFFFFFFFFFFFFFFFFFFFFFFFFFFFFFFFFFFFFFFFFFFFFFFFFFFFFFFFFFFFF DUP2 EQ PUSH2 0x14F0 JUMPI DUP2 DUP2 LT ISZERO PUSH2 0x14E2 JUMPI PUSH1 0x40 MLOAD PUSH32 0x8C379A000000000000000000000000000000000000000000000000000000000 DUP2 MSTORE PUSH1 0x4 ADD PUSH2 0x14D9 SWAP1 PUSH2 0x276C JUMP JUMPDEST PUSH1 0x40 MLOAD DUP1 SWAP2 SUB SWAP1 REVERT JUMPDEST PUSH2 0x14EF DUP5 DUP5 DUP5 DUP5 SUB PUSH2 0x129F JUMP JUMPDEST JUMPDEST POP POP POP POP JUMP JUMPDEST PUSH1 0x0 PUSH20 0xFFFFFFFFFFFFFFFFFFFFFFFFFFFFFFFFFFFFFFFF AND DUP4 PUSH20 0xFFFFFFFFFFFFFFFFFFFFFFFFFFFFFFFFFFFFFFFF AND EQ ISZERO PUSH2 0x1566 JUMPI PUSH1 0x40 MLOAD PUSH32 0x8C379A000000000000000000000000000000000000000000000000000000000 DUP2 MSTORE PUSH1 0x4 ADD PUSH2 0x155D SWAP1 PUSH2 0x280C JUMP JUMPDEST PUSH1 0x40 MLOAD DUP1 SWAP2 SUB SWAP1 REVERT JUMPDEST PUSH1 0x0 PUSH20 0xFFFFFFFFFFFFFFFFFFFFFFFFFFFFFFFFFFFFFFFF AND DUP3 PUSH20 0xFFFFFFFFFFFFFFFFFFFFFFFFFFFFFFFFFFFFFFFF AND EQ ISZERO PUSH2 0x15D6 JUMPI PUSH1 0x40 MLOAD PUSH32 0x8C379A000000000000000000000000000000000000000000000000000000000 DUP2 MSTORE PUSH1 0x4 ADD PUSH2 0x15CD SWAP1 PUSH2 0x26CC JUMP JUMPDEST PUSH1 0x40 MLOAD DUP1 SWAP2 SUB SWAP1 REVERT JUMPDEST PUSH2 0x15E1 DUP4 DUP4 DUP4 PUSH2 0x1E44 JUMP JUMPDEST PUSH1 0x0 DUP1 PUSH1 0x0 DUP6 PUSH20 0xFFFFFFFFFFFFFFFFFFFFFFFFFFFFFFFFFFFFFFFF AND PUSH20 0xFFFFFFFFFFFFFFFFFFFFFFFFFFFFFFFFFFFFFFFF AND DUP2 MSTORE PUSH1 0x20 ADD SWAP1 DUP2 MSTORE PUSH1 0x20 ADD PUSH1 0x0 KECCAK256 SLOAD SWAP1 POP DUP2 DUP2 LT ISZERO PUSH2 0x1667 JUMPI PUSH1 0x40 MLOAD PUSH32 0x8C379A000000000000000000000000000000000000000000000000000000000 DUP2 MSTORE PUSH1 0x4 ADD PUSH2 0x165E SWAP1 PUSH2 0x278C JUMP JUMPDEST PUSH1 0x40 MLOAD DUP1 SWAP2 SUB SWAP1 REVERT JUMPDEST DUP2 DUP2 SUB PUSH1 0x0 DUP1 DUP7 PUSH20 0xFFFFFFFFFFFFFFFFFFFFFFFFFFFFFFFFFFFFFFFF AND PUSH20 0xFFFFFFFFFFFFFFFFFFFFFFFFFFFFFFFFFFFFFFFF AND DUP2 MSTORE PUSH1 0x20 ADD SWAP1 DUP2 MSTORE PUSH1 0x20 ADD PUSH1 0x0 KECCAK256 DUP2 SWAP1 SSTORE POP DUP2 PUSH1 0x0 DUP1 DUP6 PUSH20 0xFFFFFFFFFFFFFFFFFFFFFFFFFFFFFFFFFFFFFFFF AND PUSH20 0xFFFFFFFFFFFFFFFFFFFFFFFFFFFFFFFFFFFFFFFF AND DUP2 MSTORE PUSH1 0x20 ADD SWAP1 DUP2 MSTORE PUSH1 0x20 ADD PUSH1 0x0 KECCAK256 PUSH1 0x0 DUP3 DUP3 SLOAD PUSH2 0x16FA SWAP2 SWAP1 PUSH2 0x2949 JUMP JUMPDEST SWAP3 POP POP DUP2 SWAP1 SSTORE POP DUP3 PUSH20 0xFFFFFFFFFFFFFFFFFFFFFFFFFFFFFFFFFFFFFFFF AND DUP5 PUSH20 0xFFFFFFFFFFFFFFFFFFFFFFFFFFFFFFFFFFFFFFFF AND PUSH32 0xDDF252AD1BE2C89B69C2B068FC378DAA952BA7F163C4A11628F55A4DF523B3EF DUP5 PUSH1 0x40 MLOAD PUSH2 0x175E SWAP2 SWAP1 PUSH2 0x28EC JUMP JUMPDEST PUSH1 0x40 MLOAD DUP1 SWAP2 SUB SWAP1 LOG3 PUSH2 0x1771 DUP5 DUP5 DUP5 PUSH2 0x1E49 JUMP JUMPDEST POP POP POP POP JUMP JUMPDEST PUSH2 0x1781 DUP3 DUP3 PUSH2 0xE31 JUMP JUMPDEST PUSH2 0x1810 JUMPI PUSH2 0x17A6 DUP2 PUSH20 0xFFFFFFFFFFFFFFFFFFFFFFFFFFFFFFFFFFFFFFFF AND PUSH1 0x14 PUSH2 0x1E4E JUMP JUMPDEST PUSH2 0x17B4 DUP4 PUSH1 0x0 SHR PUSH1 0x20 PUSH2 0x1E4E JUMP JUMPDEST PUSH1 0x40 MLOAD PUSH1 0x20 ADD PUSH2 0x17C5 SWAP3 SWAP2 SWAP1 PUSH2 0x261A JUMP JUMPDEST PUSH1 0x40 MLOAD PUSH1 0x20 DUP2 DUP4 SUB SUB DUP2 MSTORE SWAP1 PUSH1 0x40 MSTORE PUSH1 0x40 MLOAD PUSH32 0x8C379A000000000000000000000000000000000000000000000000000000000 DUP2 MSTORE PUSH1 0x4 ADD PUSH2 0x1807 SWAP2 SWAP1 PUSH2 0x268A JUMP JUMPDEST PUSH1 0x40 MLOAD DUP1 SWAP2 SUB SWAP1 REVERT JUMPDEST POP POP JUMP JUMPDEST PUSH2 0x181E DUP3 DUP3 PUSH2 0xE31 JUMP JUMPDEST PUSH2 0x18F1 JUMPI PUSH1 0x1 PUSH1 0x5 PUSH1 0x0 DUP5 DUP2 MSTORE PUSH1 0x20 ADD SWAP1 DUP2 MSTORE PUSH1 0x20 ADD PUSH1 0x0 KECCAK256 PUSH1 0x0 ADD PUSH1 0x0 DUP4 PUSH20 0xFFFFFFFFFFFFFFFFFFFFFFFFFFFFFFFFFFFFFFFF AND PUSH20 0xFFFFFFFFFFFFFFFFFFFFFFFFFFFFFFFFFFFFFFFF AND DUP2 MSTORE PUSH1 0x20 ADD SWAP1 DUP2 MSTORE PUSH1 0x20 ADD PUSH1 0x0 KECCAK256 PUSH1 0x0 PUSH2 0x100 EXP DUP2 SLOAD DUP2 PUSH1 0xFF MUL NOT AND SWAP1 DUP4 ISZERO ISZERO MUL OR SWAP1 SSTORE POP PUSH2 0x1896 PUSH2 0x1297 JUMP JUMPDEST PUSH20 0xFFFFFFFFFFFFFFFFFFFFFFFFFFFFFFFFFFFFFFFF AND DUP2 PUSH20 0xFFFFFFFFFFFFFFFFFFFFFFFFFFFFFFFFFFFFFFFF AND DUP4 PUSH32 0x2F8788117E7EFF1D82E926EC794901D17C78024A50270940304540A733656F0D PUSH1 0x40 MLOAD PUSH1 0x40 MLOAD DUP1 SWAP2 SUB SWAP1 LOG4 JUMPDEST POP POP JUMP JUMPDEST PUSH2 0x18FF DUP3 DUP3 PUSH2 0xE31 JUMP JUMPDEST ISZERO PUSH2 0x19D3 JUMPI PUSH1 0x0 PUSH1 0x5 PUSH1 0x0 DUP5 DUP2 MSTORE PUSH1 0x20 ADD SWAP1 DUP2 MSTORE PUSH1 0x20 ADD PUSH1 0x0 KECCAK256 PUSH1 0x0 ADD PUSH1 0x0 DUP4 PUSH20 0xFFFFFFFFFFFFFFFFFFFFFFFFFFFFFFFFFFFFFFFF AND PUSH20 0xFFFFFFFFFFFFFFFFFFFFFFFFFFFFFFFFFFFFFFFF AND DUP2 MSTORE PUSH1 0x20 ADD SWAP1 DUP2 MSTORE PUSH1 0x20 ADD PUSH1 0x0 KECCAK256 PUSH1 0x0 PUSH2 0x100 EXP DUP2 SLOAD DUP2 PUSH1 0xFF MUL NOT AND SWAP1 DUP4 ISZERO ISZERO MUL OR SWAP1 SSTORE POP PUSH2 0x1978 PUSH2 0x1297 JUMP JUMPDEST PUSH20 0xFFFFFFFFFFFFFFFFFFFFFFFFFFFFFFFFFFFFFFFF AND DUP2 PUSH20 0xFFFFFFFFFFFFFFFFFFFFFFFFFFFFFFFFFFFFFFFF AND DUP4 PUSH32 0xF6391F5C32D9C69D2A47EA670B442974B53935D1EDC7FD64EB21E047A839171B PUSH1 0x40 MLOAD PUSH1 0x40 MLOAD DUP1 SWAP2 SUB SWAP1 LOG4 JUMPDEST POP POP JUMP JUMPDEST PUSH1 0x0 PUSH20 0xFFFFFFFFFFFFFFFFFFFFFFFFFFFFFFFFFFFFFFFF AND DUP3 PUSH20 0xFFFFFFFFFFFFFFFFFFFFFFFFFFFFFFFFFFFFFFFF AND EQ ISZERO PUSH2 0x1A47 JUMPI PUSH1 0x40 MLOAD PUSH32 0x8C379A000000000000000000000000000000000000000000000000000000000 DUP2 MSTORE PUSH1 0x4 ADD PUSH2 0x1A3E SWAP1 PUSH2 0x28CC JUMP JUMPDEST PUSH1 0x40 MLOAD DUP1 SWAP2 SUB SWAP1 REVERT JUMPDEST PUSH2 0x1A53 PUSH1 0x0 DUP4 DUP4 PUSH2 0x1E44 JUMP JUMPDEST DUP1 PUSH1 0x2 PUSH1 0x0 DUP3 DUP3 SLOAD PUSH2 0x1A65 SWAP2 SWAP1 PUSH2 0x2949 JUMP JUMPDEST SWAP3 POP POP DUP2 SWAP1 SSTORE POP DUP1 PUSH1 0x0 DUP1 DUP5 PUSH20 0xFFFFFFFFFFFFFFFFFFFFFFFFFFFFFFFFFFFFFFFF AND PUSH20 0xFFFFFFFFFFFFFFFFFFFFFFFFFFFFFFFFFFFFFFFF AND DUP2 MSTORE PUSH1 0x20 ADD SWAP1 DUP2 MSTORE PUSH1 0x20 ADD PUSH1 0x0 KECCAK256 PUSH1 0x0 DUP3 DUP3 SLOAD PUSH2 0x1ABA SWAP2 SWAP1 PUSH2 0x2949 JUMP JUMPDEST SWAP3 POP POP DUP2 SWAP1 SSTORE POP DUP2 PUSH20 0xFFFFFFFFFFFFFFFFFFFFFFFFFFFFFFFFFFFFFFFF AND PUSH1 0x0 PUSH20 0xFFFFFFFFFFFFFFFFFFFFFFFFFFFFFFFFFFFFFFFF AND PUSH32 0xDDF252AD1BE2C89B69C2B068FC378DAA952BA7F163C4A11628F55A4DF523B3EF DUP4 PUSH1 0x40 MLOAD PUSH2 0x1B1F SWAP2 SWAP1 PUSH2 0x28EC JUMP JUMPDEST PUSH1 0x40 MLOAD DUP1 SWAP2 SUB SWAP1 LOG3 PUSH2 0x1B33 PUSH1 0x0 DUP4 DUP4 PUSH2 0x1E49 JUMP JUMPDEST POP POP JUMP JUMPDEST DUP1 PUSH1 0x6 PUSH1 0x0 DUP5 PUSH20 0xFFFFFFFFFFFFFFFFFFFFFFFFFFFFFFFFFFFFFFFF AND PUSH20 0xFFFFFFFFFFFFFFFFFFFFFFFFFFFFFFFFFFFFFFFF AND DUP2 MSTORE PUSH1 0x20 ADD SWAP1 DUP2 MSTORE PUSH1 0x20 ADD PUSH1 0x0 KECCAK256 PUSH1 0x0 DUP3 DUP3 SLOAD PUSH2 0x1B86 SWAP2 SWAP1 PUSH2 0x2949 JUMP JUMPDEST SWAP3 POP POP DUP2 SWAP1 SSTORE POP POP POP JUMP JUMPDEST PUSH1 0x0 PUSH20 0xFFFFFFFFFFFFFFFFFFFFFFFFFFFFFFFFFFFFFFFF AND DUP3 PUSH20 0xFFFFFFFFFFFFFFFFFFFFFFFFFFFFFFFFFFFFFFFF AND EQ ISZERO PUSH2 0x1C01 JUMPI PUSH1 0x40 MLOAD PUSH32 0x8C379A000000000000000000000000000000000000000000000000000000000 DUP2 MSTORE PUSH1 0x4 ADD PUSH2 0x1BF8 SWAP1 PUSH2 0x27EC JUMP JUMPDEST PUSH1 0x40 MLOAD DUP1 SWAP2 SUB SWAP1 REVERT JUMPDEST PUSH2 0x1C0D DUP3 PUSH1 0x0 DUP4 PUSH2 0x1E44 JUMP JUMPDEST PUSH1 0x0 DUP1 PUSH1 0x0 DUP5 PUSH20 0xFFFFFFFFFFFFFFFFFFFFFFFFFFFFFFFFFFFFFFFF AND PUSH20 0xFFFFFFFFFFFFFFFFFFFFFFFFFFFFFFFFFFFFFFFF AND DUP2 MSTORE PUSH1 0x20 ADD SWAP1 DUP2 MSTORE PUSH1 0x20 ADD PUSH1 0x0 KECCAK256 SLOAD SWAP1 POP DUP2 DUP2 LT ISZERO PUSH2 0x1C93 JUMPI PUSH1 0x40 MLOAD PUSH32 0x8C379A000000000000000000000000000000000000000000000000000000000 DUP2 MSTORE PUSH1 0x4 ADD PUSH2 0x1C8A SWAP1 PUSH2 0x272C JUMP JUMPDEST PUSH1 0x40 MLOAD DUP1 SWAP2 SUB SWAP1 REVERT JUMPDEST DUP2 DUP2 SUB PUSH1 0x0 DUP1 DUP6 PUSH20 0xFFFFFFFFFFFFFFFFFFFFFFFFFFFFFFFFFFFFFFFF AND PUSH20 0xFFFFFFFFFFFFFFFFFFFFFFFFFFFFFFFFFFFFFFFF AND DUP2 MSTORE PUSH1 0x20 ADD SWAP1 DUP2 MSTORE PUSH1 0x20 ADD PUSH1 0x0 KECCAK256 DUP2 SWAP1 SSTORE POP DUP2 PUSH1 0x2 PUSH1 0x0 DUP3 DUP3 SLOAD PUSH2 0x1CEA SWAP2 SWAP1 PUSH2 0x29F9 JUMP JUMPDEST SWAP3 POP POP DUP2 SWAP1 SSTORE POP PUSH1 0x0 PUSH20 0xFFFFFFFFFFFFFFFFFFFFFFFFFFFFFFFFFFFFFFFF AND DUP4 PUSH20 0xFFFFFFFFFFFFFFFFFFFFFFFFFFFFFFFFFFFFFFFF AND PUSH32 0xDDF252AD1BE2C89B69C2B068FC378DAA952BA7F163C4A11628F55A4DF523B3EF DUP5 PUSH1 0x40 MLOAD PUSH2 0x1D4F SWAP2 SWAP1 PUSH2 0x28EC JUMP JUMPDEST PUSH1 0x40 MLOAD DUP1 SWAP2 SUB SWAP1 LOG3 PUSH2 0x1D63 DUP4 PUSH1 0x0 DUP5 PUSH2 0x1E49 JUMP JUMPDEST POP POP POP JUMP JUMPDEST PUSH1 0x6 PUSH1 0x0 DUP4 PUSH20 0xFFFFFFFFFFFFFFFFFFFFFFFFFFFFFFFFFFFFFFFF AND PUSH20 0xFFFFFFFFFFFFFFFFFFFFFFFFFFFFFFFFFFFFFFFF AND DUP2 MSTORE PUSH1 0x20 ADD SWAP1 DUP2 MSTORE PUSH1 0x20 ADD PUSH1 0x0 KECCAK256 SLOAD DUP2 GT ISZERO PUSH2 0x1DEA JUMPI PUSH1 0x40 MLOAD PUSH32 0x8C379A000000000000000000000000000000000000000000000000000000000 DUP2 MSTORE PUSH1 0x4 ADD PUSH2 0x1DE1 SWAP1 PUSH2 0x26EC JUMP JUMPDEST PUSH1 0x40 MLOAD DUP1 SWAP2 SUB SWAP1 REVERT JUMPDEST DUP1 PUSH1 0x6 PUSH1 0x0 DUP5 PUSH20 0xFFFFFFFFFFFFFFFFFFFFFFFFFFFFFFFFFFFFFFFF AND PUSH20 0xFFFFFFFFFFFFFFFFFFFFFFFFFFFFFFFFFFFFFFFF AND DUP2 MSTORE PUSH1 0x20 ADD SWAP1 DUP2 MSTORE PUSH1 0x20 ADD PUSH1 0x0 KECCAK256 PUSH1 0x0 DUP3 DUP3 SLOAD PUSH2 0x1E39 SWAP2 SWAP1 PUSH2 0x29F9 JUMP JUMPDEST SWAP3 POP POP DUP2 SWAP1 SSTORE POP POP POP JUMP JUMPDEST POP POP POP JUMP JUMPDEST POP POP POP JUMP JUMPDEST PUSH1 0x60 PUSH1 0x0 PUSH1 0x2 DUP4 PUSH1 0x2 PUSH2 0x1E61 SWAP2 SWAP1 PUSH2 0x299F JUMP JUMPDEST PUSH2 0x1E6B SWAP2 SWAP1 PUSH2 0x2949 JUMP JUMPDEST PUSH8 0xFFFFFFFFFFFFFFFF DUP2 GT ISZERO PUSH2 0x1E84 JUMPI PUSH2 0x1E83 PUSH2 0x2BD4 JUMP JUMPDEST JUMPDEST PUSH1 0x40 MLOAD SWAP1 DUP1 DUP3 MSTORE DUP1 PUSH1 0x1F ADD PUSH1 0x1F NOT AND PUSH1 0x20 ADD DUP3 ADD PUSH1 0x40 MSTORE DUP1 ISZERO PUSH2 0x1EB6 JUMPI DUP2 PUSH1 0x20 ADD PUSH1 0x1 DUP3 MUL DUP1 CALLDATASIZE DUP4 CALLDATACOPY DUP1 DUP3 ADD SWAP2 POP POP SWAP1 POP JUMPDEST POP SWAP1 POP PUSH32 0x3000000000000000000000000000000000000000000000000000000000000000 DUP2 PUSH1 0x0 DUP2 MLOAD DUP2 LT PUSH2 0x1EEE JUMPI PUSH2 0x1EED PUSH2 0x2BA5 JUMP JUMPDEST JUMPDEST PUSH1 0x20 ADD ADD SWAP1 PUSH31 0xFFFFFFFFFFFFFFFFFFFFFFFFFFFFFFFFFFFFFFFFFFFFFFFFFFFFFFFFFFFFFF NOT AND SWAP1 DUP2 PUSH1 0x0 BYTE SWAP1 MSTORE8 POP PUSH32 0x7800000000000000000000000000000000000000000000000000000000000000 DUP2 PUSH1 0x1 DUP2 MLOAD DUP2 LT PUSH2 0x1F52 JUMPI PUSH2 0x1F51 PUSH2 0x2BA5 JUMP JUMPDEST JUMPDEST PUSH1 0x20 ADD ADD SWAP1 PUSH31 0xFFFFFFFFFFFFFFFFFFFFFFFFFFFFFFFFFFFFFFFFFFFFFFFFFFFFFFFFFFFFFF NOT AND SWAP1 DUP2 PUSH1 0x0 BYTE SWAP1 MSTORE8 POP PUSH1 0x0 PUSH1 0x1 DUP5 PUSH1 0x2 PUSH2 0x1F92 SWAP2 SWAP1 PUSH2 0x299F JUMP JUMPDEST PUSH2 0x1F9C SWAP2 SWAP1 PUSH2 0x2949 JUMP JUMPDEST SWAP1 POP JUMPDEST PUSH1 0x1 DUP2 GT ISZERO PUSH2 0x203C JUMPI PUSH32 0x3031323334353637383961626364656600000000000000000000000000000000 PUSH1 0xF DUP7 AND PUSH1 0x10 DUP2 LT PUSH2 0x1FDE JUMPI PUSH2 0x1FDD PUSH2 0x2BA5 JUMP JUMPDEST JUMPDEST BYTE PUSH1 0xF8 SHL DUP3 DUP3 DUP2 MLOAD DUP2 LT PUSH2 0x1FF5 JUMPI PUSH2 0x1FF4 PUSH2 0x2BA5 JUMP JUMPDEST JUMPDEST PUSH1 0x20 ADD ADD SWAP1 PUSH31 0xFFFFFFFFFFFFFFFFFFFFFFFFFFFFFFFFFFFFFFFFFFFFFFFFFFFFFFFFFFFFFF NOT AND SWAP1 DUP2 PUSH1 0x0 BYTE SWAP1 MSTORE8 POP PUSH1 0x4 DUP6 SWAP1 SHR SWAP5 POP DUP1 PUSH2 0x2035 SWAP1 PUSH2 0x2AEB JUMP JUMPDEST SWAP1 POP PUSH2 0x1F9F JUMP JUMPDEST POP PUSH1 0x0 DUP5 EQ PUSH2 0x2080 JUMPI PUSH1 0x40 MLOAD PUSH32 0x8C379A000000000000000000000000000000000000000000000000000000000 DUP2 MSTORE PUSH1 0x4 ADD PUSH2 0x2077 SWAP1 PUSH2 0x26AC JUMP JUMPDEST PUSH1 0x40 MLOAD DUP1 SWAP2 SUB SWAP1 REVERT JUMPDEST DUP1 SWAP2 POP POP SWAP3 SWAP2 POP POP JUMP JUMPDEST PUSH1 0x0 DUP2 CALLDATALOAD SWAP1 POP PUSH2 0x2099 DUP2 PUSH2 0x3115 JUMP JUMPDEST SWAP3 SWAP2 POP POP JUMP JUMPDEST PUSH1 0x0 DUP2 CALLDATALOAD SWAP1 POP PUSH2 0x20AE DUP2 PUSH2 0x312C JUMP JUMPDEST SWAP3 SWAP2 POP POP JUMP JUMPDEST PUSH1 0x0 DUP2 CALLDATALOAD SWAP1 POP PUSH2 0x20C3 DUP2 PUSH2 0x3143 JUMP JUMPDEST SWAP3 SWAP2 POP POP JUMP JUMPDEST PUSH1 0x0 DUP2 CALLDATALOAD SWAP1 POP PUSH2 0x20D8 DUP2 PUSH2 0x315A JUMP JUMPDEST SWAP3 SWAP2 POP POP JUMP JUMPDEST PUSH1 0x0 PUSH1 0x20 DUP3 DUP5 SUB SLT ISZERO PUSH2 0x20F4 JUMPI PUSH2 0x20F3 PUSH2 0x2C03 JUMP JUMPDEST JUMPDEST PUSH1 0x0 PUSH2 0x2102 DUP5 DUP3 DUP6 ADD PUSH2 0x208A JUMP JUMPDEST SWAP2 POP POP SWAP3 SWAP2 POP POP JUMP JUMPDEST PUSH1 0x0 DUP1 PUSH1 0x40 DUP4 DUP6 SUB SLT ISZERO PUSH2 0x2122 JUMPI PUSH2 0x2121 PUSH2 0x2C03 JUMP JUMPDEST JUMPDEST PUSH1 0x0 PUSH2 0x2130 DUP6 DUP3 DUP7 ADD PUSH2 0x208A JUMP JUMPDEST SWAP3 POP POP PUSH1 0x20 PUSH2 0x2141 DUP6 DUP3 DUP7 ADD PUSH2 0x208A JUMP JUMPDEST SWAP2 POP POP SWAP3 POP SWAP3 SWAP1 POP JUMP JUMPDEST PUSH1 0x0 DUP1 PUSH1 0x0 PUSH1 0x60 DUP5 DUP7 SUB SLT ISZERO PUSH2 0x2164 JUMPI PUSH2 0x2163 PUSH2 0x2C03 JUMP JUMPDEST JUMPDEST PUSH1 0x0 PUSH2 0x2172 DUP7 DUP3 DUP8 ADD PUSH2 0x208A JUMP JUMPDEST SWAP4 POP POP PUSH1 0x20 PUSH2 0x2183 DUP7 DUP3 DUP8 ADD PUSH2 0x208A JUMP JUMPDEST SWAP3 POP POP PUSH1 0x40 PUSH2 0x2194 DUP7 DUP3 DUP8 ADD PUSH2 0x20C9 JUMP JUMPDEST SWAP2 POP POP SWAP3 POP SWAP3 POP SWAP3 JUMP JUMPDEST PUSH1 0x0 DUP1 PUSH1 0x40 DUP4 DUP6 SUB SLT ISZERO PUSH2 0x21B5 JUMPI PUSH2 0x21B4 PUSH2 0x2C03 JUMP JUMPDEST JUMPDEST PUSH1 0x0 PUSH2 0x21C3 DUP6 DUP3 DUP7 ADD PUSH2 0x208A JUMP JUMPDEST SWAP3 POP POP PUSH1 0x20 PUSH2 0x21D4 DUP6 DUP3 DUP7 ADD PUSH2 0x20C9 JUMP JUMPDEST SWAP2 POP POP SWAP3 POP SWAP3 SWAP1 POP JUMP JUMPDEST PUSH1 0x0 PUSH1 0x20 DUP3 DUP5 SUB SLT ISZERO PUSH2 0x21F4 JUMPI PUSH2 0x21F3 PUSH2 0x2C03 JUMP JUMPDEST JUMPDEST PUSH1 0x0 PUSH2 0x2202 DUP5 DUP3 DUP6 ADD PUSH2 0x209F JUMP JUMPDEST SWAP2 POP POP SWAP3 SWAP2 POP POP JUMP JUMPDEST PUSH1 0x0 DUP1 PUSH1 0x40 DUP4 DUP6 SUB SLT ISZERO PUSH2 0x2222 JUMPI PUSH2 0x2221 PUSH2 0x2C03 JUMP JUMPDEST JUMPDEST PUSH1 0x0 PUSH2 0x2230 DUP6 DUP3 DUP7 ADD PUSH2 0x209F JUMP JUMPDEST SWAP3 POP POP PUSH1 0x20 PUSH2 0x2241 DUP6 DUP3 DUP7 ADD PUSH2 0x208A JUMP JUMPDEST SWAP2 POP POP SWAP3 POP SWAP3 SWAP1 POP JUMP JUMPDEST PUSH1 0x0 PUSH1 0x20 DUP3 DUP5 SUB SLT ISZERO PUSH2 0x2261 JUMPI PUSH2 0x2260 PUSH2 0x2C03 JUMP JUMPDEST JUMPDEST PUSH1 0x0 PUSH2 0x226F DUP5 DUP3 DUP6 ADD PUSH2 0x20B4 JUMP JUMPDEST SWAP2 POP POP SWAP3 SWAP2 POP POP JUMP JUMPDEST PUSH1 0x0 DUP1 PUSH1 0x40 DUP4 DUP6 SUB SLT ISZERO PUSH2 0x228F JUMPI PUSH2 0x228E PUSH2 0x2C03 JUMP JUMPDEST JUMPDEST PUSH1 0x0 PUSH2 0x229D DUP6 DUP3 DUP7 ADD PUSH2 0x20C9 JUMP JUMPDEST SWAP3 POP POP PUSH1 0x20 PUSH2 0x22AE DUP6 DUP3 DUP7 ADD PUSH2 0x20C9 JUMP JUMPDEST SWAP2 POP POP SWAP3 POP SWAP3 SWAP1 POP JUMP JUMPDEST PUSH2 0x22C1 DUP2 PUSH2 0x2A3F JUMP JUMPDEST DUP3 MSTORE POP POP JUMP JUMPDEST PUSH2 0x22D0 DUP2 PUSH2 0x2A4B JUMP JUMPDEST DUP3 MSTORE POP POP JUMP JUMPDEST PUSH1 0x0 PUSH2 0x22E1 DUP3 PUSH2 0x2922 JUMP JUMPDEST PUSH2 0x22EB DUP2 DUP6 PUSH2 0x292D JUMP JUMPDEST SWAP4 POP PUSH2 0x22FB DUP2 DUP6 PUSH1 0x20 DUP7 ADD PUSH2 0x2AB8 JUMP JUMPDEST PUSH2 0x2304 DUP2 PUSH2 0x2C08 JUMP JUMPDEST DUP5 ADD SWAP2 POP POP SWAP3 SWAP2 POP POP JUMP JUMPDEST PUSH1 0x0 PUSH2 0x231A DUP3 PUSH2 0x2922 JUMP JUMPDEST PUSH2 0x2324 DUP2 DUP6 PUSH2 0x293E JUMP JUMPDEST SWAP4 POP PUSH2 0x2334 DUP2 DUP6 PUSH1 0x20 DUP7 ADD PUSH2 0x2AB8 JUMP JUMPDEST DUP1 DUP5 ADD SWAP2 POP POP SWAP3 SWAP2 POP POP JUMP JUMPDEST PUSH1 0x0 PUSH2 0x234D PUSH1 0x20 DUP4 PUSH2 0x292D JUMP JUMPDEST SWAP2 POP PUSH2 0x2358 DUP3 PUSH2 0x2C19 JUMP JUMPDEST PUSH1 0x20 DUP3 ADD SWAP1 POP SWAP2 SWAP1 POP JUMP JUMPDEST PUSH1 0x0 PUSH2 0x2370 PUSH1 0x23 DUP4 PUSH2 0x292D JUMP JUMPDEST SWAP2 POP PUSH2 0x237B DUP3 PUSH2 0x2C42 JUMP JUMPDEST PUSH1 0x40 DUP3 ADD SWAP1 POP SWAP2 SWAP1 POP JUMP JUMPDEST PUSH1 0x0 PUSH2 0x2393 PUSH1 0x38 DUP4 PUSH2 0x292D JUMP JUMPDEST SWAP2 POP PUSH2 0x239E DUP3 PUSH2 0x2C91 JUMP JUMPDEST PUSH1 0x40 DUP3 ADD SWAP1 POP SWAP2 SWAP1 POP JUMP JUMPDEST PUSH1 0x0 PUSH2 0x23B6 PUSH1 0x22 DUP4 PUSH2 0x292D JUMP JUMPDEST SWAP2 POP PUSH2 0x23C1 DUP3 PUSH2 0x2CE0 JUMP JUMPDEST PUSH1 0x40 DUP3 ADD SWAP1 POP SWAP2 SWAP1 POP JUMP JUMPDEST PUSH1 0x0 PUSH2 0x23D9 PUSH1 0x22 DUP4 PUSH2 0x292D JUMP JUMPDEST SWAP2 POP PUSH2 0x23E4 DUP3 PUSH2 0x2D2F JUMP JUMPDEST PUSH1 0x40 DUP3 ADD SWAP1 POP SWAP2 SWAP1 POP JUMP JUMPDEST PUSH1 0x0 PUSH2 0x23FC PUSH1 0x22 DUP4 PUSH2 0x292D JUMP JUMPDEST SWAP2 POP PUSH2 0x2407 DUP3 PUSH2 0x2D7E JUMP JUMPDEST PUSH1 0x40 DUP3 ADD SWAP1 POP SWAP2 SWAP1 POP JUMP JUMPDEST PUSH1 0x0 PUSH2 0x241F PUSH1 0x1D DUP4 PUSH2 0x292D JUMP JUMPDEST SWAP2 POP PUSH2 0x242A DUP3 PUSH2 0x2DCD JUMP JUMPDEST PUSH1 0x20 DUP3 ADD SWAP1 POP SWAP2 SWAP1 POP JUMP JUMPDEST PUSH1 0x0 PUSH2 0x2442 PUSH1 0x26 DUP4 PUSH2 0x292D JUMP JUMPDEST SWAP2 POP PUSH2 0x244D DUP3 PUSH2 0x2DF6 JUMP JUMPDEST PUSH1 0x40 DUP3 ADD SWAP1 POP SWAP2 SWAP1 POP JUMP JUMPDEST PUSH1 0x0 PUSH2 0x2465 PUSH1 0x28 DUP4 PUSH2 0x292D JUMP JUMPDEST SWAP2 POP PUSH2 0x2470 DUP3 PUSH2 0x2E45 JUMP JUMPDEST PUSH1 0x40 DUP3 ADD SWAP1 POP SWAP2 SWAP1 POP JUMP JUMPDEST PUSH1 0x0 PUSH2 0x2488 PUSH1 0x16 DUP4 PUSH2 0x292D JUMP JUMPDEST SWAP2 POP PUSH2 0x2493 DUP3 PUSH2 0x2E94 JUMP JUMPDEST PUSH1 0x20 DUP3 ADD SWAP1 POP SWAP2 SWAP1 POP JUMP JUMPDEST PUSH1 0x0 PUSH2 0x24AB PUSH1 0x21 DUP4 PUSH2 0x292D JUMP JUMPDEST SWAP2 POP PUSH2 0x24B6 DUP3 PUSH2 0x2EBD JUMP JUMPDEST PUSH1 0x40 DUP3 ADD SWAP1 POP SWAP2 SWAP1 POP JUMP JUMPDEST PUSH1 0x0 PUSH2 0x24CE PUSH1 0x25 DUP4 PUSH2 0x292D JUMP JUMPDEST SWAP2 POP PUSH2 0x24D9 DUP3 PUSH2 0x2F0C JUMP JUMPDEST PUSH1 0x40 DUP3 ADD SWAP1 POP SWAP2 SWAP1 POP JUMP JUMPDEST PUSH1 0x0 PUSH2 0x24F1 PUSH1 0x18 DUP4 PUSH2 0x292D JUMP JUMPDEST SWAP2 POP PUSH2 0x24FC DUP3 PUSH2 0x2F5B JUMP JUMPDEST PUSH1 0x20 DUP3 ADD SWAP1 POP SWAP2 SWAP1 POP JUMP JUMPDEST PUSH1 0x0 PUSH2 0x2514 PUSH1 0x24 DUP4 PUSH2 0x292D JUMP JUMPDEST SWAP2 POP PUSH2 0x251F DUP3 PUSH2 0x2F84 JUMP JUMPDEST PUSH1 0x40 DUP3 ADD SWAP1 POP SWAP2 SWAP1 POP JUMP JUMPDEST PUSH1 0x0 PUSH2 0x2537 PUSH1 0x20 DUP4 PUSH2 0x292D JUMP JUMPDEST SWAP2 POP PUSH2 0x2542 DUP3 PUSH2 0x2FD3 JUMP JUMPDEST PUSH1 0x20 DUP3 ADD SWAP1 POP SWAP2 SWAP1 POP JUMP JUMPDEST PUSH1 0x0 PUSH2 0x255A PUSH1 0x17 DUP4 PUSH2 0x293E JUMP JUMPDEST SWAP2 POP PUSH2 0x2565 DUP3 PUSH2 0x2FFC JUMP JUMPDEST PUSH1 0x17 DUP3 ADD SWAP1 POP SWAP2 SWAP1 POP JUMP JUMPDEST PUSH1 0x0 PUSH2 0x257D PUSH1 0x25 DUP4 PUSH2 0x292D JUMP JUMPDEST SWAP2 POP PUSH2 0x2588 DUP3 PUSH2 0x3025 JUMP JUMPDEST PUSH1 0x40 DUP3 ADD SWAP1 POP SWAP2 SWAP1 POP JUMP JUMPDEST PUSH1 0x0 PUSH2 0x25A0 PUSH1 0x11 DUP4 PUSH2 0x293E JUMP JUMPDEST SWAP2 POP PUSH2 0x25AB DUP3 PUSH2 0x3074 JUMP JUMPDEST PUSH1 0x11 DUP3 ADD SWAP1 POP SWAP2 SWAP1 POP JUMP JUMPDEST PUSH1 0x0 PUSH2 0x25C3 PUSH1 0x2F DUP4 PUSH2 0x292D JUMP JUMPDEST SWAP2 POP PUSH2 0x25CE DUP3 PUSH2 0x309D JUMP JUMPDEST PUSH1 0x40 DUP3 ADD SWAP1 POP SWAP2 SWAP1 POP JUMP JUMPDEST PUSH1 0x0 PUSH2 0x25E6 PUSH1 0x1F DUP4 PUSH2 0x292D JUMP JUMPDEST SWAP2 POP PUSH2 0x25F1 DUP3 PUSH2 0x30EC JUMP JUMPDEST PUSH1 0x20 DUP3 ADD SWAP1 POP SWAP2 SWAP1 POP JUMP JUMPDEST PUSH2 0x2605 DUP2 PUSH2 0x2AA1 JUMP JUMPDEST DUP3 MSTORE POP POP JUMP JUMPDEST PUSH2 0x2614 DUP2 PUSH2 0x2AAB JUMP JUMPDEST DUP3 MSTORE POP POP JUMP JUMPDEST PUSH1 0x0 PUSH2 0x2625 DUP3 PUSH2 0x254D JUMP JUMPDEST SWAP2 POP PUSH2 0x2631 DUP3 DUP6 PUSH2 0x230F JUMP JUMPDEST SWAP2 POP PUSH2 0x263C DUP3 PUSH2 0x2593 JUMP JUMPDEST SWAP2 POP PUSH2 0x2648 DUP3 DUP5 PUSH2 0x230F JUMP JUMPDEST SWAP2 POP DUP2 SWAP1 POP SWAP4 SWAP3 POP POP POP JUMP JUMPDEST PUSH1 0x0 PUSH1 0x20 DUP3 ADD SWAP1 POP PUSH2 0x2669 PUSH1 0x0 DUP4 ADD DUP5 PUSH2 0x22B8 JUMP JUMPDEST SWAP3 SWAP2 POP POP JUMP JUMPDEST PUSH1 0x0 PUSH1 0x20 DUP3 ADD SWAP1 POP PUSH2 0x2684 PUSH1 0x0 DUP4 ADD DUP5 PUSH2 0x22C7 JUMP JUMPDEST SWAP3 SWAP2 POP POP JUMP JUMPDEST PUSH1 0x0 PUSH1 0x20 DUP3 ADD SWAP1 POP DUP2 DUP2 SUB PUSH1 0x0 DUP4 ADD MSTORE PUSH2 0x26A4 DUP2 DUP5 PUSH2 0x22D6 JUMP JUMPDEST SWAP1 POP SWAP3 SWAP2 POP POP JUMP JUMPDEST PUSH1 0x0 PUSH1 0x20 DUP3 ADD SWAP1 POP DUP2 DUP2 SUB PUSH1 0x0 DUP4 ADD MSTORE PUSH2 0x26C5 DUP2 PUSH2 0x2340 JUMP JUMPDEST SWAP1 POP SWAP2 SWAP1 POP JUMP JUMPDEST PUSH1 0x0 PUSH1 0x20 DUP3 ADD SWAP1 POP DUP2 DUP2 SUB PUSH1 0x0 DUP4 ADD MSTORE PUSH2 0x26E5 DUP2 PUSH2 0x2363 JUMP JUMPDEST SWAP1 POP SWAP2 SWAP1 POP JUMP JUMPDEST PUSH1 0x0 PUSH1 0x20 DUP3 ADD SWAP1 POP DUP2 DUP2 SUB PUSH1 0x0 DUP4 ADD MSTORE PUSH2 0x2705 DUP2 PUSH2 0x2386 JUMP JUMPDEST SWAP1 POP SWAP2 SWAP1 POP JUMP JUMPDEST PUSH1 0x0 PUSH1 0x20 DUP3 ADD SWAP1 POP DUP2 DUP2 SUB PUSH1 0x0 DUP4 ADD MSTORE PUSH2 0x2725 DUP2 PUSH2 0x23A9 JUMP JUMPDEST SWAP1 POP SWAP2 SWAP1 POP JUMP JUMPDEST PUSH1 0x0 PUSH1 0x20 DUP3 ADD SWAP1 POP DUP2 DUP2 SUB PUSH1 0x0 DUP4 ADD MSTORE PUSH2 0x2745 DUP2 PUSH2 0x23CC JUMP JUMPDEST SWAP1 POP SWAP2 SWAP1 POP JUMP JUMPDEST PUSH1 0x0 PUSH1 0x20 DUP3 ADD SWAP1 POP DUP2 DUP2 SUB PUSH1 0x0 DUP4 ADD MSTORE PUSH2 0x2765 DUP2 PUSH2 0x23EF JUMP JUMPDEST SWAP1 POP SWAP2 SWAP1 POP JUMP JUMPDEST PUSH1 0x0 PUSH1 0x20 DUP3 ADD SWAP1 POP DUP2 DUP2 SUB PUSH1 0x0 DUP4 ADD MSTORE PUSH2 0x2785 DUP2 PUSH2 0x2412 JUMP JUMPDEST SWAP1 POP SWAP2 SWAP1 POP JUMP JUMPDEST PUSH1 0x0 PUSH1 0x20 DUP3 ADD SWAP1 POP DUP2 DUP2 SUB PUSH1 0x0 DUP4 ADD MSTORE PUSH2 0x27A5 DUP2 PUSH2 0x2435 JUMP JUMPDEST SWAP1 POP SWAP2 SWAP1 POP JUMP JUMPDEST PUSH1 0x0 PUSH1 0x20 DUP3 ADD SWAP1 POP DUP2 DUP2 SUB PUSH1 0x0 DUP4 ADD MSTORE PUSH2 0x27C5 DUP2 PUSH2 0x2458 JUMP JUMPDEST SWAP1 POP SWAP2 SWAP1 POP JUMP JUMPDEST PUSH1 0x0 PUSH1 0x20 DUP3 ADD SWAP1 POP DUP2 DUP2 SUB PUSH1 0x0 DUP4 ADD MSTORE PUSH2 0x27E5 DUP2 PUSH2 0x247B JUMP JUMPDEST SWAP1 POP SWAP2 SWAP1 POP JUMP JUMPDEST PUSH1 0x0 PUSH1 0x20 DUP3 ADD SWAP1 POP DUP2 DUP2 SUB PUSH1 0x0 DUP4 ADD MSTORE PUSH2 0x2805 DUP2 PUSH2 0x249E JUMP JUMPDEST SWAP1 POP SWAP2 SWAP1 POP JUMP JUMPDEST PUSH1 0x0 PUSH1 0x20 DUP3 ADD SWAP1 POP DUP2 DUP2 SUB PUSH1 0x0 DUP4 ADD MSTORE PUSH2 0x2825 DUP2 PUSH2 0x24C1 JUMP JUMPDEST SWAP1 POP SWAP2 SWAP1 POP JUMP JUMPDEST PUSH1 0x0 PUSH1 0x20 DUP3 ADD SWAP1 POP DUP2 DUP2 SUB PUSH1 0x0 DUP4 ADD MSTORE PUSH2 0x2845 DUP2 PUSH2 0x24E4 JUMP JUMPDEST SWAP1 POP SWAP2 SWAP1 POP JUMP JUMPDEST PUSH1 0x0 PUSH1 0x20 DUP3 ADD SWAP1 POP DUP2 DUP2 SUB PUSH1 0x0 DUP4 ADD MSTORE PUSH2 0x2865 DUP2 PUSH2 0x2507 JUMP JUMPDEST SWAP1 POP SWAP2 SWAP1 POP JUMP JUMPDEST PUSH1 0x0 PUSH1 0x20 DUP3 ADD SWAP1 POP DUP2 DUP2 SUB PUSH1 0x0 DUP4 ADD MSTORE PUSH2 0x2885 DUP2 PUSH2 0x252A JUMP JUMPDEST SWAP1 POP SWAP2 SWAP1 POP JUMP JUMPDEST PUSH1 0x0 PUSH1 0x20 DUP3 ADD SWAP1 POP DUP2 DUP2 SUB PUSH1 0x0 DUP4 ADD MSTORE PUSH2 0x28A5 DUP2 PUSH2 0x2570 JUMP JUMPDEST SWAP1 POP SWAP2 SWAP1 POP JUMP JUMPDEST PUSH1 0x0 PUSH1 0x20 DUP3 ADD SWAP1 POP DUP2 DUP2 SUB PUSH1 0x0 DUP4 ADD MSTORE PUSH2 0x28C5 DUP2 PUSH2 0x25B6 JUMP JUMPDEST SWAP1 POP SWAP2 SWAP1 POP JUMP JUMPDEST PUSH1 0x0 PUSH1 0x20 DUP3 ADD SWAP1 POP DUP2 DUP2 SUB PUSH1 0x0 DUP4 ADD MSTORE PUSH2 0x28E5 DUP2 PUSH2 0x25D9 JUMP JUMPDEST SWAP1 POP SWAP2 SWAP1 POP JUMP JUMPDEST PUSH1 0x0 PUSH1 0x20 DUP3 ADD SWAP1 POP PUSH2 0x2901 PUSH1 0x0 DUP4 ADD DUP5 PUSH2 0x25FC JUMP JUMPDEST SWAP3 SWAP2 POP POP JUMP JUMPDEST PUSH1 0x0 PUSH1 0x20 DUP3 ADD SWAP1 POP PUSH2 0x291C PUSH1 0x0 DUP4 ADD DUP5 PUSH2 0x260B JUMP JUMPDEST SWAP3 SWAP2 POP POP JUMP JUMPDEST PUSH1 0x0 DUP2 MLOAD SWAP1 POP SWAP2 SWAP1 POP JUMP JUMPDEST PUSH1 0x0 DUP3 DUP3 MSTORE PUSH1 0x20 DUP3 ADD SWAP1 POP SWAP3 SWAP2 POP POP JUMP JUMPDEST PUSH1 0x0 DUP2 SWAP1 POP SWAP3 SWAP2 POP POP JUMP JUMPDEST PUSH1 0x0 PUSH2 0x2954 DUP3 PUSH2 0x2AA1 JUMP JUMPDEST SWAP2 POP PUSH2 0x295F DUP4 PUSH2 0x2AA1 JUMP JUMPDEST SWAP3 POP DUP3 PUSH32 0xFFFFFFFFFFFFFFFFFFFFFFFFFFFFFFFFFFFFFFFFFFFFFFFFFFFFFFFFFFFFFFFF SUB DUP3 GT ISZERO PUSH2 0x2994 JUMPI PUSH2 0x2993 PUSH2 0x2B47 JUMP JUMPDEST JUMPDEST DUP3 DUP3 ADD SWAP1 POP SWAP3 SWAP2 POP POP JUMP JUMPDEST PUSH1 0x0 PUSH2 0x29AA DUP3 PUSH2 0x2AA1 JUMP JUMPDEST SWAP2 POP PUSH2 0x29B5 DUP4 PUSH2 0x2AA1 JUMP JUMPDEST SWAP3 POP DUP2 PUSH32 0xFFFFFFFFFFFFFFFFFFFFFFFFFFFFFFFFFFFFFFFFFFFFFFFFFFFFFFFFFFFFFFFF DIV DUP4 GT DUP3 ISZERO ISZERO AND ISZERO PUSH2 0x29EE JUMPI PUSH2 0x29ED PUSH2 0x2B47 JUMP JUMPDEST JUMPDEST DUP3 DUP3 MUL SWAP1 POP SWAP3 SWAP2 POP POP JUMP JUMPDEST PUSH1 0x0 PUSH2 0x2A04 DUP3 PUSH2 0x2AA1 JUMP JUMPDEST SWAP2 POP PUSH2 0x2A0F DUP4 PUSH2 0x2AA1 JUMP JUMPDEST SWAP3 POP DUP3 DUP3 LT ISZERO PUSH2 0x2A22 JUMPI PUSH2 0x2A21 PUSH2 0x2B47 JUMP JUMPDEST JUMPDEST DUP3 DUP3 SUB SWAP1 POP SWAP3 SWAP2 POP POP JUMP JUMPDEST PUSH1 0x0 PUSH2 0x2A38 DUP3 PUSH2 0x2A81 JUMP JUMPDEST SWAP1 POP SWAP2 SWAP1 POP JUMP JUMPDEST PUSH1 0x0 DUP2 ISZERO ISZERO SWAP1 POP SWAP2 SWAP1 POP JUMP JUMPDEST PUSH1 0x0 DUP2 SWAP1 POP SWAP2 SWAP1 POP JUMP JUMPDEST PUSH1 0x0 PUSH32 0xFFFFFFFF00000000000000000000000000000000000000000000000000000000 DUP3 AND SWAP1 POP SWAP2 SWAP1 POP JUMP JUMPDEST PUSH1 0x0 PUSH20 0xFFFFFFFFFFFFFFFFFFFFFFFFFFFFFFFFFFFFFFFF DUP3 AND SWAP1 POP SWAP2 SWAP1 POP JUMP JUMPDEST PUSH1 0x0 DUP2 SWAP1 POP SWAP2 SWAP1 POP JUMP JUMPDEST PUSH1 0x0 PUSH1 0xFF DUP3 AND SWAP1 POP SWAP2 SWAP1 POP JUMP JUMPDEST PUSH1 0x0 JUMPDEST DUP4 DUP2 LT ISZERO PUSH2 0x2AD6 JUMPI DUP1 DUP3 ADD MLOAD DUP2 DUP5 ADD MSTORE PUSH1 0x20 DUP2 ADD SWAP1 POP PUSH2 0x2ABB JUMP JUMPDEST DUP4 DUP2 GT ISZERO PUSH2 0x2AE5 JUMPI PUSH1 0x0 DUP5 DUP5 ADD MSTORE JUMPDEST POP POP POP POP JUMP JUMPDEST PUSH1 0x0 PUSH2 0x2AF6 DUP3 PUSH2 0x2AA1 JUMP JUMPDEST SWAP2 POP PUSH1 0x0 DUP3 EQ ISZERO PUSH2 0x2B0A JUMPI PUSH2 0x2B09 PUSH2 0x2B47 JUMP JUMPDEST JUMPDEST PUSH1 0x1 DUP3 SUB SWAP1 POP SWAP2 SWAP1 POP JUMP JUMPDEST PUSH1 0x0 PUSH1 0x2 DUP3 DIV SWAP1 POP PUSH1 0x1 DUP3 AND DUP1 PUSH2 0x2B2D JUMPI PUSH1 0x7F DUP3 AND SWAP2 POP JUMPDEST PUSH1 0x20 DUP3 LT DUP2 EQ ISZERO PUSH2 0x2B41 JUMPI PUSH2 0x2B40 PUSH2 0x2B76 JUMP JUMPDEST JUMPDEST POP SWAP2 SWAP1 POP JUMP JUMPDEST PUSH32 0x4E487B7100000000000000000000000000000000000000000000000000000000 PUSH1 0x0 MSTORE PUSH1 0x11 PUSH1 0x4 MSTORE PUSH1 0x24 PUSH1 0x0 REVERT JUMPDEST PUSH32 0x4E487B7100000000000000000000000000000000000000000000000000000000 PUSH1 0x0 MSTORE PUSH1 0x22 PUSH1 0x4 MSTORE PUSH1 0x24 PUSH1 0x0 REVERT JUMPDEST PUSH32 0x4E487B7100000000000000000000000000000000000000000000000000000000 PUSH1 0x0 MSTORE PUSH1 0x32 PUSH1 0x4 MSTORE PUSH1 0x24 PUSH1 0x0 REVERT JUMPDEST PUSH32 0x4E487B7100000000000000000000000000000000000000000000000000000000 PUSH1 0x0 MSTORE PUSH1 0x41 PUSH1 0x4 MSTORE PUSH1 0x24 PUSH1 0x0 REVERT JUMPDEST PUSH1 0x0 DUP1 REVERT JUMPDEST PUSH1 0x0 PUSH1 0x1F NOT PUSH1 0x1F DUP4 ADD AND SWAP1 POP SWAP2 SWAP1 POP JUMP JUMPDEST PUSH32 0x537472696E67733A20686578206C656E67746820696E73756666696369656E74 PUSH1 0x0 DUP3 ADD MSTORE POP JUMP JUMPDEST PUSH32 0x45524332303A207472616E7366657220746F20746865207A65726F2061646472 PUSH1 0x0 DUP3 ADD MSTORE PUSH32 0x6573730000000000000000000000000000000000000000000000000000000000 PUSH1 0x20 DUP3 ADD MSTORE POP JUMP JUMPDEST PUSH32 0x416D6F756E7420746F2072656D6F76652063616E6E6F74206265206772656174 PUSH1 0x0 DUP3 ADD MSTORE PUSH32 0x6572207468616E20756E636C61696D656420616D6F756E740000000000000000 PUSH1 0x20 DUP3 ADD MSTORE POP JUMP JUMPDEST PUSH32 0x546865206D617820737570706C7920686173206265656E206578686175737465 PUSH1 0x0 DUP3 ADD MSTORE PUSH32 0x642E000000000000000000000000000000000000000000000000000000000000 PUSH1 0x20 DUP3 ADD MSTORE POP JUMP JUMPDEST PUSH32 0x45524332303A206275726E20616D6F756E7420657863656564732062616C616E PUSH1 0x0 DUP3 ADD MSTORE PUSH32 0x6365000000000000000000000000000000000000000000000000000000000000 PUSH1 0x20 DUP3 ADD MSTORE POP JUMP JUMPDEST PUSH32 0x45524332303A20617070726F766520746F20746865207A65726F206164647265 PUSH1 0x0 DUP3 ADD MSTORE PUSH32 0x7373000000000000000000000000000000000000000000000000000000000000 PUSH1 0x20 DUP3 ADD MSTORE POP JUMP JUMPDEST PUSH32 0x45524332303A20696E73756666696369656E7420616C6C6F77616E6365000000 PUSH1 0x0 DUP3 ADD MSTORE POP JUMP JUMPDEST PUSH32 0x45524332303A207472616E7366657220616D6F756E7420657863656564732062 PUSH1 0x0 DUP3 ADD MSTORE PUSH32 0x616C616E63650000000000000000000000000000000000000000000000000000 PUSH1 0x20 DUP3 ADD MSTORE POP JUMP JUMPDEST PUSH32 0x556E636C61696D65642062616C616E6365206D75737420626520677265617465 PUSH1 0x0 DUP3 ADD MSTORE PUSH32 0x72207468616E2030000000000000000000000000000000000000000000000000 PUSH1 0x20 DUP3 ADD MSTORE POP JUMP JUMPDEST PUSH32 0x43616C6C6572206973206E6F742061206275726E657200000000000000000000 PUSH1 0x0 DUP3 ADD MSTORE POP JUMP JUMPDEST PUSH32 0x45524332303A206275726E2066726F6D20746865207A65726F20616464726573 PUSH1 0x0 DUP3 ADD MSTORE PUSH32 0x7300000000000000000000000000000000000000000000000000000000000000 PUSH1 0x20 DUP3 ADD MSTORE POP JUMP JUMPDEST PUSH32 0x45524332303A207472616E736665722066726F6D20746865207A65726F206164 PUSH1 0x0 DUP3 ADD MSTORE PUSH32 0x6472657373000000000000000000000000000000000000000000000000000000 PUSH1 0x20 DUP3 ADD MSTORE POP JUMP JUMPDEST PUSH32 0x43616C6C6572206973206E6F7420612072657761726465720000000000000000 PUSH1 0x0 DUP3 ADD MSTORE POP JUMP JUMPDEST PUSH32 0x45524332303A20617070726F76652066726F6D20746865207A65726F20616464 PUSH1 0x0 DUP3 ADD MSTORE PUSH32 0x7265737300000000000000000000000000000000000000000000000000000000 PUSH1 0x20 DUP3 ADD MSTORE POP JUMP JUMPDEST PUSH32 0x636C61696D61626C65206D7573742062652067726561746572207468616E2030 PUSH1 0x0 DUP3 ADD MSTORE POP JUMP JUMPDEST PUSH32 0x416363657373436F6E74726F6C3A206163636F756E7420000000000000000000 PUSH1 0x0 DUP3 ADD MSTORE POP JUMP JUMPDEST PUSH32 0x45524332303A2064656372656173656420616C6C6F77616E63652062656C6F77 PUSH1 0x0 DUP3 ADD MSTORE PUSH32 0x207A65726F000000000000000000000000000000000000000000000000000000 PUSH1 0x20 DUP3 ADD MSTORE POP JUMP JUMPDEST PUSH32 0x206973206D697373696E6720726F6C6520000000000000000000000000000000 PUSH1 0x0 DUP3 ADD MSTORE POP JUMP JUMPDEST PUSH32 0x416363657373436F6E74726F6C3A2063616E206F6E6C792072656E6F756E6365 PUSH1 0x0 DUP3 ADD MSTORE PUSH32 0x20726F6C657320666F722073656C660000000000000000000000000000000000 PUSH1 0x20 DUP3 ADD MSTORE POP JUMP JUMPDEST PUSH32 0x45524332303A206D696E7420746F20746865207A65726F206164647265737300 PUSH1 0x0 DUP3 ADD MSTORE POP JUMP JUMPDEST PUSH2 0x311E DUP2 PUSH2 0x2A2D JUMP JUMPDEST DUP2 EQ PUSH2 0x3129 JUMPI PUSH1 0x0 DUP1 REVERT JUMPDEST POP JUMP JUMPDEST PUSH2 0x3135 DUP2 PUSH2 0x2A4B JUMP JUMPDEST DUP2 EQ PUSH2 0x3140 JUMPI PUSH1 0x0 DUP1 REVERT JUMPDEST POP JUMP JUMPDEST PUSH2 0x314C DUP2 PUSH2 0x2A55 JUMP JUMPDEST DUP2 EQ PUSH2 0x3157 JUMPI PUSH1 0x0 DUP1 REVERT JUMPDEST POP JUMP JUMPDEST PUSH2 0x3163 DUP2 PUSH2 0x2AA1 JUMP JUMPDEST DUP2 EQ PUSH2 0x316E JUMPI PUSH1 0x0 DUP1 REVERT JUMPDEST POP JUMP INVALID LOG2 PUSH5 0x6970667358 0x22 SLT KECCAK256 RETURNDATASIZE 0x49 0x4A LOG2 0x26 0xC2 0xDC 0xC4 0xAE PUSH11 0xC5934F85600DFE4EBE1D6 0x5C 0xD1 JUMPDEST 0xC9 0x21 LT MOD SELFBALANCE 0xEA PUSH25 0x3664736F6C6343000807003300000000000000000000000000 "
				},
				"gasEstimates": {
					"creation": {
						"codeDepositCost": "2542200",
						"executionCost": "infinite",
						"totalCost": "infinite"
					},
					"external": {
						"BURNER_ROLE()": "375",
						"DEFAULT_ADMIN_ROLE()": "380",
						"REWARDER_ROLE()": "419",
						"allowance(address,address)": "infinite",
						"approve(address,uint256)": "infinite",
						"balanceOf(address)": "2887",
						"burn(address,uint256)": "infinite",
						"claim()": "infinite",
						"claimed(address)": "2925",
						"createClaimable(address,uint256)": "infinite",
						"decimals()": "433",
						"decreaseAllowance(address,uint256)": "infinite",
						"getRoleAdmin(bytes32)": "infinite",
						"grantRole(bytes32,address)": "infinite",
						"hasRole(bytes32,address)": "3207",
						"increaseAllowance(address,uint256)": "infinite",
						"maxSupply()": "395",
						"min(uint256,uint256)": "infinite",
						"mintedAmt()": "2497",
						"name()": "infinite",
						"removeClaimable(address,uint256)": "infinite",
						"renounceRole(bytes32,address)": "infinite",
						"revokeRole(bytes32,address)": "infinite",
						"supportsInterface(bytes4)": "774",
						"symbol()": "infinite",
						"totalSupply()": "2483",
						"transfer(address,uint256)": "infinite",
						"transferFrom(address,address,uint256)": "infinite",
						"unclaimed(address)": "2925"
					}
				},
				"methodIdentifiers": {
					"BURNER_ROLE()": "282c51f3",
					"DEFAULT_ADMIN_ROLE()": "a217fddf",
					"REWARDER_ROLE()": "8580cf76",
					"allowance(address,address)": "dd62ed3e",
					"approve(address,uint256)": "095ea7b3",
					"balanceOf(address)": "70a08231",
					"burn(address,uint256)": "9dc29fac",
					"claim()": "4e71d92d",
					"claimed(address)": "c884ef83",
					"createClaimable(address,uint256)": "8a9db765",
					"decimals()": "313ce567",
					"decreaseAllowance(address,uint256)": "a457c2d7",
					"getRoleAdmin(bytes32)": "248a9ca3",
					"grantRole(bytes32,address)": "2f2ff15d",
					"hasRole(bytes32,address)": "91d14854",
					"increaseAllowance(address,uint256)": "39509351",
					"maxSupply()": "d5abeb01",
					"min(uint256,uint256)": "7ae2b5c7",
					"mintedAmt()": "1adb068a",
					"name()": "06fdde03",
					"removeClaimable(address,uint256)": "e5b7f305",
					"renounceRole(bytes32,address)": "36568abe",
					"revokeRole(bytes32,address)": "d547741f",
					"supportsInterface(bytes4)": "01ffc9a7",
					"symbol()": "95d89b41",
					"totalSupply()": "18160ddd",
					"transfer(address,uint256)": "a9059cbb",
					"transferFrom(address,address,uint256)": "23b872dd",
					"unclaimed(address)": "505bd3da"
				}
			},
			"userdoc": {
				"kind": "user",
				"methods": {},
				"version": 1
			}
		}
	}
}