{
	"contracts/Token.sol": {
		"FooToken": {
			"abi": [
				{
					"inputs": [],
					"stateMutability": "nonpayable",
					"type": "constructor"
				},
				{
					"anonymous": false,
					"inputs": [
						{
							"indexed": true,
							"internalType": "address",
							"name": "owner",
							"type": "address"
						},
						{
							"indexed": true,
							"internalType": "address",
							"name": "spender",
							"type": "address"
						},
						{
							"indexed": false,
							"internalType": "uint256",
							"name": "value",
							"type": "uint256"
						}
					],
					"name": "Approval",
					"type": "event"
				},
				{
					"anonymous": false,
					"inputs": [
						{
							"indexed": true,
							"internalType": "bytes32",
							"name": "role",
							"type": "bytes32"
						},
						{
							"indexed": true,
							"internalType": "bytes32",
							"name": "previousAdminRole",
							"type": "bytes32"
						},
						{
							"indexed": true,
							"internalType": "bytes32",
							"name": "newAdminRole",
							"type": "bytes32"
						}
					],
					"name": "RoleAdminChanged",
					"type": "event"
				},
				{
					"anonymous": false,
					"inputs": [
						{
							"indexed": true,
							"internalType": "bytes32",
							"name": "role",
							"type": "bytes32"
						},
						{
							"indexed": true,
							"internalType": "address",
							"name": "account",
							"type": "address"
						},
						{
							"indexed": true,
							"internalType": "address",
							"name": "sender",
							"type": "address"
						}
					],
					"name": "RoleGranted",
					"type": "event"
				},
				{
					"anonymous": false,
					"inputs": [
						{
							"indexed": true,
							"internalType": "bytes32",
							"name": "role",
							"type": "bytes32"
						},
						{
							"indexed": true,
							"internalType": "address",
							"name": "account",
							"type": "address"
						},
						{
							"indexed": true,
							"internalType": "address",
							"name": "sender",
							"type": "address"
						}
					],
					"name": "RoleRevoked",
					"type": "event"
				},
				{
					"anonymous": false,
					"inputs": [
						{
							"indexed": true,
							"internalType": "address",
							"name": "from",
							"type": "address"
						},
						{
							"indexed": true,
							"internalType": "address",
							"name": "to",
							"type": "address"
						},
						{
							"indexed": false,
							"internalType": "uint256",
							"name": "value",
							"type": "uint256"
						}
					],
					"name": "Transfer",
					"type": "event"
				},
				{
					"inputs": [],
					"name": "BURNER_ROLE",
					"outputs": [
						{
							"internalType": "bytes32",
							"name": "",
							"type": "bytes32"
						}
					],
					"stateMutability": "view",
					"type": "function"
				},
				{
					"inputs": [],
					"name": "DEFAULT_ADMIN_ROLE",
					"outputs": [
						{
							"internalType": "bytes32",
							"name": "",
							"type": "bytes32"
						}
					],
					"stateMutability": "view",
					"type": "function"
				},
				{
					"inputs": [],
					"name": "MINTER_ROLE",
					"outputs": [
						{
							"internalType": "bytes32",
							"name": "",
							"type": "bytes32"
						}
					],
					"stateMutability": "view",
					"type": "function"
				},
				{
					"inputs": [],
					"name": "REWARDER_ROLE",
					"outputs": [
						{
							"internalType": "bytes32",
							"name": "",
							"type": "bytes32"
						}
					],
					"stateMutability": "view",
					"type": "function"
				},
				{
					"inputs": [
						{
							"internalType": "address",
							"name": "owner",
							"type": "address"
						},
						{
							"internalType": "address",
							"name": "spender",
							"type": "address"
						}
					],
					"name": "allowance",
					"outputs": [
						{
							"internalType": "uint256",
							"name": "",
							"type": "uint256"
						}
					],
					"stateMutability": "view",
					"type": "function"
				},
				{
					"inputs": [
						{
							"internalType": "address",
							"name": "spender",
							"type": "address"
						},
						{
							"internalType": "uint256",
							"name": "amount",
							"type": "uint256"
						}
					],
					"name": "approve",
					"outputs": [
						{
							"internalType": "bool",
							"name": "",
							"type": "bool"
						}
					],
					"stateMutability": "nonpayable",
					"type": "function"
				},
				{
					"inputs": [
						{
							"internalType": "address",
							"name": "account",
							"type": "address"
						}
					],
					"name": "balanceOf",
					"outputs": [
						{
							"internalType": "uint256",
							"name": "",
							"type": "uint256"
						}
					],
					"stateMutability": "view",
					"type": "function"
				},
				{
					"inputs": [
						{
							"internalType": "address",
							"name": "from",
							"type": "address"
						},
						{
							"internalType": "uint256",
							"name": "amount",
							"type": "uint256"
						}
					],
					"name": "burn",
					"outputs": [],
					"stateMutability": "nonpayable",
					"type": "function"
				},
				{
					"inputs": [],
					"name": "claim",
					"outputs": [],
					"stateMutability": "payable",
					"type": "function"
				},
				{
					"inputs": [
						{
							"internalType": "address",
							"name": "",
							"type": "address"
						}
					],
					"name": "claimed",
					"outputs": [
						{
							"internalType": "uint256",
							"name": "",
							"type": "uint256"
						}
					],
					"stateMutability": "view",
					"type": "function"
				},
				{
					"inputs": [
						{
							"internalType": "address",
							"name": "_account",
							"type": "address"
						},
						{
							"internalType": "uint256",
							"name": "_amount",
							"type": "uint256"
						}
					],
					"name": "createClaimable",
					"outputs": [],
					"stateMutability": "nonpayable",
					"type": "function"
				},
				{
					"inputs": [],
					"name": "decimals",
					"outputs": [
						{
							"internalType": "uint8",
							"name": "",
							"type": "uint8"
						}
					],
					"stateMutability": "view",
					"type": "function"
				},
				{
					"inputs": [
						{
							"internalType": "address",
							"name": "spender",
							"type": "address"
						},
						{
							"internalType": "uint256",
							"name": "subtractedValue",
							"type": "uint256"
						}
					],
					"name": "decreaseAllowance",
					"outputs": [
						{
							"internalType": "bool",
							"name": "",
							"type": "bool"
						}
					],
					"stateMutability": "nonpayable",
					"type": "function"
				},
				{
					"inputs": [
						{
							"internalType": "address",
							"name": "_account",
							"type": "address"
						}
					],
					"name": "getClaimed",
					"outputs": [
						{
							"internalType": "uint256",
							"name": "",
							"type": "uint256"
						}
					],
					"stateMutability": "view",
					"type": "function"
				},
				{
					"inputs": [
						{
							"internalType": "bytes32",
							"name": "role",
							"type": "bytes32"
						}
					],
					"name": "getRoleAdmin",
					"outputs": [
						{
							"internalType": "bytes32",
							"name": "",
							"type": "bytes32"
						}
					],
					"stateMutability": "view",
					"type": "function"
				},
				{
					"inputs": [
						{
							"internalType": "address",
							"name": "_account",
							"type": "address"
						}
					],
					"name": "getUnclaimed",
					"outputs": [
						{
							"internalType": "uint256",
							"name": "",
							"type": "uint256"
						}
					],
					"stateMutability": "view",
					"type": "function"
				},
				{
					"inputs": [
						{
							"internalType": "bytes32",
							"name": "role",
							"type": "bytes32"
						},
						{
							"internalType": "address",
							"name": "account",
							"type": "address"
						}
					],
					"name": "grantRole",
					"outputs": [],
					"stateMutability": "nonpayable",
					"type": "function"
				},
				{
					"inputs": [
						{
							"internalType": "bytes32",
							"name": "role",
							"type": "bytes32"
						},
						{
							"internalType": "address",
							"name": "account",
							"type": "address"
						}
					],
					"name": "hasRole",
					"outputs": [
						{
							"internalType": "bool",
							"name": "",
							"type": "bool"
						}
					],
					"stateMutability": "view",
					"type": "function"
				},
				{
					"inputs": [
						{
							"internalType": "address",
							"name": "spender",
							"type": "address"
						},
						{
							"internalType": "uint256",
							"name": "addedValue",
							"type": "uint256"
						}
					],
					"name": "increaseAllowance",
					"outputs": [
						{
							"internalType": "bool",
							"name": "",
							"type": "bool"
						}
					],
					"stateMutability": "nonpayable",
					"type": "function"
				},
				{
					"inputs": [
						{
							"internalType": "address",
							"name": "to",
							"type": "address"
						},
						{
							"internalType": "uint256",
							"name": "amount",
							"type": "uint256"
						}
					],
					"name": "mint",
					"outputs": [],
					"stateMutability": "nonpayable",
					"type": "function"
				},
				{
					"inputs": [],
					"name": "name",
					"outputs": [
						{
							"internalType": "string",
							"name": "",
							"type": "string"
						}
					],
					"stateMutability": "view",
					"type": "function"
				},
				{
					"inputs": [
						{
							"internalType": "address",
							"name": "_account",
							"type": "address"
						},
						{
							"internalType": "uint256",
							"name": "_amount",
							"type": "uint256"
						}
					],
					"name": "removeClaimable",
					"outputs": [],
					"stateMutability": "nonpayable",
					"type": "function"
				},
				{
					"inputs": [
						{
							"internalType": "bytes32",
							"name": "role",
							"type": "bytes32"
						},
						{
							"internalType": "address",
							"name": "account",
							"type": "address"
						}
					],
					"name": "renounceRole",
					"outputs": [],
					"stateMutability": "nonpayable",
					"type": "function"
				},
				{
					"inputs": [
						{
							"internalType": "bytes32",
							"name": "role",
							"type": "bytes32"
						},
						{
							"internalType": "address",
							"name": "account",
							"type": "address"
						}
					],
					"name": "revokeRole",
					"outputs": [],
					"stateMutability": "nonpayable",
					"type": "function"
				},
				{
					"inputs": [
						{
							"internalType": "bytes4",
							"name": "interfaceId",
							"type": "bytes4"
						}
					],
					"name": "supportsInterface",
					"outputs": [
						{
							"internalType": "bool",
							"name": "",
							"type": "bool"
						}
					],
					"stateMutability": "view",
					"type": "function"
				},
				{
					"inputs": [],
					"name": "symbol",
					"outputs": [
						{
							"internalType": "string",
							"name": "",
							"type": "string"
						}
					],
					"stateMutability": "view",
					"type": "function"
				},
				{
					"inputs": [],
					"name": "totalSupply",
					"outputs": [
						{
							"internalType": "uint256",
							"name": "",
							"type": "uint256"
						}
					],
					"stateMutability": "view",
					"type": "function"
				},
				{
					"inputs": [
						{
							"internalType": "address",
							"name": "to",
							"type": "address"
						},
						{
							"internalType": "uint256",
							"name": "amount",
							"type": "uint256"
						}
					],
					"name": "transfer",
					"outputs": [
						{
							"internalType": "bool",
							"name": "",
							"type": "bool"
						}
					],
					"stateMutability": "nonpayable",
					"type": "function"
				},
				{
					"inputs": [
						{
							"internalType": "address",
							"name": "from",
							"type": "address"
						},
						{
							"internalType": "address",
							"name": "to",
							"type": "address"
						},
						{
							"internalType": "uint256",
							"name": "amount",
							"type": "uint256"
						}
					],
					"name": "transferFrom",
					"outputs": [
						{
							"internalType": "bool",
							"name": "",
							"type": "bool"
						}
					],
					"stateMutability": "nonpayable",
					"type": "function"
				},
				{
					"inputs": [
						{
							"internalType": "address",
							"name": "",
							"type": "address"
						}
					],
					"name": "unclaimed",
					"outputs": [
						{
							"internalType": "uint256",
							"name": "",
							"type": "uint256"
						}
					],
					"stateMutability": "view",
					"type": "function"
				}
			],
			"devdoc": {
				"kind": "dev",
				"methods": {
					"allowance(address,address)": {
						"details": "See {IERC20-allowance}."
					},
					"approve(address,uint256)": {
						"details": "See {IERC20-approve}. NOTE: If `amount` is the maximum `uint256`, the allowance is not updated on `transferFrom`. This is semantically equivalent to an infinite approval. Requirements: - `spender` cannot be the zero address."
					},
					"balanceOf(address)": {
						"details": "See {IERC20-balanceOf}."
					},
					"claim()": {
						"details": "Transfer unclaimed value"
					},
					"createClaimable(address,uint256)": {
						"details": "Store value in address mapped with unclaimed amounts using virtual amount (offchain value)",
						"params": {
							"_account": "account with value stored",
							"_amount": "value from offchain"
						}
					},
					"decimals()": {
						"details": "Returns the number of decimals used to get its user representation. For example, if `decimals` equals `2`, a balance of `505` tokens should be displayed to a user as `5.05` (`505 / 10 ** 2`). Tokens usually opt for a value of 18, imitating the relationship between Ether and Wei. This is the value {ERC20} uses, unless this function is overridden; NOTE: This information is only used for _display_ purposes: it in no way affects any of the arithmetic of the contract, including {IERC20-balanceOf} and {IERC20-transfer}."
					},
					"decreaseAllowance(address,uint256)": {
						"details": "Atomically decreases the allowance granted to `spender` by the caller. This is an alternative to {approve} that can be used as a mitigation for problems described in {IERC20-approve}. Emits an {Approval} event indicating the updated allowance. Requirements: - `spender` cannot be the zero address. - `spender` must have allowance for the caller of at least `subtractedValue`."
					},
					"getClaimed(address)": {
						"details": "Return value in address mapped with claimed amounts",
						"params": {
							"_account": "account with value stored"
						}
					},
					"getRoleAdmin(bytes32)": {
						"details": "Returns the admin role that controls `role`. See {grantRole} and {revokeRole}. To change a role's admin, use {_setRoleAdmin}."
					},
					"getUnclaimed(address)": {
						"details": "Return value in address mapped with unclaimed amounts",
						"params": {
							"_account": "account with value stored"
						}
					},
					"grantRole(bytes32,address)": {
						"details": "Grants `role` to `account`. If `account` had not been already granted `role`, emits a {RoleGranted} event. Requirements: - the caller must have ``role``'s admin role."
					},
					"hasRole(bytes32,address)": {
						"details": "Returns `true` if `account` has been granted `role`."
					},
					"increaseAllowance(address,uint256)": {
						"details": "Atomically increases the allowance granted to `spender` by the caller. This is an alternative to {approve} that can be used as a mitigation for problems described in {IERC20-approve}. Emits an {Approval} event indicating the updated allowance. Requirements: - `spender` cannot be the zero address."
					},
					"name()": {
						"details": "Returns the name of the token."
					},
					"removeClaimable(address,uint256)": {
						"details": "Remove value in address mapped with unclaimed amounts using virtual amount (offchain value)",
						"params": {
							"_account": "account with value stored",
							"_amount": "value to remove"
						}
					},
					"renounceRole(bytes32,address)": {
						"details": "Revokes `role` from the calling account. Roles are often managed via {grantRole} and {revokeRole}: this function's purpose is to provide a mechanism for accounts to lose their privileges if they are compromised (such as when a trusted device is misplaced). If the calling account had been revoked `role`, emits a {RoleRevoked} event. Requirements: - the caller must be `account`."
					},
					"revokeRole(bytes32,address)": {
						"details": "Revokes `role` from `account`. If `account` had been granted `role`, emits a {RoleRevoked} event. Requirements: - the caller must have ``role``'s admin role."
					},
					"supportsInterface(bytes4)": {
						"details": "See {IERC165-supportsInterface}."
					},
					"symbol()": {
						"details": "Returns the symbol of the token, usually a shorter version of the name."
					},
					"totalSupply()": {
						"details": "See {IERC20-totalSupply}."
					},
					"transfer(address,uint256)": {
						"details": "See {IERC20-transfer}. Requirements: - `to` cannot be the zero address. - the caller must have a balance of at least `amount`."
					},
					"transferFrom(address,address,uint256)": {
						"details": "See {IERC20-transferFrom}. Emits an {Approval} event indicating the updated allowance. This is not required by the EIP. See the note at the beginning of {ERC20}. NOTE: Does not update the allowance if the current allowance is the maximum `uint256`. Requirements: - `from` and `to` cannot be the zero address. - `from` must have a balance of at least `amount`. - the caller must have allowance for ``from``'s tokens of at least `amount`."
					}
				},
				"version": 1
			},
			"evm": {
				"assembly": "    /* \"contracts/Token.sol\":207:2302  contract FooToken is ERC20, AccessControl, Claim {... */\n  mstore(0x40, 0x80)\n    /* \"contracts/Token.sol\":472:623  constructor() ERC20('Foo Token', 'FOO') {... */\n  callvalue\n  dup1\n  iszero\n  tag_1\n  jumpi\n  0x00\n  dup1\n  revert\ntag_1:\n  pop\n    /* \"@openzeppelin/contracts/token/ERC20/ERC20.sol\":1978:2091  constructor(string memory name_, string memory symbol_) {... */\n  mload(0x40)\n  dup1\n  0x40\n  add\n  0x40\n  mstore\n  dup1\n  0x09\n  dup2\n  mstore\n  0x20\n  add\n  0x466f6f20546f6b656e0000000000000000000000000000000000000000000000\n  dup2\n  mstore\n  pop\n  mload(0x40)\n  dup1\n  0x40\n  add\n  0x40\n  mstore\n  dup1\n  0x03\n  dup2\n  mstore\n  0x20\n  add\n  0x464f4f0000000000000000000000000000000000000000000000000000000000\n  dup2\n  mstore\n  pop\n    /* \"@openzeppelin/contracts/token/ERC20/ERC20.sol\":2052:2057  name_ */\n  dup2\n    /* \"@openzeppelin/contracts/token/ERC20/ERC20.sol\":2044:2049  _name */\n  0x03\n    /* \"@openzeppelin/contracts/token/ERC20/ERC20.sol\":2044:2057  _name = name_ */\n  swap1\n  dup1\n  mload\n  swap1\n  0x20\n  add\n  swap1\n  tag_5\n  swap3\n  swap2\n  swap1\n  tag_6\n  jump\t// in\ntag_5:\n  pop\n    /* \"@openzeppelin/contracts/token/ERC20/ERC20.sol\":2077:2084  symbol_ */\n  dup1\n    /* \"@openzeppelin/contracts/token/ERC20/ERC20.sol\":2067:2074  _symbol */\n  0x04\n    /* \"@openzeppelin/contracts/token/ERC20/ERC20.sol\":2067:2084  _symbol = symbol_ */\n  swap1\n  dup1\n  mload\n  swap1\n  0x20\n  add\n  swap1\n  tag_7\n  swap3\n  swap2\n  swap1\n  tag_6\n  jump\t// in\ntag_7:\n  pop\n    /* \"@openzeppelin/contracts/token/ERC20/ERC20.sol\":1978:2091  constructor(string memory name_, string memory symbol_) {... */\n  pop\n  pop\n    /* \"contracts/Token.sol\":522:564  _mint(address(this), 100000000 * 10 ** 18) */\n  tag_9\n    /* \"contracts/Token.sol\":536:540  this */\n  address\n    /* \"contracts/Token.sol\":543:563  100000000 * 10 ** 18 */\n  0x52b7d2dcc80cd2e4000000\n    /* \"contracts/Token.sol\":522:527  _mint */\n  shl(0x20, tag_10)\n    /* \"contracts/Token.sol\":522:564  _mint(address(this), 100000000 * 10 ** 18) */\n  0x20\n  shr\n  jump\t// in\ntag_9:\n    /* \"contracts/Token.sol\":574:616  _setupRole(DEFAULT_ADMIN_ROLE, msg.sender) */\n  tag_11\n    /* \"@openzeppelin/contracts/access/AccessControl.sol\":2072:2076  0x00 */\n  0x00\n    /* \"contracts/Token.sol\":585:603  DEFAULT_ADMIN_ROLE */\n  dup1\n  shl\n    /* \"contracts/Token.sol\":605:615  msg.sender */\n  caller\n    /* \"contracts/Token.sol\":574:584  _setupRole */\n  shl(0x20, tag_12)\n    /* \"contracts/Token.sol\":574:616  _setupRole(DEFAULT_ADMIN_ROLE, msg.sender) */\n  0x20\n  shr\n  jump\t// in\ntag_11:\n    /* \"contracts/Token.sol\":207:2302  contract FooToken is ERC20, AccessControl, Claim {... */\n  jump(tag_13)\n    /* \"@openzeppelin/contracts/token/ERC20/ERC20.sol\":8415:8804  function _mint(address account, uint256 amount) internal virtual {... */\ntag_10:\n    /* \"@openzeppelin/contracts/token/ERC20/ERC20.sol\":8517:8518  0 */\n  0x00\n    /* \"@openzeppelin/contracts/token/ERC20/ERC20.sol\":8498:8519  account != address(0) */\n  0xffffffffffffffffffffffffffffffffffffffff\n  and\n    /* \"@openzeppelin/contracts/token/ERC20/ERC20.sol\":8498:8505  account */\n  dup3\n    /* \"@openzeppelin/contracts/token/ERC20/ERC20.sol\":8498:8519  account != address(0) */\n  0xffffffffffffffffffffffffffffffffffffffff\n  and\n  eq\n  iszero\n    /* \"@openzeppelin/contracts/token/ERC20/ERC20.sol\":8490:8555  require(account != address(0), \"ERC20: mint to the zero address\") */\n  tag_15\n  jumpi\n  mload(0x40)\n  0x08c379a000000000000000000000000000000000000000000000000000000000\n  dup2\n  mstore\n  0x04\n  add\n  tag_16\n  swap1\n  tag_17\n  jump\t// in\ntag_16:\n  mload(0x40)\n  dup1\n  swap2\n  sub\n  swap1\n  revert\ntag_15:\n    /* \"@openzeppelin/contracts/token/ERC20/ERC20.sol\":8566:8615  _beforeTokenTransfer(address(0), account, amount) */\n  tag_18\n    /* \"@openzeppelin/contracts/token/ERC20/ERC20.sol\":8595:8596  0 */\n  0x00\n    /* \"@openzeppelin/contracts/token/ERC20/ERC20.sol\":8599:8606  account */\n  dup4\n    /* \"@openzeppelin/contracts/token/ERC20/ERC20.sol\":8608:8614  amount */\n  dup4\n    /* \"@openzeppelin/contracts/token/ERC20/ERC20.sol\":8566:8586  _beforeTokenTransfer */\n  shl(0x20, tag_19)\n    /* \"@openzeppelin/contracts/token/ERC20/ERC20.sol\":8566:8615  _beforeTokenTransfer(address(0), account, amount) */\n  0x20\n  shr\n  jump\t// in\ntag_18:\n    /* \"@openzeppelin/contracts/token/ERC20/ERC20.sol\":8642:8648  amount */\n  dup1\n    /* \"@openzeppelin/contracts/token/ERC20/ERC20.sol\":8626:8638  _totalSupply */\n  0x02\n  0x00\n    /* \"@openzeppelin/contracts/token/ERC20/ERC20.sol\":8626:8648  _totalSupply += amount */\n  dup3\n  dup3\n  sload\n  tag_20\n  swap2\n  swap1\n  tag_21\n  jump\t// in\ntag_20:\n  swap3\n  pop\n  pop\n  dup2\n  swap1\n  sstore\n  pop\n    /* \"@openzeppelin/contracts/token/ERC20/ERC20.sol\":8680:8686  amount */\n  dup1\n    /* \"@openzeppelin/contracts/token/ERC20/ERC20.sol\":8658:8667  _balances */\n  0x00\n    /* \"@openzeppelin/contracts/token/ERC20/ERC20.sol\":8658:8676  _balances[account] */\n  dup1\n    /* \"@openzeppelin/contracts/token/ERC20/ERC20.sol\":8668:8675  account */\n  dup5\n    /* \"@openzeppelin/contracts/token/ERC20/ERC20.sol\":8658:8676  _balances[account] */\n  0xffffffffffffffffffffffffffffffffffffffff\n  and\n  0xffffffffffffffffffffffffffffffffffffffff\n  and\n  dup2\n  mstore\n  0x20\n  add\n  swap1\n  dup2\n  mstore\n  0x20\n  add\n  0x00\n  keccak256\n  0x00\n    /* \"@openzeppelin/contracts/token/ERC20/ERC20.sol\":8658:8686  _balances[account] += amount */\n  dup3\n  dup3\n  sload\n  tag_22\n  swap2\n  swap1\n  tag_21\n  jump\t// in\ntag_22:\n  swap3\n  pop\n  pop\n  dup2\n  swap1\n  sstore\n  pop\n    /* \"@openzeppelin/contracts/token/ERC20/ERC20.sol\":8722:8729  account */\n  dup2\n    /* \"@openzeppelin/contracts/token/ERC20/ERC20.sol\":8701:8738  Transfer(address(0), account, amount) */\n  0xffffffffffffffffffffffffffffffffffffffff\n  and\n    /* \"@openzeppelin/contracts/token/ERC20/ERC20.sol\":8718:8719  0 */\n  0x00\n    /* \"@openzeppelin/contracts/token/ERC20/ERC20.sol\":8701:8738  Transfer(address(0), account, amount) */\n  0xffffffffffffffffffffffffffffffffffffffff\n  and\n  0xddf252ad1be2c89b69c2b068fc378daa952ba7f163c4a11628f55a4df523b3ef\n    /* \"@openzeppelin/contracts/token/ERC20/ERC20.sol\":8731:8737  amount */\n  dup4\n    /* \"@openzeppelin/contracts/token/ERC20/ERC20.sol\":8701:8738  Transfer(address(0), account, amount) */\n  mload(0x40)\n  tag_23\n  swap2\n  swap1\n  tag_24\n  jump\t// in\ntag_23:\n  mload(0x40)\n  dup1\n  swap2\n  sub\n  swap1\n  log3\n    /* \"@openzeppelin/contracts/token/ERC20/ERC20.sol\":8749:8797  _afterTokenTransfer(address(0), account, amount) */\n  tag_25\n    /* \"@openzeppelin/contracts/token/ERC20/ERC20.sol\":8777:8778  0 */\n  0x00\n    /* \"@openzeppelin/contracts/token/ERC20/ERC20.sol\":8781:8788  account */\n  dup4\n    /* \"@openzeppelin/contracts/token/ERC20/ERC20.sol\":8790:8796  amount */\n  dup4\n    /* \"@openzeppelin/contracts/token/ERC20/ERC20.sol\":8749:8768  _afterTokenTransfer */\n  shl(0x20, tag_26)\n    /* \"@openzeppelin/contracts/token/ERC20/ERC20.sol\":8749:8797  _afterTokenTransfer(address(0), account, amount) */\n  0x20\n  shr\n  jump\t// in\ntag_25:\n    /* \"@openzeppelin/contracts/token/ERC20/ERC20.sol\":8415:8804  function _mint(address account, uint256 amount) internal virtual {... */\n  pop\n  pop\n  jump\t// out\n    /* \"@openzeppelin/contracts/access/AccessControl.sol\":6257:6367  function _setupRole(bytes32 role, address account) internal virtual {... */\ntag_12:\n    /* \"@openzeppelin/contracts/access/AccessControl.sol\":6335:6360  _grantRole(role, account) */\n  tag_28\n    /* \"@openzeppelin/contracts/access/AccessControl.sol\":6346:6350  role */\n  dup3\n    /* \"@openzeppelin/contracts/access/AccessControl.sol\":6352:6359  account */\n  dup3\n    /* \"@openzeppelin/contracts/access/AccessControl.sol\":6335:6345  _grantRole */\n  shl(0x20, tag_29)\n    /* \"@openzeppelin/contracts/access/AccessControl.sol\":6335:6360  _grantRole(role, account) */\n  0x20\n  shr\n  jump\t// in\ntag_28:\n    /* \"@openzeppelin/contracts/access/AccessControl.sol\":6257:6367  function _setupRole(bytes32 role, address account) internal virtual {... */\n  pop\n  pop\n  jump\t// out\n    /* \"@openzeppelin/contracts/token/ERC20/ERC20.sol\":11795:11916  function _beforeTokenTransfer(... */\ntag_19:\n  pop\n  pop\n  pop\n  jump\t// out\n    /* \"@openzeppelin/contracts/token/ERC20/ERC20.sol\":12504:12624  function _afterTokenTransfer(... */\ntag_26:\n  pop\n  pop\n  pop\n  jump\t// out\n    /* \"@openzeppelin/contracts/access/AccessControl.sol\":6861:7094  function _grantRole(bytes32 role, address account) internal virtual {... */\ntag_29:\n    /* \"@openzeppelin/contracts/access/AccessControl.sol\":6944:6966  hasRole(role, account) */\n  tag_33\n    /* \"@openzeppelin/contracts/access/AccessControl.sol\":6952:6956  role */\n  dup3\n    /* \"@openzeppelin/contracts/access/AccessControl.sol\":6958:6965  account */\n  dup3\n    /* \"@openzeppelin/contracts/access/AccessControl.sol\":6944:6951  hasRole */\n  shl(0x20, tag_34)\n    /* \"@openzeppelin/contracts/access/AccessControl.sol\":6944:6966  hasRole(role, account) */\n  0x20\n  shr\n  jump\t// in\ntag_33:\n    /* \"@openzeppelin/contracts/access/AccessControl.sol\":6939:7088  if (!hasRole(role, account)) {... */\n  tag_35\n  jumpi\n    /* \"@openzeppelin/contracts/access/AccessControl.sol\":7014:7018  true */\n  0x01\n    /* \"@openzeppelin/contracts/access/AccessControl.sol\":6982:6988  _roles */\n  0x05\n    /* \"@openzeppelin/contracts/access/AccessControl.sol\":6982:6994  _roles[role] */\n  0x00\n    /* \"@openzeppelin/contracts/access/AccessControl.sol\":6989:6993  role */\n  dup5\n    /* \"@openzeppelin/contracts/access/AccessControl.sol\":6982:6994  _roles[role] */\n  dup2\n  mstore\n  0x20\n  add\n  swap1\n  dup2\n  mstore\n  0x20\n  add\n  0x00\n  keccak256\n    /* \"@openzeppelin/contracts/access/AccessControl.sol\":6982:7002  _roles[role].members */\n  0x00\n  add\n    /* \"@openzeppelin/contracts/access/AccessControl.sol\":6982:7011  _roles[role].members[account] */\n  0x00\n    /* \"@openzeppelin/contracts/access/AccessControl.sol\":7003:7010  account */\n  dup4\n    /* \"@openzeppelin/contracts/access/AccessControl.sol\":6982:7011  _roles[role].members[account] */\n  0xffffffffffffffffffffffffffffffffffffffff\n  and\n  0xffffffffffffffffffffffffffffffffffffffff\n  and\n  dup2\n  mstore\n  0x20\n  add\n  swap1\n  dup2\n  mstore\n  0x20\n  add\n  0x00\n  keccak256\n  0x00\n    /* \"@openzeppelin/contracts/access/AccessControl.sol\":6982:7018  _roles[role].members[account] = true */\n  0x0100\n  exp\n  dup2\n  sload\n  dup2\n  0xff\n  mul\n  not\n  and\n  swap1\n  dup4\n  iszero\n  iszero\n  mul\n  or\n  swap1\n  sstore\n  pop\n    /* \"@openzeppelin/contracts/access/AccessControl.sol\":7064:7076  _msgSender() */\n  tag_36\n    /* \"@openzeppelin/contracts/access/AccessControl.sol\":7064:7074  _msgSender */\n  shl(0x20, tag_37)\n    /* \"@openzeppelin/contracts/access/AccessControl.sol\":7064:7076  _msgSender() */\n  0x20\n  shr\n  jump\t// in\ntag_36:\n    /* \"@openzeppelin/contracts/access/AccessControl.sol\":7037:7077  RoleGranted(role, account, _msgSender()) */\n  0xffffffffffffffffffffffffffffffffffffffff\n  and\n    /* \"@openzeppelin/contracts/access/AccessControl.sol\":7055:7062  account */\n  dup2\n    /* \"@openzeppelin/contracts/access/AccessControl.sol\":7037:7077  RoleGranted(role, account, _msgSender()) */\n  0xffffffffffffffffffffffffffffffffffffffff\n  and\n    /* \"@openzeppelin/contracts/access/AccessControl.sol\":7049:7053  role */\n  dup4\n    /* \"@openzeppelin/contracts/access/AccessControl.sol\":7037:7077  RoleGranted(role, account, _msgSender()) */\n  0x2f8788117e7eff1d82e926ec794901d17c78024a50270940304540a733656f0d\n  mload(0x40)\n  mload(0x40)\n  dup1\n  swap2\n  sub\n  swap1\n  log4\n    /* \"@openzeppelin/contracts/access/AccessControl.sol\":6939:7088  if (!hasRole(role, account)) {... */\ntag_35:\n    /* \"@openzeppelin/contracts/access/AccessControl.sol\":6861:7094  function _grantRole(bytes32 role, address account) internal virtual {... */\n  pop\n  pop\n  jump\t// out\n    /* \"@openzeppelin/contracts/access/AccessControl.sol\":2909:3054  function hasRole(bytes32 role, address account) public view virtual override returns (bool) {... */\ntag_34:\n    /* \"@openzeppelin/contracts/access/AccessControl.sol\":2995:2999  bool */\n  0x00\n    /* \"@openzeppelin/contracts/access/AccessControl.sol\":3018:3024  _roles */\n  0x05\n    /* \"@openzeppelin/contracts/access/AccessControl.sol\":3018:3030  _roles[role] */\n  0x00\n    /* \"@openzeppelin/contracts/access/AccessControl.sol\":3025:3029  role */\n  dup5\n    /* \"@openzeppelin/contracts/access/AccessControl.sol\":3018:3030  _roles[role] */\n  dup2\n  mstore\n  0x20\n  add\n  swap1\n  dup2\n  mstore\n  0x20\n  add\n  0x00\n  keccak256\n    /* \"@openzeppelin/contracts/access/AccessControl.sol\":3018:3038  _roles[role].members */\n  0x00\n  add\n    /* \"@openzeppelin/contracts/access/AccessControl.sol\":3018:3047  _roles[role].members[account] */\n  0x00\n    /* \"@openzeppelin/contracts/access/AccessControl.sol\":3039:3046  account */\n  dup4\n    /* \"@openzeppelin/contracts/access/AccessControl.sol\":3018:3047  _roles[role].members[account] */\n  0xffffffffffffffffffffffffffffffffffffffff\n  and\n  0xffffffffffffffffffffffffffffffffffffffff\n  and\n  dup2\n  mstore\n  0x20\n  add\n  swap1\n  dup2\n  mstore\n  0x20\n  add\n  0x00\n  keccak256\n  0x00\n  swap1\n  sload\n  swap1\n  0x0100\n  exp\n  swap1\n  div\n  0xff\n  and\n    /* \"@openzeppelin/contracts/access/AccessControl.sol\":3011:3047  return _roles[role].members[account] */\n  swap1\n  pop\n    /* \"@openzeppelin/contracts/access/AccessControl.sol\":2909:3054  function hasRole(bytes32 role, address account) public view virtual override returns (bool) {... */\n  swap3\n  swap2\n  pop\n  pop\n  jump\t// out\n    /* \"@openzeppelin/contracts/utils/Context.sol\":640:736  function _msgSender() internal view virtual returns (address) {... */\ntag_37:\n    /* \"@openzeppelin/contracts/utils/Context.sol\":693:700  address */\n  0x00\n    /* \"@openzeppelin/contracts/utils/Context.sol\":719:729  msg.sender */\n  caller\n    /* \"@openzeppelin/contracts/utils/Context.sol\":712:729  return msg.sender */\n  swap1\n  pop\n    /* \"@openzeppelin/contracts/utils/Context.sol\":640:736  function _msgSender() internal view virtual returns (address) {... */\n  swap1\n  jump\t// out\n    /* \"contracts/Token.sol\":207:2302  contract FooToken is ERC20, AccessControl, Claim {... */\ntag_6:\n  dup3\n  dup1\n  sload\n  tag_40\n  swap1\n  tag_41\n  jump\t// in\ntag_40:\n  swap1\n  0x00\n  mstore\n  keccak256(0x00, 0x20)\n  swap1\n  0x1f\n  add\n  0x20\n  swap1\n  div\n  dup2\n  add\n  swap3\n  dup3\n  tag_43\n  jumpi\n  0x00\n  dup6\n  sstore\n  jump(tag_42)\ntag_43:\n  dup3\n  0x1f\n  lt\n  tag_44\n  jumpi\n  dup1\n  mload\n  not(0xff)\n  and\n  dup4\n  dup1\n  add\n  or\n  dup6\n  sstore\n  jump(tag_42)\ntag_44:\n  dup3\n  dup1\n  add\n  0x01\n  add\n  dup6\n  sstore\n  dup3\n  iszero\n  tag_42\n  jumpi\n  swap2\n  dup3\n  add\ntag_45:\n  dup3\n  dup2\n  gt\n  iszero\n  tag_46\n  jumpi\n  dup3\n  mload\n  dup3\n  sstore\n  swap2\n  0x20\n  add\n  swap2\n  swap1\n  0x01\n  add\n  swap1\n  jump(tag_45)\ntag_46:\ntag_42:\n  pop\n  swap1\n  pop\n  tag_47\n  swap2\n  swap1\n  tag_48\n  jump\t// in\ntag_47:\n  pop\n  swap1\n  jump\t// out\ntag_48:\ntag_49:\n  dup1\n  dup3\n  gt\n  iszero\n  tag_50\n  jumpi\n  0x00\n  dup2\n  0x00\n  swap1\n  sstore\n  pop\n  0x01\n  add\n  jump(tag_49)\ntag_50:\n  pop\n  swap1\n  jump\t// out\n    /* \"#utility.yul\":7:373   */\ntag_52:\n    /* \"#utility.yul\":149:152   */\n  0x00\n    /* \"#utility.yul\":170:237   */\n  tag_54\n    /* \"#utility.yul\":234:236   */\n  0x1f\n    /* \"#utility.yul\":229:232   */\n  dup4\n    /* \"#utility.yul\":170:237   */\n  tag_55\n  jump\t// in\ntag_54:\n    /* \"#utility.yul\":163:237   */\n  swap2\n  pop\n    /* \"#utility.yul\":246:339   */\n  tag_56\n    /* \"#utility.yul\":335:338   */\n  dup3\n    /* \"#utility.yul\":246:339   */\n  tag_57\n  jump\t// in\ntag_56:\n    /* \"#utility.yul\":364:366   */\n  0x20\n    /* \"#utility.yul\":359:362   */\n  dup3\n    /* \"#utility.yul\":355:367   */\n  add\n    /* \"#utility.yul\":348:367   */\n  swap1\n  pop\n    /* \"#utility.yul\":7:373   */\n  swap2\n  swap1\n  pop\n  jump\t// out\n    /* \"#utility.yul\":379:497   */\ntag_58:\n    /* \"#utility.yul\":466:490   */\n  tag_60\n    /* \"#utility.yul\":484:489   */\n  dup2\n    /* \"#utility.yul\":466:490   */\n  tag_61\n  jump\t// in\ntag_60:\n    /* \"#utility.yul\":461:464   */\n  dup3\n    /* \"#utility.yul\":454:491   */\n  mstore\n    /* \"#utility.yul\":379:497   */\n  pop\n  pop\n  jump\t// out\n    /* \"#utility.yul\":503:922   */\ntag_17:\n    /* \"#utility.yul\":669:673   */\n  0x00\n    /* \"#utility.yul\":707:709   */\n  0x20\n    /* \"#utility.yul\":696:705   */\n  dup3\n    /* \"#utility.yul\":692:710   */\n  add\n    /* \"#utility.yul\":684:710   */\n  swap1\n  pop\n    /* \"#utility.yul\":756:765   */\n  dup2\n    /* \"#utility.yul\":750:754   */\n  dup2\n    /* \"#utility.yul\":746:766   */\n  sub\n    /* \"#utility.yul\":742:743   */\n  0x00\n    /* \"#utility.yul\":731:740   */\n  dup4\n    /* \"#utility.yul\":727:744   */\n  add\n    /* \"#utility.yul\":720:767   */\n  mstore\n    /* \"#utility.yul\":784:915   */\n  tag_63\n    /* \"#utility.yul\":910:914   */\n  dup2\n    /* \"#utility.yul\":784:915   */\n  tag_52\n  jump\t// in\ntag_63:\n    /* \"#utility.yul\":776:915   */\n  swap1\n  pop\n    /* \"#utility.yul\":503:922   */\n  swap2\n  swap1\n  pop\n  jump\t// out\n    /* \"#utility.yul\":928:1150   */\ntag_24:\n    /* \"#utility.yul\":1021:1025   */\n  0x00\n    /* \"#utility.yul\":1059:1061   */\n  0x20\n    /* \"#utility.yul\":1048:1057   */\n  dup3\n    /* \"#utility.yul\":1044:1062   */\n  add\n    /* \"#utility.yul\":1036:1062   */\n  swap1\n  pop\n    /* \"#utility.yul\":1072:1143   */\n  tag_65\n    /* \"#utility.yul\":1140:1141   */\n  0x00\n    /* \"#utility.yul\":1129:1138   */\n  dup4\n    /* \"#utility.yul\":1125:1142   */\n  add\n    /* \"#utility.yul\":1116:1122   */\n  dup5\n    /* \"#utility.yul\":1072:1143   */\n  tag_58\n  jump\t// in\ntag_65:\n    /* \"#utility.yul\":928:1150   */\n  swap3\n  swap2\n  pop\n  pop\n  jump\t// out\n    /* \"#utility.yul\":1156:1325   */\ntag_55:\n    /* \"#utility.yul\":1240:1251   */\n  0x00\n    /* \"#utility.yul\":1274:1280   */\n  dup3\n    /* \"#utility.yul\":1269:1272   */\n  dup3\n    /* \"#utility.yul\":1262:1281   */\n  mstore\n    /* \"#utility.yul\":1314:1318   */\n  0x20\n    /* \"#utility.yul\":1309:1312   */\n  dup3\n    /* \"#utility.yul\":1305:1319   */\n  add\n    /* \"#utility.yul\":1290:1319   */\n  swap1\n  pop\n    /* \"#utility.yul\":1156:1325   */\n  swap3\n  swap2\n  pop\n  pop\n  jump\t// out\n    /* \"#utility.yul\":1331:1636   */\ntag_21:\n    /* \"#utility.yul\":1371:1374   */\n  0x00\n    /* \"#utility.yul\":1390:1410   */\n  tag_68\n    /* \"#utility.yul\":1408:1409   */\n  dup3\n    /* \"#utility.yul\":1390:1410   */\n  tag_61\n  jump\t// in\ntag_68:\n    /* \"#utility.yul\":1385:1410   */\n  swap2\n  pop\n    /* \"#utility.yul\":1424:1444   */\n  tag_69\n    /* \"#utility.yul\":1442:1443   */\n  dup4\n    /* \"#utility.yul\":1424:1444   */\n  tag_61\n  jump\t// in\ntag_69:\n    /* \"#utility.yul\":1419:1444   */\n  swap3\n  pop\n    /* \"#utility.yul\":1578:1579   */\n  dup3\n    /* \"#utility.yul\":1510:1576   */\n  0xffffffffffffffffffffffffffffffffffffffffffffffffffffffffffffffff\n    /* \"#utility.yul\":1506:1580   */\n  sub\n    /* \"#utility.yul\":1503:1504   */\n  dup3\n    /* \"#utility.yul\":1500:1581   */\n  gt\n    /* \"#utility.yul\":1497:1604   */\n  iszero\n  tag_70\n  jumpi\n    /* \"#utility.yul\":1584:1602   */\n  tag_71\n  tag_72\n  jump\t// in\ntag_71:\n    /* \"#utility.yul\":1497:1604   */\ntag_70:\n    /* \"#utility.yul\":1628:1629   */\n  dup3\n    /* \"#utility.yul\":1625:1626   */\n  dup3\n    /* \"#utility.yul\":1621:1630   */\n  add\n    /* \"#utility.yul\":1614:1630   */\n  swap1\n  pop\n    /* \"#utility.yul\":1331:1636   */\n  swap3\n  swap2\n  pop\n  pop\n  jump\t// out\n    /* \"#utility.yul\":1642:1719   */\ntag_61:\n    /* \"#utility.yul\":1679:1686   */\n  0x00\n    /* \"#utility.yul\":1708:1713   */\n  dup2\n    /* \"#utility.yul\":1697:1713   */\n  swap1\n  pop\n    /* \"#utility.yul\":1642:1719   */\n  swap2\n  swap1\n  pop\n  jump\t// out\n    /* \"#utility.yul\":1725:2045   */\ntag_41:\n    /* \"#utility.yul\":1769:1775   */\n  0x00\n    /* \"#utility.yul\":1806:1807   */\n  0x02\n    /* \"#utility.yul\":1800:1804   */\n  dup3\n    /* \"#utility.yul\":1796:1808   */\n  div\n    /* \"#utility.yul\":1786:1808   */\n  swap1\n  pop\n    /* \"#utility.yul\":1853:1854   */\n  0x01\n    /* \"#utility.yul\":1847:1851   */\n  dup3\n    /* \"#utility.yul\":1843:1855   */\n  and\n    /* \"#utility.yul\":1874:1892   */\n  dup1\n    /* \"#utility.yul\":1864:1945   */\n  tag_75\n  jumpi\n    /* \"#utility.yul\":1930:1934   */\n  0x7f\n    /* \"#utility.yul\":1922:1928   */\n  dup3\n    /* \"#utility.yul\":1918:1935   */\n  and\n    /* \"#utility.yul\":1908:1935   */\n  swap2\n  pop\n    /* \"#utility.yul\":1864:1945   */\ntag_75:\n    /* \"#utility.yul\":1992:1994   */\n  0x20\n    /* \"#utility.yul\":1984:1990   */\n  dup3\n    /* \"#utility.yul\":1981:1995   */\n  lt\n    /* \"#utility.yul\":1961:1979   */\n  dup2\n    /* \"#utility.yul\":1958:1996   */\n  eq\n    /* \"#utility.yul\":1955:2039   */\n  iszero\n  tag_76\n  jumpi\n    /* \"#utility.yul\":2011:2029   */\n  tag_77\n  tag_78\n  jump\t// in\ntag_77:\n    /* \"#utility.yul\":1955:2039   */\ntag_76:\n    /* \"#utility.yul\":1776:2045   */\n  pop\n    /* \"#utility.yul\":1725:2045   */\n  swap2\n  swap1\n  pop\n  jump\t// out\n    /* \"#utility.yul\":2051:2231   */\ntag_72:\n    /* \"#utility.yul\":2099:2176   */\n  0x4e487b7100000000000000000000000000000000000000000000000000000000\n    /* \"#utility.yul\":2096:2097   */\n  0x00\n    /* \"#utility.yul\":2089:2177   */\n  mstore\n    /* \"#utility.yul\":2196:2200   */\n  0x11\n    /* \"#utility.yul\":2193:2194   */\n  0x04\n    /* \"#utility.yul\":2186:2201   */\n  mstore\n    /* \"#utility.yul\":2220:2224   */\n  0x24\n    /* \"#utility.yul\":2217:2218   */\n  0x00\n    /* \"#utility.yul\":2210:2225   */\n  revert\n    /* \"#utility.yul\":2237:2417   */\ntag_78:\n    /* \"#utility.yul\":2285:2362   */\n  0x4e487b7100000000000000000000000000000000000000000000000000000000\n    /* \"#utility.yul\":2282:2283   */\n  0x00\n    /* \"#utility.yul\":2275:2363   */\n  mstore\n    /* \"#utility.yul\":2382:2386   */\n  0x22\n    /* \"#utility.yul\":2379:2380   */\n  0x04\n    /* \"#utility.yul\":2372:2387   */\n  mstore\n    /* \"#utility.yul\":2406:2410   */\n  0x24\n    /* \"#utility.yul\":2403:2404   */\n  0x00\n    /* \"#utility.yul\":2396:2411   */\n  revert\n    /* \"#utility.yul\":2423:2604   */\ntag_57:\n    /* \"#utility.yul\":2563:2596   */\n  0x45524332303a206d696e7420746f20746865207a65726f206164647265737300\n    /* \"#utility.yul\":2559:2560   */\n  0x00\n    /* \"#utility.yul\":2551:2557   */\n  dup3\n    /* \"#utility.yul\":2547:2561   */\n  add\n    /* \"#utility.yul\":2540:2597   */\n  mstore\n    /* \"#utility.yul\":2423:2604   */\n  pop\n  jump\t// out\n    /* \"contracts/Token.sol\":207:2302  contract FooToken is ERC20, AccessControl, Claim {... */\ntag_13:\n  dataSize(sub_0)\n  dup1\n  dataOffset(sub_0)\n  0x00\n  codecopy\n  0x00\n  return\nstop\n\nsub_0: assembly {\n        /* \"contracts/Token.sol\":207:2302  contract FooToken is ERC20, AccessControl, Claim {... */\n      mstore(0x40, 0x80)\n      jumpi(tag_1, lt(calldatasize, 0x04))\n      shr(0xe0, calldataload(0x00))\n      dup1\n      0x70a08231\n      gt\n      tag_32\n      jumpi\n      dup1\n      0xa457c2d7\n      gt\n      tag_33\n      jumpi\n      dup1\n      0xd547741f\n      gt\n      tag_34\n      jumpi\n      dup1\n      0xd547741f\n      eq\n      tag_28\n      jumpi\n      dup1\n      0xdd62ed3e\n      eq\n      tag_29\n      jumpi\n      dup1\n      0xe5b7f305\n      eq\n      tag_30\n      jumpi\n      dup1\n      0xeb46260e\n      eq\n      tag_31\n      jumpi\n      jump(tag_1)\n    tag_34:\n      dup1\n      0xa457c2d7\n      eq\n      tag_24\n      jumpi\n      dup1\n      0xa9059cbb\n      eq\n      tag_25\n      jumpi\n      dup1\n      0xc884ef83\n      eq\n      tag_26\n      jumpi\n      dup1\n      0xd5391393\n      eq\n      tag_27\n      jumpi\n      jump(tag_1)\n    tag_33:\n      dup1\n      0x91d14854\n      gt\n      tag_35\n      jumpi\n      dup1\n      0x91d14854\n      eq\n      tag_20\n      jumpi\n      dup1\n      0x95d89b41\n      eq\n      tag_21\n      jumpi\n      dup1\n      0x9dc29fac\n      eq\n      tag_22\n      jumpi\n      dup1\n      0xa217fddf\n      eq\n      tag_23\n      jumpi\n      jump(tag_1)\n    tag_35:\n      dup1\n      0x70a08231\n      eq\n      tag_17\n      jumpi\n      dup1\n      0x8580cf76\n      eq\n      tag_18\n      jumpi\n      dup1\n      0x8a9db765\n      eq\n      tag_19\n      jumpi\n      jump(tag_1)\n    tag_32:\n      dup1\n      0x2f2ff15d\n      gt\n      tag_36\n      jumpi\n      dup1\n      0x3ab1ced1\n      gt\n      tag_37\n      jumpi\n      dup1\n      0x3ab1ced1\n      eq\n      tag_13\n      jumpi\n      dup1\n      0x40c10f19\n      eq\n      tag_14\n      jumpi\n      dup1\n      0x4e71d92d\n      eq\n      tag_15\n      jumpi\n      dup1\n      0x505bd3da\n      eq\n      tag_16\n      jumpi\n      jump(tag_1)\n    tag_37:\n      dup1\n      0x2f2ff15d\n      eq\n      tag_9\n      jumpi\n      dup1\n      0x313ce567\n      eq\n      tag_10\n      jumpi\n      dup1\n      0x36568abe\n      eq\n      tag_11\n      jumpi\n      dup1\n      0x39509351\n      eq\n      tag_12\n      jumpi\n      jump(tag_1)\n    tag_36:\n      dup1\n      0x18160ddd\n      gt\n      tag_38\n      jumpi\n      dup1\n      0x18160ddd\n      eq\n      tag_5\n      jumpi\n      dup1\n      0x23b872dd\n      eq\n      tag_6\n      jumpi\n      dup1\n      0x248a9ca3\n      eq\n      tag_7\n      jumpi\n      dup1\n      0x282c51f3\n      eq\n      tag_8\n      jumpi\n      jump(tag_1)\n    tag_38:\n      dup1\n      0x01ffc9a7\n      eq\n      tag_2\n      jumpi\n      dup1\n      0x06fdde03\n      eq\n      tag_3\n      jumpi\n      dup1\n      0x095ea7b3\n      eq\n      tag_4\n      jumpi\n    tag_1:\n      0x00\n      dup1\n      revert\n        /* \"@openzeppelin/contracts/access/AccessControl.sol\":2620:2822  function supportsInterface(bytes4 interfaceId) public view virtual override returns (bool) {... */\n    tag_2:\n      callvalue\n      dup1\n      iszero\n      tag_39\n      jumpi\n      0x00\n      dup1\n      revert\n    tag_39:\n      pop\n      tag_40\n      0x04\n      dup1\n      calldatasize\n      sub\n      dup2\n      add\n      swap1\n      tag_41\n      swap2\n      swap1\n      tag_42\n      jump\t// in\n    tag_41:\n      tag_43\n      jump\t// in\n    tag_40:\n      mload(0x40)\n      tag_44\n      swap2\n      swap1\n      tag_45\n      jump\t// in\n    tag_44:\n      mload(0x40)\n      dup1\n      swap2\n      sub\n      swap1\n      return\n        /* \"@openzeppelin/contracts/token/ERC20/ERC20.sol\":2156:2254  function name() public view virtual override returns (string memory) {... */\n    tag_3:\n      callvalue\n      dup1\n      iszero\n      tag_46\n      jumpi\n      0x00\n      dup1\n      revert\n    tag_46:\n      pop\n      tag_47\n      tag_48\n      jump\t// in\n    tag_47:\n      mload(0x40)\n      tag_49\n      swap2\n      swap1\n      tag_50\n      jump\t// in\n    tag_49:\n      mload(0x40)\n      dup1\n      swap2\n      sub\n      swap1\n      return\n        /* \"@openzeppelin/contracts/token/ERC20/ERC20.sol\":4433:4630  function approve(address spender, uint256 amount) public virtual override returns (bool) {... */\n    tag_4:\n      callvalue\n      dup1\n      iszero\n      tag_51\n      jumpi\n      0x00\n      dup1\n      revert\n    tag_51:\n      pop\n      tag_52\n      0x04\n      dup1\n      calldatasize\n      sub\n      dup2\n      add\n      swap1\n      tag_53\n      swap2\n      swap1\n      tag_54\n      jump\t// in\n    tag_53:\n      tag_55\n      jump\t// in\n    tag_52:\n      mload(0x40)\n      tag_56\n      swap2\n      swap1\n      tag_45\n      jump\t// in\n    tag_56:\n      mload(0x40)\n      dup1\n      swap2\n      sub\n      swap1\n      return\n        /* \"@openzeppelin/contracts/token/ERC20/ERC20.sol\":3244:3350  function totalSupply() public view virtual override returns (uint256) {... */\n    tag_5:\n      callvalue\n      dup1\n      iszero\n      tag_57\n      jumpi\n      0x00\n      dup1\n      revert\n    tag_57:\n      pop\n      tag_58\n      tag_59\n      jump\t// in\n    tag_58:\n      mload(0x40)\n      tag_60\n      swap2\n      swap1\n      tag_61\n      jump\t// in\n    tag_60:\n      mload(0x40)\n      dup1\n      swap2\n      sub\n      swap1\n      return\n        /* \"@openzeppelin/contracts/token/ERC20/ERC20.sol\":5192:5478  function transferFrom(... */\n    tag_6:\n      callvalue\n      dup1\n      iszero\n      tag_62\n      jumpi\n      0x00\n      dup1\n      revert\n    tag_62:\n      pop\n      tag_63\n      0x04\n      dup1\n      calldatasize\n      sub\n      dup2\n      add\n      swap1\n      tag_64\n      swap2\n      swap1\n      tag_65\n      jump\t// in\n    tag_64:\n      tag_66\n      jump\t// in\n    tag_63:\n      mload(0x40)\n      tag_67\n      swap2\n      swap1\n      tag_45\n      jump\t// in\n    tag_67:\n      mload(0x40)\n      dup1\n      swap2\n      sub\n      swap1\n      return\n        /* \"@openzeppelin/contracts/access/AccessControl.sol\":4008:4137  function getRoleAdmin(bytes32 role) public view virtual override returns (bytes32) {... */\n    tag_7:\n      callvalue\n      dup1\n      iszero\n      tag_68\n      jumpi\n      0x00\n      dup1\n      revert\n    tag_68:\n      pop\n      tag_69\n      0x04\n      dup1\n      calldatasize\n      sub\n      dup2\n      add\n      swap1\n      tag_70\n      swap2\n      swap1\n      tag_71\n      jump\t// in\n    tag_70:\n      tag_72\n      jump\t// in\n    tag_69:\n      mload(0x40)\n      tag_73\n      swap2\n      swap1\n      tag_74\n      jump\t// in\n    tag_73:\n      mload(0x40)\n      dup1\n      swap2\n      sub\n      swap1\n      return\n        /* \"contracts/Token.sol\":331:393  bytes32 public constant BURNER_ROLE = keccak256(\"BURNER_ROLE\") */\n    tag_8:\n      callvalue\n      dup1\n      iszero\n      tag_75\n      jumpi\n      0x00\n      dup1\n      revert\n    tag_75:\n      pop\n      tag_76\n      tag_77\n      jump\t// in\n    tag_76:\n      mload(0x40)\n      tag_78\n      swap2\n      swap1\n      tag_74\n      jump\t// in\n    tag_78:\n      mload(0x40)\n      dup1\n      swap2\n      sub\n      swap1\n      return\n        /* \"@openzeppelin/contracts/access/AccessControl.sol\":4387:4532  function grantRole(bytes32 role, address account) public virtual override onlyRole(getRoleAdmin(role)) {... */\n    tag_9:\n      callvalue\n      dup1\n      iszero\n      tag_79\n      jumpi\n      0x00\n      dup1\n      revert\n    tag_79:\n      pop\n      tag_80\n      0x04\n      dup1\n      calldatasize\n      sub\n      dup2\n      add\n      swap1\n      tag_81\n      swap2\n      swap1\n      tag_82\n      jump\t// in\n    tag_81:\n      tag_83\n      jump\t// in\n    tag_80:\n      stop\n        /* \"@openzeppelin/contracts/token/ERC20/ERC20.sol\":3093:3184  function decimals() public view virtual override returns (uint8) {... */\n    tag_10:\n      callvalue\n      dup1\n      iszero\n      tag_84\n      jumpi\n      0x00\n      dup1\n      revert\n    tag_84:\n      pop\n      tag_85\n      tag_86\n      jump\t// in\n    tag_85:\n      mload(0x40)\n      tag_87\n      swap2\n      swap1\n      tag_88\n      jump\t// in\n    tag_87:\n      mload(0x40)\n      dup1\n      swap2\n      sub\n      swap1\n      return\n        /* \"@openzeppelin/contracts/access/AccessControl.sol\":5404:5618  function renounceRole(bytes32 role, address account) public virtual override {... */\n    tag_11:\n      callvalue\n      dup1\n      iszero\n      tag_89\n      jumpi\n      0x00\n      dup1\n      revert\n    tag_89:\n      pop\n      tag_90\n      0x04\n      dup1\n      calldatasize\n      sub\n      dup2\n      add\n      swap1\n      tag_91\n      swap2\n      swap1\n      tag_82\n      jump\t// in\n    tag_91:\n      tag_92\n      jump\t// in\n    tag_90:\n      stop\n        /* \"@openzeppelin/contracts/token/ERC20/ERC20.sol\":5873:6109  function increaseAllowance(address spender, uint256 addedValue) public virtual returns (bool) {... */\n    tag_12:\n      callvalue\n      dup1\n      iszero\n      tag_93\n      jumpi\n      0x00\n      dup1\n      revert\n    tag_93:\n      pop\n      tag_94\n      0x04\n      dup1\n      calldatasize\n      sub\n      dup2\n      add\n      swap1\n      tag_95\n      swap2\n      swap1\n      tag_54\n      jump\t// in\n    tag_95:\n      tag_96\n      jump\t// in\n    tag_94:\n      mload(0x40)\n      tag_97\n      swap2\n      swap1\n      tag_45\n      jump\t// in\n    tag_97:\n      mload(0x40)\n      dup1\n      swap2\n      sub\n      swap1\n      return\n        /* \"contracts/Claim.sol\":1068:1181  function getUnclaimed(address _account) public view returns (uint256) {... */\n    tag_13:\n      callvalue\n      dup1\n      iszero\n      tag_98\n      jumpi\n      0x00\n      dup1\n      revert\n    tag_98:\n      pop\n      tag_99\n      0x04\n      dup1\n      calldatasize\n      sub\n      dup2\n      add\n      swap1\n      tag_100\n      swap2\n      swap1\n      tag_101\n      jump\t// in\n    tag_100:\n      tag_102\n      jump\t// in\n    tag_99:\n      mload(0x40)\n      tag_103\n      swap2\n      swap1\n      tag_61\n      jump\t// in\n    tag_103:\n      mload(0x40)\n      dup1\n      swap2\n      sub\n      swap1\n      return\n        /* \"contracts/Token.sol\":629:786  function mint(address to, uint amount) public {... */\n    tag_14:\n      callvalue\n      dup1\n      iszero\n      tag_104\n      jumpi\n      0x00\n      dup1\n      revert\n    tag_104:\n      pop\n      tag_105\n      0x04\n      dup1\n      calldatasize\n      sub\n      dup2\n      add\n      swap1\n      tag_106\n      swap2\n      swap1\n      tag_54\n      jump\t// in\n    tag_106:\n      tag_107\n      jump\t// in\n    tag_105:\n      stop\n        /* \"contracts/Token.sol\":1996:2300  function claim() public payable {... */\n    tag_15:\n      tag_108\n      tag_109\n      jump\t// in\n    tag_108:\n      stop\n        /* \"contracts/Claim.sol\":163:204  mapping(address => uint) public unclaimed */\n    tag_16:\n      callvalue\n      dup1\n      iszero\n      tag_110\n      jumpi\n      0x00\n      dup1\n      revert\n    tag_110:\n      pop\n      tag_111\n      0x04\n      dup1\n      calldatasize\n      sub\n      dup2\n      add\n      swap1\n      tag_112\n      swap2\n      swap1\n      tag_101\n      jump\t// in\n    tag_112:\n      tag_113\n      jump\t// in\n    tag_111:\n      mload(0x40)\n      tag_114\n      swap2\n      swap1\n      tag_61\n      jump\t// in\n    tag_114:\n      mload(0x40)\n      dup1\n      swap2\n      sub\n      swap1\n      return\n        /* \"@openzeppelin/contracts/token/ERC20/ERC20.sol\":3408:3533  function balanceOf(address account) public view virtual override returns (uint256) {... */\n    tag_17:\n      callvalue\n      dup1\n      iszero\n      tag_115\n      jumpi\n      0x00\n      dup1\n      revert\n    tag_115:\n      pop\n      tag_116\n      0x04\n      dup1\n      calldatasize\n      sub\n      dup2\n      add\n      swap1\n      tag_117\n      swap2\n      swap1\n      tag_101\n      jump\t// in\n    tag_117:\n      tag_118\n      jump\t// in\n    tag_116:\n      mload(0x40)\n      tag_119\n      swap2\n      swap1\n      tag_61\n      jump\t// in\n    tag_119:\n      mload(0x40)\n      dup1\n      swap2\n      sub\n      swap1\n      return\n        /* \"contracts/Token.sol\":399:465  bytes32 public constant REWARDER_ROLE = keccak256(\"REWARDER_ROLE\") */\n    tag_18:\n      callvalue\n      dup1\n      iszero\n      tag_120\n      jumpi\n      0x00\n      dup1\n      revert\n    tag_120:\n      pop\n      tag_121\n      tag_122\n      jump\t// in\n    tag_121:\n      mload(0x40)\n      tag_123\n      swap2\n      swap1\n      tag_74\n      jump\t// in\n    tag_123:\n      mload(0x40)\n      dup1\n      swap2\n      sub\n      swap1\n      return\n        /* \"contracts/Token.sol\":1173:1523  function createClaimable(address _account, uint256 _amount) external {... */\n    tag_19:\n      callvalue\n      dup1\n      iszero\n      tag_124\n      jumpi\n      0x00\n      dup1\n      revert\n    tag_124:\n      pop\n      tag_125\n      0x04\n      dup1\n      calldatasize\n      sub\n      dup2\n      add\n      swap1\n      tag_126\n      swap2\n      swap1\n      tag_54\n      jump\t// in\n    tag_126:\n      tag_127\n      jump\t// in\n    tag_125:\n      stop\n        /* \"@openzeppelin/contracts/access/AccessControl.sol\":2909:3054  function hasRole(bytes32 role, address account) public view virtual override returns (bool) {... */\n    tag_20:\n      callvalue\n      dup1\n      iszero\n      tag_128\n      jumpi\n      0x00\n      dup1\n      revert\n    tag_128:\n      pop\n      tag_129\n      0x04\n      dup1\n      calldatasize\n      sub\n      dup2\n      add\n      swap1\n      tag_130\n      swap2\n      swap1\n      tag_82\n      jump\t// in\n    tag_130:\n      tag_131\n      jump\t// in\n    tag_129:\n      mload(0x40)\n      tag_132\n      swap2\n      swap1\n      tag_45\n      jump\t// in\n    tag_132:\n      mload(0x40)\n      dup1\n      swap2\n      sub\n      swap1\n      return\n        /* \"@openzeppelin/contracts/token/ERC20/ERC20.sol\":2367:2469  function symbol() public view virtual override returns (string memory) {... */\n    tag_21:\n      callvalue\n      dup1\n      iszero\n      tag_133\n      jumpi\n      0x00\n      dup1\n      revert\n    tag_133:\n      pop\n      tag_134\n      tag_135\n      jump\t// in\n    tag_134:\n      mload(0x40)\n      tag_136\n      swap2\n      swap1\n      tag_50\n      jump\t// in\n    tag_136:\n      mload(0x40)\n      dup1\n      swap2\n      sub\n      swap1\n      return\n        /* \"contracts/Token.sol\":793:957  function burn(address from, uint256 amount) public {... */\n    tag_22:\n      callvalue\n      dup1\n      iszero\n      tag_137\n      jumpi\n      0x00\n      dup1\n      revert\n    tag_137:\n      pop\n      tag_138\n      0x04\n      dup1\n      calldatasize\n      sub\n      dup2\n      add\n      swap1\n      tag_139\n      swap2\n      swap1\n      tag_54\n      jump\t// in\n    tag_139:\n      tag_140\n      jump\t// in\n    tag_138:\n      stop\n        /* \"@openzeppelin/contracts/access/AccessControl.sol\":2027:2076  bytes32 public constant DEFAULT_ADMIN_ROLE = 0x00 */\n    tag_23:\n      callvalue\n      dup1\n      iszero\n      tag_141\n      jumpi\n      0x00\n      dup1\n      revert\n    tag_141:\n      pop\n      tag_142\n      tag_143\n      jump\t// in\n    tag_142:\n      mload(0x40)\n      tag_144\n      swap2\n      swap1\n      tag_74\n      jump\t// in\n    tag_144:\n      mload(0x40)\n      dup1\n      swap2\n      sub\n      swap1\n      return\n        /* \"@openzeppelin/contracts/token/ERC20/ERC20.sol\":6596:7025  function decreaseAllowance(address spender, uint256 subtractedValue) public virtual returns (bool) {... */\n    tag_24:\n      callvalue\n      dup1\n      iszero\n      tag_145\n      jumpi\n      0x00\n      dup1\n      revert\n    tag_145:\n      pop\n      tag_146\n      0x04\n      dup1\n      calldatasize\n      sub\n      dup2\n      add\n      swap1\n      tag_147\n      swap2\n      swap1\n      tag_54\n      jump\t// in\n    tag_147:\n      tag_148\n      jump\t// in\n    tag_146:\n      mload(0x40)\n      tag_149\n      swap2\n      swap1\n      tag_45\n      jump\t// in\n    tag_149:\n      mload(0x40)\n      dup1\n      swap2\n      sub\n      swap1\n      return\n        /* \"@openzeppelin/contracts/token/ERC20/ERC20.sol\":3729:3918  function transfer(address to, uint256 amount) public virtual override returns (bool) {... */\n    tag_25:\n      callvalue\n      dup1\n      iszero\n      tag_150\n      jumpi\n      0x00\n      dup1\n      revert\n    tag_150:\n      pop\n      tag_151\n      0x04\n      dup1\n      calldatasize\n      sub\n      dup2\n      add\n      swap1\n      tag_152\n      swap2\n      swap1\n      tag_54\n      jump\t// in\n    tag_152:\n      tag_153\n      jump\t// in\n    tag_151:\n      mload(0x40)\n      tag_154\n      swap2\n      swap1\n      tag_45\n      jump\t// in\n    tag_154:\n      mload(0x40)\n      dup1\n      swap2\n      sub\n      swap1\n      return\n        /* \"contracts/Claim.sol\":210:249  mapping(address => uint) public claimed */\n    tag_26:\n      callvalue\n      dup1\n      iszero\n      tag_155\n      jumpi\n      0x00\n      dup1\n      revert\n    tag_155:\n      pop\n      tag_156\n      0x04\n      dup1\n      calldatasize\n      sub\n      dup2\n      add\n      swap1\n      tag_157\n      swap2\n      swap1\n      tag_101\n      jump\t// in\n    tag_157:\n      tag_158\n      jump\t// in\n    tag_156:\n      mload(0x40)\n      tag_159\n      swap2\n      swap1\n      tag_61\n      jump\t// in\n    tag_159:\n      mload(0x40)\n      dup1\n      swap2\n      sub\n      swap1\n      return\n        /* \"contracts/Token.sol\":263:325  bytes32 public constant MINTER_ROLE = keccak256(\"MINTER_ROLE\") */\n    tag_27:\n      callvalue\n      dup1\n      iszero\n      tag_160\n      jumpi\n      0x00\n      dup1\n      revert\n    tag_160:\n      pop\n      tag_161\n      tag_162\n      jump\t// in\n    tag_161:\n      mload(0x40)\n      tag_163\n      swap2\n      swap1\n      tag_74\n      jump\t// in\n    tag_163:\n      mload(0x40)\n      dup1\n      swap2\n      sub\n      swap1\n      return\n        /* \"@openzeppelin/contracts/access/AccessControl.sol\":4766:4913  function revokeRole(bytes32 role, address account) public virtual override onlyRole(getRoleAdmin(role)) {... */\n    tag_28:\n      callvalue\n      dup1\n      iszero\n      tag_164\n      jumpi\n      0x00\n      dup1\n      revert\n    tag_164:\n      pop\n      tag_165\n      0x04\n      dup1\n      calldatasize\n      sub\n      dup2\n      add\n      swap1\n      tag_166\n      swap2\n      swap1\n      tag_82\n      jump\t// in\n    tag_166:\n      tag_167\n      jump\t// in\n    tag_165:\n      stop\n        /* \"@openzeppelin/contracts/token/ERC20/ERC20.sol\":3976:4125  function allowance(address owner, address spender) public view virtual override returns (uint256) {... */\n    tag_29:\n      callvalue\n      dup1\n      iszero\n      tag_168\n      jumpi\n      0x00\n      dup1\n      revert\n    tag_168:\n      pop\n      tag_169\n      0x04\n      dup1\n      calldatasize\n      sub\n      dup2\n      add\n      swap1\n      tag_170\n      swap2\n      swap1\n      tag_171\n      jump\t// in\n    tag_170:\n      tag_172\n      jump\t// in\n    tag_169:\n      mload(0x40)\n      tag_173\n      swap2\n      swap1\n      tag_61\n      jump\t// in\n    tag_173:\n      mload(0x40)\n      dup1\n      swap2\n      sub\n      swap1\n      return\n        /* \"contracts/Token.sol\":1736:1937  function removeClaimable(address _account, uint256 _amount) external {... */\n    tag_30:\n      callvalue\n      dup1\n      iszero\n      tag_174\n      jumpi\n      0x00\n      dup1\n      revert\n    tag_174:\n      pop\n      tag_175\n      0x04\n      dup1\n      calldatasize\n      sub\n      dup2\n      add\n      swap1\n      tag_176\n      swap2\n      swap1\n      tag_54\n      jump\t// in\n    tag_176:\n      tag_177\n      jump\t// in\n    tag_175:\n      stop\n        /* \"contracts/Claim.sol\":1594:1703  function getClaimed(address _account) public view returns (uint256) {... */\n    tag_31:\n      callvalue\n      dup1\n      iszero\n      tag_178\n      jumpi\n      0x00\n      dup1\n      revert\n    tag_178:\n      pop\n      tag_179\n      0x04\n      dup1\n      calldatasize\n      sub\n      dup2\n      add\n      swap1\n      tag_180\n      swap2\n      swap1\n      tag_101\n      jump\t// in\n    tag_180:\n      tag_181\n      jump\t// in\n    tag_179:\n      mload(0x40)\n      tag_182\n      swap2\n      swap1\n      tag_61\n      jump\t// in\n    tag_182:\n      mload(0x40)\n      dup1\n      swap2\n      sub\n      swap1\n      return\n        /* \"@openzeppelin/contracts/access/AccessControl.sol\":2620:2822  function supportsInterface(bytes4 interfaceId) public view virtual override returns (bool) {... */\n    tag_43:\n        /* \"@openzeppelin/contracts/access/AccessControl.sol\":2705:2709  bool */\n      0x00\n        /* \"@openzeppelin/contracts/access/AccessControl.sol\":2743:2775  type(IAccessControl).interfaceId */\n      0x7965db0b00000000000000000000000000000000000000000000000000000000\n        /* \"@openzeppelin/contracts/access/AccessControl.sol\":2728:2775  interfaceId == type(IAccessControl).interfaceId */\n      not(0xffffffffffffffffffffffffffffffffffffffffffffffffffffffff)\n      and\n        /* \"@openzeppelin/contracts/access/AccessControl.sol\":2728:2739  interfaceId */\n      dup3\n        /* \"@openzeppelin/contracts/access/AccessControl.sol\":2728:2775  interfaceId == type(IAccessControl).interfaceId */\n      not(0xffffffffffffffffffffffffffffffffffffffffffffffffffffffff)\n      and\n      eq\n        /* \"@openzeppelin/contracts/access/AccessControl.sol\":2728:2815  interfaceId == type(IAccessControl).interfaceId || super.supportsInterface(interfaceId) */\n      dup1\n      tag_184\n      jumpi\n      pop\n        /* \"@openzeppelin/contracts/access/AccessControl.sol\":2779:2815  super.supportsInterface(interfaceId) */\n      tag_185\n        /* \"@openzeppelin/contracts/access/AccessControl.sol\":2803:2814  interfaceId */\n      dup3\n        /* \"@openzeppelin/contracts/access/AccessControl.sol\":2779:2802  super.supportsInterface */\n      tag_186\n        /* \"@openzeppelin/contracts/access/AccessControl.sol\":2779:2815  super.supportsInterface(interfaceId) */\n      jump\t// in\n    tag_185:\n        /* \"@openzeppelin/contracts/access/AccessControl.sol\":2728:2815  interfaceId == type(IAccessControl).interfaceId || super.supportsInterface(interfaceId) */\n    tag_184:\n        /* \"@openzeppelin/contracts/access/AccessControl.sol\":2721:2815  return interfaceId == type(IAccessControl).interfaceId || super.supportsInterface(interfaceId) */\n      swap1\n      pop\n        /* \"@openzeppelin/contracts/access/AccessControl.sol\":2620:2822  function supportsInterface(bytes4 interfaceId) public view virtual override returns (bool) {... */\n      swap2\n      swap1\n      pop\n      jump\t// out\n        /* \"@openzeppelin/contracts/token/ERC20/ERC20.sol\":2156:2254  function name() public view virtual override returns (string memory) {... */\n    tag_48:\n        /* \"@openzeppelin/contracts/token/ERC20/ERC20.sol\":2210:2223  string memory */\n      0x60\n        /* \"@openzeppelin/contracts/token/ERC20/ERC20.sol\":2242:2247  _name */\n      0x03\n        /* \"@openzeppelin/contracts/token/ERC20/ERC20.sol\":2235:2247  return _name */\n      dup1\n      sload\n      tag_188\n      swap1\n      tag_189\n      jump\t// in\n    tag_188:\n      dup1\n      0x1f\n      add\n      0x20\n      dup1\n      swap2\n      div\n      mul\n      0x20\n      add\n      mload(0x40)\n      swap1\n      dup2\n      add\n      0x40\n      mstore\n      dup1\n      swap3\n      swap2\n      swap1\n      dup2\n      dup2\n      mstore\n      0x20\n      add\n      dup3\n      dup1\n      sload\n      tag_190\n      swap1\n      tag_189\n      jump\t// in\n    tag_190:\n      dup1\n      iszero\n      tag_191\n      jumpi\n      dup1\n      0x1f\n      lt\n      tag_192\n      jumpi\n      0x0100\n      dup1\n      dup4\n      sload\n      div\n      mul\n      dup4\n      mstore\n      swap2\n      0x20\n      add\n      swap2\n      jump(tag_191)\n    tag_192:\n      dup3\n      add\n      swap2\n      swap1\n      0x00\n      mstore\n      keccak256(0x00, 0x20)\n      swap1\n    tag_193:\n      dup2\n      sload\n      dup2\n      mstore\n      swap1\n      0x01\n      add\n      swap1\n      0x20\n      add\n      dup1\n      dup4\n      gt\n      tag_193\n      jumpi\n      dup3\n      swap1\n      sub\n      0x1f\n      and\n      dup3\n      add\n      swap2\n    tag_191:\n      pop\n      pop\n      pop\n      pop\n      pop\n      swap1\n      pop\n        /* \"@openzeppelin/contracts/token/ERC20/ERC20.sol\":2156:2254  function name() public view virtual override returns (string memory) {... */\n      swap1\n      jump\t// out\n        /* \"@openzeppelin/contracts/token/ERC20/ERC20.sol\":4433:4630  function approve(address spender, uint256 amount) public virtual override returns (bool) {... */\n    tag_55:\n        /* \"@openzeppelin/contracts/token/ERC20/ERC20.sol\":4516:4520  bool */\n      0x00\n        /* \"@openzeppelin/contracts/token/ERC20/ERC20.sol\":4532:4545  address owner */\n      dup1\n        /* \"@openzeppelin/contracts/token/ERC20/ERC20.sol\":4548:4560  _msgSender() */\n      tag_195\n        /* \"@openzeppelin/contracts/token/ERC20/ERC20.sol\":4548:4558  _msgSender */\n      tag_196\n        /* \"@openzeppelin/contracts/token/ERC20/ERC20.sol\":4548:4560  _msgSender() */\n      jump\t// in\n    tag_195:\n        /* \"@openzeppelin/contracts/token/ERC20/ERC20.sol\":4532:4560  address owner = _msgSender() */\n      swap1\n      pop\n        /* \"@openzeppelin/contracts/token/ERC20/ERC20.sol\":4570:4602  _approve(owner, spender, amount) */\n      tag_197\n        /* \"@openzeppelin/contracts/token/ERC20/ERC20.sol\":4579:4584  owner */\n      dup2\n        /* \"@openzeppelin/contracts/token/ERC20/ERC20.sol\":4586:4593  spender */\n      dup6\n        /* \"@openzeppelin/contracts/token/ERC20/ERC20.sol\":4595:4601  amount */\n      dup6\n        /* \"@openzeppelin/contracts/token/ERC20/ERC20.sol\":4570:4578  _approve */\n      tag_198\n        /* \"@openzeppelin/contracts/token/ERC20/ERC20.sol\":4570:4602  _approve(owner, spender, amount) */\n      jump\t// in\n    tag_197:\n        /* \"@openzeppelin/contracts/token/ERC20/ERC20.sol\":4619:4623  true */\n      0x01\n        /* \"@openzeppelin/contracts/token/ERC20/ERC20.sol\":4612:4623  return true */\n      swap2\n      pop\n      pop\n        /* \"@openzeppelin/contracts/token/ERC20/ERC20.sol\":4433:4630  function approve(address spender, uint256 amount) public virtual override returns (bool) {... */\n      swap3\n      swap2\n      pop\n      pop\n      jump\t// out\n        /* \"@openzeppelin/contracts/token/ERC20/ERC20.sol\":3244:3350  function totalSupply() public view virtual override returns (uint256) {... */\n    tag_59:\n        /* \"@openzeppelin/contracts/token/ERC20/ERC20.sol\":3305:3312  uint256 */\n      0x00\n        /* \"@openzeppelin/contracts/token/ERC20/ERC20.sol\":3331:3343  _totalSupply */\n      sload(0x02)\n        /* \"@openzeppelin/contracts/token/ERC20/ERC20.sol\":3324:3343  return _totalSupply */\n      swap1\n      pop\n        /* \"@openzeppelin/contracts/token/ERC20/ERC20.sol\":3244:3350  function totalSupply() public view virtual override returns (uint256) {... */\n      swap1\n      jump\t// out\n        /* \"@openzeppelin/contracts/token/ERC20/ERC20.sol\":5192:5478  function transferFrom(... */\n    tag_66:\n        /* \"@openzeppelin/contracts/token/ERC20/ERC20.sol\":5319:5323  bool */\n      0x00\n        /* \"@openzeppelin/contracts/token/ERC20/ERC20.sol\":5335:5350  address spender */\n      dup1\n        /* \"@openzeppelin/contracts/token/ERC20/ERC20.sol\":5353:5365  _msgSender() */\n      tag_201\n        /* \"@openzeppelin/contracts/token/ERC20/ERC20.sol\":5353:5363  _msgSender */\n      tag_196\n        /* \"@openzeppelin/contracts/token/ERC20/ERC20.sol\":5353:5365  _msgSender() */\n      jump\t// in\n    tag_201:\n        /* \"@openzeppelin/contracts/token/ERC20/ERC20.sol\":5335:5365  address spender = _msgSender() */\n      swap1\n      pop\n        /* \"@openzeppelin/contracts/token/ERC20/ERC20.sol\":5375:5413  _spendAllowance(from, spender, amount) */\n      tag_202\n        /* \"@openzeppelin/contracts/token/ERC20/ERC20.sol\":5391:5395  from */\n      dup6\n        /* \"@openzeppelin/contracts/token/ERC20/ERC20.sol\":5397:5404  spender */\n      dup3\n        /* \"@openzeppelin/contracts/token/ERC20/ERC20.sol\":5406:5412  amount */\n      dup6\n        /* \"@openzeppelin/contracts/token/ERC20/ERC20.sol\":5375:5390  _spendAllowance */\n      tag_203\n        /* \"@openzeppelin/contracts/token/ERC20/ERC20.sol\":5375:5413  _spendAllowance(from, spender, amount) */\n      jump\t// in\n    tag_202:\n        /* \"@openzeppelin/contracts/token/ERC20/ERC20.sol\":5423:5450  _transfer(from, to, amount) */\n      tag_204\n        /* \"@openzeppelin/contracts/token/ERC20/ERC20.sol\":5433:5437  from */\n      dup6\n        /* \"@openzeppelin/contracts/token/ERC20/ERC20.sol\":5439:5441  to */\n      dup6\n        /* \"@openzeppelin/contracts/token/ERC20/ERC20.sol\":5443:5449  amount */\n      dup6\n        /* \"@openzeppelin/contracts/token/ERC20/ERC20.sol\":5423:5432  _transfer */\n      tag_205\n        /* \"@openzeppelin/contracts/token/ERC20/ERC20.sol\":5423:5450  _transfer(from, to, amount) */\n      jump\t// in\n    tag_204:\n        /* \"@openzeppelin/contracts/token/ERC20/ERC20.sol\":5467:5471  true */\n      0x01\n        /* \"@openzeppelin/contracts/token/ERC20/ERC20.sol\":5460:5471  return true */\n      swap2\n      pop\n      pop\n        /* \"@openzeppelin/contracts/token/ERC20/ERC20.sol\":5192:5478  function transferFrom(... */\n      swap4\n      swap3\n      pop\n      pop\n      pop\n      jump\t// out\n        /* \"@openzeppelin/contracts/access/AccessControl.sol\":4008:4137  function getRoleAdmin(bytes32 role) public view virtual override returns (bytes32) {... */\n    tag_72:\n        /* \"@openzeppelin/contracts/access/AccessControl.sol\":4082:4089  bytes32 */\n      0x00\n        /* \"@openzeppelin/contracts/access/AccessControl.sol\":4108:4114  _roles */\n      0x05\n        /* \"@openzeppelin/contracts/access/AccessControl.sol\":4108:4120  _roles[role] */\n      0x00\n        /* \"@openzeppelin/contracts/access/AccessControl.sol\":4115:4119  role */\n      dup4\n        /* \"@openzeppelin/contracts/access/AccessControl.sol\":4108:4120  _roles[role] */\n      dup2\n      mstore\n      0x20\n      add\n      swap1\n      dup2\n      mstore\n      0x20\n      add\n      0x00\n      keccak256\n        /* \"@openzeppelin/contracts/access/AccessControl.sol\":4108:4130  _roles[role].adminRole */\n      0x01\n      add\n      sload\n        /* \"@openzeppelin/contracts/access/AccessControl.sol\":4101:4130  return _roles[role].adminRole */\n      swap1\n      pop\n        /* \"@openzeppelin/contracts/access/AccessControl.sol\":4008:4137  function getRoleAdmin(bytes32 role) public view virtual override returns (bytes32) {... */\n      swap2\n      swap1\n      pop\n      jump\t// out\n        /* \"contracts/Token.sol\":331:393  bytes32 public constant BURNER_ROLE = keccak256(\"BURNER_ROLE\") */\n    tag_77:\n        /* \"contracts/Token.sol\":369:393  keccak256(\"BURNER_ROLE\") */\n      0x3c11d16cbaffd01df69ce1c404f6340ee057498f5f00246190ea54220576a848\n        /* \"contracts/Token.sol\":331:393  bytes32 public constant BURNER_ROLE = keccak256(\"BURNER_ROLE\") */\n      dup2\n      jump\t// out\n        /* \"@openzeppelin/contracts/access/AccessControl.sol\":4387:4532  function grantRole(bytes32 role, address account) public virtual override onlyRole(getRoleAdmin(role)) {... */\n    tag_83:\n        /* \"@openzeppelin/contracts/access/AccessControl.sol\":4470:4488  getRoleAdmin(role) */\n      tag_207\n        /* \"@openzeppelin/contracts/access/AccessControl.sol\":4483:4487  role */\n      dup3\n        /* \"@openzeppelin/contracts/access/AccessControl.sol\":4470:4482  getRoleAdmin */\n      tag_72\n        /* \"@openzeppelin/contracts/access/AccessControl.sol\":4470:4488  getRoleAdmin(role) */\n      jump\t// in\n    tag_207:\n        /* \"@openzeppelin/contracts/access/AccessControl.sol\":2505:2535  _checkRole(role, _msgSender()) */\n      tag_209\n        /* \"@openzeppelin/contracts/access/AccessControl.sol\":2516:2520  role */\n      dup2\n        /* \"@openzeppelin/contracts/access/AccessControl.sol\":2522:2534  _msgSender() */\n      tag_210\n        /* \"@openzeppelin/contracts/access/AccessControl.sol\":2522:2532  _msgSender */\n      tag_196\n        /* \"@openzeppelin/contracts/access/AccessControl.sol\":2522:2534  _msgSender() */\n      jump\t// in\n    tag_210:\n        /* \"@openzeppelin/contracts/access/AccessControl.sol\":2505:2515  _checkRole */\n      tag_211\n        /* \"@openzeppelin/contracts/access/AccessControl.sol\":2505:2535  _checkRole(role, _msgSender()) */\n      jump\t// in\n    tag_209:\n        /* \"@openzeppelin/contracts/access/AccessControl.sol\":4500:4525  _grantRole(role, account) */\n      tag_213\n        /* \"@openzeppelin/contracts/access/AccessControl.sol\":4511:4515  role */\n      dup4\n        /* \"@openzeppelin/contracts/access/AccessControl.sol\":4517:4524  account */\n      dup4\n        /* \"@openzeppelin/contracts/access/AccessControl.sol\":4500:4510  _grantRole */\n      tag_214\n        /* \"@openzeppelin/contracts/access/AccessControl.sol\":4500:4525  _grantRole(role, account) */\n      jump\t// in\n    tag_213:\n        /* \"@openzeppelin/contracts/access/AccessControl.sol\":4387:4532  function grantRole(bytes32 role, address account) public virtual override onlyRole(getRoleAdmin(role)) {... */\n      pop\n      pop\n      pop\n      jump\t// out\n        /* \"@openzeppelin/contracts/token/ERC20/ERC20.sol\":3093:3184  function decimals() public view virtual override returns (uint8) {... */\n    tag_86:\n        /* \"@openzeppelin/contracts/token/ERC20/ERC20.sol\":3151:3156  uint8 */\n      0x00\n        /* \"@openzeppelin/contracts/token/ERC20/ERC20.sol\":3175:3177  18 */\n      0x12\n        /* \"@openzeppelin/contracts/token/ERC20/ERC20.sol\":3168:3177  return 18 */\n      swap1\n      pop\n        /* \"@openzeppelin/contracts/token/ERC20/ERC20.sol\":3093:3184  function decimals() public view virtual override returns (uint8) {... */\n      swap1\n      jump\t// out\n        /* \"@openzeppelin/contracts/access/AccessControl.sol\":5404:5618  function renounceRole(bytes32 role, address account) public virtual override {... */\n    tag_92:\n        /* \"@openzeppelin/contracts/access/AccessControl.sol\":5510:5522  _msgSender() */\n      tag_217\n        /* \"@openzeppelin/contracts/access/AccessControl.sol\":5510:5520  _msgSender */\n      tag_196\n        /* \"@openzeppelin/contracts/access/AccessControl.sol\":5510:5522  _msgSender() */\n      jump\t// in\n    tag_217:\n        /* \"@openzeppelin/contracts/access/AccessControl.sol\":5499:5522  account == _msgSender() */\n      0xffffffffffffffffffffffffffffffffffffffff\n      and\n        /* \"@openzeppelin/contracts/access/AccessControl.sol\":5499:5506  account */\n      dup2\n        /* \"@openzeppelin/contracts/access/AccessControl.sol\":5499:5522  account == _msgSender() */\n      0xffffffffffffffffffffffffffffffffffffffff\n      and\n      eq\n        /* \"@openzeppelin/contracts/access/AccessControl.sol\":5491:5574  require(account == _msgSender(), \"AccessControl: can only renounce roles for self\") */\n      tag_218\n      jumpi\n      mload(0x40)\n      0x08c379a000000000000000000000000000000000000000000000000000000000\n      dup2\n      mstore\n      0x04\n      add\n      tag_219\n      swap1\n      tag_220\n      jump\t// in\n    tag_219:\n      mload(0x40)\n      dup1\n      swap2\n      sub\n      swap1\n      revert\n    tag_218:\n        /* \"@openzeppelin/contracts/access/AccessControl.sol\":5585:5611  _revokeRole(role, account) */\n      tag_221\n        /* \"@openzeppelin/contracts/access/AccessControl.sol\":5597:5601  role */\n      dup3\n        /* \"@openzeppelin/contracts/access/AccessControl.sol\":5603:5610  account */\n      dup3\n        /* \"@openzeppelin/contracts/access/AccessControl.sol\":5585:5596  _revokeRole */\n      tag_222\n        /* \"@openzeppelin/contracts/access/AccessControl.sol\":5585:5611  _revokeRole(role, account) */\n      jump\t// in\n    tag_221:\n        /* \"@openzeppelin/contracts/access/AccessControl.sol\":5404:5618  function renounceRole(bytes32 role, address account) public virtual override {... */\n      pop\n      pop\n      jump\t// out\n        /* \"@openzeppelin/contracts/token/ERC20/ERC20.sol\":5873:6109  function increaseAllowance(address spender, uint256 addedValue) public virtual returns (bool) {... */\n    tag_96:\n        /* \"@openzeppelin/contracts/token/ERC20/ERC20.sol\":5961:5965  bool */\n      0x00\n        /* \"@openzeppelin/contracts/token/ERC20/ERC20.sol\":5977:5990  address owner */\n      dup1\n        /* \"@openzeppelin/contracts/token/ERC20/ERC20.sol\":5993:6005  _msgSender() */\n      tag_224\n        /* \"@openzeppelin/contracts/token/ERC20/ERC20.sol\":5993:6003  _msgSender */\n      tag_196\n        /* \"@openzeppelin/contracts/token/ERC20/ERC20.sol\":5993:6005  _msgSender() */\n      jump\t// in\n    tag_224:\n        /* \"@openzeppelin/contracts/token/ERC20/ERC20.sol\":5977:6005  address owner = _msgSender() */\n      swap1\n      pop\n        /* \"@openzeppelin/contracts/token/ERC20/ERC20.sol\":6015:6081  _approve(owner, spender, _allowances[owner][spender] + addedValue) */\n      tag_225\n        /* \"@openzeppelin/contracts/token/ERC20/ERC20.sol\":6024:6029  owner */\n      dup2\n        /* \"@openzeppelin/contracts/token/ERC20/ERC20.sol\":6031:6038  spender */\n      dup6\n        /* \"@openzeppelin/contracts/token/ERC20/ERC20.sol\":6070:6080  addedValue */\n      dup6\n        /* \"@openzeppelin/contracts/token/ERC20/ERC20.sol\":6040:6051  _allowances */\n      0x01\n        /* \"@openzeppelin/contracts/token/ERC20/ERC20.sol\":6040:6058  _allowances[owner] */\n      0x00\n        /* \"@openzeppelin/contracts/token/ERC20/ERC20.sol\":6052:6057  owner */\n      dup7\n        /* \"@openzeppelin/contracts/token/ERC20/ERC20.sol\":6040:6058  _allowances[owner] */\n      0xffffffffffffffffffffffffffffffffffffffff\n      and\n      0xffffffffffffffffffffffffffffffffffffffff\n      and\n      dup2\n      mstore\n      0x20\n      add\n      swap1\n      dup2\n      mstore\n      0x20\n      add\n      0x00\n      keccak256\n        /* \"@openzeppelin/contracts/token/ERC20/ERC20.sol\":6040:6067  _allowances[owner][spender] */\n      0x00\n        /* \"@openzeppelin/contracts/token/ERC20/ERC20.sol\":6059:6066  spender */\n      dup10\n        /* \"@openzeppelin/contracts/token/ERC20/ERC20.sol\":6040:6067  _allowances[owner][spender] */\n      0xffffffffffffffffffffffffffffffffffffffff\n      and\n      0xffffffffffffffffffffffffffffffffffffffff\n      and\n      dup2\n      mstore\n      0x20\n      add\n      swap1\n      dup2\n      mstore\n      0x20\n      add\n      0x00\n      keccak256\n      sload\n        /* \"@openzeppelin/contracts/token/ERC20/ERC20.sol\":6040:6080  _allowances[owner][spender] + addedValue */\n      tag_226\n      swap2\n      swap1\n      tag_227\n      jump\t// in\n    tag_226:\n        /* \"@openzeppelin/contracts/token/ERC20/ERC20.sol\":6015:6023  _approve */\n      tag_198\n        /* \"@openzeppelin/contracts/token/ERC20/ERC20.sol\":6015:6081  _approve(owner, spender, _allowances[owner][spender] + addedValue) */\n      jump\t// in\n    tag_225:\n        /* \"@openzeppelin/contracts/token/ERC20/ERC20.sol\":6098:6102  true */\n      0x01\n        /* \"@openzeppelin/contracts/token/ERC20/ERC20.sol\":6091:6102  return true */\n      swap2\n      pop\n      pop\n        /* \"@openzeppelin/contracts/token/ERC20/ERC20.sol\":5873:6109  function increaseAllowance(address spender, uint256 addedValue) public virtual returns (bool) {... */\n      swap3\n      swap2\n      pop\n      pop\n      jump\t// out\n        /* \"contracts/Claim.sol\":1068:1181  function getUnclaimed(address _account) public view returns (uint256) {... */\n    tag_102:\n        /* \"contracts/Claim.sol\":1129:1136  uint256 */\n      0x00\n        /* \"contracts/Claim.sol\":1155:1164  unclaimed */\n      0x06\n        /* \"contracts/Claim.sol\":1155:1174  unclaimed[_account] */\n      0x00\n        /* \"contracts/Claim.sol\":1165:1173  _account */\n      dup4\n        /* \"contracts/Claim.sol\":1155:1174  unclaimed[_account] */\n      0xffffffffffffffffffffffffffffffffffffffff\n      and\n      0xffffffffffffffffffffffffffffffffffffffff\n      and\n      dup2\n      mstore\n      0x20\n      add\n      swap1\n      dup2\n      mstore\n      0x20\n      add\n      0x00\n      keccak256\n      sload\n        /* \"contracts/Claim.sol\":1148:1174  return unclaimed[_account] */\n      swap1\n      pop\n        /* \"contracts/Claim.sol\":1068:1181  function getUnclaimed(address _account) public view returns (uint256) {... */\n      swap2\n      swap1\n      pop\n      jump\t// out\n        /* \"contracts/Token.sol\":629:786  function mint(address to, uint amount) public {... */\n    tag_107:\n        /* \"contracts/Token.sol\":693:725  hasRole(MINTER_ROLE, msg.sender) */\n      tag_230\n        /* \"contracts/Token.sol\":301:325  keccak256(\"MINTER_ROLE\") */\n      0x9f2df0fed2c77648de5860a4cc508cd0818c85b8b8a1ab4ceeef8d981c8956a6\n        /* \"contracts/Token.sol\":714:724  msg.sender */\n      caller\n        /* \"contracts/Token.sol\":693:700  hasRole */\n      tag_131\n        /* \"contracts/Token.sol\":693:725  hasRole(MINTER_ROLE, msg.sender) */\n      jump\t// in\n    tag_230:\n        /* \"contracts/Token.sol\":685:752  require(hasRole(MINTER_ROLE, msg.sender), \"Caller is not a minter\") */\n      tag_231\n      jumpi\n      mload(0x40)\n      0x08c379a000000000000000000000000000000000000000000000000000000000\n      dup2\n      mstore\n      0x04\n      add\n      tag_232\n      swap1\n      tag_233\n      jump\t// in\n    tag_232:\n      mload(0x40)\n      dup1\n      swap2\n      sub\n      swap1\n      revert\n    tag_231:\n        /* \"contracts/Token.sol\":762:779  _mint(to, amount) */\n      tag_234\n        /* \"contracts/Token.sol\":768:770  to */\n      dup3\n        /* \"contracts/Token.sol\":772:778  amount */\n      dup3\n        /* \"contracts/Token.sol\":762:767  _mint */\n      tag_235\n        /* \"contracts/Token.sol\":762:779  _mint(to, amount) */\n      jump\t// in\n    tag_234:\n        /* \"contracts/Token.sol\":629:786  function mint(address to, uint amount) public {... */\n      pop\n      pop\n      jump\t// out\n        /* \"contracts/Token.sol\":1996:2300  function claim() public payable {... */\n    tag_109:\n        /* \"contracts/Token.sol\":2038:2056  uint256 _unclaimed */\n      0x00\n        /* \"contracts/Token.sol\":2059:2068  unclaimed */\n      0x06\n        /* \"contracts/Token.sol\":2059:2080  unclaimed[msg.sender] */\n      0x00\n        /* \"contracts/Token.sol\":2069:2079  msg.sender */\n      caller\n        /* \"contracts/Token.sol\":2059:2080  unclaimed[msg.sender] */\n      0xffffffffffffffffffffffffffffffffffffffff\n      and\n      0xffffffffffffffffffffffffffffffffffffffff\n      and\n      dup2\n      mstore\n      0x20\n      add\n      swap1\n      dup2\n      mstore\n      0x20\n      add\n      0x00\n      keccak256\n      sload\n        /* \"contracts/Token.sol\":2038:2080  uint256 _unclaimed = unclaimed[msg.sender] */\n      swap1\n      pop\n        /* \"contracts/Token.sol\":2111:2112  0 */\n      0x00\n        /* \"contracts/Token.sol\":2098:2108  _unclaimed */\n      dup2\n        /* \"contracts/Token.sol\":2098:2112  _unclaimed > 0 */\n      gt\n        /* \"contracts/Token.sol\":2090:2157  require(_unclaimed > 0, \"Unclaimed balance must be greater than 0\") */\n      tag_237\n      jumpi\n      mload(0x40)\n      0x08c379a000000000000000000000000000000000000000000000000000000000\n      dup2\n      mstore\n      0x04\n      add\n      tag_238\n      swap1\n      tag_239\n      jump\t// in\n    tag_238:\n      mload(0x40)\n      dup1\n      swap2\n      sub\n      swap1\n      revert\n    tag_237:\n        /* \"contracts/Token.sol\":2190:2200  _unclaimed */\n      dup1\n        /* \"contracts/Token.sol\":2167:2174  claimed */\n      0x07\n        /* \"contracts/Token.sol\":2167:2186  claimed[msg.sender] */\n      0x00\n        /* \"contracts/Token.sol\":2175:2185  msg.sender */\n      caller\n        /* \"contracts/Token.sol\":2167:2186  claimed[msg.sender] */\n      0xffffffffffffffffffffffffffffffffffffffff\n      and\n      0xffffffffffffffffffffffffffffffffffffffff\n      and\n      dup2\n      mstore\n      0x20\n      add\n      swap1\n      dup2\n      mstore\n      0x20\n      add\n      0x00\n      keccak256\n      0x00\n        /* \"contracts/Token.sol\":2167:2200  claimed[msg.sender] += _unclaimed */\n      dup3\n      dup3\n      sload\n      tag_240\n      swap2\n      swap1\n      tag_227\n      jump\t// in\n    tag_240:\n      swap3\n      pop\n      pop\n      dup2\n      swap1\n      sstore\n      pop\n        /* \"contracts/Token.sol\":2234:2235  0 */\n      0x00\n        /* \"contracts/Token.sol\":2210:2219  unclaimed */\n      0x06\n        /* \"contracts/Token.sol\":2210:2231  unclaimed[msg.sender] */\n      0x00\n        /* \"contracts/Token.sol\":2220:2230  msg.sender */\n      caller\n        /* \"contracts/Token.sol\":2210:2231  unclaimed[msg.sender] */\n      0xffffffffffffffffffffffffffffffffffffffff\n      and\n      0xffffffffffffffffffffffffffffffffffffffff\n      and\n      dup2\n      mstore\n      0x20\n      add\n      swap1\n      dup2\n      mstore\n      0x20\n      add\n      0x00\n      keccak256\n        /* \"contracts/Token.sol\":2210:2235  unclaimed[msg.sender] = 0 */\n      dup2\n      swap1\n      sstore\n      pop\n        /* \"contracts/Token.sol\":2245:2249  this */\n      address\n        /* \"contracts/Token.sol\":2245:2258  this.transfer */\n      0xffffffffffffffffffffffffffffffffffffffff\n      and\n      0xa9059cbb\n        /* \"contracts/Token.sol\":2259:2269  msg.sender */\n      caller\n        /* \"contracts/Token.sol\":2284:2292  10 ** 18 */\n      0x0de0b6b3a7640000\n        /* \"contracts/Token.sol\":2271:2281  _unclaimed */\n      dup5\n        /* \"contracts/Token.sol\":2271:2292  _unclaimed * 10 ** 18 */\n      tag_241\n      swap2\n      swap1\n      tag_242\n      jump\t// in\n    tag_241:\n        /* \"contracts/Token.sol\":2245:2293  this.transfer(msg.sender, _unclaimed * 10 ** 18) */\n      mload(0x40)\n      dup4\n      0xffffffff\n      and\n      0xe0\n      shl\n      dup2\n      mstore\n      0x04\n      add\n      tag_243\n      swap3\n      swap2\n      swap1\n      tag_244\n      jump\t// in\n    tag_243:\n      0x20\n      mload(0x40)\n      dup1\n      dup4\n      sub\n      dup2\n      0x00\n      dup8\n      dup1\n      extcodesize\n      iszero\n      dup1\n      iszero\n      tag_245\n      jumpi\n      0x00\n      dup1\n      revert\n    tag_245:\n      pop\n      gas\n      call\n      iszero\n      dup1\n      iszero\n      tag_247\n      jumpi\n      returndatasize\n      0x00\n      dup1\n      returndatacopy\n      revert(0x00, returndatasize)\n    tag_247:\n      pop\n      pop\n      pop\n      pop\n      mload(0x40)\n      returndatasize\n      not(0x1f)\n      0x1f\n      dup3\n      add\n      and\n      dup3\n      add\n      dup1\n      0x40\n      mstore\n      pop\n      dup2\n      add\n      swap1\n      tag_248\n      swap2\n      swap1\n      tag_249\n      jump\t// in\n    tag_248:\n      pop\n        /* \"contracts/Token.sol\":2028:2300  {... */\n      pop\n        /* \"contracts/Token.sol\":1996:2300  function claim() public payable {... */\n      jump\t// out\n        /* \"contracts/Claim.sol\":163:204  mapping(address => uint) public unclaimed */\n    tag_113:\n      mstore(0x20, 0x06)\n      dup1\n      0x00\n      mstore\n      keccak256(0x00, 0x40)\n      0x00\n      swap2\n      pop\n      swap1\n      pop\n      sload\n      dup2\n      jump\t// out\n        /* \"@openzeppelin/contracts/token/ERC20/ERC20.sol\":3408:3533  function balanceOf(address account) public view virtual override returns (uint256) {... */\n    tag_118:\n        /* \"@openzeppelin/contracts/token/ERC20/ERC20.sol\":3482:3489  uint256 */\n      0x00\n        /* \"@openzeppelin/contracts/token/ERC20/ERC20.sol\":3508:3517  _balances */\n      dup1\n        /* \"@openzeppelin/contracts/token/ERC20/ERC20.sol\":3508:3526  _balances[account] */\n      0x00\n        /* \"@openzeppelin/contracts/token/ERC20/ERC20.sol\":3518:3525  account */\n      dup4\n        /* \"@openzeppelin/contracts/token/ERC20/ERC20.sol\":3508:3526  _balances[account] */\n      0xffffffffffffffffffffffffffffffffffffffff\n      and\n      0xffffffffffffffffffffffffffffffffffffffff\n      and\n      dup2\n      mstore\n      0x20\n      add\n      swap1\n      dup2\n      mstore\n      0x20\n      add\n      0x00\n      keccak256\n      sload\n        /* \"@openzeppelin/contracts/token/ERC20/ERC20.sol\":3501:3526  return _balances[account] */\n      swap1\n      pop\n        /* \"@openzeppelin/contracts/token/ERC20/ERC20.sol\":3408:3533  function balanceOf(address account) public view virtual override returns (uint256) {... */\n      swap2\n      swap1\n      pop\n      jump\t// out\n        /* \"contracts/Token.sol\":399:465  bytes32 public constant REWARDER_ROLE = keccak256(\"REWARDER_ROLE\") */\n    tag_122:\n        /* \"contracts/Token.sol\":439:465  keccak256(\"REWARDER_ROLE\") */\n      0xbeec13769b5f410b0584f69811bfd923818456d5edcf426b0e31cf90eed7a3f6\n        /* \"contracts/Token.sol\":399:465  bytes32 public constant REWARDER_ROLE = keccak256(\"REWARDER_ROLE\") */\n      dup2\n      jump\t// out\n        /* \"contracts/Token.sol\":1173:1523  function createClaimable(address _account, uint256 _amount) external {... */\n    tag_127:\n        /* \"contracts/Token.sol\":1260:1294  hasRole(REWARDER_ROLE, msg.sender) */\n      tag_252\n        /* \"contracts/Token.sol\":439:465  keccak256(\"REWARDER_ROLE\") */\n      0xbeec13769b5f410b0584f69811bfd923818456d5edcf426b0e31cf90eed7a3f6\n        /* \"contracts/Token.sol\":1283:1293  msg.sender */\n      caller\n        /* \"contracts/Token.sol\":1260:1267  hasRole */\n      tag_131\n        /* \"contracts/Token.sol\":1260:1294  hasRole(REWARDER_ROLE, msg.sender) */\n      jump\t// in\n    tag_252:\n        /* \"contracts/Token.sol\":1252:1323  require(hasRole(REWARDER_ROLE, msg.sender), \"Caller is not a rewarder\") */\n      tag_253\n      jumpi\n      mload(0x40)\n      0x08c379a000000000000000000000000000000000000000000000000000000000\n      dup2\n      mstore\n      0x04\n      add\n      tag_254\n      swap1\n      tag_255\n      jump\t// in\n    tag_254:\n      mload(0x40)\n      dup1\n      swap2\n      sub\n      swap1\n      revert\n    tag_253:\n        /* \"contracts/Token.sol\":1333:1351  uint256 _unclaimed */\n      0x00\n        /* \"contracts/Token.sol\":1384:1393  unclaimed */\n      0x06\n        /* \"contracts/Token.sol\":1384:1403  unclaimed[_account] */\n      0x00\n        /* \"contracts/Token.sol\":1394:1402  _account */\n      dup5\n        /* \"contracts/Token.sol\":1384:1403  unclaimed[_account] */\n      0xffffffffffffffffffffffffffffffffffffffff\n      and\n      0xffffffffffffffffffffffffffffffffffffffff\n      and\n      dup2\n      mstore\n      0x20\n      add\n      swap1\n      dup2\n      mstore\n      0x20\n      add\n      0x00\n      keccak256\n      sload\n        /* \"contracts/Token.sol\":1364:1371  claimed */\n      0x07\n        /* \"contracts/Token.sol\":1364:1381  claimed[_account] */\n      0x00\n        /* \"contracts/Token.sol\":1372:1380  _account */\n      dup6\n        /* \"contracts/Token.sol\":1364:1381  claimed[_account] */\n      0xffffffffffffffffffffffffffffffffffffffff\n      and\n      0xffffffffffffffffffffffffffffffffffffffff\n      and\n      dup2\n      mstore\n      0x20\n      add\n      swap1\n      dup2\n      mstore\n      0x20\n      add\n      0x00\n      keccak256\n      sload\n        /* \"contracts/Token.sol\":1354:1361  _amount */\n      dup4\n        /* \"contracts/Token.sol\":1354:1381  _amount - claimed[_account] */\n      tag_256\n      swap2\n      swap1\n      tag_257\n      jump\t// in\n    tag_256:\n        /* \"contracts/Token.sol\":1354:1403  _amount - claimed[_account] - unclaimed[_account] */\n      tag_258\n      swap2\n      swap1\n      tag_257\n      jump\t// in\n    tag_258:\n        /* \"contracts/Token.sol\":1333:1403  uint256 _unclaimed = _amount - claimed[_account] - unclaimed[_account] */\n      swap1\n      pop\n        /* \"contracts/Token.sol\":1434:1435  0 */\n      0x00\n        /* \"contracts/Token.sol\":1421:1431  _unclaimed */\n      dup2\n        /* \"contracts/Token.sol\":1421:1435  _unclaimed > 0 */\n      gt\n        /* \"contracts/Token.sol\":1413:1472  require(_unclaimed > 0, 'claimable must be greater than 0') */\n      tag_259\n      jumpi\n      mload(0x40)\n      0x08c379a000000000000000000000000000000000000000000000000000000000\n      dup2\n      mstore\n      0x04\n      add\n      tag_260\n      swap1\n      tag_261\n      jump\t// in\n    tag_260:\n      mload(0x40)\n      dup1\n      swap2\n      sub\n      swap1\n      revert\n    tag_259:\n        /* \"contracts/Token.sol\":1482:1516  addUnclaimed(_account, _unclaimed) */\n      tag_262\n        /* \"contracts/Token.sol\":1495:1503  _account */\n      dup4\n        /* \"contracts/Token.sol\":1505:1515  _unclaimed */\n      dup3\n        /* \"contracts/Token.sol\":1482:1494  addUnclaimed */\n      tag_263\n        /* \"contracts/Token.sol\":1482:1516  addUnclaimed(_account, _unclaimed) */\n      jump\t// in\n    tag_262:\n        /* \"contracts/Token.sol\":1242:1523  {... */\n      pop\n        /* \"contracts/Token.sol\":1173:1523  function createClaimable(address _account, uint256 _amount) external {... */\n      pop\n      pop\n      jump\t// out\n        /* \"@openzeppelin/contracts/access/AccessControl.sol\":2909:3054  function hasRole(bytes32 role, address account) public view virtual override returns (bool) {... */\n    tag_131:\n        /* \"@openzeppelin/contracts/access/AccessControl.sol\":2995:2999  bool */\n      0x00\n        /* \"@openzeppelin/contracts/access/AccessControl.sol\":3018:3024  _roles */\n      0x05\n        /* \"@openzeppelin/contracts/access/AccessControl.sol\":3018:3030  _roles[role] */\n      0x00\n        /* \"@openzeppelin/contracts/access/AccessControl.sol\":3025:3029  role */\n      dup5\n        /* \"@openzeppelin/contracts/access/AccessControl.sol\":3018:3030  _roles[role] */\n      dup2\n      mstore\n      0x20\n      add\n      swap1\n      dup2\n      mstore\n      0x20\n      add\n      0x00\n      keccak256\n        /* \"@openzeppelin/contracts/access/AccessControl.sol\":3018:3038  _roles[role].members */\n      0x00\n      add\n        /* \"@openzeppelin/contracts/access/AccessControl.sol\":3018:3047  _roles[role].members[account] */\n      0x00\n        /* \"@openzeppelin/contracts/access/AccessControl.sol\":3039:3046  account */\n      dup4\n        /* \"@openzeppelin/contracts/access/AccessControl.sol\":3018:3047  _roles[role].members[account] */\n      0xffffffffffffffffffffffffffffffffffffffff\n      and\n      0xffffffffffffffffffffffffffffffffffffffff\n      and\n      dup2\n      mstore\n      0x20\n      add\n      swap1\n      dup2\n      mstore\n      0x20\n      add\n      0x00\n      keccak256\n      0x00\n      swap1\n      sload\n      swap1\n      0x0100\n      exp\n      swap1\n      div\n      0xff\n      and\n        /* \"@openzeppelin/contracts/access/AccessControl.sol\":3011:3047  return _roles[role].members[account] */\n      swap1\n      pop\n        /* \"@openzeppelin/contracts/access/AccessControl.sol\":2909:3054  function hasRole(bytes32 role, address account) public view virtual override returns (bool) {... */\n      swap3\n      swap2\n      pop\n      pop\n      jump\t// out\n        /* \"@openzeppelin/contracts/token/ERC20/ERC20.sol\":2367:2469  function symbol() public view virtual override returns (string memory) {... */\n    tag_135:\n        /* \"@openzeppelin/contracts/token/ERC20/ERC20.sol\":2423:2436  string memory */\n      0x60\n        /* \"@openzeppelin/contracts/token/ERC20/ERC20.sol\":2455:2462  _symbol */\n      0x04\n        /* \"@openzeppelin/contracts/token/ERC20/ERC20.sol\":2448:2462  return _symbol */\n      dup1\n      sload\n      tag_266\n      swap1\n      tag_189\n      jump\t// in\n    tag_266:\n      dup1\n      0x1f\n      add\n      0x20\n      dup1\n      swap2\n      div\n      mul\n      0x20\n      add\n      mload(0x40)\n      swap1\n      dup2\n      add\n      0x40\n      mstore\n      dup1\n      swap3\n      swap2\n      swap1\n      dup2\n      dup2\n      mstore\n      0x20\n      add\n      dup3\n      dup1\n      sload\n      tag_267\n      swap1\n      tag_189\n      jump\t// in\n    tag_267:\n      dup1\n      iszero\n      tag_268\n      jumpi\n      dup1\n      0x1f\n      lt\n      tag_269\n      jumpi\n      0x0100\n      dup1\n      dup4\n      sload\n      div\n      mul\n      dup4\n      mstore\n      swap2\n      0x20\n      add\n      swap2\n      jump(tag_268)\n    tag_269:\n      dup3\n      add\n      swap2\n      swap1\n      0x00\n      mstore\n      keccak256(0x00, 0x20)\n      swap1\n    tag_270:\n      dup2\n      sload\n      dup2\n      mstore\n      swap1\n      0x01\n      add\n      swap1\n      0x20\n      add\n      dup1\n      dup4\n      gt\n      tag_270\n      jumpi\n      dup3\n      swap1\n      sub\n      0x1f\n      and\n      dup3\n      add\n      swap2\n    tag_268:\n      pop\n      pop\n      pop\n      pop\n      pop\n      swap1\n      pop\n        /* \"@openzeppelin/contracts/token/ERC20/ERC20.sol\":2367:2469  function symbol() public view virtual override returns (string memory) {... */\n      swap1\n      jump\t// out\n        /* \"contracts/Token.sol\":793:957  function burn(address from, uint256 amount) public {... */\n    tag_140:\n        /* \"contracts/Token.sol\":862:894  hasRole(BURNER_ROLE, msg.sender) */\n      tag_272\n        /* \"contracts/Token.sol\":369:393  keccak256(\"BURNER_ROLE\") */\n      0x3c11d16cbaffd01df69ce1c404f6340ee057498f5f00246190ea54220576a848\n        /* \"contracts/Token.sol\":883:893  msg.sender */\n      caller\n        /* \"contracts/Token.sol\":862:869  hasRole */\n      tag_131\n        /* \"contracts/Token.sol\":862:894  hasRole(BURNER_ROLE, msg.sender) */\n      jump\t// in\n    tag_272:\n        /* \"contracts/Token.sol\":854:921  require(hasRole(BURNER_ROLE, msg.sender), \"Caller is not a burner\") */\n      tag_273\n      jumpi\n      mload(0x40)\n      0x08c379a000000000000000000000000000000000000000000000000000000000\n      dup2\n      mstore\n      0x04\n      add\n      tag_274\n      swap1\n      tag_275\n      jump\t// in\n    tag_274:\n      mload(0x40)\n      dup1\n      swap2\n      sub\n      swap1\n      revert\n    tag_273:\n        /* \"contracts/Token.sol\":931:950  _burn(from, amount) */\n      tag_276\n        /* \"contracts/Token.sol\":937:941  from */\n      dup3\n        /* \"contracts/Token.sol\":943:949  amount */\n      dup3\n        /* \"contracts/Token.sol\":931:936  _burn */\n      tag_277\n        /* \"contracts/Token.sol\":931:950  _burn(from, amount) */\n      jump\t// in\n    tag_276:\n        /* \"contracts/Token.sol\":793:957  function burn(address from, uint256 amount) public {... */\n      pop\n      pop\n      jump\t// out\n        /* \"@openzeppelin/contracts/access/AccessControl.sol\":2027:2076  bytes32 public constant DEFAULT_ADMIN_ROLE = 0x00 */\n    tag_143:\n        /* \"@openzeppelin/contracts/access/AccessControl.sol\":2072:2076  0x00 */\n      0x00\n        /* \"@openzeppelin/contracts/access/AccessControl.sol\":2027:2076  bytes32 public constant DEFAULT_ADMIN_ROLE = 0x00 */\n      dup1\n      shl\n      dup2\n      jump\t// out\n        /* \"@openzeppelin/contracts/token/ERC20/ERC20.sol\":6596:7025  function decreaseAllowance(address spender, uint256 subtractedValue) public virtual returns (bool) {... */\n    tag_148:\n        /* \"@openzeppelin/contracts/token/ERC20/ERC20.sol\":6689:6693  bool */\n      0x00\n        /* \"@openzeppelin/contracts/token/ERC20/ERC20.sol\":6705:6718  address owner */\n      dup1\n        /* \"@openzeppelin/contracts/token/ERC20/ERC20.sol\":6721:6733  _msgSender() */\n      tag_279\n        /* \"@openzeppelin/contracts/token/ERC20/ERC20.sol\":6721:6731  _msgSender */\n      tag_196\n        /* \"@openzeppelin/contracts/token/ERC20/ERC20.sol\":6721:6733  _msgSender() */\n      jump\t// in\n    tag_279:\n        /* \"@openzeppelin/contracts/token/ERC20/ERC20.sol\":6705:6733  address owner = _msgSender() */\n      swap1\n      pop\n        /* \"@openzeppelin/contracts/token/ERC20/ERC20.sol\":6743:6767  uint256 currentAllowance */\n      0x00\n        /* \"@openzeppelin/contracts/token/ERC20/ERC20.sol\":6770:6781  _allowances */\n      0x01\n        /* \"@openzeppelin/contracts/token/ERC20/ERC20.sol\":6770:6788  _allowances[owner] */\n      0x00\n        /* \"@openzeppelin/contracts/token/ERC20/ERC20.sol\":6782:6787  owner */\n      dup4\n        /* \"@openzeppelin/contracts/token/ERC20/ERC20.sol\":6770:6788  _allowances[owner] */\n      0xffffffffffffffffffffffffffffffffffffffff\n      and\n      0xffffffffffffffffffffffffffffffffffffffff\n      and\n      dup2\n      mstore\n      0x20\n      add\n      swap1\n      dup2\n      mstore\n      0x20\n      add\n      0x00\n      keccak256\n        /* \"@openzeppelin/contracts/token/ERC20/ERC20.sol\":6770:6797  _allowances[owner][spender] */\n      0x00\n        /* \"@openzeppelin/contracts/token/ERC20/ERC20.sol\":6789:6796  spender */\n      dup7\n        /* \"@openzeppelin/contracts/token/ERC20/ERC20.sol\":6770:6797  _allowances[owner][spender] */\n      0xffffffffffffffffffffffffffffffffffffffff\n      and\n      0xffffffffffffffffffffffffffffffffffffffff\n      and\n      dup2\n      mstore\n      0x20\n      add\n      swap1\n      dup2\n      mstore\n      0x20\n      add\n      0x00\n      keccak256\n      sload\n        /* \"@openzeppelin/contracts/token/ERC20/ERC20.sol\":6743:6797  uint256 currentAllowance = _allowances[owner][spender] */\n      swap1\n      pop\n        /* \"@openzeppelin/contracts/token/ERC20/ERC20.sol\":6835:6850  subtractedValue */\n      dup4\n        /* \"@openzeppelin/contracts/token/ERC20/ERC20.sol\":6815:6831  currentAllowance */\n      dup2\n        /* \"@openzeppelin/contracts/token/ERC20/ERC20.sol\":6815:6850  currentAllowance >= subtractedValue */\n      lt\n      iszero\n        /* \"@openzeppelin/contracts/token/ERC20/ERC20.sol\":6807:6892  require(currentAllowance >= subtractedValue, \"ERC20: decreased allowance below zero\") */\n      tag_280\n      jumpi\n      mload(0x40)\n      0x08c379a000000000000000000000000000000000000000000000000000000000\n      dup2\n      mstore\n      0x04\n      add\n      tag_281\n      swap1\n      tag_282\n      jump\t// in\n    tag_281:\n      mload(0x40)\n      dup1\n      swap2\n      sub\n      swap1\n      revert\n    tag_280:\n        /* \"@openzeppelin/contracts/token/ERC20/ERC20.sol\":6926:6986  _approve(owner, spender, currentAllowance - subtractedValue) */\n      tag_283\n        /* \"@openzeppelin/contracts/token/ERC20/ERC20.sol\":6935:6940  owner */\n      dup3\n        /* \"@openzeppelin/contracts/token/ERC20/ERC20.sol\":6942:6949  spender */\n      dup7\n        /* \"@openzeppelin/contracts/token/ERC20/ERC20.sol\":6970:6985  subtractedValue */\n      dup7\n        /* \"@openzeppelin/contracts/token/ERC20/ERC20.sol\":6951:6967  currentAllowance */\n      dup5\n        /* \"@openzeppelin/contracts/token/ERC20/ERC20.sol\":6951:6985  currentAllowance - subtractedValue */\n      sub\n        /* \"@openzeppelin/contracts/token/ERC20/ERC20.sol\":6926:6934  _approve */\n      tag_198\n        /* \"@openzeppelin/contracts/token/ERC20/ERC20.sol\":6926:6986  _approve(owner, spender, currentAllowance - subtractedValue) */\n      jump\t// in\n    tag_283:\n        /* \"@openzeppelin/contracts/token/ERC20/ERC20.sol\":7014:7018  true */\n      0x01\n        /* \"@openzeppelin/contracts/token/ERC20/ERC20.sol\":7007:7018  return true */\n      swap3\n      pop\n      pop\n      pop\n        /* \"@openzeppelin/contracts/token/ERC20/ERC20.sol\":6596:7025  function decreaseAllowance(address spender, uint256 subtractedValue) public virtual returns (bool) {... */\n      swap3\n      swap2\n      pop\n      pop\n      jump\t// out\n        /* \"@openzeppelin/contracts/token/ERC20/ERC20.sol\":3729:3918  function transfer(address to, uint256 amount) public virtual override returns (bool) {... */\n    tag_153:\n        /* \"@openzeppelin/contracts/token/ERC20/ERC20.sol\":3808:3812  bool */\n      0x00\n        /* \"@openzeppelin/contracts/token/ERC20/ERC20.sol\":3824:3837  address owner */\n      dup1\n        /* \"@openzeppelin/contracts/token/ERC20/ERC20.sol\":3840:3852  _msgSender() */\n      tag_285\n        /* \"@openzeppelin/contracts/token/ERC20/ERC20.sol\":3840:3850  _msgSender */\n      tag_196\n        /* \"@openzeppelin/contracts/token/ERC20/ERC20.sol\":3840:3852  _msgSender() */\n      jump\t// in\n    tag_285:\n        /* \"@openzeppelin/contracts/token/ERC20/ERC20.sol\":3824:3852  address owner = _msgSender() */\n      swap1\n      pop\n        /* \"@openzeppelin/contracts/token/ERC20/ERC20.sol\":3862:3890  _transfer(owner, to, amount) */\n      tag_286\n        /* \"@openzeppelin/contracts/token/ERC20/ERC20.sol\":3872:3877  owner */\n      dup2\n        /* \"@openzeppelin/contracts/token/ERC20/ERC20.sol\":3879:3881  to */\n      dup6\n        /* \"@openzeppelin/contracts/token/ERC20/ERC20.sol\":3883:3889  amount */\n      dup6\n        /* \"@openzeppelin/contracts/token/ERC20/ERC20.sol\":3862:3871  _transfer */\n      tag_205\n        /* \"@openzeppelin/contracts/token/ERC20/ERC20.sol\":3862:3890  _transfer(owner, to, amount) */\n      jump\t// in\n    tag_286:\n        /* \"@openzeppelin/contracts/token/ERC20/ERC20.sol\":3907:3911  true */\n      0x01\n        /* \"@openzeppelin/contracts/token/ERC20/ERC20.sol\":3900:3911  return true */\n      swap2\n      pop\n      pop\n        /* \"@openzeppelin/contracts/token/ERC20/ERC20.sol\":3729:3918  function transfer(address to, uint256 amount) public virtual override returns (bool) {... */\n      swap3\n      swap2\n      pop\n      pop\n      jump\t// out\n        /* \"contracts/Claim.sol\":210:249  mapping(address => uint) public claimed */\n    tag_158:\n      mstore(0x20, 0x07)\n      dup1\n      0x00\n      mstore\n      keccak256(0x00, 0x40)\n      0x00\n      swap2\n      pop\n      swap1\n      pop\n      sload\n      dup2\n      jump\t// out\n        /* \"contracts/Token.sol\":263:325  bytes32 public constant MINTER_ROLE = keccak256(\"MINTER_ROLE\") */\n    tag_162:\n        /* \"contracts/Token.sol\":301:325  keccak256(\"MINTER_ROLE\") */\n      0x9f2df0fed2c77648de5860a4cc508cd0818c85b8b8a1ab4ceeef8d981c8956a6\n        /* \"contracts/Token.sol\":263:325  bytes32 public constant MINTER_ROLE = keccak256(\"MINTER_ROLE\") */\n      dup2\n      jump\t// out\n        /* \"@openzeppelin/contracts/access/AccessControl.sol\":4766:4913  function revokeRole(bytes32 role, address account) public virtual override onlyRole(getRoleAdmin(role)) {... */\n    tag_167:\n        /* \"@openzeppelin/contracts/access/AccessControl.sol\":4850:4868  getRoleAdmin(role) */\n      tag_287\n        /* \"@openzeppelin/contracts/access/AccessControl.sol\":4863:4867  role */\n      dup3\n        /* \"@openzeppelin/contracts/access/AccessControl.sol\":4850:4862  getRoleAdmin */\n      tag_72\n        /* \"@openzeppelin/contracts/access/AccessControl.sol\":4850:4868  getRoleAdmin(role) */\n      jump\t// in\n    tag_287:\n        /* \"@openzeppelin/contracts/access/AccessControl.sol\":2505:2535  _checkRole(role, _msgSender()) */\n      tag_289\n        /* \"@openzeppelin/contracts/access/AccessControl.sol\":2516:2520  role */\n      dup2\n        /* \"@openzeppelin/contracts/access/AccessControl.sol\":2522:2534  _msgSender() */\n      tag_290\n        /* \"@openzeppelin/contracts/access/AccessControl.sol\":2522:2532  _msgSender */\n      tag_196\n        /* \"@openzeppelin/contracts/access/AccessControl.sol\":2522:2534  _msgSender() */\n      jump\t// in\n    tag_290:\n        /* \"@openzeppelin/contracts/access/AccessControl.sol\":2505:2515  _checkRole */\n      tag_211\n        /* \"@openzeppelin/contracts/access/AccessControl.sol\":2505:2535  _checkRole(role, _msgSender()) */\n      jump\t// in\n    tag_289:\n        /* \"@openzeppelin/contracts/access/AccessControl.sol\":4880:4906  _revokeRole(role, account) */\n      tag_292\n        /* \"@openzeppelin/contracts/access/AccessControl.sol\":4892:4896  role */\n      dup4\n        /* \"@openzeppelin/contracts/access/AccessControl.sol\":4898:4905  account */\n      dup4\n        /* \"@openzeppelin/contracts/access/AccessControl.sol\":4880:4891  _revokeRole */\n      tag_222\n        /* \"@openzeppelin/contracts/access/AccessControl.sol\":4880:4906  _revokeRole(role, account) */\n      jump\t// in\n    tag_292:\n        /* \"@openzeppelin/contracts/access/AccessControl.sol\":4766:4913  function revokeRole(bytes32 role, address account) public virtual override onlyRole(getRoleAdmin(role)) {... */\n      pop\n      pop\n      pop\n      jump\t// out\n        /* \"@openzeppelin/contracts/token/ERC20/ERC20.sol\":3976:4125  function allowance(address owner, address spender) public view virtual override returns (uint256) {... */\n    tag_172:\n        /* \"@openzeppelin/contracts/token/ERC20/ERC20.sol\":4065:4072  uint256 */\n      0x00\n        /* \"@openzeppelin/contracts/token/ERC20/ERC20.sol\":4091:4102  _allowances */\n      0x01\n        /* \"@openzeppelin/contracts/token/ERC20/ERC20.sol\":4091:4109  _allowances[owner] */\n      0x00\n        /* \"@openzeppelin/contracts/token/ERC20/ERC20.sol\":4103:4108  owner */\n      dup5\n        /* \"@openzeppelin/contracts/token/ERC20/ERC20.sol\":4091:4109  _allowances[owner] */\n      0xffffffffffffffffffffffffffffffffffffffff\n      and\n      0xffffffffffffffffffffffffffffffffffffffff\n      and\n      dup2\n      mstore\n      0x20\n      add\n      swap1\n      dup2\n      mstore\n      0x20\n      add\n      0x00\n      keccak256\n        /* \"@openzeppelin/contracts/token/ERC20/ERC20.sol\":4091:4118  _allowances[owner][spender] */\n      0x00\n        /* \"@openzeppelin/contracts/token/ERC20/ERC20.sol\":4110:4117  spender */\n      dup4\n        /* \"@openzeppelin/contracts/token/ERC20/ERC20.sol\":4091:4118  _allowances[owner][spender] */\n      0xffffffffffffffffffffffffffffffffffffffff\n      and\n      0xffffffffffffffffffffffffffffffffffffffff\n      and\n      dup2\n      mstore\n      0x20\n      add\n      swap1\n      dup2\n      mstore\n      0x20\n      add\n      0x00\n      keccak256\n      sload\n        /* \"@openzeppelin/contracts/token/ERC20/ERC20.sol\":4084:4118  return _allowances[owner][spender] */\n      swap1\n      pop\n        /* \"@openzeppelin/contracts/token/ERC20/ERC20.sol\":3976:4125  function allowance(address owner, address spender) public view virtual override returns (uint256) {... */\n      swap3\n      swap2\n      pop\n      pop\n      jump\t// out\n        /* \"contracts/Token.sol\":1736:1937  function removeClaimable(address _account, uint256 _amount) external {... */\n    tag_177:\n        /* \"contracts/Token.sol\":1823:1857  hasRole(REWARDER_ROLE, msg.sender) */\n      tag_295\n        /* \"contracts/Token.sol\":439:465  keccak256(\"REWARDER_ROLE\") */\n      0xbeec13769b5f410b0584f69811bfd923818456d5edcf426b0e31cf90eed7a3f6\n        /* \"contracts/Token.sol\":1846:1856  msg.sender */\n      caller\n        /* \"contracts/Token.sol\":1823:1830  hasRole */\n      tag_131\n        /* \"contracts/Token.sol\":1823:1857  hasRole(REWARDER_ROLE, msg.sender) */\n      jump\t// in\n    tag_295:\n        /* \"contracts/Token.sol\":1815:1886  require(hasRole(REWARDER_ROLE, msg.sender), \"Caller is not a rewarder\") */\n      tag_296\n      jumpi\n      mload(0x40)\n      0x08c379a000000000000000000000000000000000000000000000000000000000\n      dup2\n      mstore\n      0x04\n      add\n      tag_297\n      swap1\n      tag_255\n      jump\t// in\n    tag_297:\n      mload(0x40)\n      dup1\n      swap2\n      sub\n      swap1\n      revert\n    tag_296:\n        /* \"contracts/Token.sol\":1896:1930  removeUnclaimed(_account, _amount) */\n      tag_298\n        /* \"contracts/Token.sol\":1912:1920  _account */\n      dup3\n        /* \"contracts/Token.sol\":1922:1929  _amount */\n      dup3\n        /* \"contracts/Token.sol\":1896:1911  removeUnclaimed */\n      tag_299\n        /* \"contracts/Token.sol\":1896:1930  removeUnclaimed(_account, _amount) */\n      jump\t// in\n    tag_298:\n        /* \"contracts/Token.sol\":1736:1937  function removeClaimable(address _account, uint256 _amount) external {... */\n      pop\n      pop\n      jump\t// out\n        /* \"contracts/Claim.sol\":1594:1703  function getClaimed(address _account) public view returns (uint256) {... */\n    tag_181:\n        /* \"contracts/Claim.sol\":1653:1660  uint256 */\n      0x00\n        /* \"contracts/Claim.sol\":1679:1686  claimed */\n      0x07\n        /* \"contracts/Claim.sol\":1679:1696  claimed[_account] */\n      0x00\n        /* \"contracts/Claim.sol\":1687:1695  _account */\n      dup4\n        /* \"contracts/Claim.sol\":1679:1696  claimed[_account] */\n      0xffffffffffffffffffffffffffffffffffffffff\n      and\n      0xffffffffffffffffffffffffffffffffffffffff\n      and\n      dup2\n      mstore\n      0x20\n      add\n      swap1\n      dup2\n      mstore\n      0x20\n      add\n      0x00\n      keccak256\n      sload\n        /* \"contracts/Claim.sol\":1672:1696  return claimed[_account] */\n      swap1\n      pop\n        /* \"contracts/Claim.sol\":1594:1703  function getClaimed(address _account) public view returns (uint256) {... */\n      swap2\n      swap1\n      pop\n      jump\t// out\n        /* \"@openzeppelin/contracts/utils/introspection/ERC165.sol\":829:984  function supportsInterface(bytes4 interfaceId) public view virtual override returns (bool) {... */\n    tag_186:\n        /* \"@openzeppelin/contracts/utils/introspection/ERC165.sol\":914:918  bool */\n      0x00\n        /* \"@openzeppelin/contracts/utils/introspection/ERC165.sol\":952:977  type(IERC165).interfaceId */\n      0x01ffc9a700000000000000000000000000000000000000000000000000000000\n        /* \"@openzeppelin/contracts/utils/introspection/ERC165.sol\":937:977  interfaceId == type(IERC165).interfaceId */\n      not(0xffffffffffffffffffffffffffffffffffffffffffffffffffffffff)\n      and\n        /* \"@openzeppelin/contracts/utils/introspection/ERC165.sol\":937:948  interfaceId */\n      dup3\n        /* \"@openzeppelin/contracts/utils/introspection/ERC165.sol\":937:977  interfaceId == type(IERC165).interfaceId */\n      not(0xffffffffffffffffffffffffffffffffffffffffffffffffffffffff)\n      and\n      eq\n        /* \"@openzeppelin/contracts/utils/introspection/ERC165.sol\":930:977  return interfaceId == type(IERC165).interfaceId */\n      swap1\n      pop\n        /* \"@openzeppelin/contracts/utils/introspection/ERC165.sol\":829:984  function supportsInterface(bytes4 interfaceId) public view virtual override returns (bool) {... */\n      swap2\n      swap1\n      pop\n      jump\t// out\n        /* \"@openzeppelin/contracts/utils/Context.sol\":640:736  function _msgSender() internal view virtual returns (address) {... */\n    tag_196:\n        /* \"@openzeppelin/contracts/utils/Context.sol\":693:700  address */\n      0x00\n        /* \"@openzeppelin/contracts/utils/Context.sol\":719:729  msg.sender */\n      caller\n        /* \"@openzeppelin/contracts/utils/Context.sol\":712:729  return msg.sender */\n      swap1\n      pop\n        /* \"@openzeppelin/contracts/utils/Context.sol\":640:736  function _msgSender() internal view virtual returns (address) {... */\n      swap1\n      jump\t// out\n        /* \"@openzeppelin/contracts/token/ERC20/ERC20.sol\":10123:10493  function _approve(... */\n    tag_198:\n        /* \"@openzeppelin/contracts/token/ERC20/ERC20.sol\":10271:10272  0 */\n      0x00\n        /* \"@openzeppelin/contracts/token/ERC20/ERC20.sol\":10254:10273  owner != address(0) */\n      0xffffffffffffffffffffffffffffffffffffffff\n      and\n        /* \"@openzeppelin/contracts/token/ERC20/ERC20.sol\":10254:10259  owner */\n      dup4\n        /* \"@openzeppelin/contracts/token/ERC20/ERC20.sol\":10254:10273  owner != address(0) */\n      0xffffffffffffffffffffffffffffffffffffffff\n      and\n      eq\n      iszero\n        /* \"@openzeppelin/contracts/token/ERC20/ERC20.sol\":10246:10314  require(owner != address(0), \"ERC20: approve from the zero address\") */\n      tag_304\n      jumpi\n      mload(0x40)\n      0x08c379a000000000000000000000000000000000000000000000000000000000\n      dup2\n      mstore\n      0x04\n      add\n      tag_305\n      swap1\n      tag_306\n      jump\t// in\n    tag_305:\n      mload(0x40)\n      dup1\n      swap2\n      sub\n      swap1\n      revert\n    tag_304:\n        /* \"@openzeppelin/contracts/token/ERC20/ERC20.sol\":10351:10352  0 */\n      0x00\n        /* \"@openzeppelin/contracts/token/ERC20/ERC20.sol\":10332:10353  spender != address(0) */\n      0xffffffffffffffffffffffffffffffffffffffff\n      and\n        /* \"@openzeppelin/contracts/token/ERC20/ERC20.sol\":10332:10339  spender */\n      dup3\n        /* \"@openzeppelin/contracts/token/ERC20/ERC20.sol\":10332:10353  spender != address(0) */\n      0xffffffffffffffffffffffffffffffffffffffff\n      and\n      eq\n      iszero\n        /* \"@openzeppelin/contracts/token/ERC20/ERC20.sol\":10324:10392  require(spender != address(0), \"ERC20: approve to the zero address\") */\n      tag_307\n      jumpi\n      mload(0x40)\n      0x08c379a000000000000000000000000000000000000000000000000000000000\n      dup2\n      mstore\n      0x04\n      add\n      tag_308\n      swap1\n      tag_309\n      jump\t// in\n    tag_308:\n      mload(0x40)\n      dup1\n      swap2\n      sub\n      swap1\n      revert\n    tag_307:\n        /* \"@openzeppelin/contracts/token/ERC20/ERC20.sol\":10433:10439  amount */\n      dup1\n        /* \"@openzeppelin/contracts/token/ERC20/ERC20.sol\":10403:10414  _allowances */\n      0x01\n        /* \"@openzeppelin/contracts/token/ERC20/ERC20.sol\":10403:10421  _allowances[owner] */\n      0x00\n        /* \"@openzeppelin/contracts/token/ERC20/ERC20.sol\":10415:10420  owner */\n      dup6\n        /* \"@openzeppelin/contracts/token/ERC20/ERC20.sol\":10403:10421  _allowances[owner] */\n      0xffffffffffffffffffffffffffffffffffffffff\n      and\n      0xffffffffffffffffffffffffffffffffffffffff\n      and\n      dup2\n      mstore\n      0x20\n      add\n      swap1\n      dup2\n      mstore\n      0x20\n      add\n      0x00\n      keccak256\n        /* \"@openzeppelin/contracts/token/ERC20/ERC20.sol\":10403:10430  _allowances[owner][spender] */\n      0x00\n        /* \"@openzeppelin/contracts/token/ERC20/ERC20.sol\":10422:10429  spender */\n      dup5\n        /* \"@openzeppelin/contracts/token/ERC20/ERC20.sol\":10403:10430  _allowances[owner][spender] */\n      0xffffffffffffffffffffffffffffffffffffffff\n      and\n      0xffffffffffffffffffffffffffffffffffffffff\n      and\n      dup2\n      mstore\n      0x20\n      add\n      swap1\n      dup2\n      mstore\n      0x20\n      add\n      0x00\n      keccak256\n        /* \"@openzeppelin/contracts/token/ERC20/ERC20.sol\":10403:10439  _allowances[owner][spender] = amount */\n      dup2\n      swap1\n      sstore\n      pop\n        /* \"@openzeppelin/contracts/token/ERC20/ERC20.sol\":10470:10477  spender */\n      dup2\n        /* \"@openzeppelin/contracts/token/ERC20/ERC20.sol\":10454:10486  Approval(owner, spender, amount) */\n      0xffffffffffffffffffffffffffffffffffffffff\n      and\n        /* \"@openzeppelin/contracts/token/ERC20/ERC20.sol\":10463:10468  owner */\n      dup4\n        /* \"@openzeppelin/contracts/token/ERC20/ERC20.sol\":10454:10486  Approval(owner, spender, amount) */\n      0xffffffffffffffffffffffffffffffffffffffff\n      and\n      0x8c5be1e5ebec7d5bd14f71427d1e84f3dd0314c0f7b2291e5b200ac8c7c3b925\n        /* \"@openzeppelin/contracts/token/ERC20/ERC20.sol\":10479:10485  amount */\n      dup4\n        /* \"@openzeppelin/contracts/token/ERC20/ERC20.sol\":10454:10486  Approval(owner, spender, amount) */\n      mload(0x40)\n      tag_310\n      swap2\n      swap1\n      tag_61\n      jump\t// in\n    tag_310:\n      mload(0x40)\n      dup1\n      swap2\n      sub\n      swap1\n      log3\n        /* \"@openzeppelin/contracts/token/ERC20/ERC20.sol\":10123:10493  function _approve(... */\n      pop\n      pop\n      pop\n      jump\t// out\n        /* \"@openzeppelin/contracts/token/ERC20/ERC20.sol\":10770:11211  function _spendAllowance(... */\n    tag_203:\n        /* \"@openzeppelin/contracts/token/ERC20/ERC20.sol\":10900:10924  uint256 currentAllowance */\n      0x00\n        /* \"@openzeppelin/contracts/token/ERC20/ERC20.sol\":10927:10952  allowance(owner, spender) */\n      tag_312\n        /* \"@openzeppelin/contracts/token/ERC20/ERC20.sol\":10937:10942  owner */\n      dup5\n        /* \"@openzeppelin/contracts/token/ERC20/ERC20.sol\":10944:10951  spender */\n      dup5\n        /* \"@openzeppelin/contracts/token/ERC20/ERC20.sol\":10927:10936  allowance */\n      tag_172\n        /* \"@openzeppelin/contracts/token/ERC20/ERC20.sol\":10927:10952  allowance(owner, spender) */\n      jump\t// in\n    tag_312:\n        /* \"@openzeppelin/contracts/token/ERC20/ERC20.sol\":10900:10952  uint256 currentAllowance = allowance(owner, spender) */\n      swap1\n      pop\n        /* \"@openzeppelin/contracts/token/ERC20/ERC20.sol\":10986:11003  type(uint256).max */\n      0xffffffffffffffffffffffffffffffffffffffffffffffffffffffffffffffff\n        /* \"@openzeppelin/contracts/token/ERC20/ERC20.sol\":10966:10982  currentAllowance */\n      dup2\n        /* \"@openzeppelin/contracts/token/ERC20/ERC20.sol\":10966:11003  currentAllowance != type(uint256).max */\n      eq\n        /* \"@openzeppelin/contracts/token/ERC20/ERC20.sol\":10962:11205  if (currentAllowance != type(uint256).max) {... */\n      tag_313\n      jumpi\n        /* \"@openzeppelin/contracts/token/ERC20/ERC20.sol\":11047:11053  amount */\n      dup2\n        /* \"@openzeppelin/contracts/token/ERC20/ERC20.sol\":11027:11043  currentAllowance */\n      dup2\n        /* \"@openzeppelin/contracts/token/ERC20/ERC20.sol\":11027:11053  currentAllowance >= amount */\n      lt\n      iszero\n        /* \"@openzeppelin/contracts/token/ERC20/ERC20.sol\":11019:11087  require(currentAllowance >= amount, \"ERC20: insufficient allowance\") */\n      tag_314\n      jumpi\n      mload(0x40)\n      0x08c379a000000000000000000000000000000000000000000000000000000000\n      dup2\n      mstore\n      0x04\n      add\n      tag_315\n      swap1\n      tag_316\n      jump\t// in\n    tag_315:\n      mload(0x40)\n      dup1\n      swap2\n      sub\n      swap1\n      revert\n    tag_314:\n        /* \"@openzeppelin/contracts/token/ERC20/ERC20.sol\":11129:11180  _approve(owner, spender, currentAllowance - amount) */\n      tag_317\n        /* \"@openzeppelin/contracts/token/ERC20/ERC20.sol\":11138:11143  owner */\n      dup5\n        /* \"@openzeppelin/contracts/token/ERC20/ERC20.sol\":11145:11152  spender */\n      dup5\n        /* \"@openzeppelin/contracts/token/ERC20/ERC20.sol\":11173:11179  amount */\n      dup5\n        /* \"@openzeppelin/contracts/token/ERC20/ERC20.sol\":11154:11170  currentAllowance */\n      dup5\n        /* \"@openzeppelin/contracts/token/ERC20/ERC20.sol\":11154:11179  currentAllowance - amount */\n      sub\n        /* \"@openzeppelin/contracts/token/ERC20/ERC20.sol\":11129:11137  _approve */\n      tag_198\n        /* \"@openzeppelin/contracts/token/ERC20/ERC20.sol\":11129:11180  _approve(owner, spender, currentAllowance - amount) */\n      jump\t// in\n    tag_317:\n        /* \"@openzeppelin/contracts/token/ERC20/ERC20.sol\":10962:11205  if (currentAllowance != type(uint256).max) {... */\n    tag_313:\n        /* \"@openzeppelin/contracts/token/ERC20/ERC20.sol\":10890:11211  {... */\n      pop\n        /* \"@openzeppelin/contracts/token/ERC20/ERC20.sol\":10770:11211  function _spendAllowance(... */\n      pop\n      pop\n      pop\n      jump\t// out\n        /* \"@openzeppelin/contracts/token/ERC20/ERC20.sol\":7488:8139  function _transfer(... */\n    tag_205:\n        /* \"@openzeppelin/contracts/token/ERC20/ERC20.sol\":7630:7631  0 */\n      0x00\n        /* \"@openzeppelin/contracts/token/ERC20/ERC20.sol\":7614:7632  from != address(0) */\n      0xffffffffffffffffffffffffffffffffffffffff\n      and\n        /* \"@openzeppelin/contracts/token/ERC20/ERC20.sol\":7614:7618  from */\n      dup4\n        /* \"@openzeppelin/contracts/token/ERC20/ERC20.sol\":7614:7632  from != address(0) */\n      0xffffffffffffffffffffffffffffffffffffffff\n      and\n      eq\n      iszero\n        /* \"@openzeppelin/contracts/token/ERC20/ERC20.sol\":7606:7674  require(from != address(0), \"ERC20: transfer from the zero address\") */\n      tag_319\n      jumpi\n      mload(0x40)\n      0x08c379a000000000000000000000000000000000000000000000000000000000\n      dup2\n      mstore\n      0x04\n      add\n      tag_320\n      swap1\n      tag_321\n      jump\t// in\n    tag_320:\n      mload(0x40)\n      dup1\n      swap2\n      sub\n      swap1\n      revert\n    tag_319:\n        /* \"@openzeppelin/contracts/token/ERC20/ERC20.sol\":7706:7707  0 */\n      0x00\n        /* \"@openzeppelin/contracts/token/ERC20/ERC20.sol\":7692:7708  to != address(0) */\n      0xffffffffffffffffffffffffffffffffffffffff\n      and\n        /* \"@openzeppelin/contracts/token/ERC20/ERC20.sol\":7692:7694  to */\n      dup3\n        /* \"@openzeppelin/contracts/token/ERC20/ERC20.sol\":7692:7708  to != address(0) */\n      0xffffffffffffffffffffffffffffffffffffffff\n      and\n      eq\n      iszero\n        /* \"@openzeppelin/contracts/token/ERC20/ERC20.sol\":7684:7748  require(to != address(0), \"ERC20: transfer to the zero address\") */\n      tag_322\n      jumpi\n      mload(0x40)\n      0x08c379a000000000000000000000000000000000000000000000000000000000\n      dup2\n      mstore\n      0x04\n      add\n      tag_323\n      swap1\n      tag_324\n      jump\t// in\n    tag_323:\n      mload(0x40)\n      dup1\n      swap2\n      sub\n      swap1\n      revert\n    tag_322:\n        /* \"@openzeppelin/contracts/token/ERC20/ERC20.sol\":7759:7797  _beforeTokenTransfer(from, to, amount) */\n      tag_325\n        /* \"@openzeppelin/contracts/token/ERC20/ERC20.sol\":7780:7784  from */\n      dup4\n        /* \"@openzeppelin/contracts/token/ERC20/ERC20.sol\":7786:7788  to */\n      dup4\n        /* \"@openzeppelin/contracts/token/ERC20/ERC20.sol\":7790:7796  amount */\n      dup4\n        /* \"@openzeppelin/contracts/token/ERC20/ERC20.sol\":7759:7779  _beforeTokenTransfer */\n      tag_326\n        /* \"@openzeppelin/contracts/token/ERC20/ERC20.sol\":7759:7797  _beforeTokenTransfer(from, to, amount) */\n      jump\t// in\n    tag_325:\n        /* \"@openzeppelin/contracts/token/ERC20/ERC20.sol\":7808:7827  uint256 fromBalance */\n      0x00\n        /* \"@openzeppelin/contracts/token/ERC20/ERC20.sol\":7830:7839  _balances */\n      dup1\n        /* \"@openzeppelin/contracts/token/ERC20/ERC20.sol\":7830:7845  _balances[from] */\n      0x00\n        /* \"@openzeppelin/contracts/token/ERC20/ERC20.sol\":7840:7844  from */\n      dup6\n        /* \"@openzeppelin/contracts/token/ERC20/ERC20.sol\":7830:7845  _balances[from] */\n      0xffffffffffffffffffffffffffffffffffffffff\n      and\n      0xffffffffffffffffffffffffffffffffffffffff\n      and\n      dup2\n      mstore\n      0x20\n      add\n      swap1\n      dup2\n      mstore\n      0x20\n      add\n      0x00\n      keccak256\n      sload\n        /* \"@openzeppelin/contracts/token/ERC20/ERC20.sol\":7808:7845  uint256 fromBalance = _balances[from] */\n      swap1\n      pop\n        /* \"@openzeppelin/contracts/token/ERC20/ERC20.sol\":7878:7884  amount */\n      dup2\n        /* \"@openzeppelin/contracts/token/ERC20/ERC20.sol\":7863:7874  fromBalance */\n      dup2\n        /* \"@openzeppelin/contracts/token/ERC20/ERC20.sol\":7863:7884  fromBalance >= amount */\n      lt\n      iszero\n        /* \"@openzeppelin/contracts/token/ERC20/ERC20.sol\":7855:7927  require(fromBalance >= amount, \"ERC20: transfer amount exceeds balance\") */\n      tag_327\n      jumpi\n      mload(0x40)\n      0x08c379a000000000000000000000000000000000000000000000000000000000\n      dup2\n      mstore\n      0x04\n      add\n      tag_328\n      swap1\n      tag_329\n      jump\t// in\n    tag_328:\n      mload(0x40)\n      dup1\n      swap2\n      sub\n      swap1\n      revert\n    tag_327:\n        /* \"@openzeppelin/contracts/token/ERC20/ERC20.sol\":7993:7999  amount */\n      dup2\n        /* \"@openzeppelin/contracts/token/ERC20/ERC20.sol\":7979:7990  fromBalance */\n      dup2\n        /* \"@openzeppelin/contracts/token/ERC20/ERC20.sol\":7979:7999  fromBalance - amount */\n      sub\n        /* \"@openzeppelin/contracts/token/ERC20/ERC20.sol\":7961:7970  _balances */\n      0x00\n        /* \"@openzeppelin/contracts/token/ERC20/ERC20.sol\":7961:7976  _balances[from] */\n      dup1\n        /* \"@openzeppelin/contracts/token/ERC20/ERC20.sol\":7971:7975  from */\n      dup7\n        /* \"@openzeppelin/contracts/token/ERC20/ERC20.sol\":7961:7976  _balances[from] */\n      0xffffffffffffffffffffffffffffffffffffffff\n      and\n      0xffffffffffffffffffffffffffffffffffffffff\n      and\n      dup2\n      mstore\n      0x20\n      add\n      swap1\n      dup2\n      mstore\n      0x20\n      add\n      0x00\n      keccak256\n        /* \"@openzeppelin/contracts/token/ERC20/ERC20.sol\":7961:7999  _balances[from] = fromBalance - amount */\n      dup2\n      swap1\n      sstore\n      pop\n        /* \"@openzeppelin/contracts/token/ERC20/ERC20.sol\":8036:8042  amount */\n      dup2\n        /* \"@openzeppelin/contracts/token/ERC20/ERC20.sol\":8019:8028  _balances */\n      0x00\n        /* \"@openzeppelin/contracts/token/ERC20/ERC20.sol\":8019:8032  _balances[to] */\n      dup1\n        /* \"@openzeppelin/contracts/token/ERC20/ERC20.sol\":8029:8031  to */\n      dup6\n        /* \"@openzeppelin/contracts/token/ERC20/ERC20.sol\":8019:8032  _balances[to] */\n      0xffffffffffffffffffffffffffffffffffffffff\n      and\n      0xffffffffffffffffffffffffffffffffffffffff\n      and\n      dup2\n      mstore\n      0x20\n      add\n      swap1\n      dup2\n      mstore\n      0x20\n      add\n      0x00\n      keccak256\n      0x00\n        /* \"@openzeppelin/contracts/token/ERC20/ERC20.sol\":8019:8042  _balances[to] += amount */\n      dup3\n      dup3\n      sload\n      tag_330\n      swap2\n      swap1\n      tag_227\n      jump\t// in\n    tag_330:\n      swap3\n      pop\n      pop\n      dup2\n      swap1\n      sstore\n      pop\n        /* \"@openzeppelin/contracts/token/ERC20/ERC20.sol\":8073:8075  to */\n      dup3\n        /* \"@openzeppelin/contracts/token/ERC20/ERC20.sol\":8058:8084  Transfer(from, to, amount) */\n      0xffffffffffffffffffffffffffffffffffffffff\n      and\n        /* \"@openzeppelin/contracts/token/ERC20/ERC20.sol\":8067:8071  from */\n      dup5\n        /* \"@openzeppelin/contracts/token/ERC20/ERC20.sol\":8058:8084  Transfer(from, to, amount) */\n      0xffffffffffffffffffffffffffffffffffffffff\n      and\n      0xddf252ad1be2c89b69c2b068fc378daa952ba7f163c4a11628f55a4df523b3ef\n        /* \"@openzeppelin/contracts/token/ERC20/ERC20.sol\":8077:8083  amount */\n      dup5\n        /* \"@openzeppelin/contracts/token/ERC20/ERC20.sol\":8058:8084  Transfer(from, to, amount) */\n      mload(0x40)\n      tag_331\n      swap2\n      swap1\n      tag_61\n      jump\t// in\n    tag_331:\n      mload(0x40)\n      dup1\n      swap2\n      sub\n      swap1\n      log3\n        /* \"@openzeppelin/contracts/token/ERC20/ERC20.sol\":8095:8132  _afterTokenTransfer(from, to, amount) */\n      tag_332\n        /* \"@openzeppelin/contracts/token/ERC20/ERC20.sol\":8115:8119  from */\n      dup5\n        /* \"@openzeppelin/contracts/token/ERC20/ERC20.sol\":8121:8123  to */\n      dup5\n        /* \"@openzeppelin/contracts/token/ERC20/ERC20.sol\":8125:8131  amount */\n      dup5\n        /* \"@openzeppelin/contracts/token/ERC20/ERC20.sol\":8095:8114  _afterTokenTransfer */\n      tag_333\n        /* \"@openzeppelin/contracts/token/ERC20/ERC20.sol\":8095:8132  _afterTokenTransfer(from, to, amount) */\n      jump\t// in\n    tag_332:\n        /* \"@openzeppelin/contracts/token/ERC20/ERC20.sol\":7596:8139  {... */\n      pop\n        /* \"@openzeppelin/contracts/token/ERC20/ERC20.sol\":7488:8139  function _transfer(... */\n      pop\n      pop\n      pop\n      jump\t// out\n        /* \"@openzeppelin/contracts/access/AccessControl.sol\":3335:3827  function _checkRole(bytes32 role, address account) internal view virtual {... */\n    tag_211:\n        /* \"@openzeppelin/contracts/access/AccessControl.sol\":3423:3445  hasRole(role, account) */\n      tag_335\n        /* \"@openzeppelin/contracts/access/AccessControl.sol\":3431:3435  role */\n      dup3\n        /* \"@openzeppelin/contracts/access/AccessControl.sol\":3437:3444  account */\n      dup3\n        /* \"@openzeppelin/contracts/access/AccessControl.sol\":3423:3430  hasRole */\n      tag_131\n        /* \"@openzeppelin/contracts/access/AccessControl.sol\":3423:3445  hasRole(role, account) */\n      jump\t// in\n    tag_335:\n        /* \"@openzeppelin/contracts/access/AccessControl.sol\":3418:3821  if (!hasRole(role, account)) {... */\n      tag_336\n      jumpi\n        /* \"@openzeppelin/contracts/access/AccessControl.sol\":3606:3647  Strings.toHexString(uint160(account), 20) */\n      tag_337\n        /* \"@openzeppelin/contracts/access/AccessControl.sol\":3634:3641  account */\n      dup2\n        /* \"@openzeppelin/contracts/access/AccessControl.sol\":3606:3647  Strings.toHexString(uint160(account), 20) */\n      0xffffffffffffffffffffffffffffffffffffffff\n      and\n        /* \"@openzeppelin/contracts/access/AccessControl.sol\":3644:3646  20 */\n      0x14\n        /* \"@openzeppelin/contracts/access/AccessControl.sol\":3606:3625  Strings.toHexString */\n      tag_338\n        /* \"@openzeppelin/contracts/access/AccessControl.sol\":3606:3647  Strings.toHexString(uint160(account), 20) */\n      jump\t// in\n    tag_337:\n        /* \"@openzeppelin/contracts/access/AccessControl.sol\":3718:3756  Strings.toHexString(uint256(role), 32) */\n      tag_339\n        /* \"@openzeppelin/contracts/access/AccessControl.sol\":3746:3750  role */\n      dup4\n        /* \"@openzeppelin/contracts/access/AccessControl.sol\":3738:3751  uint256(role) */\n      0x00\n      shr\n        /* \"@openzeppelin/contracts/access/AccessControl.sol\":3753:3755  32 */\n      0x20\n        /* \"@openzeppelin/contracts/access/AccessControl.sol\":3718:3737  Strings.toHexString */\n      tag_338\n        /* \"@openzeppelin/contracts/access/AccessControl.sol\":3718:3756  Strings.toHexString(uint256(role), 32) */\n      jump\t// in\n    tag_339:\n        /* \"@openzeppelin/contracts/access/AccessControl.sol\":3513:3778  abi.encodePacked(... */\n      add(0x20, mload(0x40))\n      tag_340\n      swap3\n      swap2\n      swap1\n      tag_341\n      jump\t// in\n    tag_340:\n      mload(0x40)\n      0x20\n      dup2\n      dup4\n      sub\n      sub\n      dup2\n      mstore\n      swap1\n      0x40\n      mstore\n        /* \"@openzeppelin/contracts/access/AccessControl.sol\":3461:3810  revert(... */\n      mload(0x40)\n      0x08c379a000000000000000000000000000000000000000000000000000000000\n      dup2\n      mstore\n      0x04\n      add\n      tag_342\n      swap2\n      swap1\n      tag_50\n      jump\t// in\n    tag_342:\n      mload(0x40)\n      dup1\n      swap2\n      sub\n      swap1\n      revert\n        /* \"@openzeppelin/contracts/access/AccessControl.sol\":3418:3821  if (!hasRole(role, account)) {... */\n    tag_336:\n        /* \"@openzeppelin/contracts/access/AccessControl.sol\":3335:3827  function _checkRole(bytes32 role, address account) internal view virtual {... */\n      pop\n      pop\n      jump\t// out\n        /* \"@openzeppelin/contracts/access/AccessControl.sol\":6861:7094  function _grantRole(bytes32 role, address account) internal virtual {... */\n    tag_214:\n        /* \"@openzeppelin/contracts/access/AccessControl.sol\":6944:6966  hasRole(role, account) */\n      tag_344\n        /* \"@openzeppelin/contracts/access/AccessControl.sol\":6952:6956  role */\n      dup3\n        /* \"@openzeppelin/contracts/access/AccessControl.sol\":6958:6965  account */\n      dup3\n        /* \"@openzeppelin/contracts/access/AccessControl.sol\":6944:6951  hasRole */\n      tag_131\n        /* \"@openzeppelin/contracts/access/AccessControl.sol\":6944:6966  hasRole(role, account) */\n      jump\t// in\n    tag_344:\n        /* \"@openzeppelin/contracts/access/AccessControl.sol\":6939:7088  if (!hasRole(role, account)) {... */\n      tag_345\n      jumpi\n        /* \"@openzeppelin/contracts/access/AccessControl.sol\":7014:7018  true */\n      0x01\n        /* \"@openzeppelin/contracts/access/AccessControl.sol\":6982:6988  _roles */\n      0x05\n        /* \"@openzeppelin/contracts/access/AccessControl.sol\":6982:6994  _roles[role] */\n      0x00\n        /* \"@openzeppelin/contracts/access/AccessControl.sol\":6989:6993  role */\n      dup5\n        /* \"@openzeppelin/contracts/access/AccessControl.sol\":6982:6994  _roles[role] */\n      dup2\n      mstore\n      0x20\n      add\n      swap1\n      dup2\n      mstore\n      0x20\n      add\n      0x00\n      keccak256\n        /* \"@openzeppelin/contracts/access/AccessControl.sol\":6982:7002  _roles[role].members */\n      0x00\n      add\n        /* \"@openzeppelin/contracts/access/AccessControl.sol\":6982:7011  _roles[role].members[account] */\n      0x00\n        /* \"@openzeppelin/contracts/access/AccessControl.sol\":7003:7010  account */\n      dup4\n        /* \"@openzeppelin/contracts/access/AccessControl.sol\":6982:7011  _roles[role].members[account] */\n      0xffffffffffffffffffffffffffffffffffffffff\n      and\n      0xffffffffffffffffffffffffffffffffffffffff\n      and\n      dup2\n      mstore\n      0x20\n      add\n      swap1\n      dup2\n      mstore\n      0x20\n      add\n      0x00\n      keccak256\n      0x00\n        /* \"@openzeppelin/contracts/access/AccessControl.sol\":6982:7018  _roles[role].members[account] = true */\n      0x0100\n      exp\n      dup2\n      sload\n      dup2\n      0xff\n      mul\n      not\n      and\n      swap1\n      dup4\n      iszero\n      iszero\n      mul\n      or\n      swap1\n      sstore\n      pop\n        /* \"@openzeppelin/contracts/access/AccessControl.sol\":7064:7076  _msgSender() */\n      tag_346\n        /* \"@openzeppelin/contracts/access/AccessControl.sol\":7064:7074  _msgSender */\n      tag_196\n        /* \"@openzeppelin/contracts/access/AccessControl.sol\":7064:7076  _msgSender() */\n      jump\t// in\n    tag_346:\n        /* \"@openzeppelin/contracts/access/AccessControl.sol\":7037:7077  RoleGranted(role, account, _msgSender()) */\n      0xffffffffffffffffffffffffffffffffffffffff\n      and\n        /* \"@openzeppelin/contracts/access/AccessControl.sol\":7055:7062  account */\n      dup2\n        /* \"@openzeppelin/contracts/access/AccessControl.sol\":7037:7077  RoleGranted(role, account, _msgSender()) */\n      0xffffffffffffffffffffffffffffffffffffffff\n      and\n        /* \"@openzeppelin/contracts/access/AccessControl.sol\":7049:7053  role */\n      dup4\n        /* \"@openzeppelin/contracts/access/AccessControl.sol\":7037:7077  RoleGranted(role, account, _msgSender()) */\n      0x2f8788117e7eff1d82e926ec794901d17c78024a50270940304540a733656f0d\n      mload(0x40)\n      mload(0x40)\n      dup1\n      swap2\n      sub\n      swap1\n      log4\n        /* \"@openzeppelin/contracts/access/AccessControl.sol\":6939:7088  if (!hasRole(role, account)) {... */\n    tag_345:\n        /* \"@openzeppelin/contracts/access/AccessControl.sol\":6861:7094  function _grantRole(bytes32 role, address account) internal virtual {... */\n      pop\n      pop\n      jump\t// out\n        /* \"@openzeppelin/contracts/access/AccessControl.sol\":7219:7453  function _revokeRole(bytes32 role, address account) internal virtual {... */\n    tag_222:\n        /* \"@openzeppelin/contracts/access/AccessControl.sol\":7302:7324  hasRole(role, account) */\n      tag_348\n        /* \"@openzeppelin/contracts/access/AccessControl.sol\":7310:7314  role */\n      dup3\n        /* \"@openzeppelin/contracts/access/AccessControl.sol\":7316:7323  account */\n      dup3\n        /* \"@openzeppelin/contracts/access/AccessControl.sol\":7302:7309  hasRole */\n      tag_131\n        /* \"@openzeppelin/contracts/access/AccessControl.sol\":7302:7324  hasRole(role, account) */\n      jump\t// in\n    tag_348:\n        /* \"@openzeppelin/contracts/access/AccessControl.sol\":7298:7447  if (hasRole(role, account)) {... */\n      iszero\n      tag_349\n      jumpi\n        /* \"@openzeppelin/contracts/access/AccessControl.sol\":7372:7377  false */\n      0x00\n        /* \"@openzeppelin/contracts/access/AccessControl.sol\":7340:7346  _roles */\n      0x05\n        /* \"@openzeppelin/contracts/access/AccessControl.sol\":7340:7352  _roles[role] */\n      0x00\n        /* \"@openzeppelin/contracts/access/AccessControl.sol\":7347:7351  role */\n      dup5\n        /* \"@openzeppelin/contracts/access/AccessControl.sol\":7340:7352  _roles[role] */\n      dup2\n      mstore\n      0x20\n      add\n      swap1\n      dup2\n      mstore\n      0x20\n      add\n      0x00\n      keccak256\n        /* \"@openzeppelin/contracts/access/AccessControl.sol\":7340:7360  _roles[role].members */\n      0x00\n      add\n        /* \"@openzeppelin/contracts/access/AccessControl.sol\":7340:7369  _roles[role].members[account] */\n      0x00\n        /* \"@openzeppelin/contracts/access/AccessControl.sol\":7361:7368  account */\n      dup4\n        /* \"@openzeppelin/contracts/access/AccessControl.sol\":7340:7369  _roles[role].members[account] */\n      0xffffffffffffffffffffffffffffffffffffffff\n      and\n      0xffffffffffffffffffffffffffffffffffffffff\n      and\n      dup2\n      mstore\n      0x20\n      add\n      swap1\n      dup2\n      mstore\n      0x20\n      add\n      0x00\n      keccak256\n      0x00\n        /* \"@openzeppelin/contracts/access/AccessControl.sol\":7340:7377  _roles[role].members[account] = false */\n      0x0100\n      exp\n      dup2\n      sload\n      dup2\n      0xff\n      mul\n      not\n      and\n      swap1\n      dup4\n      iszero\n      iszero\n      mul\n      or\n      swap1\n      sstore\n      pop\n        /* \"@openzeppelin/contracts/access/AccessControl.sol\":7423:7435  _msgSender() */\n      tag_350\n        /* \"@openzeppelin/contracts/access/AccessControl.sol\":7423:7433  _msgSender */\n      tag_196\n        /* \"@openzeppelin/contracts/access/AccessControl.sol\":7423:7435  _msgSender() */\n      jump\t// in\n    tag_350:\n        /* \"@openzeppelin/contracts/access/AccessControl.sol\":7396:7436  RoleRevoked(role, account, _msgSender()) */\n      0xffffffffffffffffffffffffffffffffffffffff\n      and\n        /* \"@openzeppelin/contracts/access/AccessControl.sol\":7414:7421  account */\n      dup2\n        /* \"@openzeppelin/contracts/access/AccessControl.sol\":7396:7436  RoleRevoked(role, account, _msgSender()) */\n      0xffffffffffffffffffffffffffffffffffffffff\n      and\n        /* \"@openzeppelin/contracts/access/AccessControl.sol\":7408:7412  role */\n      dup4\n        /* \"@openzeppelin/contracts/access/AccessControl.sol\":7396:7436  RoleRevoked(role, account, _msgSender()) */\n      0xf6391f5c32d9c69d2a47ea670b442974b53935d1edc7fd64eb21e047a839171b\n      mload(0x40)\n      mload(0x40)\n      dup1\n      swap2\n      sub\n      swap1\n      log4\n        /* \"@openzeppelin/contracts/access/AccessControl.sol\":7298:7447  if (hasRole(role, account)) {... */\n    tag_349:\n        /* \"@openzeppelin/contracts/access/AccessControl.sol\":7219:7453  function _revokeRole(bytes32 role, address account) internal virtual {... */\n      pop\n      pop\n      jump\t// out\n        /* \"@openzeppelin/contracts/token/ERC20/ERC20.sol\":8415:8804  function _mint(address account, uint256 amount) internal virtual {... */\n    tag_235:\n        /* \"@openzeppelin/contracts/token/ERC20/ERC20.sol\":8517:8518  0 */\n      0x00\n        /* \"@openzeppelin/contracts/token/ERC20/ERC20.sol\":8498:8519  account != address(0) */\n      0xffffffffffffffffffffffffffffffffffffffff\n      and\n        /* \"@openzeppelin/contracts/token/ERC20/ERC20.sol\":8498:8505  account */\n      dup3\n        /* \"@openzeppelin/contracts/token/ERC20/ERC20.sol\":8498:8519  account != address(0) */\n      0xffffffffffffffffffffffffffffffffffffffff\n      and\n      eq\n      iszero\n        /* \"@openzeppelin/contracts/token/ERC20/ERC20.sol\":8490:8555  require(account != address(0), \"ERC20: mint to the zero address\") */\n      tag_352\n      jumpi\n      mload(0x40)\n      0x08c379a000000000000000000000000000000000000000000000000000000000\n      dup2\n      mstore\n      0x04\n      add\n      tag_353\n      swap1\n      tag_354\n      jump\t// in\n    tag_353:\n      mload(0x40)\n      dup1\n      swap2\n      sub\n      swap1\n      revert\n    tag_352:\n        /* \"@openzeppelin/contracts/token/ERC20/ERC20.sol\":8566:8615  _beforeTokenTransfer(address(0), account, amount) */\n      tag_355\n        /* \"@openzeppelin/contracts/token/ERC20/ERC20.sol\":8595:8596  0 */\n      0x00\n        /* \"@openzeppelin/contracts/token/ERC20/ERC20.sol\":8599:8606  account */\n      dup4\n        /* \"@openzeppelin/contracts/token/ERC20/ERC20.sol\":8608:8614  amount */\n      dup4\n        /* \"@openzeppelin/contracts/token/ERC20/ERC20.sol\":8566:8586  _beforeTokenTransfer */\n      tag_326\n        /* \"@openzeppelin/contracts/token/ERC20/ERC20.sol\":8566:8615  _beforeTokenTransfer(address(0), account, amount) */\n      jump\t// in\n    tag_355:\n        /* \"@openzeppelin/contracts/token/ERC20/ERC20.sol\":8642:8648  amount */\n      dup1\n        /* \"@openzeppelin/contracts/token/ERC20/ERC20.sol\":8626:8638  _totalSupply */\n      0x02\n      0x00\n        /* \"@openzeppelin/contracts/token/ERC20/ERC20.sol\":8626:8648  _totalSupply += amount */\n      dup3\n      dup3\n      sload\n      tag_356\n      swap2\n      swap1\n      tag_227\n      jump\t// in\n    tag_356:\n      swap3\n      pop\n      pop\n      dup2\n      swap1\n      sstore\n      pop\n        /* \"@openzeppelin/contracts/token/ERC20/ERC20.sol\":8680:8686  amount */\n      dup1\n        /* \"@openzeppelin/contracts/token/ERC20/ERC20.sol\":8658:8667  _balances */\n      0x00\n        /* \"@openzeppelin/contracts/token/ERC20/ERC20.sol\":8658:8676  _balances[account] */\n      dup1\n        /* \"@openzeppelin/contracts/token/ERC20/ERC20.sol\":8668:8675  account */\n      dup5\n        /* \"@openzeppelin/contracts/token/ERC20/ERC20.sol\":8658:8676  _balances[account] */\n      0xffffffffffffffffffffffffffffffffffffffff\n      and\n      0xffffffffffffffffffffffffffffffffffffffff\n      and\n      dup2\n      mstore\n      0x20\n      add\n      swap1\n      dup2\n      mstore\n      0x20\n      add\n      0x00\n      keccak256\n      0x00\n        /* \"@openzeppelin/contracts/token/ERC20/ERC20.sol\":8658:8686  _balances[account] += amount */\n      dup3\n      dup3\n      sload\n      tag_357\n      swap2\n      swap1\n      tag_227\n      jump\t// in\n    tag_357:\n      swap3\n      pop\n      pop\n      dup2\n      swap1\n      sstore\n      pop\n        /* \"@openzeppelin/contracts/token/ERC20/ERC20.sol\":8722:8729  account */\n      dup2\n        /* \"@openzeppelin/contracts/token/ERC20/ERC20.sol\":8701:8738  Transfer(address(0), account, amount) */\n      0xffffffffffffffffffffffffffffffffffffffff\n      and\n        /* \"@openzeppelin/contracts/token/ERC20/ERC20.sol\":8718:8719  0 */\n      0x00\n        /* \"@openzeppelin/contracts/token/ERC20/ERC20.sol\":8701:8738  Transfer(address(0), account, amount) */\n      0xffffffffffffffffffffffffffffffffffffffff\n      and\n      0xddf252ad1be2c89b69c2b068fc378daa952ba7f163c4a11628f55a4df523b3ef\n        /* \"@openzeppelin/contracts/token/ERC20/ERC20.sol\":8731:8737  amount */\n      dup4\n        /* \"@openzeppelin/contracts/token/ERC20/ERC20.sol\":8701:8738  Transfer(address(0), account, amount) */\n      mload(0x40)\n      tag_358\n      swap2\n      swap1\n      tag_61\n      jump\t// in\n    tag_358:\n      mload(0x40)\n      dup1\n      swap2\n      sub\n      swap1\n      log3\n        /* \"@openzeppelin/contracts/token/ERC20/ERC20.sol\":8749:8797  _afterTokenTransfer(address(0), account, amount) */\n      tag_359\n        /* \"@openzeppelin/contracts/token/ERC20/ERC20.sol\":8777:8778  0 */\n      0x00\n        /* \"@openzeppelin/contracts/token/ERC20/ERC20.sol\":8781:8788  account */\n      dup4\n        /* \"@openzeppelin/contracts/token/ERC20/ERC20.sol\":8790:8796  amount */\n      dup4\n        /* \"@openzeppelin/contracts/token/ERC20/ERC20.sol\":8749:8768  _afterTokenTransfer */\n      tag_333\n        /* \"@openzeppelin/contracts/token/ERC20/ERC20.sol\":8749:8797  _afterTokenTransfer(address(0), account, amount) */\n      jump\t// in\n    tag_359:\n        /* \"@openzeppelin/contracts/token/ERC20/ERC20.sol\":8415:8804  function _mint(address account, uint256 amount) internal virtual {... */\n      pop\n      pop\n      jump\t// out\n        /* \"contracts/Claim.sol\":429:536  function addUnclaimed(address _account, uint256 _amt) internal {... */\n    tag_263:\n        /* \"contracts/Claim.sol\":525:529  _amt */\n      dup1\n        /* \"contracts/Claim.sol\":502:511  unclaimed */\n      0x06\n        /* \"contracts/Claim.sol\":502:521  unclaimed[_account] */\n      0x00\n        /* \"contracts/Claim.sol\":512:520  _account */\n      dup5\n        /* \"contracts/Claim.sol\":502:521  unclaimed[_account] */\n      0xffffffffffffffffffffffffffffffffffffffff\n      and\n      0xffffffffffffffffffffffffffffffffffffffff\n      and\n      dup2\n      mstore\n      0x20\n      add\n      swap1\n      dup2\n      mstore\n      0x20\n      add\n      0x00\n      keccak256\n      0x00\n        /* \"contracts/Claim.sol\":502:529  unclaimed[_account] += _amt */\n      dup3\n      dup3\n      sload\n      tag_361\n      swap2\n      swap1\n      tag_227\n      jump\t// in\n    tag_361:\n      swap3\n      pop\n      pop\n      dup2\n      swap1\n      sstore\n      pop\n        /* \"contracts/Claim.sol\":429:536  function addUnclaimed(address _account, uint256 _amt) internal {... */\n      pop\n      pop\n      jump\t// out\n        /* \"@openzeppelin/contracts/token/ERC20/ERC20.sol\":9124:9700  function _burn(address account, uint256 amount) internal virtual {... */\n    tag_277:\n        /* \"@openzeppelin/contracts/token/ERC20/ERC20.sol\":9226:9227  0 */\n      0x00\n        /* \"@openzeppelin/contracts/token/ERC20/ERC20.sol\":9207:9228  account != address(0) */\n      0xffffffffffffffffffffffffffffffffffffffff\n      and\n        /* \"@openzeppelin/contracts/token/ERC20/ERC20.sol\":9207:9214  account */\n      dup3\n        /* \"@openzeppelin/contracts/token/ERC20/ERC20.sol\":9207:9228  account != address(0) */\n      0xffffffffffffffffffffffffffffffffffffffff\n      and\n      eq\n      iszero\n        /* \"@openzeppelin/contracts/token/ERC20/ERC20.sol\":9199:9266  require(account != address(0), \"ERC20: burn from the zero address\") */\n      tag_363\n      jumpi\n      mload(0x40)\n      0x08c379a000000000000000000000000000000000000000000000000000000000\n      dup2\n      mstore\n      0x04\n      add\n      tag_364\n      swap1\n      tag_365\n      jump\t// in\n    tag_364:\n      mload(0x40)\n      dup1\n      swap2\n      sub\n      swap1\n      revert\n    tag_363:\n        /* \"@openzeppelin/contracts/token/ERC20/ERC20.sol\":9277:9326  _beforeTokenTransfer(account, address(0), amount) */\n      tag_366\n        /* \"@openzeppelin/contracts/token/ERC20/ERC20.sol\":9298:9305  account */\n      dup3\n        /* \"@openzeppelin/contracts/token/ERC20/ERC20.sol\":9315:9316  0 */\n      0x00\n        /* \"@openzeppelin/contracts/token/ERC20/ERC20.sol\":9319:9325  amount */\n      dup4\n        /* \"@openzeppelin/contracts/token/ERC20/ERC20.sol\":9277:9297  _beforeTokenTransfer */\n      tag_326\n        /* \"@openzeppelin/contracts/token/ERC20/ERC20.sol\":9277:9326  _beforeTokenTransfer(account, address(0), amount) */\n      jump\t// in\n    tag_366:\n        /* \"@openzeppelin/contracts/token/ERC20/ERC20.sol\":9337:9359  uint256 accountBalance */\n      0x00\n        /* \"@openzeppelin/contracts/token/ERC20/ERC20.sol\":9362:9371  _balances */\n      dup1\n        /* \"@openzeppelin/contracts/token/ERC20/ERC20.sol\":9362:9380  _balances[account] */\n      0x00\n        /* \"@openzeppelin/contracts/token/ERC20/ERC20.sol\":9372:9379  account */\n      dup5\n        /* \"@openzeppelin/contracts/token/ERC20/ERC20.sol\":9362:9380  _balances[account] */\n      0xffffffffffffffffffffffffffffffffffffffff\n      and\n      0xffffffffffffffffffffffffffffffffffffffff\n      and\n      dup2\n      mstore\n      0x20\n      add\n      swap1\n      dup2\n      mstore\n      0x20\n      add\n      0x00\n      keccak256\n      sload\n        /* \"@openzeppelin/contracts/token/ERC20/ERC20.sol\":9337:9380  uint256 accountBalance = _balances[account] */\n      swap1\n      pop\n        /* \"@openzeppelin/contracts/token/ERC20/ERC20.sol\":9416:9422  amount */\n      dup2\n        /* \"@openzeppelin/contracts/token/ERC20/ERC20.sol\":9398:9412  accountBalance */\n      dup2\n        /* \"@openzeppelin/contracts/token/ERC20/ERC20.sol\":9398:9422  accountBalance >= amount */\n      lt\n      iszero\n        /* \"@openzeppelin/contracts/token/ERC20/ERC20.sol\":9390:9461  require(accountBalance >= amount, \"ERC20: burn amount exceeds balance\") */\n      tag_367\n      jumpi\n      mload(0x40)\n      0x08c379a000000000000000000000000000000000000000000000000000000000\n      dup2\n      mstore\n      0x04\n      add\n      tag_368\n      swap1\n      tag_369\n      jump\t// in\n    tag_368:\n      mload(0x40)\n      dup1\n      swap2\n      sub\n      swap1\n      revert\n    tag_367:\n        /* \"@openzeppelin/contracts/token/ERC20/ERC20.sol\":9533:9539  amount */\n      dup2\n        /* \"@openzeppelin/contracts/token/ERC20/ERC20.sol\":9516:9530  accountBalance */\n      dup2\n        /* \"@openzeppelin/contracts/token/ERC20/ERC20.sol\":9516:9539  accountBalance - amount */\n      sub\n        /* \"@openzeppelin/contracts/token/ERC20/ERC20.sol\":9495:9504  _balances */\n      0x00\n        /* \"@openzeppelin/contracts/token/ERC20/ERC20.sol\":9495:9513  _balances[account] */\n      dup1\n        /* \"@openzeppelin/contracts/token/ERC20/ERC20.sol\":9505:9512  account */\n      dup6\n        /* \"@openzeppelin/contracts/token/ERC20/ERC20.sol\":9495:9513  _balances[account] */\n      0xffffffffffffffffffffffffffffffffffffffff\n      and\n      0xffffffffffffffffffffffffffffffffffffffff\n      and\n      dup2\n      mstore\n      0x20\n      add\n      swap1\n      dup2\n      mstore\n      0x20\n      add\n      0x00\n      keccak256\n        /* \"@openzeppelin/contracts/token/ERC20/ERC20.sol\":9495:9539  _balances[account] = accountBalance - amount */\n      dup2\n      swap1\n      sstore\n      pop\n        /* \"@openzeppelin/contracts/token/ERC20/ERC20.sol\":9575:9581  amount */\n      dup2\n        /* \"@openzeppelin/contracts/token/ERC20/ERC20.sol\":9559:9571  _totalSupply */\n      0x02\n      0x00\n        /* \"@openzeppelin/contracts/token/ERC20/ERC20.sol\":9559:9581  _totalSupply -= amount */\n      dup3\n      dup3\n      sload\n      tag_370\n      swap2\n      swap1\n      tag_257\n      jump\t// in\n    tag_370:\n      swap3\n      pop\n      pop\n      dup2\n      swap1\n      sstore\n      pop\n        /* \"@openzeppelin/contracts/token/ERC20/ERC20.sol\":9623:9624  0 */\n      0x00\n        /* \"@openzeppelin/contracts/token/ERC20/ERC20.sol\":9597:9634  Transfer(account, address(0), amount) */\n      0xffffffffffffffffffffffffffffffffffffffff\n      and\n        /* \"@openzeppelin/contracts/token/ERC20/ERC20.sol\":9606:9613  account */\n      dup4\n        /* \"@openzeppelin/contracts/token/ERC20/ERC20.sol\":9597:9634  Transfer(account, address(0), amount) */\n      0xffffffffffffffffffffffffffffffffffffffff\n      and\n      0xddf252ad1be2c89b69c2b068fc378daa952ba7f163c4a11628f55a4df523b3ef\n        /* \"@openzeppelin/contracts/token/ERC20/ERC20.sol\":9627:9633  amount */\n      dup5\n        /* \"@openzeppelin/contracts/token/ERC20/ERC20.sol\":9597:9634  Transfer(account, address(0), amount) */\n      mload(0x40)\n      tag_371\n      swap2\n      swap1\n      tag_61\n      jump\t// in\n    tag_371:\n      mload(0x40)\n      dup1\n      swap2\n      sub\n      swap1\n      log3\n        /* \"@openzeppelin/contracts/token/ERC20/ERC20.sol\":9645:9693  _afterTokenTransfer(account, address(0), amount) */\n      tag_372\n        /* \"@openzeppelin/contracts/token/ERC20/ERC20.sol\":9665:9672  account */\n      dup4\n        /* \"@openzeppelin/contracts/token/ERC20/ERC20.sol\":9682:9683  0 */\n      0x00\n        /* \"@openzeppelin/contracts/token/ERC20/ERC20.sol\":9686:9692  amount */\n      dup5\n        /* \"@openzeppelin/contracts/token/ERC20/ERC20.sol\":9645:9664  _afterTokenTransfer */\n      tag_333\n        /* \"@openzeppelin/contracts/token/ERC20/ERC20.sol\":9645:9693  _afterTokenTransfer(account, address(0), amount) */\n      jump\t// in\n    tag_372:\n        /* \"@openzeppelin/contracts/token/ERC20/ERC20.sol\":9189:9700  {... */\n      pop\n        /* \"@openzeppelin/contracts/token/ERC20/ERC20.sol\":9124:9700  function _burn(address account, uint256 amount) internal virtual {... */\n      pop\n      pop\n      jump\t// out\n        /* \"contracts/Claim.sol\":715:931  function removeUnclaimed(address _account, uint256 _amt) internal {... */\n    tag_299:\n        /* \"contracts/Claim.sol\":807:816  unclaimed */\n      0x06\n        /* \"contracts/Claim.sol\":807:826  unclaimed[_account] */\n      0x00\n        /* \"contracts/Claim.sol\":817:825  _account */\n      dup4\n        /* \"contracts/Claim.sol\":807:826  unclaimed[_account] */\n      0xffffffffffffffffffffffffffffffffffffffff\n      and\n      0xffffffffffffffffffffffffffffffffffffffff\n      and\n      dup2\n      mstore\n      0x20\n      add\n      swap1\n      dup2\n      mstore\n      0x20\n      add\n      0x00\n      keccak256\n      sload\n        /* \"contracts/Claim.sol\":799:803  _amt */\n      dup2\n        /* \"contracts/Claim.sol\":799:826  _amt <= unclaimed[_account] */\n      gt\n      iszero\n        /* \"contracts/Claim.sol\":791:887  require(_amt <= unclaimed[_account], \"Amount to remove cannot be greater than unclaimed amount\") */\n      tag_374\n      jumpi\n      mload(0x40)\n      0x08c379a000000000000000000000000000000000000000000000000000000000\n      dup2\n      mstore\n      0x04\n      add\n      tag_375\n      swap1\n      tag_376\n      jump\t// in\n    tag_375:\n      mload(0x40)\n      dup1\n      swap2\n      sub\n      swap1\n      revert\n    tag_374:\n        /* \"contracts/Claim.sol\":920:924  _amt */\n      dup1\n        /* \"contracts/Claim.sol\":897:906  unclaimed */\n      0x06\n        /* \"contracts/Claim.sol\":897:916  unclaimed[_account] */\n      0x00\n        /* \"contracts/Claim.sol\":907:915  _account */\n      dup5\n        /* \"contracts/Claim.sol\":897:916  unclaimed[_account] */\n      0xffffffffffffffffffffffffffffffffffffffff\n      and\n      0xffffffffffffffffffffffffffffffffffffffff\n      and\n      dup2\n      mstore\n      0x20\n      add\n      swap1\n      dup2\n      mstore\n      0x20\n      add\n      0x00\n      keccak256\n      0x00\n        /* \"contracts/Claim.sol\":897:924  unclaimed[_account] -= _amt */\n      dup3\n      dup3\n      sload\n      tag_377\n      swap2\n      swap1\n      tag_257\n      jump\t// in\n    tag_377:\n      swap3\n      pop\n      pop\n      dup2\n      swap1\n      sstore\n      pop\n        /* \"contracts/Claim.sol\":715:931  function removeUnclaimed(address _account, uint256 _amt) internal {... */\n      pop\n      pop\n      jump\t// out\n        /* \"@openzeppelin/contracts/token/ERC20/ERC20.sol\":11795:11916  function _beforeTokenTransfer(... */\n    tag_326:\n      pop\n      pop\n      pop\n      jump\t// out\n        /* \"@openzeppelin/contracts/token/ERC20/ERC20.sol\":12504:12624  function _afterTokenTransfer(... */\n    tag_333:\n      pop\n      pop\n      pop\n      jump\t// out\n        /* \"@openzeppelin/contracts/utils/Strings.sol\":1588:2029  function toHexString(uint256 value, uint256 length) internal pure returns (string memory) {... */\n    tag_338:\n        /* \"@openzeppelin/contracts/utils/Strings.sol\":1663:1676  string memory */\n      0x60\n        /* \"@openzeppelin/contracts/utils/Strings.sol\":1688:1707  bytes memory buffer */\n      0x00\n        /* \"@openzeppelin/contracts/utils/Strings.sol\":1733:1734  2 */\n      0x02\n        /* \"@openzeppelin/contracts/utils/Strings.sol\":1724:1730  length */\n      dup4\n        /* \"@openzeppelin/contracts/utils/Strings.sol\":1720:1721  2 */\n      0x02\n        /* \"@openzeppelin/contracts/utils/Strings.sol\":1720:1730  2 * length */\n      tag_381\n      swap2\n      swap1\n      tag_242\n      jump\t// in\n    tag_381:\n        /* \"@openzeppelin/contracts/utils/Strings.sol\":1720:1734  2 * length + 2 */\n      tag_382\n      swap2\n      swap1\n      tag_227\n      jump\t// in\n    tag_382:\n        /* \"@openzeppelin/contracts/utils/Strings.sol\":1710:1735  new bytes(2 * length + 2) */\n      0xffffffffffffffff\n      dup2\n      gt\n      iszero\n      tag_383\n      jumpi\n      tag_384\n      tag_385\n      jump\t// in\n    tag_384:\n    tag_383:\n      mload(0x40)\n      swap1\n      dup1\n      dup3\n      mstore\n      dup1\n      0x1f\n      add\n      not(0x1f)\n      and\n      0x20\n      add\n      dup3\n      add\n      0x40\n      mstore\n      dup1\n      iszero\n      tag_386\n      jumpi\n      dup2\n      0x20\n      add\n      0x01\n      dup3\n      mul\n      dup1\n      calldatasize\n      dup4\n      calldatacopy\n      dup1\n      dup3\n      add\n      swap2\n      pop\n      pop\n      swap1\n      pop\n    tag_386:\n      pop\n        /* \"@openzeppelin/contracts/utils/Strings.sol\":1688:1735  bytes memory buffer = new bytes(2 * length + 2) */\n      swap1\n      pop\n        /* \"@openzeppelin/contracts/utils/Strings.sol\":1745:1760  buffer[0] = \"0\" */\n      0x3000000000000000000000000000000000000000000000000000000000000000\n        /* \"@openzeppelin/contracts/utils/Strings.sol\":1745:1751  buffer */\n      dup2\n        /* \"@openzeppelin/contracts/utils/Strings.sol\":1752:1753  0 */\n      0x00\n        /* \"@openzeppelin/contracts/utils/Strings.sol\":1745:1754  buffer[0] */\n      dup2\n      mload\n      dup2\n      lt\n      tag_387\n      jumpi\n      tag_388\n      tag_389\n      jump\t// in\n    tag_388:\n    tag_387:\n      0x20\n      add\n      add\n        /* \"@openzeppelin/contracts/utils/Strings.sol\":1745:1760  buffer[0] = \"0\" */\n      swap1\n      not(0xffffffffffffffffffffffffffffffffffffffffffffffffffffffffffffff)\n      and\n      swap1\n      dup2\n      0x00\n      byte\n      swap1\n      mstore8\n      pop\n        /* \"@openzeppelin/contracts/utils/Strings.sol\":1770:1785  buffer[1] = \"x\" */\n      0x7800000000000000000000000000000000000000000000000000000000000000\n        /* \"@openzeppelin/contracts/utils/Strings.sol\":1770:1776  buffer */\n      dup2\n        /* \"@openzeppelin/contracts/utils/Strings.sol\":1777:1778  1 */\n      0x01\n        /* \"@openzeppelin/contracts/utils/Strings.sol\":1770:1779  buffer[1] */\n      dup2\n      mload\n      dup2\n      lt\n      tag_390\n      jumpi\n      tag_391\n      tag_389\n      jump\t// in\n    tag_391:\n    tag_390:\n      0x20\n      add\n      add\n        /* \"@openzeppelin/contracts/utils/Strings.sol\":1770:1785  buffer[1] = \"x\" */\n      swap1\n      not(0xffffffffffffffffffffffffffffffffffffffffffffffffffffffffffffff)\n      and\n      swap1\n      dup2\n      0x00\n      byte\n      swap1\n      mstore8\n      pop\n        /* \"@openzeppelin/contracts/utils/Strings.sol\":1800:1809  uint256 i */\n      0x00\n        /* \"@openzeppelin/contracts/utils/Strings.sol\":1825:1826  1 */\n      0x01\n        /* \"@openzeppelin/contracts/utils/Strings.sol\":1816:1822  length */\n      dup5\n        /* \"@openzeppelin/contracts/utils/Strings.sol\":1812:1813  2 */\n      0x02\n        /* \"@openzeppelin/contracts/utils/Strings.sol\":1812:1822  2 * length */\n      tag_395\n      swap2\n      swap1\n      tag_242\n      jump\t// in\n    tag_395:\n        /* \"@openzeppelin/contracts/utils/Strings.sol\":1812:1826  2 * length + 1 */\n      tag_396\n      swap2\n      swap1\n      tag_227\n      jump\t// in\n    tag_396:\n        /* \"@openzeppelin/contracts/utils/Strings.sol\":1800:1826  uint256 i = 2 * length + 1 */\n      swap1\n      pop\n        /* \"@openzeppelin/contracts/utils/Strings.sol\":1795:1927  for (uint256 i = 2 * length + 1; i > 1; --i) {... */\n    tag_392:\n        /* \"@openzeppelin/contracts/utils/Strings.sol\":1832:1833  1 */\n      0x01\n        /* \"@openzeppelin/contracts/utils/Strings.sol\":1828:1829  i */\n      dup2\n        /* \"@openzeppelin/contracts/utils/Strings.sol\":1828:1833  i > 1 */\n      gt\n        /* \"@openzeppelin/contracts/utils/Strings.sol\":1795:1927  for (uint256 i = 2 * length + 1; i > 1; --i) {... */\n      iszero\n      tag_393\n      jumpi\n        /* \"@openzeppelin/contracts/utils/Strings.sol\":1866:1878  _HEX_SYMBOLS */\n      0x3031323334353637383961626364656600000000000000000000000000000000\n        /* \"@openzeppelin/contracts/utils/Strings.sol\":1887:1890  0xf */\n      0x0f\n        /* \"@openzeppelin/contracts/utils/Strings.sol\":1879:1884  value */\n      dup7\n        /* \"@openzeppelin/contracts/utils/Strings.sol\":1879:1890  value & 0xf */\n      and\n        /* \"@openzeppelin/contracts/utils/Strings.sol\":1866:1891  _HEX_SYMBOLS[value & 0xf] */\n      0x10\n      dup2\n      lt\n      tag_397\n      jumpi\n      tag_398\n      tag_389\n      jump\t// in\n    tag_398:\n    tag_397:\n      byte\n      0xf8\n      shl\n        /* \"@openzeppelin/contracts/utils/Strings.sol\":1854:1860  buffer */\n      dup3\n        /* \"@openzeppelin/contracts/utils/Strings.sol\":1861:1862  i */\n      dup3\n        /* \"@openzeppelin/contracts/utils/Strings.sol\":1854:1863  buffer[i] */\n      dup2\n      mload\n      dup2\n      lt\n      tag_399\n      jumpi\n      tag_400\n      tag_389\n      jump\t// in\n    tag_400:\n    tag_399:\n      0x20\n      add\n      add\n        /* \"@openzeppelin/contracts/utils/Strings.sol\":1854:1891  buffer[i] = _HEX_SYMBOLS[value & 0xf] */\n      swap1\n      not(0xffffffffffffffffffffffffffffffffffffffffffffffffffffffffffffff)\n      and\n      swap1\n      dup2\n      0x00\n      byte\n      swap1\n      mstore8\n      pop\n        /* \"@openzeppelin/contracts/utils/Strings.sol\":1915:1916  4 */\n      0x04\n        /* \"@openzeppelin/contracts/utils/Strings.sol\":1905:1916  value >>= 4 */\n      dup6\n      swap1\n      shr\n      swap5\n      pop\n        /* \"@openzeppelin/contracts/utils/Strings.sol\":1835:1838  --i */\n      dup1\n      tag_401\n      swap1\n      tag_402\n      jump\t// in\n    tag_401:\n      swap1\n      pop\n        /* \"@openzeppelin/contracts/utils/Strings.sol\":1795:1927  for (uint256 i = 2 * length + 1; i > 1; --i) {... */\n      jump(tag_392)\n    tag_393:\n      pop\n        /* \"@openzeppelin/contracts/utils/Strings.sol\":1953:1954  0 */\n      0x00\n        /* \"@openzeppelin/contracts/utils/Strings.sol\":1944:1949  value */\n      dup5\n        /* \"@openzeppelin/contracts/utils/Strings.sol\":1944:1954  value == 0 */\n      eq\n        /* \"@openzeppelin/contracts/utils/Strings.sol\":1936:1991  require(value == 0, \"Strings: hex length insufficient\") */\n      tag_403\n      jumpi\n      mload(0x40)\n      0x08c379a000000000000000000000000000000000000000000000000000000000\n      dup2\n      mstore\n      0x04\n      add\n      tag_404\n      swap1\n      tag_405\n      jump\t// in\n    tag_404:\n      mload(0x40)\n      dup1\n      swap2\n      sub\n      swap1\n      revert\n    tag_403:\n        /* \"@openzeppelin/contracts/utils/Strings.sol\":2015:2021  buffer */\n      dup1\n        /* \"@openzeppelin/contracts/utils/Strings.sol\":2001:2022  return string(buffer) */\n      swap2\n      pop\n      pop\n        /* \"@openzeppelin/contracts/utils/Strings.sol\":1588:2029  function toHexString(uint256 value, uint256 length) internal pure returns (string memory) {... */\n      swap3\n      swap2\n      pop\n      pop\n      jump\t// out\n        /* \"#utility.yul\":7:146   */\n    tag_407:\n        /* \"#utility.yul\":53:58   */\n      0x00\n        /* \"#utility.yul\":91:97   */\n      dup2\n        /* \"#utility.yul\":78:98   */\n      calldataload\n        /* \"#utility.yul\":69:98   */\n      swap1\n      pop\n        /* \"#utility.yul\":107:140   */\n      tag_409\n        /* \"#utility.yul\":134:139   */\n      dup2\n        /* \"#utility.yul\":107:140   */\n      tag_410\n      jump\t// in\n    tag_409:\n        /* \"#utility.yul\":7:146   */\n      swap3\n      swap2\n      pop\n      pop\n      jump\t// out\n        /* \"#utility.yul\":152:289   */\n    tag_411:\n        /* \"#utility.yul\":206:211   */\n      0x00\n        /* \"#utility.yul\":237:243   */\n      dup2\n        /* \"#utility.yul\":231:244   */\n      mload\n        /* \"#utility.yul\":222:244   */\n      swap1\n      pop\n        /* \"#utility.yul\":253:283   */\n      tag_413\n        /* \"#utility.yul\":277:282   */\n      dup2\n        /* \"#utility.yul\":253:283   */\n      tag_414\n      jump\t// in\n    tag_413:\n        /* \"#utility.yul\":152:289   */\n      swap3\n      swap2\n      pop\n      pop\n      jump\t// out\n        /* \"#utility.yul\":295:434   */\n    tag_415:\n        /* \"#utility.yul\":341:346   */\n      0x00\n        /* \"#utility.yul\":379:385   */\n      dup2\n        /* \"#utility.yul\":366:386   */\n      calldataload\n        /* \"#utility.yul\":357:386   */\n      swap1\n      pop\n        /* \"#utility.yul\":395:428   */\n      tag_417\n        /* \"#utility.yul\":422:427   */\n      dup2\n        /* \"#utility.yul\":395:428   */\n      tag_418\n      jump\t// in\n    tag_417:\n        /* \"#utility.yul\":295:434   */\n      swap3\n      swap2\n      pop\n      pop\n      jump\t// out\n        /* \"#utility.yul\":440:577   */\n    tag_419:\n        /* \"#utility.yul\":485:490   */\n      0x00\n        /* \"#utility.yul\":523:529   */\n      dup2\n        /* \"#utility.yul\":510:530   */\n      calldataload\n        /* \"#utility.yul\":501:530   */\n      swap1\n      pop\n        /* \"#utility.yul\":539:571   */\n      tag_421\n        /* \"#utility.yul\":565:570   */\n      dup2\n        /* \"#utility.yul\":539:571   */\n      tag_422\n      jump\t// in\n    tag_421:\n        /* \"#utility.yul\":440:577   */\n      swap3\n      swap2\n      pop\n      pop\n      jump\t// out\n        /* \"#utility.yul\":583:722   */\n    tag_423:\n        /* \"#utility.yul\":629:634   */\n      0x00\n        /* \"#utility.yul\":667:673   */\n      dup2\n        /* \"#utility.yul\":654:674   */\n      calldataload\n        /* \"#utility.yul\":645:674   */\n      swap1\n      pop\n        /* \"#utility.yul\":683:716   */\n      tag_425\n        /* \"#utility.yul\":710:715   */\n      dup2\n        /* \"#utility.yul\":683:716   */\n      tag_426\n      jump\t// in\n    tag_425:\n        /* \"#utility.yul\":583:722   */\n      swap3\n      swap2\n      pop\n      pop\n      jump\t// out\n        /* \"#utility.yul\":728:1057   */\n    tag_101:\n        /* \"#utility.yul\":787:793   */\n      0x00\n        /* \"#utility.yul\":836:838   */\n      0x20\n        /* \"#utility.yul\":824:833   */\n      dup3\n        /* \"#utility.yul\":815:822   */\n      dup5\n        /* \"#utility.yul\":811:834   */\n      sub\n        /* \"#utility.yul\":807:839   */\n      slt\n        /* \"#utility.yul\":804:923   */\n      iszero\n      tag_428\n      jumpi\n        /* \"#utility.yul\":842:921   */\n      tag_429\n      tag_430\n      jump\t// in\n    tag_429:\n        /* \"#utility.yul\":804:923   */\n    tag_428:\n        /* \"#utility.yul\":962:963   */\n      0x00\n        /* \"#utility.yul\":987:1040   */\n      tag_431\n        /* \"#utility.yul\":1032:1039   */\n      dup5\n        /* \"#utility.yul\":1023:1029   */\n      dup3\n        /* \"#utility.yul\":1012:1021   */\n      dup6\n        /* \"#utility.yul\":1008:1030   */\n      add\n        /* \"#utility.yul\":987:1040   */\n      tag_407\n      jump\t// in\n    tag_431:\n        /* \"#utility.yul\":977:1040   */\n      swap2\n      pop\n        /* \"#utility.yul\":933:1050   */\n      pop\n        /* \"#utility.yul\":728:1057   */\n      swap3\n      swap2\n      pop\n      pop\n      jump\t// out\n        /* \"#utility.yul\":1063:1537   */\n    tag_171:\n        /* \"#utility.yul\":1131:1137   */\n      0x00\n        /* \"#utility.yul\":1139:1145   */\n      dup1\n        /* \"#utility.yul\":1188:1190   */\n      0x40\n        /* \"#utility.yul\":1176:1185   */\n      dup4\n        /* \"#utility.yul\":1167:1174   */\n      dup6\n        /* \"#utility.yul\":1163:1186   */\n      sub\n        /* \"#utility.yul\":1159:1191   */\n      slt\n        /* \"#utility.yul\":1156:1275   */\n      iszero\n      tag_433\n      jumpi\n        /* \"#utility.yul\":1194:1273   */\n      tag_434\n      tag_430\n      jump\t// in\n    tag_434:\n        /* \"#utility.yul\":1156:1275   */\n    tag_433:\n        /* \"#utility.yul\":1314:1315   */\n      0x00\n        /* \"#utility.yul\":1339:1392   */\n      tag_435\n        /* \"#utility.yul\":1384:1391   */\n      dup6\n        /* \"#utility.yul\":1375:1381   */\n      dup3\n        /* \"#utility.yul\":1364:1373   */\n      dup7\n        /* \"#utility.yul\":1360:1382   */\n      add\n        /* \"#utility.yul\":1339:1392   */\n      tag_407\n      jump\t// in\n    tag_435:\n        /* \"#utility.yul\":1329:1392   */\n      swap3\n      pop\n        /* \"#utility.yul\":1285:1402   */\n      pop\n        /* \"#utility.yul\":1441:1443   */\n      0x20\n        /* \"#utility.yul\":1467:1520   */\n      tag_436\n        /* \"#utility.yul\":1512:1519   */\n      dup6\n        /* \"#utility.yul\":1503:1509   */\n      dup3\n        /* \"#utility.yul\":1492:1501   */\n      dup7\n        /* \"#utility.yul\":1488:1510   */\n      add\n        /* \"#utility.yul\":1467:1520   */\n      tag_407\n      jump\t// in\n    tag_436:\n        /* \"#utility.yul\":1457:1520   */\n      swap2\n      pop\n        /* \"#utility.yul\":1412:1530   */\n      pop\n        /* \"#utility.yul\":1063:1537   */\n      swap3\n      pop\n      swap3\n      swap1\n      pop\n      jump\t// out\n        /* \"#utility.yul\":1543:2162   */\n    tag_65:\n        /* \"#utility.yul\":1620:1626   */\n      0x00\n        /* \"#utility.yul\":1628:1634   */\n      dup1\n        /* \"#utility.yul\":1636:1642   */\n      0x00\n        /* \"#utility.yul\":1685:1687   */\n      0x60\n        /* \"#utility.yul\":1673:1682   */\n      dup5\n        /* \"#utility.yul\":1664:1671   */\n      dup7\n        /* \"#utility.yul\":1660:1683   */\n      sub\n        /* \"#utility.yul\":1656:1688   */\n      slt\n        /* \"#utility.yul\":1653:1772   */\n      iszero\n      tag_438\n      jumpi\n        /* \"#utility.yul\":1691:1770   */\n      tag_439\n      tag_430\n      jump\t// in\n    tag_439:\n        /* \"#utility.yul\":1653:1772   */\n    tag_438:\n        /* \"#utility.yul\":1811:1812   */\n      0x00\n        /* \"#utility.yul\":1836:1889   */\n      tag_440\n        /* \"#utility.yul\":1881:1888   */\n      dup7\n        /* \"#utility.yul\":1872:1878   */\n      dup3\n        /* \"#utility.yul\":1861:1870   */\n      dup8\n        /* \"#utility.yul\":1857:1879   */\n      add\n        /* \"#utility.yul\":1836:1889   */\n      tag_407\n      jump\t// in\n    tag_440:\n        /* \"#utility.yul\":1826:1889   */\n      swap4\n      pop\n        /* \"#utility.yul\":1782:1899   */\n      pop\n        /* \"#utility.yul\":1938:1940   */\n      0x20\n        /* \"#utility.yul\":1964:2017   */\n      tag_441\n        /* \"#utility.yul\":2009:2016   */\n      dup7\n        /* \"#utility.yul\":2000:2006   */\n      dup3\n        /* \"#utility.yul\":1989:1998   */\n      dup8\n        /* \"#utility.yul\":1985:2007   */\n      add\n        /* \"#utility.yul\":1964:2017   */\n      tag_407\n      jump\t// in\n    tag_441:\n        /* \"#utility.yul\":1954:2017   */\n      swap3\n      pop\n        /* \"#utility.yul\":1909:2027   */\n      pop\n        /* \"#utility.yul\":2066:2068   */\n      0x40\n        /* \"#utility.yul\":2092:2145   */\n      tag_442\n        /* \"#utility.yul\":2137:2144   */\n      dup7\n        /* \"#utility.yul\":2128:2134   */\n      dup3\n        /* \"#utility.yul\":2117:2126   */\n      dup8\n        /* \"#utility.yul\":2113:2135   */\n      add\n        /* \"#utility.yul\":2092:2145   */\n      tag_423\n      jump\t// in\n    tag_442:\n        /* \"#utility.yul\":2082:2145   */\n      swap2\n      pop\n        /* \"#utility.yul\":2037:2155   */\n      pop\n        /* \"#utility.yul\":1543:2162   */\n      swap3\n      pop\n      swap3\n      pop\n      swap3\n      jump\t// out\n        /* \"#utility.yul\":2168:2642   */\n    tag_54:\n        /* \"#utility.yul\":2236:2242   */\n      0x00\n        /* \"#utility.yul\":2244:2250   */\n      dup1\n        /* \"#utility.yul\":2293:2295   */\n      0x40\n        /* \"#utility.yul\":2281:2290   */\n      dup4\n        /* \"#utility.yul\":2272:2279   */\n      dup6\n        /* \"#utility.yul\":2268:2291   */\n      sub\n        /* \"#utility.yul\":2264:2296   */\n      slt\n        /* \"#utility.yul\":2261:2380   */\n      iszero\n      tag_444\n      jumpi\n        /* \"#utility.yul\":2299:2378   */\n      tag_445\n      tag_430\n      jump\t// in\n    tag_445:\n        /* \"#utility.yul\":2261:2380   */\n    tag_444:\n        /* \"#utility.yul\":2419:2420   */\n      0x00\n        /* \"#utility.yul\":2444:2497   */\n      tag_446\n        /* \"#utility.yul\":2489:2496   */\n      dup6\n        /* \"#utility.yul\":2480:2486   */\n      dup3\n        /* \"#utility.yul\":2469:2478   */\n      dup7\n        /* \"#utility.yul\":2465:2487   */\n      add\n        /* \"#utility.yul\":2444:2497   */\n      tag_407\n      jump\t// in\n    tag_446:\n        /* \"#utility.yul\":2434:2497   */\n      swap3\n      pop\n        /* \"#utility.yul\":2390:2507   */\n      pop\n        /* \"#utility.yul\":2546:2548   */\n      0x20\n        /* \"#utility.yul\":2572:2625   */\n      tag_447\n        /* \"#utility.yul\":2617:2624   */\n      dup6\n        /* \"#utility.yul\":2608:2614   */\n      dup3\n        /* \"#utility.yul\":2597:2606   */\n      dup7\n        /* \"#utility.yul\":2593:2615   */\n      add\n        /* \"#utility.yul\":2572:2625   */\n      tag_423\n      jump\t// in\n    tag_447:\n        /* \"#utility.yul\":2562:2625   */\n      swap2\n      pop\n        /* \"#utility.yul\":2517:2635   */\n      pop\n        /* \"#utility.yul\":2168:2642   */\n      swap3\n      pop\n      swap3\n      swap1\n      pop\n      jump\t// out\n        /* \"#utility.yul\":2648:2993   */\n    tag_249:\n        /* \"#utility.yul\":2715:2721   */\n      0x00\n        /* \"#utility.yul\":2764:2766   */\n      0x20\n        /* \"#utility.yul\":2752:2761   */\n      dup3\n        /* \"#utility.yul\":2743:2750   */\n      dup5\n        /* \"#utility.yul\":2739:2762   */\n      sub\n        /* \"#utility.yul\":2735:2767   */\n      slt\n        /* \"#utility.yul\":2732:2851   */\n      iszero\n      tag_449\n      jumpi\n        /* \"#utility.yul\":2770:2849   */\n      tag_450\n      tag_430\n      jump\t// in\n    tag_450:\n        /* \"#utility.yul\":2732:2851   */\n    tag_449:\n        /* \"#utility.yul\":2890:2891   */\n      0x00\n        /* \"#utility.yul\":2915:2976   */\n      tag_451\n        /* \"#utility.yul\":2968:2975   */\n      dup5\n        /* \"#utility.yul\":2959:2965   */\n      dup3\n        /* \"#utility.yul\":2948:2957   */\n      dup6\n        /* \"#utility.yul\":2944:2966   */\n      add\n        /* \"#utility.yul\":2915:2976   */\n      tag_411\n      jump\t// in\n    tag_451:\n        /* \"#utility.yul\":2905:2976   */\n      swap2\n      pop\n        /* \"#utility.yul\":2861:2986   */\n      pop\n        /* \"#utility.yul\":2648:2993   */\n      swap3\n      swap2\n      pop\n      pop\n      jump\t// out\n        /* \"#utility.yul\":2999:3328   */\n    tag_71:\n        /* \"#utility.yul\":3058:3064   */\n      0x00\n        /* \"#utility.yul\":3107:3109   */\n      0x20\n        /* \"#utility.yul\":3095:3104   */\n      dup3\n        /* \"#utility.yul\":3086:3093   */\n      dup5\n        /* \"#utility.yul\":3082:3105   */\n      sub\n        /* \"#utility.yul\":3078:3110   */\n      slt\n        /* \"#utility.yul\":3075:3194   */\n      iszero\n      tag_453\n      jumpi\n        /* \"#utility.yul\":3113:3192   */\n      tag_454\n      tag_430\n      jump\t// in\n    tag_454:\n        /* \"#utility.yul\":3075:3194   */\n    tag_453:\n        /* \"#utility.yul\":3233:3234   */\n      0x00\n        /* \"#utility.yul\":3258:3311   */\n      tag_455\n        /* \"#utility.yul\":3303:3310   */\n      dup5\n        /* \"#utility.yul\":3294:3300   */\n      dup3\n        /* \"#utility.yul\":3283:3292   */\n      dup6\n        /* \"#utility.yul\":3279:3301   */\n      add\n        /* \"#utility.yul\":3258:3311   */\n      tag_415\n      jump\t// in\n    tag_455:\n        /* \"#utility.yul\":3248:3311   */\n      swap2\n      pop\n        /* \"#utility.yul\":3204:3321   */\n      pop\n        /* \"#utility.yul\":2999:3328   */\n      swap3\n      swap2\n      pop\n      pop\n      jump\t// out\n        /* \"#utility.yul\":3334:3808   */\n    tag_82:\n        /* \"#utility.yul\":3402:3408   */\n      0x00\n        /* \"#utility.yul\":3410:3416   */\n      dup1\n        /* \"#utility.yul\":3459:3461   */\n      0x40\n        /* \"#utility.yul\":3447:3456   */\n      dup4\n        /* \"#utility.yul\":3438:3445   */\n      dup6\n        /* \"#utility.yul\":3434:3457   */\n      sub\n        /* \"#utility.yul\":3430:3462   */\n      slt\n        /* \"#utility.yul\":3427:3546   */\n      iszero\n      tag_457\n      jumpi\n        /* \"#utility.yul\":3465:3544   */\n      tag_458\n      tag_430\n      jump\t// in\n    tag_458:\n        /* \"#utility.yul\":3427:3546   */\n    tag_457:\n        /* \"#utility.yul\":3585:3586   */\n      0x00\n        /* \"#utility.yul\":3610:3663   */\n      tag_459\n        /* \"#utility.yul\":3655:3662   */\n      dup6\n        /* \"#utility.yul\":3646:3652   */\n      dup3\n        /* \"#utility.yul\":3635:3644   */\n      dup7\n        /* \"#utility.yul\":3631:3653   */\n      add\n        /* \"#utility.yul\":3610:3663   */\n      tag_415\n      jump\t// in\n    tag_459:\n        /* \"#utility.yul\":3600:3663   */\n      swap3\n      pop\n        /* \"#utility.yul\":3556:3673   */\n      pop\n        /* \"#utility.yul\":3712:3714   */\n      0x20\n        /* \"#utility.yul\":3738:3791   */\n      tag_460\n        /* \"#utility.yul\":3783:3790   */\n      dup6\n        /* \"#utility.yul\":3774:3780   */\n      dup3\n        /* \"#utility.yul\":3763:3772   */\n      dup7\n        /* \"#utility.yul\":3759:3781   */\n      add\n        /* \"#utility.yul\":3738:3791   */\n      tag_407\n      jump\t// in\n    tag_460:\n        /* \"#utility.yul\":3728:3791   */\n      swap2\n      pop\n        /* \"#utility.yul\":3683:3801   */\n      pop\n        /* \"#utility.yul\":3334:3808   */\n      swap3\n      pop\n      swap3\n      swap1\n      pop\n      jump\t// out\n        /* \"#utility.yul\":3814:4141   */\n    tag_42:\n        /* \"#utility.yul\":3872:3878   */\n      0x00\n        /* \"#utility.yul\":3921:3923   */\n      0x20\n        /* \"#utility.yul\":3909:3918   */\n      dup3\n        /* \"#utility.yul\":3900:3907   */\n      dup5\n        /* \"#utility.yul\":3896:3919   */\n      sub\n        /* \"#utility.yul\":3892:3924   */\n      slt\n        /* \"#utility.yul\":3889:4008   */\n      iszero\n      tag_462\n      jumpi\n        /* \"#utility.yul\":3927:4006   */\n      tag_463\n      tag_430\n      jump\t// in\n    tag_463:\n        /* \"#utility.yul\":3889:4008   */\n    tag_462:\n        /* \"#utility.yul\":4047:4048   */\n      0x00\n        /* \"#utility.yul\":4072:4124   */\n      tag_464\n        /* \"#utility.yul\":4116:4123   */\n      dup5\n        /* \"#utility.yul\":4107:4113   */\n      dup3\n        /* \"#utility.yul\":4096:4105   */\n      dup6\n        /* \"#utility.yul\":4092:4114   */\n      add\n        /* \"#utility.yul\":4072:4124   */\n      tag_419\n      jump\t// in\n    tag_464:\n        /* \"#utility.yul\":4062:4124   */\n      swap2\n      pop\n        /* \"#utility.yul\":4018:4134   */\n      pop\n        /* \"#utility.yul\":3814:4141   */\n      swap3\n      swap2\n      pop\n      pop\n      jump\t// out\n        /* \"#utility.yul\":4147:4265   */\n    tag_465:\n        /* \"#utility.yul\":4234:4258   */\n      tag_467\n        /* \"#utility.yul\":4252:4257   */\n      dup2\n        /* \"#utility.yul\":4234:4258   */\n      tag_468\n      jump\t// in\n    tag_467:\n        /* \"#utility.yul\":4229:4232   */\n      dup3\n        /* \"#utility.yul\":4222:4259   */\n      mstore\n        /* \"#utility.yul\":4147:4265   */\n      pop\n      pop\n      jump\t// out\n        /* \"#utility.yul\":4271:4380   */\n    tag_469:\n        /* \"#utility.yul\":4352:4373   */\n      tag_471\n        /* \"#utility.yul\":4367:4372   */\n      dup2\n        /* \"#utility.yul\":4352:4373   */\n      tag_472\n      jump\t// in\n    tag_471:\n        /* \"#utility.yul\":4347:4350   */\n      dup3\n        /* \"#utility.yul\":4340:4374   */\n      mstore\n        /* \"#utility.yul\":4271:4380   */\n      pop\n      pop\n      jump\t// out\n        /* \"#utility.yul\":4386:4504   */\n    tag_473:\n        /* \"#utility.yul\":4473:4497   */\n      tag_475\n        /* \"#utility.yul\":4491:4496   */\n      dup2\n        /* \"#utility.yul\":4473:4497   */\n      tag_476\n      jump\t// in\n    tag_475:\n        /* \"#utility.yul\":4468:4471   */\n      dup3\n        /* \"#utility.yul\":4461:4498   */\n      mstore\n        /* \"#utility.yul\":4386:4504   */\n      pop\n      pop\n      jump\t// out\n        /* \"#utility.yul\":4510:4874   */\n    tag_477:\n        /* \"#utility.yul\":4598:4601   */\n      0x00\n        /* \"#utility.yul\":4626:4665   */\n      tag_479\n        /* \"#utility.yul\":4659:4664   */\n      dup3\n        /* \"#utility.yul\":4626:4665   */\n      tag_480\n      jump\t// in\n    tag_479:\n        /* \"#utility.yul\":4681:4752   */\n      tag_481\n        /* \"#utility.yul\":4745:4751   */\n      dup2\n        /* \"#utility.yul\":4740:4743   */\n      dup6\n        /* \"#utility.yul\":4681:4752   */\n      tag_482\n      jump\t// in\n    tag_481:\n        /* \"#utility.yul\":4674:4752   */\n      swap4\n      pop\n        /* \"#utility.yul\":4761:4813   */\n      tag_483\n        /* \"#utility.yul\":4806:4812   */\n      dup2\n        /* \"#utility.yul\":4801:4804   */\n      dup6\n        /* \"#utility.yul\":4794:4798   */\n      0x20\n        /* \"#utility.yul\":4787:4792   */\n      dup7\n        /* \"#utility.yul\":4783:4799   */\n      add\n        /* \"#utility.yul\":4761:4813   */\n      tag_484\n      jump\t// in\n    tag_483:\n        /* \"#utility.yul\":4838:4867   */\n      tag_485\n        /* \"#utility.yul\":4860:4866   */\n      dup2\n        /* \"#utility.yul\":4838:4867   */\n      tag_486\n      jump\t// in\n    tag_485:\n        /* \"#utility.yul\":4833:4836   */\n      dup5\n        /* \"#utility.yul\":4829:4868   */\n      add\n        /* \"#utility.yul\":4822:4868   */\n      swap2\n      pop\n        /* \"#utility.yul\":4602:4874   */\n      pop\n        /* \"#utility.yul\":4510:4874   */\n      swap3\n      swap2\n      pop\n      pop\n      jump\t// out\n        /* \"#utility.yul\":4880:5257   */\n    tag_487:\n        /* \"#utility.yul\":4986:4989   */\n      0x00\n        /* \"#utility.yul\":5014:5053   */\n      tag_489\n        /* \"#utility.yul\":5047:5052   */\n      dup3\n        /* \"#utility.yul\":5014:5053   */\n      tag_480\n      jump\t// in\n    tag_489:\n        /* \"#utility.yul\":5069:5158   */\n      tag_490\n        /* \"#utility.yul\":5151:5157   */\n      dup2\n        /* \"#utility.yul\":5146:5149   */\n      dup6\n        /* \"#utility.yul\":5069:5158   */\n      tag_491\n      jump\t// in\n    tag_490:\n        /* \"#utility.yul\":5062:5158   */\n      swap4\n      pop\n        /* \"#utility.yul\":5167:5219   */\n      tag_492\n        /* \"#utility.yul\":5212:5218   */\n      dup2\n        /* \"#utility.yul\":5207:5210   */\n      dup6\n        /* \"#utility.yul\":5200:5204   */\n      0x20\n        /* \"#utility.yul\":5193:5198   */\n      dup7\n        /* \"#utility.yul\":5189:5205   */\n      add\n        /* \"#utility.yul\":5167:5219   */\n      tag_484\n      jump\t// in\n    tag_492:\n        /* \"#utility.yul\":5244:5250   */\n      dup1\n        /* \"#utility.yul\":5239:5242   */\n      dup5\n        /* \"#utility.yul\":5235:5251   */\n      add\n        /* \"#utility.yul\":5228:5251   */\n      swap2\n      pop\n        /* \"#utility.yul\":4990:5257   */\n      pop\n        /* \"#utility.yul\":4880:5257   */\n      swap3\n      swap2\n      pop\n      pop\n      jump\t// out\n        /* \"#utility.yul\":5263:5629   */\n    tag_493:\n        /* \"#utility.yul\":5405:5408   */\n      0x00\n        /* \"#utility.yul\":5426:5493   */\n      tag_495\n        /* \"#utility.yul\":5490:5492   */\n      0x20\n        /* \"#utility.yul\":5485:5488   */\n      dup4\n        /* \"#utility.yul\":5426:5493   */\n      tag_482\n      jump\t// in\n    tag_495:\n        /* \"#utility.yul\":5419:5493   */\n      swap2\n      pop\n        /* \"#utility.yul\":5502:5595   */\n      tag_496\n        /* \"#utility.yul\":5591:5594   */\n      dup3\n        /* \"#utility.yul\":5502:5595   */\n      tag_497\n      jump\t// in\n    tag_496:\n        /* \"#utility.yul\":5620:5622   */\n      0x20\n        /* \"#utility.yul\":5615:5618   */\n      dup3\n        /* \"#utility.yul\":5611:5623   */\n      add\n        /* \"#utility.yul\":5604:5623   */\n      swap1\n      pop\n        /* \"#utility.yul\":5263:5629   */\n      swap2\n      swap1\n      pop\n      jump\t// out\n        /* \"#utility.yul\":5635:6001   */\n    tag_498:\n        /* \"#utility.yul\":5777:5780   */\n      0x00\n        /* \"#utility.yul\":5798:5865   */\n      tag_500\n        /* \"#utility.yul\":5862:5864   */\n      0x23\n        /* \"#utility.yul\":5857:5860   */\n      dup4\n        /* \"#utility.yul\":5798:5865   */\n      tag_482\n      jump\t// in\n    tag_500:\n        /* \"#utility.yul\":5791:5865   */\n      swap2\n      pop\n        /* \"#utility.yul\":5874:5967   */\n      tag_501\n        /* \"#utility.yul\":5963:5966   */\n      dup3\n        /* \"#utility.yul\":5874:5967   */\n      tag_502\n      jump\t// in\n    tag_501:\n        /* \"#utility.yul\":5992:5994   */\n      0x40\n        /* \"#utility.yul\":5987:5990   */\n      dup3\n        /* \"#utility.yul\":5983:5995   */\n      add\n        /* \"#utility.yul\":5976:5995   */\n      swap1\n      pop\n        /* \"#utility.yul\":5635:6001   */\n      swap2\n      swap1\n      pop\n      jump\t// out\n        /* \"#utility.yul\":6007:6373   */\n    tag_503:\n        /* \"#utility.yul\":6149:6152   */\n      0x00\n        /* \"#utility.yul\":6170:6237   */\n      tag_505\n        /* \"#utility.yul\":6234:6236   */\n      0x38\n        /* \"#utility.yul\":6229:6232   */\n      dup4\n        /* \"#utility.yul\":6170:6237   */\n      tag_482\n      jump\t// in\n    tag_505:\n        /* \"#utility.yul\":6163:6237   */\n      swap2\n      pop\n        /* \"#utility.yul\":6246:6339   */\n      tag_506\n        /* \"#utility.yul\":6335:6338   */\n      dup3\n        /* \"#utility.yul\":6246:6339   */\n      tag_507\n      jump\t// in\n    tag_506:\n        /* \"#utility.yul\":6364:6366   */\n      0x40\n        /* \"#utility.yul\":6359:6362   */\n      dup3\n        /* \"#utility.yul\":6355:6367   */\n      add\n        /* \"#utility.yul\":6348:6367   */\n      swap1\n      pop\n        /* \"#utility.yul\":6007:6373   */\n      swap2\n      swap1\n      pop\n      jump\t// out\n        /* \"#utility.yul\":6379:6745   */\n    tag_508:\n        /* \"#utility.yul\":6521:6524   */\n      0x00\n        /* \"#utility.yul\":6542:6609   */\n      tag_510\n        /* \"#utility.yul\":6606:6608   */\n      0x22\n        /* \"#utility.yul\":6601:6604   */\n      dup4\n        /* \"#utility.yul\":6542:6609   */\n      tag_482\n      jump\t// in\n    tag_510:\n        /* \"#utility.yul\":6535:6609   */\n      swap2\n      pop\n        /* \"#utility.yul\":6618:6711   */\n      tag_511\n        /* \"#utility.yul\":6707:6710   */\n      dup3\n        /* \"#utility.yul\":6618:6711   */\n      tag_512\n      jump\t// in\n    tag_511:\n        /* \"#utility.yul\":6736:6738   */\n      0x40\n        /* \"#utility.yul\":6731:6734   */\n      dup3\n        /* \"#utility.yul\":6727:6739   */\n      add\n        /* \"#utility.yul\":6720:6739   */\n      swap1\n      pop\n        /* \"#utility.yul\":6379:6745   */\n      swap2\n      swap1\n      pop\n      jump\t// out\n        /* \"#utility.yul\":6751:7117   */\n    tag_513:\n        /* \"#utility.yul\":6893:6896   */\n      0x00\n        /* \"#utility.yul\":6914:6981   */\n      tag_515\n        /* \"#utility.yul\":6978:6980   */\n      0x22\n        /* \"#utility.yul\":6973:6976   */\n      dup4\n        /* \"#utility.yul\":6914:6981   */\n      tag_482\n      jump\t// in\n    tag_515:\n        /* \"#utility.yul\":6907:6981   */\n      swap2\n      pop\n        /* \"#utility.yul\":6990:7083   */\n      tag_516\n        /* \"#utility.yul\":7079:7082   */\n      dup3\n        /* \"#utility.yul\":6990:7083   */\n      tag_517\n      jump\t// in\n    tag_516:\n        /* \"#utility.yul\":7108:7110   */\n      0x40\n        /* \"#utility.yul\":7103:7106   */\n      dup3\n        /* \"#utility.yul\":7099:7111   */\n      add\n        /* \"#utility.yul\":7092:7111   */\n      swap1\n      pop\n        /* \"#utility.yul\":6751:7117   */\n      swap2\n      swap1\n      pop\n      jump\t// out\n        /* \"#utility.yul\":7123:7489   */\n    tag_518:\n        /* \"#utility.yul\":7265:7268   */\n      0x00\n        /* \"#utility.yul\":7286:7353   */\n      tag_520\n        /* \"#utility.yul\":7350:7352   */\n      0x1d\n        /* \"#utility.yul\":7345:7348   */\n      dup4\n        /* \"#utility.yul\":7286:7353   */\n      tag_482\n      jump\t// in\n    tag_520:\n        /* \"#utility.yul\":7279:7353   */\n      swap2\n      pop\n        /* \"#utility.yul\":7362:7455   */\n      tag_521\n        /* \"#utility.yul\":7451:7454   */\n      dup3\n        /* \"#utility.yul\":7362:7455   */\n      tag_522\n      jump\t// in\n    tag_521:\n        /* \"#utility.yul\":7480:7482   */\n      0x20\n        /* \"#utility.yul\":7475:7478   */\n      dup3\n        /* \"#utility.yul\":7471:7483   */\n      add\n        /* \"#utility.yul\":7464:7483   */\n      swap1\n      pop\n        /* \"#utility.yul\":7123:7489   */\n      swap2\n      swap1\n      pop\n      jump\t// out\n        /* \"#utility.yul\":7495:7861   */\n    tag_523:\n        /* \"#utility.yul\":7637:7640   */\n      0x00\n        /* \"#utility.yul\":7658:7725   */\n      tag_525\n        /* \"#utility.yul\":7722:7724   */\n      0x26\n        /* \"#utility.yul\":7717:7720   */\n      dup4\n        /* \"#utility.yul\":7658:7725   */\n      tag_482\n      jump\t// in\n    tag_525:\n        /* \"#utility.yul\":7651:7725   */\n      swap2\n      pop\n        /* \"#utility.yul\":7734:7827   */\n      tag_526\n        /* \"#utility.yul\":7823:7826   */\n      dup3\n        /* \"#utility.yul\":7734:7827   */\n      tag_527\n      jump\t// in\n    tag_526:\n        /* \"#utility.yul\":7852:7854   */\n      0x40\n        /* \"#utility.yul\":7847:7850   */\n      dup3\n        /* \"#utility.yul\":7843:7855   */\n      add\n        /* \"#utility.yul\":7836:7855   */\n      swap1\n      pop\n        /* \"#utility.yul\":7495:7861   */\n      swap2\n      swap1\n      pop\n      jump\t// out\n        /* \"#utility.yul\":7867:8233   */\n    tag_528:\n        /* \"#utility.yul\":8009:8012   */\n      0x00\n        /* \"#utility.yul\":8030:8097   */\n      tag_530\n        /* \"#utility.yul\":8094:8096   */\n      0x28\n        /* \"#utility.yul\":8089:8092   */\n      dup4\n        /* \"#utility.yul\":8030:8097   */\n      tag_482\n      jump\t// in\n    tag_530:\n        /* \"#utility.yul\":8023:8097   */\n      swap2\n      pop\n        /* \"#utility.yul\":8106:8199   */\n      tag_531\n        /* \"#utility.yul\":8195:8198   */\n      dup3\n        /* \"#utility.yul\":8106:8199   */\n      tag_532\n      jump\t// in\n    tag_531:\n        /* \"#utility.yul\":8224:8226   */\n      0x40\n        /* \"#utility.yul\":8219:8222   */\n      dup3\n        /* \"#utility.yul\":8215:8227   */\n      add\n        /* \"#utility.yul\":8208:8227   */\n      swap1\n      pop\n        /* \"#utility.yul\":7867:8233   */\n      swap2\n      swap1\n      pop\n      jump\t// out\n        /* \"#utility.yul\":8239:8605   */\n    tag_533:\n        /* \"#utility.yul\":8381:8384   */\n      0x00\n        /* \"#utility.yul\":8402:8469   */\n      tag_535\n        /* \"#utility.yul\":8466:8468   */\n      0x16\n        /* \"#utility.yul\":8461:8464   */\n      dup4\n        /* \"#utility.yul\":8402:8469   */\n      tag_482\n      jump\t// in\n    tag_535:\n        /* \"#utility.yul\":8395:8469   */\n      swap2\n      pop\n        /* \"#utility.yul\":8478:8571   */\n      tag_536\n        /* \"#utility.yul\":8567:8570   */\n      dup3\n        /* \"#utility.yul\":8478:8571   */\n      tag_537\n      jump\t// in\n    tag_536:\n        /* \"#utility.yul\":8596:8598   */\n      0x20\n        /* \"#utility.yul\":8591:8594   */\n      dup3\n        /* \"#utility.yul\":8587:8599   */\n      add\n        /* \"#utility.yul\":8580:8599   */\n      swap1\n      pop\n        /* \"#utility.yul\":8239:8605   */\n      swap2\n      swap1\n      pop\n      jump\t// out\n        /* \"#utility.yul\":8611:8977   */\n    tag_538:\n        /* \"#utility.yul\":8753:8756   */\n      0x00\n        /* \"#utility.yul\":8774:8841   */\n      tag_540\n        /* \"#utility.yul\":8838:8840   */\n      0x16\n        /* \"#utility.yul\":8833:8836   */\n      dup4\n        /* \"#utility.yul\":8774:8841   */\n      tag_482\n      jump\t// in\n    tag_540:\n        /* \"#utility.yul\":8767:8841   */\n      swap2\n      pop\n        /* \"#utility.yul\":8850:8943   */\n      tag_541\n        /* \"#utility.yul\":8939:8942   */\n      dup3\n        /* \"#utility.yul\":8850:8943   */\n      tag_542\n      jump\t// in\n    tag_541:\n        /* \"#utility.yul\":8968:8970   */\n      0x20\n        /* \"#utility.yul\":8963:8966   */\n      dup3\n        /* \"#utility.yul\":8959:8971   */\n      add\n        /* \"#utility.yul\":8952:8971   */\n      swap1\n      pop\n        /* \"#utility.yul\":8611:8977   */\n      swap2\n      swap1\n      pop\n      jump\t// out\n        /* \"#utility.yul\":8983:9349   */\n    tag_543:\n        /* \"#utility.yul\":9125:9128   */\n      0x00\n        /* \"#utility.yul\":9146:9213   */\n      tag_545\n        /* \"#utility.yul\":9210:9212   */\n      0x21\n        /* \"#utility.yul\":9205:9208   */\n      dup4\n        /* \"#utility.yul\":9146:9213   */\n      tag_482\n      jump\t// in\n    tag_545:\n        /* \"#utility.yul\":9139:9213   */\n      swap2\n      pop\n        /* \"#utility.yul\":9222:9315   */\n      tag_546\n        /* \"#utility.yul\":9311:9314   */\n      dup3\n        /* \"#utility.yul\":9222:9315   */\n      tag_547\n      jump\t// in\n    tag_546:\n        /* \"#utility.yul\":9340:9342   */\n      0x40\n        /* \"#utility.yul\":9335:9338   */\n      dup3\n        /* \"#utility.yul\":9331:9343   */\n      add\n        /* \"#utility.yul\":9324:9343   */\n      swap1\n      pop\n        /* \"#utility.yul\":8983:9349   */\n      swap2\n      swap1\n      pop\n      jump\t// out\n        /* \"#utility.yul\":9355:9721   */\n    tag_548:\n        /* \"#utility.yul\":9497:9500   */\n      0x00\n        /* \"#utility.yul\":9518:9585   */\n      tag_550\n        /* \"#utility.yul\":9582:9584   */\n      0x25\n        /* \"#utility.yul\":9577:9580   */\n      dup4\n        /* \"#utility.yul\":9518:9585   */\n      tag_482\n      jump\t// in\n    tag_550:\n        /* \"#utility.yul\":9511:9585   */\n      swap2\n      pop\n        /* \"#utility.yul\":9594:9687   */\n      tag_551\n        /* \"#utility.yul\":9683:9686   */\n      dup3\n        /* \"#utility.yul\":9594:9687   */\n      tag_552\n      jump\t// in\n    tag_551:\n        /* \"#utility.yul\":9712:9714   */\n      0x40\n        /* \"#utility.yul\":9707:9710   */\n      dup3\n        /* \"#utility.yul\":9703:9715   */\n      add\n        /* \"#utility.yul\":9696:9715   */\n      swap1\n      pop\n        /* \"#utility.yul\":9355:9721   */\n      swap2\n      swap1\n      pop\n      jump\t// out\n        /* \"#utility.yul\":9727:10093   */\n    tag_553:\n        /* \"#utility.yul\":9869:9872   */\n      0x00\n        /* \"#utility.yul\":9890:9957   */\n      tag_555\n        /* \"#utility.yul\":9954:9956   */\n      0x18\n        /* \"#utility.yul\":9949:9952   */\n      dup4\n        /* \"#utility.yul\":9890:9957   */\n      tag_482\n      jump\t// in\n    tag_555:\n        /* \"#utility.yul\":9883:9957   */\n      swap2\n      pop\n        /* \"#utility.yul\":9966:10059   */\n      tag_556\n        /* \"#utility.yul\":10055:10058   */\n      dup3\n        /* \"#utility.yul\":9966:10059   */\n      tag_557\n      jump\t// in\n    tag_556:\n        /* \"#utility.yul\":10084:10086   */\n      0x20\n        /* \"#utility.yul\":10079:10082   */\n      dup3\n        /* \"#utility.yul\":10075:10087   */\n      add\n        /* \"#utility.yul\":10068:10087   */\n      swap1\n      pop\n        /* \"#utility.yul\":9727:10093   */\n      swap2\n      swap1\n      pop\n      jump\t// out\n        /* \"#utility.yul\":10099:10465   */\n    tag_558:\n        /* \"#utility.yul\":10241:10244   */\n      0x00\n        /* \"#utility.yul\":10262:10329   */\n      tag_560\n        /* \"#utility.yul\":10326:10328   */\n      0x24\n        /* \"#utility.yul\":10321:10324   */\n      dup4\n        /* \"#utility.yul\":10262:10329   */\n      tag_482\n      jump\t// in\n    tag_560:\n        /* \"#utility.yul\":10255:10329   */\n      swap2\n      pop\n        /* \"#utility.yul\":10338:10431   */\n      tag_561\n        /* \"#utility.yul\":10427:10430   */\n      dup3\n        /* \"#utility.yul\":10338:10431   */\n      tag_562\n      jump\t// in\n    tag_561:\n        /* \"#utility.yul\":10456:10458   */\n      0x40\n        /* \"#utility.yul\":10451:10454   */\n      dup3\n        /* \"#utility.yul\":10447:10459   */\n      add\n        /* \"#utility.yul\":10440:10459   */\n      swap1\n      pop\n        /* \"#utility.yul\":10099:10465   */\n      swap2\n      swap1\n      pop\n      jump\t// out\n        /* \"#utility.yul\":10471:10837   */\n    tag_563:\n        /* \"#utility.yul\":10613:10616   */\n      0x00\n        /* \"#utility.yul\":10634:10701   */\n      tag_565\n        /* \"#utility.yul\":10698:10700   */\n      0x20\n        /* \"#utility.yul\":10693:10696   */\n      dup4\n        /* \"#utility.yul\":10634:10701   */\n      tag_482\n      jump\t// in\n    tag_565:\n        /* \"#utility.yul\":10627:10701   */\n      swap2\n      pop\n        /* \"#utility.yul\":10710:10803   */\n      tag_566\n        /* \"#utility.yul\":10799:10802   */\n      dup3\n        /* \"#utility.yul\":10710:10803   */\n      tag_567\n      jump\t// in\n    tag_566:\n        /* \"#utility.yul\":10828:10830   */\n      0x20\n        /* \"#utility.yul\":10823:10826   */\n      dup3\n        /* \"#utility.yul\":10819:10831   */\n      add\n        /* \"#utility.yul\":10812:10831   */\n      swap1\n      pop\n        /* \"#utility.yul\":10471:10837   */\n      swap2\n      swap1\n      pop\n      jump\t// out\n        /* \"#utility.yul\":10843:11245   */\n    tag_568:\n        /* \"#utility.yul\":11003:11006   */\n      0x00\n        /* \"#utility.yul\":11024:11109   */\n      tag_570\n        /* \"#utility.yul\":11106:11108   */\n      0x17\n        /* \"#utility.yul\":11101:11104   */\n      dup4\n        /* \"#utility.yul\":11024:11109   */\n      tag_491\n      jump\t// in\n    tag_570:\n        /* \"#utility.yul\":11017:11109   */\n      swap2\n      pop\n        /* \"#utility.yul\":11118:11211   */\n      tag_571\n        /* \"#utility.yul\":11207:11210   */\n      dup3\n        /* \"#utility.yul\":11118:11211   */\n      tag_572\n      jump\t// in\n    tag_571:\n        /* \"#utility.yul\":11236:11238   */\n      0x17\n        /* \"#utility.yul\":11231:11234   */\n      dup3\n        /* \"#utility.yul\":11227:11239   */\n      add\n        /* \"#utility.yul\":11220:11239   */\n      swap1\n      pop\n        /* \"#utility.yul\":10843:11245   */\n      swap2\n      swap1\n      pop\n      jump\t// out\n        /* \"#utility.yul\":11251:11617   */\n    tag_573:\n        /* \"#utility.yul\":11393:11396   */\n      0x00\n        /* \"#utility.yul\":11414:11481   */\n      tag_575\n        /* \"#utility.yul\":11478:11480   */\n      0x25\n        /* \"#utility.yul\":11473:11476   */\n      dup4\n        /* \"#utility.yul\":11414:11481   */\n      tag_482\n      jump\t// in\n    tag_575:\n        /* \"#utility.yul\":11407:11481   */\n      swap2\n      pop\n        /* \"#utility.yul\":11490:11583   */\n      tag_576\n        /* \"#utility.yul\":11579:11582   */\n      dup3\n        /* \"#utility.yul\":11490:11583   */\n      tag_577\n      jump\t// in\n    tag_576:\n        /* \"#utility.yul\":11608:11610   */\n      0x40\n        /* \"#utility.yul\":11603:11606   */\n      dup3\n        /* \"#utility.yul\":11599:11611   */\n      add\n        /* \"#utility.yul\":11592:11611   */\n      swap1\n      pop\n        /* \"#utility.yul\":11251:11617   */\n      swap2\n      swap1\n      pop\n      jump\t// out\n        /* \"#utility.yul\":11623:12025   */\n    tag_578:\n        /* \"#utility.yul\":11783:11786   */\n      0x00\n        /* \"#utility.yul\":11804:11889   */\n      tag_580\n        /* \"#utility.yul\":11886:11888   */\n      0x11\n        /* \"#utility.yul\":11881:11884   */\n      dup4\n        /* \"#utility.yul\":11804:11889   */\n      tag_491\n      jump\t// in\n    tag_580:\n        /* \"#utility.yul\":11797:11889   */\n      swap2\n      pop\n        /* \"#utility.yul\":11898:11991   */\n      tag_581\n        /* \"#utility.yul\":11987:11990   */\n      dup3\n        /* \"#utility.yul\":11898:11991   */\n      tag_582\n      jump\t// in\n    tag_581:\n        /* \"#utility.yul\":12016:12018   */\n      0x11\n        /* \"#utility.yul\":12011:12014   */\n      dup3\n        /* \"#utility.yul\":12007:12019   */\n      add\n        /* \"#utility.yul\":12000:12019   */\n      swap1\n      pop\n        /* \"#utility.yul\":11623:12025   */\n      swap2\n      swap1\n      pop\n      jump\t// out\n        /* \"#utility.yul\":12031:12397   */\n    tag_583:\n        /* \"#utility.yul\":12173:12176   */\n      0x00\n        /* \"#utility.yul\":12194:12261   */\n      tag_585\n        /* \"#utility.yul\":12258:12260   */\n      0x2f\n        /* \"#utility.yul\":12253:12256   */\n      dup4\n        /* \"#utility.yul\":12194:12261   */\n      tag_482\n      jump\t// in\n    tag_585:\n        /* \"#utility.yul\":12187:12261   */\n      swap2\n      pop\n        /* \"#utility.yul\":12270:12363   */\n      tag_586\n        /* \"#utility.yul\":12359:12362   */\n      dup3\n        /* \"#utility.yul\":12270:12363   */\n      tag_587\n      jump\t// in\n    tag_586:\n        /* \"#utility.yul\":12388:12390   */\n      0x40\n        /* \"#utility.yul\":12383:12386   */\n      dup3\n        /* \"#utility.yul\":12379:12391   */\n      add\n        /* \"#utility.yul\":12372:12391   */\n      swap1\n      pop\n        /* \"#utility.yul\":12031:12397   */\n      swap2\n      swap1\n      pop\n      jump\t// out\n        /* \"#utility.yul\":12403:12769   */\n    tag_588:\n        /* \"#utility.yul\":12545:12548   */\n      0x00\n        /* \"#utility.yul\":12566:12633   */\n      tag_590\n        /* \"#utility.yul\":12630:12632   */\n      0x1f\n        /* \"#utility.yul\":12625:12628   */\n      dup4\n        /* \"#utility.yul\":12566:12633   */\n      tag_482\n      jump\t// in\n    tag_590:\n        /* \"#utility.yul\":12559:12633   */\n      swap2\n      pop\n        /* \"#utility.yul\":12642:12735   */\n      tag_591\n        /* \"#utility.yul\":12731:12734   */\n      dup3\n        /* \"#utility.yul\":12642:12735   */\n      tag_592\n      jump\t// in\n    tag_591:\n        /* \"#utility.yul\":12760:12762   */\n      0x20\n        /* \"#utility.yul\":12755:12758   */\n      dup3\n        /* \"#utility.yul\":12751:12763   */\n      add\n        /* \"#utility.yul\":12744:12763   */\n      swap1\n      pop\n        /* \"#utility.yul\":12403:12769   */\n      swap2\n      swap1\n      pop\n      jump\t// out\n        /* \"#utility.yul\":12775:12893   */\n    tag_593:\n        /* \"#utility.yul\":12862:12886   */\n      tag_595\n        /* \"#utility.yul\":12880:12885   */\n      dup2\n        /* \"#utility.yul\":12862:12886   */\n      tag_596\n      jump\t// in\n    tag_595:\n        /* \"#utility.yul\":12857:12860   */\n      dup3\n        /* \"#utility.yul\":12850:12887   */\n      mstore\n        /* \"#utility.yul\":12775:12893   */\n      pop\n      pop\n      jump\t// out\n        /* \"#utility.yul\":12899:13011   */\n    tag_597:\n        /* \"#utility.yul\":12982:13004   */\n      tag_599\n        /* \"#utility.yul\":12998:13003   */\n      dup2\n        /* \"#utility.yul\":12982:13004   */\n      tag_600\n      jump\t// in\n    tag_599:\n        /* \"#utility.yul\":12977:12980   */\n      dup3\n        /* \"#utility.yul\":12970:13005   */\n      mstore\n        /* \"#utility.yul\":12899:13011   */\n      pop\n      pop\n      jump\t// out\n        /* \"#utility.yul\":13017:13984   */\n    tag_341:\n        /* \"#utility.yul\":13399:13402   */\n      0x00\n        /* \"#utility.yul\":13421:13569   */\n      tag_602\n        /* \"#utility.yul\":13565:13568   */\n      dup3\n        /* \"#utility.yul\":13421:13569   */\n      tag_568\n      jump\t// in\n    tag_602:\n        /* \"#utility.yul\":13414:13569   */\n      swap2\n      pop\n        /* \"#utility.yul\":13586:13681   */\n      tag_603\n        /* \"#utility.yul\":13677:13680   */\n      dup3\n        /* \"#utility.yul\":13668:13674   */\n      dup6\n        /* \"#utility.yul\":13586:13681   */\n      tag_487\n      jump\t// in\n    tag_603:\n        /* \"#utility.yul\":13579:13681   */\n      swap2\n      pop\n        /* \"#utility.yul\":13698:13846   */\n      tag_604\n        /* \"#utility.yul\":13842:13845   */\n      dup3\n        /* \"#utility.yul\":13698:13846   */\n      tag_578\n      jump\t// in\n    tag_604:\n        /* \"#utility.yul\":13691:13846   */\n      swap2\n      pop\n        /* \"#utility.yul\":13863:13958   */\n      tag_605\n        /* \"#utility.yul\":13954:13957   */\n      dup3\n        /* \"#utility.yul\":13945:13951   */\n      dup5\n        /* \"#utility.yul\":13863:13958   */\n      tag_487\n      jump\t// in\n    tag_605:\n        /* \"#utility.yul\":13856:13958   */\n      swap2\n      pop\n        /* \"#utility.yul\":13975:13978   */\n      dup2\n        /* \"#utility.yul\":13968:13978   */\n      swap1\n      pop\n        /* \"#utility.yul\":13017:13984   */\n      swap4\n      swap3\n      pop\n      pop\n      pop\n      jump\t// out\n        /* \"#utility.yul\":13990:14322   */\n    tag_244:\n        /* \"#utility.yul\":14111:14115   */\n      0x00\n        /* \"#utility.yul\":14149:14151   */\n      0x40\n        /* \"#utility.yul\":14138:14147   */\n      dup3\n        /* \"#utility.yul\":14134:14152   */\n      add\n        /* \"#utility.yul\":14126:14152   */\n      swap1\n      pop\n        /* \"#utility.yul\":14162:14233   */\n      tag_607\n        /* \"#utility.yul\":14230:14231   */\n      0x00\n        /* \"#utility.yul\":14219:14228   */\n      dup4\n        /* \"#utility.yul\":14215:14232   */\n      add\n        /* \"#utility.yul\":14206:14212   */\n      dup6\n        /* \"#utility.yul\":14162:14233   */\n      tag_465\n      jump\t// in\n    tag_607:\n        /* \"#utility.yul\":14243:14315   */\n      tag_608\n        /* \"#utility.yul\":14311:14313   */\n      0x20\n        /* \"#utility.yul\":14300:14309   */\n      dup4\n        /* \"#utility.yul\":14296:14314   */\n      add\n        /* \"#utility.yul\":14287:14293   */\n      dup5\n        /* \"#utility.yul\":14243:14315   */\n      tag_593\n      jump\t// in\n    tag_608:\n        /* \"#utility.yul\":13990:14322   */\n      swap4\n      swap3\n      pop\n      pop\n      pop\n      jump\t// out\n        /* \"#utility.yul\":14328:14538   */\n    tag_45:\n        /* \"#utility.yul\":14415:14419   */\n      0x00\n        /* \"#utility.yul\":14453:14455   */\n      0x20\n        /* \"#utility.yul\":14442:14451   */\n      dup3\n        /* \"#utility.yul\":14438:14456   */\n      add\n        /* \"#utility.yul\":14430:14456   */\n      swap1\n      pop\n        /* \"#utility.yul\":14466:14531   */\n      tag_610\n        /* \"#utility.yul\":14528:14529   */\n      0x00\n        /* \"#utility.yul\":14517:14526   */\n      dup4\n        /* \"#utility.yul\":14513:14530   */\n      add\n        /* \"#utility.yul\":14504:14510   */\n      dup5\n        /* \"#utility.yul\":14466:14531   */\n      tag_469\n      jump\t// in\n    tag_610:\n        /* \"#utility.yul\":14328:14538   */\n      swap3\n      swap2\n      pop\n      pop\n      jump\t// out\n        /* \"#utility.yul\":14544:14766   */\n    tag_74:\n        /* \"#utility.yul\":14637:14641   */\n      0x00\n        /* \"#utility.yul\":14675:14677   */\n      0x20\n        /* \"#utility.yul\":14664:14673   */\n      dup3\n        /* \"#utility.yul\":14660:14678   */\n      add\n        /* \"#utility.yul\":14652:14678   */\n      swap1\n      pop\n        /* \"#utility.yul\":14688:14759   */\n      tag_612\n        /* \"#utility.yul\":14756:14757   */\n      0x00\n        /* \"#utility.yul\":14745:14754   */\n      dup4\n        /* \"#utility.yul\":14741:14758   */\n      add\n        /* \"#utility.yul\":14732:14738   */\n      dup5\n        /* \"#utility.yul\":14688:14759   */\n      tag_473\n      jump\t// in\n    tag_612:\n        /* \"#utility.yul\":14544:14766   */\n      swap3\n      swap2\n      pop\n      pop\n      jump\t// out\n        /* \"#utility.yul\":14772:15085   */\n    tag_50:\n        /* \"#utility.yul\":14885:14889   */\n      0x00\n        /* \"#utility.yul\":14923:14925   */\n      0x20\n        /* \"#utility.yul\":14912:14921   */\n      dup3\n        /* \"#utility.yul\":14908:14926   */\n      add\n        /* \"#utility.yul\":14900:14926   */\n      swap1\n      pop\n        /* \"#utility.yul\":14972:14981   */\n      dup2\n        /* \"#utility.yul\":14966:14970   */\n      dup2\n        /* \"#utility.yul\":14962:14982   */\n      sub\n        /* \"#utility.yul\":14958:14959   */\n      0x00\n        /* \"#utility.yul\":14947:14956   */\n      dup4\n        /* \"#utility.yul\":14943:14960   */\n      add\n        /* \"#utility.yul\":14936:14983   */\n      mstore\n        /* \"#utility.yul\":15000:15078   */\n      tag_614\n        /* \"#utility.yul\":15073:15077   */\n      dup2\n        /* \"#utility.yul\":15064:15070   */\n      dup5\n        /* \"#utility.yul\":15000:15078   */\n      tag_477\n      jump\t// in\n    tag_614:\n        /* \"#utility.yul\":14992:15078   */\n      swap1\n      pop\n        /* \"#utility.yul\":14772:15085   */\n      swap3\n      swap2\n      pop\n      pop\n      jump\t// out\n        /* \"#utility.yul\":15091:15510   */\n    tag_405:\n        /* \"#utility.yul\":15257:15261   */\n      0x00\n        /* \"#utility.yul\":15295:15297   */\n      0x20\n        /* \"#utility.yul\":15284:15293   */\n      dup3\n        /* \"#utility.yul\":15280:15298   */\n      add\n        /* \"#utility.yul\":15272:15298   */\n      swap1\n      pop\n        /* \"#utility.yul\":15344:15353   */\n      dup2\n        /* \"#utility.yul\":15338:15342   */\n      dup2\n        /* \"#utility.yul\":15334:15354   */\n      sub\n        /* \"#utility.yul\":15330:15331   */\n      0x00\n        /* \"#utility.yul\":15319:15328   */\n      dup4\n        /* \"#utility.yul\":15315:15332   */\n      add\n        /* \"#utility.yul\":15308:15355   */\n      mstore\n        /* \"#utility.yul\":15372:15503   */\n      tag_616\n        /* \"#utility.yul\":15498:15502   */\n      dup2\n        /* \"#utility.yul\":15372:15503   */\n      tag_493\n      jump\t// in\n    tag_616:\n        /* \"#utility.yul\":15364:15503   */\n      swap1\n      pop\n        /* \"#utility.yul\":15091:15510   */\n      swap2\n      swap1\n      pop\n      jump\t// out\n        /* \"#utility.yul\":15516:15935   */\n    tag_324:\n        /* \"#utility.yul\":15682:15686   */\n      0x00\n        /* \"#utility.yul\":15720:15722   */\n      0x20\n        /* \"#utility.yul\":15709:15718   */\n      dup3\n        /* \"#utility.yul\":15705:15723   */\n      add\n        /* \"#utility.yul\":15697:15723   */\n      swap1\n      pop\n        /* \"#utility.yul\":15769:15778   */\n      dup2\n        /* \"#utility.yul\":15763:15767   */\n      dup2\n        /* \"#utility.yul\":15759:15779   */\n      sub\n        /* \"#utility.yul\":15755:15756   */\n      0x00\n        /* \"#utility.yul\":15744:15753   */\n      dup4\n        /* \"#utility.yul\":15740:15757   */\n      add\n        /* \"#utility.yul\":15733:15780   */\n      mstore\n        /* \"#utility.yul\":15797:15928   */\n      tag_618\n        /* \"#utility.yul\":15923:15927   */\n      dup2\n        /* \"#utility.yul\":15797:15928   */\n      tag_498\n      jump\t// in\n    tag_618:\n        /* \"#utility.yul\":15789:15928   */\n      swap1\n      pop\n        /* \"#utility.yul\":15516:15935   */\n      swap2\n      swap1\n      pop\n      jump\t// out\n        /* \"#utility.yul\":15941:16360   */\n    tag_376:\n        /* \"#utility.yul\":16107:16111   */\n      0x00\n        /* \"#utility.yul\":16145:16147   */\n      0x20\n        /* \"#utility.yul\":16134:16143   */\n      dup3\n        /* \"#utility.yul\":16130:16148   */\n      add\n        /* \"#utility.yul\":16122:16148   */\n      swap1\n      pop\n        /* \"#utility.yul\":16194:16203   */\n      dup2\n        /* \"#utility.yul\":16188:16192   */\n      dup2\n        /* \"#utility.yul\":16184:16204   */\n      sub\n        /* \"#utility.yul\":16180:16181   */\n      0x00\n        /* \"#utility.yul\":16169:16178   */\n      dup4\n        /* \"#utility.yul\":16165:16182   */\n      add\n        /* \"#utility.yul\":16158:16205   */\n      mstore\n        /* \"#utility.yul\":16222:16353   */\n      tag_620\n        /* \"#utility.yul\":16348:16352   */\n      dup2\n        /* \"#utility.yul\":16222:16353   */\n      tag_503\n      jump\t// in\n    tag_620:\n        /* \"#utility.yul\":16214:16353   */\n      swap1\n      pop\n        /* \"#utility.yul\":15941:16360   */\n      swap2\n      swap1\n      pop\n      jump\t// out\n        /* \"#utility.yul\":16366:16785   */\n    tag_369:\n        /* \"#utility.yul\":16532:16536   */\n      0x00\n        /* \"#utility.yul\":16570:16572   */\n      0x20\n        /* \"#utility.yul\":16559:16568   */\n      dup3\n        /* \"#utility.yul\":16555:16573   */\n      add\n        /* \"#utility.yul\":16547:16573   */\n      swap1\n      pop\n        /* \"#utility.yul\":16619:16628   */\n      dup2\n        /* \"#utility.yul\":16613:16617   */\n      dup2\n        /* \"#utility.yul\":16609:16629   */\n      sub\n        /* \"#utility.yul\":16605:16606   */\n      0x00\n        /* \"#utility.yul\":16594:16603   */\n      dup4\n        /* \"#utility.yul\":16590:16607   */\n      add\n        /* \"#utility.yul\":16583:16630   */\n      mstore\n        /* \"#utility.yul\":16647:16778   */\n      tag_622\n        /* \"#utility.yul\":16773:16777   */\n      dup2\n        /* \"#utility.yul\":16647:16778   */\n      tag_508\n      jump\t// in\n    tag_622:\n        /* \"#utility.yul\":16639:16778   */\n      swap1\n      pop\n        /* \"#utility.yul\":16366:16785   */\n      swap2\n      swap1\n      pop\n      jump\t// out\n        /* \"#utility.yul\":16791:17210   */\n    tag_309:\n        /* \"#utility.yul\":16957:16961   */\n      0x00\n        /* \"#utility.yul\":16995:16997   */\n      0x20\n        /* \"#utility.yul\":16984:16993   */\n      dup3\n        /* \"#utility.yul\":16980:16998   */\n      add\n        /* \"#utility.yul\":16972:16998   */\n      swap1\n      pop\n        /* \"#utility.yul\":17044:17053   */\n      dup2\n        /* \"#utility.yul\":17038:17042   */\n      dup2\n        /* \"#utility.yul\":17034:17054   */\n      sub\n        /* \"#utility.yul\":17030:17031   */\n      0x00\n        /* \"#utility.yul\":17019:17028   */\n      dup4\n        /* \"#utility.yul\":17015:17032   */\n      add\n        /* \"#utility.yul\":17008:17055   */\n      mstore\n        /* \"#utility.yul\":17072:17203   */\n      tag_624\n        /* \"#utility.yul\":17198:17202   */\n      dup2\n        /* \"#utility.yul\":17072:17203   */\n      tag_513\n      jump\t// in\n    tag_624:\n        /* \"#utility.yul\":17064:17203   */\n      swap1\n      pop\n        /* \"#utility.yul\":16791:17210   */\n      swap2\n      swap1\n      pop\n      jump\t// out\n        /* \"#utility.yul\":17216:17635   */\n    tag_316:\n        /* \"#utility.yul\":17382:17386   */\n      0x00\n        /* \"#utility.yul\":17420:17422   */\n      0x20\n        /* \"#utility.yul\":17409:17418   */\n      dup3\n        /* \"#utility.yul\":17405:17423   */\n      add\n        /* \"#utility.yul\":17397:17423   */\n      swap1\n      pop\n        /* \"#utility.yul\":17469:17478   */\n      dup2\n        /* \"#utility.yul\":17463:17467   */\n      dup2\n        /* \"#utility.yul\":17459:17479   */\n      sub\n        /* \"#utility.yul\":17455:17456   */\n      0x00\n        /* \"#utility.yul\":17444:17453   */\n      dup4\n        /* \"#utility.yul\":17440:17457   */\n      add\n        /* \"#utility.yul\":17433:17480   */\n      mstore\n        /* \"#utility.yul\":17497:17628   */\n      tag_626\n        /* \"#utility.yul\":17623:17627   */\n      dup2\n        /* \"#utility.yul\":17497:17628   */\n      tag_518\n      jump\t// in\n    tag_626:\n        /* \"#utility.yul\":17489:17628   */\n      swap1\n      pop\n        /* \"#utility.yul\":17216:17635   */\n      swap2\n      swap1\n      pop\n      jump\t// out\n        /* \"#utility.yul\":17641:18060   */\n    tag_329:\n        /* \"#utility.yul\":17807:17811   */\n      0x00\n        /* \"#utility.yul\":17845:17847   */\n      0x20\n        /* \"#utility.yul\":17834:17843   */\n      dup3\n        /* \"#utility.yul\":17830:17848   */\n      add\n        /* \"#utility.yul\":17822:17848   */\n      swap1\n      pop\n        /* \"#utility.yul\":17894:17903   */\n      dup2\n        /* \"#utility.yul\":17888:17892   */\n      dup2\n        /* \"#utility.yul\":17884:17904   */\n      sub\n        /* \"#utility.yul\":17880:17881   */\n      0x00\n        /* \"#utility.yul\":17869:17878   */\n      dup4\n        /* \"#utility.yul\":17865:17882   */\n      add\n        /* \"#utility.yul\":17858:17905   */\n      mstore\n        /* \"#utility.yul\":17922:18053   */\n      tag_628\n        /* \"#utility.yul\":18048:18052   */\n      dup2\n        /* \"#utility.yul\":17922:18053   */\n      tag_523\n      jump\t// in\n    tag_628:\n        /* \"#utility.yul\":17914:18053   */\n      swap1\n      pop\n        /* \"#utility.yul\":17641:18060   */\n      swap2\n      swap1\n      pop\n      jump\t// out\n        /* \"#utility.yul\":18066:18485   */\n    tag_239:\n        /* \"#utility.yul\":18232:18236   */\n      0x00\n        /* \"#utility.yul\":18270:18272   */\n      0x20\n        /* \"#utility.yul\":18259:18268   */\n      dup3\n        /* \"#utility.yul\":18255:18273   */\n      add\n        /* \"#utility.yul\":18247:18273   */\n      swap1\n      pop\n        /* \"#utility.yul\":18319:18328   */\n      dup2\n        /* \"#utility.yul\":18313:18317   */\n      dup2\n        /* \"#utility.yul\":18309:18329   */\n      sub\n        /* \"#utility.yul\":18305:18306   */\n      0x00\n        /* \"#utility.yul\":18294:18303   */\n      dup4\n        /* \"#utility.yul\":18290:18307   */\n      add\n        /* \"#utility.yul\":18283:18330   */\n      mstore\n        /* \"#utility.yul\":18347:18478   */\n      tag_630\n        /* \"#utility.yul\":18473:18477   */\n      dup2\n        /* \"#utility.yul\":18347:18478   */\n      tag_528\n      jump\t// in\n    tag_630:\n        /* \"#utility.yul\":18339:18478   */\n      swap1\n      pop\n        /* \"#utility.yul\":18066:18485   */\n      swap2\n      swap1\n      pop\n      jump\t// out\n        /* \"#utility.yul\":18491:18910   */\n    tag_233:\n        /* \"#utility.yul\":18657:18661   */\n      0x00\n        /* \"#utility.yul\":18695:18697   */\n      0x20\n        /* \"#utility.yul\":18684:18693   */\n      dup3\n        /* \"#utility.yul\":18680:18698   */\n      add\n        /* \"#utility.yul\":18672:18698   */\n      swap1\n      pop\n        /* \"#utility.yul\":18744:18753   */\n      dup2\n        /* \"#utility.yul\":18738:18742   */\n      dup2\n        /* \"#utility.yul\":18734:18754   */\n      sub\n        /* \"#utility.yul\":18730:18731   */\n      0x00\n        /* \"#utility.yul\":18719:18728   */\n      dup4\n        /* \"#utility.yul\":18715:18732   */\n      add\n        /* \"#utility.yul\":18708:18755   */\n      mstore\n        /* \"#utility.yul\":18772:18903   */\n      tag_632\n        /* \"#utility.yul\":18898:18902   */\n      dup2\n        /* \"#utility.yul\":18772:18903   */\n      tag_533\n      jump\t// in\n    tag_632:\n        /* \"#utility.yul\":18764:18903   */\n      swap1\n      pop\n        /* \"#utility.yul\":18491:18910   */\n      swap2\n      swap1\n      pop\n      jump\t// out\n        /* \"#utility.yul\":18916:19335   */\n    tag_275:\n        /* \"#utility.yul\":19082:19086   */\n      0x00\n        /* \"#utility.yul\":19120:19122   */\n      0x20\n        /* \"#utility.yul\":19109:19118   */\n      dup3\n        /* \"#utility.yul\":19105:19123   */\n      add\n        /* \"#utility.yul\":19097:19123   */\n      swap1\n      pop\n        /* \"#utility.yul\":19169:19178   */\n      dup2\n        /* \"#utility.yul\":19163:19167   */\n      dup2\n        /* \"#utility.yul\":19159:19179   */\n      sub\n        /* \"#utility.yul\":19155:19156   */\n      0x00\n        /* \"#utility.yul\":19144:19153   */\n      dup4\n        /* \"#utility.yul\":19140:19157   */\n      add\n        /* \"#utility.yul\":19133:19180   */\n      mstore\n        /* \"#utility.yul\":19197:19328   */\n      tag_634\n        /* \"#utility.yul\":19323:19327   */\n      dup2\n        /* \"#utility.yul\":19197:19328   */\n      tag_538\n      jump\t// in\n    tag_634:\n        /* \"#utility.yul\":19189:19328   */\n      swap1\n      pop\n        /* \"#utility.yul\":18916:19335   */\n      swap2\n      swap1\n      pop\n      jump\t// out\n        /* \"#utility.yul\":19341:19760   */\n    tag_365:\n        /* \"#utility.yul\":19507:19511   */\n      0x00\n        /* \"#utility.yul\":19545:19547   */\n      0x20\n        /* \"#utility.yul\":19534:19543   */\n      dup3\n        /* \"#utility.yul\":19530:19548   */\n      add\n        /* \"#utility.yul\":19522:19548   */\n      swap1\n      pop\n        /* \"#utility.yul\":19594:19603   */\n      dup2\n        /* \"#utility.yul\":19588:19592   */\n      dup2\n        /* \"#utility.yul\":19584:19604   */\n      sub\n        /* \"#utility.yul\":19580:19581   */\n      0x00\n        /* \"#utility.yul\":19569:19578   */\n      dup4\n        /* \"#utility.yul\":19565:19582   */\n      add\n        /* \"#utility.yul\":19558:19605   */\n      mstore\n        /* \"#utility.yul\":19622:19753   */\n      tag_636\n        /* \"#utility.yul\":19748:19752   */\n      dup2\n        /* \"#utility.yul\":19622:19753   */\n      tag_543\n      jump\t// in\n    tag_636:\n        /* \"#utility.yul\":19614:19753   */\n      swap1\n      pop\n        /* \"#utility.yul\":19341:19760   */\n      swap2\n      swap1\n      pop\n      jump\t// out\n        /* \"#utility.yul\":19766:20185   */\n    tag_321:\n        /* \"#utility.yul\":19932:19936   */\n      0x00\n        /* \"#utility.yul\":19970:19972   */\n      0x20\n        /* \"#utility.yul\":19959:19968   */\n      dup3\n        /* \"#utility.yul\":19955:19973   */\n      add\n        /* \"#utility.yul\":19947:19973   */\n      swap1\n      pop\n        /* \"#utility.yul\":20019:20028   */\n      dup2\n        /* \"#utility.yul\":20013:20017   */\n      dup2\n        /* \"#utility.yul\":20009:20029   */\n      sub\n        /* \"#utility.yul\":20005:20006   */\n      0x00\n        /* \"#utility.yul\":19994:20003   */\n      dup4\n        /* \"#utility.yul\":19990:20007   */\n      add\n        /* \"#utility.yul\":19983:20030   */\n      mstore\n        /* \"#utility.yul\":20047:20178   */\n      tag_638\n        /* \"#utility.yul\":20173:20177   */\n      dup2\n        /* \"#utility.yul\":20047:20178   */\n      tag_548\n      jump\t// in\n    tag_638:\n        /* \"#utility.yul\":20039:20178   */\n      swap1\n      pop\n        /* \"#utility.yul\":19766:20185   */\n      swap2\n      swap1\n      pop\n      jump\t// out\n        /* \"#utility.yul\":20191:20610   */\n    tag_255:\n        /* \"#utility.yul\":20357:20361   */\n      0x00\n        /* \"#utility.yul\":20395:20397   */\n      0x20\n        /* \"#utility.yul\":20384:20393   */\n      dup3\n        /* \"#utility.yul\":20380:20398   */\n      add\n        /* \"#utility.yul\":20372:20398   */\n      swap1\n      pop\n        /* \"#utility.yul\":20444:20453   */\n      dup2\n        /* \"#utility.yul\":20438:20442   */\n      dup2\n        /* \"#utility.yul\":20434:20454   */\n      sub\n        /* \"#utility.yul\":20430:20431   */\n      0x00\n        /* \"#utility.yul\":20419:20428   */\n      dup4\n        /* \"#utility.yul\":20415:20432   */\n      add\n        /* \"#utility.yul\":20408:20455   */\n      mstore\n        /* \"#utility.yul\":20472:20603   */\n      tag_640\n        /* \"#utility.yul\":20598:20602   */\n      dup2\n        /* \"#utility.yul\":20472:20603   */\n      tag_553\n      jump\t// in\n    tag_640:\n        /* \"#utility.yul\":20464:20603   */\n      swap1\n      pop\n        /* \"#utility.yul\":20191:20610   */\n      swap2\n      swap1\n      pop\n      jump\t// out\n        /* \"#utility.yul\":20616:21035   */\n    tag_306:\n        /* \"#utility.yul\":20782:20786   */\n      0x00\n        /* \"#utility.yul\":20820:20822   */\n      0x20\n        /* \"#utility.yul\":20809:20818   */\n      dup3\n        /* \"#utility.yul\":20805:20823   */\n      add\n        /* \"#utility.yul\":20797:20823   */\n      swap1\n      pop\n        /* \"#utility.yul\":20869:20878   */\n      dup2\n        /* \"#utility.yul\":20863:20867   */\n      dup2\n        /* \"#utility.yul\":20859:20879   */\n      sub\n        /* \"#utility.yul\":20855:20856   */\n      0x00\n        /* \"#utility.yul\":20844:20853   */\n      dup4\n        /* \"#utility.yul\":20840:20857   */\n      add\n        /* \"#utility.yul\":20833:20880   */\n      mstore\n        /* \"#utility.yul\":20897:21028   */\n      tag_642\n        /* \"#utility.yul\":21023:21027   */\n      dup2\n        /* \"#utility.yul\":20897:21028   */\n      tag_558\n      jump\t// in\n    tag_642:\n        /* \"#utility.yul\":20889:21028   */\n      swap1\n      pop\n        /* \"#utility.yul\":20616:21035   */\n      swap2\n      swap1\n      pop\n      jump\t// out\n        /* \"#utility.yul\":21041:21460   */\n    tag_261:\n        /* \"#utility.yul\":21207:21211   */\n      0x00\n        /* \"#utility.yul\":21245:21247   */\n      0x20\n        /* \"#utility.yul\":21234:21243   */\n      dup3\n        /* \"#utility.yul\":21230:21248   */\n      add\n        /* \"#utility.yul\":21222:21248   */\n      swap1\n      pop\n        /* \"#utility.yul\":21294:21303   */\n      dup2\n        /* \"#utility.yul\":21288:21292   */\n      dup2\n        /* \"#utility.yul\":21284:21304   */\n      sub\n        /* \"#utility.yul\":21280:21281   */\n      0x00\n        /* \"#utility.yul\":21269:21278   */\n      dup4\n        /* \"#utility.yul\":21265:21282   */\n      add\n        /* \"#utility.yul\":21258:21305   */\n      mstore\n        /* \"#utility.yul\":21322:21453   */\n      tag_644\n        /* \"#utility.yul\":21448:21452   */\n      dup2\n        /* \"#utility.yul\":21322:21453   */\n      tag_563\n      jump\t// in\n    tag_644:\n        /* \"#utility.yul\":21314:21453   */\n      swap1\n      pop\n        /* \"#utility.yul\":21041:21460   */\n      swap2\n      swap1\n      pop\n      jump\t// out\n        /* \"#utility.yul\":21466:21885   */\n    tag_282:\n        /* \"#utility.yul\":21632:21636   */\n      0x00\n        /* \"#utility.yul\":21670:21672   */\n      0x20\n        /* \"#utility.yul\":21659:21668   */\n      dup3\n        /* \"#utility.yul\":21655:21673   */\n      add\n        /* \"#utility.yul\":21647:21673   */\n      swap1\n      pop\n        /* \"#utility.yul\":21719:21728   */\n      dup2\n        /* \"#utility.yul\":21713:21717   */\n      dup2\n        /* \"#utility.yul\":21709:21729   */\n      sub\n        /* \"#utility.yul\":21705:21706   */\n      0x00\n        /* \"#utility.yul\":21694:21703   */\n      dup4\n        /* \"#utility.yul\":21690:21707   */\n      add\n        /* \"#utility.yul\":21683:21730   */\n      mstore\n        /* \"#utility.yul\":21747:21878   */\n      tag_646\n        /* \"#utility.yul\":21873:21877   */\n      dup2\n        /* \"#utility.yul\":21747:21878   */\n      tag_573\n      jump\t// in\n    tag_646:\n        /* \"#utility.yul\":21739:21878   */\n      swap1\n      pop\n        /* \"#utility.yul\":21466:21885   */\n      swap2\n      swap1\n      pop\n      jump\t// out\n        /* \"#utility.yul\":21891:22310   */\n    tag_220:\n        /* \"#utility.yul\":22057:22061   */\n      0x00\n        /* \"#utility.yul\":22095:22097   */\n      0x20\n        /* \"#utility.yul\":22084:22093   */\n      dup3\n        /* \"#utility.yul\":22080:22098   */\n      add\n        /* \"#utility.yul\":22072:22098   */\n      swap1\n      pop\n        /* \"#utility.yul\":22144:22153   */\n      dup2\n        /* \"#utility.yul\":22138:22142   */\n      dup2\n        /* \"#utility.yul\":22134:22154   */\n      sub\n        /* \"#utility.yul\":22130:22131   */\n      0x00\n        /* \"#utility.yul\":22119:22128   */\n      dup4\n        /* \"#utility.yul\":22115:22132   */\n      add\n        /* \"#utility.yul\":22108:22155   */\n      mstore\n        /* \"#utility.yul\":22172:22303   */\n      tag_648\n        /* \"#utility.yul\":22298:22302   */\n      dup2\n        /* \"#utility.yul\":22172:22303   */\n      tag_583\n      jump\t// in\n    tag_648:\n        /* \"#utility.yul\":22164:22303   */\n      swap1\n      pop\n        /* \"#utility.yul\":21891:22310   */\n      swap2\n      swap1\n      pop\n      jump\t// out\n        /* \"#utility.yul\":22316:22735   */\n    tag_354:\n        /* \"#utility.yul\":22482:22486   */\n      0x00\n        /* \"#utility.yul\":22520:22522   */\n      0x20\n        /* \"#utility.yul\":22509:22518   */\n      dup3\n        /* \"#utility.yul\":22505:22523   */\n      add\n        /* \"#utility.yul\":22497:22523   */\n      swap1\n      pop\n        /* \"#utility.yul\":22569:22578   */\n      dup2\n        /* \"#utility.yul\":22563:22567   */\n      dup2\n        /* \"#utility.yul\":22559:22579   */\n      sub\n        /* \"#utility.yul\":22555:22556   */\n      0x00\n        /* \"#utility.yul\":22544:22553   */\n      dup4\n        /* \"#utility.yul\":22540:22557   */\n      add\n        /* \"#utility.yul\":22533:22580   */\n      mstore\n        /* \"#utility.yul\":22597:22728   */\n      tag_650\n        /* \"#utility.yul\":22723:22727   */\n      dup2\n        /* \"#utility.yul\":22597:22728   */\n      tag_588\n      jump\t// in\n    tag_650:\n        /* \"#utility.yul\":22589:22728   */\n      swap1\n      pop\n        /* \"#utility.yul\":22316:22735   */\n      swap2\n      swap1\n      pop\n      jump\t// out\n        /* \"#utility.yul\":22741:22963   */\n    tag_61:\n        /* \"#utility.yul\":22834:22838   */\n      0x00\n        /* \"#utility.yul\":22872:22874   */\n      0x20\n        /* \"#utility.yul\":22861:22870   */\n      dup3\n        /* \"#utility.yul\":22857:22875   */\n      add\n        /* \"#utility.yul\":22849:22875   */\n      swap1\n      pop\n        /* \"#utility.yul\":22885:22956   */\n      tag_652\n        /* \"#utility.yul\":22953:22954   */\n      0x00\n        /* \"#utility.yul\":22942:22951   */\n      dup4\n        /* \"#utility.yul\":22938:22955   */\n      add\n        /* \"#utility.yul\":22929:22935   */\n      dup5\n        /* \"#utility.yul\":22885:22956   */\n      tag_593\n      jump\t// in\n    tag_652:\n        /* \"#utility.yul\":22741:22963   */\n      swap3\n      swap2\n      pop\n      pop\n      jump\t// out\n        /* \"#utility.yul\":22969:23183   */\n    tag_88:\n        /* \"#utility.yul\":23058:23062   */\n      0x00\n        /* \"#utility.yul\":23096:23098   */\n      0x20\n        /* \"#utility.yul\":23085:23094   */\n      dup3\n        /* \"#utility.yul\":23081:23099   */\n      add\n        /* \"#utility.yul\":23073:23099   */\n      swap1\n      pop\n        /* \"#utility.yul\":23109:23176   */\n      tag_654\n        /* \"#utility.yul\":23173:23174   */\n      0x00\n        /* \"#utility.yul\":23162:23171   */\n      dup4\n        /* \"#utility.yul\":23158:23175   */\n      add\n        /* \"#utility.yul\":23149:23155   */\n      dup5\n        /* \"#utility.yul\":23109:23176   */\n      tag_597\n      jump\t// in\n    tag_654:\n        /* \"#utility.yul\":22969:23183   */\n      swap3\n      swap2\n      pop\n      pop\n      jump\t// out\n        /* \"#utility.yul\":23270:23369   */\n    tag_480:\n        /* \"#utility.yul\":23322:23328   */\n      0x00\n        /* \"#utility.yul\":23356:23361   */\n      dup2\n        /* \"#utility.yul\":23350:23362   */\n      mload\n        /* \"#utility.yul\":23340:23362   */\n      swap1\n      pop\n        /* \"#utility.yul\":23270:23369   */\n      swap2\n      swap1\n      pop\n      jump\t// out\n        /* \"#utility.yul\":23375:23544   */\n    tag_482:\n        /* \"#utility.yul\":23459:23470   */\n      0x00\n        /* \"#utility.yul\":23493:23499   */\n      dup3\n        /* \"#utility.yul\":23488:23491   */\n      dup3\n        /* \"#utility.yul\":23481:23500   */\n      mstore\n        /* \"#utility.yul\":23533:23537   */\n      0x20\n        /* \"#utility.yul\":23528:23531   */\n      dup3\n        /* \"#utility.yul\":23524:23538   */\n      add\n        /* \"#utility.yul\":23509:23538   */\n      swap1\n      pop\n        /* \"#utility.yul\":23375:23544   */\n      swap3\n      swap2\n      pop\n      pop\n      jump\t// out\n        /* \"#utility.yul\":23550:23698   */\n    tag_491:\n        /* \"#utility.yul\":23652:23663   */\n      0x00\n        /* \"#utility.yul\":23689:23692   */\n      dup2\n        /* \"#utility.yul\":23674:23692   */\n      swap1\n      pop\n        /* \"#utility.yul\":23550:23698   */\n      swap3\n      swap2\n      pop\n      pop\n      jump\t// out\n        /* \"#utility.yul\":23704:24009   */\n    tag_227:\n        /* \"#utility.yul\":23744:23747   */\n      0x00\n        /* \"#utility.yul\":23763:23783   */\n      tag_661\n        /* \"#utility.yul\":23781:23782   */\n      dup3\n        /* \"#utility.yul\":23763:23783   */\n      tag_596\n      jump\t// in\n    tag_661:\n        /* \"#utility.yul\":23758:23783   */\n      swap2\n      pop\n        /* \"#utility.yul\":23797:23817   */\n      tag_662\n        /* \"#utility.yul\":23815:23816   */\n      dup4\n        /* \"#utility.yul\":23797:23817   */\n      tag_596\n      jump\t// in\n    tag_662:\n        /* \"#utility.yul\":23792:23817   */\n      swap3\n      pop\n        /* \"#utility.yul\":23951:23952   */\n      dup3\n        /* \"#utility.yul\":23883:23949   */\n      0xffffffffffffffffffffffffffffffffffffffffffffffffffffffffffffffff\n        /* \"#utility.yul\":23879:23953   */\n      sub\n        /* \"#utility.yul\":23876:23877   */\n      dup3\n        /* \"#utility.yul\":23873:23954   */\n      gt\n        /* \"#utility.yul\":23870:23977   */\n      iszero\n      tag_663\n      jumpi\n        /* \"#utility.yul\":23957:23975   */\n      tag_664\n      tag_665\n      jump\t// in\n    tag_664:\n        /* \"#utility.yul\":23870:23977   */\n    tag_663:\n        /* \"#utility.yul\":24001:24002   */\n      dup3\n        /* \"#utility.yul\":23998:23999   */\n      dup3\n        /* \"#utility.yul\":23994:24003   */\n      add\n        /* \"#utility.yul\":23987:24003   */\n      swap1\n      pop\n        /* \"#utility.yul\":23704:24009   */\n      swap3\n      swap2\n      pop\n      pop\n      jump\t// out\n        /* \"#utility.yul\":24015:24363   */\n    tag_242:\n        /* \"#utility.yul\":24055:24062   */\n      0x00\n        /* \"#utility.yul\":24078:24098   */\n      tag_667\n        /* \"#utility.yul\":24096:24097   */\n      dup3\n        /* \"#utility.yul\":24078:24098   */\n      tag_596\n      jump\t// in\n    tag_667:\n        /* \"#utility.yul\":24073:24098   */\n      swap2\n      pop\n        /* \"#utility.yul\":24112:24132   */\n      tag_668\n        /* \"#utility.yul\":24130:24131   */\n      dup4\n        /* \"#utility.yul\":24112:24132   */\n      tag_596\n      jump\t// in\n    tag_668:\n        /* \"#utility.yul\":24107:24132   */\n      swap3\n      pop\n        /* \"#utility.yul\":24300:24301   */\n      dup2\n        /* \"#utility.yul\":24232:24298   */\n      0xffffffffffffffffffffffffffffffffffffffffffffffffffffffffffffffff\n        /* \"#utility.yul\":24228:24302   */\n      div\n        /* \"#utility.yul\":24225:24226   */\n      dup4\n        /* \"#utility.yul\":24222:24303   */\n      gt\n        /* \"#utility.yul\":24217:24218   */\n      dup3\n        /* \"#utility.yul\":24210:24219   */\n      iszero\n        /* \"#utility.yul\":24203:24220   */\n      iszero\n        /* \"#utility.yul\":24199:24304   */\n      and\n        /* \"#utility.yul\":24196:24327   */\n      iszero\n      tag_669\n      jumpi\n        /* \"#utility.yul\":24307:24325   */\n      tag_670\n      tag_665\n      jump\t// in\n    tag_670:\n        /* \"#utility.yul\":24196:24327   */\n    tag_669:\n        /* \"#utility.yul\":24355:24356   */\n      dup3\n        /* \"#utility.yul\":24352:24353   */\n      dup3\n        /* \"#utility.yul\":24348:24357   */\n      mul\n        /* \"#utility.yul\":24337:24357   */\n      swap1\n      pop\n        /* \"#utility.yul\":24015:24363   */\n      swap3\n      swap2\n      pop\n      pop\n      jump\t// out\n        /* \"#utility.yul\":24369:24560   */\n    tag_257:\n        /* \"#utility.yul\":24409:24413   */\n      0x00\n        /* \"#utility.yul\":24429:24449   */\n      tag_672\n        /* \"#utility.yul\":24447:24448   */\n      dup3\n        /* \"#utility.yul\":24429:24449   */\n      tag_596\n      jump\t// in\n    tag_672:\n        /* \"#utility.yul\":24424:24449   */\n      swap2\n      pop\n        /* \"#utility.yul\":24463:24483   */\n      tag_673\n        /* \"#utility.yul\":24481:24482   */\n      dup4\n        /* \"#utility.yul\":24463:24483   */\n      tag_596\n      jump\t// in\n    tag_673:\n        /* \"#utility.yul\":24458:24483   */\n      swap3\n      pop\n        /* \"#utility.yul\":24502:24503   */\n      dup3\n        /* \"#utility.yul\":24499:24500   */\n      dup3\n        /* \"#utility.yul\":24496:24504   */\n      lt\n        /* \"#utility.yul\":24493:24527   */\n      iszero\n      tag_674\n      jumpi\n        /* \"#utility.yul\":24507:24525   */\n      tag_675\n      tag_665\n      jump\t// in\n    tag_675:\n        /* \"#utility.yul\":24493:24527   */\n    tag_674:\n        /* \"#utility.yul\":24552:24553   */\n      dup3\n        /* \"#utility.yul\":24549:24550   */\n      dup3\n        /* \"#utility.yul\":24545:24554   */\n      sub\n        /* \"#utility.yul\":24537:24554   */\n      swap1\n      pop\n        /* \"#utility.yul\":24369:24560   */\n      swap3\n      swap2\n      pop\n      pop\n      jump\t// out\n        /* \"#utility.yul\":24566:24662   */\n    tag_468:\n        /* \"#utility.yul\":24603:24610   */\n      0x00\n        /* \"#utility.yul\":24632:24656   */\n      tag_677\n        /* \"#utility.yul\":24650:24655   */\n      dup3\n        /* \"#utility.yul\":24632:24656   */\n      tag_678\n      jump\t// in\n    tag_677:\n        /* \"#utility.yul\":24621:24656   */\n      swap1\n      pop\n        /* \"#utility.yul\":24566:24662   */\n      swap2\n      swap1\n      pop\n      jump\t// out\n        /* \"#utility.yul\":24668:24758   */\n    tag_472:\n        /* \"#utility.yul\":24702:24709   */\n      0x00\n        /* \"#utility.yul\":24745:24750   */\n      dup2\n        /* \"#utility.yul\":24738:24751   */\n      iszero\n        /* \"#utility.yul\":24731:24752   */\n      iszero\n        /* \"#utility.yul\":24720:24752   */\n      swap1\n      pop\n        /* \"#utility.yul\":24668:24758   */\n      swap2\n      swap1\n      pop\n      jump\t// out\n        /* \"#utility.yul\":24764:24841   */\n    tag_476:\n        /* \"#utility.yul\":24801:24808   */\n      0x00\n        /* \"#utility.yul\":24830:24835   */\n      dup2\n        /* \"#utility.yul\":24819:24835   */\n      swap1\n      pop\n        /* \"#utility.yul\":24764:24841   */\n      swap2\n      swap1\n      pop\n      jump\t// out\n        /* \"#utility.yul\":24847:24996   */\n    tag_681:\n        /* \"#utility.yul\":24883:24890   */\n      0x00\n        /* \"#utility.yul\":24923:24989   */\n      0xffffffff00000000000000000000000000000000000000000000000000000000\n        /* \"#utility.yul\":24916:24921   */\n      dup3\n        /* \"#utility.yul\":24912:24990   */\n      and\n        /* \"#utility.yul\":24901:24990   */\n      swap1\n      pop\n        /* \"#utility.yul\":24847:24996   */\n      swap2\n      swap1\n      pop\n      jump\t// out\n        /* \"#utility.yul\":25002:25128   */\n    tag_678:\n        /* \"#utility.yul\":25039:25046   */\n      0x00\n        /* \"#utility.yul\":25079:25121   */\n      0xffffffffffffffffffffffffffffffffffffffff\n        /* \"#utility.yul\":25072:25077   */\n      dup3\n        /* \"#utility.yul\":25068:25122   */\n      and\n        /* \"#utility.yul\":25057:25122   */\n      swap1\n      pop\n        /* \"#utility.yul\":25002:25128   */\n      swap2\n      swap1\n      pop\n      jump\t// out\n        /* \"#utility.yul\":25134:25211   */\n    tag_596:\n        /* \"#utility.yul\":25171:25178   */\n      0x00\n        /* \"#utility.yul\":25200:25205   */\n      dup2\n        /* \"#utility.yul\":25189:25205   */\n      swap1\n      pop\n        /* \"#utility.yul\":25134:25211   */\n      swap2\n      swap1\n      pop\n      jump\t// out\n        /* \"#utility.yul\":25217:25303   */\n    tag_600:\n        /* \"#utility.yul\":25252:25259   */\n      0x00\n        /* \"#utility.yul\":25292:25296   */\n      0xff\n        /* \"#utility.yul\":25285:25290   */\n      dup3\n        /* \"#utility.yul\":25281:25297   */\n      and\n        /* \"#utility.yul\":25270:25297   */\n      swap1\n      pop\n        /* \"#utility.yul\":25217:25303   */\n      swap2\n      swap1\n      pop\n      jump\t// out\n        /* \"#utility.yul\":25309:25616   */\n    tag_484:\n        /* \"#utility.yul\":25377:25378   */\n      0x00\n        /* \"#utility.yul\":25387:25500   */\n    tag_687:\n        /* \"#utility.yul\":25401:25407   */\n      dup4\n        /* \"#utility.yul\":25398:25399   */\n      dup2\n        /* \"#utility.yul\":25395:25408   */\n      lt\n        /* \"#utility.yul\":25387:25500   */\n      iszero\n      tag_689\n      jumpi\n        /* \"#utility.yul\":25486:25487   */\n      dup1\n        /* \"#utility.yul\":25481:25484   */\n      dup3\n        /* \"#utility.yul\":25477:25488   */\n      add\n        /* \"#utility.yul\":25471:25489   */\n      mload\n        /* \"#utility.yul\":25467:25468   */\n      dup2\n        /* \"#utility.yul\":25462:25465   */\n      dup5\n        /* \"#utility.yul\":25458:25469   */\n      add\n        /* \"#utility.yul\":25451:25490   */\n      mstore\n        /* \"#utility.yul\":25423:25425   */\n      0x20\n        /* \"#utility.yul\":25420:25421   */\n      dup2\n        /* \"#utility.yul\":25416:25426   */\n      add\n        /* \"#utility.yul\":25411:25426   */\n      swap1\n      pop\n        /* \"#utility.yul\":25387:25500   */\n      jump(tag_687)\n    tag_689:\n        /* \"#utility.yul\":25518:25524   */\n      dup4\n        /* \"#utility.yul\":25515:25516   */\n      dup2\n        /* \"#utility.yul\":25512:25525   */\n      gt\n        /* \"#utility.yul\":25509:25610   */\n      iszero\n      tag_690\n      jumpi\n        /* \"#utility.yul\":25598:25599   */\n      0x00\n        /* \"#utility.yul\":25589:25595   */\n      dup5\n        /* \"#utility.yul\":25584:25587   */\n      dup5\n        /* \"#utility.yul\":25580:25596   */\n      add\n        /* \"#utility.yul\":25573:25600   */\n      mstore\n        /* \"#utility.yul\":25509:25610   */\n    tag_690:\n        /* \"#utility.yul\":25358:25616   */\n      pop\n        /* \"#utility.yul\":25309:25616   */\n      pop\n      pop\n      pop\n      jump\t// out\n        /* \"#utility.yul\":25622:25793   */\n    tag_402:\n        /* \"#utility.yul\":25661:25664   */\n      0x00\n        /* \"#utility.yul\":25684:25708   */\n      tag_692\n        /* \"#utility.yul\":25702:25707   */\n      dup3\n        /* \"#utility.yul\":25684:25708   */\n      tag_596\n      jump\t// in\n    tag_692:\n        /* \"#utility.yul\":25675:25708   */\n      swap2\n      pop\n        /* \"#utility.yul\":25730:25734   */\n      0x00\n        /* \"#utility.yul\":25723:25728   */\n      dup3\n        /* \"#utility.yul\":25720:25735   */\n      eq\n        /* \"#utility.yul\":25717:25758   */\n      iszero\n      tag_693\n      jumpi\n        /* \"#utility.yul\":25738:25756   */\n      tag_694\n      tag_665\n      jump\t// in\n    tag_694:\n        /* \"#utility.yul\":25717:25758   */\n    tag_693:\n        /* \"#utility.yul\":25785:25786   */\n      0x01\n        /* \"#utility.yul\":25778:25783   */\n      dup3\n        /* \"#utility.yul\":25774:25787   */\n      sub\n        /* \"#utility.yul\":25767:25787   */\n      swap1\n      pop\n        /* \"#utility.yul\":25622:25793   */\n      swap2\n      swap1\n      pop\n      jump\t// out\n        /* \"#utility.yul\":25799:26119   */\n    tag_189:\n        /* \"#utility.yul\":25843:25849   */\n      0x00\n        /* \"#utility.yul\":25880:25881   */\n      0x02\n        /* \"#utility.yul\":25874:25878   */\n      dup3\n        /* \"#utility.yul\":25870:25882   */\n      div\n        /* \"#utility.yul\":25860:25882   */\n      swap1\n      pop\n        /* \"#utility.yul\":25927:25928   */\n      0x01\n        /* \"#utility.yul\":25921:25925   */\n      dup3\n        /* \"#utility.yul\":25917:25929   */\n      and\n        /* \"#utility.yul\":25948:25966   */\n      dup1\n        /* \"#utility.yul\":25938:26019   */\n      tag_696\n      jumpi\n        /* \"#utility.yul\":26004:26008   */\n      0x7f\n        /* \"#utility.yul\":25996:26002   */\n      dup3\n        /* \"#utility.yul\":25992:26009   */\n      and\n        /* \"#utility.yul\":25982:26009   */\n      swap2\n      pop\n        /* \"#utility.yul\":25938:26019   */\n    tag_696:\n        /* \"#utility.yul\":26066:26068   */\n      0x20\n        /* \"#utility.yul\":26058:26064   */\n      dup3\n        /* \"#utility.yul\":26055:26069   */\n      lt\n        /* \"#utility.yul\":26035:26053   */\n      dup2\n        /* \"#utility.yul\":26032:26070   */\n      eq\n        /* \"#utility.yul\":26029:26113   */\n      iszero\n      tag_697\n      jumpi\n        /* \"#utility.yul\":26085:26103   */\n      tag_698\n      tag_699\n      jump\t// in\n    tag_698:\n        /* \"#utility.yul\":26029:26113   */\n    tag_697:\n        /* \"#utility.yul\":25850:26119   */\n      pop\n        /* \"#utility.yul\":25799:26119   */\n      swap2\n      swap1\n      pop\n      jump\t// out\n        /* \"#utility.yul\":26125:26305   */\n    tag_665:\n        /* \"#utility.yul\":26173:26250   */\n      0x4e487b7100000000000000000000000000000000000000000000000000000000\n        /* \"#utility.yul\":26170:26171   */\n      0x00\n        /* \"#utility.yul\":26163:26251   */\n      mstore\n        /* \"#utility.yul\":26270:26274   */\n      0x11\n        /* \"#utility.yul\":26267:26268   */\n      0x04\n        /* \"#utility.yul\":26260:26275   */\n      mstore\n        /* \"#utility.yul\":26294:26298   */\n      0x24\n        /* \"#utility.yul\":26291:26292   */\n      0x00\n        /* \"#utility.yul\":26284:26299   */\n      revert\n        /* \"#utility.yul\":26311:26491   */\n    tag_699:\n        /* \"#utility.yul\":26359:26436   */\n      0x4e487b7100000000000000000000000000000000000000000000000000000000\n        /* \"#utility.yul\":26356:26357   */\n      0x00\n        /* \"#utility.yul\":26349:26437   */\n      mstore\n        /* \"#utility.yul\":26456:26460   */\n      0x22\n        /* \"#utility.yul\":26453:26454   */\n      0x04\n        /* \"#utility.yul\":26446:26461   */\n      mstore\n        /* \"#utility.yul\":26480:26484   */\n      0x24\n        /* \"#utility.yul\":26477:26478   */\n      0x00\n        /* \"#utility.yul\":26470:26485   */\n      revert\n        /* \"#utility.yul\":26497:26677   */\n    tag_389:\n        /* \"#utility.yul\":26545:26622   */\n      0x4e487b7100000000000000000000000000000000000000000000000000000000\n        /* \"#utility.yul\":26542:26543   */\n      0x00\n        /* \"#utility.yul\":26535:26623   */\n      mstore\n        /* \"#utility.yul\":26642:26646   */\n      0x32\n        /* \"#utility.yul\":26639:26640   */\n      0x04\n        /* \"#utility.yul\":26632:26647   */\n      mstore\n        /* \"#utility.yul\":26666:26670   */\n      0x24\n        /* \"#utility.yul\":26663:26664   */\n      0x00\n        /* \"#utility.yul\":26656:26671   */\n      revert\n        /* \"#utility.yul\":26683:26863   */\n    tag_385:\n        /* \"#utility.yul\":26731:26808   */\n      0x4e487b7100000000000000000000000000000000000000000000000000000000\n        /* \"#utility.yul\":26728:26729   */\n      0x00\n        /* \"#utility.yul\":26721:26809   */\n      mstore\n        /* \"#utility.yul\":26828:26832   */\n      0x41\n        /* \"#utility.yul\":26825:26826   */\n      0x04\n        /* \"#utility.yul\":26818:26833   */\n      mstore\n        /* \"#utility.yul\":26852:26856   */\n      0x24\n        /* \"#utility.yul\":26849:26850   */\n      0x00\n        /* \"#utility.yul\":26842:26857   */\n      revert\n        /* \"#utility.yul\":26992:27109   */\n    tag_430:\n        /* \"#utility.yul\":27101:27102   */\n      0x00\n        /* \"#utility.yul\":27098:27099   */\n      dup1\n        /* \"#utility.yul\":27091:27103   */\n      revert\n        /* \"#utility.yul\":27115:27217   */\n    tag_486:\n        /* \"#utility.yul\":27156:27162   */\n      0x00\n        /* \"#utility.yul\":27207:27209   */\n      0x1f\n        /* \"#utility.yul\":27203:27210   */\n      not\n        /* \"#utility.yul\":27198:27200   */\n      0x1f\n        /* \"#utility.yul\":27191:27196   */\n      dup4\n        /* \"#utility.yul\":27187:27201   */\n      add\n        /* \"#utility.yul\":27183:27211   */\n      and\n        /* \"#utility.yul\":27173:27211   */\n      swap1\n      pop\n        /* \"#utility.yul\":27115:27217   */\n      swap2\n      swap1\n      pop\n      jump\t// out\n        /* \"#utility.yul\":27223:27405   */\n    tag_497:\n        /* \"#utility.yul\":27363:27397   */\n      0x537472696e67733a20686578206c656e67746820696e73756666696369656e74\n        /* \"#utility.yul\":27359:27360   */\n      0x00\n        /* \"#utility.yul\":27351:27357   */\n      dup3\n        /* \"#utility.yul\":27347:27361   */\n      add\n        /* \"#utility.yul\":27340:27398   */\n      mstore\n        /* \"#utility.yul\":27223:27405   */\n      pop\n      jump\t// out\n        /* \"#utility.yul\":27411:27633   */\n    tag_502:\n        /* \"#utility.yul\":27551:27585   */\n      0x45524332303a207472616e7366657220746f20746865207a65726f2061646472\n        /* \"#utility.yul\":27547:27548   */\n      0x00\n        /* \"#utility.yul\":27539:27545   */\n      dup3\n        /* \"#utility.yul\":27535:27549   */\n      add\n        /* \"#utility.yul\":27528:27586   */\n      mstore\n        /* \"#utility.yul\":27620:27625   */\n      0x6573730000000000000000000000000000000000000000000000000000000000\n        /* \"#utility.yul\":27615:27617   */\n      0x20\n        /* \"#utility.yul\":27607:27613   */\n      dup3\n        /* \"#utility.yul\":27603:27618   */\n      add\n        /* \"#utility.yul\":27596:27626   */\n      mstore\n        /* \"#utility.yul\":27411:27633   */\n      pop\n      jump\t// out\n        /* \"#utility.yul\":27639:27882   */\n    tag_507:\n        /* \"#utility.yul\":27779:27813   */\n      0x416d6f756e7420746f2072656d6f76652063616e6e6f74206265206772656174\n        /* \"#utility.yul\":27775:27776   */\n      0x00\n        /* \"#utility.yul\":27767:27773   */\n      dup3\n        /* \"#utility.yul\":27763:27777   */\n      add\n        /* \"#utility.yul\":27756:27814   */\n      mstore\n        /* \"#utility.yul\":27848:27874   */\n      0x6572207468616e20756e636c61696d656420616d6f756e740000000000000000\n        /* \"#utility.yul\":27843:27845   */\n      0x20\n        /* \"#utility.yul\":27835:27841   */\n      dup3\n        /* \"#utility.yul\":27831:27846   */\n      add\n        /* \"#utility.yul\":27824:27875   */\n      mstore\n        /* \"#utility.yul\":27639:27882   */\n      pop\n      jump\t// out\n        /* \"#utility.yul\":27888:28109   */\n    tag_512:\n        /* \"#utility.yul\":28028:28062   */\n      0x45524332303a206275726e20616d6f756e7420657863656564732062616c616e\n        /* \"#utility.yul\":28024:28025   */\n      0x00\n        /* \"#utility.yul\":28016:28022   */\n      dup3\n        /* \"#utility.yul\":28012:28026   */\n      add\n        /* \"#utility.yul\":28005:28063   */\n      mstore\n        /* \"#utility.yul\":28097:28101   */\n      0x6365000000000000000000000000000000000000000000000000000000000000\n        /* \"#utility.yul\":28092:28094   */\n      0x20\n        /* \"#utility.yul\":28084:28090   */\n      dup3\n        /* \"#utility.yul\":28080:28095   */\n      add\n        /* \"#utility.yul\":28073:28102   */\n      mstore\n        /* \"#utility.yul\":27888:28109   */\n      pop\n      jump\t// out\n        /* \"#utility.yul\":28115:28336   */\n    tag_517:\n        /* \"#utility.yul\":28255:28289   */\n      0x45524332303a20617070726f766520746f20746865207a65726f206164647265\n        /* \"#utility.yul\":28251:28252   */\n      0x00\n        /* \"#utility.yul\":28243:28249   */\n      dup3\n        /* \"#utility.yul\":28239:28253   */\n      add\n        /* \"#utility.yul\":28232:28290   */\n      mstore\n        /* \"#utility.yul\":28324:28328   */\n      0x7373000000000000000000000000000000000000000000000000000000000000\n        /* \"#utility.yul\":28319:28321   */\n      0x20\n        /* \"#utility.yul\":28311:28317   */\n      dup3\n        /* \"#utility.yul\":28307:28322   */\n      add\n        /* \"#utility.yul\":28300:28329   */\n      mstore\n        /* \"#utility.yul\":28115:28336   */\n      pop\n      jump\t// out\n        /* \"#utility.yul\":28342:28521   */\n    tag_522:\n        /* \"#utility.yul\":28482:28513   */\n      0x45524332303a20696e73756666696369656e7420616c6c6f77616e6365000000\n        /* \"#utility.yul\":28478:28479   */\n      0x00\n        /* \"#utility.yul\":28470:28476   */\n      dup3\n        /* \"#utility.yul\":28466:28480   */\n      add\n        /* \"#utility.yul\":28459:28514   */\n      mstore\n        /* \"#utility.yul\":28342:28521   */\n      pop\n      jump\t// out\n        /* \"#utility.yul\":28527:28752   */\n    tag_527:\n        /* \"#utility.yul\":28667:28701   */\n      0x45524332303a207472616e7366657220616d6f756e7420657863656564732062\n        /* \"#utility.yul\":28663:28664   */\n      0x00\n        /* \"#utility.yul\":28655:28661   */\n      dup3\n        /* \"#utility.yul\":28651:28665   */\n      add\n        /* \"#utility.yul\":28644:28702   */\n      mstore\n        /* \"#utility.yul\":28736:28744   */\n      0x616c616e63650000000000000000000000000000000000000000000000000000\n        /* \"#utility.yul\":28731:28733   */\n      0x20\n        /* \"#utility.yul\":28723:28729   */\n      dup3\n        /* \"#utility.yul\":28719:28734   */\n      add\n        /* \"#utility.yul\":28712:28745   */\n      mstore\n        /* \"#utility.yul\":28527:28752   */\n      pop\n      jump\t// out\n        /* \"#utility.yul\":28758:28985   */\n    tag_532:\n        /* \"#utility.yul\":28898:28932   */\n      0x556e636c61696d65642062616c616e6365206d75737420626520677265617465\n        /* \"#utility.yul\":28894:28895   */\n      0x00\n        /* \"#utility.yul\":28886:28892   */\n      dup3\n        /* \"#utility.yul\":28882:28896   */\n      add\n        /* \"#utility.yul\":28875:28933   */\n      mstore\n        /* \"#utility.yul\":28967:28977   */\n      0x72207468616e2030000000000000000000000000000000000000000000000000\n        /* \"#utility.yul\":28962:28964   */\n      0x20\n        /* \"#utility.yul\":28954:28960   */\n      dup3\n        /* \"#utility.yul\":28950:28965   */\n      add\n        /* \"#utility.yul\":28943:28978   */\n      mstore\n        /* \"#utility.yul\":28758:28985   */\n      pop\n      jump\t// out\n        /* \"#utility.yul\":28991:29163   */\n    tag_537:\n        /* \"#utility.yul\":29131:29155   */\n      0x43616c6c6572206973206e6f742061206d696e74657200000000000000000000\n        /* \"#utility.yul\":29127:29128   */\n      0x00\n        /* \"#utility.yul\":29119:29125   */\n      dup3\n        /* \"#utility.yul\":29115:29129   */\n      add\n        /* \"#utility.yul\":29108:29156   */\n      mstore\n        /* \"#utility.yul\":28991:29163   */\n      pop\n      jump\t// out\n        /* \"#utility.yul\":29169:29341   */\n    tag_542:\n        /* \"#utility.yul\":29309:29333   */\n      0x43616c6c6572206973206e6f742061206275726e657200000000000000000000\n        /* \"#utility.yul\":29305:29306   */\n      0x00\n        /* \"#utility.yul\":29297:29303   */\n      dup3\n        /* \"#utility.yul\":29293:29307   */\n      add\n        /* \"#utility.yul\":29286:29334   */\n      mstore\n        /* \"#utility.yul\":29169:29341   */\n      pop\n      jump\t// out\n        /* \"#utility.yul\":29347:29567   */\n    tag_547:\n        /* \"#utility.yul\":29487:29521   */\n      0x45524332303a206275726e2066726f6d20746865207a65726f20616464726573\n        /* \"#utility.yul\":29483:29484   */\n      0x00\n        /* \"#utility.yul\":29475:29481   */\n      dup3\n        /* \"#utility.yul\":29471:29485   */\n      add\n        /* \"#utility.yul\":29464:29522   */\n      mstore\n        /* \"#utility.yul\":29556:29559   */\n      0x7300000000000000000000000000000000000000000000000000000000000000\n        /* \"#utility.yul\":29551:29553   */\n      0x20\n        /* \"#utility.yul\":29543:29549   */\n      dup3\n        /* \"#utility.yul\":29539:29554   */\n      add\n        /* \"#utility.yul\":29532:29560   */\n      mstore\n        /* \"#utility.yul\":29347:29567   */\n      pop\n      jump\t// out\n        /* \"#utility.yul\":29573:29797   */\n    tag_552:\n        /* \"#utility.yul\":29713:29747   */\n      0x45524332303a207472616e736665722066726f6d20746865207a65726f206164\n        /* \"#utility.yul\":29709:29710   */\n      0x00\n        /* \"#utility.yul\":29701:29707   */\n      dup3\n        /* \"#utility.yul\":29697:29711   */\n      add\n        /* \"#utility.yul\":29690:29748   */\n      mstore\n        /* \"#utility.yul\":29782:29789   */\n      0x6472657373000000000000000000000000000000000000000000000000000000\n        /* \"#utility.yul\":29777:29779   */\n      0x20\n        /* \"#utility.yul\":29769:29775   */\n      dup3\n        /* \"#utility.yul\":29765:29780   */\n      add\n        /* \"#utility.yul\":29758:29790   */\n      mstore\n        /* \"#utility.yul\":29573:29797   */\n      pop\n      jump\t// out\n        /* \"#utility.yul\":29803:29977   */\n    tag_557:\n        /* \"#utility.yul\":29943:29969   */\n      0x43616c6c6572206973206e6f7420612072657761726465720000000000000000\n        /* \"#utility.yul\":29939:29940   */\n      0x00\n        /* \"#utility.yul\":29931:29937   */\n      dup3\n        /* \"#utility.yul\":29927:29941   */\n      add\n        /* \"#utility.yul\":29920:29970   */\n      mstore\n        /* \"#utility.yul\":29803:29977   */\n      pop\n      jump\t// out\n        /* \"#utility.yul\":29983:30206   */\n    tag_562:\n        /* \"#utility.yul\":30123:30157   */\n      0x45524332303a20617070726f76652066726f6d20746865207a65726f20616464\n        /* \"#utility.yul\":30119:30120   */\n      0x00\n        /* \"#utility.yul\":30111:30117   */\n      dup3\n        /* \"#utility.yul\":30107:30121   */\n      add\n        /* \"#utility.yul\":30100:30158   */\n      mstore\n        /* \"#utility.yul\":30192:30198   */\n      0x7265737300000000000000000000000000000000000000000000000000000000\n        /* \"#utility.yul\":30187:30189   */\n      0x20\n        /* \"#utility.yul\":30179:30185   */\n      dup3\n        /* \"#utility.yul\":30175:30190   */\n      add\n        /* \"#utility.yul\":30168:30199   */\n      mstore\n        /* \"#utility.yul\":29983:30206   */\n      pop\n      jump\t// out\n        /* \"#utility.yul\":30212:30394   */\n    tag_567:\n        /* \"#utility.yul\":30352:30386   */\n      0x636c61696d61626c65206d7573742062652067726561746572207468616e2030\n        /* \"#utility.yul\":30348:30349   */\n      0x00\n        /* \"#utility.yul\":30340:30346   */\n      dup3\n        /* \"#utility.yul\":30336:30350   */\n      add\n        /* \"#utility.yul\":30329:30387   */\n      mstore\n        /* \"#utility.yul\":30212:30394   */\n      pop\n      jump\t// out\n        /* \"#utility.yul\":30400:30573   */\n    tag_572:\n        /* \"#utility.yul\":30540:30565   */\n      0x416363657373436f6e74726f6c3a206163636f756e7420000000000000000000\n        /* \"#utility.yul\":30536:30537   */\n      0x00\n        /* \"#utility.yul\":30528:30534   */\n      dup3\n        /* \"#utility.yul\":30524:30538   */\n      add\n        /* \"#utility.yul\":30517:30566   */\n      mstore\n        /* \"#utility.yul\":30400:30573   */\n      pop\n      jump\t// out\n        /* \"#utility.yul\":30579:30803   */\n    tag_577:\n        /* \"#utility.yul\":30719:30753   */\n      0x45524332303a2064656372656173656420616c6c6f77616e63652062656c6f77\n        /* \"#utility.yul\":30715:30716   */\n      0x00\n        /* \"#utility.yul\":30707:30713   */\n      dup3\n        /* \"#utility.yul\":30703:30717   */\n      add\n        /* \"#utility.yul\":30696:30754   */\n      mstore\n        /* \"#utility.yul\":30788:30795   */\n      0x207a65726f000000000000000000000000000000000000000000000000000000\n        /* \"#utility.yul\":30783:30785   */\n      0x20\n        /* \"#utility.yul\":30775:30781   */\n      dup3\n        /* \"#utility.yul\":30771:30786   */\n      add\n        /* \"#utility.yul\":30764:30796   */\n      mstore\n        /* \"#utility.yul\":30579:30803   */\n      pop\n      jump\t// out\n        /* \"#utility.yul\":30809:30976   */\n    tag_582:\n        /* \"#utility.yul\":30949:30968   */\n      0x206973206d697373696e6720726f6c6520000000000000000000000000000000\n        /* \"#utility.yul\":30945:30946   */\n      0x00\n        /* \"#utility.yul\":30937:30943   */\n      dup3\n        /* \"#utility.yul\":30933:30947   */\n      add\n        /* \"#utility.yul\":30926:30969   */\n      mstore\n        /* \"#utility.yul\":30809:30976   */\n      pop\n      jump\t// out\n        /* \"#utility.yul\":30982:31216   */\n    tag_587:\n        /* \"#utility.yul\":31122:31156   */\n      0x416363657373436f6e74726f6c3a2063616e206f6e6c792072656e6f756e6365\n        /* \"#utility.yul\":31118:31119   */\n      0x00\n        /* \"#utility.yul\":31110:31116   */\n      dup3\n        /* \"#utility.yul\":31106:31120   */\n      add\n        /* \"#utility.yul\":31099:31157   */\n      mstore\n        /* \"#utility.yul\":31191:31208   */\n      0x20726f6c657320666f722073656c660000000000000000000000000000000000\n        /* \"#utility.yul\":31186:31188   */\n      0x20\n        /* \"#utility.yul\":31178:31184   */\n      dup3\n        /* \"#utility.yul\":31174:31189   */\n      add\n        /* \"#utility.yul\":31167:31209   */\n      mstore\n        /* \"#utility.yul\":30982:31216   */\n      pop\n      jump\t// out\n        /* \"#utility.yul\":31222:31403   */\n    tag_592:\n        /* \"#utility.yul\":31362:31395   */\n      0x45524332303a206d696e7420746f20746865207a65726f206164647265737300\n        /* \"#utility.yul\":31358:31359   */\n      0x00\n        /* \"#utility.yul\":31350:31356   */\n      dup3\n        /* \"#utility.yul\":31346:31360   */\n      add\n        /* \"#utility.yul\":31339:31396   */\n      mstore\n        /* \"#utility.yul\":31222:31403   */\n      pop\n      jump\t// out\n        /* \"#utility.yul\":31409:31531   */\n    tag_410:\n        /* \"#utility.yul\":31482:31506   */\n      tag_729\n        /* \"#utility.yul\":31500:31505   */\n      dup2\n        /* \"#utility.yul\":31482:31506   */\n      tag_468\n      jump\t// in\n    tag_729:\n        /* \"#utility.yul\":31475:31480   */\n      dup2\n        /* \"#utility.yul\":31472:31507   */\n      eq\n        /* \"#utility.yul\":31462:31525   */\n      tag_730\n      jumpi\n        /* \"#utility.yul\":31521:31522   */\n      0x00\n        /* \"#utility.yul\":31518:31519   */\n      dup1\n        /* \"#utility.yul\":31511:31523   */\n      revert\n        /* \"#utility.yul\":31462:31525   */\n    tag_730:\n        /* \"#utility.yul\":31409:31531   */\n      pop\n      jump\t// out\n        /* \"#utility.yul\":31537:31653   */\n    tag_414:\n        /* \"#utility.yul\":31607:31628   */\n      tag_732\n        /* \"#utility.yul\":31622:31627   */\n      dup2\n        /* \"#utility.yul\":31607:31628   */\n      tag_472\n      jump\t// in\n    tag_732:\n        /* \"#utility.yul\":31600:31605   */\n      dup2\n        /* \"#utility.yul\":31597:31629   */\n      eq\n        /* \"#utility.yul\":31587:31647   */\n      tag_733\n      jumpi\n        /* \"#utility.yul\":31643:31644   */\n      0x00\n        /* \"#utility.yul\":31640:31641   */\n      dup1\n        /* \"#utility.yul\":31633:31645   */\n      revert\n        /* \"#utility.yul\":31587:31647   */\n    tag_733:\n        /* \"#utility.yul\":31537:31653   */\n      pop\n      jump\t// out\n        /* \"#utility.yul\":31659:31781   */\n    tag_418:\n        /* \"#utility.yul\":31732:31756   */\n      tag_735\n        /* \"#utility.yul\":31750:31755   */\n      dup2\n        /* \"#utility.yul\":31732:31756   */\n      tag_476\n      jump\t// in\n    tag_735:\n        /* \"#utility.yul\":31725:31730   */\n      dup2\n        /* \"#utility.yul\":31722:31757   */\n      eq\n        /* \"#utility.yul\":31712:31775   */\n      tag_736\n      jumpi\n        /* \"#utility.yul\":31771:31772   */\n      0x00\n        /* \"#utility.yul\":31768:31769   */\n      dup1\n        /* \"#utility.yul\":31761:31773   */\n      revert\n        /* \"#utility.yul\":31712:31775   */\n    tag_736:\n        /* \"#utility.yul\":31659:31781   */\n      pop\n      jump\t// out\n        /* \"#utility.yul\":31787:31907   */\n    tag_422:\n        /* \"#utility.yul\":31859:31882   */\n      tag_738\n        /* \"#utility.yul\":31876:31881   */\n      dup2\n        /* \"#utility.yul\":31859:31882   */\n      tag_681\n      jump\t// in\n    tag_738:\n        /* \"#utility.yul\":31852:31857   */\n      dup2\n        /* \"#utility.yul\":31849:31883   */\n      eq\n        /* \"#utility.yul\":31839:31901   */\n      tag_739\n      jumpi\n        /* \"#utility.yul\":31897:31898   */\n      0x00\n        /* \"#utility.yul\":31894:31895   */\n      dup1\n        /* \"#utility.yul\":31887:31899   */\n      revert\n        /* \"#utility.yul\":31839:31901   */\n    tag_739:\n        /* \"#utility.yul\":31787:31907   */\n      pop\n      jump\t// out\n        /* \"#utility.yul\":31913:32035   */\n    tag_426:\n        /* \"#utility.yul\":31986:32010   */\n      tag_741\n        /* \"#utility.yul\":32004:32009   */\n      dup2\n        /* \"#utility.yul\":31986:32010   */\n      tag_596\n      jump\t// in\n    tag_741:\n        /* \"#utility.yul\":31979:31984   */\n      dup2\n        /* \"#utility.yul\":31976:32011   */\n      eq\n        /* \"#utility.yul\":31966:32029   */\n      tag_742\n      jumpi\n        /* \"#utility.yul\":32025:32026   */\n      0x00\n        /* \"#utility.yul\":32022:32023   */\n      dup1\n        /* \"#utility.yul\":32015:32027   */\n      revert\n        /* \"#utility.yul\":31966:32029   */\n    tag_742:\n        /* \"#utility.yul\":31913:32035   */\n      pop\n      jump\t// out\n\n    auxdata: 0xa2646970667358221220b1d96e6710d3abcbeb863924e03305c33755fbdfeb820694bc1d1d7c2166535064736f6c63430008070033\n}\n",
				"bytecode": {
					"linkReferences": {},
					"object": "60806040523480156200001157600080fd5b506040518060400160405280600981526020017f466f6f20546f6b656e00000000000000000000000000000000000000000000008152506040518060400160405280600381526020017f464f4f0000000000000000000000000000000000000000000000000000000000815250816003908051906020019062000096929190620003e8565b508060049080519060200190620000af929190620003e8565b505050620000cf306a52b7d2dcc80cd2e4000000620000ea60201b60201c565b620000e46000801b336200026360201b60201c565b62000644565b600073ffffffffffffffffffffffffffffffffffffffff168273ffffffffffffffffffffffffffffffffffffffff1614156200015d576040517f08c379a00000000000000000000000000000000000000000000000000000000081526004016200015490620004d0565b60405180910390fd5b62000171600083836200027960201b60201c565b806002600082825462000185919062000520565b92505081905550806000808473ffffffffffffffffffffffffffffffffffffffff1673ffffffffffffffffffffffffffffffffffffffff1681526020019081526020016000206000828254620001dc919062000520565b925050819055508173ffffffffffffffffffffffffffffffffffffffff16600073ffffffffffffffffffffffffffffffffffffffff167fddf252ad1be2c89b69c2b068fc378daa952ba7f163c4a11628f55a4df523b3ef83604051620002439190620004f2565b60405180910390a36200025f600083836200027e60201b60201c565b5050565b6200027582826200028360201b60201c565b5050565b505050565b505050565b6200029582826200037560201b60201c565b620003715760016005600084815260200190815260200160002060000160008373ffffffffffffffffffffffffffffffffffffffff1673ffffffffffffffffffffffffffffffffffffffff16815260200190815260200160002060006101000a81548160ff02191690831515021790555062000316620003e060201b60201c565b73ffffffffffffffffffffffffffffffffffffffff168173ffffffffffffffffffffffffffffffffffffffff16837f2f8788117e7eff1d82e926ec794901d17c78024a50270940304540a733656f0d60405160405180910390a45b5050565b60006005600084815260200190815260200160002060000160008373ffffffffffffffffffffffffffffffffffffffff1673ffffffffffffffffffffffffffffffffffffffff16815260200190815260200160002060009054906101000a900460ff16905092915050565b600033905090565b828054620003f69062000587565b90600052602060002090601f0160209004810192826200041a576000855562000466565b82601f106200043557805160ff191683800117855562000466565b8280016001018555821562000466579182015b828111156200046557825182559160200191906001019062000448565b5b50905062000475919062000479565b5090565b5b80821115620004945760008160009055506001016200047a565b5090565b6000620004a7601f836200050f565b9150620004b4826200061b565b602082019050919050565b620004ca816200057d565b82525050565b60006020820190508181036000830152620004eb8162000498565b9050919050565b6000602082019050620005096000830184620004bf565b92915050565b600082825260208201905092915050565b60006200052d826200057d565b91506200053a836200057d565b9250827fffffffffffffffffffffffffffffffffffffffffffffffffffffffffffffffff03821115620005725762000571620005bd565b5b828201905092915050565b6000819050919050565b60006002820490506001821680620005a057607f821691505b60208210811415620005b757620005b6620005ec565b5b50919050565b7f4e487b7100000000000000000000000000000000000000000000000000000000600052601160045260246000fd5b7f4e487b7100000000000000000000000000000000000000000000000000000000600052602260045260246000fd5b7f45524332303a206d696e7420746f20746865207a65726f206164647265737300600082015250565b6132eb80620006546000396000f3fe6080604052600436106101cd5760003560e01c806370a08231116100f7578063a457c2d711610095578063d547741f11610064578063d547741f146106dd578063dd62ed3e14610706578063e5b7f30514610743578063eb46260e1461076c576101cd565b8063a457c2d7146105fb578063a9059cbb14610638578063c884ef8314610675578063d5391393146106b2576101cd565b806391d14854116100d157806391d148541461053f57806395d89b411461057c5780639dc29fac146105a7578063a217fddf146105d0576101cd565b806370a08231146104ae5780638580cf76146104eb5780638a9db76514610516576101cd565b80632f2ff15d1161016f5780633ab1ced11161013e5780633ab1ced11461040157806340c10f191461043e5780634e71d92d14610467578063505bd3da14610471576101cd565b80632f2ff15d14610347578063313ce5671461037057806336568abe1461039b57806339509351146103c4576101cd565b806318160ddd116101ab57806318160ddd1461027757806323b872dd146102a2578063248a9ca3146102df578063282c51f31461031c576101cd565b806301ffc9a7146101d257806306fdde031461020f578063095ea7b31461023a575b600080fd5b3480156101de57600080fd5b506101f960048036038101906101f491906123a6565b6107a9565b60405161020691906127a7565b60405180910390f35b34801561021b57600080fd5b50610224610823565b60405161023191906127dd565b60405180910390f35b34801561024657600080fd5b50610261600480360381019061025c91906122cc565b6108b5565b60405161026e91906127a7565b60405180910390f35b34801561028357600080fd5b5061028c6108d8565b6040516102999190612a3f565b60405180910390f35b3480156102ae57600080fd5b506102c960048036038101906102c49190612279565b6108e2565b6040516102d691906127a7565b60405180910390f35b3480156102eb57600080fd5b5061030660048036038101906103019190612339565b610911565b60405161031391906127c2565b60405180910390f35b34801561032857600080fd5b50610331610931565b60405161033e91906127c2565b60405180910390f35b34801561035357600080fd5b5061036e60048036038101906103699190612366565b610955565b005b34801561037c57600080fd5b5061038561097e565b6040516103929190612a5a565b60405180910390f35b3480156103a757600080fd5b506103c260048036038101906103bd9190612366565b610987565b005b3480156103d057600080fd5b506103eb60048036038101906103e691906122cc565b610a0a565b6040516103f891906127a7565b60405180910390f35b34801561040d57600080fd5b506104286004803603810190610423919061220c565b610ab4565b6040516104359190612a3f565b60405180910390f35b34801561044a57600080fd5b50610465600480360381019061046091906122cc565b610afd565b005b61046f610b74565b005b34801561047d57600080fd5b506104986004803603810190610493919061220c565b610d3a565b6040516104a59190612a3f565b60405180910390f35b3480156104ba57600080fd5b506104d560048036038101906104d0919061220c565b610d52565b6040516104e29190612a3f565b60405180910390f35b3480156104f757600080fd5b50610500610d9a565b60405161050d91906127c2565b60405180910390f35b34801561052257600080fd5b5061053d600480360381019061053891906122cc565b610dbe565b005b34801561054b57600080fd5b5061056660048036038101906105619190612366565b610f12565b60405161057391906127a7565b60405180910390f35b34801561058857600080fd5b50610591610f7d565b60405161059e91906127dd565b60405180910390f35b3480156105b357600080fd5b506105ce60048036038101906105c991906122cc565b61100f565b005b3480156105dc57600080fd5b506105e5611086565b6040516105f291906127c2565b60405180910390f35b34801561060757600080fd5b50610622600480360381019061061d91906122cc565b61108d565b60405161062f91906127a7565b60405180910390f35b34801561064457600080fd5b5061065f600480360381019061065a91906122cc565b611177565b60405161066c91906127a7565b60405180910390f35b34801561068157600080fd5b5061069c6004803603810190610697919061220c565b61119a565b6040516106a99190612a3f565b60405180910390f35b3480156106be57600080fd5b506106c76111b2565b6040516106d491906127c2565b60405180910390f35b3480156106e957600080fd5b5061070460048036038101906106ff9190612366565b6111d6565b005b34801561071257600080fd5b5061072d60048036038101906107289190612239565b6111ff565b60405161073a9190612a3f565b60405180910390f35b34801561074f57600080fd5b5061076a600480360381019061076591906122cc565b611286565b005b34801561077857600080fd5b50610793600480360381019061078e919061220c565b6112fd565b6040516107a09190612a3f565b60405180910390f35b60007f7965db0b000000000000000000000000000000000000000000000000000000007bffffffffffffffffffffffffffffffffffffffffffffffffffffffff1916827bffffffffffffffffffffffffffffffffffffffffffffffffffffffff1916148061081c575061081b82611346565b5b9050919050565b60606003805461083290612c68565b80601f016020809104026020016040519081016040528092919081815260200182805461085e90612c68565b80156108ab5780601f10610880576101008083540402835291602001916108ab565b820191906000526020600020905b81548152906001019060200180831161088e57829003601f168201915b5050505050905090565b6000806108c06113b0565b90506108cd8185856113b8565b600191505092915050565b6000600254905090565b6000806108ed6113b0565b90506108fa858285611583565b61090585858561160f565b60019150509392505050565b600060056000838152602001908152602001600020600101549050919050565b7f3c11d16cbaffd01df69ce1c404f6340ee057498f5f00246190ea54220576a84881565b61095e82610911565b61096f8161096a6113b0565b611890565b610979838361192d565b505050565b60006012905090565b61098f6113b0565b73ffffffffffffffffffffffffffffffffffffffff168173ffffffffffffffffffffffffffffffffffffffff16146109fc576040517f08c379a00000000000000000000000000000000000000000000000000000000081526004016109f3906129ff565b60405180910390fd5b610a068282611a0e565b5050565b600080610a156113b0565b9050610aa9818585600160008673ffffffffffffffffffffffffffffffffffffffff1673ffffffffffffffffffffffffffffffffffffffff16815260200190815260200160002060008973ffffffffffffffffffffffffffffffffffffffff1673ffffffffffffffffffffffffffffffffffffffff16815260200190815260200160002054610aa49190612a9c565b6113b8565b600191505092915050565b6000600660008373ffffffffffffffffffffffffffffffffffffffff1673ffffffffffffffffffffffffffffffffffffffff168152602001908152602001600020549050919050565b610b277f9f2df0fed2c77648de5860a4cc508cd0818c85b8b8a1ab4ceeef8d981c8956a633610f12565b610b66576040517f08c379a0000000000000000000000000000000000000000000000000000000008152600401610b5d906128ff565b60405180910390fd5b610b708282611af0565b5050565b6000600660003373ffffffffffffffffffffffffffffffffffffffff1673ffffffffffffffffffffffffffffffffffffffff16815260200190815260200160002054905060008111610bfb576040517f08c379a0000000000000000000000000000000000000000000000000000000008152600401610bf2906128df565b60405180910390fd5b80600760003373ffffffffffffffffffffffffffffffffffffffff1673ffffffffffffffffffffffffffffffffffffffff1681526020019081526020016000206000828254610c4a9190612a9c565b925050819055506000600660003373ffffffffffffffffffffffffffffffffffffffff1673ffffffffffffffffffffffffffffffffffffffff168152602001908152602001600020819055503073ffffffffffffffffffffffffffffffffffffffff1663a9059cbb33670de0b6b3a764000084610cc79190612af2565b6040518363ffffffff1660e01b8152600401610ce492919061277e565b602060405180830381600087803b158015610cfe57600080fd5b505af1158015610d12573d6000803e3d6000fd5b505050506040513d601f19601f82011682018060405250810190610d36919061230c565b5050565b60066020528060005260406000206000915090505481565b60008060008373ffffffffffffffffffffffffffffffffffffffff1673ffffffffffffffffffffffffffffffffffffffff168152602001908152602001600020549050919050565b7fbeec13769b5f410b0584f69811bfd923818456d5edcf426b0e31cf90eed7a3f681565b610de87fbeec13769b5f410b0584f69811bfd923818456d5edcf426b0e31cf90eed7a3f633610f12565b610e27576040517f08c379a0000000000000000000000000000000000000000000000000000000008152600401610e1e9061297f565b60405180910390fd5b6000600660008473ffffffffffffffffffffffffffffffffffffffff1673ffffffffffffffffffffffffffffffffffffffff16815260200190815260200160002054600760008573ffffffffffffffffffffffffffffffffffffffff1673ffffffffffffffffffffffffffffffffffffffff1681526020019081526020016000205483610eb49190612b4c565b610ebe9190612b4c565b905060008111610f03576040517f08c379a0000000000000000000000000000000000000000000000000000000008152600401610efa906129bf565b60405180910390fd5b610f0d8382611c50565b505050565b60006005600084815260200190815260200160002060000160008373ffffffffffffffffffffffffffffffffffffffff1673ffffffffffffffffffffffffffffffffffffffff16815260200190815260200160002060009054906101000a900460ff16905092915050565b606060048054610f8c90612c68565b80601f0160208091040260200160405190810160405280929190818152602001828054610fb890612c68565b80156110055780601f10610fda57610100808354040283529160200191611005565b820191906000526020600020905b815481529060010190602001808311610fe857829003601f168201915b5050505050905090565b6110397f3c11d16cbaffd01df69ce1c404f6340ee057498f5f00246190ea54220576a84833610f12565b611078576040517f08c379a000000000000000000000000000000000000000000000000000000000815260040161106f9061291f565b60405180910390fd5b6110828282611caa565b5050565b6000801b81565b6000806110986113b0565b90506000600160008373ffffffffffffffffffffffffffffffffffffffff1673ffffffffffffffffffffffffffffffffffffffff16815260200190815260200160002060008673ffffffffffffffffffffffffffffffffffffffff1673ffffffffffffffffffffffffffffffffffffffff1681526020019081526020016000205490508381101561115e576040517f08c379a0000000000000000000000000000000000000000000000000000000008152600401611155906129df565b60405180910390fd5b61116b82868684036113b8565b60019250505092915050565b6000806111826113b0565b905061118f81858561160f565b600191505092915050565b60076020528060005260406000206000915090505481565b7f9f2df0fed2c77648de5860a4cc508cd0818c85b8b8a1ab4ceeef8d981c8956a681565b6111df82610911565b6111f0816111eb6113b0565b611890565b6111fa8383611a0e565b505050565b6000600160008473ffffffffffffffffffffffffffffffffffffffff1673ffffffffffffffffffffffffffffffffffffffff16815260200190815260200160002060008373ffffffffffffffffffffffffffffffffffffffff1673ffffffffffffffffffffffffffffffffffffffff16815260200190815260200160002054905092915050565b6112b07fbeec13769b5f410b0584f69811bfd923818456d5edcf426b0e31cf90eed7a3f633610f12565b6112ef576040517f08c379a00000000000000000000000000000000000000000000000000000000081526004016112e69061297f565b60405180910390fd5b6112f98282611e81565b5050565b6000600760008373ffffffffffffffffffffffffffffffffffffffff1673ffffffffffffffffffffffffffffffffffffffff168152602001908152602001600020549050919050565b60007f01ffc9a7000000000000000000000000000000000000000000000000000000007bffffffffffffffffffffffffffffffffffffffffffffffffffffffff1916827bffffffffffffffffffffffffffffffffffffffffffffffffffffffff1916149050919050565b600033905090565b600073ffffffffffffffffffffffffffffffffffffffff168373ffffffffffffffffffffffffffffffffffffffff161415611428576040517f08c379a000000000000000000000000000000000000000000000000000000000815260040161141f9061299f565b60405180910390fd5b600073ffffffffffffffffffffffffffffffffffffffff168273ffffffffffffffffffffffffffffffffffffffff161415611498576040517f08c379a000000000000000000000000000000000000000000000000000000000815260040161148f9061287f565b60405180910390fd5b80600160008573ffffffffffffffffffffffffffffffffffffffff1673ffffffffffffffffffffffffffffffffffffffff16815260200190815260200160002060008473ffffffffffffffffffffffffffffffffffffffff1673ffffffffffffffffffffffffffffffffffffffff168152602001908152602001600020819055508173ffffffffffffffffffffffffffffffffffffffff168373ffffffffffffffffffffffffffffffffffffffff167f8c5be1e5ebec7d5bd14f71427d1e84f3dd0314c0f7b2291e5b200ac8c7c3b925836040516115769190612a3f565b60405180910390a3505050565b600061158f84846111ff565b90507fffffffffffffffffffffffffffffffffffffffffffffffffffffffffffffffff811461160957818110156115fb576040517f08c379a00000000000000000000000000000000000000000000000000000000081526004016115f29061289f565b60405180910390fd5b61160884848484036113b8565b5b50505050565b600073ffffffffffffffffffffffffffffffffffffffff168373ffffffffffffffffffffffffffffffffffffffff16141561167f576040517f08c379a00000000000000000000000000000000000000000000000000000000081526004016116769061295f565b60405180910390fd5b600073ffffffffffffffffffffffffffffffffffffffff168273ffffffffffffffffffffffffffffffffffffffff1614156116ef576040517f08c379a00000000000000000000000000000000000000000000000000000000081526004016116e69061281f565b60405180910390fd5b6116fa838383611f5d565b60008060008573ffffffffffffffffffffffffffffffffffffffff1673ffffffffffffffffffffffffffffffffffffffff16815260200190815260200160002054905081811015611780576040517f08c379a0000000000000000000000000000000000000000000000000000000008152600401611777906128bf565b60405180910390fd5b8181036000808673ffffffffffffffffffffffffffffffffffffffff1673ffffffffffffffffffffffffffffffffffffffff16815260200190815260200160002081905550816000808573ffffffffffffffffffffffffffffffffffffffff1673ffffffffffffffffffffffffffffffffffffffff16815260200190815260200160002060008282546118139190612a9c565b925050819055508273ffffffffffffffffffffffffffffffffffffffff168473ffffffffffffffffffffffffffffffffffffffff167fddf252ad1be2c89b69c2b068fc378daa952ba7f163c4a11628f55a4df523b3ef846040516118779190612a3f565b60405180910390a361188a848484611f62565b50505050565b61189a8282610f12565b611929576118bf8173ffffffffffffffffffffffffffffffffffffffff166014611f67565b6118cd8360001c6020611f67565b6040516020016118de929190612744565b6040516020818303038152906040526040517f08c379a000000000000000000000000000000000000000000000000000000000815260040161192091906127dd565b60405180910390fd5b5050565b6119378282610f12565b611a0a5760016005600084815260200190815260200160002060000160008373ffffffffffffffffffffffffffffffffffffffff1673ffffffffffffffffffffffffffffffffffffffff16815260200190815260200160002060006101000a81548160ff0219169083151502179055506119af6113b0565b73ffffffffffffffffffffffffffffffffffffffff168173ffffffffffffffffffffffffffffffffffffffff16837f2f8788117e7eff1d82e926ec794901d17c78024a50270940304540a733656f0d60405160405180910390a45b5050565b611a188282610f12565b15611aec5760006005600084815260200190815260200160002060000160008373ffffffffffffffffffffffffffffffffffffffff1673ffffffffffffffffffffffffffffffffffffffff16815260200190815260200160002060006101000a81548160ff021916908315150217905550611a916113b0565b73ffffffffffffffffffffffffffffffffffffffff168173ffffffffffffffffffffffffffffffffffffffff16837ff6391f5c32d9c69d2a47ea670b442974b53935d1edc7fd64eb21e047a839171b60405160405180910390a45b5050565b600073ffffffffffffffffffffffffffffffffffffffff168273ffffffffffffffffffffffffffffffffffffffff161415611b60576040517f08c379a0000000000000000000000000000000000000000000000000000000008152600401611b5790612a1f565b60405180910390fd5b611b6c60008383611f5d565b8060026000828254611b7e9190612a9c565b92505081905550806000808473ffffffffffffffffffffffffffffffffffffffff1673ffffffffffffffffffffffffffffffffffffffff1681526020019081526020016000206000828254611bd39190612a9c565b925050819055508173ffffffffffffffffffffffffffffffffffffffff16600073ffffffffffffffffffffffffffffffffffffffff167fddf252ad1be2c89b69c2b068fc378daa952ba7f163c4a11628f55a4df523b3ef83604051611c389190612a3f565b60405180910390a3611c4c60008383611f62565b5050565b80600660008473ffffffffffffffffffffffffffffffffffffffff1673ffffffffffffffffffffffffffffffffffffffff1681526020019081526020016000206000828254611c9f9190612a9c565b925050819055505050565b600073ffffffffffffffffffffffffffffffffffffffff168273ffffffffffffffffffffffffffffffffffffffff161415611d1a576040517f08c379a0000000000000000000000000000000000000000000000000000000008152600401611d119061293f565b60405180910390fd5b611d2682600083611f5d565b60008060008473ffffffffffffffffffffffffffffffffffffffff1673ffffffffffffffffffffffffffffffffffffffff16815260200190815260200160002054905081811015611dac576040517f08c379a0000000000000000000000000000000000000000000000000000000008152600401611da39061285f565b60405180910390fd5b8181036000808573ffffffffffffffffffffffffffffffffffffffff1673ffffffffffffffffffffffffffffffffffffffff168152602001908152602001600020819055508160026000828254611e039190612b4c565b92505081905550600073ffffffffffffffffffffffffffffffffffffffff168373ffffffffffffffffffffffffffffffffffffffff167fddf252ad1be2c89b69c2b068fc378daa952ba7f163c4a11628f55a4df523b3ef84604051611e689190612a3f565b60405180910390a3611e7c83600084611f62565b505050565b600660008373ffffffffffffffffffffffffffffffffffffffff1673ffffffffffffffffffffffffffffffffffffffff16815260200190815260200160002054811115611f03576040517f08c379a0000000000000000000000000000000000000000000000000000000008152600401611efa9061283f565b60405180910390fd5b80600660008473ffffffffffffffffffffffffffffffffffffffff1673ffffffffffffffffffffffffffffffffffffffff1681526020019081526020016000206000828254611f529190612b4c565b925050819055505050565b505050565b505050565b606060006002836002611f7a9190612af2565b611f849190612a9c565b67ffffffffffffffff811115611f9d57611f9c612d27565b5b6040519080825280601f01601f191660200182016040528015611fcf5781602001600182028036833780820191505090505b5090507f30000000000000000000000000000000000000000000000000000000000000008160008151811061200757612006612cf8565b5b60200101907effffffffffffffffffffffffffffffffffffffffffffffffffffffffffffff1916908160001a9053507f78000000000000000000000000000000000000000000000000000000000000008160018151811061206b5761206a612cf8565b5b60200101907effffffffffffffffffffffffffffffffffffffffffffffffffffffffffffff1916908160001a905350600060018460026120ab9190612af2565b6120b59190612a9c565b90505b6001811115612155577f3031323334353637383961626364656600000000000000000000000000000000600f8616601081106120f7576120f6612cf8565b5b1a60f81b82828151811061210e5761210d612cf8565b5b60200101907effffffffffffffffffffffffffffffffffffffffffffffffffffffffffffff1916908160001a905350600485901c94508061214e90612c3e565b90506120b8565b5060008414612199576040517f08c379a0000000000000000000000000000000000000000000000000000000008152600401612190906127ff565b60405180910390fd5b8091505092915050565b6000813590506121b281613242565b92915050565b6000815190506121c781613259565b92915050565b6000813590506121dc81613270565b92915050565b6000813590506121f181613287565b92915050565b6000813590506122068161329e565b92915050565b60006020828403121561222257612221612d56565b5b6000612230848285016121a3565b91505092915050565b600080604083850312156122505761224f612d56565b5b600061225e858286016121a3565b925050602061226f858286016121a3565b9150509250929050565b60008060006060848603121561229257612291612d56565b5b60006122a0868287016121a3565b93505060206122b1868287016121a3565b92505060406122c2868287016121f7565b9150509250925092565b600080604083850312156122e3576122e2612d56565b5b60006122f1858286016121a3565b9250506020612302858286016121f7565b9150509250929050565b60006020828403121561232257612321612d56565b5b6000612330848285016121b8565b91505092915050565b60006020828403121561234f5761234e612d56565b5b600061235d848285016121cd565b91505092915050565b6000806040838503121561237d5761237c612d56565b5b600061238b858286016121cd565b925050602061239c858286016121a3565b9150509250929050565b6000602082840312156123bc576123bb612d56565b5b60006123ca848285016121e2565b91505092915050565b6123dc81612b80565b82525050565b6123eb81612b92565b82525050565b6123fa81612b9e565b82525050565b600061240b82612a75565b6124158185612a80565b9350612425818560208601612c0b565b61242e81612d5b565b840191505092915050565b600061244482612a75565b61244e8185612a91565b935061245e818560208601612c0b565b80840191505092915050565b6000612477602083612a80565b915061248282612d6c565b602082019050919050565b600061249a602383612a80565b91506124a582612d95565b604082019050919050565b60006124bd603883612a80565b91506124c882612de4565b604082019050919050565b60006124e0602283612a80565b91506124eb82612e33565b604082019050919050565b6000612503602283612a80565b915061250e82612e82565b604082019050919050565b6000612526601d83612a80565b915061253182612ed1565b602082019050919050565b6000612549602683612a80565b915061255482612efa565b604082019050919050565b600061256c602883612a80565b915061257782612f49565b604082019050919050565b600061258f601683612a80565b915061259a82612f98565b602082019050919050565b60006125b2601683612a80565b91506125bd82612fc1565b602082019050919050565b60006125d5602183612a80565b91506125e082612fea565b604082019050919050565b60006125f8602583612a80565b915061260382613039565b604082019050919050565b600061261b601883612a80565b915061262682613088565b602082019050919050565b600061263e602483612a80565b9150612649826130b1565b604082019050919050565b6000612661602083612a80565b915061266c82613100565b602082019050919050565b6000612684601783612a91565b915061268f82613129565b601782019050919050565b60006126a7602583612a80565b91506126b282613152565b604082019050919050565b60006126ca601183612a91565b91506126d5826131a1565b601182019050919050565b60006126ed602f83612a80565b91506126f8826131ca565b604082019050919050565b6000612710601f83612a80565b915061271b82613219565b602082019050919050565b61272f81612bf4565b82525050565b61273e81612bfe565b82525050565b600061274f82612677565b915061275b8285612439565b9150612766826126bd565b91506127728284612439565b91508190509392505050565b600060408201905061279360008301856123d3565b6127a06020830184612726565b9392505050565b60006020820190506127bc60008301846123e2565b92915050565b60006020820190506127d760008301846123f1565b92915050565b600060208201905081810360008301526127f78184612400565b905092915050565b600060208201905081810360008301526128188161246a565b9050919050565b600060208201905081810360008301526128388161248d565b9050919050565b60006020820190508181036000830152612858816124b0565b9050919050565b60006020820190508181036000830152612878816124d3565b9050919050565b60006020820190508181036000830152612898816124f6565b9050919050565b600060208201905081810360008301526128b881612519565b9050919050565b600060208201905081810360008301526128d88161253c565b9050919050565b600060208201905081810360008301526128f88161255f565b9050919050565b6000602082019050818103600083015261291881612582565b9050919050565b60006020820190508181036000830152612938816125a5565b9050919050565b60006020820190508181036000830152612958816125c8565b9050919050565b60006020820190508181036000830152612978816125eb565b9050919050565b600060208201905081810360008301526129988161260e565b9050919050565b600060208201905081810360008301526129b881612631565b9050919050565b600060208201905081810360008301526129d881612654565b9050919050565b600060208201905081810360008301526129f88161269a565b9050919050565b60006020820190508181036000830152612a18816126e0565b9050919050565b60006020820190508181036000830152612a3881612703565b9050919050565b6000602082019050612a546000830184612726565b92915050565b6000602082019050612a6f6000830184612735565b92915050565b600081519050919050565b600082825260208201905092915050565b600081905092915050565b6000612aa782612bf4565b9150612ab283612bf4565b9250827fffffffffffffffffffffffffffffffffffffffffffffffffffffffffffffffff03821115612ae757612ae6612c9a565b5b828201905092915050565b6000612afd82612bf4565b9150612b0883612bf4565b9250817fffffffffffffffffffffffffffffffffffffffffffffffffffffffffffffffff0483118215151615612b4157612b40612c9a565b5b828202905092915050565b6000612b5782612bf4565b9150612b6283612bf4565b925082821015612b7557612b74612c9a565b5b828203905092915050565b6000612b8b82612bd4565b9050919050565b60008115159050919050565b6000819050919050565b60007fffffffff0000000000000000000000000000000000000000000000000000000082169050919050565b600073ffffffffffffffffffffffffffffffffffffffff82169050919050565b6000819050919050565b600060ff82169050919050565b60005b83811015612c29578082015181840152602081019050612c0e565b83811115612c38576000848401525b50505050565b6000612c4982612bf4565b91506000821415612c5d57612c5c612c9a565b5b600182039050919050565b60006002820490506001821680612c8057607f821691505b60208210811415612c9457612c93612cc9565b5b50919050565b7f4e487b7100000000000000000000000000000000000000000000000000000000600052601160045260246000fd5b7f4e487b7100000000000000000000000000000000000000000000000000000000600052602260045260246000fd5b7f4e487b7100000000000000000000000000000000000000000000000000000000600052603260045260246000fd5b7f4e487b7100000000000000000000000000000000000000000000000000000000600052604160045260246000fd5b600080fd5b6000601f19601f8301169050919050565b7f537472696e67733a20686578206c656e67746820696e73756666696369656e74600082015250565b7f45524332303a207472616e7366657220746f20746865207a65726f206164647260008201527f6573730000000000000000000000000000000000000000000000000000000000602082015250565b7f416d6f756e7420746f2072656d6f76652063616e6e6f7420626520677265617460008201527f6572207468616e20756e636c61696d656420616d6f756e740000000000000000602082015250565b7f45524332303a206275726e20616d6f756e7420657863656564732062616c616e60008201527f6365000000000000000000000000000000000000000000000000000000000000602082015250565b7f45524332303a20617070726f766520746f20746865207a65726f20616464726560008201527f7373000000000000000000000000000000000000000000000000000000000000602082015250565b7f45524332303a20696e73756666696369656e7420616c6c6f77616e6365000000600082015250565b7f45524332303a207472616e7366657220616d6f756e742065786365656473206260008201527f616c616e63650000000000000000000000000000000000000000000000000000602082015250565b7f556e636c61696d65642062616c616e6365206d7573742062652067726561746560008201527f72207468616e2030000000000000000000000000000000000000000000000000602082015250565b7f43616c6c6572206973206e6f742061206d696e74657200000000000000000000600082015250565b7f43616c6c6572206973206e6f742061206275726e657200000000000000000000600082015250565b7f45524332303a206275726e2066726f6d20746865207a65726f2061646472657360008201527f7300000000000000000000000000000000000000000000000000000000000000602082015250565b7f45524332303a207472616e736665722066726f6d20746865207a65726f20616460008201527f6472657373000000000000000000000000000000000000000000000000000000602082015250565b7f43616c6c6572206973206e6f7420612072657761726465720000000000000000600082015250565b7f45524332303a20617070726f76652066726f6d20746865207a65726f2061646460008201527f7265737300000000000000000000000000000000000000000000000000000000602082015250565b7f636c61696d61626c65206d7573742062652067726561746572207468616e2030600082015250565b7f416363657373436f6e74726f6c3a206163636f756e7420000000000000000000600082015250565b7f45524332303a2064656372656173656420616c6c6f77616e63652062656c6f7760008201527f207a65726f000000000000000000000000000000000000000000000000000000602082015250565b7f206973206d697373696e6720726f6c6520000000000000000000000000000000600082015250565b7f416363657373436f6e74726f6c3a2063616e206f6e6c792072656e6f756e636560008201527f20726f6c657320666f722073656c660000000000000000000000000000000000602082015250565b7f45524332303a206d696e7420746f20746865207a65726f206164647265737300600082015250565b61324b81612b80565b811461325657600080fd5b50565b61326281612b92565b811461326d57600080fd5b50565b61327981612b9e565b811461328457600080fd5b50565b61329081612ba8565b811461329b57600080fd5b50565b6132a781612bf4565b81146132b257600080fd5b5056fea2646970667358221220b1d96e6710d3abcbeb863924e03305c33755fbdfeb820694bc1d1d7c2166535064736f6c63430008070033",
					"opcodes": "PUSH1 0x80 PUSH1 0x40 MSTORE CALLVALUE DUP1 ISZERO PUSH3 0x11 JUMPI PUSH1 0x0 DUP1 REVERT JUMPDEST POP PUSH1 0x40 MLOAD DUP1 PUSH1 0x40 ADD PUSH1 0x40 MSTORE DUP1 PUSH1 0x9 DUP2 MSTORE PUSH1 0x20 ADD PUSH32 0x466F6F20546F6B656E0000000000000000000000000000000000000000000000 DUP2 MSTORE POP PUSH1 0x40 MLOAD DUP1 PUSH1 0x40 ADD PUSH1 0x40 MSTORE DUP1 PUSH1 0x3 DUP2 MSTORE PUSH1 0x20 ADD PUSH32 0x464F4F0000000000000000000000000000000000000000000000000000000000 DUP2 MSTORE POP DUP2 PUSH1 0x3 SWAP1 DUP1 MLOAD SWAP1 PUSH1 0x20 ADD SWAP1 PUSH3 0x96 SWAP3 SWAP2 SWAP1 PUSH3 0x3E8 JUMP JUMPDEST POP DUP1 PUSH1 0x4 SWAP1 DUP1 MLOAD SWAP1 PUSH1 0x20 ADD SWAP1 PUSH3 0xAF SWAP3 SWAP2 SWAP1 PUSH3 0x3E8 JUMP JUMPDEST POP POP POP PUSH3 0xCF ADDRESS PUSH11 0x52B7D2DCC80CD2E4000000 PUSH3 0xEA PUSH1 0x20 SHL PUSH1 0x20 SHR JUMP JUMPDEST PUSH3 0xE4 PUSH1 0x0 DUP1 SHL CALLER PUSH3 0x263 PUSH1 0x20 SHL PUSH1 0x20 SHR JUMP JUMPDEST PUSH3 0x644 JUMP JUMPDEST PUSH1 0x0 PUSH20 0xFFFFFFFFFFFFFFFFFFFFFFFFFFFFFFFFFFFFFFFF AND DUP3 PUSH20 0xFFFFFFFFFFFFFFFFFFFFFFFFFFFFFFFFFFFFFFFF AND EQ ISZERO PUSH3 0x15D JUMPI PUSH1 0x40 MLOAD PUSH32 0x8C379A000000000000000000000000000000000000000000000000000000000 DUP2 MSTORE PUSH1 0x4 ADD PUSH3 0x154 SWAP1 PUSH3 0x4D0 JUMP JUMPDEST PUSH1 0x40 MLOAD DUP1 SWAP2 SUB SWAP1 REVERT JUMPDEST PUSH3 0x171 PUSH1 0x0 DUP4 DUP4 PUSH3 0x279 PUSH1 0x20 SHL PUSH1 0x20 SHR JUMP JUMPDEST DUP1 PUSH1 0x2 PUSH1 0x0 DUP3 DUP3 SLOAD PUSH3 0x185 SWAP2 SWAP1 PUSH3 0x520 JUMP JUMPDEST SWAP3 POP POP DUP2 SWAP1 SSTORE POP DUP1 PUSH1 0x0 DUP1 DUP5 PUSH20 0xFFFFFFFFFFFFFFFFFFFFFFFFFFFFFFFFFFFFFFFF AND PUSH20 0xFFFFFFFFFFFFFFFFFFFFFFFFFFFFFFFFFFFFFFFF AND DUP2 MSTORE PUSH1 0x20 ADD SWAP1 DUP2 MSTORE PUSH1 0x20 ADD PUSH1 0x0 KECCAK256 PUSH1 0x0 DUP3 DUP3 SLOAD PUSH3 0x1DC SWAP2 SWAP1 PUSH3 0x520 JUMP JUMPDEST SWAP3 POP POP DUP2 SWAP1 SSTORE POP DUP2 PUSH20 0xFFFFFFFFFFFFFFFFFFFFFFFFFFFFFFFFFFFFFFFF AND PUSH1 0x0 PUSH20 0xFFFFFFFFFFFFFFFFFFFFFFFFFFFFFFFFFFFFFFFF AND PUSH32 0xDDF252AD1BE2C89B69C2B068FC378DAA952BA7F163C4A11628F55A4DF523B3EF DUP4 PUSH1 0x40 MLOAD PUSH3 0x243 SWAP2 SWAP1 PUSH3 0x4F2 JUMP JUMPDEST PUSH1 0x40 MLOAD DUP1 SWAP2 SUB SWAP1 LOG3 PUSH3 0x25F PUSH1 0x0 DUP4 DUP4 PUSH3 0x27E PUSH1 0x20 SHL PUSH1 0x20 SHR JUMP JUMPDEST POP POP JUMP JUMPDEST PUSH3 0x275 DUP3 DUP3 PUSH3 0x283 PUSH1 0x20 SHL PUSH1 0x20 SHR JUMP JUMPDEST POP POP JUMP JUMPDEST POP POP POP JUMP JUMPDEST POP POP POP JUMP JUMPDEST PUSH3 0x295 DUP3 DUP3 PUSH3 0x375 PUSH1 0x20 SHL PUSH1 0x20 SHR JUMP JUMPDEST PUSH3 0x371 JUMPI PUSH1 0x1 PUSH1 0x5 PUSH1 0x0 DUP5 DUP2 MSTORE PUSH1 0x20 ADD SWAP1 DUP2 MSTORE PUSH1 0x20 ADD PUSH1 0x0 KECCAK256 PUSH1 0x0 ADD PUSH1 0x0 DUP4 PUSH20 0xFFFFFFFFFFFFFFFFFFFFFFFFFFFFFFFFFFFFFFFF AND PUSH20 0xFFFFFFFFFFFFFFFFFFFFFFFFFFFFFFFFFFFFFFFF AND DUP2 MSTORE PUSH1 0x20 ADD SWAP1 DUP2 MSTORE PUSH1 0x20 ADD PUSH1 0x0 KECCAK256 PUSH1 0x0 PUSH2 0x100 EXP DUP2 SLOAD DUP2 PUSH1 0xFF MUL NOT AND SWAP1 DUP4 ISZERO ISZERO MUL OR SWAP1 SSTORE POP PUSH3 0x316 PUSH3 0x3E0 PUSH1 0x20 SHL PUSH1 0x20 SHR JUMP JUMPDEST PUSH20 0xFFFFFFFFFFFFFFFFFFFFFFFFFFFFFFFFFFFFFFFF AND DUP2 PUSH20 0xFFFFFFFFFFFFFFFFFFFFFFFFFFFFFFFFFFFFFFFF AND DUP4 PUSH32 0x2F8788117E7EFF1D82E926EC794901D17C78024A50270940304540A733656F0D PUSH1 0x40 MLOAD PUSH1 0x40 MLOAD DUP1 SWAP2 SUB SWAP1 LOG4 JUMPDEST POP POP JUMP JUMPDEST PUSH1 0x0 PUSH1 0x5 PUSH1 0x0 DUP5 DUP2 MSTORE PUSH1 0x20 ADD SWAP1 DUP2 MSTORE PUSH1 0x20 ADD PUSH1 0x0 KECCAK256 PUSH1 0x0 ADD PUSH1 0x0 DUP4 PUSH20 0xFFFFFFFFFFFFFFFFFFFFFFFFFFFFFFFFFFFFFFFF AND PUSH20 0xFFFFFFFFFFFFFFFFFFFFFFFFFFFFFFFFFFFFFFFF AND DUP2 MSTORE PUSH1 0x20 ADD SWAP1 DUP2 MSTORE PUSH1 0x20 ADD PUSH1 0x0 KECCAK256 PUSH1 0x0 SWAP1 SLOAD SWAP1 PUSH2 0x100 EXP SWAP1 DIV PUSH1 0xFF AND SWAP1 POP SWAP3 SWAP2 POP POP JUMP JUMPDEST PUSH1 0x0 CALLER SWAP1 POP SWAP1 JUMP JUMPDEST DUP3 DUP1 SLOAD PUSH3 0x3F6 SWAP1 PUSH3 0x587 JUMP JUMPDEST SWAP1 PUSH1 0x0 MSTORE PUSH1 0x20 PUSH1 0x0 KECCAK256 SWAP1 PUSH1 0x1F ADD PUSH1 0x20 SWAP1 DIV DUP2 ADD SWAP3 DUP3 PUSH3 0x41A JUMPI PUSH1 0x0 DUP6 SSTORE PUSH3 0x466 JUMP JUMPDEST DUP3 PUSH1 0x1F LT PUSH3 0x435 JUMPI DUP1 MLOAD PUSH1 0xFF NOT AND DUP4 DUP1 ADD OR DUP6 SSTORE PUSH3 0x466 JUMP JUMPDEST DUP3 DUP1 ADD PUSH1 0x1 ADD DUP6 SSTORE DUP3 ISZERO PUSH3 0x466 JUMPI SWAP2 DUP3 ADD JUMPDEST DUP3 DUP2 GT ISZERO PUSH3 0x465 JUMPI DUP3 MLOAD DUP3 SSTORE SWAP2 PUSH1 0x20 ADD SWAP2 SWAP1 PUSH1 0x1 ADD SWAP1 PUSH3 0x448 JUMP JUMPDEST JUMPDEST POP SWAP1 POP PUSH3 0x475 SWAP2 SWAP1 PUSH3 0x479 JUMP JUMPDEST POP SWAP1 JUMP JUMPDEST JUMPDEST DUP1 DUP3 GT ISZERO PUSH3 0x494 JUMPI PUSH1 0x0 DUP2 PUSH1 0x0 SWAP1 SSTORE POP PUSH1 0x1 ADD PUSH3 0x47A JUMP JUMPDEST POP SWAP1 JUMP JUMPDEST PUSH1 0x0 PUSH3 0x4A7 PUSH1 0x1F DUP4 PUSH3 0x50F JUMP JUMPDEST SWAP2 POP PUSH3 0x4B4 DUP3 PUSH3 0x61B JUMP JUMPDEST PUSH1 0x20 DUP3 ADD SWAP1 POP SWAP2 SWAP1 POP JUMP JUMPDEST PUSH3 0x4CA DUP2 PUSH3 0x57D JUMP JUMPDEST DUP3 MSTORE POP POP JUMP JUMPDEST PUSH1 0x0 PUSH1 0x20 DUP3 ADD SWAP1 POP DUP2 DUP2 SUB PUSH1 0x0 DUP4 ADD MSTORE PUSH3 0x4EB DUP2 PUSH3 0x498 JUMP JUMPDEST SWAP1 POP SWAP2 SWAP1 POP JUMP JUMPDEST PUSH1 0x0 PUSH1 0x20 DUP3 ADD SWAP1 POP PUSH3 0x509 PUSH1 0x0 DUP4 ADD DUP5 PUSH3 0x4BF JUMP JUMPDEST SWAP3 SWAP2 POP POP JUMP JUMPDEST PUSH1 0x0 DUP3 DUP3 MSTORE PUSH1 0x20 DUP3 ADD SWAP1 POP SWAP3 SWAP2 POP POP JUMP JUMPDEST PUSH1 0x0 PUSH3 0x52D DUP3 PUSH3 0x57D JUMP JUMPDEST SWAP2 POP PUSH3 0x53A DUP4 PUSH3 0x57D JUMP JUMPDEST SWAP3 POP DUP3 PUSH32 0xFFFFFFFFFFFFFFFFFFFFFFFFFFFFFFFFFFFFFFFFFFFFFFFFFFFFFFFFFFFFFFFF SUB DUP3 GT ISZERO PUSH3 0x572 JUMPI PUSH3 0x571 PUSH3 0x5BD JUMP JUMPDEST JUMPDEST DUP3 DUP3 ADD SWAP1 POP SWAP3 SWAP2 POP POP JUMP JUMPDEST PUSH1 0x0 DUP2 SWAP1 POP SWAP2 SWAP1 POP JUMP JUMPDEST PUSH1 0x0 PUSH1 0x2 DUP3 DIV SWAP1 POP PUSH1 0x1 DUP3 AND DUP1 PUSH3 0x5A0 JUMPI PUSH1 0x7F DUP3 AND SWAP2 POP JUMPDEST PUSH1 0x20 DUP3 LT DUP2 EQ ISZERO PUSH3 0x5B7 JUMPI PUSH3 0x5B6 PUSH3 0x5EC JUMP JUMPDEST JUMPDEST POP SWAP2 SWAP1 POP JUMP JUMPDEST PUSH32 0x4E487B7100000000000000000000000000000000000000000000000000000000 PUSH1 0x0 MSTORE PUSH1 0x11 PUSH1 0x4 MSTORE PUSH1 0x24 PUSH1 0x0 REVERT JUMPDEST PUSH32 0x4E487B7100000000000000000000000000000000000000000000000000000000 PUSH1 0x0 MSTORE PUSH1 0x22 PUSH1 0x4 MSTORE PUSH1 0x24 PUSH1 0x0 REVERT JUMPDEST PUSH32 0x45524332303A206D696E7420746F20746865207A65726F206164647265737300 PUSH1 0x0 DUP3 ADD MSTORE POP JUMP JUMPDEST PUSH2 0x32EB DUP1 PUSH3 0x654 PUSH1 0x0 CODECOPY PUSH1 0x0 RETURN INVALID PUSH1 0x80 PUSH1 0x40 MSTORE PUSH1 0x4 CALLDATASIZE LT PUSH2 0x1CD JUMPI PUSH1 0x0 CALLDATALOAD PUSH1 0xE0 SHR DUP1 PUSH4 0x70A08231 GT PUSH2 0xF7 JUMPI DUP1 PUSH4 0xA457C2D7 GT PUSH2 0x95 JUMPI DUP1 PUSH4 0xD547741F GT PUSH2 0x64 JUMPI DUP1 PUSH4 0xD547741F EQ PUSH2 0x6DD JUMPI DUP1 PUSH4 0xDD62ED3E EQ PUSH2 0x706 JUMPI DUP1 PUSH4 0xE5B7F305 EQ PUSH2 0x743 JUMPI DUP1 PUSH4 0xEB46260E EQ PUSH2 0x76C JUMPI PUSH2 0x1CD JUMP JUMPDEST DUP1 PUSH4 0xA457C2D7 EQ PUSH2 0x5FB JUMPI DUP1 PUSH4 0xA9059CBB EQ PUSH2 0x638 JUMPI DUP1 PUSH4 0xC884EF83 EQ PUSH2 0x675 JUMPI DUP1 PUSH4 0xD5391393 EQ PUSH2 0x6B2 JUMPI PUSH2 0x1CD JUMP JUMPDEST DUP1 PUSH4 0x91D14854 GT PUSH2 0xD1 JUMPI DUP1 PUSH4 0x91D14854 EQ PUSH2 0x53F JUMPI DUP1 PUSH4 0x95D89B41 EQ PUSH2 0x57C JUMPI DUP1 PUSH4 0x9DC29FAC EQ PUSH2 0x5A7 JUMPI DUP1 PUSH4 0xA217FDDF EQ PUSH2 0x5D0 JUMPI PUSH2 0x1CD JUMP JUMPDEST DUP1 PUSH4 0x70A08231 EQ PUSH2 0x4AE JUMPI DUP1 PUSH4 0x8580CF76 EQ PUSH2 0x4EB JUMPI DUP1 PUSH4 0x8A9DB765 EQ PUSH2 0x516 JUMPI PUSH2 0x1CD JUMP JUMPDEST DUP1 PUSH4 0x2F2FF15D GT PUSH2 0x16F JUMPI DUP1 PUSH4 0x3AB1CED1 GT PUSH2 0x13E JUMPI DUP1 PUSH4 0x3AB1CED1 EQ PUSH2 0x401 JUMPI DUP1 PUSH4 0x40C10F19 EQ PUSH2 0x43E JUMPI DUP1 PUSH4 0x4E71D92D EQ PUSH2 0x467 JUMPI DUP1 PUSH4 0x505BD3DA EQ PUSH2 0x471 JUMPI PUSH2 0x1CD JUMP JUMPDEST DUP1 PUSH4 0x2F2FF15D EQ PUSH2 0x347 JUMPI DUP1 PUSH4 0x313CE567 EQ PUSH2 0x370 JUMPI DUP1 PUSH4 0x36568ABE EQ PUSH2 0x39B JUMPI DUP1 PUSH4 0x39509351 EQ PUSH2 0x3C4 JUMPI PUSH2 0x1CD JUMP JUMPDEST DUP1 PUSH4 0x18160DDD GT PUSH2 0x1AB JUMPI DUP1 PUSH4 0x18160DDD EQ PUSH2 0x277 JUMPI DUP1 PUSH4 0x23B872DD EQ PUSH2 0x2A2 JUMPI DUP1 PUSH4 0x248A9CA3 EQ PUSH2 0x2DF JUMPI DUP1 PUSH4 0x282C51F3 EQ PUSH2 0x31C JUMPI PUSH2 0x1CD JUMP JUMPDEST DUP1 PUSH4 0x1FFC9A7 EQ PUSH2 0x1D2 JUMPI DUP1 PUSH4 0x6FDDE03 EQ PUSH2 0x20F JUMPI DUP1 PUSH4 0x95EA7B3 EQ PUSH2 0x23A JUMPI JUMPDEST PUSH1 0x0 DUP1 REVERT JUMPDEST CALLVALUE DUP1 ISZERO PUSH2 0x1DE JUMPI PUSH1 0x0 DUP1 REVERT JUMPDEST POP PUSH2 0x1F9 PUSH1 0x4 DUP1 CALLDATASIZE SUB DUP2 ADD SWAP1 PUSH2 0x1F4 SWAP2 SWAP1 PUSH2 0x23A6 JUMP JUMPDEST PUSH2 0x7A9 JUMP JUMPDEST PUSH1 0x40 MLOAD PUSH2 0x206 SWAP2 SWAP1 PUSH2 0x27A7 JUMP JUMPDEST PUSH1 0x40 MLOAD DUP1 SWAP2 SUB SWAP1 RETURN JUMPDEST CALLVALUE DUP1 ISZERO PUSH2 0x21B JUMPI PUSH1 0x0 DUP1 REVERT JUMPDEST POP PUSH2 0x224 PUSH2 0x823 JUMP JUMPDEST PUSH1 0x40 MLOAD PUSH2 0x231 SWAP2 SWAP1 PUSH2 0x27DD JUMP JUMPDEST PUSH1 0x40 MLOAD DUP1 SWAP2 SUB SWAP1 RETURN JUMPDEST CALLVALUE DUP1 ISZERO PUSH2 0x246 JUMPI PUSH1 0x0 DUP1 REVERT JUMPDEST POP PUSH2 0x261 PUSH1 0x4 DUP1 CALLDATASIZE SUB DUP2 ADD SWAP1 PUSH2 0x25C SWAP2 SWAP1 PUSH2 0x22CC JUMP JUMPDEST PUSH2 0x8B5 JUMP JUMPDEST PUSH1 0x40 MLOAD PUSH2 0x26E SWAP2 SWAP1 PUSH2 0x27A7 JUMP JUMPDEST PUSH1 0x40 MLOAD DUP1 SWAP2 SUB SWAP1 RETURN JUMPDEST CALLVALUE DUP1 ISZERO PUSH2 0x283 JUMPI PUSH1 0x0 DUP1 REVERT JUMPDEST POP PUSH2 0x28C PUSH2 0x8D8 JUMP JUMPDEST PUSH1 0x40 MLOAD PUSH2 0x299 SWAP2 SWAP1 PUSH2 0x2A3F JUMP JUMPDEST PUSH1 0x40 MLOAD DUP1 SWAP2 SUB SWAP1 RETURN JUMPDEST CALLVALUE DUP1 ISZERO PUSH2 0x2AE JUMPI PUSH1 0x0 DUP1 REVERT JUMPDEST POP PUSH2 0x2C9 PUSH1 0x4 DUP1 CALLDATASIZE SUB DUP2 ADD SWAP1 PUSH2 0x2C4 SWAP2 SWAP1 PUSH2 0x2279 JUMP JUMPDEST PUSH2 0x8E2 JUMP JUMPDEST PUSH1 0x40 MLOAD PUSH2 0x2D6 SWAP2 SWAP1 PUSH2 0x27A7 JUMP JUMPDEST PUSH1 0x40 MLOAD DUP1 SWAP2 SUB SWAP1 RETURN JUMPDEST CALLVALUE DUP1 ISZERO PUSH2 0x2EB JUMPI PUSH1 0x0 DUP1 REVERT JUMPDEST POP PUSH2 0x306 PUSH1 0x4 DUP1 CALLDATASIZE SUB DUP2 ADD SWAP1 PUSH2 0x301 SWAP2 SWAP1 PUSH2 0x2339 JUMP JUMPDEST PUSH2 0x911 JUMP JUMPDEST PUSH1 0x40 MLOAD PUSH2 0x313 SWAP2 SWAP1 PUSH2 0x27C2 JUMP JUMPDEST PUSH1 0x40 MLOAD DUP1 SWAP2 SUB SWAP1 RETURN JUMPDEST CALLVALUE DUP1 ISZERO PUSH2 0x328 JUMPI PUSH1 0x0 DUP1 REVERT JUMPDEST POP PUSH2 0x331 PUSH2 0x931 JUMP JUMPDEST PUSH1 0x40 MLOAD PUSH2 0x33E SWAP2 SWAP1 PUSH2 0x27C2 JUMP JUMPDEST PUSH1 0x40 MLOAD DUP1 SWAP2 SUB SWAP1 RETURN JUMPDEST CALLVALUE DUP1 ISZERO PUSH2 0x353 JUMPI PUSH1 0x0 DUP1 REVERT JUMPDEST POP PUSH2 0x36E PUSH1 0x4 DUP1 CALLDATASIZE SUB DUP2 ADD SWAP1 PUSH2 0x369 SWAP2 SWAP1 PUSH2 0x2366 JUMP JUMPDEST PUSH2 0x955 JUMP JUMPDEST STOP JUMPDEST CALLVALUE DUP1 ISZERO PUSH2 0x37C JUMPI PUSH1 0x0 DUP1 REVERT JUMPDEST POP PUSH2 0x385 PUSH2 0x97E JUMP JUMPDEST PUSH1 0x40 MLOAD PUSH2 0x392 SWAP2 SWAP1 PUSH2 0x2A5A JUMP JUMPDEST PUSH1 0x40 MLOAD DUP1 SWAP2 SUB SWAP1 RETURN JUMPDEST CALLVALUE DUP1 ISZERO PUSH2 0x3A7 JUMPI PUSH1 0x0 DUP1 REVERT JUMPDEST POP PUSH2 0x3C2 PUSH1 0x4 DUP1 CALLDATASIZE SUB DUP2 ADD SWAP1 PUSH2 0x3BD SWAP2 SWAP1 PUSH2 0x2366 JUMP JUMPDEST PUSH2 0x987 JUMP JUMPDEST STOP JUMPDEST CALLVALUE DUP1 ISZERO PUSH2 0x3D0 JUMPI PUSH1 0x0 DUP1 REVERT JUMPDEST POP PUSH2 0x3EB PUSH1 0x4 DUP1 CALLDATASIZE SUB DUP2 ADD SWAP1 PUSH2 0x3E6 SWAP2 SWAP1 PUSH2 0x22CC JUMP JUMPDEST PUSH2 0xA0A JUMP JUMPDEST PUSH1 0x40 MLOAD PUSH2 0x3F8 SWAP2 SWAP1 PUSH2 0x27A7 JUMP JUMPDEST PUSH1 0x40 MLOAD DUP1 SWAP2 SUB SWAP1 RETURN JUMPDEST CALLVALUE DUP1 ISZERO PUSH2 0x40D JUMPI PUSH1 0x0 DUP1 REVERT JUMPDEST POP PUSH2 0x428 PUSH1 0x4 DUP1 CALLDATASIZE SUB DUP2 ADD SWAP1 PUSH2 0x423 SWAP2 SWAP1 PUSH2 0x220C JUMP JUMPDEST PUSH2 0xAB4 JUMP JUMPDEST PUSH1 0x40 MLOAD PUSH2 0x435 SWAP2 SWAP1 PUSH2 0x2A3F JUMP JUMPDEST PUSH1 0x40 MLOAD DUP1 SWAP2 SUB SWAP1 RETURN JUMPDEST CALLVALUE DUP1 ISZERO PUSH2 0x44A JUMPI PUSH1 0x0 DUP1 REVERT JUMPDEST POP PUSH2 0x465 PUSH1 0x4 DUP1 CALLDATASIZE SUB DUP2 ADD SWAP1 PUSH2 0x460 SWAP2 SWAP1 PUSH2 0x22CC JUMP JUMPDEST PUSH2 0xAFD JUMP JUMPDEST STOP JUMPDEST PUSH2 0x46F PUSH2 0xB74 JUMP JUMPDEST STOP JUMPDEST CALLVALUE DUP1 ISZERO PUSH2 0x47D JUMPI PUSH1 0x0 DUP1 REVERT JUMPDEST POP PUSH2 0x498 PUSH1 0x4 DUP1 CALLDATASIZE SUB DUP2 ADD SWAP1 PUSH2 0x493 SWAP2 SWAP1 PUSH2 0x220C JUMP JUMPDEST PUSH2 0xD3A JUMP JUMPDEST PUSH1 0x40 MLOAD PUSH2 0x4A5 SWAP2 SWAP1 PUSH2 0x2A3F JUMP JUMPDEST PUSH1 0x40 MLOAD DUP1 SWAP2 SUB SWAP1 RETURN JUMPDEST CALLVALUE DUP1 ISZERO PUSH2 0x4BA JUMPI PUSH1 0x0 DUP1 REVERT JUMPDEST POP PUSH2 0x4D5 PUSH1 0x4 DUP1 CALLDATASIZE SUB DUP2 ADD SWAP1 PUSH2 0x4D0 SWAP2 SWAP1 PUSH2 0x220C JUMP JUMPDEST PUSH2 0xD52 JUMP JUMPDEST PUSH1 0x40 MLOAD PUSH2 0x4E2 SWAP2 SWAP1 PUSH2 0x2A3F JUMP JUMPDEST PUSH1 0x40 MLOAD DUP1 SWAP2 SUB SWAP1 RETURN JUMPDEST CALLVALUE DUP1 ISZERO PUSH2 0x4F7 JUMPI PUSH1 0x0 DUP1 REVERT JUMPDEST POP PUSH2 0x500 PUSH2 0xD9A JUMP JUMPDEST PUSH1 0x40 MLOAD PUSH2 0x50D SWAP2 SWAP1 PUSH2 0x27C2 JUMP JUMPDEST PUSH1 0x40 MLOAD DUP1 SWAP2 SUB SWAP1 RETURN JUMPDEST CALLVALUE DUP1 ISZERO PUSH2 0x522 JUMPI PUSH1 0x0 DUP1 REVERT JUMPDEST POP PUSH2 0x53D PUSH1 0x4 DUP1 CALLDATASIZE SUB DUP2 ADD SWAP1 PUSH2 0x538 SWAP2 SWAP1 PUSH2 0x22CC JUMP JUMPDEST PUSH2 0xDBE JUMP JUMPDEST STOP JUMPDEST CALLVALUE DUP1 ISZERO PUSH2 0x54B JUMPI PUSH1 0x0 DUP1 REVERT JUMPDEST POP PUSH2 0x566 PUSH1 0x4 DUP1 CALLDATASIZE SUB DUP2 ADD SWAP1 PUSH2 0x561 SWAP2 SWAP1 PUSH2 0x2366 JUMP JUMPDEST PUSH2 0xF12 JUMP JUMPDEST PUSH1 0x40 MLOAD PUSH2 0x573 SWAP2 SWAP1 PUSH2 0x27A7 JUMP JUMPDEST PUSH1 0x40 MLOAD DUP1 SWAP2 SUB SWAP1 RETURN JUMPDEST CALLVALUE DUP1 ISZERO PUSH2 0x588 JUMPI PUSH1 0x0 DUP1 REVERT JUMPDEST POP PUSH2 0x591 PUSH2 0xF7D JUMP JUMPDEST PUSH1 0x40 MLOAD PUSH2 0x59E SWAP2 SWAP1 PUSH2 0x27DD JUMP JUMPDEST PUSH1 0x40 MLOAD DUP1 SWAP2 SUB SWAP1 RETURN JUMPDEST CALLVALUE DUP1 ISZERO PUSH2 0x5B3 JUMPI PUSH1 0x0 DUP1 REVERT JUMPDEST POP PUSH2 0x5CE PUSH1 0x4 DUP1 CALLDATASIZE SUB DUP2 ADD SWAP1 PUSH2 0x5C9 SWAP2 SWAP1 PUSH2 0x22CC JUMP JUMPDEST PUSH2 0x100F JUMP JUMPDEST STOP JUMPDEST CALLVALUE DUP1 ISZERO PUSH2 0x5DC JUMPI PUSH1 0x0 DUP1 REVERT JUMPDEST POP PUSH2 0x5E5 PUSH2 0x1086 JUMP JUMPDEST PUSH1 0x40 MLOAD PUSH2 0x5F2 SWAP2 SWAP1 PUSH2 0x27C2 JUMP JUMPDEST PUSH1 0x40 MLOAD DUP1 SWAP2 SUB SWAP1 RETURN JUMPDEST CALLVALUE DUP1 ISZERO PUSH2 0x607 JUMPI PUSH1 0x0 DUP1 REVERT JUMPDEST POP PUSH2 0x622 PUSH1 0x4 DUP1 CALLDATASIZE SUB DUP2 ADD SWAP1 PUSH2 0x61D SWAP2 SWAP1 PUSH2 0x22CC JUMP JUMPDEST PUSH2 0x108D JUMP JUMPDEST PUSH1 0x40 MLOAD PUSH2 0x62F SWAP2 SWAP1 PUSH2 0x27A7 JUMP JUMPDEST PUSH1 0x40 MLOAD DUP1 SWAP2 SUB SWAP1 RETURN JUMPDEST CALLVALUE DUP1 ISZERO PUSH2 0x644 JUMPI PUSH1 0x0 DUP1 REVERT JUMPDEST POP PUSH2 0x65F PUSH1 0x4 DUP1 CALLDATASIZE SUB DUP2 ADD SWAP1 PUSH2 0x65A SWAP2 SWAP1 PUSH2 0x22CC JUMP JUMPDEST PUSH2 0x1177 JUMP JUMPDEST PUSH1 0x40 MLOAD PUSH2 0x66C SWAP2 SWAP1 PUSH2 0x27A7 JUMP JUMPDEST PUSH1 0x40 MLOAD DUP1 SWAP2 SUB SWAP1 RETURN JUMPDEST CALLVALUE DUP1 ISZERO PUSH2 0x681 JUMPI PUSH1 0x0 DUP1 REVERT JUMPDEST POP PUSH2 0x69C PUSH1 0x4 DUP1 CALLDATASIZE SUB DUP2 ADD SWAP1 PUSH2 0x697 SWAP2 SWAP1 PUSH2 0x220C JUMP JUMPDEST PUSH2 0x119A JUMP JUMPDEST PUSH1 0x40 MLOAD PUSH2 0x6A9 SWAP2 SWAP1 PUSH2 0x2A3F JUMP JUMPDEST PUSH1 0x40 MLOAD DUP1 SWAP2 SUB SWAP1 RETURN JUMPDEST CALLVALUE DUP1 ISZERO PUSH2 0x6BE JUMPI PUSH1 0x0 DUP1 REVERT JUMPDEST POP PUSH2 0x6C7 PUSH2 0x11B2 JUMP JUMPDEST PUSH1 0x40 MLOAD PUSH2 0x6D4 SWAP2 SWAP1 PUSH2 0x27C2 JUMP JUMPDEST PUSH1 0x40 MLOAD DUP1 SWAP2 SUB SWAP1 RETURN JUMPDEST CALLVALUE DUP1 ISZERO PUSH2 0x6E9 JUMPI PUSH1 0x0 DUP1 REVERT JUMPDEST POP PUSH2 0x704 PUSH1 0x4 DUP1 CALLDATASIZE SUB DUP2 ADD SWAP1 PUSH2 0x6FF SWAP2 SWAP1 PUSH2 0x2366 JUMP JUMPDEST PUSH2 0x11D6 JUMP JUMPDEST STOP JUMPDEST CALLVALUE DUP1 ISZERO PUSH2 0x712 JUMPI PUSH1 0x0 DUP1 REVERT JUMPDEST POP PUSH2 0x72D PUSH1 0x4 DUP1 CALLDATASIZE SUB DUP2 ADD SWAP1 PUSH2 0x728 SWAP2 SWAP1 PUSH2 0x2239 JUMP JUMPDEST PUSH2 0x11FF JUMP JUMPDEST PUSH1 0x40 MLOAD PUSH2 0x73A SWAP2 SWAP1 PUSH2 0x2A3F JUMP JUMPDEST PUSH1 0x40 MLOAD DUP1 SWAP2 SUB SWAP1 RETURN JUMPDEST CALLVALUE DUP1 ISZERO PUSH2 0x74F JUMPI PUSH1 0x0 DUP1 REVERT JUMPDEST POP PUSH2 0x76A PUSH1 0x4 DUP1 CALLDATASIZE SUB DUP2 ADD SWAP1 PUSH2 0x765 SWAP2 SWAP1 PUSH2 0x22CC JUMP JUMPDEST PUSH2 0x1286 JUMP JUMPDEST STOP JUMPDEST CALLVALUE DUP1 ISZERO PUSH2 0x778 JUMPI PUSH1 0x0 DUP1 REVERT JUMPDEST POP PUSH2 0x793 PUSH1 0x4 DUP1 CALLDATASIZE SUB DUP2 ADD SWAP1 PUSH2 0x78E SWAP2 SWAP1 PUSH2 0x220C JUMP JUMPDEST PUSH2 0x12FD JUMP JUMPDEST PUSH1 0x40 MLOAD PUSH2 0x7A0 SWAP2 SWAP1 PUSH2 0x2A3F JUMP JUMPDEST PUSH1 0x40 MLOAD DUP1 SWAP2 SUB SWAP1 RETURN JUMPDEST PUSH1 0x0 PUSH32 0x7965DB0B00000000000000000000000000000000000000000000000000000000 PUSH28 0xFFFFFFFFFFFFFFFFFFFFFFFFFFFFFFFFFFFFFFFFFFFFFFFFFFFFFFFF NOT AND DUP3 PUSH28 0xFFFFFFFFFFFFFFFFFFFFFFFFFFFFFFFFFFFFFFFFFFFFFFFFFFFFFFFF NOT AND EQ DUP1 PUSH2 0x81C JUMPI POP PUSH2 0x81B DUP3 PUSH2 0x1346 JUMP JUMPDEST JUMPDEST SWAP1 POP SWAP2 SWAP1 POP JUMP JUMPDEST PUSH1 0x60 PUSH1 0x3 DUP1 SLOAD PUSH2 0x832 SWAP1 PUSH2 0x2C68 JUMP JUMPDEST DUP1 PUSH1 0x1F ADD PUSH1 0x20 DUP1 SWAP2 DIV MUL PUSH1 0x20 ADD PUSH1 0x40 MLOAD SWAP1 DUP2 ADD PUSH1 0x40 MSTORE DUP1 SWAP3 SWAP2 SWAP1 DUP2 DUP2 MSTORE PUSH1 0x20 ADD DUP3 DUP1 SLOAD PUSH2 0x85E SWAP1 PUSH2 0x2C68 JUMP JUMPDEST DUP1 ISZERO PUSH2 0x8AB JUMPI DUP1 PUSH1 0x1F LT PUSH2 0x880 JUMPI PUSH2 0x100 DUP1 DUP4 SLOAD DIV MUL DUP4 MSTORE SWAP2 PUSH1 0x20 ADD SWAP2 PUSH2 0x8AB JUMP JUMPDEST DUP3 ADD SWAP2 SWAP1 PUSH1 0x0 MSTORE PUSH1 0x20 PUSH1 0x0 KECCAK256 SWAP1 JUMPDEST DUP2 SLOAD DUP2 MSTORE SWAP1 PUSH1 0x1 ADD SWAP1 PUSH1 0x20 ADD DUP1 DUP4 GT PUSH2 0x88E JUMPI DUP3 SWAP1 SUB PUSH1 0x1F AND DUP3 ADD SWAP2 JUMPDEST POP POP POP POP POP SWAP1 POP SWAP1 JUMP JUMPDEST PUSH1 0x0 DUP1 PUSH2 0x8C0 PUSH2 0x13B0 JUMP JUMPDEST SWAP1 POP PUSH2 0x8CD DUP2 DUP6 DUP6 PUSH2 0x13B8 JUMP JUMPDEST PUSH1 0x1 SWAP2 POP POP SWAP3 SWAP2 POP POP JUMP JUMPDEST PUSH1 0x0 PUSH1 0x2 SLOAD SWAP1 POP SWAP1 JUMP JUMPDEST PUSH1 0x0 DUP1 PUSH2 0x8ED PUSH2 0x13B0 JUMP JUMPDEST SWAP1 POP PUSH2 0x8FA DUP6 DUP3 DUP6 PUSH2 0x1583 JUMP JUMPDEST PUSH2 0x905 DUP6 DUP6 DUP6 PUSH2 0x160F JUMP JUMPDEST PUSH1 0x1 SWAP2 POP POP SWAP4 SWAP3 POP POP POP JUMP JUMPDEST PUSH1 0x0 PUSH1 0x5 PUSH1 0x0 DUP4 DUP2 MSTORE PUSH1 0x20 ADD SWAP1 DUP2 MSTORE PUSH1 0x20 ADD PUSH1 0x0 KECCAK256 PUSH1 0x1 ADD SLOAD SWAP1 POP SWAP2 SWAP1 POP JUMP JUMPDEST PUSH32 0x3C11D16CBAFFD01DF69CE1C404F6340EE057498F5F00246190EA54220576A848 DUP2 JUMP JUMPDEST PUSH2 0x95E DUP3 PUSH2 0x911 JUMP JUMPDEST PUSH2 0x96F DUP2 PUSH2 0x96A PUSH2 0x13B0 JUMP JUMPDEST PUSH2 0x1890 JUMP JUMPDEST PUSH2 0x979 DUP4 DUP4 PUSH2 0x192D JUMP JUMPDEST POP POP POP JUMP JUMPDEST PUSH1 0x0 PUSH1 0x12 SWAP1 POP SWAP1 JUMP JUMPDEST PUSH2 0x98F PUSH2 0x13B0 JUMP JUMPDEST PUSH20 0xFFFFFFFFFFFFFFFFFFFFFFFFFFFFFFFFFFFFFFFF AND DUP2 PUSH20 0xFFFFFFFFFFFFFFFFFFFFFFFFFFFFFFFFFFFFFFFF AND EQ PUSH2 0x9FC JUMPI PUSH1 0x40 MLOAD PUSH32 0x8C379A000000000000000000000000000000000000000000000000000000000 DUP2 MSTORE PUSH1 0x4 ADD PUSH2 0x9F3 SWAP1 PUSH2 0x29FF JUMP JUMPDEST PUSH1 0x40 MLOAD DUP1 SWAP2 SUB SWAP1 REVERT JUMPDEST PUSH2 0xA06 DUP3 DUP3 PUSH2 0x1A0E JUMP JUMPDEST POP POP JUMP JUMPDEST PUSH1 0x0 DUP1 PUSH2 0xA15 PUSH2 0x13B0 JUMP JUMPDEST SWAP1 POP PUSH2 0xAA9 DUP2 DUP6 DUP6 PUSH1 0x1 PUSH1 0x0 DUP7 PUSH20 0xFFFFFFFFFFFFFFFFFFFFFFFFFFFFFFFFFFFFFFFF AND PUSH20 0xFFFFFFFFFFFFFFFFFFFFFFFFFFFFFFFFFFFFFFFF AND DUP2 MSTORE PUSH1 0x20 ADD SWAP1 DUP2 MSTORE PUSH1 0x20 ADD PUSH1 0x0 KECCAK256 PUSH1 0x0 DUP10 PUSH20 0xFFFFFFFFFFFFFFFFFFFFFFFFFFFFFFFFFFFFFFFF AND PUSH20 0xFFFFFFFFFFFFFFFFFFFFFFFFFFFFFFFFFFFFFFFF AND DUP2 MSTORE PUSH1 0x20 ADD SWAP1 DUP2 MSTORE PUSH1 0x20 ADD PUSH1 0x0 KECCAK256 SLOAD PUSH2 0xAA4 SWAP2 SWAP1 PUSH2 0x2A9C JUMP JUMPDEST PUSH2 0x13B8 JUMP JUMPDEST PUSH1 0x1 SWAP2 POP POP SWAP3 SWAP2 POP POP JUMP JUMPDEST PUSH1 0x0 PUSH1 0x6 PUSH1 0x0 DUP4 PUSH20 0xFFFFFFFFFFFFFFFFFFFFFFFFFFFFFFFFFFFFFFFF AND PUSH20 0xFFFFFFFFFFFFFFFFFFFFFFFFFFFFFFFFFFFFFFFF AND DUP2 MSTORE PUSH1 0x20 ADD SWAP1 DUP2 MSTORE PUSH1 0x20 ADD PUSH1 0x0 KECCAK256 SLOAD SWAP1 POP SWAP2 SWAP1 POP JUMP JUMPDEST PUSH2 0xB27 PUSH32 0x9F2DF0FED2C77648DE5860A4CC508CD0818C85B8B8A1AB4CEEEF8D981C8956A6 CALLER PUSH2 0xF12 JUMP JUMPDEST PUSH2 0xB66 JUMPI PUSH1 0x40 MLOAD PUSH32 0x8C379A000000000000000000000000000000000000000000000000000000000 DUP2 MSTORE PUSH1 0x4 ADD PUSH2 0xB5D SWAP1 PUSH2 0x28FF JUMP JUMPDEST PUSH1 0x40 MLOAD DUP1 SWAP2 SUB SWAP1 REVERT JUMPDEST PUSH2 0xB70 DUP3 DUP3 PUSH2 0x1AF0 JUMP JUMPDEST POP POP JUMP JUMPDEST PUSH1 0x0 PUSH1 0x6 PUSH1 0x0 CALLER PUSH20 0xFFFFFFFFFFFFFFFFFFFFFFFFFFFFFFFFFFFFFFFF AND PUSH20 0xFFFFFFFFFFFFFFFFFFFFFFFFFFFFFFFFFFFFFFFF AND DUP2 MSTORE PUSH1 0x20 ADD SWAP1 DUP2 MSTORE PUSH1 0x20 ADD PUSH1 0x0 KECCAK256 SLOAD SWAP1 POP PUSH1 0x0 DUP2 GT PUSH2 0xBFB JUMPI PUSH1 0x40 MLOAD PUSH32 0x8C379A000000000000000000000000000000000000000000000000000000000 DUP2 MSTORE PUSH1 0x4 ADD PUSH2 0xBF2 SWAP1 PUSH2 0x28DF JUMP JUMPDEST PUSH1 0x40 MLOAD DUP1 SWAP2 SUB SWAP1 REVERT JUMPDEST DUP1 PUSH1 0x7 PUSH1 0x0 CALLER PUSH20 0xFFFFFFFFFFFFFFFFFFFFFFFFFFFFFFFFFFFFFFFF AND PUSH20 0xFFFFFFFFFFFFFFFFFFFFFFFFFFFFFFFFFFFFFFFF AND DUP2 MSTORE PUSH1 0x20 ADD SWAP1 DUP2 MSTORE PUSH1 0x20 ADD PUSH1 0x0 KECCAK256 PUSH1 0x0 DUP3 DUP3 SLOAD PUSH2 0xC4A SWAP2 SWAP1 PUSH2 0x2A9C JUMP JUMPDEST SWAP3 POP POP DUP2 SWAP1 SSTORE POP PUSH1 0x0 PUSH1 0x6 PUSH1 0x0 CALLER PUSH20 0xFFFFFFFFFFFFFFFFFFFFFFFFFFFFFFFFFFFFFFFF AND PUSH20 0xFFFFFFFFFFFFFFFFFFFFFFFFFFFFFFFFFFFFFFFF AND DUP2 MSTORE PUSH1 0x20 ADD SWAP1 DUP2 MSTORE PUSH1 0x20 ADD PUSH1 0x0 KECCAK256 DUP2 SWAP1 SSTORE POP ADDRESS PUSH20 0xFFFFFFFFFFFFFFFFFFFFFFFFFFFFFFFFFFFFFFFF AND PUSH4 0xA9059CBB CALLER PUSH8 0xDE0B6B3A7640000 DUP5 PUSH2 0xCC7 SWAP2 SWAP1 PUSH2 0x2AF2 JUMP JUMPDEST PUSH1 0x40 MLOAD DUP4 PUSH4 0xFFFFFFFF AND PUSH1 0xE0 SHL DUP2 MSTORE PUSH1 0x4 ADD PUSH2 0xCE4 SWAP3 SWAP2 SWAP1 PUSH2 0x277E JUMP JUMPDEST PUSH1 0x20 PUSH1 0x40 MLOAD DUP1 DUP4 SUB DUP2 PUSH1 0x0 DUP8 DUP1 EXTCODESIZE ISZERO DUP1 ISZERO PUSH2 0xCFE JUMPI PUSH1 0x0 DUP1 REVERT JUMPDEST POP GAS CALL ISZERO DUP1 ISZERO PUSH2 0xD12 JUMPI RETURNDATASIZE PUSH1 0x0 DUP1 RETURNDATACOPY RETURNDATASIZE PUSH1 0x0 REVERT JUMPDEST POP POP POP POP PUSH1 0x40 MLOAD RETURNDATASIZE PUSH1 0x1F NOT PUSH1 0x1F DUP3 ADD AND DUP3 ADD DUP1 PUSH1 0x40 MSTORE POP DUP2 ADD SWAP1 PUSH2 0xD36 SWAP2 SWAP1 PUSH2 0x230C JUMP JUMPDEST POP POP JUMP JUMPDEST PUSH1 0x6 PUSH1 0x20 MSTORE DUP1 PUSH1 0x0 MSTORE PUSH1 0x40 PUSH1 0x0 KECCAK256 PUSH1 0x0 SWAP2 POP SWAP1 POP SLOAD DUP2 JUMP JUMPDEST PUSH1 0x0 DUP1 PUSH1 0x0 DUP4 PUSH20 0xFFFFFFFFFFFFFFFFFFFFFFFFFFFFFFFFFFFFFFFF AND PUSH20 0xFFFFFFFFFFFFFFFFFFFFFFFFFFFFFFFFFFFFFFFF AND DUP2 MSTORE PUSH1 0x20 ADD SWAP1 DUP2 MSTORE PUSH1 0x20 ADD PUSH1 0x0 KECCAK256 SLOAD SWAP1 POP SWAP2 SWAP1 POP JUMP JUMPDEST PUSH32 0xBEEC13769B5F410B0584F69811BFD923818456D5EDCF426B0E31CF90EED7A3F6 DUP2 JUMP JUMPDEST PUSH2 0xDE8 PUSH32 0xBEEC13769B5F410B0584F69811BFD923818456D5EDCF426B0E31CF90EED7A3F6 CALLER PUSH2 0xF12 JUMP JUMPDEST PUSH2 0xE27 JUMPI PUSH1 0x40 MLOAD PUSH32 0x8C379A000000000000000000000000000000000000000000000000000000000 DUP2 MSTORE PUSH1 0x4 ADD PUSH2 0xE1E SWAP1 PUSH2 0x297F JUMP JUMPDEST PUSH1 0x40 MLOAD DUP1 SWAP2 SUB SWAP1 REVERT JUMPDEST PUSH1 0x0 PUSH1 0x6 PUSH1 0x0 DUP5 PUSH20 0xFFFFFFFFFFFFFFFFFFFFFFFFFFFFFFFFFFFFFFFF AND PUSH20 0xFFFFFFFFFFFFFFFFFFFFFFFFFFFFFFFFFFFFFFFF AND DUP2 MSTORE PUSH1 0x20 ADD SWAP1 DUP2 MSTORE PUSH1 0x20 ADD PUSH1 0x0 KECCAK256 SLOAD PUSH1 0x7 PUSH1 0x0 DUP6 PUSH20 0xFFFFFFFFFFFFFFFFFFFFFFFFFFFFFFFFFFFFFFFF AND PUSH20 0xFFFFFFFFFFFFFFFFFFFFFFFFFFFFFFFFFFFFFFFF AND DUP2 MSTORE PUSH1 0x20 ADD SWAP1 DUP2 MSTORE PUSH1 0x20 ADD PUSH1 0x0 KECCAK256 SLOAD DUP4 PUSH2 0xEB4 SWAP2 SWAP1 PUSH2 0x2B4C JUMP JUMPDEST PUSH2 0xEBE SWAP2 SWAP1 PUSH2 0x2B4C JUMP JUMPDEST SWAP1 POP PUSH1 0x0 DUP2 GT PUSH2 0xF03 JUMPI PUSH1 0x40 MLOAD PUSH32 0x8C379A000000000000000000000000000000000000000000000000000000000 DUP2 MSTORE PUSH1 0x4 ADD PUSH2 0xEFA SWAP1 PUSH2 0x29BF JUMP JUMPDEST PUSH1 0x40 MLOAD DUP1 SWAP2 SUB SWAP1 REVERT JUMPDEST PUSH2 0xF0D DUP4 DUP3 PUSH2 0x1C50 JUMP JUMPDEST POP POP POP JUMP JUMPDEST PUSH1 0x0 PUSH1 0x5 PUSH1 0x0 DUP5 DUP2 MSTORE PUSH1 0x20 ADD SWAP1 DUP2 MSTORE PUSH1 0x20 ADD PUSH1 0x0 KECCAK256 PUSH1 0x0 ADD PUSH1 0x0 DUP4 PUSH20 0xFFFFFFFFFFFFFFFFFFFFFFFFFFFFFFFFFFFFFFFF AND PUSH20 0xFFFFFFFFFFFFFFFFFFFFFFFFFFFFFFFFFFFFFFFF AND DUP2 MSTORE PUSH1 0x20 ADD SWAP1 DUP2 MSTORE PUSH1 0x20 ADD PUSH1 0x0 KECCAK256 PUSH1 0x0 SWAP1 SLOAD SWAP1 PUSH2 0x100 EXP SWAP1 DIV PUSH1 0xFF AND SWAP1 POP SWAP3 SWAP2 POP POP JUMP JUMPDEST PUSH1 0x60 PUSH1 0x4 DUP1 SLOAD PUSH2 0xF8C SWAP1 PUSH2 0x2C68 JUMP JUMPDEST DUP1 PUSH1 0x1F ADD PUSH1 0x20 DUP1 SWAP2 DIV MUL PUSH1 0x20 ADD PUSH1 0x40 MLOAD SWAP1 DUP2 ADD PUSH1 0x40 MSTORE DUP1 SWAP3 SWAP2 SWAP1 DUP2 DUP2 MSTORE PUSH1 0x20 ADD DUP3 DUP1 SLOAD PUSH2 0xFB8 SWAP1 PUSH2 0x2C68 JUMP JUMPDEST DUP1 ISZERO PUSH2 0x1005 JUMPI DUP1 PUSH1 0x1F LT PUSH2 0xFDA JUMPI PUSH2 0x100 DUP1 DUP4 SLOAD DIV MUL DUP4 MSTORE SWAP2 PUSH1 0x20 ADD SWAP2 PUSH2 0x1005 JUMP JUMPDEST DUP3 ADD SWAP2 SWAP1 PUSH1 0x0 MSTORE PUSH1 0x20 PUSH1 0x0 KECCAK256 SWAP1 JUMPDEST DUP2 SLOAD DUP2 MSTORE SWAP1 PUSH1 0x1 ADD SWAP1 PUSH1 0x20 ADD DUP1 DUP4 GT PUSH2 0xFE8 JUMPI DUP3 SWAP1 SUB PUSH1 0x1F AND DUP3 ADD SWAP2 JUMPDEST POP POP POP POP POP SWAP1 POP SWAP1 JUMP JUMPDEST PUSH2 0x1039 PUSH32 0x3C11D16CBAFFD01DF69CE1C404F6340EE057498F5F00246190EA54220576A848 CALLER PUSH2 0xF12 JUMP JUMPDEST PUSH2 0x1078 JUMPI PUSH1 0x40 MLOAD PUSH32 0x8C379A000000000000000000000000000000000000000000000000000000000 DUP2 MSTORE PUSH1 0x4 ADD PUSH2 0x106F SWAP1 PUSH2 0x291F JUMP JUMPDEST PUSH1 0x40 MLOAD DUP1 SWAP2 SUB SWAP1 REVERT JUMPDEST PUSH2 0x1082 DUP3 DUP3 PUSH2 0x1CAA JUMP JUMPDEST POP POP JUMP JUMPDEST PUSH1 0x0 DUP1 SHL DUP2 JUMP JUMPDEST PUSH1 0x0 DUP1 PUSH2 0x1098 PUSH2 0x13B0 JUMP JUMPDEST SWAP1 POP PUSH1 0x0 PUSH1 0x1 PUSH1 0x0 DUP4 PUSH20 0xFFFFFFFFFFFFFFFFFFFFFFFFFFFFFFFFFFFFFFFF AND PUSH20 0xFFFFFFFFFFFFFFFFFFFFFFFFFFFFFFFFFFFFFFFF AND DUP2 MSTORE PUSH1 0x20 ADD SWAP1 DUP2 MSTORE PUSH1 0x20 ADD PUSH1 0x0 KECCAK256 PUSH1 0x0 DUP7 PUSH20 0xFFFFFFFFFFFFFFFFFFFFFFFFFFFFFFFFFFFFFFFF AND PUSH20 0xFFFFFFFFFFFFFFFFFFFFFFFFFFFFFFFFFFFFFFFF AND DUP2 MSTORE PUSH1 0x20 ADD SWAP1 DUP2 MSTORE PUSH1 0x20 ADD PUSH1 0x0 KECCAK256 SLOAD SWAP1 POP DUP4 DUP2 LT ISZERO PUSH2 0x115E JUMPI PUSH1 0x40 MLOAD PUSH32 0x8C379A000000000000000000000000000000000000000000000000000000000 DUP2 MSTORE PUSH1 0x4 ADD PUSH2 0x1155 SWAP1 PUSH2 0x29DF JUMP JUMPDEST PUSH1 0x40 MLOAD DUP1 SWAP2 SUB SWAP1 REVERT JUMPDEST PUSH2 0x116B DUP3 DUP7 DUP7 DUP5 SUB PUSH2 0x13B8 JUMP JUMPDEST PUSH1 0x1 SWAP3 POP POP POP SWAP3 SWAP2 POP POP JUMP JUMPDEST PUSH1 0x0 DUP1 PUSH2 0x1182 PUSH2 0x13B0 JUMP JUMPDEST SWAP1 POP PUSH2 0x118F DUP2 DUP6 DUP6 PUSH2 0x160F JUMP JUMPDEST PUSH1 0x1 SWAP2 POP POP SWAP3 SWAP2 POP POP JUMP JUMPDEST PUSH1 0x7 PUSH1 0x20 MSTORE DUP1 PUSH1 0x0 MSTORE PUSH1 0x40 PUSH1 0x0 KECCAK256 PUSH1 0x0 SWAP2 POP SWAP1 POP SLOAD DUP2 JUMP JUMPDEST PUSH32 0x9F2DF0FED2C77648DE5860A4CC508CD0818C85B8B8A1AB4CEEEF8D981C8956A6 DUP2 JUMP JUMPDEST PUSH2 0x11DF DUP3 PUSH2 0x911 JUMP JUMPDEST PUSH2 0x11F0 DUP2 PUSH2 0x11EB PUSH2 0x13B0 JUMP JUMPDEST PUSH2 0x1890 JUMP JUMPDEST PUSH2 0x11FA DUP4 DUP4 PUSH2 0x1A0E JUMP JUMPDEST POP POP POP JUMP JUMPDEST PUSH1 0x0 PUSH1 0x1 PUSH1 0x0 DUP5 PUSH20 0xFFFFFFFFFFFFFFFFFFFFFFFFFFFFFFFFFFFFFFFF AND PUSH20 0xFFFFFFFFFFFFFFFFFFFFFFFFFFFFFFFFFFFFFFFF AND DUP2 MSTORE PUSH1 0x20 ADD SWAP1 DUP2 MSTORE PUSH1 0x20 ADD PUSH1 0x0 KECCAK256 PUSH1 0x0 DUP4 PUSH20 0xFFFFFFFFFFFFFFFFFFFFFFFFFFFFFFFFFFFFFFFF AND PUSH20 0xFFFFFFFFFFFFFFFFFFFFFFFFFFFFFFFFFFFFFFFF AND DUP2 MSTORE PUSH1 0x20 ADD SWAP1 DUP2 MSTORE PUSH1 0x20 ADD PUSH1 0x0 KECCAK256 SLOAD SWAP1 POP SWAP3 SWAP2 POP POP JUMP JUMPDEST PUSH2 0x12B0 PUSH32 0xBEEC13769B5F410B0584F69811BFD923818456D5EDCF426B0E31CF90EED7A3F6 CALLER PUSH2 0xF12 JUMP JUMPDEST PUSH2 0x12EF JUMPI PUSH1 0x40 MLOAD PUSH32 0x8C379A000000000000000000000000000000000000000000000000000000000 DUP2 MSTORE PUSH1 0x4 ADD PUSH2 0x12E6 SWAP1 PUSH2 0x297F JUMP JUMPDEST PUSH1 0x40 MLOAD DUP1 SWAP2 SUB SWAP1 REVERT JUMPDEST PUSH2 0x12F9 DUP3 DUP3 PUSH2 0x1E81 JUMP JUMPDEST POP POP JUMP JUMPDEST PUSH1 0x0 PUSH1 0x7 PUSH1 0x0 DUP4 PUSH20 0xFFFFFFFFFFFFFFFFFFFFFFFFFFFFFFFFFFFFFFFF AND PUSH20 0xFFFFFFFFFFFFFFFFFFFFFFFFFFFFFFFFFFFFFFFF AND DUP2 MSTORE PUSH1 0x20 ADD SWAP1 DUP2 MSTORE PUSH1 0x20 ADD PUSH1 0x0 KECCAK256 SLOAD SWAP1 POP SWAP2 SWAP1 POP JUMP JUMPDEST PUSH1 0x0 PUSH32 0x1FFC9A700000000000000000000000000000000000000000000000000000000 PUSH28 0xFFFFFFFFFFFFFFFFFFFFFFFFFFFFFFFFFFFFFFFFFFFFFFFFFFFFFFFF NOT AND DUP3 PUSH28 0xFFFFFFFFFFFFFFFFFFFFFFFFFFFFFFFFFFFFFFFFFFFFFFFFFFFFFFFF NOT AND EQ SWAP1 POP SWAP2 SWAP1 POP JUMP JUMPDEST PUSH1 0x0 CALLER SWAP1 POP SWAP1 JUMP JUMPDEST PUSH1 0x0 PUSH20 0xFFFFFFFFFFFFFFFFFFFFFFFFFFFFFFFFFFFFFFFF AND DUP4 PUSH20 0xFFFFFFFFFFFFFFFFFFFFFFFFFFFFFFFFFFFFFFFF AND EQ ISZERO PUSH2 0x1428 JUMPI PUSH1 0x40 MLOAD PUSH32 0x8C379A000000000000000000000000000000000000000000000000000000000 DUP2 MSTORE PUSH1 0x4 ADD PUSH2 0x141F SWAP1 PUSH2 0x299F JUMP JUMPDEST PUSH1 0x40 MLOAD DUP1 SWAP2 SUB SWAP1 REVERT JUMPDEST PUSH1 0x0 PUSH20 0xFFFFFFFFFFFFFFFFFFFFFFFFFFFFFFFFFFFFFFFF AND DUP3 PUSH20 0xFFFFFFFFFFFFFFFFFFFFFFFFFFFFFFFFFFFFFFFF AND EQ ISZERO PUSH2 0x1498 JUMPI PUSH1 0x40 MLOAD PUSH32 0x8C379A000000000000000000000000000000000000000000000000000000000 DUP2 MSTORE PUSH1 0x4 ADD PUSH2 0x148F SWAP1 PUSH2 0x287F JUMP JUMPDEST PUSH1 0x40 MLOAD DUP1 SWAP2 SUB SWAP1 REVERT JUMPDEST DUP1 PUSH1 0x1 PUSH1 0x0 DUP6 PUSH20 0xFFFFFFFFFFFFFFFFFFFFFFFFFFFFFFFFFFFFFFFF AND PUSH20 0xFFFFFFFFFFFFFFFFFFFFFFFFFFFFFFFFFFFFFFFF AND DUP2 MSTORE PUSH1 0x20 ADD SWAP1 DUP2 MSTORE PUSH1 0x20 ADD PUSH1 0x0 KECCAK256 PUSH1 0x0 DUP5 PUSH20 0xFFFFFFFFFFFFFFFFFFFFFFFFFFFFFFFFFFFFFFFF AND PUSH20 0xFFFFFFFFFFFFFFFFFFFFFFFFFFFFFFFFFFFFFFFF AND DUP2 MSTORE PUSH1 0x20 ADD SWAP1 DUP2 MSTORE PUSH1 0x20 ADD PUSH1 0x0 KECCAK256 DUP2 SWAP1 SSTORE POP DUP2 PUSH20 0xFFFFFFFFFFFFFFFFFFFFFFFFFFFFFFFFFFFFFFFF AND DUP4 PUSH20 0xFFFFFFFFFFFFFFFFFFFFFFFFFFFFFFFFFFFFFFFF AND PUSH32 0x8C5BE1E5EBEC7D5BD14F71427D1E84F3DD0314C0F7B2291E5B200AC8C7C3B925 DUP4 PUSH1 0x40 MLOAD PUSH2 0x1576 SWAP2 SWAP1 PUSH2 0x2A3F JUMP JUMPDEST PUSH1 0x40 MLOAD DUP1 SWAP2 SUB SWAP1 LOG3 POP POP POP JUMP JUMPDEST PUSH1 0x0 PUSH2 0x158F DUP5 DUP5 PUSH2 0x11FF JUMP JUMPDEST SWAP1 POP PUSH32 0xFFFFFFFFFFFFFFFFFFFFFFFFFFFFFFFFFFFFFFFFFFFFFFFFFFFFFFFFFFFFFFFF DUP2 EQ PUSH2 0x1609 JUMPI DUP2 DUP2 LT ISZERO PUSH2 0x15FB JUMPI PUSH1 0x40 MLOAD PUSH32 0x8C379A000000000000000000000000000000000000000000000000000000000 DUP2 MSTORE PUSH1 0x4 ADD PUSH2 0x15F2 SWAP1 PUSH2 0x289F JUMP JUMPDEST PUSH1 0x40 MLOAD DUP1 SWAP2 SUB SWAP1 REVERT JUMPDEST PUSH2 0x1608 DUP5 DUP5 DUP5 DUP5 SUB PUSH2 0x13B8 JUMP JUMPDEST JUMPDEST POP POP POP POP JUMP JUMPDEST PUSH1 0x0 PUSH20 0xFFFFFFFFFFFFFFFFFFFFFFFFFFFFFFFFFFFFFFFF AND DUP4 PUSH20 0xFFFFFFFFFFFFFFFFFFFFFFFFFFFFFFFFFFFFFFFF AND EQ ISZERO PUSH2 0x167F JUMPI PUSH1 0x40 MLOAD PUSH32 0x8C379A000000000000000000000000000000000000000000000000000000000 DUP2 MSTORE PUSH1 0x4 ADD PUSH2 0x1676 SWAP1 PUSH2 0x295F JUMP JUMPDEST PUSH1 0x40 MLOAD DUP1 SWAP2 SUB SWAP1 REVERT JUMPDEST PUSH1 0x0 PUSH20 0xFFFFFFFFFFFFFFFFFFFFFFFFFFFFFFFFFFFFFFFF AND DUP3 PUSH20 0xFFFFFFFFFFFFFFFFFFFFFFFFFFFFFFFFFFFFFFFF AND EQ ISZERO PUSH2 0x16EF JUMPI PUSH1 0x40 MLOAD PUSH32 0x8C379A000000000000000000000000000000000000000000000000000000000 DUP2 MSTORE PUSH1 0x4 ADD PUSH2 0x16E6 SWAP1 PUSH2 0x281F JUMP JUMPDEST PUSH1 0x40 MLOAD DUP1 SWAP2 SUB SWAP1 REVERT JUMPDEST PUSH2 0x16FA DUP4 DUP4 DUP4 PUSH2 0x1F5D JUMP JUMPDEST PUSH1 0x0 DUP1 PUSH1 0x0 DUP6 PUSH20 0xFFFFFFFFFFFFFFFFFFFFFFFFFFFFFFFFFFFFFFFF AND PUSH20 0xFFFFFFFFFFFFFFFFFFFFFFFFFFFFFFFFFFFFFFFF AND DUP2 MSTORE PUSH1 0x20 ADD SWAP1 DUP2 MSTORE PUSH1 0x20 ADD PUSH1 0x0 KECCAK256 SLOAD SWAP1 POP DUP2 DUP2 LT ISZERO PUSH2 0x1780 JUMPI PUSH1 0x40 MLOAD PUSH32 0x8C379A000000000000000000000000000000000000000000000000000000000 DUP2 MSTORE PUSH1 0x4 ADD PUSH2 0x1777 SWAP1 PUSH2 0x28BF JUMP JUMPDEST PUSH1 0x40 MLOAD DUP1 SWAP2 SUB SWAP1 REVERT JUMPDEST DUP2 DUP2 SUB PUSH1 0x0 DUP1 DUP7 PUSH20 0xFFFFFFFFFFFFFFFFFFFFFFFFFFFFFFFFFFFFFFFF AND PUSH20 0xFFFFFFFFFFFFFFFFFFFFFFFFFFFFFFFFFFFFFFFF AND DUP2 MSTORE PUSH1 0x20 ADD SWAP1 DUP2 MSTORE PUSH1 0x20 ADD PUSH1 0x0 KECCAK256 DUP2 SWAP1 SSTORE POP DUP2 PUSH1 0x0 DUP1 DUP6 PUSH20 0xFFFFFFFFFFFFFFFFFFFFFFFFFFFFFFFFFFFFFFFF AND PUSH20 0xFFFFFFFFFFFFFFFFFFFFFFFFFFFFFFFFFFFFFFFF AND DUP2 MSTORE PUSH1 0x20 ADD SWAP1 DUP2 MSTORE PUSH1 0x20 ADD PUSH1 0x0 KECCAK256 PUSH1 0x0 DUP3 DUP3 SLOAD PUSH2 0x1813 SWAP2 SWAP1 PUSH2 0x2A9C JUMP JUMPDEST SWAP3 POP POP DUP2 SWAP1 SSTORE POP DUP3 PUSH20 0xFFFFFFFFFFFFFFFFFFFFFFFFFFFFFFFFFFFFFFFF AND DUP5 PUSH20 0xFFFFFFFFFFFFFFFFFFFFFFFFFFFFFFFFFFFFFFFF AND PUSH32 0xDDF252AD1BE2C89B69C2B068FC378DAA952BA7F163C4A11628F55A4DF523B3EF DUP5 PUSH1 0x40 MLOAD PUSH2 0x1877 SWAP2 SWAP1 PUSH2 0x2A3F JUMP JUMPDEST PUSH1 0x40 MLOAD DUP1 SWAP2 SUB SWAP1 LOG3 PUSH2 0x188A DUP5 DUP5 DUP5 PUSH2 0x1F62 JUMP JUMPDEST POP POP POP POP JUMP JUMPDEST PUSH2 0x189A DUP3 DUP3 PUSH2 0xF12 JUMP JUMPDEST PUSH2 0x1929 JUMPI PUSH2 0x18BF DUP2 PUSH20 0xFFFFFFFFFFFFFFFFFFFFFFFFFFFFFFFFFFFFFFFF AND PUSH1 0x14 PUSH2 0x1F67 JUMP JUMPDEST PUSH2 0x18CD DUP4 PUSH1 0x0 SHR PUSH1 0x20 PUSH2 0x1F67 JUMP JUMPDEST PUSH1 0x40 MLOAD PUSH1 0x20 ADD PUSH2 0x18DE SWAP3 SWAP2 SWAP1 PUSH2 0x2744 JUMP JUMPDEST PUSH1 0x40 MLOAD PUSH1 0x20 DUP2 DUP4 SUB SUB DUP2 MSTORE SWAP1 PUSH1 0x40 MSTORE PUSH1 0x40 MLOAD PUSH32 0x8C379A000000000000000000000000000000000000000000000000000000000 DUP2 MSTORE PUSH1 0x4 ADD PUSH2 0x1920 SWAP2 SWAP1 PUSH2 0x27DD JUMP JUMPDEST PUSH1 0x40 MLOAD DUP1 SWAP2 SUB SWAP1 REVERT JUMPDEST POP POP JUMP JUMPDEST PUSH2 0x1937 DUP3 DUP3 PUSH2 0xF12 JUMP JUMPDEST PUSH2 0x1A0A JUMPI PUSH1 0x1 PUSH1 0x5 PUSH1 0x0 DUP5 DUP2 MSTORE PUSH1 0x20 ADD SWAP1 DUP2 MSTORE PUSH1 0x20 ADD PUSH1 0x0 KECCAK256 PUSH1 0x0 ADD PUSH1 0x0 DUP4 PUSH20 0xFFFFFFFFFFFFFFFFFFFFFFFFFFFFFFFFFFFFFFFF AND PUSH20 0xFFFFFFFFFFFFFFFFFFFFFFFFFFFFFFFFFFFFFFFF AND DUP2 MSTORE PUSH1 0x20 ADD SWAP1 DUP2 MSTORE PUSH1 0x20 ADD PUSH1 0x0 KECCAK256 PUSH1 0x0 PUSH2 0x100 EXP DUP2 SLOAD DUP2 PUSH1 0xFF MUL NOT AND SWAP1 DUP4 ISZERO ISZERO MUL OR SWAP1 SSTORE POP PUSH2 0x19AF PUSH2 0x13B0 JUMP JUMPDEST PUSH20 0xFFFFFFFFFFFFFFFFFFFFFFFFFFFFFFFFFFFFFFFF AND DUP2 PUSH20 0xFFFFFFFFFFFFFFFFFFFFFFFFFFFFFFFFFFFFFFFF AND DUP4 PUSH32 0x2F8788117E7EFF1D82E926EC794901D17C78024A50270940304540A733656F0D PUSH1 0x40 MLOAD PUSH1 0x40 MLOAD DUP1 SWAP2 SUB SWAP1 LOG4 JUMPDEST POP POP JUMP JUMPDEST PUSH2 0x1A18 DUP3 DUP3 PUSH2 0xF12 JUMP JUMPDEST ISZERO PUSH2 0x1AEC JUMPI PUSH1 0x0 PUSH1 0x5 PUSH1 0x0 DUP5 DUP2 MSTORE PUSH1 0x20 ADD SWAP1 DUP2 MSTORE PUSH1 0x20 ADD PUSH1 0x0 KECCAK256 PUSH1 0x0 ADD PUSH1 0x0 DUP4 PUSH20 0xFFFFFFFFFFFFFFFFFFFFFFFFFFFFFFFFFFFFFFFF AND PUSH20 0xFFFFFFFFFFFFFFFFFFFFFFFFFFFFFFFFFFFFFFFF AND DUP2 MSTORE PUSH1 0x20 ADD SWAP1 DUP2 MSTORE PUSH1 0x20 ADD PUSH1 0x0 KECCAK256 PUSH1 0x0 PUSH2 0x100 EXP DUP2 SLOAD DUP2 PUSH1 0xFF MUL NOT AND SWAP1 DUP4 ISZERO ISZERO MUL OR SWAP1 SSTORE POP PUSH2 0x1A91 PUSH2 0x13B0 JUMP JUMPDEST PUSH20 0xFFFFFFFFFFFFFFFFFFFFFFFFFFFFFFFFFFFFFFFF AND DUP2 PUSH20 0xFFFFFFFFFFFFFFFFFFFFFFFFFFFFFFFFFFFFFFFF AND DUP4 PUSH32 0xF6391F5C32D9C69D2A47EA670B442974B53935D1EDC7FD64EB21E047A839171B PUSH1 0x40 MLOAD PUSH1 0x40 MLOAD DUP1 SWAP2 SUB SWAP1 LOG4 JUMPDEST POP POP JUMP JUMPDEST PUSH1 0x0 PUSH20 0xFFFFFFFFFFFFFFFFFFFFFFFFFFFFFFFFFFFFFFFF AND DUP3 PUSH20 0xFFFFFFFFFFFFFFFFFFFFFFFFFFFFFFFFFFFFFFFF AND EQ ISZERO PUSH2 0x1B60 JUMPI PUSH1 0x40 MLOAD PUSH32 0x8C379A000000000000000000000000000000000000000000000000000000000 DUP2 MSTORE PUSH1 0x4 ADD PUSH2 0x1B57 SWAP1 PUSH2 0x2A1F JUMP JUMPDEST PUSH1 0x40 MLOAD DUP1 SWAP2 SUB SWAP1 REVERT JUMPDEST PUSH2 0x1B6C PUSH1 0x0 DUP4 DUP4 PUSH2 0x1F5D JUMP JUMPDEST DUP1 PUSH1 0x2 PUSH1 0x0 DUP3 DUP3 SLOAD PUSH2 0x1B7E SWAP2 SWAP1 PUSH2 0x2A9C JUMP JUMPDEST SWAP3 POP POP DUP2 SWAP1 SSTORE POP DUP1 PUSH1 0x0 DUP1 DUP5 PUSH20 0xFFFFFFFFFFFFFFFFFFFFFFFFFFFFFFFFFFFFFFFF AND PUSH20 0xFFFFFFFFFFFFFFFFFFFFFFFFFFFFFFFFFFFFFFFF AND DUP2 MSTORE PUSH1 0x20 ADD SWAP1 DUP2 MSTORE PUSH1 0x20 ADD PUSH1 0x0 KECCAK256 PUSH1 0x0 DUP3 DUP3 SLOAD PUSH2 0x1BD3 SWAP2 SWAP1 PUSH2 0x2A9C JUMP JUMPDEST SWAP3 POP POP DUP2 SWAP1 SSTORE POP DUP2 PUSH20 0xFFFFFFFFFFFFFFFFFFFFFFFFFFFFFFFFFFFFFFFF AND PUSH1 0x0 PUSH20 0xFFFFFFFFFFFFFFFFFFFFFFFFFFFFFFFFFFFFFFFF AND PUSH32 0xDDF252AD1BE2C89B69C2B068FC378DAA952BA7F163C4A11628F55A4DF523B3EF DUP4 PUSH1 0x40 MLOAD PUSH2 0x1C38 SWAP2 SWAP1 PUSH2 0x2A3F JUMP JUMPDEST PUSH1 0x40 MLOAD DUP1 SWAP2 SUB SWAP1 LOG3 PUSH2 0x1C4C PUSH1 0x0 DUP4 DUP4 PUSH2 0x1F62 JUMP JUMPDEST POP POP JUMP JUMPDEST DUP1 PUSH1 0x6 PUSH1 0x0 DUP5 PUSH20 0xFFFFFFFFFFFFFFFFFFFFFFFFFFFFFFFFFFFFFFFF AND PUSH20 0xFFFFFFFFFFFFFFFFFFFFFFFFFFFFFFFFFFFFFFFF AND DUP2 MSTORE PUSH1 0x20 ADD SWAP1 DUP2 MSTORE PUSH1 0x20 ADD PUSH1 0x0 KECCAK256 PUSH1 0x0 DUP3 DUP3 SLOAD PUSH2 0x1C9F SWAP2 SWAP1 PUSH2 0x2A9C JUMP JUMPDEST SWAP3 POP POP DUP2 SWAP1 SSTORE POP POP POP JUMP JUMPDEST PUSH1 0x0 PUSH20 0xFFFFFFFFFFFFFFFFFFFFFFFFFFFFFFFFFFFFFFFF AND DUP3 PUSH20 0xFFFFFFFFFFFFFFFFFFFFFFFFFFFFFFFFFFFFFFFF AND EQ ISZERO PUSH2 0x1D1A JUMPI PUSH1 0x40 MLOAD PUSH32 0x8C379A000000000000000000000000000000000000000000000000000000000 DUP2 MSTORE PUSH1 0x4 ADD PUSH2 0x1D11 SWAP1 PUSH2 0x293F JUMP JUMPDEST PUSH1 0x40 MLOAD DUP1 SWAP2 SUB SWAP1 REVERT JUMPDEST PUSH2 0x1D26 DUP3 PUSH1 0x0 DUP4 PUSH2 0x1F5D JUMP JUMPDEST PUSH1 0x0 DUP1 PUSH1 0x0 DUP5 PUSH20 0xFFFFFFFFFFFFFFFFFFFFFFFFFFFFFFFFFFFFFFFF AND PUSH20 0xFFFFFFFFFFFFFFFFFFFFFFFFFFFFFFFFFFFFFFFF AND DUP2 MSTORE PUSH1 0x20 ADD SWAP1 DUP2 MSTORE PUSH1 0x20 ADD PUSH1 0x0 KECCAK256 SLOAD SWAP1 POP DUP2 DUP2 LT ISZERO PUSH2 0x1DAC JUMPI PUSH1 0x40 MLOAD PUSH32 0x8C379A000000000000000000000000000000000000000000000000000000000 DUP2 MSTORE PUSH1 0x4 ADD PUSH2 0x1DA3 SWAP1 PUSH2 0x285F JUMP JUMPDEST PUSH1 0x40 MLOAD DUP1 SWAP2 SUB SWAP1 REVERT JUMPDEST DUP2 DUP2 SUB PUSH1 0x0 DUP1 DUP6 PUSH20 0xFFFFFFFFFFFFFFFFFFFFFFFFFFFFFFFFFFFFFFFF AND PUSH20 0xFFFFFFFFFFFFFFFFFFFFFFFFFFFFFFFFFFFFFFFF AND DUP2 MSTORE PUSH1 0x20 ADD SWAP1 DUP2 MSTORE PUSH1 0x20 ADD PUSH1 0x0 KECCAK256 DUP2 SWAP1 SSTORE POP DUP2 PUSH1 0x2 PUSH1 0x0 DUP3 DUP3 SLOAD PUSH2 0x1E03 SWAP2 SWAP1 PUSH2 0x2B4C JUMP JUMPDEST SWAP3 POP POP DUP2 SWAP1 SSTORE POP PUSH1 0x0 PUSH20 0xFFFFFFFFFFFFFFFFFFFFFFFFFFFFFFFFFFFFFFFF AND DUP4 PUSH20 0xFFFFFFFFFFFFFFFFFFFFFFFFFFFFFFFFFFFFFFFF AND PUSH32 0xDDF252AD1BE2C89B69C2B068FC378DAA952BA7F163C4A11628F55A4DF523B3EF DUP5 PUSH1 0x40 MLOAD PUSH2 0x1E68 SWAP2 SWAP1 PUSH2 0x2A3F JUMP JUMPDEST PUSH1 0x40 MLOAD DUP1 SWAP2 SUB SWAP1 LOG3 PUSH2 0x1E7C DUP4 PUSH1 0x0 DUP5 PUSH2 0x1F62 JUMP JUMPDEST POP POP POP JUMP JUMPDEST PUSH1 0x6 PUSH1 0x0 DUP4 PUSH20 0xFFFFFFFFFFFFFFFFFFFFFFFFFFFFFFFFFFFFFFFF AND PUSH20 0xFFFFFFFFFFFFFFFFFFFFFFFFFFFFFFFFFFFFFFFF AND DUP2 MSTORE PUSH1 0x20 ADD SWAP1 DUP2 MSTORE PUSH1 0x20 ADD PUSH1 0x0 KECCAK256 SLOAD DUP2 GT ISZERO PUSH2 0x1F03 JUMPI PUSH1 0x40 MLOAD PUSH32 0x8C379A000000000000000000000000000000000000000000000000000000000 DUP2 MSTORE PUSH1 0x4 ADD PUSH2 0x1EFA SWAP1 PUSH2 0x283F JUMP JUMPDEST PUSH1 0x40 MLOAD DUP1 SWAP2 SUB SWAP1 REVERT JUMPDEST DUP1 PUSH1 0x6 PUSH1 0x0 DUP5 PUSH20 0xFFFFFFFFFFFFFFFFFFFFFFFFFFFFFFFFFFFFFFFF AND PUSH20 0xFFFFFFFFFFFFFFFFFFFFFFFFFFFFFFFFFFFFFFFF AND DUP2 MSTORE PUSH1 0x20 ADD SWAP1 DUP2 MSTORE PUSH1 0x20 ADD PUSH1 0x0 KECCAK256 PUSH1 0x0 DUP3 DUP3 SLOAD PUSH2 0x1F52 SWAP2 SWAP1 PUSH2 0x2B4C JUMP JUMPDEST SWAP3 POP POP DUP2 SWAP1 SSTORE POP POP POP JUMP JUMPDEST POP POP POP JUMP JUMPDEST POP POP POP JUMP JUMPDEST PUSH1 0x60 PUSH1 0x0 PUSH1 0x2 DUP4 PUSH1 0x2 PUSH2 0x1F7A SWAP2 SWAP1 PUSH2 0x2AF2 JUMP JUMPDEST PUSH2 0x1F84 SWAP2 SWAP1 PUSH2 0x2A9C JUMP JUMPDEST PUSH8 0xFFFFFFFFFFFFFFFF DUP2 GT ISZERO PUSH2 0x1F9D JUMPI PUSH2 0x1F9C PUSH2 0x2D27 JUMP JUMPDEST JUMPDEST PUSH1 0x40 MLOAD SWAP1 DUP1 DUP3 MSTORE DUP1 PUSH1 0x1F ADD PUSH1 0x1F NOT AND PUSH1 0x20 ADD DUP3 ADD PUSH1 0x40 MSTORE DUP1 ISZERO PUSH2 0x1FCF JUMPI DUP2 PUSH1 0x20 ADD PUSH1 0x1 DUP3 MUL DUP1 CALLDATASIZE DUP4 CALLDATACOPY DUP1 DUP3 ADD SWAP2 POP POP SWAP1 POP JUMPDEST POP SWAP1 POP PUSH32 0x3000000000000000000000000000000000000000000000000000000000000000 DUP2 PUSH1 0x0 DUP2 MLOAD DUP2 LT PUSH2 0x2007 JUMPI PUSH2 0x2006 PUSH2 0x2CF8 JUMP JUMPDEST JUMPDEST PUSH1 0x20 ADD ADD SWAP1 PUSH31 0xFFFFFFFFFFFFFFFFFFFFFFFFFFFFFFFFFFFFFFFFFFFFFFFFFFFFFFFFFFFFFF NOT AND SWAP1 DUP2 PUSH1 0x0 BYTE SWAP1 MSTORE8 POP PUSH32 0x7800000000000000000000000000000000000000000000000000000000000000 DUP2 PUSH1 0x1 DUP2 MLOAD DUP2 LT PUSH2 0x206B JUMPI PUSH2 0x206A PUSH2 0x2CF8 JUMP JUMPDEST JUMPDEST PUSH1 0x20 ADD ADD SWAP1 PUSH31 0xFFFFFFFFFFFFFFFFFFFFFFFFFFFFFFFFFFFFFFFFFFFFFFFFFFFFFFFFFFFFFF NOT AND SWAP1 DUP2 PUSH1 0x0 BYTE SWAP1 MSTORE8 POP PUSH1 0x0 PUSH1 0x1 DUP5 PUSH1 0x2 PUSH2 0x20AB SWAP2 SWAP1 PUSH2 0x2AF2 JUMP JUMPDEST PUSH2 0x20B5 SWAP2 SWAP1 PUSH2 0x2A9C JUMP JUMPDEST SWAP1 POP JUMPDEST PUSH1 0x1 DUP2 GT ISZERO PUSH2 0x2155 JUMPI PUSH32 0x3031323334353637383961626364656600000000000000000000000000000000 PUSH1 0xF DUP7 AND PUSH1 0x10 DUP2 LT PUSH2 0x20F7 JUMPI PUSH2 0x20F6 PUSH2 0x2CF8 JUMP JUMPDEST JUMPDEST BYTE PUSH1 0xF8 SHL DUP3 DUP3 DUP2 MLOAD DUP2 LT PUSH2 0x210E JUMPI PUSH2 0x210D PUSH2 0x2CF8 JUMP JUMPDEST JUMPDEST PUSH1 0x20 ADD ADD SWAP1 PUSH31 0xFFFFFFFFFFFFFFFFFFFFFFFFFFFFFFFFFFFFFFFFFFFFFFFFFFFFFFFFFFFFFF NOT AND SWAP1 DUP2 PUSH1 0x0 BYTE SWAP1 MSTORE8 POP PUSH1 0x4 DUP6 SWAP1 SHR SWAP5 POP DUP1 PUSH2 0x214E SWAP1 PUSH2 0x2C3E JUMP JUMPDEST SWAP1 POP PUSH2 0x20B8 JUMP JUMPDEST POP PUSH1 0x0 DUP5 EQ PUSH2 0x2199 JUMPI PUSH1 0x40 MLOAD PUSH32 0x8C379A000000000000000000000000000000000000000000000000000000000 DUP2 MSTORE PUSH1 0x4 ADD PUSH2 0x2190 SWAP1 PUSH2 0x27FF JUMP JUMPDEST PUSH1 0x40 MLOAD DUP1 SWAP2 SUB SWAP1 REVERT JUMPDEST DUP1 SWAP2 POP POP SWAP3 SWAP2 POP POP JUMP JUMPDEST PUSH1 0x0 DUP2 CALLDATALOAD SWAP1 POP PUSH2 0x21B2 DUP2 PUSH2 0x3242 JUMP JUMPDEST SWAP3 SWAP2 POP POP JUMP JUMPDEST PUSH1 0x0 DUP2 MLOAD SWAP1 POP PUSH2 0x21C7 DUP2 PUSH2 0x3259 JUMP JUMPDEST SWAP3 SWAP2 POP POP JUMP JUMPDEST PUSH1 0x0 DUP2 CALLDATALOAD SWAP1 POP PUSH2 0x21DC DUP2 PUSH2 0x3270 JUMP JUMPDEST SWAP3 SWAP2 POP POP JUMP JUMPDEST PUSH1 0x0 DUP2 CALLDATALOAD SWAP1 POP PUSH2 0x21F1 DUP2 PUSH2 0x3287 JUMP JUMPDEST SWAP3 SWAP2 POP POP JUMP JUMPDEST PUSH1 0x0 DUP2 CALLDATALOAD SWAP1 POP PUSH2 0x2206 DUP2 PUSH2 0x329E JUMP JUMPDEST SWAP3 SWAP2 POP POP JUMP JUMPDEST PUSH1 0x0 PUSH1 0x20 DUP3 DUP5 SUB SLT ISZERO PUSH2 0x2222 JUMPI PUSH2 0x2221 PUSH2 0x2D56 JUMP JUMPDEST JUMPDEST PUSH1 0x0 PUSH2 0x2230 DUP5 DUP3 DUP6 ADD PUSH2 0x21A3 JUMP JUMPDEST SWAP2 POP POP SWAP3 SWAP2 POP POP JUMP JUMPDEST PUSH1 0x0 DUP1 PUSH1 0x40 DUP4 DUP6 SUB SLT ISZERO PUSH2 0x2250 JUMPI PUSH2 0x224F PUSH2 0x2D56 JUMP JUMPDEST JUMPDEST PUSH1 0x0 PUSH2 0x225E DUP6 DUP3 DUP7 ADD PUSH2 0x21A3 JUMP JUMPDEST SWAP3 POP POP PUSH1 0x20 PUSH2 0x226F DUP6 DUP3 DUP7 ADD PUSH2 0x21A3 JUMP JUMPDEST SWAP2 POP POP SWAP3 POP SWAP3 SWAP1 POP JUMP JUMPDEST PUSH1 0x0 DUP1 PUSH1 0x0 PUSH1 0x60 DUP5 DUP7 SUB SLT ISZERO PUSH2 0x2292 JUMPI PUSH2 0x2291 PUSH2 0x2D56 JUMP JUMPDEST JUMPDEST PUSH1 0x0 PUSH2 0x22A0 DUP7 DUP3 DUP8 ADD PUSH2 0x21A3 JUMP JUMPDEST SWAP4 POP POP PUSH1 0x20 PUSH2 0x22B1 DUP7 DUP3 DUP8 ADD PUSH2 0x21A3 JUMP JUMPDEST SWAP3 POP POP PUSH1 0x40 PUSH2 0x22C2 DUP7 DUP3 DUP8 ADD PUSH2 0x21F7 JUMP JUMPDEST SWAP2 POP POP SWAP3 POP SWAP3 POP SWAP3 JUMP JUMPDEST PUSH1 0x0 DUP1 PUSH1 0x40 DUP4 DUP6 SUB SLT ISZERO PUSH2 0x22E3 JUMPI PUSH2 0x22E2 PUSH2 0x2D56 JUMP JUMPDEST JUMPDEST PUSH1 0x0 PUSH2 0x22F1 DUP6 DUP3 DUP7 ADD PUSH2 0x21A3 JUMP JUMPDEST SWAP3 POP POP PUSH1 0x20 PUSH2 0x2302 DUP6 DUP3 DUP7 ADD PUSH2 0x21F7 JUMP JUMPDEST SWAP2 POP POP SWAP3 POP SWAP3 SWAP1 POP JUMP JUMPDEST PUSH1 0x0 PUSH1 0x20 DUP3 DUP5 SUB SLT ISZERO PUSH2 0x2322 JUMPI PUSH2 0x2321 PUSH2 0x2D56 JUMP JUMPDEST JUMPDEST PUSH1 0x0 PUSH2 0x2330 DUP5 DUP3 DUP6 ADD PUSH2 0x21B8 JUMP JUMPDEST SWAP2 POP POP SWAP3 SWAP2 POP POP JUMP JUMPDEST PUSH1 0x0 PUSH1 0x20 DUP3 DUP5 SUB SLT ISZERO PUSH2 0x234F JUMPI PUSH2 0x234E PUSH2 0x2D56 JUMP JUMPDEST JUMPDEST PUSH1 0x0 PUSH2 0x235D DUP5 DUP3 DUP6 ADD PUSH2 0x21CD JUMP JUMPDEST SWAP2 POP POP SWAP3 SWAP2 POP POP JUMP JUMPDEST PUSH1 0x0 DUP1 PUSH1 0x40 DUP4 DUP6 SUB SLT ISZERO PUSH2 0x237D JUMPI PUSH2 0x237C PUSH2 0x2D56 JUMP JUMPDEST JUMPDEST PUSH1 0x0 PUSH2 0x238B DUP6 DUP3 DUP7 ADD PUSH2 0x21CD JUMP JUMPDEST SWAP3 POP POP PUSH1 0x20 PUSH2 0x239C DUP6 DUP3 DUP7 ADD PUSH2 0x21A3 JUMP JUMPDEST SWAP2 POP POP SWAP3 POP SWAP3 SWAP1 POP JUMP JUMPDEST PUSH1 0x0 PUSH1 0x20 DUP3 DUP5 SUB SLT ISZERO PUSH2 0x23BC JUMPI PUSH2 0x23BB PUSH2 0x2D56 JUMP JUMPDEST JUMPDEST PUSH1 0x0 PUSH2 0x23CA DUP5 DUP3 DUP6 ADD PUSH2 0x21E2 JUMP JUMPDEST SWAP2 POP POP SWAP3 SWAP2 POP POP JUMP JUMPDEST PUSH2 0x23DC DUP2 PUSH2 0x2B80 JUMP JUMPDEST DUP3 MSTORE POP POP JUMP JUMPDEST PUSH2 0x23EB DUP2 PUSH2 0x2B92 JUMP JUMPDEST DUP3 MSTORE POP POP JUMP JUMPDEST PUSH2 0x23FA DUP2 PUSH2 0x2B9E JUMP JUMPDEST DUP3 MSTORE POP POP JUMP JUMPDEST PUSH1 0x0 PUSH2 0x240B DUP3 PUSH2 0x2A75 JUMP JUMPDEST PUSH2 0x2415 DUP2 DUP6 PUSH2 0x2A80 JUMP JUMPDEST SWAP4 POP PUSH2 0x2425 DUP2 DUP6 PUSH1 0x20 DUP7 ADD PUSH2 0x2C0B JUMP JUMPDEST PUSH2 0x242E DUP2 PUSH2 0x2D5B JUMP JUMPDEST DUP5 ADD SWAP2 POP POP SWAP3 SWAP2 POP POP JUMP JUMPDEST PUSH1 0x0 PUSH2 0x2444 DUP3 PUSH2 0x2A75 JUMP JUMPDEST PUSH2 0x244E DUP2 DUP6 PUSH2 0x2A91 JUMP JUMPDEST SWAP4 POP PUSH2 0x245E DUP2 DUP6 PUSH1 0x20 DUP7 ADD PUSH2 0x2C0B JUMP JUMPDEST DUP1 DUP5 ADD SWAP2 POP POP SWAP3 SWAP2 POP POP JUMP JUMPDEST PUSH1 0x0 PUSH2 0x2477 PUSH1 0x20 DUP4 PUSH2 0x2A80 JUMP JUMPDEST SWAP2 POP PUSH2 0x2482 DUP3 PUSH2 0x2D6C JUMP JUMPDEST PUSH1 0x20 DUP3 ADD SWAP1 POP SWAP2 SWAP1 POP JUMP JUMPDEST PUSH1 0x0 PUSH2 0x249A PUSH1 0x23 DUP4 PUSH2 0x2A80 JUMP JUMPDEST SWAP2 POP PUSH2 0x24A5 DUP3 PUSH2 0x2D95 JUMP JUMPDEST PUSH1 0x40 DUP3 ADD SWAP1 POP SWAP2 SWAP1 POP JUMP JUMPDEST PUSH1 0x0 PUSH2 0x24BD PUSH1 0x38 DUP4 PUSH2 0x2A80 JUMP JUMPDEST SWAP2 POP PUSH2 0x24C8 DUP3 PUSH2 0x2DE4 JUMP JUMPDEST PUSH1 0x40 DUP3 ADD SWAP1 POP SWAP2 SWAP1 POP JUMP JUMPDEST PUSH1 0x0 PUSH2 0x24E0 PUSH1 0x22 DUP4 PUSH2 0x2A80 JUMP JUMPDEST SWAP2 POP PUSH2 0x24EB DUP3 PUSH2 0x2E33 JUMP JUMPDEST PUSH1 0x40 DUP3 ADD SWAP1 POP SWAP2 SWAP1 POP JUMP JUMPDEST PUSH1 0x0 PUSH2 0x2503 PUSH1 0x22 DUP4 PUSH2 0x2A80 JUMP JUMPDEST SWAP2 POP PUSH2 0x250E DUP3 PUSH2 0x2E82 JUMP JUMPDEST PUSH1 0x40 DUP3 ADD SWAP1 POP SWAP2 SWAP1 POP JUMP JUMPDEST PUSH1 0x0 PUSH2 0x2526 PUSH1 0x1D DUP4 PUSH2 0x2A80 JUMP JUMPDEST SWAP2 POP PUSH2 0x2531 DUP3 PUSH2 0x2ED1 JUMP JUMPDEST PUSH1 0x20 DUP3 ADD SWAP1 POP SWAP2 SWAP1 POP JUMP JUMPDEST PUSH1 0x0 PUSH2 0x2549 PUSH1 0x26 DUP4 PUSH2 0x2A80 JUMP JUMPDEST SWAP2 POP PUSH2 0x2554 DUP3 PUSH2 0x2EFA JUMP JUMPDEST PUSH1 0x40 DUP3 ADD SWAP1 POP SWAP2 SWAP1 POP JUMP JUMPDEST PUSH1 0x0 PUSH2 0x256C PUSH1 0x28 DUP4 PUSH2 0x2A80 JUMP JUMPDEST SWAP2 POP PUSH2 0x2577 DUP3 PUSH2 0x2F49 JUMP JUMPDEST PUSH1 0x40 DUP3 ADD SWAP1 POP SWAP2 SWAP1 POP JUMP JUMPDEST PUSH1 0x0 PUSH2 0x258F PUSH1 0x16 DUP4 PUSH2 0x2A80 JUMP JUMPDEST SWAP2 POP PUSH2 0x259A DUP3 PUSH2 0x2F98 JUMP JUMPDEST PUSH1 0x20 DUP3 ADD SWAP1 POP SWAP2 SWAP1 POP JUMP JUMPDEST PUSH1 0x0 PUSH2 0x25B2 PUSH1 0x16 DUP4 PUSH2 0x2A80 JUMP JUMPDEST SWAP2 POP PUSH2 0x25BD DUP3 PUSH2 0x2FC1 JUMP JUMPDEST PUSH1 0x20 DUP3 ADD SWAP1 POP SWAP2 SWAP1 POP JUMP JUMPDEST PUSH1 0x0 PUSH2 0x25D5 PUSH1 0x21 DUP4 PUSH2 0x2A80 JUMP JUMPDEST SWAP2 POP PUSH2 0x25E0 DUP3 PUSH2 0x2FEA JUMP JUMPDEST PUSH1 0x40 DUP3 ADD SWAP1 POP SWAP2 SWAP1 POP JUMP JUMPDEST PUSH1 0x0 PUSH2 0x25F8 PUSH1 0x25 DUP4 PUSH2 0x2A80 JUMP JUMPDEST SWAP2 POP PUSH2 0x2603 DUP3 PUSH2 0x3039 JUMP JUMPDEST PUSH1 0x40 DUP3 ADD SWAP1 POP SWAP2 SWAP1 POP JUMP JUMPDEST PUSH1 0x0 PUSH2 0x261B PUSH1 0x18 DUP4 PUSH2 0x2A80 JUMP JUMPDEST SWAP2 POP PUSH2 0x2626 DUP3 PUSH2 0x3088 JUMP JUMPDEST PUSH1 0x20 DUP3 ADD SWAP1 POP SWAP2 SWAP1 POP JUMP JUMPDEST PUSH1 0x0 PUSH2 0x263E PUSH1 0x24 DUP4 PUSH2 0x2A80 JUMP JUMPDEST SWAP2 POP PUSH2 0x2649 DUP3 PUSH2 0x30B1 JUMP JUMPDEST PUSH1 0x40 DUP3 ADD SWAP1 POP SWAP2 SWAP1 POP JUMP JUMPDEST PUSH1 0x0 PUSH2 0x2661 PUSH1 0x20 DUP4 PUSH2 0x2A80 JUMP JUMPDEST SWAP2 POP PUSH2 0x266C DUP3 PUSH2 0x3100 JUMP JUMPDEST PUSH1 0x20 DUP3 ADD SWAP1 POP SWAP2 SWAP1 POP JUMP JUMPDEST PUSH1 0x0 PUSH2 0x2684 PUSH1 0x17 DUP4 PUSH2 0x2A91 JUMP JUMPDEST SWAP2 POP PUSH2 0x268F DUP3 PUSH2 0x3129 JUMP JUMPDEST PUSH1 0x17 DUP3 ADD SWAP1 POP SWAP2 SWAP1 POP JUMP JUMPDEST PUSH1 0x0 PUSH2 0x26A7 PUSH1 0x25 DUP4 PUSH2 0x2A80 JUMP JUMPDEST SWAP2 POP PUSH2 0x26B2 DUP3 PUSH2 0x3152 JUMP JUMPDEST PUSH1 0x40 DUP3 ADD SWAP1 POP SWAP2 SWAP1 POP JUMP JUMPDEST PUSH1 0x0 PUSH2 0x26CA PUSH1 0x11 DUP4 PUSH2 0x2A91 JUMP JUMPDEST SWAP2 POP PUSH2 0x26D5 DUP3 PUSH2 0x31A1 JUMP JUMPDEST PUSH1 0x11 DUP3 ADD SWAP1 POP SWAP2 SWAP1 POP JUMP JUMPDEST PUSH1 0x0 PUSH2 0x26ED PUSH1 0x2F DUP4 PUSH2 0x2A80 JUMP JUMPDEST SWAP2 POP PUSH2 0x26F8 DUP3 PUSH2 0x31CA JUMP JUMPDEST PUSH1 0x40 DUP3 ADD SWAP1 POP SWAP2 SWAP1 POP JUMP JUMPDEST PUSH1 0x0 PUSH2 0x2710 PUSH1 0x1F DUP4 PUSH2 0x2A80 JUMP JUMPDEST SWAP2 POP PUSH2 0x271B DUP3 PUSH2 0x3219 JUMP JUMPDEST PUSH1 0x20 DUP3 ADD SWAP1 POP SWAP2 SWAP1 POP JUMP JUMPDEST PUSH2 0x272F DUP2 PUSH2 0x2BF4 JUMP JUMPDEST DUP3 MSTORE POP POP JUMP JUMPDEST PUSH2 0x273E DUP2 PUSH2 0x2BFE JUMP JUMPDEST DUP3 MSTORE POP POP JUMP JUMPDEST PUSH1 0x0 PUSH2 0x274F DUP3 PUSH2 0x2677 JUMP JUMPDEST SWAP2 POP PUSH2 0x275B DUP3 DUP6 PUSH2 0x2439 JUMP JUMPDEST SWAP2 POP PUSH2 0x2766 DUP3 PUSH2 0x26BD JUMP JUMPDEST SWAP2 POP PUSH2 0x2772 DUP3 DUP5 PUSH2 0x2439 JUMP JUMPDEST SWAP2 POP DUP2 SWAP1 POP SWAP4 SWAP3 POP POP POP JUMP JUMPDEST PUSH1 0x0 PUSH1 0x40 DUP3 ADD SWAP1 POP PUSH2 0x2793 PUSH1 0x0 DUP4 ADD DUP6 PUSH2 0x23D3 JUMP JUMPDEST PUSH2 0x27A0 PUSH1 0x20 DUP4 ADD DUP5 PUSH2 0x2726 JUMP JUMPDEST SWAP4 SWAP3 POP POP POP JUMP JUMPDEST PUSH1 0x0 PUSH1 0x20 DUP3 ADD SWAP1 POP PUSH2 0x27BC PUSH1 0x0 DUP4 ADD DUP5 PUSH2 0x23E2 JUMP JUMPDEST SWAP3 SWAP2 POP POP JUMP JUMPDEST PUSH1 0x0 PUSH1 0x20 DUP3 ADD SWAP1 POP PUSH2 0x27D7 PUSH1 0x0 DUP4 ADD DUP5 PUSH2 0x23F1 JUMP JUMPDEST SWAP3 SWAP2 POP POP JUMP JUMPDEST PUSH1 0x0 PUSH1 0x20 DUP3 ADD SWAP1 POP DUP2 DUP2 SUB PUSH1 0x0 DUP4 ADD MSTORE PUSH2 0x27F7 DUP2 DUP5 PUSH2 0x2400 JUMP JUMPDEST SWAP1 POP SWAP3 SWAP2 POP POP JUMP JUMPDEST PUSH1 0x0 PUSH1 0x20 DUP3 ADD SWAP1 POP DUP2 DUP2 SUB PUSH1 0x0 DUP4 ADD MSTORE PUSH2 0x2818 DUP2 PUSH2 0x246A JUMP JUMPDEST SWAP1 POP SWAP2 SWAP1 POP JUMP JUMPDEST PUSH1 0x0 PUSH1 0x20 DUP3 ADD SWAP1 POP DUP2 DUP2 SUB PUSH1 0x0 DUP4 ADD MSTORE PUSH2 0x2838 DUP2 PUSH2 0x248D JUMP JUMPDEST SWAP1 POP SWAP2 SWAP1 POP JUMP JUMPDEST PUSH1 0x0 PUSH1 0x20 DUP3 ADD SWAP1 POP DUP2 DUP2 SUB PUSH1 0x0 DUP4 ADD MSTORE PUSH2 0x2858 DUP2 PUSH2 0x24B0 JUMP JUMPDEST SWAP1 POP SWAP2 SWAP1 POP JUMP JUMPDEST PUSH1 0x0 PUSH1 0x20 DUP3 ADD SWAP1 POP DUP2 DUP2 SUB PUSH1 0x0 DUP4 ADD MSTORE PUSH2 0x2878 DUP2 PUSH2 0x24D3 JUMP JUMPDEST SWAP1 POP SWAP2 SWAP1 POP JUMP JUMPDEST PUSH1 0x0 PUSH1 0x20 DUP3 ADD SWAP1 POP DUP2 DUP2 SUB PUSH1 0x0 DUP4 ADD MSTORE PUSH2 0x2898 DUP2 PUSH2 0x24F6 JUMP JUMPDEST SWAP1 POP SWAP2 SWAP1 POP JUMP JUMPDEST PUSH1 0x0 PUSH1 0x20 DUP3 ADD SWAP1 POP DUP2 DUP2 SUB PUSH1 0x0 DUP4 ADD MSTORE PUSH2 0x28B8 DUP2 PUSH2 0x2519 JUMP JUMPDEST SWAP1 POP SWAP2 SWAP1 POP JUMP JUMPDEST PUSH1 0x0 PUSH1 0x20 DUP3 ADD SWAP1 POP DUP2 DUP2 SUB PUSH1 0x0 DUP4 ADD MSTORE PUSH2 0x28D8 DUP2 PUSH2 0x253C JUMP JUMPDEST SWAP1 POP SWAP2 SWAP1 POP JUMP JUMPDEST PUSH1 0x0 PUSH1 0x20 DUP3 ADD SWAP1 POP DUP2 DUP2 SUB PUSH1 0x0 DUP4 ADD MSTORE PUSH2 0x28F8 DUP2 PUSH2 0x255F JUMP JUMPDEST SWAP1 POP SWAP2 SWAP1 POP JUMP JUMPDEST PUSH1 0x0 PUSH1 0x20 DUP3 ADD SWAP1 POP DUP2 DUP2 SUB PUSH1 0x0 DUP4 ADD MSTORE PUSH2 0x2918 DUP2 PUSH2 0x2582 JUMP JUMPDEST SWAP1 POP SWAP2 SWAP1 POP JUMP JUMPDEST PUSH1 0x0 PUSH1 0x20 DUP3 ADD SWAP1 POP DUP2 DUP2 SUB PUSH1 0x0 DUP4 ADD MSTORE PUSH2 0x2938 DUP2 PUSH2 0x25A5 JUMP JUMPDEST SWAP1 POP SWAP2 SWAP1 POP JUMP JUMPDEST PUSH1 0x0 PUSH1 0x20 DUP3 ADD SWAP1 POP DUP2 DUP2 SUB PUSH1 0x0 DUP4 ADD MSTORE PUSH2 0x2958 DUP2 PUSH2 0x25C8 JUMP JUMPDEST SWAP1 POP SWAP2 SWAP1 POP JUMP JUMPDEST PUSH1 0x0 PUSH1 0x20 DUP3 ADD SWAP1 POP DUP2 DUP2 SUB PUSH1 0x0 DUP4 ADD MSTORE PUSH2 0x2978 DUP2 PUSH2 0x25EB JUMP JUMPDEST SWAP1 POP SWAP2 SWAP1 POP JUMP JUMPDEST PUSH1 0x0 PUSH1 0x20 DUP3 ADD SWAP1 POP DUP2 DUP2 SUB PUSH1 0x0 DUP4 ADD MSTORE PUSH2 0x2998 DUP2 PUSH2 0x260E JUMP JUMPDEST SWAP1 POP SWAP2 SWAP1 POP JUMP JUMPDEST PUSH1 0x0 PUSH1 0x20 DUP3 ADD SWAP1 POP DUP2 DUP2 SUB PUSH1 0x0 DUP4 ADD MSTORE PUSH2 0x29B8 DUP2 PUSH2 0x2631 JUMP JUMPDEST SWAP1 POP SWAP2 SWAP1 POP JUMP JUMPDEST PUSH1 0x0 PUSH1 0x20 DUP3 ADD SWAP1 POP DUP2 DUP2 SUB PUSH1 0x0 DUP4 ADD MSTORE PUSH2 0x29D8 DUP2 PUSH2 0x2654 JUMP JUMPDEST SWAP1 POP SWAP2 SWAP1 POP JUMP JUMPDEST PUSH1 0x0 PUSH1 0x20 DUP3 ADD SWAP1 POP DUP2 DUP2 SUB PUSH1 0x0 DUP4 ADD MSTORE PUSH2 0x29F8 DUP2 PUSH2 0x269A JUMP JUMPDEST SWAP1 POP SWAP2 SWAP1 POP JUMP JUMPDEST PUSH1 0x0 PUSH1 0x20 DUP3 ADD SWAP1 POP DUP2 DUP2 SUB PUSH1 0x0 DUP4 ADD MSTORE PUSH2 0x2A18 DUP2 PUSH2 0x26E0 JUMP JUMPDEST SWAP1 POP SWAP2 SWAP1 POP JUMP JUMPDEST PUSH1 0x0 PUSH1 0x20 DUP3 ADD SWAP1 POP DUP2 DUP2 SUB PUSH1 0x0 DUP4 ADD MSTORE PUSH2 0x2A38 DUP2 PUSH2 0x2703 JUMP JUMPDEST SWAP1 POP SWAP2 SWAP1 POP JUMP JUMPDEST PUSH1 0x0 PUSH1 0x20 DUP3 ADD SWAP1 POP PUSH2 0x2A54 PUSH1 0x0 DUP4 ADD DUP5 PUSH2 0x2726 JUMP JUMPDEST SWAP3 SWAP2 POP POP JUMP JUMPDEST PUSH1 0x0 PUSH1 0x20 DUP3 ADD SWAP1 POP PUSH2 0x2A6F PUSH1 0x0 DUP4 ADD DUP5 PUSH2 0x2735 JUMP JUMPDEST SWAP3 SWAP2 POP POP JUMP JUMPDEST PUSH1 0x0 DUP2 MLOAD SWAP1 POP SWAP2 SWAP1 POP JUMP JUMPDEST PUSH1 0x0 DUP3 DUP3 MSTORE PUSH1 0x20 DUP3 ADD SWAP1 POP SWAP3 SWAP2 POP POP JUMP JUMPDEST PUSH1 0x0 DUP2 SWAP1 POP SWAP3 SWAP2 POP POP JUMP JUMPDEST PUSH1 0x0 PUSH2 0x2AA7 DUP3 PUSH2 0x2BF4 JUMP JUMPDEST SWAP2 POP PUSH2 0x2AB2 DUP4 PUSH2 0x2BF4 JUMP JUMPDEST SWAP3 POP DUP3 PUSH32 0xFFFFFFFFFFFFFFFFFFFFFFFFFFFFFFFFFFFFFFFFFFFFFFFFFFFFFFFFFFFFFFFF SUB DUP3 GT ISZERO PUSH2 0x2AE7 JUMPI PUSH2 0x2AE6 PUSH2 0x2C9A JUMP JUMPDEST JUMPDEST DUP3 DUP3 ADD SWAP1 POP SWAP3 SWAP2 POP POP JUMP JUMPDEST PUSH1 0x0 PUSH2 0x2AFD DUP3 PUSH2 0x2BF4 JUMP JUMPDEST SWAP2 POP PUSH2 0x2B08 DUP4 PUSH2 0x2BF4 JUMP JUMPDEST SWAP3 POP DUP2 PUSH32 0xFFFFFFFFFFFFFFFFFFFFFFFFFFFFFFFFFFFFFFFFFFFFFFFFFFFFFFFFFFFFFFFF DIV DUP4 GT DUP3 ISZERO ISZERO AND ISZERO PUSH2 0x2B41 JUMPI PUSH2 0x2B40 PUSH2 0x2C9A JUMP JUMPDEST JUMPDEST DUP3 DUP3 MUL SWAP1 POP SWAP3 SWAP2 POP POP JUMP JUMPDEST PUSH1 0x0 PUSH2 0x2B57 DUP3 PUSH2 0x2BF4 JUMP JUMPDEST SWAP2 POP PUSH2 0x2B62 DUP4 PUSH2 0x2BF4 JUMP JUMPDEST SWAP3 POP DUP3 DUP3 LT ISZERO PUSH2 0x2B75 JUMPI PUSH2 0x2B74 PUSH2 0x2C9A JUMP JUMPDEST JUMPDEST DUP3 DUP3 SUB SWAP1 POP SWAP3 SWAP2 POP POP JUMP JUMPDEST PUSH1 0x0 PUSH2 0x2B8B DUP3 PUSH2 0x2BD4 JUMP JUMPDEST SWAP1 POP SWAP2 SWAP1 POP JUMP JUMPDEST PUSH1 0x0 DUP2 ISZERO ISZERO SWAP1 POP SWAP2 SWAP1 POP JUMP JUMPDEST PUSH1 0x0 DUP2 SWAP1 POP SWAP2 SWAP1 POP JUMP JUMPDEST PUSH1 0x0 PUSH32 0xFFFFFFFF00000000000000000000000000000000000000000000000000000000 DUP3 AND SWAP1 POP SWAP2 SWAP1 POP JUMP JUMPDEST PUSH1 0x0 PUSH20 0xFFFFFFFFFFFFFFFFFFFFFFFFFFFFFFFFFFFFFFFF DUP3 AND SWAP1 POP SWAP2 SWAP1 POP JUMP JUMPDEST PUSH1 0x0 DUP2 SWAP1 POP SWAP2 SWAP1 POP JUMP JUMPDEST PUSH1 0x0 PUSH1 0xFF DUP3 AND SWAP1 POP SWAP2 SWAP1 POP JUMP JUMPDEST PUSH1 0x0 JUMPDEST DUP4 DUP2 LT ISZERO PUSH2 0x2C29 JUMPI DUP1 DUP3 ADD MLOAD DUP2 DUP5 ADD MSTORE PUSH1 0x20 DUP2 ADD SWAP1 POP PUSH2 0x2C0E JUMP JUMPDEST DUP4 DUP2 GT ISZERO PUSH2 0x2C38 JUMPI PUSH1 0x0 DUP5 DUP5 ADD MSTORE JUMPDEST POP POP POP POP JUMP JUMPDEST PUSH1 0x0 PUSH2 0x2C49 DUP3 PUSH2 0x2BF4 JUMP JUMPDEST SWAP2 POP PUSH1 0x0 DUP3 EQ ISZERO PUSH2 0x2C5D JUMPI PUSH2 0x2C5C PUSH2 0x2C9A JUMP JUMPDEST JUMPDEST PUSH1 0x1 DUP3 SUB SWAP1 POP SWAP2 SWAP1 POP JUMP JUMPDEST PUSH1 0x0 PUSH1 0x2 DUP3 DIV SWAP1 POP PUSH1 0x1 DUP3 AND DUP1 PUSH2 0x2C80 JUMPI PUSH1 0x7F DUP3 AND SWAP2 POP JUMPDEST PUSH1 0x20 DUP3 LT DUP2 EQ ISZERO PUSH2 0x2C94 JUMPI PUSH2 0x2C93 PUSH2 0x2CC9 JUMP JUMPDEST JUMPDEST POP SWAP2 SWAP1 POP JUMP JUMPDEST PUSH32 0x4E487B7100000000000000000000000000000000000000000000000000000000 PUSH1 0x0 MSTORE PUSH1 0x11 PUSH1 0x4 MSTORE PUSH1 0x24 PUSH1 0x0 REVERT JUMPDEST PUSH32 0x4E487B7100000000000000000000000000000000000000000000000000000000 PUSH1 0x0 MSTORE PUSH1 0x22 PUSH1 0x4 MSTORE PUSH1 0x24 PUSH1 0x0 REVERT JUMPDEST PUSH32 0x4E487B7100000000000000000000000000000000000000000000000000000000 PUSH1 0x0 MSTORE PUSH1 0x32 PUSH1 0x4 MSTORE PUSH1 0x24 PUSH1 0x0 REVERT JUMPDEST PUSH32 0x4E487B7100000000000000000000000000000000000000000000000000000000 PUSH1 0x0 MSTORE PUSH1 0x41 PUSH1 0x4 MSTORE PUSH1 0x24 PUSH1 0x0 REVERT JUMPDEST PUSH1 0x0 DUP1 REVERT JUMPDEST PUSH1 0x0 PUSH1 0x1F NOT PUSH1 0x1F DUP4 ADD AND SWAP1 POP SWAP2 SWAP1 POP JUMP JUMPDEST PUSH32 0x537472696E67733A20686578206C656E67746820696E73756666696369656E74 PUSH1 0x0 DUP3 ADD MSTORE POP JUMP JUMPDEST PUSH32 0x45524332303A207472616E7366657220746F20746865207A65726F2061646472 PUSH1 0x0 DUP3 ADD MSTORE PUSH32 0x6573730000000000000000000000000000000000000000000000000000000000 PUSH1 0x20 DUP3 ADD MSTORE POP JUMP JUMPDEST PUSH32 0x416D6F756E7420746F2072656D6F76652063616E6E6F74206265206772656174 PUSH1 0x0 DUP3 ADD MSTORE PUSH32 0x6572207468616E20756E636C61696D656420616D6F756E740000000000000000 PUSH1 0x20 DUP3 ADD MSTORE POP JUMP JUMPDEST PUSH32 0x45524332303A206275726E20616D6F756E7420657863656564732062616C616E PUSH1 0x0 DUP3 ADD MSTORE PUSH32 0x6365000000000000000000000000000000000000000000000000000000000000 PUSH1 0x20 DUP3 ADD MSTORE POP JUMP JUMPDEST PUSH32 0x45524332303A20617070726F766520746F20746865207A65726F206164647265 PUSH1 0x0 DUP3 ADD MSTORE PUSH32 0x7373000000000000000000000000000000000000000000000000000000000000 PUSH1 0x20 DUP3 ADD MSTORE POP JUMP JUMPDEST PUSH32 0x45524332303A20696E73756666696369656E7420616C6C6F77616E6365000000 PUSH1 0x0 DUP3 ADD MSTORE POP JUMP JUMPDEST PUSH32 0x45524332303A207472616E7366657220616D6F756E7420657863656564732062 PUSH1 0x0 DUP3 ADD MSTORE PUSH32 0x616C616E63650000000000000000000000000000000000000000000000000000 PUSH1 0x20 DUP3 ADD MSTORE POP JUMP JUMPDEST PUSH32 0x556E636C61696D65642062616C616E6365206D75737420626520677265617465 PUSH1 0x0 DUP3 ADD MSTORE PUSH32 0x72207468616E2030000000000000000000000000000000000000000000000000 PUSH1 0x20 DUP3 ADD MSTORE POP JUMP JUMPDEST PUSH32 0x43616C6C6572206973206E6F742061206D696E74657200000000000000000000 PUSH1 0x0 DUP3 ADD MSTORE POP JUMP JUMPDEST PUSH32 0x43616C6C6572206973206E6F742061206275726E657200000000000000000000 PUSH1 0x0 DUP3 ADD MSTORE POP JUMP JUMPDEST PUSH32 0x45524332303A206275726E2066726F6D20746865207A65726F20616464726573 PUSH1 0x0 DUP3 ADD MSTORE PUSH32 0x7300000000000000000000000000000000000000000000000000000000000000 PUSH1 0x20 DUP3 ADD MSTORE POP JUMP JUMPDEST PUSH32 0x45524332303A207472616E736665722066726F6D20746865207A65726F206164 PUSH1 0x0 DUP3 ADD MSTORE PUSH32 0x6472657373000000000000000000000000000000000000000000000000000000 PUSH1 0x20 DUP3 ADD MSTORE POP JUMP JUMPDEST PUSH32 0x43616C6C6572206973206E6F7420612072657761726465720000000000000000 PUSH1 0x0 DUP3 ADD MSTORE POP JUMP JUMPDEST PUSH32 0x45524332303A20617070726F76652066726F6D20746865207A65726F20616464 PUSH1 0x0 DUP3 ADD MSTORE PUSH32 0x7265737300000000000000000000000000000000000000000000000000000000 PUSH1 0x20 DUP3 ADD MSTORE POP JUMP JUMPDEST PUSH32 0x636C61696D61626C65206D7573742062652067726561746572207468616E2030 PUSH1 0x0 DUP3 ADD MSTORE POP JUMP JUMPDEST PUSH32 0x416363657373436F6E74726F6C3A206163636F756E7420000000000000000000 PUSH1 0x0 DUP3 ADD MSTORE POP JUMP JUMPDEST PUSH32 0x45524332303A2064656372656173656420616C6C6F77616E63652062656C6F77 PUSH1 0x0 DUP3 ADD MSTORE PUSH32 0x207A65726F000000000000000000000000000000000000000000000000000000 PUSH1 0x20 DUP3 ADD MSTORE POP JUMP JUMPDEST PUSH32 0x206973206D697373696E6720726F6C6520000000000000000000000000000000 PUSH1 0x0 DUP3 ADD MSTORE POP JUMP JUMPDEST PUSH32 0x416363657373436F6E74726F6C3A2063616E206F6E6C792072656E6F756E6365 PUSH1 0x0 DUP3 ADD MSTORE PUSH32 0x20726F6C657320666F722073656C660000000000000000000000000000000000 PUSH1 0x20 DUP3 ADD MSTORE POP JUMP JUMPDEST PUSH32 0x45524332303A206D696E7420746F20746865207A65726F206164647265737300 PUSH1 0x0 DUP3 ADD MSTORE POP JUMP JUMPDEST PUSH2 0x324B DUP2 PUSH2 0x2B80 JUMP JUMPDEST DUP2 EQ PUSH2 0x3256 JUMPI PUSH1 0x0 DUP1 REVERT JUMPDEST POP JUMP JUMPDEST PUSH2 0x3262 DUP2 PUSH2 0x2B92 JUMP JUMPDEST DUP2 EQ PUSH2 0x326D JUMPI PUSH1 0x0 DUP1 REVERT JUMPDEST POP JUMP JUMPDEST PUSH2 0x3279 DUP2 PUSH2 0x2B9E JUMP JUMPDEST DUP2 EQ PUSH2 0x3284 JUMPI PUSH1 0x0 DUP1 REVERT JUMPDEST POP JUMP JUMPDEST PUSH2 0x3290 DUP2 PUSH2 0x2BA8 JUMP JUMPDEST DUP2 EQ PUSH2 0x329B JUMPI PUSH1 0x0 DUP1 REVERT JUMPDEST POP JUMP JUMPDEST PUSH2 0x32A7 DUP2 PUSH2 0x2BF4 JUMP JUMPDEST DUP2 EQ PUSH2 0x32B2 JUMPI PUSH1 0x0 DUP1 REVERT JUMPDEST POP JUMP INVALID LOG2 PUSH5 0x6970667358 0x22 SLT KECCAK256 0xB1 0xD9 PUSH15 0x6710D3ABCBEB863924E03305C33755 0xFB 0xDF 0xEB DUP3 MOD SWAP5 0xBC SAR SAR PUSH29 0x2166535064736F6C634300080700330000000000000000000000000000 "
				},
				"gasEstimates": {
					"creation": {
						"codeDepositCost": "2607000",
						"executionCost": "infinite",
						"totalCost": "infinite"
					},
					"external": {
						"BURNER_ROLE()": "441",
						"DEFAULT_ADMIN_ROLE()": "446",
						"MINTER_ROLE()": "440",
						"REWARDER_ROLE()": "397",
						"allowance(address,address)": "infinite",
						"approve(address,uint256)": "infinite",
						"balanceOf(address)": "2887",
						"burn(address,uint256)": "infinite",
						"claim()": "infinite",
						"claimed(address)": "2903",
						"createClaimable(address,uint256)": "infinite",
						"decimals()": "411",
						"decreaseAllowance(address,uint256)": "infinite",
						"getClaimed(address)": "2951",
						"getRoleAdmin(bytes32)": "infinite",
						"getUnclaimed(address)": "2886",
						"grantRole(bytes32,address)": "infinite",
						"hasRole(bytes32,address)": "3185",
						"increaseAllowance(address,uint256)": "infinite",
						"mint(address,uint256)": "infinite",
						"name()": "infinite",
						"removeClaimable(address,uint256)": "infinite",
						"renounceRole(bytes32,address)": "infinite",
						"revokeRole(bytes32,address)": "infinite",
						"supportsInterface(bytes4)": "774",
						"symbol()": "infinite",
						"totalSupply()": "2483",
						"transfer(address,uint256)": "infinite",
						"transferFrom(address,address,uint256)": "infinite",
						"unclaimed(address)": "2925"
					}
				},
				"methodIdentifiers": {
					"BURNER_ROLE()": "282c51f3",
					"DEFAULT_ADMIN_ROLE()": "a217fddf",
					"MINTER_ROLE()": "d5391393",
					"REWARDER_ROLE()": "8580cf76",
					"allowance(address,address)": "dd62ed3e",
					"approve(address,uint256)": "095ea7b3",
					"balanceOf(address)": "70a08231",
					"burn(address,uint256)": "9dc29fac",
					"claim()": "4e71d92d",
					"claimed(address)": "c884ef83",
					"createClaimable(address,uint256)": "8a9db765",
					"decimals()": "313ce567",
					"decreaseAllowance(address,uint256)": "a457c2d7",
					"getClaimed(address)": "eb46260e",
					"getRoleAdmin(bytes32)": "248a9ca3",
					"getUnclaimed(address)": "3ab1ced1",
					"grantRole(bytes32,address)": "2f2ff15d",
					"hasRole(bytes32,address)": "91d14854",
					"increaseAllowance(address,uint256)": "39509351",
					"mint(address,uint256)": "40c10f19",
					"name()": "06fdde03",
					"removeClaimable(address,uint256)": "e5b7f305",
					"renounceRole(bytes32,address)": "36568abe",
					"revokeRole(bytes32,address)": "d547741f",
					"supportsInterface(bytes4)": "01ffc9a7",
					"symbol()": "95d89b41",
					"totalSupply()": "18160ddd",
					"transfer(address,uint256)": "a9059cbb",
					"transferFrom(address,address,uint256)": "23b872dd",
					"unclaimed(address)": "505bd3da"
				}
			},
			"userdoc": {
				"kind": "user",
				"methods": {},
				"version": 1
			}
		}
	}
}