{
	"contracts/Claim.sol": {
		"ClaimERC20": {
			"abi": [
				{
					"inputs": [
						{
							"internalType": "address",
							"name": "",
							"type": "address"
						}
					],
					"name": "claimed",
					"outputs": [
						{
							"internalType": "uint256",
							"name": "",
							"type": "uint256"
						}
					],
					"stateMutability": "view",
					"type": "function"
				},
				{
					"inputs": [
						{
							"internalType": "address",
							"name": "_account",
							"type": "address"
						},
						{
							"internalType": "uint256",
							"name": "_amount",
							"type": "uint256"
						}
					],
					"name": "createClaimable",
					"outputs": [],
					"stateMutability": "nonpayable",
					"type": "function"
				},
				{
					"inputs": [
						{
							"internalType": "address",
							"name": "_account",
							"type": "address"
						}
					],
					"name": "getClaimed",
					"outputs": [
						{
							"internalType": "uint256",
							"name": "",
							"type": "uint256"
						}
					],
					"stateMutability": "view",
					"type": "function"
				},
				{
					"inputs": [
						{
							"internalType": "address",
							"name": "_account",
							"type": "address"
						}
					],
					"name": "getUnclaimed",
					"outputs": [
						{
							"internalType": "uint256",
							"name": "",
							"type": "uint256"
						}
					],
					"stateMutability": "view",
					"type": "function"
				},
				{
					"inputs": [
						{
							"internalType": "address",
							"name": "",
							"type": "address"
						}
					],
					"name": "unclaimed",
					"outputs": [
						{
							"internalType": "uint256",
							"name": "",
							"type": "uint256"
						}
					],
					"stateMutability": "view",
					"type": "function"
				}
			],
			"devdoc": {
				"details": "Store & retrieve value in a variable",
				"kind": "dev",
				"methods": {
					"createClaimable(address,uint256)": {
						"details": "Store value in address mapped with unclaimed amounts using virtual amount (offchain value)",
						"params": {
							"_account": "account with value stored",
							"_amount": "value from offchain"
						}
					},
					"getClaimed(address)": {
						"details": "Return value in address mapped with claimed amounts",
						"params": {
							"_account": "account with value stored"
						}
					},
					"getUnclaimed(address)": {
						"details": "Return value in address mapped with unclaimed amounts",
						"params": {
							"_account": "account with value stored"
						}
					}
				},
				"title": "Storage",
				"version": 1
			},
			"evm": {
				"assembly": "    /* \"contracts/Claim.sol\":141:1800  contract ClaimERC20 {... */\n  mstore(0x40, 0x80)\n  callvalue\n  dup1\n  iszero\n  tag_1\n  jumpi\n  0x00\n  dup1\n  revert\ntag_1:\n  pop\n  dataSize(sub_0)\n  dup1\n  dataOffset(sub_0)\n  0x00\n  codecopy\n  0x00\n  return\nstop\n\nsub_0: assembly {\n        /* \"contracts/Claim.sol\":141:1800  contract ClaimERC20 {... */\n      mstore(0x40, 0x80)\n      callvalue\n      dup1\n      iszero\n      tag_1\n      jumpi\n      0x00\n      dup1\n      revert\n    tag_1:\n      pop\n      jumpi(tag_2, lt(calldatasize, 0x04))\n      shr(0xe0, calldataload(0x00))\n      dup1\n      0x3ab1ced1\n      eq\n      tag_3\n      jumpi\n      dup1\n      0x505bd3da\n      eq\n      tag_4\n      jumpi\n      dup1\n      0x8a9db765\n      eq\n      tag_5\n      jumpi\n      dup1\n      0xc884ef83\n      eq\n      tag_6\n      jumpi\n      dup1\n      0xeb46260e\n      eq\n      tag_7\n      jumpi\n    tag_2:\n      0x00\n      dup1\n      revert\n        /* \"contracts/Claim.sol\":678:791  function getUnclaimed(address _account) public view returns (uint256) {... */\n    tag_3:\n      tag_8\n      0x04\n      dup1\n      calldatasize\n      sub\n      dup2\n      add\n      swap1\n      tag_9\n      swap2\n      swap1\n      tag_10\n      jump\t// in\n    tag_9:\n      tag_11\n      jump\t// in\n    tag_8:\n      mload(0x40)\n      tag_12\n      swap2\n      swap1\n      tag_13\n      jump\t// in\n    tag_12:\n      mload(0x40)\n      dup1\n      swap2\n      sub\n      swap1\n      return\n        /* \"contracts/Claim.sol\":168:209  mapping(address => uint) public unclaimed */\n    tag_4:\n      tag_14\n      0x04\n      dup1\n      calldatasize\n      sub\n      dup2\n      add\n      swap1\n      tag_15\n      swap2\n      swap1\n      tag_10\n      jump\t// in\n    tag_15:\n      tag_16\n      jump\t// in\n    tag_14:\n      mload(0x40)\n      tag_17\n      swap2\n      swap1\n      tag_13\n      jump\t// in\n    tag_17:\n      mload(0x40)\n      dup1\n      swap2\n      sub\n      swap1\n      return\n        /* \"contracts/Claim.sol\":1529:1798  function createClaimable(address _account, uint256 _amount) external {... */\n    tag_5:\n      tag_18\n      0x04\n      dup1\n      calldatasize\n      sub\n      dup2\n      add\n      swap1\n      tag_19\n      swap2\n      swap1\n      tag_20\n      jump\t// in\n    tag_19:\n      tag_21\n      jump\t// in\n    tag_18:\n      stop\n        /* \"contracts/Claim.sol\":215:254  mapping(address => uint) public claimed */\n    tag_6:\n      tag_22\n      0x04\n      dup1\n      calldatasize\n      sub\n      dup2\n      add\n      swap1\n      tag_23\n      swap2\n      swap1\n      tag_10\n      jump\t// in\n    tag_23:\n      tag_24\n      jump\t// in\n    tag_22:\n      mload(0x40)\n      tag_25\n      swap2\n      swap1\n      tag_13\n      jump\t// in\n    tag_25:\n      mload(0x40)\n      dup1\n      swap2\n      sub\n      swap1\n      return\n        /* \"contracts/Claim.sol\":1204:1313  function getClaimed(address _account) public view returns (uint256) {... */\n    tag_7:\n      tag_26\n      0x04\n      dup1\n      calldatasize\n      sub\n      dup2\n      add\n      swap1\n      tag_27\n      swap2\n      swap1\n      tag_10\n      jump\t// in\n    tag_27:\n      tag_28\n      jump\t// in\n    tag_26:\n      mload(0x40)\n      tag_29\n      swap2\n      swap1\n      tag_13\n      jump\t// in\n    tag_29:\n      mload(0x40)\n      dup1\n      swap2\n      sub\n      swap1\n      return\n        /* \"contracts/Claim.sol\":678:791  function getUnclaimed(address _account) public view returns (uint256) {... */\n    tag_11:\n        /* \"contracts/Claim.sol\":739:746  uint256 */\n      0x00\n        /* \"contracts/Claim.sol\":765:774  unclaimed */\n      dup1\n        /* \"contracts/Claim.sol\":765:784  unclaimed[_account] */\n      0x00\n        /* \"contracts/Claim.sol\":775:783  _account */\n      dup4\n        /* \"contracts/Claim.sol\":765:784  unclaimed[_account] */\n      0xffffffffffffffffffffffffffffffffffffffff\n      and\n      0xffffffffffffffffffffffffffffffffffffffff\n      and\n      dup2\n      mstore\n      0x20\n      add\n      swap1\n      dup2\n      mstore\n      0x20\n      add\n      0x00\n      keccak256\n      sload\n        /* \"contracts/Claim.sol\":758:784  return unclaimed[_account] */\n      swap1\n      pop\n        /* \"contracts/Claim.sol\":678:791  function getUnclaimed(address _account) public view returns (uint256) {... */\n      swap2\n      swap1\n      pop\n      jump\t// out\n        /* \"contracts/Claim.sol\":168:209  mapping(address => uint) public unclaimed */\n    tag_16:\n      mstore(0x20, 0x00)\n      dup1\n      0x00\n      mstore\n      keccak256(0x00, 0x40)\n      0x00\n      swap2\n      pop\n      swap1\n      pop\n      sload\n      dup2\n      jump\t// out\n        /* \"contracts/Claim.sol\":1529:1798  function createClaimable(address _account, uint256 _amount) external {... */\n    tag_21:\n        /* \"contracts/Claim.sol\":1608:1626  uint256 _unclaimed */\n      0x00\n        /* \"contracts/Claim.sol\":1659:1668  unclaimed */\n      dup1\n        /* \"contracts/Claim.sol\":1659:1678  unclaimed[_account] */\n      0x00\n        /* \"contracts/Claim.sol\":1669:1677  _account */\n      dup5\n        /* \"contracts/Claim.sol\":1659:1678  unclaimed[_account] */\n      0xffffffffffffffffffffffffffffffffffffffff\n      and\n      0xffffffffffffffffffffffffffffffffffffffff\n      and\n      dup2\n      mstore\n      0x20\n      add\n      swap1\n      dup2\n      mstore\n      0x20\n      add\n      0x00\n      keccak256\n      sload\n        /* \"contracts/Claim.sol\":1639:1646  claimed */\n      0x01\n        /* \"contracts/Claim.sol\":1639:1656  claimed[_account] */\n      0x00\n        /* \"contracts/Claim.sol\":1647:1655  _account */\n      dup6\n        /* \"contracts/Claim.sol\":1639:1656  claimed[_account] */\n      0xffffffffffffffffffffffffffffffffffffffff\n      and\n      0xffffffffffffffffffffffffffffffffffffffff\n      and\n      dup2\n      mstore\n      0x20\n      add\n      swap1\n      dup2\n      mstore\n      0x20\n      add\n      0x00\n      keccak256\n      sload\n        /* \"contracts/Claim.sol\":1629:1636  _amount */\n      dup4\n        /* \"contracts/Claim.sol\":1629:1656  _amount - claimed[_account] */\n      tag_32\n      swap2\n      swap1\n      tag_33\n      jump\t// in\n    tag_32:\n        /* \"contracts/Claim.sol\":1629:1678  _amount - claimed[_account] - unclaimed[_account] */\n      tag_34\n      swap2\n      swap1\n      tag_33\n      jump\t// in\n    tag_34:\n        /* \"contracts/Claim.sol\":1608:1678  uint256 _unclaimed = _amount - claimed[_account] - unclaimed[_account] */\n      swap1\n      pop\n        /* \"contracts/Claim.sol\":1709:1710  0 */\n      0x00\n        /* \"contracts/Claim.sol\":1696:1706  _unclaimed */\n      dup2\n        /* \"contracts/Claim.sol\":1696:1710  _unclaimed > 0 */\n      gt\n        /* \"contracts/Claim.sol\":1688:1747  require(_unclaimed > 0, 'claimable must be greater than 0') */\n      tag_35\n      jumpi\n      mload(0x40)\n      0x08c379a000000000000000000000000000000000000000000000000000000000\n      dup2\n      mstore\n      0x04\n      add\n      tag_36\n      swap1\n      tag_37\n      jump\t// in\n    tag_36:\n      mload(0x40)\n      dup1\n      swap2\n      sub\n      swap1\n      revert\n    tag_35:\n        /* \"contracts/Claim.sol\":1757:1791  setUnclaimed(_account, _unclaimed) */\n      tag_38\n        /* \"contracts/Claim.sol\":1770:1778  _account */\n      dup4\n        /* \"contracts/Claim.sol\":1780:1790  _unclaimed */\n      dup3\n        /* \"contracts/Claim.sol\":1757:1769  setUnclaimed */\n      tag_39\n        /* \"contracts/Claim.sol\":1757:1791  setUnclaimed(_account, _unclaimed) */\n      jump\t// in\n    tag_38:\n        /* \"contracts/Claim.sol\":1598:1798  {... */\n      pop\n        /* \"contracts/Claim.sol\":1529:1798  function createClaimable(address _account, uint256 _amount) external {... */\n      pop\n      pop\n      jump\t// out\n        /* \"contracts/Claim.sol\":215:254  mapping(address => uint) public claimed */\n    tag_24:\n      mstore(0x20, 0x01)\n      dup1\n      0x00\n      mstore\n      keccak256(0x00, 0x40)\n      0x00\n      swap2\n      pop\n      swap1\n      pop\n      sload\n      dup2\n      jump\t// out\n        /* \"contracts/Claim.sol\":1204:1313  function getClaimed(address _account) public view returns (uint256) {... */\n    tag_28:\n        /* \"contracts/Claim.sol\":1263:1270  uint256 */\n      0x00\n        /* \"contracts/Claim.sol\":1289:1296  claimed */\n      0x01\n        /* \"contracts/Claim.sol\":1289:1306  claimed[_account] */\n      0x00\n        /* \"contracts/Claim.sol\":1297:1305  _account */\n      dup4\n        /* \"contracts/Claim.sol\":1289:1306  claimed[_account] */\n      0xffffffffffffffffffffffffffffffffffffffff\n      and\n      0xffffffffffffffffffffffffffffffffffffffff\n      and\n      dup2\n      mstore\n      0x20\n      add\n      swap1\n      dup2\n      mstore\n      0x20\n      add\n      0x00\n      keccak256\n      sload\n        /* \"contracts/Claim.sol\":1282:1306  return claimed[_account] */\n      swap1\n      pop\n        /* \"contracts/Claim.sol\":1204:1313  function getClaimed(address _account) public view returns (uint256) {... */\n      swap2\n      swap1\n      pop\n      jump\t// out\n        /* \"contracts/Claim.sol\":434:541  function setUnclaimed(address _account, uint256 _amt) internal {... */\n    tag_39:\n        /* \"contracts/Claim.sol\":530:534  _amt */\n      dup1\n        /* \"contracts/Claim.sol\":507:516  unclaimed */\n      0x00\n        /* \"contracts/Claim.sol\":507:526  unclaimed[_account] */\n      dup1\n        /* \"contracts/Claim.sol\":517:525  _account */\n      dup5\n        /* \"contracts/Claim.sol\":507:526  unclaimed[_account] */\n      0xffffffffffffffffffffffffffffffffffffffff\n      and\n      0xffffffffffffffffffffffffffffffffffffffff\n      and\n      dup2\n      mstore\n      0x20\n      add\n      swap1\n      dup2\n      mstore\n      0x20\n      add\n      0x00\n      keccak256\n      0x00\n        /* \"contracts/Claim.sol\":507:534  unclaimed[_account] += _amt */\n      dup3\n      dup3\n      sload\n      tag_42\n      swap2\n      swap1\n      tag_43\n      jump\t// in\n    tag_42:\n      swap3\n      pop\n      pop\n      dup2\n      swap1\n      sstore\n      pop\n        /* \"contracts/Claim.sol\":434:541  function setUnclaimed(address _account, uint256 _amt) internal {... */\n      pop\n      pop\n      jump\t// out\n        /* \"#utility.yul\":7:146   */\n    tag_45:\n        /* \"#utility.yul\":53:58   */\n      0x00\n        /* \"#utility.yul\":91:97   */\n      dup2\n        /* \"#utility.yul\":78:98   */\n      calldataload\n        /* \"#utility.yul\":69:98   */\n      swap1\n      pop\n        /* \"#utility.yul\":107:140   */\n      tag_47\n        /* \"#utility.yul\":134:139   */\n      dup2\n        /* \"#utility.yul\":107:140   */\n      tag_48\n      jump\t// in\n    tag_47:\n        /* \"#utility.yul\":7:146   */\n      swap3\n      swap2\n      pop\n      pop\n      jump\t// out\n        /* \"#utility.yul\":152:291   */\n    tag_49:\n        /* \"#utility.yul\":198:203   */\n      0x00\n        /* \"#utility.yul\":236:242   */\n      dup2\n        /* \"#utility.yul\":223:243   */\n      calldataload\n        /* \"#utility.yul\":214:243   */\n      swap1\n      pop\n        /* \"#utility.yul\":252:285   */\n      tag_51\n        /* \"#utility.yul\":279:284   */\n      dup2\n        /* \"#utility.yul\":252:285   */\n      tag_52\n      jump\t// in\n    tag_51:\n        /* \"#utility.yul\":152:291   */\n      swap3\n      swap2\n      pop\n      pop\n      jump\t// out\n        /* \"#utility.yul\":297:626   */\n    tag_10:\n        /* \"#utility.yul\":356:362   */\n      0x00\n        /* \"#utility.yul\":405:407   */\n      0x20\n        /* \"#utility.yul\":393:402   */\n      dup3\n        /* \"#utility.yul\":384:391   */\n      dup5\n        /* \"#utility.yul\":380:403   */\n      sub\n        /* \"#utility.yul\":376:408   */\n      slt\n        /* \"#utility.yul\":373:492   */\n      iszero\n      tag_54\n      jumpi\n        /* \"#utility.yul\":411:490   */\n      tag_55\n      tag_56\n      jump\t// in\n    tag_55:\n        /* \"#utility.yul\":373:492   */\n    tag_54:\n        /* \"#utility.yul\":531:532   */\n      0x00\n        /* \"#utility.yul\":556:609   */\n      tag_57\n        /* \"#utility.yul\":601:608   */\n      dup5\n        /* \"#utility.yul\":592:598   */\n      dup3\n        /* \"#utility.yul\":581:590   */\n      dup6\n        /* \"#utility.yul\":577:599   */\n      add\n        /* \"#utility.yul\":556:609   */\n      tag_45\n      jump\t// in\n    tag_57:\n        /* \"#utility.yul\":546:609   */\n      swap2\n      pop\n        /* \"#utility.yul\":502:619   */\n      pop\n        /* \"#utility.yul\":297:626   */\n      swap3\n      swap2\n      pop\n      pop\n      jump\t// out\n        /* \"#utility.yul\":632:1106   */\n    tag_20:\n        /* \"#utility.yul\":700:706   */\n      0x00\n        /* \"#utility.yul\":708:714   */\n      dup1\n        /* \"#utility.yul\":757:759   */\n      0x40\n        /* \"#utility.yul\":745:754   */\n      dup4\n        /* \"#utility.yul\":736:743   */\n      dup6\n        /* \"#utility.yul\":732:755   */\n      sub\n        /* \"#utility.yul\":728:760   */\n      slt\n        /* \"#utility.yul\":725:844   */\n      iszero\n      tag_59\n      jumpi\n        /* \"#utility.yul\":763:842   */\n      tag_60\n      tag_56\n      jump\t// in\n    tag_60:\n        /* \"#utility.yul\":725:844   */\n    tag_59:\n        /* \"#utility.yul\":883:884   */\n      0x00\n        /* \"#utility.yul\":908:961   */\n      tag_61\n        /* \"#utility.yul\":953:960   */\n      dup6\n        /* \"#utility.yul\":944:950   */\n      dup3\n        /* \"#utility.yul\":933:942   */\n      dup7\n        /* \"#utility.yul\":929:951   */\n      add\n        /* \"#utility.yul\":908:961   */\n      tag_45\n      jump\t// in\n    tag_61:\n        /* \"#utility.yul\":898:961   */\n      swap3\n      pop\n        /* \"#utility.yul\":854:971   */\n      pop\n        /* \"#utility.yul\":1010:1012   */\n      0x20\n        /* \"#utility.yul\":1036:1089   */\n      tag_62\n        /* \"#utility.yul\":1081:1088   */\n      dup6\n        /* \"#utility.yul\":1072:1078   */\n      dup3\n        /* \"#utility.yul\":1061:1070   */\n      dup7\n        /* \"#utility.yul\":1057:1079   */\n      add\n        /* \"#utility.yul\":1036:1089   */\n      tag_49\n      jump\t// in\n    tag_62:\n        /* \"#utility.yul\":1026:1089   */\n      swap2\n      pop\n        /* \"#utility.yul\":981:1099   */\n      pop\n        /* \"#utility.yul\":632:1106   */\n      swap3\n      pop\n      swap3\n      swap1\n      pop\n      jump\t// out\n        /* \"#utility.yul\":1112:1478   */\n    tag_63:\n        /* \"#utility.yul\":1254:1257   */\n      0x00\n        /* \"#utility.yul\":1275:1342   */\n      tag_65\n        /* \"#utility.yul\":1339:1341   */\n      0x20\n        /* \"#utility.yul\":1334:1337   */\n      dup4\n        /* \"#utility.yul\":1275:1342   */\n      tag_66\n      jump\t// in\n    tag_65:\n        /* \"#utility.yul\":1268:1342   */\n      swap2\n      pop\n        /* \"#utility.yul\":1351:1444   */\n      tag_67\n        /* \"#utility.yul\":1440:1443   */\n      dup3\n        /* \"#utility.yul\":1351:1444   */\n      tag_68\n      jump\t// in\n    tag_67:\n        /* \"#utility.yul\":1469:1471   */\n      0x20\n        /* \"#utility.yul\":1464:1467   */\n      dup3\n        /* \"#utility.yul\":1460:1472   */\n      add\n        /* \"#utility.yul\":1453:1472   */\n      swap1\n      pop\n        /* \"#utility.yul\":1112:1478   */\n      swap2\n      swap1\n      pop\n      jump\t// out\n        /* \"#utility.yul\":1484:1602   */\n    tag_69:\n        /* \"#utility.yul\":1571:1595   */\n      tag_71\n        /* \"#utility.yul\":1589:1594   */\n      dup2\n        /* \"#utility.yul\":1571:1595   */\n      tag_72\n      jump\t// in\n    tag_71:\n        /* \"#utility.yul\":1566:1569   */\n      dup3\n        /* \"#utility.yul\":1559:1596   */\n      mstore\n        /* \"#utility.yul\":1484:1602   */\n      pop\n      pop\n      jump\t// out\n        /* \"#utility.yul\":1608:2027   */\n    tag_37:\n        /* \"#utility.yul\":1774:1778   */\n      0x00\n        /* \"#utility.yul\":1812:1814   */\n      0x20\n        /* \"#utility.yul\":1801:1810   */\n      dup3\n        /* \"#utility.yul\":1797:1815   */\n      add\n        /* \"#utility.yul\":1789:1815   */\n      swap1\n      pop\n        /* \"#utility.yul\":1861:1870   */\n      dup2\n        /* \"#utility.yul\":1855:1859   */\n      dup2\n        /* \"#utility.yul\":1851:1871   */\n      sub\n        /* \"#utility.yul\":1847:1848   */\n      0x00\n        /* \"#utility.yul\":1836:1845   */\n      dup4\n        /* \"#utility.yul\":1832:1849   */\n      add\n        /* \"#utility.yul\":1825:1872   */\n      mstore\n        /* \"#utility.yul\":1889:2020   */\n      tag_74\n        /* \"#utility.yul\":2015:2019   */\n      dup2\n        /* \"#utility.yul\":1889:2020   */\n      tag_63\n      jump\t// in\n    tag_74:\n        /* \"#utility.yul\":1881:2020   */\n      swap1\n      pop\n        /* \"#utility.yul\":1608:2027   */\n      swap2\n      swap1\n      pop\n      jump\t// out\n        /* \"#utility.yul\":2033:2255   */\n    tag_13:\n        /* \"#utility.yul\":2126:2130   */\n      0x00\n        /* \"#utility.yul\":2164:2166   */\n      0x20\n        /* \"#utility.yul\":2153:2162   */\n      dup3\n        /* \"#utility.yul\":2149:2167   */\n      add\n        /* \"#utility.yul\":2141:2167   */\n      swap1\n      pop\n        /* \"#utility.yul\":2177:2248   */\n      tag_76\n        /* \"#utility.yul\":2245:2246   */\n      0x00\n        /* \"#utility.yul\":2234:2243   */\n      dup4\n        /* \"#utility.yul\":2230:2247   */\n      add\n        /* \"#utility.yul\":2221:2227   */\n      dup5\n        /* \"#utility.yul\":2177:2248   */\n      tag_69\n      jump\t// in\n    tag_76:\n        /* \"#utility.yul\":2033:2255   */\n      swap3\n      swap2\n      pop\n      pop\n      jump\t// out\n        /* \"#utility.yul\":2342:2511   */\n    tag_66:\n        /* \"#utility.yul\":2426:2437   */\n      0x00\n        /* \"#utility.yul\":2460:2466   */\n      dup3\n        /* \"#utility.yul\":2455:2458   */\n      dup3\n        /* \"#utility.yul\":2448:2467   */\n      mstore\n        /* \"#utility.yul\":2500:2504   */\n      0x20\n        /* \"#utility.yul\":2495:2498   */\n      dup3\n        /* \"#utility.yul\":2491:2505   */\n      add\n        /* \"#utility.yul\":2476:2505   */\n      swap1\n      pop\n        /* \"#utility.yul\":2342:2511   */\n      swap3\n      swap2\n      pop\n      pop\n      jump\t// out\n        /* \"#utility.yul\":2517:2822   */\n    tag_43:\n        /* \"#utility.yul\":2557:2560   */\n      0x00\n        /* \"#utility.yul\":2576:2596   */\n      tag_81\n        /* \"#utility.yul\":2594:2595   */\n      dup3\n        /* \"#utility.yul\":2576:2596   */\n      tag_72\n      jump\t// in\n    tag_81:\n        /* \"#utility.yul\":2571:2596   */\n      swap2\n      pop\n        /* \"#utility.yul\":2610:2630   */\n      tag_82\n        /* \"#utility.yul\":2628:2629   */\n      dup4\n        /* \"#utility.yul\":2610:2630   */\n      tag_72\n      jump\t// in\n    tag_82:\n        /* \"#utility.yul\":2605:2630   */\n      swap3\n      pop\n        /* \"#utility.yul\":2764:2765   */\n      dup3\n        /* \"#utility.yul\":2696:2762   */\n      0xffffffffffffffffffffffffffffffffffffffffffffffffffffffffffffffff\n        /* \"#utility.yul\":2692:2766   */\n      sub\n        /* \"#utility.yul\":2689:2690   */\n      dup3\n        /* \"#utility.yul\":2686:2767   */\n      gt\n        /* \"#utility.yul\":2683:2790   */\n      iszero\n      tag_83\n      jumpi\n        /* \"#utility.yul\":2770:2788   */\n      tag_84\n      tag_85\n      jump\t// in\n    tag_84:\n        /* \"#utility.yul\":2683:2790   */\n    tag_83:\n        /* \"#utility.yul\":2814:2815   */\n      dup3\n        /* \"#utility.yul\":2811:2812   */\n      dup3\n        /* \"#utility.yul\":2807:2816   */\n      add\n        /* \"#utility.yul\":2800:2816   */\n      swap1\n      pop\n        /* \"#utility.yul\":2517:2822   */\n      swap3\n      swap2\n      pop\n      pop\n      jump\t// out\n        /* \"#utility.yul\":2828:3019   */\n    tag_33:\n        /* \"#utility.yul\":2868:2872   */\n      0x00\n        /* \"#utility.yul\":2888:2908   */\n      tag_87\n        /* \"#utility.yul\":2906:2907   */\n      dup3\n        /* \"#utility.yul\":2888:2908   */\n      tag_72\n      jump\t// in\n    tag_87:\n        /* \"#utility.yul\":2883:2908   */\n      swap2\n      pop\n        /* \"#utility.yul\":2922:2942   */\n      tag_88\n        /* \"#utility.yul\":2940:2941   */\n      dup4\n        /* \"#utility.yul\":2922:2942   */\n      tag_72\n      jump\t// in\n    tag_88:\n        /* \"#utility.yul\":2917:2942   */\n      swap3\n      pop\n        /* \"#utility.yul\":2961:2962   */\n      dup3\n        /* \"#utility.yul\":2958:2959   */\n      dup3\n        /* \"#utility.yul\":2955:2963   */\n      lt\n        /* \"#utility.yul\":2952:2986   */\n      iszero\n      tag_89\n      jumpi\n        /* \"#utility.yul\":2966:2984   */\n      tag_90\n      tag_85\n      jump\t// in\n    tag_90:\n        /* \"#utility.yul\":2952:2986   */\n    tag_89:\n        /* \"#utility.yul\":3011:3012   */\n      dup3\n        /* \"#utility.yul\":3008:3009   */\n      dup3\n        /* \"#utility.yul\":3004:3013   */\n      sub\n        /* \"#utility.yul\":2996:3013   */\n      swap1\n      pop\n        /* \"#utility.yul\":2828:3019   */\n      swap3\n      swap2\n      pop\n      pop\n      jump\t// out\n        /* \"#utility.yul\":3025:3121   */\n    tag_91:\n        /* \"#utility.yul\":3062:3069   */\n      0x00\n        /* \"#utility.yul\":3091:3115   */\n      tag_93\n        /* \"#utility.yul\":3109:3114   */\n      dup3\n        /* \"#utility.yul\":3091:3115   */\n      tag_94\n      jump\t// in\n    tag_93:\n        /* \"#utility.yul\":3080:3115   */\n      swap1\n      pop\n        /* \"#utility.yul\":3025:3121   */\n      swap2\n      swap1\n      pop\n      jump\t// out\n        /* \"#utility.yul\":3127:3253   */\n    tag_94:\n        /* \"#utility.yul\":3164:3171   */\n      0x00\n        /* \"#utility.yul\":3204:3246   */\n      0xffffffffffffffffffffffffffffffffffffffff\n        /* \"#utility.yul\":3197:3202   */\n      dup3\n        /* \"#utility.yul\":3193:3247   */\n      and\n        /* \"#utility.yul\":3182:3247   */\n      swap1\n      pop\n        /* \"#utility.yul\":3127:3253   */\n      swap2\n      swap1\n      pop\n      jump\t// out\n        /* \"#utility.yul\":3259:3336   */\n    tag_72:\n        /* \"#utility.yul\":3296:3303   */\n      0x00\n        /* \"#utility.yul\":3325:3330   */\n      dup2\n        /* \"#utility.yul\":3314:3330   */\n      swap1\n      pop\n        /* \"#utility.yul\":3259:3336   */\n      swap2\n      swap1\n      pop\n      jump\t// out\n        /* \"#utility.yul\":3342:3522   */\n    tag_85:\n        /* \"#utility.yul\":3390:3467   */\n      0x4e487b7100000000000000000000000000000000000000000000000000000000\n        /* \"#utility.yul\":3387:3388   */\n      0x00\n        /* \"#utility.yul\":3380:3468   */\n      mstore\n        /* \"#utility.yul\":3487:3491   */\n      0x11\n        /* \"#utility.yul\":3484:3485   */\n      0x04\n        /* \"#utility.yul\":3477:3492   */\n      mstore\n        /* \"#utility.yul\":3511:3515   */\n      0x24\n        /* \"#utility.yul\":3508:3509   */\n      0x00\n        /* \"#utility.yul\":3501:3516   */\n      revert\n        /* \"#utility.yul\":3651:3768   */\n    tag_56:\n        /* \"#utility.yul\":3760:3761   */\n      0x00\n        /* \"#utility.yul\":3757:3758   */\n      dup1\n        /* \"#utility.yul\":3750:3762   */\n      revert\n        /* \"#utility.yul\":3774:3956   */\n    tag_68:\n        /* \"#utility.yul\":3914:3948   */\n      0x636c61696d61626c65206d7573742062652067726561746572207468616e2030\n        /* \"#utility.yul\":3910:3911   */\n      0x00\n        /* \"#utility.yul\":3902:3908   */\n      dup3\n        /* \"#utility.yul\":3898:3912   */\n      add\n        /* \"#utility.yul\":3891:3949   */\n      mstore\n        /* \"#utility.yul\":3774:3956   */\n      pop\n      jump\t// out\n        /* \"#utility.yul\":3962:4084   */\n    tag_48:\n        /* \"#utility.yul\":4035:4059   */\n      tag_103\n        /* \"#utility.yul\":4053:4058   */\n      dup2\n        /* \"#utility.yul\":4035:4059   */\n      tag_91\n      jump\t// in\n    tag_103:\n        /* \"#utility.yul\":4028:4033   */\n      dup2\n        /* \"#utility.yul\":4025:4060   */\n      eq\n        /* \"#utility.yul\":4015:4078   */\n      tag_104\n      jumpi\n        /* \"#utility.yul\":4074:4075   */\n      0x00\n        /* \"#utility.yul\":4071:4072   */\n      dup1\n        /* \"#utility.yul\":4064:4076   */\n      revert\n        /* \"#utility.yul\":4015:4078   */\n    tag_104:\n        /* \"#utility.yul\":3962:4084   */\n      pop\n      jump\t// out\n        /* \"#utility.yul\":4090:4212   */\n    tag_52:\n        /* \"#utility.yul\":4163:4187   */\n      tag_106\n        /* \"#utility.yul\":4181:4186   */\n      dup2\n        /* \"#utility.yul\":4163:4187   */\n      tag_72\n      jump\t// in\n    tag_106:\n        /* \"#utility.yul\":4156:4161   */\n      dup2\n        /* \"#utility.yul\":4153:4188   */\n      eq\n        /* \"#utility.yul\":4143:4206   */\n      tag_107\n      jumpi\n        /* \"#utility.yul\":4202:4203   */\n      0x00\n        /* \"#utility.yul\":4199:4200   */\n      dup1\n        /* \"#utility.yul\":4192:4204   */\n      revert\n        /* \"#utility.yul\":4143:4206   */\n    tag_107:\n        /* \"#utility.yul\":4090:4212   */\n      pop\n      jump\t// out\n\n    auxdata: 0xa2646970667358221220a08fbca148e3c6cba493e05d44db2edce99a5359d7f6b7b491aa5367e90484f064736f6c63430008070033\n}\n",
				"bytecode": {
					"linkReferences": {},
					"object": "608060405234801561001057600080fd5b506105d8806100206000396000f3fe608060405234801561001057600080fd5b50600436106100575760003560e01c80633ab1ced11461005c578063505bd3da1461008c5780638a9db765146100bc578063c884ef83146100d8578063eb46260e14610108575b600080fd5b61007660048036038101906100719190610366565b610138565b6040516100839190610425565b60405180910390f35b6100a660048036038101906100a19190610366565b610180565b6040516100b39190610425565b60405180910390f35b6100d660048036038101906100d19190610393565b610198565b005b6100f260048036038101906100ed9190610366565b610282565b6040516100ff9190610425565b60405180910390f35b610122600480360381019061011d9190610366565b61029a565b60405161012f9190610425565b60405180910390f35b60008060008373ffffffffffffffffffffffffffffffffffffffff1673ffffffffffffffffffffffffffffffffffffffff168152602001908152602001600020549050919050565b60006020528060005260406000206000915090505481565b60008060008473ffffffffffffffffffffffffffffffffffffffff1673ffffffffffffffffffffffffffffffffffffffff16815260200190815260200160002054600160008573ffffffffffffffffffffffffffffffffffffffff1673ffffffffffffffffffffffffffffffffffffffff168152602001908152602001600020548361022491906104a7565b61022e91906104a7565b905060008111610273576040517f08c379a000000000000000000000000000000000000000000000000000000000815260040161026a90610405565b60405180910390fd5b61027d83826102e3565b505050565b60016020528060005260406000206000915090505481565b6000600160008373ffffffffffffffffffffffffffffffffffffffff1673ffffffffffffffffffffffffffffffffffffffff168152602001908152602001600020549050919050565b806000808473ffffffffffffffffffffffffffffffffffffffff1673ffffffffffffffffffffffffffffffffffffffff16815260200190815260200160002060008282546103319190610451565b925050819055505050565b60008135905061034b81610574565b92915050565b6000813590506103608161058b565b92915050565b60006020828403121561037c5761037b610546565b5b600061038a8482850161033c565b91505092915050565b600080604083850312156103aa576103a9610546565b5b60006103b88582860161033c565b92505060206103c985828601610351565b9150509250929050565b60006103e0602083610440565b91506103eb8261054b565b602082019050919050565b6103ff8161050d565b82525050565b6000602082019050818103600083015261041e816103d3565b9050919050565b600060208201905061043a60008301846103f6565b92915050565b600082825260208201905092915050565b600061045c8261050d565b91506104678361050d565b9250827fffffffffffffffffffffffffffffffffffffffffffffffffffffffffffffffff0382111561049c5761049b610517565b5b828201905092915050565b60006104b28261050d565b91506104bd8361050d565b9250828210156104d0576104cf610517565b5b828203905092915050565b60006104e6826104ed565b9050919050565b600073ffffffffffffffffffffffffffffffffffffffff82169050919050565b6000819050919050565b7f4e487b7100000000000000000000000000000000000000000000000000000000600052601160045260246000fd5b600080fd5b7f636c61696d61626c65206d7573742062652067726561746572207468616e2030600082015250565b61057d816104db565b811461058857600080fd5b50565b6105948161050d565b811461059f57600080fd5b5056fea2646970667358221220a08fbca148e3c6cba493e05d44db2edce99a5359d7f6b7b491aa5367e90484f064736f6c63430008070033",
					"opcodes": "PUSH1 0x80 PUSH1 0x40 MSTORE CALLVALUE DUP1 ISZERO PUSH2 0x10 JUMPI PUSH1 0x0 DUP1 REVERT JUMPDEST POP PUSH2 0x5D8 DUP1 PUSH2 0x20 PUSH1 0x0 CODECOPY PUSH1 0x0 RETURN INVALID PUSH1 0x80 PUSH1 0x40 MSTORE CALLVALUE DUP1 ISZERO PUSH2 0x10 JUMPI PUSH1 0x0 DUP1 REVERT JUMPDEST POP PUSH1 0x4 CALLDATASIZE LT PUSH2 0x57 JUMPI PUSH1 0x0 CALLDATALOAD PUSH1 0xE0 SHR DUP1 PUSH4 0x3AB1CED1 EQ PUSH2 0x5C JUMPI DUP1 PUSH4 0x505BD3DA EQ PUSH2 0x8C JUMPI DUP1 PUSH4 0x8A9DB765 EQ PUSH2 0xBC JUMPI DUP1 PUSH4 0xC884EF83 EQ PUSH2 0xD8 JUMPI DUP1 PUSH4 0xEB46260E EQ PUSH2 0x108 JUMPI JUMPDEST PUSH1 0x0 DUP1 REVERT JUMPDEST PUSH2 0x76 PUSH1 0x4 DUP1 CALLDATASIZE SUB DUP2 ADD SWAP1 PUSH2 0x71 SWAP2 SWAP1 PUSH2 0x366 JUMP JUMPDEST PUSH2 0x138 JUMP JUMPDEST PUSH1 0x40 MLOAD PUSH2 0x83 SWAP2 SWAP1 PUSH2 0x425 JUMP JUMPDEST PUSH1 0x40 MLOAD DUP1 SWAP2 SUB SWAP1 RETURN JUMPDEST PUSH2 0xA6 PUSH1 0x4 DUP1 CALLDATASIZE SUB DUP2 ADD SWAP1 PUSH2 0xA1 SWAP2 SWAP1 PUSH2 0x366 JUMP JUMPDEST PUSH2 0x180 JUMP JUMPDEST PUSH1 0x40 MLOAD PUSH2 0xB3 SWAP2 SWAP1 PUSH2 0x425 JUMP JUMPDEST PUSH1 0x40 MLOAD DUP1 SWAP2 SUB SWAP1 RETURN JUMPDEST PUSH2 0xD6 PUSH1 0x4 DUP1 CALLDATASIZE SUB DUP2 ADD SWAP1 PUSH2 0xD1 SWAP2 SWAP1 PUSH2 0x393 JUMP JUMPDEST PUSH2 0x198 JUMP JUMPDEST STOP JUMPDEST PUSH2 0xF2 PUSH1 0x4 DUP1 CALLDATASIZE SUB DUP2 ADD SWAP1 PUSH2 0xED SWAP2 SWAP1 PUSH2 0x366 JUMP JUMPDEST PUSH2 0x282 JUMP JUMPDEST PUSH1 0x40 MLOAD PUSH2 0xFF SWAP2 SWAP1 PUSH2 0x425 JUMP JUMPDEST PUSH1 0x40 MLOAD DUP1 SWAP2 SUB SWAP1 RETURN JUMPDEST PUSH2 0x122 PUSH1 0x4 DUP1 CALLDATASIZE SUB DUP2 ADD SWAP1 PUSH2 0x11D SWAP2 SWAP1 PUSH2 0x366 JUMP JUMPDEST PUSH2 0x29A JUMP JUMPDEST PUSH1 0x40 MLOAD PUSH2 0x12F SWAP2 SWAP1 PUSH2 0x425 JUMP JUMPDEST PUSH1 0x40 MLOAD DUP1 SWAP2 SUB SWAP1 RETURN JUMPDEST PUSH1 0x0 DUP1 PUSH1 0x0 DUP4 PUSH20 0xFFFFFFFFFFFFFFFFFFFFFFFFFFFFFFFFFFFFFFFF AND PUSH20 0xFFFFFFFFFFFFFFFFFFFFFFFFFFFFFFFFFFFFFFFF AND DUP2 MSTORE PUSH1 0x20 ADD SWAP1 DUP2 MSTORE PUSH1 0x20 ADD PUSH1 0x0 KECCAK256 SLOAD SWAP1 POP SWAP2 SWAP1 POP JUMP JUMPDEST PUSH1 0x0 PUSH1 0x20 MSTORE DUP1 PUSH1 0x0 MSTORE PUSH1 0x40 PUSH1 0x0 KECCAK256 PUSH1 0x0 SWAP2 POP SWAP1 POP SLOAD DUP2 JUMP JUMPDEST PUSH1 0x0 DUP1 PUSH1 0x0 DUP5 PUSH20 0xFFFFFFFFFFFFFFFFFFFFFFFFFFFFFFFFFFFFFFFF AND PUSH20 0xFFFFFFFFFFFFFFFFFFFFFFFFFFFFFFFFFFFFFFFF AND DUP2 MSTORE PUSH1 0x20 ADD SWAP1 DUP2 MSTORE PUSH1 0x20 ADD PUSH1 0x0 KECCAK256 SLOAD PUSH1 0x1 PUSH1 0x0 DUP6 PUSH20 0xFFFFFFFFFFFFFFFFFFFFFFFFFFFFFFFFFFFFFFFF AND PUSH20 0xFFFFFFFFFFFFFFFFFFFFFFFFFFFFFFFFFFFFFFFF AND DUP2 MSTORE PUSH1 0x20 ADD SWAP1 DUP2 MSTORE PUSH1 0x20 ADD PUSH1 0x0 KECCAK256 SLOAD DUP4 PUSH2 0x224 SWAP2 SWAP1 PUSH2 0x4A7 JUMP JUMPDEST PUSH2 0x22E SWAP2 SWAP1 PUSH2 0x4A7 JUMP JUMPDEST SWAP1 POP PUSH1 0x0 DUP2 GT PUSH2 0x273 JUMPI PUSH1 0x40 MLOAD PUSH32 0x8C379A000000000000000000000000000000000000000000000000000000000 DUP2 MSTORE PUSH1 0x4 ADD PUSH2 0x26A SWAP1 PUSH2 0x405 JUMP JUMPDEST PUSH1 0x40 MLOAD DUP1 SWAP2 SUB SWAP1 REVERT JUMPDEST PUSH2 0x27D DUP4 DUP3 PUSH2 0x2E3 JUMP JUMPDEST POP POP POP JUMP JUMPDEST PUSH1 0x1 PUSH1 0x20 MSTORE DUP1 PUSH1 0x0 MSTORE PUSH1 0x40 PUSH1 0x0 KECCAK256 PUSH1 0x0 SWAP2 POP SWAP1 POP SLOAD DUP2 JUMP JUMPDEST PUSH1 0x0 PUSH1 0x1 PUSH1 0x0 DUP4 PUSH20 0xFFFFFFFFFFFFFFFFFFFFFFFFFFFFFFFFFFFFFFFF AND PUSH20 0xFFFFFFFFFFFFFFFFFFFFFFFFFFFFFFFFFFFFFFFF AND DUP2 MSTORE PUSH1 0x20 ADD SWAP1 DUP2 MSTORE PUSH1 0x20 ADD PUSH1 0x0 KECCAK256 SLOAD SWAP1 POP SWAP2 SWAP1 POP JUMP JUMPDEST DUP1 PUSH1 0x0 DUP1 DUP5 PUSH20 0xFFFFFFFFFFFFFFFFFFFFFFFFFFFFFFFFFFFFFFFF AND PUSH20 0xFFFFFFFFFFFFFFFFFFFFFFFFFFFFFFFFFFFFFFFF AND DUP2 MSTORE PUSH1 0x20 ADD SWAP1 DUP2 MSTORE PUSH1 0x20 ADD PUSH1 0x0 KECCAK256 PUSH1 0x0 DUP3 DUP3 SLOAD PUSH2 0x331 SWAP2 SWAP1 PUSH2 0x451 JUMP JUMPDEST SWAP3 POP POP DUP2 SWAP1 SSTORE POP POP POP JUMP JUMPDEST PUSH1 0x0 DUP2 CALLDATALOAD SWAP1 POP PUSH2 0x34B DUP2 PUSH2 0x574 JUMP JUMPDEST SWAP3 SWAP2 POP POP JUMP JUMPDEST PUSH1 0x0 DUP2 CALLDATALOAD SWAP1 POP PUSH2 0x360 DUP2 PUSH2 0x58B JUMP JUMPDEST SWAP3 SWAP2 POP POP JUMP JUMPDEST PUSH1 0x0 PUSH1 0x20 DUP3 DUP5 SUB SLT ISZERO PUSH2 0x37C JUMPI PUSH2 0x37B PUSH2 0x546 JUMP JUMPDEST JUMPDEST PUSH1 0x0 PUSH2 0x38A DUP5 DUP3 DUP6 ADD PUSH2 0x33C JUMP JUMPDEST SWAP2 POP POP SWAP3 SWAP2 POP POP JUMP JUMPDEST PUSH1 0x0 DUP1 PUSH1 0x40 DUP4 DUP6 SUB SLT ISZERO PUSH2 0x3AA JUMPI PUSH2 0x3A9 PUSH2 0x546 JUMP JUMPDEST JUMPDEST PUSH1 0x0 PUSH2 0x3B8 DUP6 DUP3 DUP7 ADD PUSH2 0x33C JUMP JUMPDEST SWAP3 POP POP PUSH1 0x20 PUSH2 0x3C9 DUP6 DUP3 DUP7 ADD PUSH2 0x351 JUMP JUMPDEST SWAP2 POP POP SWAP3 POP SWAP3 SWAP1 POP JUMP JUMPDEST PUSH1 0x0 PUSH2 0x3E0 PUSH1 0x20 DUP4 PUSH2 0x440 JUMP JUMPDEST SWAP2 POP PUSH2 0x3EB DUP3 PUSH2 0x54B JUMP JUMPDEST PUSH1 0x20 DUP3 ADD SWAP1 POP SWAP2 SWAP1 POP JUMP JUMPDEST PUSH2 0x3FF DUP2 PUSH2 0x50D JUMP JUMPDEST DUP3 MSTORE POP POP JUMP JUMPDEST PUSH1 0x0 PUSH1 0x20 DUP3 ADD SWAP1 POP DUP2 DUP2 SUB PUSH1 0x0 DUP4 ADD MSTORE PUSH2 0x41E DUP2 PUSH2 0x3D3 JUMP JUMPDEST SWAP1 POP SWAP2 SWAP1 POP JUMP JUMPDEST PUSH1 0x0 PUSH1 0x20 DUP3 ADD SWAP1 POP PUSH2 0x43A PUSH1 0x0 DUP4 ADD DUP5 PUSH2 0x3F6 JUMP JUMPDEST SWAP3 SWAP2 POP POP JUMP JUMPDEST PUSH1 0x0 DUP3 DUP3 MSTORE PUSH1 0x20 DUP3 ADD SWAP1 POP SWAP3 SWAP2 POP POP JUMP JUMPDEST PUSH1 0x0 PUSH2 0x45C DUP3 PUSH2 0x50D JUMP JUMPDEST SWAP2 POP PUSH2 0x467 DUP4 PUSH2 0x50D JUMP JUMPDEST SWAP3 POP DUP3 PUSH32 0xFFFFFFFFFFFFFFFFFFFFFFFFFFFFFFFFFFFFFFFFFFFFFFFFFFFFFFFFFFFFFFFF SUB DUP3 GT ISZERO PUSH2 0x49C JUMPI PUSH2 0x49B PUSH2 0x517 JUMP JUMPDEST JUMPDEST DUP3 DUP3 ADD SWAP1 POP SWAP3 SWAP2 POP POP JUMP JUMPDEST PUSH1 0x0 PUSH2 0x4B2 DUP3 PUSH2 0x50D JUMP JUMPDEST SWAP2 POP PUSH2 0x4BD DUP4 PUSH2 0x50D JUMP JUMPDEST SWAP3 POP DUP3 DUP3 LT ISZERO PUSH2 0x4D0 JUMPI PUSH2 0x4CF PUSH2 0x517 JUMP JUMPDEST JUMPDEST DUP3 DUP3 SUB SWAP1 POP SWAP3 SWAP2 POP POP JUMP JUMPDEST PUSH1 0x0 PUSH2 0x4E6 DUP3 PUSH2 0x4ED JUMP JUMPDEST SWAP1 POP SWAP2 SWAP1 POP JUMP JUMPDEST PUSH1 0x0 PUSH20 0xFFFFFFFFFFFFFFFFFFFFFFFFFFFFFFFFFFFFFFFF DUP3 AND SWAP1 POP SWAP2 SWAP1 POP JUMP JUMPDEST PUSH1 0x0 DUP2 SWAP1 POP SWAP2 SWAP1 POP JUMP JUMPDEST PUSH32 0x4E487B7100000000000000000000000000000000000000000000000000000000 PUSH1 0x0 MSTORE PUSH1 0x11 PUSH1 0x4 MSTORE PUSH1 0x24 PUSH1 0x0 REVERT JUMPDEST PUSH1 0x0 DUP1 REVERT JUMPDEST PUSH32 0x636C61696D61626C65206D7573742062652067726561746572207468616E2030 PUSH1 0x0 DUP3 ADD MSTORE POP JUMP JUMPDEST PUSH2 0x57D DUP2 PUSH2 0x4DB JUMP JUMPDEST DUP2 EQ PUSH2 0x588 JUMPI PUSH1 0x0 DUP1 REVERT JUMPDEST POP JUMP JUMPDEST PUSH2 0x594 DUP2 PUSH2 0x50D JUMP JUMPDEST DUP2 EQ PUSH2 0x59F JUMPI PUSH1 0x0 DUP1 REVERT JUMPDEST POP JUMP INVALID LOG2 PUSH5 0x6970667358 0x22 SLT KECCAK256 LOG0 DUP16 0xBC LOG1 BASEFEE 0xE3 0xC6 0xCB LOG4 SWAP4 0xE0 0x5D DIFFICULTY 0xDB 0x2E 0xDC 0xE9 SWAP11 MSTORE8 MSIZE 0xD7 0xF6 0xB7 0xB4 SWAP2 0xAA MSTORE8 PUSH8 0xE90484F064736F6C PUSH4 0x43000807 STOP CALLER "
				},
				"gasEstimates": {
					"creation": {
						"codeDepositCost": "299200",
						"executionCost": "337",
						"totalCost": "299537"
					},
					"external": {
						"claimed(address)": "2858",
						"createClaimable(address,uint256)": "infinite",
						"getClaimed(address)": "2907",
						"getUnclaimed(address)": "2819",
						"unclaimed(address)": "2814"
					},
					"internal": {
						"setClaimed(address,uint256)": "infinite",
						"setUnclaimed(address,uint256)": "infinite"
					}
				},
				"methodIdentifiers": {
					"claimed(address)": "c884ef83",
					"createClaimable(address,uint256)": "8a9db765",
					"getClaimed(address)": "eb46260e",
					"getUnclaimed(address)": "3ab1ced1",
					"unclaimed(address)": "505bd3da"
				}
			},
			"userdoc": {
				"kind": "user",
				"methods": {},
				"version": 1
			}
		}
	}
}