{
	"contracts/Token.sol": {
		"FooToken": {
			"abi": [
				{
					"inputs": [],
					"stateMutability": "nonpayable",
					"type": "constructor"
				},
				{
					"anonymous": false,
					"inputs": [
						{
							"indexed": true,
							"internalType": "address",
							"name": "owner",
							"type": "address"
						},
						{
							"indexed": true,
							"internalType": "address",
							"name": "spender",
							"type": "address"
						},
						{
							"indexed": false,
							"internalType": "uint256",
							"name": "value",
							"type": "uint256"
						}
					],
					"name": "Approval",
					"type": "event"
				},
				{
					"anonymous": false,
					"inputs": [
						{
							"indexed": true,
							"internalType": "bytes32",
							"name": "role",
							"type": "bytes32"
						},
						{
							"indexed": true,
							"internalType": "bytes32",
							"name": "previousAdminRole",
							"type": "bytes32"
						},
						{
							"indexed": true,
							"internalType": "bytes32",
							"name": "newAdminRole",
							"type": "bytes32"
						}
					],
					"name": "RoleAdminChanged",
					"type": "event"
				},
				{
					"anonymous": false,
					"inputs": [
						{
							"indexed": true,
							"internalType": "bytes32",
							"name": "role",
							"type": "bytes32"
						},
						{
							"indexed": true,
							"internalType": "address",
							"name": "account",
							"type": "address"
						},
						{
							"indexed": true,
							"internalType": "address",
							"name": "sender",
							"type": "address"
						}
					],
					"name": "RoleGranted",
					"type": "event"
				},
				{
					"anonymous": false,
					"inputs": [
						{
							"indexed": true,
							"internalType": "bytes32",
							"name": "role",
							"type": "bytes32"
						},
						{
							"indexed": true,
							"internalType": "address",
							"name": "account",
							"type": "address"
						},
						{
							"indexed": true,
							"internalType": "address",
							"name": "sender",
							"type": "address"
						}
					],
					"name": "RoleRevoked",
					"type": "event"
				},
				{
					"anonymous": false,
					"inputs": [
						{
							"indexed": true,
							"internalType": "address",
							"name": "from",
							"type": "address"
						},
						{
							"indexed": true,
							"internalType": "address",
							"name": "to",
							"type": "address"
						},
						{
							"indexed": false,
							"internalType": "uint256",
							"name": "value",
							"type": "uint256"
						}
					],
					"name": "Transfer",
					"type": "event"
				},
				{
					"inputs": [],
					"name": "BURNER_ROLE",
					"outputs": [
						{
							"internalType": "bytes32",
							"name": "",
							"type": "bytes32"
						}
					],
					"stateMutability": "view",
					"type": "function"
				},
				{
					"inputs": [],
					"name": "DEFAULT_ADMIN_ROLE",
					"outputs": [
						{
							"internalType": "bytes32",
							"name": "",
							"type": "bytes32"
						}
					],
					"stateMutability": "view",
					"type": "function"
				},
				{
					"inputs": [],
					"name": "REWARDER_ROLE",
					"outputs": [
						{
							"internalType": "bytes32",
							"name": "",
							"type": "bytes32"
						}
					],
					"stateMutability": "view",
					"type": "function"
				},
				{
					"inputs": [
						{
							"internalType": "address",
							"name": "owner",
							"type": "address"
						},
						{
							"internalType": "address",
							"name": "spender",
							"type": "address"
						}
					],
					"name": "allowance",
					"outputs": [
						{
							"internalType": "uint256",
							"name": "",
							"type": "uint256"
						}
					],
					"stateMutability": "view",
					"type": "function"
				},
				{
					"inputs": [
						{
							"internalType": "address",
							"name": "spender",
							"type": "address"
						},
						{
							"internalType": "uint256",
							"name": "amount",
							"type": "uint256"
						}
					],
					"name": "approve",
					"outputs": [
						{
							"internalType": "bool",
							"name": "",
							"type": "bool"
						}
					],
					"stateMutability": "nonpayable",
					"type": "function"
				},
				{
					"inputs": [
						{
							"internalType": "address",
							"name": "account",
							"type": "address"
						}
					],
					"name": "balanceOf",
					"outputs": [
						{
							"internalType": "uint256",
							"name": "",
							"type": "uint256"
						}
					],
					"stateMutability": "view",
					"type": "function"
				},
				{
					"inputs": [
						{
							"internalType": "address",
							"name": "from",
							"type": "address"
						},
						{
							"internalType": "uint256",
							"name": "amount",
							"type": "uint256"
						}
					],
					"name": "burn",
					"outputs": [],
					"stateMutability": "nonpayable",
					"type": "function"
				},
				{
					"inputs": [],
					"name": "claim",
					"outputs": [],
					"stateMutability": "payable",
					"type": "function"
				},
				{
					"inputs": [
						{
							"internalType": "address",
							"name": "",
							"type": "address"
						}
					],
					"name": "claimed",
					"outputs": [
						{
							"internalType": "uint256",
							"name": "",
							"type": "uint256"
						}
					],
					"stateMutability": "view",
					"type": "function"
				},
				{
					"inputs": [
						{
							"internalType": "address",
							"name": "_account",
							"type": "address"
						},
						{
							"internalType": "uint256",
							"name": "_amount",
							"type": "uint256"
						}
					],
					"name": "createClaimable",
					"outputs": [],
					"stateMutability": "nonpayable",
					"type": "function"
				},
				{
					"inputs": [],
					"name": "decimals",
					"outputs": [
						{
							"internalType": "uint8",
							"name": "",
							"type": "uint8"
						}
					],
					"stateMutability": "view",
					"type": "function"
				},
				{
					"inputs": [
						{
							"internalType": "address",
							"name": "spender",
							"type": "address"
						},
						{
							"internalType": "uint256",
							"name": "subtractedValue",
							"type": "uint256"
						}
					],
					"name": "decreaseAllowance",
					"outputs": [
						{
							"internalType": "bool",
							"name": "",
							"type": "bool"
						}
					],
					"stateMutability": "nonpayable",
					"type": "function"
				},
				{
					"inputs": [
						{
							"internalType": "bytes32",
							"name": "role",
							"type": "bytes32"
						}
					],
					"name": "getRoleAdmin",
					"outputs": [
						{
							"internalType": "bytes32",
							"name": "",
							"type": "bytes32"
						}
					],
					"stateMutability": "view",
					"type": "function"
				},
				{
					"inputs": [
						{
							"internalType": "bytes32",
							"name": "role",
							"type": "bytes32"
						},
						{
							"internalType": "address",
							"name": "account",
							"type": "address"
						}
					],
					"name": "grantRole",
					"outputs": [],
					"stateMutability": "nonpayable",
					"type": "function"
				},
				{
					"inputs": [
						{
							"internalType": "bytes32",
							"name": "role",
							"type": "bytes32"
						},
						{
							"internalType": "address",
							"name": "account",
							"type": "address"
						}
					],
					"name": "hasRole",
					"outputs": [
						{
							"internalType": "bool",
							"name": "",
							"type": "bool"
						}
					],
					"stateMutability": "view",
					"type": "function"
				},
				{
					"inputs": [
						{
							"internalType": "address",
							"name": "spender",
							"type": "address"
						},
						{
							"internalType": "uint256",
							"name": "addedValue",
							"type": "uint256"
						}
					],
					"name": "increaseAllowance",
					"outputs": [
						{
							"internalType": "bool",
							"name": "",
							"type": "bool"
						}
					],
					"stateMutability": "nonpayable",
					"type": "function"
				},
				{
					"inputs": [],
					"name": "maxSupply",
					"outputs": [
						{
							"internalType": "uint256",
							"name": "",
							"type": "uint256"
						}
					],
					"stateMutability": "view",
					"type": "function"
				},
				{
					"inputs": [
						{
							"internalType": "uint256",
							"name": "a",
							"type": "uint256"
						},
						{
							"internalType": "uint256",
							"name": "b",
							"type": "uint256"
						}
					],
					"name": "min",
					"outputs": [
						{
							"internalType": "uint256",
							"name": "",
							"type": "uint256"
						}
					],
					"stateMutability": "pure",
					"type": "function"
				},
				{
					"inputs": [],
					"name": "mintedAmt",
					"outputs": [
						{
							"internalType": "uint256",
							"name": "",
							"type": "uint256"
						}
					],
					"stateMutability": "view",
					"type": "function"
				},
				{
					"inputs": [],
					"name": "name",
					"outputs": [
						{
							"internalType": "string",
							"name": "",
							"type": "string"
						}
					],
					"stateMutability": "view",
					"type": "function"
				},
				{
					"inputs": [
						{
							"internalType": "address",
							"name": "_account",
							"type": "address"
						},
						{
							"internalType": "uint256",
							"name": "_amount",
							"type": "uint256"
						}
					],
					"name": "removeClaimable",
					"outputs": [],
					"stateMutability": "nonpayable",
					"type": "function"
				},
				{
					"inputs": [
						{
							"internalType": "bytes32",
							"name": "role",
							"type": "bytes32"
						},
						{
							"internalType": "address",
							"name": "account",
							"type": "address"
						}
					],
					"name": "renounceRole",
					"outputs": [],
					"stateMutability": "nonpayable",
					"type": "function"
				},
				{
					"inputs": [
						{
							"internalType": "bytes32",
							"name": "role",
							"type": "bytes32"
						},
						{
							"internalType": "address",
							"name": "account",
							"type": "address"
						}
					],
					"name": "revokeRole",
					"outputs": [],
					"stateMutability": "nonpayable",
					"type": "function"
				},
				{
					"inputs": [
						{
							"internalType": "bytes4",
							"name": "interfaceId",
							"type": "bytes4"
						}
					],
					"name": "supportsInterface",
					"outputs": [
						{
							"internalType": "bool",
							"name": "",
							"type": "bool"
						}
					],
					"stateMutability": "view",
					"type": "function"
				},
				{
					"inputs": [],
					"name": "symbol",
					"outputs": [
						{
							"internalType": "string",
							"name": "",
							"type": "string"
						}
					],
					"stateMutability": "view",
					"type": "function"
				},
				{
					"inputs": [],
					"name": "totalSupply",
					"outputs": [
						{
							"internalType": "uint256",
							"name": "",
							"type": "uint256"
						}
					],
					"stateMutability": "view",
					"type": "function"
				},
				{
					"inputs": [
						{
							"internalType": "address",
							"name": "to",
							"type": "address"
						},
						{
							"internalType": "uint256",
							"name": "amount",
							"type": "uint256"
						}
					],
					"name": "transfer",
					"outputs": [
						{
							"internalType": "bool",
							"name": "",
							"type": "bool"
						}
					],
					"stateMutability": "nonpayable",
					"type": "function"
				},
				{
					"inputs": [
						{
							"internalType": "address",
							"name": "from",
							"type": "address"
						},
						{
							"internalType": "address",
							"name": "to",
							"type": "address"
						},
						{
							"internalType": "uint256",
							"name": "amount",
							"type": "uint256"
						}
					],
					"name": "transferFrom",
					"outputs": [
						{
							"internalType": "bool",
							"name": "",
							"type": "bool"
						}
					],
					"stateMutability": "nonpayable",
					"type": "function"
				},
				{
					"inputs": [
						{
							"internalType": "address",
							"name": "",
							"type": "address"
						}
					],
					"name": "unclaimed",
					"outputs": [
						{
							"internalType": "uint256",
							"name": "",
							"type": "uint256"
						}
					],
					"stateMutability": "view",
					"type": "function"
				}
			],
			"devdoc": {
				"kind": "dev",
				"methods": {
					"allowance(address,address)": {
						"details": "See {IERC20-allowance}."
					},
					"approve(address,uint256)": {
						"details": "See {IERC20-approve}. NOTE: If `amount` is the maximum `uint256`, the allowance is not updated on `transferFrom`. This is semantically equivalent to an infinite approval. Requirements: - `spender` cannot be the zero address."
					},
					"balanceOf(address)": {
						"details": "See {IERC20-balanceOf}."
					},
					"claim()": {
						"details": "Transfer unclaimed value"
					},
					"createClaimable(address,uint256)": {
						"details": "Store value in address mapped with unclaimed amounts using virtual amount (offchain value)",
						"params": {
							"_account": "account with value stored",
							"_amount": "value from offchain"
						}
					},
					"decimals()": {
						"details": "Returns the number of decimals used to get its user representation. For example, if `decimals` equals `2`, a balance of `505` tokens should be displayed to a user as `5.05` (`505 / 10 ** 2`). Tokens usually opt for a value of 18, imitating the relationship between Ether and Wei. This is the value {ERC20} uses, unless this function is overridden; NOTE: This information is only used for _display_ purposes: it in no way affects any of the arithmetic of the contract, including {IERC20-balanceOf} and {IERC20-transfer}."
					},
					"decreaseAllowance(address,uint256)": {
						"details": "Atomically decreases the allowance granted to `spender` by the caller. This is an alternative to {approve} that can be used as a mitigation for problems described in {IERC20-approve}. Emits an {Approval} event indicating the updated allowance. Requirements: - `spender` cannot be the zero address. - `spender` must have allowance for the caller of at least `subtractedValue`."
					},
					"getRoleAdmin(bytes32)": {
						"details": "Returns the admin role that controls `role`. See {grantRole} and {revokeRole}. To change a role's admin, use {_setRoleAdmin}."
					},
					"grantRole(bytes32,address)": {
						"details": "Grants `role` to `account`. If `account` had not been already granted `role`, emits a {RoleGranted} event. Requirements: - the caller must have ``role``'s admin role."
					},
					"hasRole(bytes32,address)": {
						"details": "Returns `true` if `account` has been granted `role`."
					},
					"increaseAllowance(address,uint256)": {
						"details": "Atomically increases the allowance granted to `spender` by the caller. This is an alternative to {approve} that can be used as a mitigation for problems described in {IERC20-approve}. Emits an {Approval} event indicating the updated allowance. Requirements: - `spender` cannot be the zero address."
					},
					"name()": {
						"details": "Returns the name of the token."
					},
					"removeClaimable(address,uint256)": {
						"details": "Remove value in address mapped with unclaimed amounts using virtual amount (offchain value)",
						"params": {
							"_account": "account with value stored",
							"_amount": "value to remove"
						}
					},
					"renounceRole(bytes32,address)": {
						"details": "Revokes `role` from the calling account. Roles are often managed via {grantRole} and {revokeRole}: this function's purpose is to provide a mechanism for accounts to lose their privileges if they are compromised (such as when a trusted device is misplaced). If the calling account had been revoked `role`, emits a {RoleRevoked} event. Requirements: - the caller must be `account`."
					},
					"revokeRole(bytes32,address)": {
						"details": "Revokes `role` from `account`. If `account` had been granted `role`, emits a {RoleRevoked} event. Requirements: - the caller must have ``role``'s admin role."
					},
					"supportsInterface(bytes4)": {
						"details": "See {IERC165-supportsInterface}."
					},
					"symbol()": {
						"details": "Returns the symbol of the token, usually a shorter version of the name."
					},
					"totalSupply()": {
						"details": "See {IERC20-totalSupply}."
					},
					"transfer(address,uint256)": {
						"details": "See {IERC20-transfer}. Requirements: - `to` cannot be the zero address. - the caller must have a balance of at least `amount`."
					},
					"transferFrom(address,address,uint256)": {
						"details": "See {IERC20-transferFrom}. Emits an {Approval} event indicating the updated allowance. This is not required by the EIP. See the note at the beginning of {ERC20}. NOTE: Does not update the allowance if the current allowance is the maximum `uint256`. Requirements: - `from` and `to` cannot be the zero address. - `from` must have a balance of at least `amount`. - the caller must have allowance for ``from``'s tokens of at least `amount`."
					}
				},
				"version": 1
			},
			"evm": {
				"assembly": "    /* \"contracts/Token.sol\":207:2387  contract FooToken is ERC20, AccessControl, Claim {... */\n  mstore(0x40, 0x80)\n    /* \"contracts/Token.sol\":491:590  constructor() ERC20('Foo Token', 'FOO') {... */\n  callvalue\n  dup1\n  iszero\n  tag_1\n  jumpi\n  0x00\n  dup1\n  revert\ntag_1:\n  pop\n    /* \"@openzeppelin/contracts/token/ERC20/ERC20.sol\":1978:2091  constructor(string memory name_, string memory symbol_) {... */\n  mload(0x40)\n  dup1\n  0x40\n  add\n  0x40\n  mstore\n  dup1\n  0x09\n  dup2\n  mstore\n  0x20\n  add\n  0x466f6f20546f6b656e0000000000000000000000000000000000000000000000\n  dup2\n  mstore\n  pop\n  mload(0x40)\n  dup1\n  0x40\n  add\n  0x40\n  mstore\n  dup1\n  0x03\n  dup2\n  mstore\n  0x20\n  add\n  0x464f4f0000000000000000000000000000000000000000000000000000000000\n  dup2\n  mstore\n  pop\n    /* \"@openzeppelin/contracts/token/ERC20/ERC20.sol\":2052:2057  name_ */\n  dup2\n    /* \"@openzeppelin/contracts/token/ERC20/ERC20.sol\":2044:2049  _name */\n  0x03\n    /* \"@openzeppelin/contracts/token/ERC20/ERC20.sol\":2044:2057  _name = name_ */\n  swap1\n  dup1\n  mload\n  swap1\n  0x20\n  add\n  swap1\n  tag_5\n  swap3\n  swap2\n  swap1\n  tag_6\n  jump\t// in\ntag_5:\n  pop\n    /* \"@openzeppelin/contracts/token/ERC20/ERC20.sol\":2077:2084  symbol_ */\n  dup1\n    /* \"@openzeppelin/contracts/token/ERC20/ERC20.sol\":2067:2074  _symbol */\n  0x04\n    /* \"@openzeppelin/contracts/token/ERC20/ERC20.sol\":2067:2084  _symbol = symbol_ */\n  swap1\n  dup1\n  mload\n  swap1\n  0x20\n  add\n  swap1\n  tag_7\n  swap3\n  swap2\n  swap1\n  tag_6\n  jump\t// in\ntag_7:\n  pop\n    /* \"@openzeppelin/contracts/token/ERC20/ERC20.sol\":1978:2091  constructor(string memory name_, string memory symbol_) {... */\n  pop\n  pop\n    /* \"contracts/Token.sol\":541:583  _setupRole(DEFAULT_ADMIN_ROLE, msg.sender) */\n  tag_9\n    /* \"@openzeppelin/contracts/access/AccessControl.sol\":2072:2076  0x00 */\n  0x00\n    /* \"contracts/Token.sol\":552:570  DEFAULT_ADMIN_ROLE */\n  dup1\n  shl\n    /* \"contracts/Token.sol\":572:582  msg.sender */\n  caller\n    /* \"contracts/Token.sol\":541:551  _setupRole */\n  shl(0x20, tag_10)\n    /* \"contracts/Token.sol\":541:583  _setupRole(DEFAULT_ADMIN_ROLE, msg.sender) */\n  0x20\n  shr\n  jump\t// in\ntag_9:\n    /* \"contracts/Token.sol\":207:2387  contract FooToken is ERC20, AccessControl, Claim {... */\n  jump(tag_11)\n    /* \"@openzeppelin/contracts/access/AccessControl.sol\":6257:6367  function _setupRole(bytes32 role, address account) internal virtual {... */\ntag_10:\n    /* \"@openzeppelin/contracts/access/AccessControl.sol\":6335:6360  _grantRole(role, account) */\n  tag_13\n    /* \"@openzeppelin/contracts/access/AccessControl.sol\":6346:6350  role */\n  dup3\n    /* \"@openzeppelin/contracts/access/AccessControl.sol\":6352:6359  account */\n  dup3\n    /* \"@openzeppelin/contracts/access/AccessControl.sol\":6335:6345  _grantRole */\n  shl(0x20, tag_14)\n    /* \"@openzeppelin/contracts/access/AccessControl.sol\":6335:6360  _grantRole(role, account) */\n  0x20\n  shr\n  jump\t// in\ntag_13:\n    /* \"@openzeppelin/contracts/access/AccessControl.sol\":6257:6367  function _setupRole(bytes32 role, address account) internal virtual {... */\n  pop\n  pop\n  jump\t// out\n    /* \"@openzeppelin/contracts/access/AccessControl.sol\":6861:7094  function _grantRole(bytes32 role, address account) internal virtual {... */\ntag_14:\n    /* \"@openzeppelin/contracts/access/AccessControl.sol\":6944:6966  hasRole(role, account) */\n  tag_16\n    /* \"@openzeppelin/contracts/access/AccessControl.sol\":6952:6956  role */\n  dup3\n    /* \"@openzeppelin/contracts/access/AccessControl.sol\":6958:6965  account */\n  dup3\n    /* \"@openzeppelin/contracts/access/AccessControl.sol\":6944:6951  hasRole */\n  shl(0x20, tag_17)\n    /* \"@openzeppelin/contracts/access/AccessControl.sol\":6944:6966  hasRole(role, account) */\n  0x20\n  shr\n  jump\t// in\ntag_16:\n    /* \"@openzeppelin/contracts/access/AccessControl.sol\":6939:7088  if (!hasRole(role, account)) {... */\n  tag_18\n  jumpi\n    /* \"@openzeppelin/contracts/access/AccessControl.sol\":7014:7018  true */\n  0x01\n    /* \"@openzeppelin/contracts/access/AccessControl.sol\":6982:6988  _roles */\n  0x05\n    /* \"@openzeppelin/contracts/access/AccessControl.sol\":6982:6994  _roles[role] */\n  0x00\n    /* \"@openzeppelin/contracts/access/AccessControl.sol\":6989:6993  role */\n  dup5\n    /* \"@openzeppelin/contracts/access/AccessControl.sol\":6982:6994  _roles[role] */\n  dup2\n  mstore\n  0x20\n  add\n  swap1\n  dup2\n  mstore\n  0x20\n  add\n  0x00\n  keccak256\n    /* \"@openzeppelin/contracts/access/AccessControl.sol\":6982:7002  _roles[role].members */\n  0x00\n  add\n    /* \"@openzeppelin/contracts/access/AccessControl.sol\":6982:7011  _roles[role].members[account] */\n  0x00\n    /* \"@openzeppelin/contracts/access/AccessControl.sol\":7003:7010  account */\n  dup4\n    /* \"@openzeppelin/contracts/access/AccessControl.sol\":6982:7011  _roles[role].members[account] */\n  0xffffffffffffffffffffffffffffffffffffffff\n  and\n  0xffffffffffffffffffffffffffffffffffffffff\n  and\n  dup2\n  mstore\n  0x20\n  add\n  swap1\n  dup2\n  mstore\n  0x20\n  add\n  0x00\n  keccak256\n  0x00\n    /* \"@openzeppelin/contracts/access/AccessControl.sol\":6982:7018  _roles[role].members[account] = true */\n  0x0100\n  exp\n  dup2\n  sload\n  dup2\n  0xff\n  mul\n  not\n  and\n  swap1\n  dup4\n  iszero\n  iszero\n  mul\n  or\n  swap1\n  sstore\n  pop\n    /* \"@openzeppelin/contracts/access/AccessControl.sol\":7064:7076  _msgSender() */\n  tag_19\n    /* \"@openzeppelin/contracts/access/AccessControl.sol\":7064:7074  _msgSender */\n  shl(0x20, tag_20)\n    /* \"@openzeppelin/contracts/access/AccessControl.sol\":7064:7076  _msgSender() */\n  0x20\n  shr\n  jump\t// in\ntag_19:\n    /* \"@openzeppelin/contracts/access/AccessControl.sol\":7037:7077  RoleGranted(role, account, _msgSender()) */\n  0xffffffffffffffffffffffffffffffffffffffff\n  and\n    /* \"@openzeppelin/contracts/access/AccessControl.sol\":7055:7062  account */\n  dup2\n    /* \"@openzeppelin/contracts/access/AccessControl.sol\":7037:7077  RoleGranted(role, account, _msgSender()) */\n  0xffffffffffffffffffffffffffffffffffffffff\n  and\n    /* \"@openzeppelin/contracts/access/AccessControl.sol\":7049:7053  role */\n  dup4\n    /* \"@openzeppelin/contracts/access/AccessControl.sol\":7037:7077  RoleGranted(role, account, _msgSender()) */\n  0x2f8788117e7eff1d82e926ec794901d17c78024a50270940304540a733656f0d\n  mload(0x40)\n  mload(0x40)\n  dup1\n  swap2\n  sub\n  swap1\n  log4\n    /* \"@openzeppelin/contracts/access/AccessControl.sol\":6939:7088  if (!hasRole(role, account)) {... */\ntag_18:\n    /* \"@openzeppelin/contracts/access/AccessControl.sol\":6861:7094  function _grantRole(bytes32 role, address account) internal virtual {... */\n  pop\n  pop\n  jump\t// out\n    /* \"@openzeppelin/contracts/access/AccessControl.sol\":2909:3054  function hasRole(bytes32 role, address account) public view virtual override returns (bool) {... */\ntag_17:\n    /* \"@openzeppelin/contracts/access/AccessControl.sol\":2995:2999  bool */\n  0x00\n    /* \"@openzeppelin/contracts/access/AccessControl.sol\":3018:3024  _roles */\n  0x05\n    /* \"@openzeppelin/contracts/access/AccessControl.sol\":3018:3030  _roles[role] */\n  0x00\n    /* \"@openzeppelin/contracts/access/AccessControl.sol\":3025:3029  role */\n  dup5\n    /* \"@openzeppelin/contracts/access/AccessControl.sol\":3018:3030  _roles[role] */\n  dup2\n  mstore\n  0x20\n  add\n  swap1\n  dup2\n  mstore\n  0x20\n  add\n  0x00\n  keccak256\n    /* \"@openzeppelin/contracts/access/AccessControl.sol\":3018:3038  _roles[role].members */\n  0x00\n  add\n    /* \"@openzeppelin/contracts/access/AccessControl.sol\":3018:3047  _roles[role].members[account] */\n  0x00\n    /* \"@openzeppelin/contracts/access/AccessControl.sol\":3039:3046  account */\n  dup4\n    /* \"@openzeppelin/contracts/access/AccessControl.sol\":3018:3047  _roles[role].members[account] */\n  0xffffffffffffffffffffffffffffffffffffffff\n  and\n  0xffffffffffffffffffffffffffffffffffffffff\n  and\n  dup2\n  mstore\n  0x20\n  add\n  swap1\n  dup2\n  mstore\n  0x20\n  add\n  0x00\n  keccak256\n  0x00\n  swap1\n  sload\n  swap1\n  0x0100\n  exp\n  swap1\n  div\n  0xff\n  and\n    /* \"@openzeppelin/contracts/access/AccessControl.sol\":3011:3047  return _roles[role].members[account] */\n  swap1\n  pop\n    /* \"@openzeppelin/contracts/access/AccessControl.sol\":2909:3054  function hasRole(bytes32 role, address account) public view virtual override returns (bool) {... */\n  swap3\n  swap2\n  pop\n  pop\n  jump\t// out\n    /* \"@openzeppelin/contracts/utils/Context.sol\":640:736  function _msgSender() internal view virtual returns (address) {... */\ntag_20:\n    /* \"@openzeppelin/contracts/utils/Context.sol\":693:700  address */\n  0x00\n    /* \"@openzeppelin/contracts/utils/Context.sol\":719:729  msg.sender */\n  caller\n    /* \"@openzeppelin/contracts/utils/Context.sol\":712:729  return msg.sender */\n  swap1\n  pop\n    /* \"@openzeppelin/contracts/utils/Context.sol\":640:736  function _msgSender() internal view virtual returns (address) {... */\n  swap1\n  jump\t// out\n    /* \"contracts/Token.sol\":207:2387  contract FooToken is ERC20, AccessControl, Claim {... */\ntag_6:\n  dup3\n  dup1\n  sload\n  tag_23\n  swap1\n  tag_24\n  jump\t// in\ntag_23:\n  swap1\n  0x00\n  mstore\n  keccak256(0x00, 0x20)\n  swap1\n  0x1f\n  add\n  0x20\n  swap1\n  div\n  dup2\n  add\n  swap3\n  dup3\n  tag_26\n  jumpi\n  0x00\n  dup6\n  sstore\n  jump(tag_25)\ntag_26:\n  dup3\n  0x1f\n  lt\n  tag_27\n  jumpi\n  dup1\n  mload\n  not(0xff)\n  and\n  dup4\n  dup1\n  add\n  or\n  dup6\n  sstore\n  jump(tag_25)\ntag_27:\n  dup3\n  dup1\n  add\n  0x01\n  add\n  dup6\n  sstore\n  dup3\n  iszero\n  tag_25\n  jumpi\n  swap2\n  dup3\n  add\ntag_28:\n  dup3\n  dup2\n  gt\n  iszero\n  tag_29\n  jumpi\n  dup3\n  mload\n  dup3\n  sstore\n  swap2\n  0x20\n  add\n  swap2\n  swap1\n  0x01\n  add\n  swap1\n  jump(tag_28)\ntag_29:\ntag_25:\n  pop\n  swap1\n  pop\n  tag_30\n  swap2\n  swap1\n  tag_31\n  jump\t// in\ntag_30:\n  pop\n  swap1\n  jump\t// out\ntag_31:\ntag_32:\n  dup1\n  dup3\n  gt\n  iszero\n  tag_33\n  jumpi\n  0x00\n  dup2\n  0x00\n  swap1\n  sstore\n  pop\n  0x01\n  add\n  jump(tag_32)\ntag_33:\n  pop\n  swap1\n  jump\t// out\n    /* \"#utility.yul\":7:327   */\ntag_24:\n    /* \"#utility.yul\":51:57   */\n  0x00\n    /* \"#utility.yul\":88:89   */\n  0x02\n    /* \"#utility.yul\":82:86   */\n  dup3\n    /* \"#utility.yul\":78:90   */\n  div\n    /* \"#utility.yul\":68:90   */\n  swap1\n  pop\n    /* \"#utility.yul\":135:136   */\n  0x01\n    /* \"#utility.yul\":129:133   */\n  dup3\n    /* \"#utility.yul\":125:137   */\n  and\n    /* \"#utility.yul\":156:174   */\n  dup1\n    /* \"#utility.yul\":146:227   */\n  tag_36\n  jumpi\n    /* \"#utility.yul\":212:216   */\n  0x7f\n    /* \"#utility.yul\":204:210   */\n  dup3\n    /* \"#utility.yul\":200:217   */\n  and\n    /* \"#utility.yul\":190:217   */\n  swap2\n  pop\n    /* \"#utility.yul\":146:227   */\ntag_36:\n    /* \"#utility.yul\":274:276   */\n  0x20\n    /* \"#utility.yul\":266:272   */\n  dup3\n    /* \"#utility.yul\":263:277   */\n  lt\n    /* \"#utility.yul\":243:261   */\n  dup2\n    /* \"#utility.yul\":240:278   */\n  eq\n    /* \"#utility.yul\":237:321   */\n  iszero\n  tag_37\n  jumpi\n    /* \"#utility.yul\":293:311   */\n  tag_38\n  tag_39\n  jump\t// in\ntag_38:\n    /* \"#utility.yul\":237:321   */\ntag_37:\n    /* \"#utility.yul\":58:327   */\n  pop\n    /* \"#utility.yul\":7:327   */\n  swap2\n  swap1\n  pop\n  jump\t// out\n    /* \"#utility.yul\":333:513   */\ntag_39:\n    /* \"#utility.yul\":381:458   */\n  0x4e487b7100000000000000000000000000000000000000000000000000000000\n    /* \"#utility.yul\":378:379   */\n  0x00\n    /* \"#utility.yul\":371:459   */\n  mstore\n    /* \"#utility.yul\":478:482   */\n  0x22\n    /* \"#utility.yul\":475:476   */\n  0x04\n    /* \"#utility.yul\":468:483   */\n  mstore\n    /* \"#utility.yul\":502:506   */\n  0x24\n    /* \"#utility.yul\":499:500   */\n  0x00\n    /* \"#utility.yul\":492:507   */\n  revert\n    /* \"contracts/Token.sol\":207:2387  contract FooToken is ERC20, AccessControl, Claim {... */\ntag_11:\n  dataSize(sub_0)\n  dup1\n  dataOffset(sub_0)\n  0x00\n  codecopy\n  0x00\n  return\nstop\n\nsub_0: assembly {\n        /* \"contracts/Token.sol\":207:2387  contract FooToken is ERC20, AccessControl, Claim {... */\n      mstore(0x40, 0x80)\n      jumpi(tag_1, lt(calldatasize, 0x04))\n      shr(0xe0, calldataload(0x00))\n      dup1\n      0x70a08231\n      gt\n      tag_31\n      jumpi\n      dup1\n      0xa217fddf\n      gt\n      tag_32\n      jumpi\n      dup1\n      0xd547741f\n      gt\n      tag_33\n      jumpi\n      dup1\n      0xd547741f\n      eq\n      tag_27\n      jumpi\n      dup1\n      0xd5abeb01\n      eq\n      tag_28\n      jumpi\n      dup1\n      0xdd62ed3e\n      eq\n      tag_29\n      jumpi\n      dup1\n      0xe5b7f305\n      eq\n      tag_30\n      jumpi\n      jump(tag_1)\n    tag_33:\n      dup1\n      0xa217fddf\n      eq\n      tag_23\n      jumpi\n      dup1\n      0xa457c2d7\n      eq\n      tag_24\n      jumpi\n      dup1\n      0xa9059cbb\n      eq\n      tag_25\n      jumpi\n      dup1\n      0xc884ef83\n      eq\n      tag_26\n      jumpi\n      jump(tag_1)\n    tag_32:\n      dup1\n      0x8a9db765\n      gt\n      tag_34\n      jumpi\n      dup1\n      0x8a9db765\n      eq\n      tag_19\n      jumpi\n      dup1\n      0x91d14854\n      eq\n      tag_20\n      jumpi\n      dup1\n      0x95d89b41\n      eq\n      tag_21\n      jumpi\n      dup1\n      0x9dc29fac\n      eq\n      tag_22\n      jumpi\n      jump(tag_1)\n    tag_34:\n      dup1\n      0x70a08231\n      eq\n      tag_16\n      jumpi\n      dup1\n      0x7ae2b5c7\n      eq\n      tag_17\n      jumpi\n      dup1\n      0x8580cf76\n      eq\n      tag_18\n      jumpi\n      jump(tag_1)\n    tag_31:\n      dup1\n      0x282c51f3\n      gt\n      tag_35\n      jumpi\n      dup1\n      0x36568abe\n      gt\n      tag_36\n      jumpi\n      dup1\n      0x36568abe\n      eq\n      tag_12\n      jumpi\n      dup1\n      0x39509351\n      eq\n      tag_13\n      jumpi\n      dup1\n      0x4e71d92d\n      eq\n      tag_14\n      jumpi\n      dup1\n      0x505bd3da\n      eq\n      tag_15\n      jumpi\n      jump(tag_1)\n    tag_36:\n      dup1\n      0x282c51f3\n      eq\n      tag_9\n      jumpi\n      dup1\n      0x2f2ff15d\n      eq\n      tag_10\n      jumpi\n      dup1\n      0x313ce567\n      eq\n      tag_11\n      jumpi\n      jump(tag_1)\n    tag_35:\n      dup1\n      0x18160ddd\n      gt\n      tag_37\n      jumpi\n      dup1\n      0x18160ddd\n      eq\n      tag_5\n      jumpi\n      dup1\n      0x1adb068a\n      eq\n      tag_6\n      jumpi\n      dup1\n      0x23b872dd\n      eq\n      tag_7\n      jumpi\n      dup1\n      0x248a9ca3\n      eq\n      tag_8\n      jumpi\n      jump(tag_1)\n    tag_37:\n      dup1\n      0x01ffc9a7\n      eq\n      tag_2\n      jumpi\n      dup1\n      0x06fdde03\n      eq\n      tag_3\n      jumpi\n      dup1\n      0x095ea7b3\n      eq\n      tag_4\n      jumpi\n    tag_1:\n      0x00\n      dup1\n      revert\n        /* \"@openzeppelin/contracts/access/AccessControl.sol\":2620:2822  function supportsInterface(bytes4 interfaceId) public view virtual override returns (bool) {... */\n    tag_2:\n      callvalue\n      dup1\n      iszero\n      tag_38\n      jumpi\n      0x00\n      dup1\n      revert\n    tag_38:\n      pop\n      tag_39\n      0x04\n      dup1\n      calldatasize\n      sub\n      dup2\n      add\n      swap1\n      tag_40\n      swap2\n      swap1\n      tag_41\n      jump\t// in\n    tag_40:\n      tag_42\n      jump\t// in\n    tag_39:\n      mload(0x40)\n      tag_43\n      swap2\n      swap1\n      tag_44\n      jump\t// in\n    tag_43:\n      mload(0x40)\n      dup1\n      swap2\n      sub\n      swap1\n      return\n        /* \"@openzeppelin/contracts/token/ERC20/ERC20.sol\":2156:2254  function name() public view virtual override returns (string memory) {... */\n    tag_3:\n      callvalue\n      dup1\n      iszero\n      tag_45\n      jumpi\n      0x00\n      dup1\n      revert\n    tag_45:\n      pop\n      tag_46\n      tag_47\n      jump\t// in\n    tag_46:\n      mload(0x40)\n      tag_48\n      swap2\n      swap1\n      tag_49\n      jump\t// in\n    tag_48:\n      mload(0x40)\n      dup1\n      swap2\n      sub\n      swap1\n      return\n        /* \"@openzeppelin/contracts/token/ERC20/ERC20.sol\":4433:4630  function approve(address spender, uint256 amount) public virtual override returns (bool) {... */\n    tag_4:\n      callvalue\n      dup1\n      iszero\n      tag_50\n      jumpi\n      0x00\n      dup1\n      revert\n    tag_50:\n      pop\n      tag_51\n      0x04\n      dup1\n      calldatasize\n      sub\n      dup2\n      add\n      swap1\n      tag_52\n      swap2\n      swap1\n      tag_53\n      jump\t// in\n    tag_52:\n      tag_54\n      jump\t// in\n    tag_51:\n      mload(0x40)\n      tag_55\n      swap2\n      swap1\n      tag_44\n      jump\t// in\n    tag_55:\n      mload(0x40)\n      dup1\n      swap2\n      sub\n      swap1\n      return\n        /* \"@openzeppelin/contracts/token/ERC20/ERC20.sol\":3244:3350  function totalSupply() public view virtual override returns (uint256) {... */\n    tag_5:\n      callvalue\n      dup1\n      iszero\n      tag_56\n      jumpi\n      0x00\n      dup1\n      revert\n    tag_56:\n      pop\n      tag_57\n      tag_58\n      jump\t// in\n    tag_57:\n      mload(0x40)\n      tag_59\n      swap2\n      swap1\n      tag_60\n      jump\t// in\n    tag_59:\n      mload(0x40)\n      dup1\n      swap2\n      sub\n      swap1\n      return\n        /* \"contracts/Token.sol\":463:484  uint public mintedAmt */\n    tag_6:\n      callvalue\n      dup1\n      iszero\n      tag_61\n      jumpi\n      0x00\n      dup1\n      revert\n    tag_61:\n      pop\n      tag_62\n      tag_63\n      jump\t// in\n    tag_62:\n      mload(0x40)\n      tag_64\n      swap2\n      swap1\n      tag_60\n      jump\t// in\n    tag_64:\n      mload(0x40)\n      dup1\n      swap2\n      sub\n      swap1\n      return\n        /* \"@openzeppelin/contracts/token/ERC20/ERC20.sol\":5192:5478  function transferFrom(... */\n    tag_7:\n      callvalue\n      dup1\n      iszero\n      tag_65\n      jumpi\n      0x00\n      dup1\n      revert\n    tag_65:\n      pop\n      tag_66\n      0x04\n      dup1\n      calldatasize\n      sub\n      dup2\n      add\n      swap1\n      tag_67\n      swap2\n      swap1\n      tag_68\n      jump\t// in\n    tag_67:\n      tag_69\n      jump\t// in\n    tag_66:\n      mload(0x40)\n      tag_70\n      swap2\n      swap1\n      tag_44\n      jump\t// in\n    tag_70:\n      mload(0x40)\n      dup1\n      swap2\n      sub\n      swap1\n      return\n        /* \"@openzeppelin/contracts/access/AccessControl.sol\":4008:4137  function getRoleAdmin(bytes32 role) public view virtual override returns (bytes32) {... */\n    tag_8:\n      callvalue\n      dup1\n      iszero\n      tag_71\n      jumpi\n      0x00\n      dup1\n      revert\n    tag_71:\n      pop\n      tag_72\n      0x04\n      dup1\n      calldatasize\n      sub\n      dup2\n      add\n      swap1\n      tag_73\n      swap2\n      swap1\n      tag_74\n      jump\t// in\n    tag_73:\n      tag_75\n      jump\t// in\n    tag_72:\n      mload(0x40)\n      tag_76\n      swap2\n      swap1\n      tag_77\n      jump\t// in\n    tag_76:\n      mload(0x40)\n      dup1\n      swap2\n      sub\n      swap1\n      return\n        /* \"contracts/Token.sol\":263:325  bytes32 public constant BURNER_ROLE = keccak256(\"BURNER_ROLE\") */\n    tag_9:\n      callvalue\n      dup1\n      iszero\n      tag_78\n      jumpi\n      0x00\n      dup1\n      revert\n    tag_78:\n      pop\n      tag_79\n      tag_80\n      jump\t// in\n    tag_79:\n      mload(0x40)\n      tag_81\n      swap2\n      swap1\n      tag_77\n      jump\t// in\n    tag_81:\n      mload(0x40)\n      dup1\n      swap2\n      sub\n      swap1\n      return\n        /* \"@openzeppelin/contracts/access/AccessControl.sol\":4387:4532  function grantRole(bytes32 role, address account) public virtual override onlyRole(getRoleAdmin(role)) {... */\n    tag_10:\n      callvalue\n      dup1\n      iszero\n      tag_82\n      jumpi\n      0x00\n      dup1\n      revert\n    tag_82:\n      pop\n      tag_83\n      0x04\n      dup1\n      calldatasize\n      sub\n      dup2\n      add\n      swap1\n      tag_84\n      swap2\n      swap1\n      tag_85\n      jump\t// in\n    tag_84:\n      tag_86\n      jump\t// in\n    tag_83:\n      stop\n        /* \"@openzeppelin/contracts/token/ERC20/ERC20.sol\":3093:3184  function decimals() public view virtual override returns (uint8) {... */\n    tag_11:\n      callvalue\n      dup1\n      iszero\n      tag_87\n      jumpi\n      0x00\n      dup1\n      revert\n    tag_87:\n      pop\n      tag_88\n      tag_89\n      jump\t// in\n    tag_88:\n      mload(0x40)\n      tag_90\n      swap2\n      swap1\n      tag_91\n      jump\t// in\n    tag_90:\n      mload(0x40)\n      dup1\n      swap2\n      sub\n      swap1\n      return\n        /* \"@openzeppelin/contracts/access/AccessControl.sol\":5404:5618  function renounceRole(bytes32 role, address account) public virtual override {... */\n    tag_12:\n      callvalue\n      dup1\n      iszero\n      tag_92\n      jumpi\n      0x00\n      dup1\n      revert\n    tag_92:\n      pop\n      tag_93\n      0x04\n      dup1\n      calldatasize\n      sub\n      dup2\n      add\n      swap1\n      tag_94\n      swap2\n      swap1\n      tag_85\n      jump\t// in\n    tag_94:\n      tag_95\n      jump\t// in\n    tag_93:\n      stop\n        /* \"@openzeppelin/contracts/token/ERC20/ERC20.sol\":5873:6109  function increaseAllowance(address spender, uint256 addedValue) public virtual returns (bool) {... */\n    tag_13:\n      callvalue\n      dup1\n      iszero\n      tag_96\n      jumpi\n      0x00\n      dup1\n      revert\n    tag_96:\n      pop\n      tag_97\n      0x04\n      dup1\n      calldatasize\n      sub\n      dup2\n      add\n      swap1\n      tag_98\n      swap2\n      swap1\n      tag_53\n      jump\t// in\n    tag_98:\n      tag_99\n      jump\t// in\n    tag_97:\n      mload(0x40)\n      tag_100\n      swap2\n      swap1\n      tag_44\n      jump\t// in\n    tag_100:\n      mload(0x40)\n      dup1\n      swap2\n      sub\n      swap1\n      return\n        /* \"contracts/Token.sol\":1941:2385  function claim() public payable {... */\n    tag_14:\n      tag_101\n      tag_102\n      jump\t// in\n    tag_101:\n      stop\n        /* \"contracts/Claim.sol\":163:204  mapping(address => uint) public unclaimed */\n    tag_15:\n      callvalue\n      dup1\n      iszero\n      tag_103\n      jumpi\n      0x00\n      dup1\n      revert\n    tag_103:\n      pop\n      tag_104\n      0x04\n      dup1\n      calldatasize\n      sub\n      dup2\n      add\n      swap1\n      tag_105\n      swap2\n      swap1\n      tag_106\n      jump\t// in\n    tag_105:\n      tag_107\n      jump\t// in\n    tag_104:\n      mload(0x40)\n      tag_108\n      swap2\n      swap1\n      tag_60\n      jump\t// in\n    tag_108:\n      mload(0x40)\n      dup1\n      swap2\n      sub\n      swap1\n      return\n        /* \"@openzeppelin/contracts/token/ERC20/ERC20.sol\":3408:3533  function balanceOf(address account) public view virtual override returns (uint256) {... */\n    tag_16:\n      callvalue\n      dup1\n      iszero\n      tag_109\n      jumpi\n      0x00\n      dup1\n      revert\n    tag_109:\n      pop\n      tag_110\n      0x04\n      dup1\n      calldatasize\n      sub\n      dup2\n      add\n      swap1\n      tag_111\n      swap2\n      swap1\n      tag_106\n      jump\t// in\n    tag_111:\n      tag_112\n      jump\t// in\n    tag_110:\n      mload(0x40)\n      tag_113\n      swap2\n      swap1\n      tag_60\n      jump\t// in\n    tag_113:\n      mload(0x40)\n      dup1\n      swap2\n      sub\n      swap1\n      return\n        /* \"contracts/Token.sol\":1779:1882  function min(uint256 a, uint256 b) public pure returns (uint256) {... */\n    tag_17:\n      callvalue\n      dup1\n      iszero\n      tag_114\n      jumpi\n      0x00\n      dup1\n      revert\n    tag_114:\n      pop\n      tag_115\n      0x04\n      dup1\n      calldatasize\n      sub\n      dup2\n      add\n      swap1\n      tag_116\n      swap2\n      swap1\n      tag_117\n      jump\t// in\n    tag_116:\n      tag_118\n      jump\t// in\n    tag_115:\n      mload(0x40)\n      tag_119\n      swap2\n      swap1\n      tag_60\n      jump\t// in\n    tag_119:\n      mload(0x40)\n      dup1\n      swap2\n      sub\n      swap1\n      return\n        /* \"contracts/Token.sol\":331:397  bytes32 public constant REWARDER_ROLE = keccak256(\"REWARDER_ROLE\") */\n    tag_18:\n      callvalue\n      dup1\n      iszero\n      tag_120\n      jumpi\n      0x00\n      dup1\n      revert\n    tag_120:\n      pop\n      tag_121\n      tag_122\n      jump\t// in\n    tag_121:\n      mload(0x40)\n      tag_123\n      swap2\n      swap1\n      tag_77\n      jump\t// in\n    tag_123:\n      mload(0x40)\n      dup1\n      swap2\n      sub\n      swap1\n      return\n        /* \"contracts/Token.sol\":987:1348  function createClaimable(address _account, uint256 _amount) external {... */\n    tag_19:\n      callvalue\n      dup1\n      iszero\n      tag_124\n      jumpi\n      0x00\n      dup1\n      revert\n    tag_124:\n      pop\n      tag_125\n      0x04\n      dup1\n      calldatasize\n      sub\n      dup2\n      add\n      swap1\n      tag_126\n      swap2\n      swap1\n      tag_53\n      jump\t// in\n    tag_126:\n      tag_127\n      jump\t// in\n    tag_125:\n      stop\n        /* \"@openzeppelin/contracts/access/AccessControl.sol\":2909:3054  function hasRole(bytes32 role, address account) public view virtual override returns (bool) {... */\n    tag_20:\n      callvalue\n      dup1\n      iszero\n      tag_128\n      jumpi\n      0x00\n      dup1\n      revert\n    tag_128:\n      pop\n      tag_129\n      0x04\n      dup1\n      calldatasize\n      sub\n      dup2\n      add\n      swap1\n      tag_130\n      swap2\n      swap1\n      tag_85\n      jump\t// in\n    tag_130:\n      tag_131\n      jump\t// in\n    tag_129:\n      mload(0x40)\n      tag_132\n      swap2\n      swap1\n      tag_44\n      jump\t// in\n    tag_132:\n      mload(0x40)\n      dup1\n      swap2\n      sub\n      swap1\n      return\n        /* \"@openzeppelin/contracts/token/ERC20/ERC20.sol\":2367:2469  function symbol() public view virtual override returns (string memory) {... */\n    tag_21:\n      callvalue\n      dup1\n      iszero\n      tag_133\n      jumpi\n      0x00\n      dup1\n      revert\n    tag_133:\n      pop\n      tag_134\n      tag_135\n      jump\t// in\n    tag_134:\n      mload(0x40)\n      tag_136\n      swap2\n      swap1\n      tag_49\n      jump\t// in\n    tag_136:\n      mload(0x40)\n      dup1\n      swap2\n      sub\n      swap1\n      return\n        /* \"contracts/Token.sol\":596:771  function burn(address from, uint256 amount) public {... */\n    tag_22:\n      callvalue\n      dup1\n      iszero\n      tag_137\n      jumpi\n      0x00\n      dup1\n      revert\n    tag_137:\n      pop\n      tag_138\n      0x04\n      dup1\n      calldatasize\n      sub\n      dup2\n      add\n      swap1\n      tag_139\n      swap2\n      swap1\n      tag_53\n      jump\t// in\n    tag_139:\n      tag_140\n      jump\t// in\n    tag_138:\n      stop\n        /* \"@openzeppelin/contracts/access/AccessControl.sol\":2027:2076  bytes32 public constant DEFAULT_ADMIN_ROLE = 0x00 */\n    tag_23:\n      callvalue\n      dup1\n      iszero\n      tag_141\n      jumpi\n      0x00\n      dup1\n      revert\n    tag_141:\n      pop\n      tag_142\n      tag_143\n      jump\t// in\n    tag_142:\n      mload(0x40)\n      tag_144\n      swap2\n      swap1\n      tag_77\n      jump\t// in\n    tag_144:\n      mload(0x40)\n      dup1\n      swap2\n      sub\n      swap1\n      return\n        /* \"@openzeppelin/contracts/token/ERC20/ERC20.sol\":6596:7025  function decreaseAllowance(address spender, uint256 subtractedValue) public virtual returns (bool) {... */\n    tag_24:\n      callvalue\n      dup1\n      iszero\n      tag_145\n      jumpi\n      0x00\n      dup1\n      revert\n    tag_145:\n      pop\n      tag_146\n      0x04\n      dup1\n      calldatasize\n      sub\n      dup2\n      add\n      swap1\n      tag_147\n      swap2\n      swap1\n      tag_53\n      jump\t// in\n    tag_147:\n      tag_148\n      jump\t// in\n    tag_146:\n      mload(0x40)\n      tag_149\n      swap2\n      swap1\n      tag_44\n      jump\t// in\n    tag_149:\n      mload(0x40)\n      dup1\n      swap2\n      sub\n      swap1\n      return\n        /* \"@openzeppelin/contracts/token/ERC20/ERC20.sol\":3729:3918  function transfer(address to, uint256 amount) public virtual override returns (bool) {... */\n    tag_25:\n      callvalue\n      dup1\n      iszero\n      tag_150\n      jumpi\n      0x00\n      dup1\n      revert\n    tag_150:\n      pop\n      tag_151\n      0x04\n      dup1\n      calldatasize\n      sub\n      dup2\n      add\n      swap1\n      tag_152\n      swap2\n      swap1\n      tag_53\n      jump\t// in\n    tag_152:\n      tag_153\n      jump\t// in\n    tag_151:\n      mload(0x40)\n      tag_154\n      swap2\n      swap1\n      tag_44\n      jump\t// in\n    tag_154:\n      mload(0x40)\n      dup1\n      swap2\n      sub\n      swap1\n      return\n        /* \"contracts/Claim.sol\":210:249  mapping(address => uint) public claimed */\n    tag_26:\n      callvalue\n      dup1\n      iszero\n      tag_155\n      jumpi\n      0x00\n      dup1\n      revert\n    tag_155:\n      pop\n      tag_156\n      0x04\n      dup1\n      calldatasize\n      sub\n      dup2\n      add\n      swap1\n      tag_157\n      swap2\n      swap1\n      tag_106\n      jump\t// in\n    tag_157:\n      tag_158\n      jump\t// in\n    tag_156:\n      mload(0x40)\n      tag_159\n      swap2\n      swap1\n      tag_60\n      jump\t// in\n    tag_159:\n      mload(0x40)\n      dup1\n      swap2\n      sub\n      swap1\n      return\n        /* \"@openzeppelin/contracts/access/AccessControl.sol\":4766:4913  function revokeRole(bytes32 role, address account) public virtual override onlyRole(getRoleAdmin(role)) {... */\n    tag_27:\n      callvalue\n      dup1\n      iszero\n      tag_160\n      jumpi\n      0x00\n      dup1\n      revert\n    tag_160:\n      pop\n      tag_161\n      0x04\n      dup1\n      calldatasize\n      sub\n      dup2\n      add\n      swap1\n      tag_162\n      swap2\n      swap1\n      tag_85\n      jump\t// in\n    tag_162:\n      tag_163\n      jump\t// in\n    tag_161:\n      stop\n        /* \"contracts/Token.sol\":404:457  uint public constant maxSupply = 100000000 * 10 ** 18 */\n    tag_28:\n      callvalue\n      dup1\n      iszero\n      tag_164\n      jumpi\n      0x00\n      dup1\n      revert\n    tag_164:\n      pop\n      tag_165\n      tag_166\n      jump\t// in\n    tag_165:\n      mload(0x40)\n      tag_167\n      swap2\n      swap1\n      tag_60\n      jump\t// in\n    tag_167:\n      mload(0x40)\n      dup1\n      swap2\n      sub\n      swap1\n      return\n        /* \"@openzeppelin/contracts/token/ERC20/ERC20.sol\":3976:4125  function allowance(address owner, address spender) public view virtual override returns (uint256) {... */\n    tag_29:\n      callvalue\n      dup1\n      iszero\n      tag_168\n      jumpi\n      0x00\n      dup1\n      revert\n    tag_168:\n      pop\n      tag_169\n      0x04\n      dup1\n      calldatasize\n      sub\n      dup2\n      add\n      swap1\n      tag_170\n      swap2\n      swap1\n      tag_171\n      jump\t// in\n    tag_170:\n      tag_172\n      jump\t// in\n    tag_169:\n      mload(0x40)\n      tag_173\n      swap2\n      swap1\n      tag_60\n      jump\t// in\n    tag_173:\n      mload(0x40)\n      dup1\n      swap2\n      sub\n      swap1\n      return\n        /* \"contracts/Token.sol\":1561:1773  function removeClaimable(address _account, uint256 _amount) external {... */\n    tag_30:\n      callvalue\n      dup1\n      iszero\n      tag_174\n      jumpi\n      0x00\n      dup1\n      revert\n    tag_174:\n      pop\n      tag_175\n      0x04\n      dup1\n      calldatasize\n      sub\n      dup2\n      add\n      swap1\n      tag_176\n      swap2\n      swap1\n      tag_53\n      jump\t// in\n    tag_176:\n      tag_177\n      jump\t// in\n    tag_175:\n      stop\n        /* \"@openzeppelin/contracts/access/AccessControl.sol\":2620:2822  function supportsInterface(bytes4 interfaceId) public view virtual override returns (bool) {... */\n    tag_42:\n        /* \"@openzeppelin/contracts/access/AccessControl.sol\":2705:2709  bool */\n      0x00\n        /* \"@openzeppelin/contracts/access/AccessControl.sol\":2743:2775  type(IAccessControl).interfaceId */\n      0x7965db0b00000000000000000000000000000000000000000000000000000000\n        /* \"@openzeppelin/contracts/access/AccessControl.sol\":2728:2775  interfaceId == type(IAccessControl).interfaceId */\n      not(0xffffffffffffffffffffffffffffffffffffffffffffffffffffffff)\n      and\n        /* \"@openzeppelin/contracts/access/AccessControl.sol\":2728:2739  interfaceId */\n      dup3\n        /* \"@openzeppelin/contracts/access/AccessControl.sol\":2728:2775  interfaceId == type(IAccessControl).interfaceId */\n      not(0xffffffffffffffffffffffffffffffffffffffffffffffffffffffff)\n      and\n      eq\n        /* \"@openzeppelin/contracts/access/AccessControl.sol\":2728:2815  interfaceId == type(IAccessControl).interfaceId || super.supportsInterface(interfaceId) */\n      dup1\n      tag_179\n      jumpi\n      pop\n        /* \"@openzeppelin/contracts/access/AccessControl.sol\":2779:2815  super.supportsInterface(interfaceId) */\n      tag_180\n        /* \"@openzeppelin/contracts/access/AccessControl.sol\":2803:2814  interfaceId */\n      dup3\n        /* \"@openzeppelin/contracts/access/AccessControl.sol\":2779:2802  super.supportsInterface */\n      tag_181\n        /* \"@openzeppelin/contracts/access/AccessControl.sol\":2779:2815  super.supportsInterface(interfaceId) */\n      jump\t// in\n    tag_180:\n        /* \"@openzeppelin/contracts/access/AccessControl.sol\":2728:2815  interfaceId == type(IAccessControl).interfaceId || super.supportsInterface(interfaceId) */\n    tag_179:\n        /* \"@openzeppelin/contracts/access/AccessControl.sol\":2721:2815  return interfaceId == type(IAccessControl).interfaceId || super.supportsInterface(interfaceId) */\n      swap1\n      pop\n        /* \"@openzeppelin/contracts/access/AccessControl.sol\":2620:2822  function supportsInterface(bytes4 interfaceId) public view virtual override returns (bool) {... */\n      swap2\n      swap1\n      pop\n      jump\t// out\n        /* \"@openzeppelin/contracts/token/ERC20/ERC20.sol\":2156:2254  function name() public view virtual override returns (string memory) {... */\n    tag_47:\n        /* \"@openzeppelin/contracts/token/ERC20/ERC20.sol\":2210:2223  string memory */\n      0x60\n        /* \"@openzeppelin/contracts/token/ERC20/ERC20.sol\":2242:2247  _name */\n      0x03\n        /* \"@openzeppelin/contracts/token/ERC20/ERC20.sol\":2235:2247  return _name */\n      dup1\n      sload\n      tag_183\n      swap1\n      tag_184\n      jump\t// in\n    tag_183:\n      dup1\n      0x1f\n      add\n      0x20\n      dup1\n      swap2\n      div\n      mul\n      0x20\n      add\n      mload(0x40)\n      swap1\n      dup2\n      add\n      0x40\n      mstore\n      dup1\n      swap3\n      swap2\n      swap1\n      dup2\n      dup2\n      mstore\n      0x20\n      add\n      dup3\n      dup1\n      sload\n      tag_185\n      swap1\n      tag_184\n      jump\t// in\n    tag_185:\n      dup1\n      iszero\n      tag_186\n      jumpi\n      dup1\n      0x1f\n      lt\n      tag_187\n      jumpi\n      0x0100\n      dup1\n      dup4\n      sload\n      div\n      mul\n      dup4\n      mstore\n      swap2\n      0x20\n      add\n      swap2\n      jump(tag_186)\n    tag_187:\n      dup3\n      add\n      swap2\n      swap1\n      0x00\n      mstore\n      keccak256(0x00, 0x20)\n      swap1\n    tag_188:\n      dup2\n      sload\n      dup2\n      mstore\n      swap1\n      0x01\n      add\n      swap1\n      0x20\n      add\n      dup1\n      dup4\n      gt\n      tag_188\n      jumpi\n      dup3\n      swap1\n      sub\n      0x1f\n      and\n      dup3\n      add\n      swap2\n    tag_186:\n      pop\n      pop\n      pop\n      pop\n      pop\n      swap1\n      pop\n        /* \"@openzeppelin/contracts/token/ERC20/ERC20.sol\":2156:2254  function name() public view virtual override returns (string memory) {... */\n      swap1\n      jump\t// out\n        /* \"@openzeppelin/contracts/token/ERC20/ERC20.sol\":4433:4630  function approve(address spender, uint256 amount) public virtual override returns (bool) {... */\n    tag_54:\n        /* \"@openzeppelin/contracts/token/ERC20/ERC20.sol\":4516:4520  bool */\n      0x00\n        /* \"@openzeppelin/contracts/token/ERC20/ERC20.sol\":4532:4545  address owner */\n      dup1\n        /* \"@openzeppelin/contracts/token/ERC20/ERC20.sol\":4548:4560  _msgSender() */\n      tag_190\n        /* \"@openzeppelin/contracts/token/ERC20/ERC20.sol\":4548:4558  _msgSender */\n      tag_191\n        /* \"@openzeppelin/contracts/token/ERC20/ERC20.sol\":4548:4560  _msgSender() */\n      jump\t// in\n    tag_190:\n        /* \"@openzeppelin/contracts/token/ERC20/ERC20.sol\":4532:4560  address owner = _msgSender() */\n      swap1\n      pop\n        /* \"@openzeppelin/contracts/token/ERC20/ERC20.sol\":4570:4602  _approve(owner, spender, amount) */\n      tag_192\n        /* \"@openzeppelin/contracts/token/ERC20/ERC20.sol\":4579:4584  owner */\n      dup2\n        /* \"@openzeppelin/contracts/token/ERC20/ERC20.sol\":4586:4593  spender */\n      dup6\n        /* \"@openzeppelin/contracts/token/ERC20/ERC20.sol\":4595:4601  amount */\n      dup6\n        /* \"@openzeppelin/contracts/token/ERC20/ERC20.sol\":4570:4578  _approve */\n      tag_193\n        /* \"@openzeppelin/contracts/token/ERC20/ERC20.sol\":4570:4602  _approve(owner, spender, amount) */\n      jump\t// in\n    tag_192:\n        /* \"@openzeppelin/contracts/token/ERC20/ERC20.sol\":4619:4623  true */\n      0x01\n        /* \"@openzeppelin/contracts/token/ERC20/ERC20.sol\":4612:4623  return true */\n      swap2\n      pop\n      pop\n        /* \"@openzeppelin/contracts/token/ERC20/ERC20.sol\":4433:4630  function approve(address spender, uint256 amount) public virtual override returns (bool) {... */\n      swap3\n      swap2\n      pop\n      pop\n      jump\t// out\n        /* \"@openzeppelin/contracts/token/ERC20/ERC20.sol\":3244:3350  function totalSupply() public view virtual override returns (uint256) {... */\n    tag_58:\n        /* \"@openzeppelin/contracts/token/ERC20/ERC20.sol\":3305:3312  uint256 */\n      0x00\n        /* \"@openzeppelin/contracts/token/ERC20/ERC20.sol\":3331:3343  _totalSupply */\n      sload(0x02)\n        /* \"@openzeppelin/contracts/token/ERC20/ERC20.sol\":3324:3343  return _totalSupply */\n      swap1\n      pop\n        /* \"@openzeppelin/contracts/token/ERC20/ERC20.sol\":3244:3350  function totalSupply() public view virtual override returns (uint256) {... */\n      swap1\n      jump\t// out\n        /* \"contracts/Token.sol\":463:484  uint public mintedAmt */\n    tag_63:\n      sload(0x08)\n      dup2\n      jump\t// out\n        /* \"@openzeppelin/contracts/token/ERC20/ERC20.sol\":5192:5478  function transferFrom(... */\n    tag_69:\n        /* \"@openzeppelin/contracts/token/ERC20/ERC20.sol\":5319:5323  bool */\n      0x00\n        /* \"@openzeppelin/contracts/token/ERC20/ERC20.sol\":5335:5350  address spender */\n      dup1\n        /* \"@openzeppelin/contracts/token/ERC20/ERC20.sol\":5353:5365  _msgSender() */\n      tag_196\n        /* \"@openzeppelin/contracts/token/ERC20/ERC20.sol\":5353:5363  _msgSender */\n      tag_191\n        /* \"@openzeppelin/contracts/token/ERC20/ERC20.sol\":5353:5365  _msgSender() */\n      jump\t// in\n    tag_196:\n        /* \"@openzeppelin/contracts/token/ERC20/ERC20.sol\":5335:5365  address spender = _msgSender() */\n      swap1\n      pop\n        /* \"@openzeppelin/contracts/token/ERC20/ERC20.sol\":5375:5413  _spendAllowance(from, spender, amount) */\n      tag_197\n        /* \"@openzeppelin/contracts/token/ERC20/ERC20.sol\":5391:5395  from */\n      dup6\n        /* \"@openzeppelin/contracts/token/ERC20/ERC20.sol\":5397:5404  spender */\n      dup3\n        /* \"@openzeppelin/contracts/token/ERC20/ERC20.sol\":5406:5412  amount */\n      dup6\n        /* \"@openzeppelin/contracts/token/ERC20/ERC20.sol\":5375:5390  _spendAllowance */\n      tag_198\n        /* \"@openzeppelin/contracts/token/ERC20/ERC20.sol\":5375:5413  _spendAllowance(from, spender, amount) */\n      jump\t// in\n    tag_197:\n        /* \"@openzeppelin/contracts/token/ERC20/ERC20.sol\":5423:5450  _transfer(from, to, amount) */\n      tag_199\n        /* \"@openzeppelin/contracts/token/ERC20/ERC20.sol\":5433:5437  from */\n      dup6\n        /* \"@openzeppelin/contracts/token/ERC20/ERC20.sol\":5439:5441  to */\n      dup6\n        /* \"@openzeppelin/contracts/token/ERC20/ERC20.sol\":5443:5449  amount */\n      dup6\n        /* \"@openzeppelin/contracts/token/ERC20/ERC20.sol\":5423:5432  _transfer */\n      tag_200\n        /* \"@openzeppelin/contracts/token/ERC20/ERC20.sol\":5423:5450  _transfer(from, to, amount) */\n      jump\t// in\n    tag_199:\n        /* \"@openzeppelin/contracts/token/ERC20/ERC20.sol\":5467:5471  true */\n      0x01\n        /* \"@openzeppelin/contracts/token/ERC20/ERC20.sol\":5460:5471  return true */\n      swap2\n      pop\n      pop\n        /* \"@openzeppelin/contracts/token/ERC20/ERC20.sol\":5192:5478  function transferFrom(... */\n      swap4\n      swap3\n      pop\n      pop\n      pop\n      jump\t// out\n        /* \"@openzeppelin/contracts/access/AccessControl.sol\":4008:4137  function getRoleAdmin(bytes32 role) public view virtual override returns (bytes32) {... */\n    tag_75:\n        /* \"@openzeppelin/contracts/access/AccessControl.sol\":4082:4089  bytes32 */\n      0x00\n        /* \"@openzeppelin/contracts/access/AccessControl.sol\":4108:4114  _roles */\n      0x05\n        /* \"@openzeppelin/contracts/access/AccessControl.sol\":4108:4120  _roles[role] */\n      0x00\n        /* \"@openzeppelin/contracts/access/AccessControl.sol\":4115:4119  role */\n      dup4\n        /* \"@openzeppelin/contracts/access/AccessControl.sol\":4108:4120  _roles[role] */\n      dup2\n      mstore\n      0x20\n      add\n      swap1\n      dup2\n      mstore\n      0x20\n      add\n      0x00\n      keccak256\n        /* \"@openzeppelin/contracts/access/AccessControl.sol\":4108:4130  _roles[role].adminRole */\n      0x01\n      add\n      sload\n        /* \"@openzeppelin/contracts/access/AccessControl.sol\":4101:4130  return _roles[role].adminRole */\n      swap1\n      pop\n        /* \"@openzeppelin/contracts/access/AccessControl.sol\":4008:4137  function getRoleAdmin(bytes32 role) public view virtual override returns (bytes32) {... */\n      swap2\n      swap1\n      pop\n      jump\t// out\n        /* \"contracts/Token.sol\":263:325  bytes32 public constant BURNER_ROLE = keccak256(\"BURNER_ROLE\") */\n    tag_80:\n        /* \"contracts/Token.sol\":301:325  keccak256(\"BURNER_ROLE\") */\n      0x3c11d16cbaffd01df69ce1c404f6340ee057498f5f00246190ea54220576a848\n        /* \"contracts/Token.sol\":263:325  bytes32 public constant BURNER_ROLE = keccak256(\"BURNER_ROLE\") */\n      dup2\n      jump\t// out\n        /* \"@openzeppelin/contracts/access/AccessControl.sol\":4387:4532  function grantRole(bytes32 role, address account) public virtual override onlyRole(getRoleAdmin(role)) {... */\n    tag_86:\n        /* \"@openzeppelin/contracts/access/AccessControl.sol\":4470:4488  getRoleAdmin(role) */\n      tag_202\n        /* \"@openzeppelin/contracts/access/AccessControl.sol\":4483:4487  role */\n      dup3\n        /* \"@openzeppelin/contracts/access/AccessControl.sol\":4470:4482  getRoleAdmin */\n      tag_75\n        /* \"@openzeppelin/contracts/access/AccessControl.sol\":4470:4488  getRoleAdmin(role) */\n      jump\t// in\n    tag_202:\n        /* \"@openzeppelin/contracts/access/AccessControl.sol\":2505:2535  _checkRole(role, _msgSender()) */\n      tag_204\n        /* \"@openzeppelin/contracts/access/AccessControl.sol\":2516:2520  role */\n      dup2\n        /* \"@openzeppelin/contracts/access/AccessControl.sol\":2522:2534  _msgSender() */\n      tag_205\n        /* \"@openzeppelin/contracts/access/AccessControl.sol\":2522:2532  _msgSender */\n      tag_191\n        /* \"@openzeppelin/contracts/access/AccessControl.sol\":2522:2534  _msgSender() */\n      jump\t// in\n    tag_205:\n        /* \"@openzeppelin/contracts/access/AccessControl.sol\":2505:2515  _checkRole */\n      tag_206\n        /* \"@openzeppelin/contracts/access/AccessControl.sol\":2505:2535  _checkRole(role, _msgSender()) */\n      jump\t// in\n    tag_204:\n        /* \"@openzeppelin/contracts/access/AccessControl.sol\":4500:4525  _grantRole(role, account) */\n      tag_208\n        /* \"@openzeppelin/contracts/access/AccessControl.sol\":4511:4515  role */\n      dup4\n        /* \"@openzeppelin/contracts/access/AccessControl.sol\":4517:4524  account */\n      dup4\n        /* \"@openzeppelin/contracts/access/AccessControl.sol\":4500:4510  _grantRole */\n      tag_209\n        /* \"@openzeppelin/contracts/access/AccessControl.sol\":4500:4525  _grantRole(role, account) */\n      jump\t// in\n    tag_208:\n        /* \"@openzeppelin/contracts/access/AccessControl.sol\":4387:4532  function grantRole(bytes32 role, address account) public virtual override onlyRole(getRoleAdmin(role)) {... */\n      pop\n      pop\n      pop\n      jump\t// out\n        /* \"@openzeppelin/contracts/token/ERC20/ERC20.sol\":3093:3184  function decimals() public view virtual override returns (uint8) {... */\n    tag_89:\n        /* \"@openzeppelin/contracts/token/ERC20/ERC20.sol\":3151:3156  uint8 */\n      0x00\n        /* \"@openzeppelin/contracts/token/ERC20/ERC20.sol\":3175:3177  18 */\n      0x12\n        /* \"@openzeppelin/contracts/token/ERC20/ERC20.sol\":3168:3177  return 18 */\n      swap1\n      pop\n        /* \"@openzeppelin/contracts/token/ERC20/ERC20.sol\":3093:3184  function decimals() public view virtual override returns (uint8) {... */\n      swap1\n      jump\t// out\n        /* \"@openzeppelin/contracts/access/AccessControl.sol\":5404:5618  function renounceRole(bytes32 role, address account) public virtual override {... */\n    tag_95:\n        /* \"@openzeppelin/contracts/access/AccessControl.sol\":5510:5522  _msgSender() */\n      tag_212\n        /* \"@openzeppelin/contracts/access/AccessControl.sol\":5510:5520  _msgSender */\n      tag_191\n        /* \"@openzeppelin/contracts/access/AccessControl.sol\":5510:5522  _msgSender() */\n      jump\t// in\n    tag_212:\n        /* \"@openzeppelin/contracts/access/AccessControl.sol\":5499:5522  account == _msgSender() */\n      0xffffffffffffffffffffffffffffffffffffffff\n      and\n        /* \"@openzeppelin/contracts/access/AccessControl.sol\":5499:5506  account */\n      dup2\n        /* \"@openzeppelin/contracts/access/AccessControl.sol\":5499:5522  account == _msgSender() */\n      0xffffffffffffffffffffffffffffffffffffffff\n      and\n      eq\n        /* \"@openzeppelin/contracts/access/AccessControl.sol\":5491:5574  require(account == _msgSender(), \"AccessControl: can only renounce roles for self\") */\n      tag_213\n      jumpi\n      mload(0x40)\n      0x08c379a000000000000000000000000000000000000000000000000000000000\n      dup2\n      mstore\n      0x04\n      add\n      tag_214\n      swap1\n      tag_215\n      jump\t// in\n    tag_214:\n      mload(0x40)\n      dup1\n      swap2\n      sub\n      swap1\n      revert\n    tag_213:\n        /* \"@openzeppelin/contracts/access/AccessControl.sol\":5585:5611  _revokeRole(role, account) */\n      tag_216\n        /* \"@openzeppelin/contracts/access/AccessControl.sol\":5597:5601  role */\n      dup3\n        /* \"@openzeppelin/contracts/access/AccessControl.sol\":5603:5610  account */\n      dup3\n        /* \"@openzeppelin/contracts/access/AccessControl.sol\":5585:5596  _revokeRole */\n      tag_217\n        /* \"@openzeppelin/contracts/access/AccessControl.sol\":5585:5611  _revokeRole(role, account) */\n      jump\t// in\n    tag_216:\n        /* \"@openzeppelin/contracts/access/AccessControl.sol\":5404:5618  function renounceRole(bytes32 role, address account) public virtual override {... */\n      pop\n      pop\n      jump\t// out\n        /* \"@openzeppelin/contracts/token/ERC20/ERC20.sol\":5873:6109  function increaseAllowance(address spender, uint256 addedValue) public virtual returns (bool) {... */\n    tag_99:\n        /* \"@openzeppelin/contracts/token/ERC20/ERC20.sol\":5961:5965  bool */\n      0x00\n        /* \"@openzeppelin/contracts/token/ERC20/ERC20.sol\":5977:5990  address owner */\n      dup1\n        /* \"@openzeppelin/contracts/token/ERC20/ERC20.sol\":5993:6005  _msgSender() */\n      tag_219\n        /* \"@openzeppelin/contracts/token/ERC20/ERC20.sol\":5993:6003  _msgSender */\n      tag_191\n        /* \"@openzeppelin/contracts/token/ERC20/ERC20.sol\":5993:6005  _msgSender() */\n      jump\t// in\n    tag_219:\n        /* \"@openzeppelin/contracts/token/ERC20/ERC20.sol\":5977:6005  address owner = _msgSender() */\n      swap1\n      pop\n        /* \"@openzeppelin/contracts/token/ERC20/ERC20.sol\":6015:6081  _approve(owner, spender, _allowances[owner][spender] + addedValue) */\n      tag_220\n        /* \"@openzeppelin/contracts/token/ERC20/ERC20.sol\":6024:6029  owner */\n      dup2\n        /* \"@openzeppelin/contracts/token/ERC20/ERC20.sol\":6031:6038  spender */\n      dup6\n        /* \"@openzeppelin/contracts/token/ERC20/ERC20.sol\":6070:6080  addedValue */\n      dup6\n        /* \"@openzeppelin/contracts/token/ERC20/ERC20.sol\":6040:6051  _allowances */\n      0x01\n        /* \"@openzeppelin/contracts/token/ERC20/ERC20.sol\":6040:6058  _allowances[owner] */\n      0x00\n        /* \"@openzeppelin/contracts/token/ERC20/ERC20.sol\":6052:6057  owner */\n      dup7\n        /* \"@openzeppelin/contracts/token/ERC20/ERC20.sol\":6040:6058  _allowances[owner] */\n      0xffffffffffffffffffffffffffffffffffffffff\n      and\n      0xffffffffffffffffffffffffffffffffffffffff\n      and\n      dup2\n      mstore\n      0x20\n      add\n      swap1\n      dup2\n      mstore\n      0x20\n      add\n      0x00\n      keccak256\n        /* \"@openzeppelin/contracts/token/ERC20/ERC20.sol\":6040:6067  _allowances[owner][spender] */\n      0x00\n        /* \"@openzeppelin/contracts/token/ERC20/ERC20.sol\":6059:6066  spender */\n      dup10\n        /* \"@openzeppelin/contracts/token/ERC20/ERC20.sol\":6040:6067  _allowances[owner][spender] */\n      0xffffffffffffffffffffffffffffffffffffffff\n      and\n      0xffffffffffffffffffffffffffffffffffffffff\n      and\n      dup2\n      mstore\n      0x20\n      add\n      swap1\n      dup2\n      mstore\n      0x20\n      add\n      0x00\n      keccak256\n      sload\n        /* \"@openzeppelin/contracts/token/ERC20/ERC20.sol\":6040:6080  _allowances[owner][spender] + addedValue */\n      tag_221\n      swap2\n      swap1\n      tag_222\n      jump\t// in\n    tag_221:\n        /* \"@openzeppelin/contracts/token/ERC20/ERC20.sol\":6015:6023  _approve */\n      tag_193\n        /* \"@openzeppelin/contracts/token/ERC20/ERC20.sol\":6015:6081  _approve(owner, spender, _allowances[owner][spender] + addedValue) */\n      jump\t// in\n    tag_220:\n        /* \"@openzeppelin/contracts/token/ERC20/ERC20.sol\":6098:6102  true */\n      0x01\n        /* \"@openzeppelin/contracts/token/ERC20/ERC20.sol\":6091:6102  return true */\n      swap2\n      pop\n      pop\n        /* \"@openzeppelin/contracts/token/ERC20/ERC20.sol\":5873:6109  function increaseAllowance(address spender, uint256 addedValue) public virtual returns (bool) {... */\n      swap3\n      swap2\n      pop\n      pop\n      jump\t// out\n        /* \"contracts/Token.sol\":1941:2385  function claim() public payable {... */\n    tag_102:\n        /* \"contracts/Token.sol\":1983:2001  uint256 _unclaimed */\n      0x00\n        /* \"contracts/Token.sol\":2004:2013  unclaimed */\n      0x06\n        /* \"contracts/Token.sol\":2004:2025  unclaimed[msg.sender] */\n      0x00\n        /* \"contracts/Token.sol\":2014:2024  msg.sender */\n      caller\n        /* \"contracts/Token.sol\":2004:2025  unclaimed[msg.sender] */\n      0xffffffffffffffffffffffffffffffffffffffff\n      and\n      0xffffffffffffffffffffffffffffffffffffffff\n      and\n      dup2\n      mstore\n      0x20\n      add\n      swap1\n      dup2\n      mstore\n      0x20\n      add\n      0x00\n      keccak256\n      sload\n        /* \"contracts/Token.sol\":1983:2025  uint256 _unclaimed = unclaimed[msg.sender] */\n      swap1\n      pop\n        /* \"contracts/Token.sol\":2056:2057  0 */\n      0x00\n        /* \"contracts/Token.sol\":2043:2053  _unclaimed */\n      dup2\n        /* \"contracts/Token.sol\":2043:2057  _unclaimed > 0 */\n      gt\n        /* \"contracts/Token.sol\":2035:2102  require(_unclaimed > 0, \"Unclaimed balance must be greater than 0\") */\n      tag_224\n      jumpi\n      mload(0x40)\n      0x08c379a000000000000000000000000000000000000000000000000000000000\n      dup2\n      mstore\n      0x04\n      add\n      tag_225\n      swap1\n      tag_226\n      jump\t// in\n    tag_225:\n      mload(0x40)\n      dup1\n      swap2\n      sub\n      swap1\n      revert\n    tag_224:\n        /* \"contracts/Token.sol\":2112:2132  uint256 to_maxSupply */\n      0x00\n        /* \"contracts/Token.sol\":2147:2156  mintedAmt */\n      sload(0x08)\n        /* \"contracts/Token.sol\":437:457  100000000 * 10 ** 18 */\n      0x52b7d2dcc80cd2e4000000\n        /* \"contracts/Token.sol\":2135:2156  maxSupply - mintedAmt */\n      tag_227\n      swap2\n      swap1\n      tag_228\n      jump\t// in\n    tag_227:\n        /* \"contracts/Token.sol\":2112:2156  uint256 to_maxSupply = maxSupply - mintedAmt */\n      swap1\n      pop\n        /* \"contracts/Token.sol\":2166:2187  uint256 min_unclaimed */\n      0x00\n        /* \"contracts/Token.sol\":2190:2219  min(_unclaimed, to_maxSupply) */\n      tag_229\n        /* \"contracts/Token.sol\":2194:2204  _unclaimed */\n      dup4\n        /* \"contracts/Token.sol\":2206:2218  to_maxSupply */\n      dup4\n        /* \"contracts/Token.sol\":2190:2193  min */\n      tag_118\n        /* \"contracts/Token.sol\":2190:2219  min(_unclaimed, to_maxSupply) */\n      jump\t// in\n    tag_229:\n        /* \"contracts/Token.sol\":2166:2219  uint256 min_unclaimed = min(_unclaimed, to_maxSupply) */\n      swap1\n      pop\n        /* \"contracts/Token.sol\":2252:2265  min_unclaimed */\n      dup1\n        /* \"contracts/Token.sol\":2229:2236  claimed */\n      0x07\n        /* \"contracts/Token.sol\":2229:2248  claimed[msg.sender] */\n      0x00\n        /* \"contracts/Token.sol\":2237:2247  msg.sender */\n      caller\n        /* \"contracts/Token.sol\":2229:2248  claimed[msg.sender] */\n      0xffffffffffffffffffffffffffffffffffffffff\n      and\n      0xffffffffffffffffffffffffffffffffffffffff\n      and\n      dup2\n      mstore\n      0x20\n      add\n      swap1\n      dup2\n      mstore\n      0x20\n      add\n      0x00\n      keccak256\n      0x00\n        /* \"contracts/Token.sol\":2229:2265  claimed[msg.sender] += min_unclaimed */\n      dup3\n      dup3\n      sload\n      tag_230\n      swap2\n      swap1\n      tag_222\n      jump\t// in\n    tag_230:\n      swap3\n      pop\n      pop\n      dup2\n      swap1\n      sstore\n      pop\n        /* \"contracts/Token.sol\":2299:2300  0 */\n      0x00\n        /* \"contracts/Token.sol\":2275:2284  unclaimed */\n      0x06\n        /* \"contracts/Token.sol\":2275:2296  unclaimed[msg.sender] */\n      0x00\n        /* \"contracts/Token.sol\":2285:2295  msg.sender */\n      caller\n        /* \"contracts/Token.sol\":2275:2296  unclaimed[msg.sender] */\n      0xffffffffffffffffffffffffffffffffffffffff\n      and\n      0xffffffffffffffffffffffffffffffffffffffff\n      and\n      dup2\n      mstore\n      0x20\n      add\n      swap1\n      dup2\n      mstore\n      0x20\n      add\n      0x00\n      keccak256\n        /* \"contracts/Token.sol\":2275:2300  unclaimed[msg.sender] = 0 */\n      dup2\n      swap1\n      sstore\n      pop\n        /* \"contracts/Token.sol\":2323:2336  min_unclaimed */\n      dup1\n        /* \"contracts/Token.sol\":2310:2319  mintedAmt */\n      0x08\n      0x00\n        /* \"contracts/Token.sol\":2310:2336  mintedAmt += min_unclaimed */\n      dup3\n      dup3\n      sload\n      tag_231\n      swap2\n      swap1\n      tag_222\n      jump\t// in\n    tag_231:\n      swap3\n      pop\n      pop\n      dup2\n      swap1\n      sstore\n      pop\n        /* \"contracts/Token.sol\":2346:2378  _mint(msg.sender, min_unclaimed) */\n      tag_232\n        /* \"contracts/Token.sol\":2352:2362  msg.sender */\n      caller\n        /* \"contracts/Token.sol\":2364:2377  min_unclaimed */\n      dup3\n        /* \"contracts/Token.sol\":2346:2351  _mint */\n      tag_233\n        /* \"contracts/Token.sol\":2346:2378  _mint(msg.sender, min_unclaimed) */\n      jump\t// in\n    tag_232:\n        /* \"contracts/Token.sol\":1973:2385  {... */\n      pop\n      pop\n      pop\n        /* \"contracts/Token.sol\":1941:2385  function claim() public payable {... */\n      jump\t// out\n        /* \"contracts/Claim.sol\":163:204  mapping(address => uint) public unclaimed */\n    tag_107:\n      mstore(0x20, 0x06)\n      dup1\n      0x00\n      mstore\n      keccak256(0x00, 0x40)\n      0x00\n      swap2\n      pop\n      swap1\n      pop\n      sload\n      dup2\n      jump\t// out\n        /* \"@openzeppelin/contracts/token/ERC20/ERC20.sol\":3408:3533  function balanceOf(address account) public view virtual override returns (uint256) {... */\n    tag_112:\n        /* \"@openzeppelin/contracts/token/ERC20/ERC20.sol\":3482:3489  uint256 */\n      0x00\n        /* \"@openzeppelin/contracts/token/ERC20/ERC20.sol\":3508:3517  _balances */\n      dup1\n        /* \"@openzeppelin/contracts/token/ERC20/ERC20.sol\":3508:3526  _balances[account] */\n      0x00\n        /* \"@openzeppelin/contracts/token/ERC20/ERC20.sol\":3518:3525  account */\n      dup4\n        /* \"@openzeppelin/contracts/token/ERC20/ERC20.sol\":3508:3526  _balances[account] */\n      0xffffffffffffffffffffffffffffffffffffffff\n      and\n      0xffffffffffffffffffffffffffffffffffffffff\n      and\n      dup2\n      mstore\n      0x20\n      add\n      swap1\n      dup2\n      mstore\n      0x20\n      add\n      0x00\n      keccak256\n      sload\n        /* \"@openzeppelin/contracts/token/ERC20/ERC20.sol\":3501:3526  return _balances[account] */\n      swap1\n      pop\n        /* \"@openzeppelin/contracts/token/ERC20/ERC20.sol\":3408:3533  function balanceOf(address account) public view virtual override returns (uint256) {... */\n      swap2\n      swap1\n      pop\n      jump\t// out\n        /* \"contracts/Token.sol\":1779:1882  function min(uint256 a, uint256 b) public pure returns (uint256) {... */\n    tag_118:\n        /* \"contracts/Token.sol\":1835:1842  uint256 */\n      0x00\n        /* \"contracts/Token.sol\":1866:1867  b */\n      dup2\n        /* \"contracts/Token.sol\":1861:1862  a */\n      dup4\n        /* \"contracts/Token.sol\":1861:1867  a <= b */\n      gt\n      iszero\n        /* \"contracts/Token.sol\":1861:1875  a <= b ? a : b */\n      tag_236\n      jumpi\n        /* \"contracts/Token.sol\":1874:1875  b */\n      dup2\n        /* \"contracts/Token.sol\":1861:1875  a <= b ? a : b */\n      jump(tag_237)\n    tag_236:\n        /* \"contracts/Token.sol\":1870:1871  a */\n      dup3\n        /* \"contracts/Token.sol\":1861:1875  a <= b ? a : b */\n    tag_237:\n        /* \"contracts/Token.sol\":1854:1875  return a <= b ? a : b */\n      swap1\n      pop\n        /* \"contracts/Token.sol\":1779:1882  function min(uint256 a, uint256 b) public pure returns (uint256) {... */\n      swap3\n      swap2\n      pop\n      pop\n      jump\t// out\n        /* \"contracts/Token.sol\":331:397  bytes32 public constant REWARDER_ROLE = keccak256(\"REWARDER_ROLE\") */\n    tag_122:\n        /* \"contracts/Token.sol\":371:397  keccak256(\"REWARDER_ROLE\") */\n      0xbeec13769b5f410b0584f69811bfd923818456d5edcf426b0e31cf90eed7a3f6\n        /* \"contracts/Token.sol\":331:397  bytes32 public constant REWARDER_ROLE = keccak256(\"REWARDER_ROLE\") */\n      dup2\n      jump\t// out\n        /* \"contracts/Token.sol\":987:1348  function createClaimable(address _account, uint256 _amount) external {... */\n    tag_127:\n        /* \"contracts/Token.sol\":1074:1108  hasRole(REWARDER_ROLE, msg.sender) */\n      tag_239\n        /* \"contracts/Token.sol\":371:397  keccak256(\"REWARDER_ROLE\") */\n      0xbeec13769b5f410b0584f69811bfd923818456d5edcf426b0e31cf90eed7a3f6\n        /* \"contracts/Token.sol\":1097:1107  msg.sender */\n      caller\n        /* \"contracts/Token.sol\":1074:1081  hasRole */\n      tag_131\n        /* \"contracts/Token.sol\":1074:1108  hasRole(REWARDER_ROLE, msg.sender) */\n      jump\t// in\n    tag_239:\n        /* \"contracts/Token.sol\":1066:1137  require(hasRole(REWARDER_ROLE, msg.sender), \"Caller is not a rewarder\") */\n      tag_240\n      jumpi\n      mload(0x40)\n      0x08c379a000000000000000000000000000000000000000000000000000000000\n      dup2\n      mstore\n      0x04\n      add\n      tag_241\n      swap1\n      tag_242\n      jump\t// in\n    tag_241:\n      mload(0x40)\n      dup1\n      swap2\n      sub\n      swap1\n      revert\n    tag_240:\n        /* \"contracts/Token.sol\":1147:1165  uint256 _unclaimed */\n      0x00\n        /* \"contracts/Token.sol\":1198:1207  unclaimed */\n      0x06\n        /* \"contracts/Token.sol\":1198:1217  unclaimed[_account] */\n      0x00\n        /* \"contracts/Token.sol\":1208:1216  _account */\n      dup5\n        /* \"contracts/Token.sol\":1198:1217  unclaimed[_account] */\n      0xffffffffffffffffffffffffffffffffffffffff\n      and\n      0xffffffffffffffffffffffffffffffffffffffff\n      and\n      dup2\n      mstore\n      0x20\n      add\n      swap1\n      dup2\n      mstore\n      0x20\n      add\n      0x00\n      keccak256\n      sload\n        /* \"contracts/Token.sol\":1178:1185  claimed */\n      0x07\n        /* \"contracts/Token.sol\":1178:1195  claimed[_account] */\n      0x00\n        /* \"contracts/Token.sol\":1186:1194  _account */\n      dup6\n        /* \"contracts/Token.sol\":1178:1195  claimed[_account] */\n      0xffffffffffffffffffffffffffffffffffffffff\n      and\n      0xffffffffffffffffffffffffffffffffffffffff\n      and\n      dup2\n      mstore\n      0x20\n      add\n      swap1\n      dup2\n      mstore\n      0x20\n      add\n      0x00\n      keccak256\n      sload\n        /* \"contracts/Token.sol\":1168:1175  _amount */\n      dup4\n        /* \"contracts/Token.sol\":1168:1195  _amount - claimed[_account] */\n      tag_243\n      swap2\n      swap1\n      tag_228\n      jump\t// in\n    tag_243:\n        /* \"contracts/Token.sol\":1168:1217  _amount - claimed[_account] - unclaimed[_account] */\n      tag_244\n      swap2\n      swap1\n      tag_228\n      jump\t// in\n    tag_244:\n        /* \"contracts/Token.sol\":1147:1217  uint256 _unclaimed = _amount - claimed[_account] - unclaimed[_account] */\n      swap1\n      pop\n        /* \"contracts/Token.sol\":1248:1249  0 */\n      0x00\n        /* \"contracts/Token.sol\":1235:1245  _unclaimed */\n      dup2\n        /* \"contracts/Token.sol\":1235:1249  _unclaimed > 0 */\n      gt\n        /* \"contracts/Token.sol\":1227:1286  require(_unclaimed > 0, 'claimable must be greater than 0') */\n      tag_245\n      jumpi\n      mload(0x40)\n      0x08c379a000000000000000000000000000000000000000000000000000000000\n      dup2\n      mstore\n      0x04\n      add\n      tag_246\n      swap1\n      tag_247\n      jump\t// in\n    tag_246:\n      mload(0x40)\n      dup1\n      swap2\n      sub\n      swap1\n      revert\n    tag_245:\n        /* \"contracts/Token.sol\":1296:1341  addUnclaimed(_account, _unclaimed * 10 ** 18) */\n      tag_248\n        /* \"contracts/Token.sol\":1309:1317  _account */\n      dup4\n        /* \"contracts/Token.sol\":1332:1340  10 ** 18 */\n      0x0de0b6b3a7640000\n        /* \"contracts/Token.sol\":1319:1329  _unclaimed */\n      dup4\n        /* \"contracts/Token.sol\":1319:1340  _unclaimed * 10 ** 18 */\n      tag_249\n      swap2\n      swap1\n      tag_250\n      jump\t// in\n    tag_249:\n        /* \"contracts/Token.sol\":1296:1308  addUnclaimed */\n      tag_251\n        /* \"contracts/Token.sol\":1296:1341  addUnclaimed(_account, _unclaimed * 10 ** 18) */\n      jump\t// in\n    tag_248:\n        /* \"contracts/Token.sol\":1056:1348  {... */\n      pop\n        /* \"contracts/Token.sol\":987:1348  function createClaimable(address _account, uint256 _amount) external {... */\n      pop\n      pop\n      jump\t// out\n        /* \"@openzeppelin/contracts/access/AccessControl.sol\":2909:3054  function hasRole(bytes32 role, address account) public view virtual override returns (bool) {... */\n    tag_131:\n        /* \"@openzeppelin/contracts/access/AccessControl.sol\":2995:2999  bool */\n      0x00\n        /* \"@openzeppelin/contracts/access/AccessControl.sol\":3018:3024  _roles */\n      0x05\n        /* \"@openzeppelin/contracts/access/AccessControl.sol\":3018:3030  _roles[role] */\n      0x00\n        /* \"@openzeppelin/contracts/access/AccessControl.sol\":3025:3029  role */\n      dup5\n        /* \"@openzeppelin/contracts/access/AccessControl.sol\":3018:3030  _roles[role] */\n      dup2\n      mstore\n      0x20\n      add\n      swap1\n      dup2\n      mstore\n      0x20\n      add\n      0x00\n      keccak256\n        /* \"@openzeppelin/contracts/access/AccessControl.sol\":3018:3038  _roles[role].members */\n      0x00\n      add\n        /* \"@openzeppelin/contracts/access/AccessControl.sol\":3018:3047  _roles[role].members[account] */\n      0x00\n        /* \"@openzeppelin/contracts/access/AccessControl.sol\":3039:3046  account */\n      dup4\n        /* \"@openzeppelin/contracts/access/AccessControl.sol\":3018:3047  _roles[role].members[account] */\n      0xffffffffffffffffffffffffffffffffffffffff\n      and\n      0xffffffffffffffffffffffffffffffffffffffff\n      and\n      dup2\n      mstore\n      0x20\n      add\n      swap1\n      dup2\n      mstore\n      0x20\n      add\n      0x00\n      keccak256\n      0x00\n      swap1\n      sload\n      swap1\n      0x0100\n      exp\n      swap1\n      div\n      0xff\n      and\n        /* \"@openzeppelin/contracts/access/AccessControl.sol\":3011:3047  return _roles[role].members[account] */\n      swap1\n      pop\n        /* \"@openzeppelin/contracts/access/AccessControl.sol\":2909:3054  function hasRole(bytes32 role, address account) public view virtual override returns (bool) {... */\n      swap3\n      swap2\n      pop\n      pop\n      jump\t// out\n        /* \"@openzeppelin/contracts/token/ERC20/ERC20.sol\":2367:2469  function symbol() public view virtual override returns (string memory) {... */\n    tag_135:\n        /* \"@openzeppelin/contracts/token/ERC20/ERC20.sol\":2423:2436  string memory */\n      0x60\n        /* \"@openzeppelin/contracts/token/ERC20/ERC20.sol\":2455:2462  _symbol */\n      0x04\n        /* \"@openzeppelin/contracts/token/ERC20/ERC20.sol\":2448:2462  return _symbol */\n      dup1\n      sload\n      tag_254\n      swap1\n      tag_184\n      jump\t// in\n    tag_254:\n      dup1\n      0x1f\n      add\n      0x20\n      dup1\n      swap2\n      div\n      mul\n      0x20\n      add\n      mload(0x40)\n      swap1\n      dup2\n      add\n      0x40\n      mstore\n      dup1\n      swap3\n      swap2\n      swap1\n      dup2\n      dup2\n      mstore\n      0x20\n      add\n      dup3\n      dup1\n      sload\n      tag_255\n      swap1\n      tag_184\n      jump\t// in\n    tag_255:\n      dup1\n      iszero\n      tag_256\n      jumpi\n      dup1\n      0x1f\n      lt\n      tag_257\n      jumpi\n      0x0100\n      dup1\n      dup4\n      sload\n      div\n      mul\n      dup4\n      mstore\n      swap2\n      0x20\n      add\n      swap2\n      jump(tag_256)\n    tag_257:\n      dup3\n      add\n      swap2\n      swap1\n      0x00\n      mstore\n      keccak256(0x00, 0x20)\n      swap1\n    tag_258:\n      dup2\n      sload\n      dup2\n      mstore\n      swap1\n      0x01\n      add\n      swap1\n      0x20\n      add\n      dup1\n      dup4\n      gt\n      tag_258\n      jumpi\n      dup3\n      swap1\n      sub\n      0x1f\n      and\n      dup3\n      add\n      swap2\n    tag_256:\n      pop\n      pop\n      pop\n      pop\n      pop\n      swap1\n      pop\n        /* \"@openzeppelin/contracts/token/ERC20/ERC20.sol\":2367:2469  function symbol() public view virtual override returns (string memory) {... */\n      swap1\n      jump\t// out\n        /* \"contracts/Token.sol\":596:771  function burn(address from, uint256 amount) public {... */\n    tag_140:\n        /* \"contracts/Token.sol\":665:697  hasRole(BURNER_ROLE, msg.sender) */\n      tag_260\n        /* \"contracts/Token.sol\":301:325  keccak256(\"BURNER_ROLE\") */\n      0x3c11d16cbaffd01df69ce1c404f6340ee057498f5f00246190ea54220576a848\n        /* \"contracts/Token.sol\":686:696  msg.sender */\n      caller\n        /* \"contracts/Token.sol\":665:672  hasRole */\n      tag_131\n        /* \"contracts/Token.sol\":665:697  hasRole(BURNER_ROLE, msg.sender) */\n      jump\t// in\n    tag_260:\n        /* \"contracts/Token.sol\":657:724  require(hasRole(BURNER_ROLE, msg.sender), \"Caller is not a burner\") */\n      tag_261\n      jumpi\n      mload(0x40)\n      0x08c379a000000000000000000000000000000000000000000000000000000000\n      dup2\n      mstore\n      0x04\n      add\n      tag_262\n      swap1\n      tag_263\n      jump\t// in\n    tag_262:\n      mload(0x40)\n      dup1\n      swap2\n      sub\n      swap1\n      revert\n    tag_261:\n        /* \"contracts/Token.sol\":734:764  _burn(from, amount * 10 ** 18) */\n      tag_264\n        /* \"contracts/Token.sol\":740:744  from */\n      dup3\n        /* \"contracts/Token.sol\":755:763  10 ** 18 */\n      0x0de0b6b3a7640000\n        /* \"contracts/Token.sol\":746:752  amount */\n      dup4\n        /* \"contracts/Token.sol\":746:763  amount * 10 ** 18 */\n      tag_265\n      swap2\n      swap1\n      tag_250\n      jump\t// in\n    tag_265:\n        /* \"contracts/Token.sol\":734:739  _burn */\n      tag_266\n        /* \"contracts/Token.sol\":734:764  _burn(from, amount * 10 ** 18) */\n      jump\t// in\n    tag_264:\n        /* \"contracts/Token.sol\":596:771  function burn(address from, uint256 amount) public {... */\n      pop\n      pop\n      jump\t// out\n        /* \"@openzeppelin/contracts/access/AccessControl.sol\":2027:2076  bytes32 public constant DEFAULT_ADMIN_ROLE = 0x00 */\n    tag_143:\n        /* \"@openzeppelin/contracts/access/AccessControl.sol\":2072:2076  0x00 */\n      0x00\n        /* \"@openzeppelin/contracts/access/AccessControl.sol\":2027:2076  bytes32 public constant DEFAULT_ADMIN_ROLE = 0x00 */\n      dup1\n      shl\n      dup2\n      jump\t// out\n        /* \"@openzeppelin/contracts/token/ERC20/ERC20.sol\":6596:7025  function decreaseAllowance(address spender, uint256 subtractedValue) public virtual returns (bool) {... */\n    tag_148:\n        /* \"@openzeppelin/contracts/token/ERC20/ERC20.sol\":6689:6693  bool */\n      0x00\n        /* \"@openzeppelin/contracts/token/ERC20/ERC20.sol\":6705:6718  address owner */\n      dup1\n        /* \"@openzeppelin/contracts/token/ERC20/ERC20.sol\":6721:6733  _msgSender() */\n      tag_268\n        /* \"@openzeppelin/contracts/token/ERC20/ERC20.sol\":6721:6731  _msgSender */\n      tag_191\n        /* \"@openzeppelin/contracts/token/ERC20/ERC20.sol\":6721:6733  _msgSender() */\n      jump\t// in\n    tag_268:\n        /* \"@openzeppelin/contracts/token/ERC20/ERC20.sol\":6705:6733  address owner = _msgSender() */\n      swap1\n      pop\n        /* \"@openzeppelin/contracts/token/ERC20/ERC20.sol\":6743:6767  uint256 currentAllowance */\n      0x00\n        /* \"@openzeppelin/contracts/token/ERC20/ERC20.sol\":6770:6781  _allowances */\n      0x01\n        /* \"@openzeppelin/contracts/token/ERC20/ERC20.sol\":6770:6788  _allowances[owner] */\n      0x00\n        /* \"@openzeppelin/contracts/token/ERC20/ERC20.sol\":6782:6787  owner */\n      dup4\n        /* \"@openzeppelin/contracts/token/ERC20/ERC20.sol\":6770:6788  _allowances[owner] */\n      0xffffffffffffffffffffffffffffffffffffffff\n      and\n      0xffffffffffffffffffffffffffffffffffffffff\n      and\n      dup2\n      mstore\n      0x20\n      add\n      swap1\n      dup2\n      mstore\n      0x20\n      add\n      0x00\n      keccak256\n        /* \"@openzeppelin/contracts/token/ERC20/ERC20.sol\":6770:6797  _allowances[owner][spender] */\n      0x00\n        /* \"@openzeppelin/contracts/token/ERC20/ERC20.sol\":6789:6796  spender */\n      dup7\n        /* \"@openzeppelin/contracts/token/ERC20/ERC20.sol\":6770:6797  _allowances[owner][spender] */\n      0xffffffffffffffffffffffffffffffffffffffff\n      and\n      0xffffffffffffffffffffffffffffffffffffffff\n      and\n      dup2\n      mstore\n      0x20\n      add\n      swap1\n      dup2\n      mstore\n      0x20\n      add\n      0x00\n      keccak256\n      sload\n        /* \"@openzeppelin/contracts/token/ERC20/ERC20.sol\":6743:6797  uint256 currentAllowance = _allowances[owner][spender] */\n      swap1\n      pop\n        /* \"@openzeppelin/contracts/token/ERC20/ERC20.sol\":6835:6850  subtractedValue */\n      dup4\n        /* \"@openzeppelin/contracts/token/ERC20/ERC20.sol\":6815:6831  currentAllowance */\n      dup2\n        /* \"@openzeppelin/contracts/token/ERC20/ERC20.sol\":6815:6850  currentAllowance >= subtractedValue */\n      lt\n      iszero\n        /* \"@openzeppelin/contracts/token/ERC20/ERC20.sol\":6807:6892  require(currentAllowance >= subtractedValue, \"ERC20: decreased allowance below zero\") */\n      tag_269\n      jumpi\n      mload(0x40)\n      0x08c379a000000000000000000000000000000000000000000000000000000000\n      dup2\n      mstore\n      0x04\n      add\n      tag_270\n      swap1\n      tag_271\n      jump\t// in\n    tag_270:\n      mload(0x40)\n      dup1\n      swap2\n      sub\n      swap1\n      revert\n    tag_269:\n        /* \"@openzeppelin/contracts/token/ERC20/ERC20.sol\":6926:6986  _approve(owner, spender, currentAllowance - subtractedValue) */\n      tag_272\n        /* \"@openzeppelin/contracts/token/ERC20/ERC20.sol\":6935:6940  owner */\n      dup3\n        /* \"@openzeppelin/contracts/token/ERC20/ERC20.sol\":6942:6949  spender */\n      dup7\n        /* \"@openzeppelin/contracts/token/ERC20/ERC20.sol\":6970:6985  subtractedValue */\n      dup7\n        /* \"@openzeppelin/contracts/token/ERC20/ERC20.sol\":6951:6967  currentAllowance */\n      dup5\n        /* \"@openzeppelin/contracts/token/ERC20/ERC20.sol\":6951:6985  currentAllowance - subtractedValue */\n      sub\n        /* \"@openzeppelin/contracts/token/ERC20/ERC20.sol\":6926:6934  _approve */\n      tag_193\n        /* \"@openzeppelin/contracts/token/ERC20/ERC20.sol\":6926:6986  _approve(owner, spender, currentAllowance - subtractedValue) */\n      jump\t// in\n    tag_272:\n        /* \"@openzeppelin/contracts/token/ERC20/ERC20.sol\":7014:7018  true */\n      0x01\n        /* \"@openzeppelin/contracts/token/ERC20/ERC20.sol\":7007:7018  return true */\n      swap3\n      pop\n      pop\n      pop\n        /* \"@openzeppelin/contracts/token/ERC20/ERC20.sol\":6596:7025  function decreaseAllowance(address spender, uint256 subtractedValue) public virtual returns (bool) {... */\n      swap3\n      swap2\n      pop\n      pop\n      jump\t// out\n        /* \"@openzeppelin/contracts/token/ERC20/ERC20.sol\":3729:3918  function transfer(address to, uint256 amount) public virtual override returns (bool) {... */\n    tag_153:\n        /* \"@openzeppelin/contracts/token/ERC20/ERC20.sol\":3808:3812  bool */\n      0x00\n        /* \"@openzeppelin/contracts/token/ERC20/ERC20.sol\":3824:3837  address owner */\n      dup1\n        /* \"@openzeppelin/contracts/token/ERC20/ERC20.sol\":3840:3852  _msgSender() */\n      tag_274\n        /* \"@openzeppelin/contracts/token/ERC20/ERC20.sol\":3840:3850  _msgSender */\n      tag_191\n        /* \"@openzeppelin/contracts/token/ERC20/ERC20.sol\":3840:3852  _msgSender() */\n      jump\t// in\n    tag_274:\n        /* \"@openzeppelin/contracts/token/ERC20/ERC20.sol\":3824:3852  address owner = _msgSender() */\n      swap1\n      pop\n        /* \"@openzeppelin/contracts/token/ERC20/ERC20.sol\":3862:3890  _transfer(owner, to, amount) */\n      tag_275\n        /* \"@openzeppelin/contracts/token/ERC20/ERC20.sol\":3872:3877  owner */\n      dup2\n        /* \"@openzeppelin/contracts/token/ERC20/ERC20.sol\":3879:3881  to */\n      dup6\n        /* \"@openzeppelin/contracts/token/ERC20/ERC20.sol\":3883:3889  amount */\n      dup6\n        /* \"@openzeppelin/contracts/token/ERC20/ERC20.sol\":3862:3871  _transfer */\n      tag_200\n        /* \"@openzeppelin/contracts/token/ERC20/ERC20.sol\":3862:3890  _transfer(owner, to, amount) */\n      jump\t// in\n    tag_275:\n        /* \"@openzeppelin/contracts/token/ERC20/ERC20.sol\":3907:3911  true */\n      0x01\n        /* \"@openzeppelin/contracts/token/ERC20/ERC20.sol\":3900:3911  return true */\n      swap2\n      pop\n      pop\n        /* \"@openzeppelin/contracts/token/ERC20/ERC20.sol\":3729:3918  function transfer(address to, uint256 amount) public virtual override returns (bool) {... */\n      swap3\n      swap2\n      pop\n      pop\n      jump\t// out\n        /* \"contracts/Claim.sol\":210:249  mapping(address => uint) public claimed */\n    tag_158:\n      mstore(0x20, 0x07)\n      dup1\n      0x00\n      mstore\n      keccak256(0x00, 0x40)\n      0x00\n      swap2\n      pop\n      swap1\n      pop\n      sload\n      dup2\n      jump\t// out\n        /* \"@openzeppelin/contracts/access/AccessControl.sol\":4766:4913  function revokeRole(bytes32 role, address account) public virtual override onlyRole(getRoleAdmin(role)) {... */\n    tag_163:\n        /* \"@openzeppelin/contracts/access/AccessControl.sol\":4850:4868  getRoleAdmin(role) */\n      tag_276\n        /* \"@openzeppelin/contracts/access/AccessControl.sol\":4863:4867  role */\n      dup3\n        /* \"@openzeppelin/contracts/access/AccessControl.sol\":4850:4862  getRoleAdmin */\n      tag_75\n        /* \"@openzeppelin/contracts/access/AccessControl.sol\":4850:4868  getRoleAdmin(role) */\n      jump\t// in\n    tag_276:\n        /* \"@openzeppelin/contracts/access/AccessControl.sol\":2505:2535  _checkRole(role, _msgSender()) */\n      tag_278\n        /* \"@openzeppelin/contracts/access/AccessControl.sol\":2516:2520  role */\n      dup2\n        /* \"@openzeppelin/contracts/access/AccessControl.sol\":2522:2534  _msgSender() */\n      tag_279\n        /* \"@openzeppelin/contracts/access/AccessControl.sol\":2522:2532  _msgSender */\n      tag_191\n        /* \"@openzeppelin/contracts/access/AccessControl.sol\":2522:2534  _msgSender() */\n      jump\t// in\n    tag_279:\n        /* \"@openzeppelin/contracts/access/AccessControl.sol\":2505:2515  _checkRole */\n      tag_206\n        /* \"@openzeppelin/contracts/access/AccessControl.sol\":2505:2535  _checkRole(role, _msgSender()) */\n      jump\t// in\n    tag_278:\n        /* \"@openzeppelin/contracts/access/AccessControl.sol\":4880:4906  _revokeRole(role, account) */\n      tag_281\n        /* \"@openzeppelin/contracts/access/AccessControl.sol\":4892:4896  role */\n      dup4\n        /* \"@openzeppelin/contracts/access/AccessControl.sol\":4898:4905  account */\n      dup4\n        /* \"@openzeppelin/contracts/access/AccessControl.sol\":4880:4891  _revokeRole */\n      tag_217\n        /* \"@openzeppelin/contracts/access/AccessControl.sol\":4880:4906  _revokeRole(role, account) */\n      jump\t// in\n    tag_281:\n        /* \"@openzeppelin/contracts/access/AccessControl.sol\":4766:4913  function revokeRole(bytes32 role, address account) public virtual override onlyRole(getRoleAdmin(role)) {... */\n      pop\n      pop\n      pop\n      jump\t// out\n        /* \"contracts/Token.sol\":404:457  uint public constant maxSupply = 100000000 * 10 ** 18 */\n    tag_166:\n        /* \"contracts/Token.sol\":437:457  100000000 * 10 ** 18 */\n      0x52b7d2dcc80cd2e4000000\n        /* \"contracts/Token.sol\":404:457  uint public constant maxSupply = 100000000 * 10 ** 18 */\n      dup2\n      jump\t// out\n        /* \"@openzeppelin/contracts/token/ERC20/ERC20.sol\":3976:4125  function allowance(address owner, address spender) public view virtual override returns (uint256) {... */\n    tag_172:\n        /* \"@openzeppelin/contracts/token/ERC20/ERC20.sol\":4065:4072  uint256 */\n      0x00\n        /* \"@openzeppelin/contracts/token/ERC20/ERC20.sol\":4091:4102  _allowances */\n      0x01\n        /* \"@openzeppelin/contracts/token/ERC20/ERC20.sol\":4091:4109  _allowances[owner] */\n      0x00\n        /* \"@openzeppelin/contracts/token/ERC20/ERC20.sol\":4103:4108  owner */\n      dup5\n        /* \"@openzeppelin/contracts/token/ERC20/ERC20.sol\":4091:4109  _allowances[owner] */\n      0xffffffffffffffffffffffffffffffffffffffff\n      and\n      0xffffffffffffffffffffffffffffffffffffffff\n      and\n      dup2\n      mstore\n      0x20\n      add\n      swap1\n      dup2\n      mstore\n      0x20\n      add\n      0x00\n      keccak256\n        /* \"@openzeppelin/contracts/token/ERC20/ERC20.sol\":4091:4118  _allowances[owner][spender] */\n      0x00\n        /* \"@openzeppelin/contracts/token/ERC20/ERC20.sol\":4110:4117  spender */\n      dup4\n        /* \"@openzeppelin/contracts/token/ERC20/ERC20.sol\":4091:4118  _allowances[owner][spender] */\n      0xffffffffffffffffffffffffffffffffffffffff\n      and\n      0xffffffffffffffffffffffffffffffffffffffff\n      and\n      dup2\n      mstore\n      0x20\n      add\n      swap1\n      dup2\n      mstore\n      0x20\n      add\n      0x00\n      keccak256\n      sload\n        /* \"@openzeppelin/contracts/token/ERC20/ERC20.sol\":4084:4118  return _allowances[owner][spender] */\n      swap1\n      pop\n        /* \"@openzeppelin/contracts/token/ERC20/ERC20.sol\":3976:4125  function allowance(address owner, address spender) public view virtual override returns (uint256) {... */\n      swap3\n      swap2\n      pop\n      pop\n      jump\t// out\n        /* \"contracts/Token.sol\":1561:1773  function removeClaimable(address _account, uint256 _amount) external {... */\n    tag_177:\n        /* \"contracts/Token.sol\":1648:1682  hasRole(REWARDER_ROLE, msg.sender) */\n      tag_284\n        /* \"contracts/Token.sol\":371:397  keccak256(\"REWARDER_ROLE\") */\n      0xbeec13769b5f410b0584f69811bfd923818456d5edcf426b0e31cf90eed7a3f6\n        /* \"contracts/Token.sol\":1671:1681  msg.sender */\n      caller\n        /* \"contracts/Token.sol\":1648:1655  hasRole */\n      tag_131\n        /* \"contracts/Token.sol\":1648:1682  hasRole(REWARDER_ROLE, msg.sender) */\n      jump\t// in\n    tag_284:\n        /* \"contracts/Token.sol\":1640:1711  require(hasRole(REWARDER_ROLE, msg.sender), \"Caller is not a rewarder\") */\n      tag_285\n      jumpi\n      mload(0x40)\n      0x08c379a000000000000000000000000000000000000000000000000000000000\n      dup2\n      mstore\n      0x04\n      add\n      tag_286\n      swap1\n      tag_242\n      jump\t// in\n    tag_286:\n      mload(0x40)\n      dup1\n      swap2\n      sub\n      swap1\n      revert\n    tag_285:\n        /* \"contracts/Token.sol\":1721:1766  removeUnclaimed(_account, _amount * 10 ** 18) */\n      tag_287\n        /* \"contracts/Token.sol\":1737:1745  _account */\n      dup3\n        /* \"contracts/Token.sol\":1757:1765  10 ** 18 */\n      0x0de0b6b3a7640000\n        /* \"contracts/Token.sol\":1747:1754  _amount */\n      dup4\n        /* \"contracts/Token.sol\":1747:1765  _amount * 10 ** 18 */\n      tag_288\n      swap2\n      swap1\n      tag_250\n      jump\t// in\n    tag_288:\n        /* \"contracts/Token.sol\":1721:1736  removeUnclaimed */\n      tag_289\n        /* \"contracts/Token.sol\":1721:1766  removeUnclaimed(_account, _amount * 10 ** 18) */\n      jump\t// in\n    tag_287:\n        /* \"contracts/Token.sol\":1561:1773  function removeClaimable(address _account, uint256 _amount) external {... */\n      pop\n      pop\n      jump\t// out\n        /* \"@openzeppelin/contracts/utils/introspection/ERC165.sol\":829:984  function supportsInterface(bytes4 interfaceId) public view virtual override returns (bool) {... */\n    tag_181:\n        /* \"@openzeppelin/contracts/utils/introspection/ERC165.sol\":914:918  bool */\n      0x00\n        /* \"@openzeppelin/contracts/utils/introspection/ERC165.sol\":952:977  type(IERC165).interfaceId */\n      0x01ffc9a700000000000000000000000000000000000000000000000000000000\n        /* \"@openzeppelin/contracts/utils/introspection/ERC165.sol\":937:977  interfaceId == type(IERC165).interfaceId */\n      not(0xffffffffffffffffffffffffffffffffffffffffffffffffffffffff)\n      and\n        /* \"@openzeppelin/contracts/utils/introspection/ERC165.sol\":937:948  interfaceId */\n      dup3\n        /* \"@openzeppelin/contracts/utils/introspection/ERC165.sol\":937:977  interfaceId == type(IERC165).interfaceId */\n      not(0xffffffffffffffffffffffffffffffffffffffffffffffffffffffff)\n      and\n      eq\n        /* \"@openzeppelin/contracts/utils/introspection/ERC165.sol\":930:977  return interfaceId == type(IERC165).interfaceId */\n      swap1\n      pop\n        /* \"@openzeppelin/contracts/utils/introspection/ERC165.sol\":829:984  function supportsInterface(bytes4 interfaceId) public view virtual override returns (bool) {... */\n      swap2\n      swap1\n      pop\n      jump\t// out\n        /* \"@openzeppelin/contracts/utils/Context.sol\":640:736  function _msgSender() internal view virtual returns (address) {... */\n    tag_191:\n        /* \"@openzeppelin/contracts/utils/Context.sol\":693:700  address */\n      0x00\n        /* \"@openzeppelin/contracts/utils/Context.sol\":719:729  msg.sender */\n      caller\n        /* \"@openzeppelin/contracts/utils/Context.sol\":712:729  return msg.sender */\n      swap1\n      pop\n        /* \"@openzeppelin/contracts/utils/Context.sol\":640:736  function _msgSender() internal view virtual returns (address) {... */\n      swap1\n      jump\t// out\n        /* \"@openzeppelin/contracts/token/ERC20/ERC20.sol\":10123:10493  function _approve(... */\n    tag_193:\n        /* \"@openzeppelin/contracts/token/ERC20/ERC20.sol\":10271:10272  0 */\n      0x00\n        /* \"@openzeppelin/contracts/token/ERC20/ERC20.sol\":10254:10273  owner != address(0) */\n      0xffffffffffffffffffffffffffffffffffffffff\n      and\n        /* \"@openzeppelin/contracts/token/ERC20/ERC20.sol\":10254:10259  owner */\n      dup4\n        /* \"@openzeppelin/contracts/token/ERC20/ERC20.sol\":10254:10273  owner != address(0) */\n      0xffffffffffffffffffffffffffffffffffffffff\n      and\n      eq\n      iszero\n        /* \"@openzeppelin/contracts/token/ERC20/ERC20.sol\":10246:10314  require(owner != address(0), \"ERC20: approve from the zero address\") */\n      tag_293\n      jumpi\n      mload(0x40)\n      0x08c379a000000000000000000000000000000000000000000000000000000000\n      dup2\n      mstore\n      0x04\n      add\n      tag_294\n      swap1\n      tag_295\n      jump\t// in\n    tag_294:\n      mload(0x40)\n      dup1\n      swap2\n      sub\n      swap1\n      revert\n    tag_293:\n        /* \"@openzeppelin/contracts/token/ERC20/ERC20.sol\":10351:10352  0 */\n      0x00\n        /* \"@openzeppelin/contracts/token/ERC20/ERC20.sol\":10332:10353  spender != address(0) */\n      0xffffffffffffffffffffffffffffffffffffffff\n      and\n        /* \"@openzeppelin/contracts/token/ERC20/ERC20.sol\":10332:10339  spender */\n      dup3\n        /* \"@openzeppelin/contracts/token/ERC20/ERC20.sol\":10332:10353  spender != address(0) */\n      0xffffffffffffffffffffffffffffffffffffffff\n      and\n      eq\n      iszero\n        /* \"@openzeppelin/contracts/token/ERC20/ERC20.sol\":10324:10392  require(spender != address(0), \"ERC20: approve to the zero address\") */\n      tag_296\n      jumpi\n      mload(0x40)\n      0x08c379a000000000000000000000000000000000000000000000000000000000\n      dup2\n      mstore\n      0x04\n      add\n      tag_297\n      swap1\n      tag_298\n      jump\t// in\n    tag_297:\n      mload(0x40)\n      dup1\n      swap2\n      sub\n      swap1\n      revert\n    tag_296:\n        /* \"@openzeppelin/contracts/token/ERC20/ERC20.sol\":10433:10439  amount */\n      dup1\n        /* \"@openzeppelin/contracts/token/ERC20/ERC20.sol\":10403:10414  _allowances */\n      0x01\n        /* \"@openzeppelin/contracts/token/ERC20/ERC20.sol\":10403:10421  _allowances[owner] */\n      0x00\n        /* \"@openzeppelin/contracts/token/ERC20/ERC20.sol\":10415:10420  owner */\n      dup6\n        /* \"@openzeppelin/contracts/token/ERC20/ERC20.sol\":10403:10421  _allowances[owner] */\n      0xffffffffffffffffffffffffffffffffffffffff\n      and\n      0xffffffffffffffffffffffffffffffffffffffff\n      and\n      dup2\n      mstore\n      0x20\n      add\n      swap1\n      dup2\n      mstore\n      0x20\n      add\n      0x00\n      keccak256\n        /* \"@openzeppelin/contracts/token/ERC20/ERC20.sol\":10403:10430  _allowances[owner][spender] */\n      0x00\n        /* \"@openzeppelin/contracts/token/ERC20/ERC20.sol\":10422:10429  spender */\n      dup5\n        /* \"@openzeppelin/contracts/token/ERC20/ERC20.sol\":10403:10430  _allowances[owner][spender] */\n      0xffffffffffffffffffffffffffffffffffffffff\n      and\n      0xffffffffffffffffffffffffffffffffffffffff\n      and\n      dup2\n      mstore\n      0x20\n      add\n      swap1\n      dup2\n      mstore\n      0x20\n      add\n      0x00\n      keccak256\n        /* \"@openzeppelin/contracts/token/ERC20/ERC20.sol\":10403:10439  _allowances[owner][spender] = amount */\n      dup2\n      swap1\n      sstore\n      pop\n        /* \"@openzeppelin/contracts/token/ERC20/ERC20.sol\":10470:10477  spender */\n      dup2\n        /* \"@openzeppelin/contracts/token/ERC20/ERC20.sol\":10454:10486  Approval(owner, spender, amount) */\n      0xffffffffffffffffffffffffffffffffffffffff\n      and\n        /* \"@openzeppelin/contracts/token/ERC20/ERC20.sol\":10463:10468  owner */\n      dup4\n        /* \"@openzeppelin/contracts/token/ERC20/ERC20.sol\":10454:10486  Approval(owner, spender, amount) */\n      0xffffffffffffffffffffffffffffffffffffffff\n      and\n      0x8c5be1e5ebec7d5bd14f71427d1e84f3dd0314c0f7b2291e5b200ac8c7c3b925\n        /* \"@openzeppelin/contracts/token/ERC20/ERC20.sol\":10479:10485  amount */\n      dup4\n        /* \"@openzeppelin/contracts/token/ERC20/ERC20.sol\":10454:10486  Approval(owner, spender, amount) */\n      mload(0x40)\n      tag_299\n      swap2\n      swap1\n      tag_60\n      jump\t// in\n    tag_299:\n      mload(0x40)\n      dup1\n      swap2\n      sub\n      swap1\n      log3\n        /* \"@openzeppelin/contracts/token/ERC20/ERC20.sol\":10123:10493  function _approve(... */\n      pop\n      pop\n      pop\n      jump\t// out\n        /* \"@openzeppelin/contracts/token/ERC20/ERC20.sol\":10770:11211  function _spendAllowance(... */\n    tag_198:\n        /* \"@openzeppelin/contracts/token/ERC20/ERC20.sol\":10900:10924  uint256 currentAllowance */\n      0x00\n        /* \"@openzeppelin/contracts/token/ERC20/ERC20.sol\":10927:10952  allowance(owner, spender) */\n      tag_301\n        /* \"@openzeppelin/contracts/token/ERC20/ERC20.sol\":10937:10942  owner */\n      dup5\n        /* \"@openzeppelin/contracts/token/ERC20/ERC20.sol\":10944:10951  spender */\n      dup5\n        /* \"@openzeppelin/contracts/token/ERC20/ERC20.sol\":10927:10936  allowance */\n      tag_172\n        /* \"@openzeppelin/contracts/token/ERC20/ERC20.sol\":10927:10952  allowance(owner, spender) */\n      jump\t// in\n    tag_301:\n        /* \"@openzeppelin/contracts/token/ERC20/ERC20.sol\":10900:10952  uint256 currentAllowance = allowance(owner, spender) */\n      swap1\n      pop\n        /* \"@openzeppelin/contracts/token/ERC20/ERC20.sol\":10986:11003  type(uint256).max */\n      0xffffffffffffffffffffffffffffffffffffffffffffffffffffffffffffffff\n        /* \"@openzeppelin/contracts/token/ERC20/ERC20.sol\":10966:10982  currentAllowance */\n      dup2\n        /* \"@openzeppelin/contracts/token/ERC20/ERC20.sol\":10966:11003  currentAllowance != type(uint256).max */\n      eq\n        /* \"@openzeppelin/contracts/token/ERC20/ERC20.sol\":10962:11205  if (currentAllowance != type(uint256).max) {... */\n      tag_302\n      jumpi\n        /* \"@openzeppelin/contracts/token/ERC20/ERC20.sol\":11047:11053  amount */\n      dup2\n        /* \"@openzeppelin/contracts/token/ERC20/ERC20.sol\":11027:11043  currentAllowance */\n      dup2\n        /* \"@openzeppelin/contracts/token/ERC20/ERC20.sol\":11027:11053  currentAllowance >= amount */\n      lt\n      iszero\n        /* \"@openzeppelin/contracts/token/ERC20/ERC20.sol\":11019:11087  require(currentAllowance >= amount, \"ERC20: insufficient allowance\") */\n      tag_303\n      jumpi\n      mload(0x40)\n      0x08c379a000000000000000000000000000000000000000000000000000000000\n      dup2\n      mstore\n      0x04\n      add\n      tag_304\n      swap1\n      tag_305\n      jump\t// in\n    tag_304:\n      mload(0x40)\n      dup1\n      swap2\n      sub\n      swap1\n      revert\n    tag_303:\n        /* \"@openzeppelin/contracts/token/ERC20/ERC20.sol\":11129:11180  _approve(owner, spender, currentAllowance - amount) */\n      tag_306\n        /* \"@openzeppelin/contracts/token/ERC20/ERC20.sol\":11138:11143  owner */\n      dup5\n        /* \"@openzeppelin/contracts/token/ERC20/ERC20.sol\":11145:11152  spender */\n      dup5\n        /* \"@openzeppelin/contracts/token/ERC20/ERC20.sol\":11173:11179  amount */\n      dup5\n        /* \"@openzeppelin/contracts/token/ERC20/ERC20.sol\":11154:11170  currentAllowance */\n      dup5\n        /* \"@openzeppelin/contracts/token/ERC20/ERC20.sol\":11154:11179  currentAllowance - amount */\n      sub\n        /* \"@openzeppelin/contracts/token/ERC20/ERC20.sol\":11129:11137  _approve */\n      tag_193\n        /* \"@openzeppelin/contracts/token/ERC20/ERC20.sol\":11129:11180  _approve(owner, spender, currentAllowance - amount) */\n      jump\t// in\n    tag_306:\n        /* \"@openzeppelin/contracts/token/ERC20/ERC20.sol\":10962:11205  if (currentAllowance != type(uint256).max) {... */\n    tag_302:\n        /* \"@openzeppelin/contracts/token/ERC20/ERC20.sol\":10890:11211  {... */\n      pop\n        /* \"@openzeppelin/contracts/token/ERC20/ERC20.sol\":10770:11211  function _spendAllowance(... */\n      pop\n      pop\n      pop\n      jump\t// out\n        /* \"@openzeppelin/contracts/token/ERC20/ERC20.sol\":7488:8139  function _transfer(... */\n    tag_200:\n        /* \"@openzeppelin/contracts/token/ERC20/ERC20.sol\":7630:7631  0 */\n      0x00\n        /* \"@openzeppelin/contracts/token/ERC20/ERC20.sol\":7614:7632  from != address(0) */\n      0xffffffffffffffffffffffffffffffffffffffff\n      and\n        /* \"@openzeppelin/contracts/token/ERC20/ERC20.sol\":7614:7618  from */\n      dup4\n        /* \"@openzeppelin/contracts/token/ERC20/ERC20.sol\":7614:7632  from != address(0) */\n      0xffffffffffffffffffffffffffffffffffffffff\n      and\n      eq\n      iszero\n        /* \"@openzeppelin/contracts/token/ERC20/ERC20.sol\":7606:7674  require(from != address(0), \"ERC20: transfer from the zero address\") */\n      tag_308\n      jumpi\n      mload(0x40)\n      0x08c379a000000000000000000000000000000000000000000000000000000000\n      dup2\n      mstore\n      0x04\n      add\n      tag_309\n      swap1\n      tag_310\n      jump\t// in\n    tag_309:\n      mload(0x40)\n      dup1\n      swap2\n      sub\n      swap1\n      revert\n    tag_308:\n        /* \"@openzeppelin/contracts/token/ERC20/ERC20.sol\":7706:7707  0 */\n      0x00\n        /* \"@openzeppelin/contracts/token/ERC20/ERC20.sol\":7692:7708  to != address(0) */\n      0xffffffffffffffffffffffffffffffffffffffff\n      and\n        /* \"@openzeppelin/contracts/token/ERC20/ERC20.sol\":7692:7694  to */\n      dup3\n        /* \"@openzeppelin/contracts/token/ERC20/ERC20.sol\":7692:7708  to != address(0) */\n      0xffffffffffffffffffffffffffffffffffffffff\n      and\n      eq\n      iszero\n        /* \"@openzeppelin/contracts/token/ERC20/ERC20.sol\":7684:7748  require(to != address(0), \"ERC20: transfer to the zero address\") */\n      tag_311\n      jumpi\n      mload(0x40)\n      0x08c379a000000000000000000000000000000000000000000000000000000000\n      dup2\n      mstore\n      0x04\n      add\n      tag_312\n      swap1\n      tag_313\n      jump\t// in\n    tag_312:\n      mload(0x40)\n      dup1\n      swap2\n      sub\n      swap1\n      revert\n    tag_311:\n        /* \"@openzeppelin/contracts/token/ERC20/ERC20.sol\":7759:7797  _beforeTokenTransfer(from, to, amount) */\n      tag_314\n        /* \"@openzeppelin/contracts/token/ERC20/ERC20.sol\":7780:7784  from */\n      dup4\n        /* \"@openzeppelin/contracts/token/ERC20/ERC20.sol\":7786:7788  to */\n      dup4\n        /* \"@openzeppelin/contracts/token/ERC20/ERC20.sol\":7790:7796  amount */\n      dup4\n        /* \"@openzeppelin/contracts/token/ERC20/ERC20.sol\":7759:7779  _beforeTokenTransfer */\n      tag_315\n        /* \"@openzeppelin/contracts/token/ERC20/ERC20.sol\":7759:7797  _beforeTokenTransfer(from, to, amount) */\n      jump\t// in\n    tag_314:\n        /* \"@openzeppelin/contracts/token/ERC20/ERC20.sol\":7808:7827  uint256 fromBalance */\n      0x00\n        /* \"@openzeppelin/contracts/token/ERC20/ERC20.sol\":7830:7839  _balances */\n      dup1\n        /* \"@openzeppelin/contracts/token/ERC20/ERC20.sol\":7830:7845  _balances[from] */\n      0x00\n        /* \"@openzeppelin/contracts/token/ERC20/ERC20.sol\":7840:7844  from */\n      dup6\n        /* \"@openzeppelin/contracts/token/ERC20/ERC20.sol\":7830:7845  _balances[from] */\n      0xffffffffffffffffffffffffffffffffffffffff\n      and\n      0xffffffffffffffffffffffffffffffffffffffff\n      and\n      dup2\n      mstore\n      0x20\n      add\n      swap1\n      dup2\n      mstore\n      0x20\n      add\n      0x00\n      keccak256\n      sload\n        /* \"@openzeppelin/contracts/token/ERC20/ERC20.sol\":7808:7845  uint256 fromBalance = _balances[from] */\n      swap1\n      pop\n        /* \"@openzeppelin/contracts/token/ERC20/ERC20.sol\":7878:7884  amount */\n      dup2\n        /* \"@openzeppelin/contracts/token/ERC20/ERC20.sol\":7863:7874  fromBalance */\n      dup2\n        /* \"@openzeppelin/contracts/token/ERC20/ERC20.sol\":7863:7884  fromBalance >= amount */\n      lt\n      iszero\n        /* \"@openzeppelin/contracts/token/ERC20/ERC20.sol\":7855:7927  require(fromBalance >= amount, \"ERC20: transfer amount exceeds balance\") */\n      tag_316\n      jumpi\n      mload(0x40)\n      0x08c379a000000000000000000000000000000000000000000000000000000000\n      dup2\n      mstore\n      0x04\n      add\n      tag_317\n      swap1\n      tag_318\n      jump\t// in\n    tag_317:\n      mload(0x40)\n      dup1\n      swap2\n      sub\n      swap1\n      revert\n    tag_316:\n        /* \"@openzeppelin/contracts/token/ERC20/ERC20.sol\":7993:7999  amount */\n      dup2\n        /* \"@openzeppelin/contracts/token/ERC20/ERC20.sol\":7979:7990  fromBalance */\n      dup2\n        /* \"@openzeppelin/contracts/token/ERC20/ERC20.sol\":7979:7999  fromBalance - amount */\n      sub\n        /* \"@openzeppelin/contracts/token/ERC20/ERC20.sol\":7961:7970  _balances */\n      0x00\n        /* \"@openzeppelin/contracts/token/ERC20/ERC20.sol\":7961:7976  _balances[from] */\n      dup1\n        /* \"@openzeppelin/contracts/token/ERC20/ERC20.sol\":7971:7975  from */\n      dup7\n        /* \"@openzeppelin/contracts/token/ERC20/ERC20.sol\":7961:7976  _balances[from] */\n      0xffffffffffffffffffffffffffffffffffffffff\n      and\n      0xffffffffffffffffffffffffffffffffffffffff\n      and\n      dup2\n      mstore\n      0x20\n      add\n      swap1\n      dup2\n      mstore\n      0x20\n      add\n      0x00\n      keccak256\n        /* \"@openzeppelin/contracts/token/ERC20/ERC20.sol\":7961:7999  _balances[from] = fromBalance - amount */\n      dup2\n      swap1\n      sstore\n      pop\n        /* \"@openzeppelin/contracts/token/ERC20/ERC20.sol\":8036:8042  amount */\n      dup2\n        /* \"@openzeppelin/contracts/token/ERC20/ERC20.sol\":8019:8028  _balances */\n      0x00\n        /* \"@openzeppelin/contracts/token/ERC20/ERC20.sol\":8019:8032  _balances[to] */\n      dup1\n        /* \"@openzeppelin/contracts/token/ERC20/ERC20.sol\":8029:8031  to */\n      dup6\n        /* \"@openzeppelin/contracts/token/ERC20/ERC20.sol\":8019:8032  _balances[to] */\n      0xffffffffffffffffffffffffffffffffffffffff\n      and\n      0xffffffffffffffffffffffffffffffffffffffff\n      and\n      dup2\n      mstore\n      0x20\n      add\n      swap1\n      dup2\n      mstore\n      0x20\n      add\n      0x00\n      keccak256\n      0x00\n        /* \"@openzeppelin/contracts/token/ERC20/ERC20.sol\":8019:8042  _balances[to] += amount */\n      dup3\n      dup3\n      sload\n      tag_319\n      swap2\n      swap1\n      tag_222\n      jump\t// in\n    tag_319:\n      swap3\n      pop\n      pop\n      dup2\n      swap1\n      sstore\n      pop\n        /* \"@openzeppelin/contracts/token/ERC20/ERC20.sol\":8073:8075  to */\n      dup3\n        /* \"@openzeppelin/contracts/token/ERC20/ERC20.sol\":8058:8084  Transfer(from, to, amount) */\n      0xffffffffffffffffffffffffffffffffffffffff\n      and\n        /* \"@openzeppelin/contracts/token/ERC20/ERC20.sol\":8067:8071  from */\n      dup5\n        /* \"@openzeppelin/contracts/token/ERC20/ERC20.sol\":8058:8084  Transfer(from, to, amount) */\n      0xffffffffffffffffffffffffffffffffffffffff\n      and\n      0xddf252ad1be2c89b69c2b068fc378daa952ba7f163c4a11628f55a4df523b3ef\n        /* \"@openzeppelin/contracts/token/ERC20/ERC20.sol\":8077:8083  amount */\n      dup5\n        /* \"@openzeppelin/contracts/token/ERC20/ERC20.sol\":8058:8084  Transfer(from, to, amount) */\n      mload(0x40)\n      tag_320\n      swap2\n      swap1\n      tag_60\n      jump\t// in\n    tag_320:\n      mload(0x40)\n      dup1\n      swap2\n      sub\n      swap1\n      log3\n        /* \"@openzeppelin/contracts/token/ERC20/ERC20.sol\":8095:8132  _afterTokenTransfer(from, to, amount) */\n      tag_321\n        /* \"@openzeppelin/contracts/token/ERC20/ERC20.sol\":8115:8119  from */\n      dup5\n        /* \"@openzeppelin/contracts/token/ERC20/ERC20.sol\":8121:8123  to */\n      dup5\n        /* \"@openzeppelin/contracts/token/ERC20/ERC20.sol\":8125:8131  amount */\n      dup5\n        /* \"@openzeppelin/contracts/token/ERC20/ERC20.sol\":8095:8114  _afterTokenTransfer */\n      tag_322\n        /* \"@openzeppelin/contracts/token/ERC20/ERC20.sol\":8095:8132  _afterTokenTransfer(from, to, amount) */\n      jump\t// in\n    tag_321:\n        /* \"@openzeppelin/contracts/token/ERC20/ERC20.sol\":7596:8139  {... */\n      pop\n        /* \"@openzeppelin/contracts/token/ERC20/ERC20.sol\":7488:8139  function _transfer(... */\n      pop\n      pop\n      pop\n      jump\t// out\n        /* \"@openzeppelin/contracts/access/AccessControl.sol\":3335:3827  function _checkRole(bytes32 role, address account) internal view virtual {... */\n    tag_206:\n        /* \"@openzeppelin/contracts/access/AccessControl.sol\":3423:3445  hasRole(role, account) */\n      tag_324\n        /* \"@openzeppelin/contracts/access/AccessControl.sol\":3431:3435  role */\n      dup3\n        /* \"@openzeppelin/contracts/access/AccessControl.sol\":3437:3444  account */\n      dup3\n        /* \"@openzeppelin/contracts/access/AccessControl.sol\":3423:3430  hasRole */\n      tag_131\n        /* \"@openzeppelin/contracts/access/AccessControl.sol\":3423:3445  hasRole(role, account) */\n      jump\t// in\n    tag_324:\n        /* \"@openzeppelin/contracts/access/AccessControl.sol\":3418:3821  if (!hasRole(role, account)) {... */\n      tag_325\n      jumpi\n        /* \"@openzeppelin/contracts/access/AccessControl.sol\":3606:3647  Strings.toHexString(uint160(account), 20) */\n      tag_326\n        /* \"@openzeppelin/contracts/access/AccessControl.sol\":3634:3641  account */\n      dup2\n        /* \"@openzeppelin/contracts/access/AccessControl.sol\":3606:3647  Strings.toHexString(uint160(account), 20) */\n      0xffffffffffffffffffffffffffffffffffffffff\n      and\n        /* \"@openzeppelin/contracts/access/AccessControl.sol\":3644:3646  20 */\n      0x14\n        /* \"@openzeppelin/contracts/access/AccessControl.sol\":3606:3625  Strings.toHexString */\n      tag_327\n        /* \"@openzeppelin/contracts/access/AccessControl.sol\":3606:3647  Strings.toHexString(uint160(account), 20) */\n      jump\t// in\n    tag_326:\n        /* \"@openzeppelin/contracts/access/AccessControl.sol\":3718:3756  Strings.toHexString(uint256(role), 32) */\n      tag_328\n        /* \"@openzeppelin/contracts/access/AccessControl.sol\":3746:3750  role */\n      dup4\n        /* \"@openzeppelin/contracts/access/AccessControl.sol\":3738:3751  uint256(role) */\n      0x00\n      shr\n        /* \"@openzeppelin/contracts/access/AccessControl.sol\":3753:3755  32 */\n      0x20\n        /* \"@openzeppelin/contracts/access/AccessControl.sol\":3718:3737  Strings.toHexString */\n      tag_327\n        /* \"@openzeppelin/contracts/access/AccessControl.sol\":3718:3756  Strings.toHexString(uint256(role), 32) */\n      jump\t// in\n    tag_328:\n        /* \"@openzeppelin/contracts/access/AccessControl.sol\":3513:3778  abi.encodePacked(... */\n      add(0x20, mload(0x40))\n      tag_329\n      swap3\n      swap2\n      swap1\n      tag_330\n      jump\t// in\n    tag_329:\n      mload(0x40)\n      0x20\n      dup2\n      dup4\n      sub\n      sub\n      dup2\n      mstore\n      swap1\n      0x40\n      mstore\n        /* \"@openzeppelin/contracts/access/AccessControl.sol\":3461:3810  revert(... */\n      mload(0x40)\n      0x08c379a000000000000000000000000000000000000000000000000000000000\n      dup2\n      mstore\n      0x04\n      add\n      tag_331\n      swap2\n      swap1\n      tag_49\n      jump\t// in\n    tag_331:\n      mload(0x40)\n      dup1\n      swap2\n      sub\n      swap1\n      revert\n        /* \"@openzeppelin/contracts/access/AccessControl.sol\":3418:3821  if (!hasRole(role, account)) {... */\n    tag_325:\n        /* \"@openzeppelin/contracts/access/AccessControl.sol\":3335:3827  function _checkRole(bytes32 role, address account) internal view virtual {... */\n      pop\n      pop\n      jump\t// out\n        /* \"@openzeppelin/contracts/access/AccessControl.sol\":6861:7094  function _grantRole(bytes32 role, address account) internal virtual {... */\n    tag_209:\n        /* \"@openzeppelin/contracts/access/AccessControl.sol\":6944:6966  hasRole(role, account) */\n      tag_333\n        /* \"@openzeppelin/contracts/access/AccessControl.sol\":6952:6956  role */\n      dup3\n        /* \"@openzeppelin/contracts/access/AccessControl.sol\":6958:6965  account */\n      dup3\n        /* \"@openzeppelin/contracts/access/AccessControl.sol\":6944:6951  hasRole */\n      tag_131\n        /* \"@openzeppelin/contracts/access/AccessControl.sol\":6944:6966  hasRole(role, account) */\n      jump\t// in\n    tag_333:\n        /* \"@openzeppelin/contracts/access/AccessControl.sol\":6939:7088  if (!hasRole(role, account)) {... */\n      tag_334\n      jumpi\n        /* \"@openzeppelin/contracts/access/AccessControl.sol\":7014:7018  true */\n      0x01\n        /* \"@openzeppelin/contracts/access/AccessControl.sol\":6982:6988  _roles */\n      0x05\n        /* \"@openzeppelin/contracts/access/AccessControl.sol\":6982:6994  _roles[role] */\n      0x00\n        /* \"@openzeppelin/contracts/access/AccessControl.sol\":6989:6993  role */\n      dup5\n        /* \"@openzeppelin/contracts/access/AccessControl.sol\":6982:6994  _roles[role] */\n      dup2\n      mstore\n      0x20\n      add\n      swap1\n      dup2\n      mstore\n      0x20\n      add\n      0x00\n      keccak256\n        /* \"@openzeppelin/contracts/access/AccessControl.sol\":6982:7002  _roles[role].members */\n      0x00\n      add\n        /* \"@openzeppelin/contracts/access/AccessControl.sol\":6982:7011  _roles[role].members[account] */\n      0x00\n        /* \"@openzeppelin/contracts/access/AccessControl.sol\":7003:7010  account */\n      dup4\n        /* \"@openzeppelin/contracts/access/AccessControl.sol\":6982:7011  _roles[role].members[account] */\n      0xffffffffffffffffffffffffffffffffffffffff\n      and\n      0xffffffffffffffffffffffffffffffffffffffff\n      and\n      dup2\n      mstore\n      0x20\n      add\n      swap1\n      dup2\n      mstore\n      0x20\n      add\n      0x00\n      keccak256\n      0x00\n        /* \"@openzeppelin/contracts/access/AccessControl.sol\":6982:7018  _roles[role].members[account] = true */\n      0x0100\n      exp\n      dup2\n      sload\n      dup2\n      0xff\n      mul\n      not\n      and\n      swap1\n      dup4\n      iszero\n      iszero\n      mul\n      or\n      swap1\n      sstore\n      pop\n        /* \"@openzeppelin/contracts/access/AccessControl.sol\":7064:7076  _msgSender() */\n      tag_335\n        /* \"@openzeppelin/contracts/access/AccessControl.sol\":7064:7074  _msgSender */\n      tag_191\n        /* \"@openzeppelin/contracts/access/AccessControl.sol\":7064:7076  _msgSender() */\n      jump\t// in\n    tag_335:\n        /* \"@openzeppelin/contracts/access/AccessControl.sol\":7037:7077  RoleGranted(role, account, _msgSender()) */\n      0xffffffffffffffffffffffffffffffffffffffff\n      and\n        /* \"@openzeppelin/contracts/access/AccessControl.sol\":7055:7062  account */\n      dup2\n        /* \"@openzeppelin/contracts/access/AccessControl.sol\":7037:7077  RoleGranted(role, account, _msgSender()) */\n      0xffffffffffffffffffffffffffffffffffffffff\n      and\n        /* \"@openzeppelin/contracts/access/AccessControl.sol\":7049:7053  role */\n      dup4\n        /* \"@openzeppelin/contracts/access/AccessControl.sol\":7037:7077  RoleGranted(role, account, _msgSender()) */\n      0x2f8788117e7eff1d82e926ec794901d17c78024a50270940304540a733656f0d\n      mload(0x40)\n      mload(0x40)\n      dup1\n      swap2\n      sub\n      swap1\n      log4\n        /* \"@openzeppelin/contracts/access/AccessControl.sol\":6939:7088  if (!hasRole(role, account)) {... */\n    tag_334:\n        /* \"@openzeppelin/contracts/access/AccessControl.sol\":6861:7094  function _grantRole(bytes32 role, address account) internal virtual {... */\n      pop\n      pop\n      jump\t// out\n        /* \"@openzeppelin/contracts/access/AccessControl.sol\":7219:7453  function _revokeRole(bytes32 role, address account) internal virtual {... */\n    tag_217:\n        /* \"@openzeppelin/contracts/access/AccessControl.sol\":7302:7324  hasRole(role, account) */\n      tag_337\n        /* \"@openzeppelin/contracts/access/AccessControl.sol\":7310:7314  role */\n      dup3\n        /* \"@openzeppelin/contracts/access/AccessControl.sol\":7316:7323  account */\n      dup3\n        /* \"@openzeppelin/contracts/access/AccessControl.sol\":7302:7309  hasRole */\n      tag_131\n        /* \"@openzeppelin/contracts/access/AccessControl.sol\":7302:7324  hasRole(role, account) */\n      jump\t// in\n    tag_337:\n        /* \"@openzeppelin/contracts/access/AccessControl.sol\":7298:7447  if (hasRole(role, account)) {... */\n      iszero\n      tag_338\n      jumpi\n        /* \"@openzeppelin/contracts/access/AccessControl.sol\":7372:7377  false */\n      0x00\n        /* \"@openzeppelin/contracts/access/AccessControl.sol\":7340:7346  _roles */\n      0x05\n        /* \"@openzeppelin/contracts/access/AccessControl.sol\":7340:7352  _roles[role] */\n      0x00\n        /* \"@openzeppelin/contracts/access/AccessControl.sol\":7347:7351  role */\n      dup5\n        /* \"@openzeppelin/contracts/access/AccessControl.sol\":7340:7352  _roles[role] */\n      dup2\n      mstore\n      0x20\n      add\n      swap1\n      dup2\n      mstore\n      0x20\n      add\n      0x00\n      keccak256\n        /* \"@openzeppelin/contracts/access/AccessControl.sol\":7340:7360  _roles[role].members */\n      0x00\n      add\n        /* \"@openzeppelin/contracts/access/AccessControl.sol\":7340:7369  _roles[role].members[account] */\n      0x00\n        /* \"@openzeppelin/contracts/access/AccessControl.sol\":7361:7368  account */\n      dup4\n        /* \"@openzeppelin/contracts/access/AccessControl.sol\":7340:7369  _roles[role].members[account] */\n      0xffffffffffffffffffffffffffffffffffffffff\n      and\n      0xffffffffffffffffffffffffffffffffffffffff\n      and\n      dup2\n      mstore\n      0x20\n      add\n      swap1\n      dup2\n      mstore\n      0x20\n      add\n      0x00\n      keccak256\n      0x00\n        /* \"@openzeppelin/contracts/access/AccessControl.sol\":7340:7377  _roles[role].members[account] = false */\n      0x0100\n      exp\n      dup2\n      sload\n      dup2\n      0xff\n      mul\n      not\n      and\n      swap1\n      dup4\n      iszero\n      iszero\n      mul\n      or\n      swap1\n      sstore\n      pop\n        /* \"@openzeppelin/contracts/access/AccessControl.sol\":7423:7435  _msgSender() */\n      tag_339\n        /* \"@openzeppelin/contracts/access/AccessControl.sol\":7423:7433  _msgSender */\n      tag_191\n        /* \"@openzeppelin/contracts/access/AccessControl.sol\":7423:7435  _msgSender() */\n      jump\t// in\n    tag_339:\n        /* \"@openzeppelin/contracts/access/AccessControl.sol\":7396:7436  RoleRevoked(role, account, _msgSender()) */\n      0xffffffffffffffffffffffffffffffffffffffff\n      and\n        /* \"@openzeppelin/contracts/access/AccessControl.sol\":7414:7421  account */\n      dup2\n        /* \"@openzeppelin/contracts/access/AccessControl.sol\":7396:7436  RoleRevoked(role, account, _msgSender()) */\n      0xffffffffffffffffffffffffffffffffffffffff\n      and\n        /* \"@openzeppelin/contracts/access/AccessControl.sol\":7408:7412  role */\n      dup4\n        /* \"@openzeppelin/contracts/access/AccessControl.sol\":7396:7436  RoleRevoked(role, account, _msgSender()) */\n      0xf6391f5c32d9c69d2a47ea670b442974b53935d1edc7fd64eb21e047a839171b\n      mload(0x40)\n      mload(0x40)\n      dup1\n      swap2\n      sub\n      swap1\n      log4\n        /* \"@openzeppelin/contracts/access/AccessControl.sol\":7298:7447  if (hasRole(role, account)) {... */\n    tag_338:\n        /* \"@openzeppelin/contracts/access/AccessControl.sol\":7219:7453  function _revokeRole(bytes32 role, address account) internal virtual {... */\n      pop\n      pop\n      jump\t// out\n        /* \"@openzeppelin/contracts/token/ERC20/ERC20.sol\":8415:8804  function _mint(address account, uint256 amount) internal virtual {... */\n    tag_233:\n        /* \"@openzeppelin/contracts/token/ERC20/ERC20.sol\":8517:8518  0 */\n      0x00\n        /* \"@openzeppelin/contracts/token/ERC20/ERC20.sol\":8498:8519  account != address(0) */\n      0xffffffffffffffffffffffffffffffffffffffff\n      and\n        /* \"@openzeppelin/contracts/token/ERC20/ERC20.sol\":8498:8505  account */\n      dup3\n        /* \"@openzeppelin/contracts/token/ERC20/ERC20.sol\":8498:8519  account != address(0) */\n      0xffffffffffffffffffffffffffffffffffffffff\n      and\n      eq\n      iszero\n        /* \"@openzeppelin/contracts/token/ERC20/ERC20.sol\":8490:8555  require(account != address(0), \"ERC20: mint to the zero address\") */\n      tag_341\n      jumpi\n      mload(0x40)\n      0x08c379a000000000000000000000000000000000000000000000000000000000\n      dup2\n      mstore\n      0x04\n      add\n      tag_342\n      swap1\n      tag_343\n      jump\t// in\n    tag_342:\n      mload(0x40)\n      dup1\n      swap2\n      sub\n      swap1\n      revert\n    tag_341:\n        /* \"@openzeppelin/contracts/token/ERC20/ERC20.sol\":8566:8615  _beforeTokenTransfer(address(0), account, amount) */\n      tag_344\n        /* \"@openzeppelin/contracts/token/ERC20/ERC20.sol\":8595:8596  0 */\n      0x00\n        /* \"@openzeppelin/contracts/token/ERC20/ERC20.sol\":8599:8606  account */\n      dup4\n        /* \"@openzeppelin/contracts/token/ERC20/ERC20.sol\":8608:8614  amount */\n      dup4\n        /* \"@openzeppelin/contracts/token/ERC20/ERC20.sol\":8566:8586  _beforeTokenTransfer */\n      tag_315\n        /* \"@openzeppelin/contracts/token/ERC20/ERC20.sol\":8566:8615  _beforeTokenTransfer(address(0), account, amount) */\n      jump\t// in\n    tag_344:\n        /* \"@openzeppelin/contracts/token/ERC20/ERC20.sol\":8642:8648  amount */\n      dup1\n        /* \"@openzeppelin/contracts/token/ERC20/ERC20.sol\":8626:8638  _totalSupply */\n      0x02\n      0x00\n        /* \"@openzeppelin/contracts/token/ERC20/ERC20.sol\":8626:8648  _totalSupply += amount */\n      dup3\n      dup3\n      sload\n      tag_345\n      swap2\n      swap1\n      tag_222\n      jump\t// in\n    tag_345:\n      swap3\n      pop\n      pop\n      dup2\n      swap1\n      sstore\n      pop\n        /* \"@openzeppelin/contracts/token/ERC20/ERC20.sol\":8680:8686  amount */\n      dup1\n        /* \"@openzeppelin/contracts/token/ERC20/ERC20.sol\":8658:8667  _balances */\n      0x00\n        /* \"@openzeppelin/contracts/token/ERC20/ERC20.sol\":8658:8676  _balances[account] */\n      dup1\n        /* \"@openzeppelin/contracts/token/ERC20/ERC20.sol\":8668:8675  account */\n      dup5\n        /* \"@openzeppelin/contracts/token/ERC20/ERC20.sol\":8658:8676  _balances[account] */\n      0xffffffffffffffffffffffffffffffffffffffff\n      and\n      0xffffffffffffffffffffffffffffffffffffffff\n      and\n      dup2\n      mstore\n      0x20\n      add\n      swap1\n      dup2\n      mstore\n      0x20\n      add\n      0x00\n      keccak256\n      0x00\n        /* \"@openzeppelin/contracts/token/ERC20/ERC20.sol\":8658:8686  _balances[account] += amount */\n      dup3\n      dup3\n      sload\n      tag_346\n      swap2\n      swap1\n      tag_222\n      jump\t// in\n    tag_346:\n      swap3\n      pop\n      pop\n      dup2\n      swap1\n      sstore\n      pop\n        /* \"@openzeppelin/contracts/token/ERC20/ERC20.sol\":8722:8729  account */\n      dup2\n        /* \"@openzeppelin/contracts/token/ERC20/ERC20.sol\":8701:8738  Transfer(address(0), account, amount) */\n      0xffffffffffffffffffffffffffffffffffffffff\n      and\n        /* \"@openzeppelin/contracts/token/ERC20/ERC20.sol\":8718:8719  0 */\n      0x00\n        /* \"@openzeppelin/contracts/token/ERC20/ERC20.sol\":8701:8738  Transfer(address(0), account, amount) */\n      0xffffffffffffffffffffffffffffffffffffffff\n      and\n      0xddf252ad1be2c89b69c2b068fc378daa952ba7f163c4a11628f55a4df523b3ef\n        /* \"@openzeppelin/contracts/token/ERC20/ERC20.sol\":8731:8737  amount */\n      dup4\n        /* \"@openzeppelin/contracts/token/ERC20/ERC20.sol\":8701:8738  Transfer(address(0), account, amount) */\n      mload(0x40)\n      tag_347\n      swap2\n      swap1\n      tag_60\n      jump\t// in\n    tag_347:\n      mload(0x40)\n      dup1\n      swap2\n      sub\n      swap1\n      log3\n        /* \"@openzeppelin/contracts/token/ERC20/ERC20.sol\":8749:8797  _afterTokenTransfer(address(0), account, amount) */\n      tag_348\n        /* \"@openzeppelin/contracts/token/ERC20/ERC20.sol\":8777:8778  0 */\n      0x00\n        /* \"@openzeppelin/contracts/token/ERC20/ERC20.sol\":8781:8788  account */\n      dup4\n        /* \"@openzeppelin/contracts/token/ERC20/ERC20.sol\":8790:8796  amount */\n      dup4\n        /* \"@openzeppelin/contracts/token/ERC20/ERC20.sol\":8749:8768  _afterTokenTransfer */\n      tag_322\n        /* \"@openzeppelin/contracts/token/ERC20/ERC20.sol\":8749:8797  _afterTokenTransfer(address(0), account, amount) */\n      jump\t// in\n    tag_348:\n        /* \"@openzeppelin/contracts/token/ERC20/ERC20.sol\":8415:8804  function _mint(address account, uint256 amount) internal virtual {... */\n      pop\n      pop\n      jump\t// out\n        /* \"contracts/Claim.sol\":429:536  function addUnclaimed(address _account, uint256 _amt) internal {... */\n    tag_251:\n        /* \"contracts/Claim.sol\":525:529  _amt */\n      dup1\n        /* \"contracts/Claim.sol\":502:511  unclaimed */\n      0x06\n        /* \"contracts/Claim.sol\":502:521  unclaimed[_account] */\n      0x00\n        /* \"contracts/Claim.sol\":512:520  _account */\n      dup5\n        /* \"contracts/Claim.sol\":502:521  unclaimed[_account] */\n      0xffffffffffffffffffffffffffffffffffffffff\n      and\n      0xffffffffffffffffffffffffffffffffffffffff\n      and\n      dup2\n      mstore\n      0x20\n      add\n      swap1\n      dup2\n      mstore\n      0x20\n      add\n      0x00\n      keccak256\n      0x00\n        /* \"contracts/Claim.sol\":502:529  unclaimed[_account] += _amt */\n      dup3\n      dup3\n      sload\n      tag_350\n      swap2\n      swap1\n      tag_222\n      jump\t// in\n    tag_350:\n      swap3\n      pop\n      pop\n      dup2\n      swap1\n      sstore\n      pop\n        /* \"contracts/Claim.sol\":429:536  function addUnclaimed(address _account, uint256 _amt) internal {... */\n      pop\n      pop\n      jump\t// out\n        /* \"@openzeppelin/contracts/token/ERC20/ERC20.sol\":9124:9700  function _burn(address account, uint256 amount) internal virtual {... */\n    tag_266:\n        /* \"@openzeppelin/contracts/token/ERC20/ERC20.sol\":9226:9227  0 */\n      0x00\n        /* \"@openzeppelin/contracts/token/ERC20/ERC20.sol\":9207:9228  account != address(0) */\n      0xffffffffffffffffffffffffffffffffffffffff\n      and\n        /* \"@openzeppelin/contracts/token/ERC20/ERC20.sol\":9207:9214  account */\n      dup3\n        /* \"@openzeppelin/contracts/token/ERC20/ERC20.sol\":9207:9228  account != address(0) */\n      0xffffffffffffffffffffffffffffffffffffffff\n      and\n      eq\n      iszero\n        /* \"@openzeppelin/contracts/token/ERC20/ERC20.sol\":9199:9266  require(account != address(0), \"ERC20: burn from the zero address\") */\n      tag_352\n      jumpi\n      mload(0x40)\n      0x08c379a000000000000000000000000000000000000000000000000000000000\n      dup2\n      mstore\n      0x04\n      add\n      tag_353\n      swap1\n      tag_354\n      jump\t// in\n    tag_353:\n      mload(0x40)\n      dup1\n      swap2\n      sub\n      swap1\n      revert\n    tag_352:\n        /* \"@openzeppelin/contracts/token/ERC20/ERC20.sol\":9277:9326  _beforeTokenTransfer(account, address(0), amount) */\n      tag_355\n        /* \"@openzeppelin/contracts/token/ERC20/ERC20.sol\":9298:9305  account */\n      dup3\n        /* \"@openzeppelin/contracts/token/ERC20/ERC20.sol\":9315:9316  0 */\n      0x00\n        /* \"@openzeppelin/contracts/token/ERC20/ERC20.sol\":9319:9325  amount */\n      dup4\n        /* \"@openzeppelin/contracts/token/ERC20/ERC20.sol\":9277:9297  _beforeTokenTransfer */\n      tag_315\n        /* \"@openzeppelin/contracts/token/ERC20/ERC20.sol\":9277:9326  _beforeTokenTransfer(account, address(0), amount) */\n      jump\t// in\n    tag_355:\n        /* \"@openzeppelin/contracts/token/ERC20/ERC20.sol\":9337:9359  uint256 accountBalance */\n      0x00\n        /* \"@openzeppelin/contracts/token/ERC20/ERC20.sol\":9362:9371  _balances */\n      dup1\n        /* \"@openzeppelin/contracts/token/ERC20/ERC20.sol\":9362:9380  _balances[account] */\n      0x00\n        /* \"@openzeppelin/contracts/token/ERC20/ERC20.sol\":9372:9379  account */\n      dup5\n        /* \"@openzeppelin/contracts/token/ERC20/ERC20.sol\":9362:9380  _balances[account] */\n      0xffffffffffffffffffffffffffffffffffffffff\n      and\n      0xffffffffffffffffffffffffffffffffffffffff\n      and\n      dup2\n      mstore\n      0x20\n      add\n      swap1\n      dup2\n      mstore\n      0x20\n      add\n      0x00\n      keccak256\n      sload\n        /* \"@openzeppelin/contracts/token/ERC20/ERC20.sol\":9337:9380  uint256 accountBalance = _balances[account] */\n      swap1\n      pop\n        /* \"@openzeppelin/contracts/token/ERC20/ERC20.sol\":9416:9422  amount */\n      dup2\n        /* \"@openzeppelin/contracts/token/ERC20/ERC20.sol\":9398:9412  accountBalance */\n      dup2\n        /* \"@openzeppelin/contracts/token/ERC20/ERC20.sol\":9398:9422  accountBalance >= amount */\n      lt\n      iszero\n        /* \"@openzeppelin/contracts/token/ERC20/ERC20.sol\":9390:9461  require(accountBalance >= amount, \"ERC20: burn amount exceeds balance\") */\n      tag_356\n      jumpi\n      mload(0x40)\n      0x08c379a000000000000000000000000000000000000000000000000000000000\n      dup2\n      mstore\n      0x04\n      add\n      tag_357\n      swap1\n      tag_358\n      jump\t// in\n    tag_357:\n      mload(0x40)\n      dup1\n      swap2\n      sub\n      swap1\n      revert\n    tag_356:\n        /* \"@openzeppelin/contracts/token/ERC20/ERC20.sol\":9533:9539  amount */\n      dup2\n        /* \"@openzeppelin/contracts/token/ERC20/ERC20.sol\":9516:9530  accountBalance */\n      dup2\n        /* \"@openzeppelin/contracts/token/ERC20/ERC20.sol\":9516:9539  accountBalance - amount */\n      sub\n        /* \"@openzeppelin/contracts/token/ERC20/ERC20.sol\":9495:9504  _balances */\n      0x00\n        /* \"@openzeppelin/contracts/token/ERC20/ERC20.sol\":9495:9513  _balances[account] */\n      dup1\n        /* \"@openzeppelin/contracts/token/ERC20/ERC20.sol\":9505:9512  account */\n      dup6\n        /* \"@openzeppelin/contracts/token/ERC20/ERC20.sol\":9495:9513  _balances[account] */\n      0xffffffffffffffffffffffffffffffffffffffff\n      and\n      0xffffffffffffffffffffffffffffffffffffffff\n      and\n      dup2\n      mstore\n      0x20\n      add\n      swap1\n      dup2\n      mstore\n      0x20\n      add\n      0x00\n      keccak256\n        /* \"@openzeppelin/contracts/token/ERC20/ERC20.sol\":9495:9539  _balances[account] = accountBalance - amount */\n      dup2\n      swap1\n      sstore\n      pop\n        /* \"@openzeppelin/contracts/token/ERC20/ERC20.sol\":9575:9581  amount */\n      dup2\n        /* \"@openzeppelin/contracts/token/ERC20/ERC20.sol\":9559:9571  _totalSupply */\n      0x02\n      0x00\n        /* \"@openzeppelin/contracts/token/ERC20/ERC20.sol\":9559:9581  _totalSupply -= amount */\n      dup3\n      dup3\n      sload\n      tag_359\n      swap2\n      swap1\n      tag_228\n      jump\t// in\n    tag_359:\n      swap3\n      pop\n      pop\n      dup2\n      swap1\n      sstore\n      pop\n        /* \"@openzeppelin/contracts/token/ERC20/ERC20.sol\":9623:9624  0 */\n      0x00\n        /* \"@openzeppelin/contracts/token/ERC20/ERC20.sol\":9597:9634  Transfer(account, address(0), amount) */\n      0xffffffffffffffffffffffffffffffffffffffff\n      and\n        /* \"@openzeppelin/contracts/token/ERC20/ERC20.sol\":9606:9613  account */\n      dup4\n        /* \"@openzeppelin/contracts/token/ERC20/ERC20.sol\":9597:9634  Transfer(account, address(0), amount) */\n      0xffffffffffffffffffffffffffffffffffffffff\n      and\n      0xddf252ad1be2c89b69c2b068fc378daa952ba7f163c4a11628f55a4df523b3ef\n        /* \"@openzeppelin/contracts/token/ERC20/ERC20.sol\":9627:9633  amount */\n      dup5\n        /* \"@openzeppelin/contracts/token/ERC20/ERC20.sol\":9597:9634  Transfer(account, address(0), amount) */\n      mload(0x40)\n      tag_360\n      swap2\n      swap1\n      tag_60\n      jump\t// in\n    tag_360:\n      mload(0x40)\n      dup1\n      swap2\n      sub\n      swap1\n      log3\n        /* \"@openzeppelin/contracts/token/ERC20/ERC20.sol\":9645:9693  _afterTokenTransfer(account, address(0), amount) */\n      tag_361\n        /* \"@openzeppelin/contracts/token/ERC20/ERC20.sol\":9665:9672  account */\n      dup4\n        /* \"@openzeppelin/contracts/token/ERC20/ERC20.sol\":9682:9683  0 */\n      0x00\n        /* \"@openzeppelin/contracts/token/ERC20/ERC20.sol\":9686:9692  amount */\n      dup5\n        /* \"@openzeppelin/contracts/token/ERC20/ERC20.sol\":9645:9664  _afterTokenTransfer */\n      tag_322\n        /* \"@openzeppelin/contracts/token/ERC20/ERC20.sol\":9645:9693  _afterTokenTransfer(account, address(0), amount) */\n      jump\t// in\n    tag_361:\n        /* \"@openzeppelin/contracts/token/ERC20/ERC20.sol\":9189:9700  {... */\n      pop\n        /* \"@openzeppelin/contracts/token/ERC20/ERC20.sol\":9124:9700  function _burn(address account, uint256 amount) internal virtual {... */\n      pop\n      pop\n      jump\t// out\n        /* \"contracts/Claim.sol\":715:931  function removeUnclaimed(address _account, uint256 _amt) internal {... */\n    tag_289:\n        /* \"contracts/Claim.sol\":807:816  unclaimed */\n      0x06\n        /* \"contracts/Claim.sol\":807:826  unclaimed[_account] */\n      0x00\n        /* \"contracts/Claim.sol\":817:825  _account */\n      dup4\n        /* \"contracts/Claim.sol\":807:826  unclaimed[_account] */\n      0xffffffffffffffffffffffffffffffffffffffff\n      and\n      0xffffffffffffffffffffffffffffffffffffffff\n      and\n      dup2\n      mstore\n      0x20\n      add\n      swap1\n      dup2\n      mstore\n      0x20\n      add\n      0x00\n      keccak256\n      sload\n        /* \"contracts/Claim.sol\":799:803  _amt */\n      dup2\n        /* \"contracts/Claim.sol\":799:826  _amt <= unclaimed[_account] */\n      gt\n      iszero\n        /* \"contracts/Claim.sol\":791:887  require(_amt <= unclaimed[_account], \"Amount to remove cannot be greater than unclaimed amount\") */\n      tag_363\n      jumpi\n      mload(0x40)\n      0x08c379a000000000000000000000000000000000000000000000000000000000\n      dup2\n      mstore\n      0x04\n      add\n      tag_364\n      swap1\n      tag_365\n      jump\t// in\n    tag_364:\n      mload(0x40)\n      dup1\n      swap2\n      sub\n      swap1\n      revert\n    tag_363:\n        /* \"contracts/Claim.sol\":920:924  _amt */\n      dup1\n        /* \"contracts/Claim.sol\":897:906  unclaimed */\n      0x06\n        /* \"contracts/Claim.sol\":897:916  unclaimed[_account] */\n      0x00\n        /* \"contracts/Claim.sol\":907:915  _account */\n      dup5\n        /* \"contracts/Claim.sol\":897:916  unclaimed[_account] */\n      0xffffffffffffffffffffffffffffffffffffffff\n      and\n      0xffffffffffffffffffffffffffffffffffffffff\n      and\n      dup2\n      mstore\n      0x20\n      add\n      swap1\n      dup2\n      mstore\n      0x20\n      add\n      0x00\n      keccak256\n      0x00\n        /* \"contracts/Claim.sol\":897:924  unclaimed[_account] -= _amt */\n      dup3\n      dup3\n      sload\n      tag_366\n      swap2\n      swap1\n      tag_228\n      jump\t// in\n    tag_366:\n      swap3\n      pop\n      pop\n      dup2\n      swap1\n      sstore\n      pop\n        /* \"contracts/Claim.sol\":715:931  function removeUnclaimed(address _account, uint256 _amt) internal {... */\n      pop\n      pop\n      jump\t// out\n        /* \"@openzeppelin/contracts/token/ERC20/ERC20.sol\":11795:11916  function _beforeTokenTransfer(... */\n    tag_315:\n      pop\n      pop\n      pop\n      jump\t// out\n        /* \"@openzeppelin/contracts/token/ERC20/ERC20.sol\":12504:12624  function _afterTokenTransfer(... */\n    tag_322:\n      pop\n      pop\n      pop\n      jump\t// out\n        /* \"@openzeppelin/contracts/utils/Strings.sol\":1588:2029  function toHexString(uint256 value, uint256 length) internal pure returns (string memory) {... */\n    tag_327:\n        /* \"@openzeppelin/contracts/utils/Strings.sol\":1663:1676  string memory */\n      0x60\n        /* \"@openzeppelin/contracts/utils/Strings.sol\":1688:1707  bytes memory buffer */\n      0x00\n        /* \"@openzeppelin/contracts/utils/Strings.sol\":1733:1734  2 */\n      0x02\n        /* \"@openzeppelin/contracts/utils/Strings.sol\":1724:1730  length */\n      dup4\n        /* \"@openzeppelin/contracts/utils/Strings.sol\":1720:1721  2 */\n      0x02\n        /* \"@openzeppelin/contracts/utils/Strings.sol\":1720:1730  2 * length */\n      tag_370\n      swap2\n      swap1\n      tag_250\n      jump\t// in\n    tag_370:\n        /* \"@openzeppelin/contracts/utils/Strings.sol\":1720:1734  2 * length + 2 */\n      tag_371\n      swap2\n      swap1\n      tag_222\n      jump\t// in\n    tag_371:\n        /* \"@openzeppelin/contracts/utils/Strings.sol\":1710:1735  new bytes(2 * length + 2) */\n      0xffffffffffffffff\n      dup2\n      gt\n      iszero\n      tag_372\n      jumpi\n      tag_373\n      tag_374\n      jump\t// in\n    tag_373:\n    tag_372:\n      mload(0x40)\n      swap1\n      dup1\n      dup3\n      mstore\n      dup1\n      0x1f\n      add\n      not(0x1f)\n      and\n      0x20\n      add\n      dup3\n      add\n      0x40\n      mstore\n      dup1\n      iszero\n      tag_375\n      jumpi\n      dup2\n      0x20\n      add\n      0x01\n      dup3\n      mul\n      dup1\n      calldatasize\n      dup4\n      calldatacopy\n      dup1\n      dup3\n      add\n      swap2\n      pop\n      pop\n      swap1\n      pop\n    tag_375:\n      pop\n        /* \"@openzeppelin/contracts/utils/Strings.sol\":1688:1735  bytes memory buffer = new bytes(2 * length + 2) */\n      swap1\n      pop\n        /* \"@openzeppelin/contracts/utils/Strings.sol\":1745:1760  buffer[0] = \"0\" */\n      0x3000000000000000000000000000000000000000000000000000000000000000\n        /* \"@openzeppelin/contracts/utils/Strings.sol\":1745:1751  buffer */\n      dup2\n        /* \"@openzeppelin/contracts/utils/Strings.sol\":1752:1753  0 */\n      0x00\n        /* \"@openzeppelin/contracts/utils/Strings.sol\":1745:1754  buffer[0] */\n      dup2\n      mload\n      dup2\n      lt\n      tag_376\n      jumpi\n      tag_377\n      tag_378\n      jump\t// in\n    tag_377:\n    tag_376:\n      0x20\n      add\n      add\n        /* \"@openzeppelin/contracts/utils/Strings.sol\":1745:1760  buffer[0] = \"0\" */\n      swap1\n      not(0xffffffffffffffffffffffffffffffffffffffffffffffffffffffffffffff)\n      and\n      swap1\n      dup2\n      0x00\n      byte\n      swap1\n      mstore8\n      pop\n        /* \"@openzeppelin/contracts/utils/Strings.sol\":1770:1785  buffer[1] = \"x\" */\n      0x7800000000000000000000000000000000000000000000000000000000000000\n        /* \"@openzeppelin/contracts/utils/Strings.sol\":1770:1776  buffer */\n      dup2\n        /* \"@openzeppelin/contracts/utils/Strings.sol\":1777:1778  1 */\n      0x01\n        /* \"@openzeppelin/contracts/utils/Strings.sol\":1770:1779  buffer[1] */\n      dup2\n      mload\n      dup2\n      lt\n      tag_379\n      jumpi\n      tag_380\n      tag_378\n      jump\t// in\n    tag_380:\n    tag_379:\n      0x20\n      add\n      add\n        /* \"@openzeppelin/contracts/utils/Strings.sol\":1770:1785  buffer[1] = \"x\" */\n      swap1\n      not(0xffffffffffffffffffffffffffffffffffffffffffffffffffffffffffffff)\n      and\n      swap1\n      dup2\n      0x00\n      byte\n      swap1\n      mstore8\n      pop\n        /* \"@openzeppelin/contracts/utils/Strings.sol\":1800:1809  uint256 i */\n      0x00\n        /* \"@openzeppelin/contracts/utils/Strings.sol\":1825:1826  1 */\n      0x01\n        /* \"@openzeppelin/contracts/utils/Strings.sol\":1816:1822  length */\n      dup5\n        /* \"@openzeppelin/contracts/utils/Strings.sol\":1812:1813  2 */\n      0x02\n        /* \"@openzeppelin/contracts/utils/Strings.sol\":1812:1822  2 * length */\n      tag_384\n      swap2\n      swap1\n      tag_250\n      jump\t// in\n    tag_384:\n        /* \"@openzeppelin/contracts/utils/Strings.sol\":1812:1826  2 * length + 1 */\n      tag_385\n      swap2\n      swap1\n      tag_222\n      jump\t// in\n    tag_385:\n        /* \"@openzeppelin/contracts/utils/Strings.sol\":1800:1826  uint256 i = 2 * length + 1 */\n      swap1\n      pop\n        /* \"@openzeppelin/contracts/utils/Strings.sol\":1795:1927  for (uint256 i = 2 * length + 1; i > 1; --i) {... */\n    tag_381:\n        /* \"@openzeppelin/contracts/utils/Strings.sol\":1832:1833  1 */\n      0x01\n        /* \"@openzeppelin/contracts/utils/Strings.sol\":1828:1829  i */\n      dup2\n        /* \"@openzeppelin/contracts/utils/Strings.sol\":1828:1833  i > 1 */\n      gt\n        /* \"@openzeppelin/contracts/utils/Strings.sol\":1795:1927  for (uint256 i = 2 * length + 1; i > 1; --i) {... */\n      iszero\n      tag_382\n      jumpi\n        /* \"@openzeppelin/contracts/utils/Strings.sol\":1866:1878  _HEX_SYMBOLS */\n      0x3031323334353637383961626364656600000000000000000000000000000000\n        /* \"@openzeppelin/contracts/utils/Strings.sol\":1887:1890  0xf */\n      0x0f\n        /* \"@openzeppelin/contracts/utils/Strings.sol\":1879:1884  value */\n      dup7\n        /* \"@openzeppelin/contracts/utils/Strings.sol\":1879:1890  value & 0xf */\n      and\n        /* \"@openzeppelin/contracts/utils/Strings.sol\":1866:1891  _HEX_SYMBOLS[value & 0xf] */\n      0x10\n      dup2\n      lt\n      tag_386\n      jumpi\n      tag_387\n      tag_378\n      jump\t// in\n    tag_387:\n    tag_386:\n      byte\n      0xf8\n      shl\n        /* \"@openzeppelin/contracts/utils/Strings.sol\":1854:1860  buffer */\n      dup3\n        /* \"@openzeppelin/contracts/utils/Strings.sol\":1861:1862  i */\n      dup3\n        /* \"@openzeppelin/contracts/utils/Strings.sol\":1854:1863  buffer[i] */\n      dup2\n      mload\n      dup2\n      lt\n      tag_388\n      jumpi\n      tag_389\n      tag_378\n      jump\t// in\n    tag_389:\n    tag_388:\n      0x20\n      add\n      add\n        /* \"@openzeppelin/contracts/utils/Strings.sol\":1854:1891  buffer[i] = _HEX_SYMBOLS[value & 0xf] */\n      swap1\n      not(0xffffffffffffffffffffffffffffffffffffffffffffffffffffffffffffff)\n      and\n      swap1\n      dup2\n      0x00\n      byte\n      swap1\n      mstore8\n      pop\n        /* \"@openzeppelin/contracts/utils/Strings.sol\":1915:1916  4 */\n      0x04\n        /* \"@openzeppelin/contracts/utils/Strings.sol\":1905:1916  value >>= 4 */\n      dup6\n      swap1\n      shr\n      swap5\n      pop\n        /* \"@openzeppelin/contracts/utils/Strings.sol\":1835:1838  --i */\n      dup1\n      tag_390\n      swap1\n      tag_391\n      jump\t// in\n    tag_390:\n      swap1\n      pop\n        /* \"@openzeppelin/contracts/utils/Strings.sol\":1795:1927  for (uint256 i = 2 * length + 1; i > 1; --i) {... */\n      jump(tag_381)\n    tag_382:\n      pop\n        /* \"@openzeppelin/contracts/utils/Strings.sol\":1953:1954  0 */\n      0x00\n        /* \"@openzeppelin/contracts/utils/Strings.sol\":1944:1949  value */\n      dup5\n        /* \"@openzeppelin/contracts/utils/Strings.sol\":1944:1954  value == 0 */\n      eq\n        /* \"@openzeppelin/contracts/utils/Strings.sol\":1936:1991  require(value == 0, \"Strings: hex length insufficient\") */\n      tag_392\n      jumpi\n      mload(0x40)\n      0x08c379a000000000000000000000000000000000000000000000000000000000\n      dup2\n      mstore\n      0x04\n      add\n      tag_393\n      swap1\n      tag_394\n      jump\t// in\n    tag_393:\n      mload(0x40)\n      dup1\n      swap2\n      sub\n      swap1\n      revert\n    tag_392:\n        /* \"@openzeppelin/contracts/utils/Strings.sol\":2015:2021  buffer */\n      dup1\n        /* \"@openzeppelin/contracts/utils/Strings.sol\":2001:2022  return string(buffer) */\n      swap2\n      pop\n      pop\n        /* \"@openzeppelin/contracts/utils/Strings.sol\":1588:2029  function toHexString(uint256 value, uint256 length) internal pure returns (string memory) {... */\n      swap3\n      swap2\n      pop\n      pop\n      jump\t// out\n        /* \"#utility.yul\":7:146   */\n    tag_396:\n        /* \"#utility.yul\":53:58   */\n      0x00\n        /* \"#utility.yul\":91:97   */\n      dup2\n        /* \"#utility.yul\":78:98   */\n      calldataload\n        /* \"#utility.yul\":69:98   */\n      swap1\n      pop\n        /* \"#utility.yul\":107:140   */\n      tag_398\n        /* \"#utility.yul\":134:139   */\n      dup2\n        /* \"#utility.yul\":107:140   */\n      tag_399\n      jump\t// in\n    tag_398:\n        /* \"#utility.yul\":7:146   */\n      swap3\n      swap2\n      pop\n      pop\n      jump\t// out\n        /* \"#utility.yul\":152:291   */\n    tag_400:\n        /* \"#utility.yul\":198:203   */\n      0x00\n        /* \"#utility.yul\":236:242   */\n      dup2\n        /* \"#utility.yul\":223:243   */\n      calldataload\n        /* \"#utility.yul\":214:243   */\n      swap1\n      pop\n        /* \"#utility.yul\":252:285   */\n      tag_402\n        /* \"#utility.yul\":279:284   */\n      dup2\n        /* \"#utility.yul\":252:285   */\n      tag_403\n      jump\t// in\n    tag_402:\n        /* \"#utility.yul\":152:291   */\n      swap3\n      swap2\n      pop\n      pop\n      jump\t// out\n        /* \"#utility.yul\":297:434   */\n    tag_404:\n        /* \"#utility.yul\":342:347   */\n      0x00\n        /* \"#utility.yul\":380:386   */\n      dup2\n        /* \"#utility.yul\":367:387   */\n      calldataload\n        /* \"#utility.yul\":358:387   */\n      swap1\n      pop\n        /* \"#utility.yul\":396:428   */\n      tag_406\n        /* \"#utility.yul\":422:427   */\n      dup2\n        /* \"#utility.yul\":396:428   */\n      tag_407\n      jump\t// in\n    tag_406:\n        /* \"#utility.yul\":297:434   */\n      swap3\n      swap2\n      pop\n      pop\n      jump\t// out\n        /* \"#utility.yul\":440:579   */\n    tag_408:\n        /* \"#utility.yul\":486:491   */\n      0x00\n        /* \"#utility.yul\":524:530   */\n      dup2\n        /* \"#utility.yul\":511:531   */\n      calldataload\n        /* \"#utility.yul\":502:531   */\n      swap1\n      pop\n        /* \"#utility.yul\":540:573   */\n      tag_410\n        /* \"#utility.yul\":567:572   */\n      dup2\n        /* \"#utility.yul\":540:573   */\n      tag_411\n      jump\t// in\n    tag_410:\n        /* \"#utility.yul\":440:579   */\n      swap3\n      swap2\n      pop\n      pop\n      jump\t// out\n        /* \"#utility.yul\":585:914   */\n    tag_106:\n        /* \"#utility.yul\":644:650   */\n      0x00\n        /* \"#utility.yul\":693:695   */\n      0x20\n        /* \"#utility.yul\":681:690   */\n      dup3\n        /* \"#utility.yul\":672:679   */\n      dup5\n        /* \"#utility.yul\":668:691   */\n      sub\n        /* \"#utility.yul\":664:696   */\n      slt\n        /* \"#utility.yul\":661:780   */\n      iszero\n      tag_413\n      jumpi\n        /* \"#utility.yul\":699:778   */\n      tag_414\n      tag_415\n      jump\t// in\n    tag_414:\n        /* \"#utility.yul\":661:780   */\n    tag_413:\n        /* \"#utility.yul\":819:820   */\n      0x00\n        /* \"#utility.yul\":844:897   */\n      tag_416\n        /* \"#utility.yul\":889:896   */\n      dup5\n        /* \"#utility.yul\":880:886   */\n      dup3\n        /* \"#utility.yul\":869:878   */\n      dup6\n        /* \"#utility.yul\":865:887   */\n      add\n        /* \"#utility.yul\":844:897   */\n      tag_396\n      jump\t// in\n    tag_416:\n        /* \"#utility.yul\":834:897   */\n      swap2\n      pop\n        /* \"#utility.yul\":790:907   */\n      pop\n        /* \"#utility.yul\":585:914   */\n      swap3\n      swap2\n      pop\n      pop\n      jump\t// out\n        /* \"#utility.yul\":920:1394   */\n    tag_171:\n        /* \"#utility.yul\":988:994   */\n      0x00\n        /* \"#utility.yul\":996:1002   */\n      dup1\n        /* \"#utility.yul\":1045:1047   */\n      0x40\n        /* \"#utility.yul\":1033:1042   */\n      dup4\n        /* \"#utility.yul\":1024:1031   */\n      dup6\n        /* \"#utility.yul\":1020:1043   */\n      sub\n        /* \"#utility.yul\":1016:1048   */\n      slt\n        /* \"#utility.yul\":1013:1132   */\n      iszero\n      tag_418\n      jumpi\n        /* \"#utility.yul\":1051:1130   */\n      tag_419\n      tag_415\n      jump\t// in\n    tag_419:\n        /* \"#utility.yul\":1013:1132   */\n    tag_418:\n        /* \"#utility.yul\":1171:1172   */\n      0x00\n        /* \"#utility.yul\":1196:1249   */\n      tag_420\n        /* \"#utility.yul\":1241:1248   */\n      dup6\n        /* \"#utility.yul\":1232:1238   */\n      dup3\n        /* \"#utility.yul\":1221:1230   */\n      dup7\n        /* \"#utility.yul\":1217:1239   */\n      add\n        /* \"#utility.yul\":1196:1249   */\n      tag_396\n      jump\t// in\n    tag_420:\n        /* \"#utility.yul\":1186:1249   */\n      swap3\n      pop\n        /* \"#utility.yul\":1142:1259   */\n      pop\n        /* \"#utility.yul\":1298:1300   */\n      0x20\n        /* \"#utility.yul\":1324:1377   */\n      tag_421\n        /* \"#utility.yul\":1369:1376   */\n      dup6\n        /* \"#utility.yul\":1360:1366   */\n      dup3\n        /* \"#utility.yul\":1349:1358   */\n      dup7\n        /* \"#utility.yul\":1345:1367   */\n      add\n        /* \"#utility.yul\":1324:1377   */\n      tag_396\n      jump\t// in\n    tag_421:\n        /* \"#utility.yul\":1314:1377   */\n      swap2\n      pop\n        /* \"#utility.yul\":1269:1387   */\n      pop\n        /* \"#utility.yul\":920:1394   */\n      swap3\n      pop\n      swap3\n      swap1\n      pop\n      jump\t// out\n        /* \"#utility.yul\":1400:2019   */\n    tag_68:\n        /* \"#utility.yul\":1477:1483   */\n      0x00\n        /* \"#utility.yul\":1485:1491   */\n      dup1\n        /* \"#utility.yul\":1493:1499   */\n      0x00\n        /* \"#utility.yul\":1542:1544   */\n      0x60\n        /* \"#utility.yul\":1530:1539   */\n      dup5\n        /* \"#utility.yul\":1521:1528   */\n      dup7\n        /* \"#utility.yul\":1517:1540   */\n      sub\n        /* \"#utility.yul\":1513:1545   */\n      slt\n        /* \"#utility.yul\":1510:1629   */\n      iszero\n      tag_423\n      jumpi\n        /* \"#utility.yul\":1548:1627   */\n      tag_424\n      tag_415\n      jump\t// in\n    tag_424:\n        /* \"#utility.yul\":1510:1629   */\n    tag_423:\n        /* \"#utility.yul\":1668:1669   */\n      0x00\n        /* \"#utility.yul\":1693:1746   */\n      tag_425\n        /* \"#utility.yul\":1738:1745   */\n      dup7\n        /* \"#utility.yul\":1729:1735   */\n      dup3\n        /* \"#utility.yul\":1718:1727   */\n      dup8\n        /* \"#utility.yul\":1714:1736   */\n      add\n        /* \"#utility.yul\":1693:1746   */\n      tag_396\n      jump\t// in\n    tag_425:\n        /* \"#utility.yul\":1683:1746   */\n      swap4\n      pop\n        /* \"#utility.yul\":1639:1756   */\n      pop\n        /* \"#utility.yul\":1795:1797   */\n      0x20\n        /* \"#utility.yul\":1821:1874   */\n      tag_426\n        /* \"#utility.yul\":1866:1873   */\n      dup7\n        /* \"#utility.yul\":1857:1863   */\n      dup3\n        /* \"#utility.yul\":1846:1855   */\n      dup8\n        /* \"#utility.yul\":1842:1864   */\n      add\n        /* \"#utility.yul\":1821:1874   */\n      tag_396\n      jump\t// in\n    tag_426:\n        /* \"#utility.yul\":1811:1874   */\n      swap3\n      pop\n        /* \"#utility.yul\":1766:1884   */\n      pop\n        /* \"#utility.yul\":1923:1925   */\n      0x40\n        /* \"#utility.yul\":1949:2002   */\n      tag_427\n        /* \"#utility.yul\":1994:2001   */\n      dup7\n        /* \"#utility.yul\":1985:1991   */\n      dup3\n        /* \"#utility.yul\":1974:1983   */\n      dup8\n        /* \"#utility.yul\":1970:1992   */\n      add\n        /* \"#utility.yul\":1949:2002   */\n      tag_408\n      jump\t// in\n    tag_427:\n        /* \"#utility.yul\":1939:2002   */\n      swap2\n      pop\n        /* \"#utility.yul\":1894:2012   */\n      pop\n        /* \"#utility.yul\":1400:2019   */\n      swap3\n      pop\n      swap3\n      pop\n      swap3\n      jump\t// out\n        /* \"#utility.yul\":2025:2499   */\n    tag_53:\n        /* \"#utility.yul\":2093:2099   */\n      0x00\n        /* \"#utility.yul\":2101:2107   */\n      dup1\n        /* \"#utility.yul\":2150:2152   */\n      0x40\n        /* \"#utility.yul\":2138:2147   */\n      dup4\n        /* \"#utility.yul\":2129:2136   */\n      dup6\n        /* \"#utility.yul\":2125:2148   */\n      sub\n        /* \"#utility.yul\":2121:2153   */\n      slt\n        /* \"#utility.yul\":2118:2237   */\n      iszero\n      tag_429\n      jumpi\n        /* \"#utility.yul\":2156:2235   */\n      tag_430\n      tag_415\n      jump\t// in\n    tag_430:\n        /* \"#utility.yul\":2118:2237   */\n    tag_429:\n        /* \"#utility.yul\":2276:2277   */\n      0x00\n        /* \"#utility.yul\":2301:2354   */\n      tag_431\n        /* \"#utility.yul\":2346:2353   */\n      dup6\n        /* \"#utility.yul\":2337:2343   */\n      dup3\n        /* \"#utility.yul\":2326:2335   */\n      dup7\n        /* \"#utility.yul\":2322:2344   */\n      add\n        /* \"#utility.yul\":2301:2354   */\n      tag_396\n      jump\t// in\n    tag_431:\n        /* \"#utility.yul\":2291:2354   */\n      swap3\n      pop\n        /* \"#utility.yul\":2247:2364   */\n      pop\n        /* \"#utility.yul\":2403:2405   */\n      0x20\n        /* \"#utility.yul\":2429:2482   */\n      tag_432\n        /* \"#utility.yul\":2474:2481   */\n      dup6\n        /* \"#utility.yul\":2465:2471   */\n      dup3\n        /* \"#utility.yul\":2454:2463   */\n      dup7\n        /* \"#utility.yul\":2450:2472   */\n      add\n        /* \"#utility.yul\":2429:2482   */\n      tag_408\n      jump\t// in\n    tag_432:\n        /* \"#utility.yul\":2419:2482   */\n      swap2\n      pop\n        /* \"#utility.yul\":2374:2492   */\n      pop\n        /* \"#utility.yul\":2025:2499   */\n      swap3\n      pop\n      swap3\n      swap1\n      pop\n      jump\t// out\n        /* \"#utility.yul\":2505:2834   */\n    tag_74:\n        /* \"#utility.yul\":2564:2570   */\n      0x00\n        /* \"#utility.yul\":2613:2615   */\n      0x20\n        /* \"#utility.yul\":2601:2610   */\n      dup3\n        /* \"#utility.yul\":2592:2599   */\n      dup5\n        /* \"#utility.yul\":2588:2611   */\n      sub\n        /* \"#utility.yul\":2584:2616   */\n      slt\n        /* \"#utility.yul\":2581:2700   */\n      iszero\n      tag_434\n      jumpi\n        /* \"#utility.yul\":2619:2698   */\n      tag_435\n      tag_415\n      jump\t// in\n    tag_435:\n        /* \"#utility.yul\":2581:2700   */\n    tag_434:\n        /* \"#utility.yul\":2739:2740   */\n      0x00\n        /* \"#utility.yul\":2764:2817   */\n      tag_436\n        /* \"#utility.yul\":2809:2816   */\n      dup5\n        /* \"#utility.yul\":2800:2806   */\n      dup3\n        /* \"#utility.yul\":2789:2798   */\n      dup6\n        /* \"#utility.yul\":2785:2807   */\n      add\n        /* \"#utility.yul\":2764:2817   */\n      tag_400\n      jump\t// in\n    tag_436:\n        /* \"#utility.yul\":2754:2817   */\n      swap2\n      pop\n        /* \"#utility.yul\":2710:2827   */\n      pop\n        /* \"#utility.yul\":2505:2834   */\n      swap3\n      swap2\n      pop\n      pop\n      jump\t// out\n        /* \"#utility.yul\":2840:3314   */\n    tag_85:\n        /* \"#utility.yul\":2908:2914   */\n      0x00\n        /* \"#utility.yul\":2916:2922   */\n      dup1\n        /* \"#utility.yul\":2965:2967   */\n      0x40\n        /* \"#utility.yul\":2953:2962   */\n      dup4\n        /* \"#utility.yul\":2944:2951   */\n      dup6\n        /* \"#utility.yul\":2940:2963   */\n      sub\n        /* \"#utility.yul\":2936:2968   */\n      slt\n        /* \"#utility.yul\":2933:3052   */\n      iszero\n      tag_438\n      jumpi\n        /* \"#utility.yul\":2971:3050   */\n      tag_439\n      tag_415\n      jump\t// in\n    tag_439:\n        /* \"#utility.yul\":2933:3052   */\n    tag_438:\n        /* \"#utility.yul\":3091:3092   */\n      0x00\n        /* \"#utility.yul\":3116:3169   */\n      tag_440\n        /* \"#utility.yul\":3161:3168   */\n      dup6\n        /* \"#utility.yul\":3152:3158   */\n      dup3\n        /* \"#utility.yul\":3141:3150   */\n      dup7\n        /* \"#utility.yul\":3137:3159   */\n      add\n        /* \"#utility.yul\":3116:3169   */\n      tag_400\n      jump\t// in\n    tag_440:\n        /* \"#utility.yul\":3106:3169   */\n      swap3\n      pop\n        /* \"#utility.yul\":3062:3179   */\n      pop\n        /* \"#utility.yul\":3218:3220   */\n      0x20\n        /* \"#utility.yul\":3244:3297   */\n      tag_441\n        /* \"#utility.yul\":3289:3296   */\n      dup6\n        /* \"#utility.yul\":3280:3286   */\n      dup3\n        /* \"#utility.yul\":3269:3278   */\n      dup7\n        /* \"#utility.yul\":3265:3287   */\n      add\n        /* \"#utility.yul\":3244:3297   */\n      tag_396\n      jump\t// in\n    tag_441:\n        /* \"#utility.yul\":3234:3297   */\n      swap2\n      pop\n        /* \"#utility.yul\":3189:3307   */\n      pop\n        /* \"#utility.yul\":2840:3314   */\n      swap3\n      pop\n      swap3\n      swap1\n      pop\n      jump\t// out\n        /* \"#utility.yul\":3320:3647   */\n    tag_41:\n        /* \"#utility.yul\":3378:3384   */\n      0x00\n        /* \"#utility.yul\":3427:3429   */\n      0x20\n        /* \"#utility.yul\":3415:3424   */\n      dup3\n        /* \"#utility.yul\":3406:3413   */\n      dup5\n        /* \"#utility.yul\":3402:3425   */\n      sub\n        /* \"#utility.yul\":3398:3430   */\n      slt\n        /* \"#utility.yul\":3395:3514   */\n      iszero\n      tag_443\n      jumpi\n        /* \"#utility.yul\":3433:3512   */\n      tag_444\n      tag_415\n      jump\t// in\n    tag_444:\n        /* \"#utility.yul\":3395:3514   */\n    tag_443:\n        /* \"#utility.yul\":3553:3554   */\n      0x00\n        /* \"#utility.yul\":3578:3630   */\n      tag_445\n        /* \"#utility.yul\":3622:3629   */\n      dup5\n        /* \"#utility.yul\":3613:3619   */\n      dup3\n        /* \"#utility.yul\":3602:3611   */\n      dup6\n        /* \"#utility.yul\":3598:3620   */\n      add\n        /* \"#utility.yul\":3578:3630   */\n      tag_404\n      jump\t// in\n    tag_445:\n        /* \"#utility.yul\":3568:3630   */\n      swap2\n      pop\n        /* \"#utility.yul\":3524:3640   */\n      pop\n        /* \"#utility.yul\":3320:3647   */\n      swap3\n      swap2\n      pop\n      pop\n      jump\t// out\n        /* \"#utility.yul\":3653:4127   */\n    tag_117:\n        /* \"#utility.yul\":3721:3727   */\n      0x00\n        /* \"#utility.yul\":3729:3735   */\n      dup1\n        /* \"#utility.yul\":3778:3780   */\n      0x40\n        /* \"#utility.yul\":3766:3775   */\n      dup4\n        /* \"#utility.yul\":3757:3764   */\n      dup6\n        /* \"#utility.yul\":3753:3776   */\n      sub\n        /* \"#utility.yul\":3749:3781   */\n      slt\n        /* \"#utility.yul\":3746:3865   */\n      iszero\n      tag_447\n      jumpi\n        /* \"#utility.yul\":3784:3863   */\n      tag_448\n      tag_415\n      jump\t// in\n    tag_448:\n        /* \"#utility.yul\":3746:3865   */\n    tag_447:\n        /* \"#utility.yul\":3904:3905   */\n      0x00\n        /* \"#utility.yul\":3929:3982   */\n      tag_449\n        /* \"#utility.yul\":3974:3981   */\n      dup6\n        /* \"#utility.yul\":3965:3971   */\n      dup3\n        /* \"#utility.yul\":3954:3963   */\n      dup7\n        /* \"#utility.yul\":3950:3972   */\n      add\n        /* \"#utility.yul\":3929:3982   */\n      tag_408\n      jump\t// in\n    tag_449:\n        /* \"#utility.yul\":3919:3982   */\n      swap3\n      pop\n        /* \"#utility.yul\":3875:3992   */\n      pop\n        /* \"#utility.yul\":4031:4033   */\n      0x20\n        /* \"#utility.yul\":4057:4110   */\n      tag_450\n        /* \"#utility.yul\":4102:4109   */\n      dup6\n        /* \"#utility.yul\":4093:4099   */\n      dup3\n        /* \"#utility.yul\":4082:4091   */\n      dup7\n        /* \"#utility.yul\":4078:4100   */\n      add\n        /* \"#utility.yul\":4057:4110   */\n      tag_408\n      jump\t// in\n    tag_450:\n        /* \"#utility.yul\":4047:4110   */\n      swap2\n      pop\n        /* \"#utility.yul\":4002:4120   */\n      pop\n        /* \"#utility.yul\":3653:4127   */\n      swap3\n      pop\n      swap3\n      swap1\n      pop\n      jump\t// out\n        /* \"#utility.yul\":4133:4242   */\n    tag_451:\n        /* \"#utility.yul\":4214:4235   */\n      tag_453\n        /* \"#utility.yul\":4229:4234   */\n      dup2\n        /* \"#utility.yul\":4214:4235   */\n      tag_454\n      jump\t// in\n    tag_453:\n        /* \"#utility.yul\":4209:4212   */\n      dup3\n        /* \"#utility.yul\":4202:4236   */\n      mstore\n        /* \"#utility.yul\":4133:4242   */\n      pop\n      pop\n      jump\t// out\n        /* \"#utility.yul\":4248:4366   */\n    tag_455:\n        /* \"#utility.yul\":4335:4359   */\n      tag_457\n        /* \"#utility.yul\":4353:4358   */\n      dup2\n        /* \"#utility.yul\":4335:4359   */\n      tag_458\n      jump\t// in\n    tag_457:\n        /* \"#utility.yul\":4330:4333   */\n      dup3\n        /* \"#utility.yul\":4323:4360   */\n      mstore\n        /* \"#utility.yul\":4248:4366   */\n      pop\n      pop\n      jump\t// out\n        /* \"#utility.yul\":4372:4736   */\n    tag_459:\n        /* \"#utility.yul\":4460:4463   */\n      0x00\n        /* \"#utility.yul\":4488:4527   */\n      tag_461\n        /* \"#utility.yul\":4521:4526   */\n      dup3\n        /* \"#utility.yul\":4488:4527   */\n      tag_462\n      jump\t// in\n    tag_461:\n        /* \"#utility.yul\":4543:4614   */\n      tag_463\n        /* \"#utility.yul\":4607:4613   */\n      dup2\n        /* \"#utility.yul\":4602:4605   */\n      dup6\n        /* \"#utility.yul\":4543:4614   */\n      tag_464\n      jump\t// in\n    tag_463:\n        /* \"#utility.yul\":4536:4614   */\n      swap4\n      pop\n        /* \"#utility.yul\":4623:4675   */\n      tag_465\n        /* \"#utility.yul\":4668:4674   */\n      dup2\n        /* \"#utility.yul\":4663:4666   */\n      dup6\n        /* \"#utility.yul\":4656:4660   */\n      0x20\n        /* \"#utility.yul\":4649:4654   */\n      dup7\n        /* \"#utility.yul\":4645:4661   */\n      add\n        /* \"#utility.yul\":4623:4675   */\n      tag_466\n      jump\t// in\n    tag_465:\n        /* \"#utility.yul\":4700:4729   */\n      tag_467\n        /* \"#utility.yul\":4722:4728   */\n      dup2\n        /* \"#utility.yul\":4700:4729   */\n      tag_468\n      jump\t// in\n    tag_467:\n        /* \"#utility.yul\":4695:4698   */\n      dup5\n        /* \"#utility.yul\":4691:4730   */\n      add\n        /* \"#utility.yul\":4684:4730   */\n      swap2\n      pop\n        /* \"#utility.yul\":4464:4736   */\n      pop\n        /* \"#utility.yul\":4372:4736   */\n      swap3\n      swap2\n      pop\n      pop\n      jump\t// out\n        /* \"#utility.yul\":4742:5119   */\n    tag_469:\n        /* \"#utility.yul\":4848:4851   */\n      0x00\n        /* \"#utility.yul\":4876:4915   */\n      tag_471\n        /* \"#utility.yul\":4909:4914   */\n      dup3\n        /* \"#utility.yul\":4876:4915   */\n      tag_462\n      jump\t// in\n    tag_471:\n        /* \"#utility.yul\":4931:5020   */\n      tag_472\n        /* \"#utility.yul\":5013:5019   */\n      dup2\n        /* \"#utility.yul\":5008:5011   */\n      dup6\n        /* \"#utility.yul\":4931:5020   */\n      tag_473\n      jump\t// in\n    tag_472:\n        /* \"#utility.yul\":4924:5020   */\n      swap4\n      pop\n        /* \"#utility.yul\":5029:5081   */\n      tag_474\n        /* \"#utility.yul\":5074:5080   */\n      dup2\n        /* \"#utility.yul\":5069:5072   */\n      dup6\n        /* \"#utility.yul\":5062:5066   */\n      0x20\n        /* \"#utility.yul\":5055:5060   */\n      dup7\n        /* \"#utility.yul\":5051:5067   */\n      add\n        /* \"#utility.yul\":5029:5081   */\n      tag_466\n      jump\t// in\n    tag_474:\n        /* \"#utility.yul\":5106:5112   */\n      dup1\n        /* \"#utility.yul\":5101:5104   */\n      dup5\n        /* \"#utility.yul\":5097:5113   */\n      add\n        /* \"#utility.yul\":5090:5113   */\n      swap2\n      pop\n        /* \"#utility.yul\":4852:5119   */\n      pop\n        /* \"#utility.yul\":4742:5119   */\n      swap3\n      swap2\n      pop\n      pop\n      jump\t// out\n        /* \"#utility.yul\":5125:5491   */\n    tag_475:\n        /* \"#utility.yul\":5267:5270   */\n      0x00\n        /* \"#utility.yul\":5288:5355   */\n      tag_477\n        /* \"#utility.yul\":5352:5354   */\n      0x20\n        /* \"#utility.yul\":5347:5350   */\n      dup4\n        /* \"#utility.yul\":5288:5355   */\n      tag_464\n      jump\t// in\n    tag_477:\n        /* \"#utility.yul\":5281:5355   */\n      swap2\n      pop\n        /* \"#utility.yul\":5364:5457   */\n      tag_478\n        /* \"#utility.yul\":5453:5456   */\n      dup3\n        /* \"#utility.yul\":5364:5457   */\n      tag_479\n      jump\t// in\n    tag_478:\n        /* \"#utility.yul\":5482:5484   */\n      0x20\n        /* \"#utility.yul\":5477:5480   */\n      dup3\n        /* \"#utility.yul\":5473:5485   */\n      add\n        /* \"#utility.yul\":5466:5485   */\n      swap1\n      pop\n        /* \"#utility.yul\":5125:5491   */\n      swap2\n      swap1\n      pop\n      jump\t// out\n        /* \"#utility.yul\":5497:5863   */\n    tag_480:\n        /* \"#utility.yul\":5639:5642   */\n      0x00\n        /* \"#utility.yul\":5660:5727   */\n      tag_482\n        /* \"#utility.yul\":5724:5726   */\n      0x23\n        /* \"#utility.yul\":5719:5722   */\n      dup4\n        /* \"#utility.yul\":5660:5727   */\n      tag_464\n      jump\t// in\n    tag_482:\n        /* \"#utility.yul\":5653:5727   */\n      swap2\n      pop\n        /* \"#utility.yul\":5736:5829   */\n      tag_483\n        /* \"#utility.yul\":5825:5828   */\n      dup3\n        /* \"#utility.yul\":5736:5829   */\n      tag_484\n      jump\t// in\n    tag_483:\n        /* \"#utility.yul\":5854:5856   */\n      0x40\n        /* \"#utility.yul\":5849:5852   */\n      dup3\n        /* \"#utility.yul\":5845:5857   */\n      add\n        /* \"#utility.yul\":5838:5857   */\n      swap1\n      pop\n        /* \"#utility.yul\":5497:5863   */\n      swap2\n      swap1\n      pop\n      jump\t// out\n        /* \"#utility.yul\":5869:6235   */\n    tag_485:\n        /* \"#utility.yul\":6011:6014   */\n      0x00\n        /* \"#utility.yul\":6032:6099   */\n      tag_487\n        /* \"#utility.yul\":6096:6098   */\n      0x38\n        /* \"#utility.yul\":6091:6094   */\n      dup4\n        /* \"#utility.yul\":6032:6099   */\n      tag_464\n      jump\t// in\n    tag_487:\n        /* \"#utility.yul\":6025:6099   */\n      swap2\n      pop\n        /* \"#utility.yul\":6108:6201   */\n      tag_488\n        /* \"#utility.yul\":6197:6200   */\n      dup3\n        /* \"#utility.yul\":6108:6201   */\n      tag_489\n      jump\t// in\n    tag_488:\n        /* \"#utility.yul\":6226:6228   */\n      0x40\n        /* \"#utility.yul\":6221:6224   */\n      dup3\n        /* \"#utility.yul\":6217:6229   */\n      add\n        /* \"#utility.yul\":6210:6229   */\n      swap1\n      pop\n        /* \"#utility.yul\":5869:6235   */\n      swap2\n      swap1\n      pop\n      jump\t// out\n        /* \"#utility.yul\":6241:6607   */\n    tag_490:\n        /* \"#utility.yul\":6383:6386   */\n      0x00\n        /* \"#utility.yul\":6404:6471   */\n      tag_492\n        /* \"#utility.yul\":6468:6470   */\n      0x22\n        /* \"#utility.yul\":6463:6466   */\n      dup4\n        /* \"#utility.yul\":6404:6471   */\n      tag_464\n      jump\t// in\n    tag_492:\n        /* \"#utility.yul\":6397:6471   */\n      swap2\n      pop\n        /* \"#utility.yul\":6480:6573   */\n      tag_493\n        /* \"#utility.yul\":6569:6572   */\n      dup3\n        /* \"#utility.yul\":6480:6573   */\n      tag_494\n      jump\t// in\n    tag_493:\n        /* \"#utility.yul\":6598:6600   */\n      0x40\n        /* \"#utility.yul\":6593:6596   */\n      dup3\n        /* \"#utility.yul\":6589:6601   */\n      add\n        /* \"#utility.yul\":6582:6601   */\n      swap1\n      pop\n        /* \"#utility.yul\":6241:6607   */\n      swap2\n      swap1\n      pop\n      jump\t// out\n        /* \"#utility.yul\":6613:6979   */\n    tag_495:\n        /* \"#utility.yul\":6755:6758   */\n      0x00\n        /* \"#utility.yul\":6776:6843   */\n      tag_497\n        /* \"#utility.yul\":6840:6842   */\n      0x22\n        /* \"#utility.yul\":6835:6838   */\n      dup4\n        /* \"#utility.yul\":6776:6843   */\n      tag_464\n      jump\t// in\n    tag_497:\n        /* \"#utility.yul\":6769:6843   */\n      swap2\n      pop\n        /* \"#utility.yul\":6852:6945   */\n      tag_498\n        /* \"#utility.yul\":6941:6944   */\n      dup3\n        /* \"#utility.yul\":6852:6945   */\n      tag_499\n      jump\t// in\n    tag_498:\n        /* \"#utility.yul\":6970:6972   */\n      0x40\n        /* \"#utility.yul\":6965:6968   */\n      dup3\n        /* \"#utility.yul\":6961:6973   */\n      add\n        /* \"#utility.yul\":6954:6973   */\n      swap1\n      pop\n        /* \"#utility.yul\":6613:6979   */\n      swap2\n      swap1\n      pop\n      jump\t// out\n        /* \"#utility.yul\":6985:7351   */\n    tag_500:\n        /* \"#utility.yul\":7127:7130   */\n      0x00\n        /* \"#utility.yul\":7148:7215   */\n      tag_502\n        /* \"#utility.yul\":7212:7214   */\n      0x1d\n        /* \"#utility.yul\":7207:7210   */\n      dup4\n        /* \"#utility.yul\":7148:7215   */\n      tag_464\n      jump\t// in\n    tag_502:\n        /* \"#utility.yul\":7141:7215   */\n      swap2\n      pop\n        /* \"#utility.yul\":7224:7317   */\n      tag_503\n        /* \"#utility.yul\":7313:7316   */\n      dup3\n        /* \"#utility.yul\":7224:7317   */\n      tag_504\n      jump\t// in\n    tag_503:\n        /* \"#utility.yul\":7342:7344   */\n      0x20\n        /* \"#utility.yul\":7337:7340   */\n      dup3\n        /* \"#utility.yul\":7333:7345   */\n      add\n        /* \"#utility.yul\":7326:7345   */\n      swap1\n      pop\n        /* \"#utility.yul\":6985:7351   */\n      swap2\n      swap1\n      pop\n      jump\t// out\n        /* \"#utility.yul\":7357:7723   */\n    tag_505:\n        /* \"#utility.yul\":7499:7502   */\n      0x00\n        /* \"#utility.yul\":7520:7587   */\n      tag_507\n        /* \"#utility.yul\":7584:7586   */\n      0x26\n        /* \"#utility.yul\":7579:7582   */\n      dup4\n        /* \"#utility.yul\":7520:7587   */\n      tag_464\n      jump\t// in\n    tag_507:\n        /* \"#utility.yul\":7513:7587   */\n      swap2\n      pop\n        /* \"#utility.yul\":7596:7689   */\n      tag_508\n        /* \"#utility.yul\":7685:7688   */\n      dup3\n        /* \"#utility.yul\":7596:7689   */\n      tag_509\n      jump\t// in\n    tag_508:\n        /* \"#utility.yul\":7714:7716   */\n      0x40\n        /* \"#utility.yul\":7709:7712   */\n      dup3\n        /* \"#utility.yul\":7705:7717   */\n      add\n        /* \"#utility.yul\":7698:7717   */\n      swap1\n      pop\n        /* \"#utility.yul\":7357:7723   */\n      swap2\n      swap1\n      pop\n      jump\t// out\n        /* \"#utility.yul\":7729:8095   */\n    tag_510:\n        /* \"#utility.yul\":7871:7874   */\n      0x00\n        /* \"#utility.yul\":7892:7959   */\n      tag_512\n        /* \"#utility.yul\":7956:7958   */\n      0x28\n        /* \"#utility.yul\":7951:7954   */\n      dup4\n        /* \"#utility.yul\":7892:7959   */\n      tag_464\n      jump\t// in\n    tag_512:\n        /* \"#utility.yul\":7885:7959   */\n      swap2\n      pop\n        /* \"#utility.yul\":7968:8061   */\n      tag_513\n        /* \"#utility.yul\":8057:8060   */\n      dup3\n        /* \"#utility.yul\":7968:8061   */\n      tag_514\n      jump\t// in\n    tag_513:\n        /* \"#utility.yul\":8086:8088   */\n      0x40\n        /* \"#utility.yul\":8081:8084   */\n      dup3\n        /* \"#utility.yul\":8077:8089   */\n      add\n        /* \"#utility.yul\":8070:8089   */\n      swap1\n      pop\n        /* \"#utility.yul\":7729:8095   */\n      swap2\n      swap1\n      pop\n      jump\t// out\n        /* \"#utility.yul\":8101:8467   */\n    tag_515:\n        /* \"#utility.yul\":8243:8246   */\n      0x00\n        /* \"#utility.yul\":8264:8331   */\n      tag_517\n        /* \"#utility.yul\":8328:8330   */\n      0x16\n        /* \"#utility.yul\":8323:8326   */\n      dup4\n        /* \"#utility.yul\":8264:8331   */\n      tag_464\n      jump\t// in\n    tag_517:\n        /* \"#utility.yul\":8257:8331   */\n      swap2\n      pop\n        /* \"#utility.yul\":8340:8433   */\n      tag_518\n        /* \"#utility.yul\":8429:8432   */\n      dup3\n        /* \"#utility.yul\":8340:8433   */\n      tag_519\n      jump\t// in\n    tag_518:\n        /* \"#utility.yul\":8458:8460   */\n      0x20\n        /* \"#utility.yul\":8453:8456   */\n      dup3\n        /* \"#utility.yul\":8449:8461   */\n      add\n        /* \"#utility.yul\":8442:8461   */\n      swap1\n      pop\n        /* \"#utility.yul\":8101:8467   */\n      swap2\n      swap1\n      pop\n      jump\t// out\n        /* \"#utility.yul\":8473:8839   */\n    tag_520:\n        /* \"#utility.yul\":8615:8618   */\n      0x00\n        /* \"#utility.yul\":8636:8703   */\n      tag_522\n        /* \"#utility.yul\":8700:8702   */\n      0x21\n        /* \"#utility.yul\":8695:8698   */\n      dup4\n        /* \"#utility.yul\":8636:8703   */\n      tag_464\n      jump\t// in\n    tag_522:\n        /* \"#utility.yul\":8629:8703   */\n      swap2\n      pop\n        /* \"#utility.yul\":8712:8805   */\n      tag_523\n        /* \"#utility.yul\":8801:8804   */\n      dup3\n        /* \"#utility.yul\":8712:8805   */\n      tag_524\n      jump\t// in\n    tag_523:\n        /* \"#utility.yul\":8830:8832   */\n      0x40\n        /* \"#utility.yul\":8825:8828   */\n      dup3\n        /* \"#utility.yul\":8821:8833   */\n      add\n        /* \"#utility.yul\":8814:8833   */\n      swap1\n      pop\n        /* \"#utility.yul\":8473:8839   */\n      swap2\n      swap1\n      pop\n      jump\t// out\n        /* \"#utility.yul\":8845:9211   */\n    tag_525:\n        /* \"#utility.yul\":8987:8990   */\n      0x00\n        /* \"#utility.yul\":9008:9075   */\n      tag_527\n        /* \"#utility.yul\":9072:9074   */\n      0x25\n        /* \"#utility.yul\":9067:9070   */\n      dup4\n        /* \"#utility.yul\":9008:9075   */\n      tag_464\n      jump\t// in\n    tag_527:\n        /* \"#utility.yul\":9001:9075   */\n      swap2\n      pop\n        /* \"#utility.yul\":9084:9177   */\n      tag_528\n        /* \"#utility.yul\":9173:9176   */\n      dup3\n        /* \"#utility.yul\":9084:9177   */\n      tag_529\n      jump\t// in\n    tag_528:\n        /* \"#utility.yul\":9202:9204   */\n      0x40\n        /* \"#utility.yul\":9197:9200   */\n      dup3\n        /* \"#utility.yul\":9193:9205   */\n      add\n        /* \"#utility.yul\":9186:9205   */\n      swap1\n      pop\n        /* \"#utility.yul\":8845:9211   */\n      swap2\n      swap1\n      pop\n      jump\t// out\n        /* \"#utility.yul\":9217:9583   */\n    tag_530:\n        /* \"#utility.yul\":9359:9362   */\n      0x00\n        /* \"#utility.yul\":9380:9447   */\n      tag_532\n        /* \"#utility.yul\":9444:9446   */\n      0x18\n        /* \"#utility.yul\":9439:9442   */\n      dup4\n        /* \"#utility.yul\":9380:9447   */\n      tag_464\n      jump\t// in\n    tag_532:\n        /* \"#utility.yul\":9373:9447   */\n      swap2\n      pop\n        /* \"#utility.yul\":9456:9549   */\n      tag_533\n        /* \"#utility.yul\":9545:9548   */\n      dup3\n        /* \"#utility.yul\":9456:9549   */\n      tag_534\n      jump\t// in\n    tag_533:\n        /* \"#utility.yul\":9574:9576   */\n      0x20\n        /* \"#utility.yul\":9569:9572   */\n      dup3\n        /* \"#utility.yul\":9565:9577   */\n      add\n        /* \"#utility.yul\":9558:9577   */\n      swap1\n      pop\n        /* \"#utility.yul\":9217:9583   */\n      swap2\n      swap1\n      pop\n      jump\t// out\n        /* \"#utility.yul\":9589:9955   */\n    tag_535:\n        /* \"#utility.yul\":9731:9734   */\n      0x00\n        /* \"#utility.yul\":9752:9819   */\n      tag_537\n        /* \"#utility.yul\":9816:9818   */\n      0x24\n        /* \"#utility.yul\":9811:9814   */\n      dup4\n        /* \"#utility.yul\":9752:9819   */\n      tag_464\n      jump\t// in\n    tag_537:\n        /* \"#utility.yul\":9745:9819   */\n      swap2\n      pop\n        /* \"#utility.yul\":9828:9921   */\n      tag_538\n        /* \"#utility.yul\":9917:9920   */\n      dup3\n        /* \"#utility.yul\":9828:9921   */\n      tag_539\n      jump\t// in\n    tag_538:\n        /* \"#utility.yul\":9946:9948   */\n      0x40\n        /* \"#utility.yul\":9941:9944   */\n      dup3\n        /* \"#utility.yul\":9937:9949   */\n      add\n        /* \"#utility.yul\":9930:9949   */\n      swap1\n      pop\n        /* \"#utility.yul\":9589:9955   */\n      swap2\n      swap1\n      pop\n      jump\t// out\n        /* \"#utility.yul\":9961:10327   */\n    tag_540:\n        /* \"#utility.yul\":10103:10106   */\n      0x00\n        /* \"#utility.yul\":10124:10191   */\n      tag_542\n        /* \"#utility.yul\":10188:10190   */\n      0x20\n        /* \"#utility.yul\":10183:10186   */\n      dup4\n        /* \"#utility.yul\":10124:10191   */\n      tag_464\n      jump\t// in\n    tag_542:\n        /* \"#utility.yul\":10117:10191   */\n      swap2\n      pop\n        /* \"#utility.yul\":10200:10293   */\n      tag_543\n        /* \"#utility.yul\":10289:10292   */\n      dup3\n        /* \"#utility.yul\":10200:10293   */\n      tag_544\n      jump\t// in\n    tag_543:\n        /* \"#utility.yul\":10318:10320   */\n      0x20\n        /* \"#utility.yul\":10313:10316   */\n      dup3\n        /* \"#utility.yul\":10309:10321   */\n      add\n        /* \"#utility.yul\":10302:10321   */\n      swap1\n      pop\n        /* \"#utility.yul\":9961:10327   */\n      swap2\n      swap1\n      pop\n      jump\t// out\n        /* \"#utility.yul\":10333:10735   */\n    tag_545:\n        /* \"#utility.yul\":10493:10496   */\n      0x00\n        /* \"#utility.yul\":10514:10599   */\n      tag_547\n        /* \"#utility.yul\":10596:10598   */\n      0x17\n        /* \"#utility.yul\":10591:10594   */\n      dup4\n        /* \"#utility.yul\":10514:10599   */\n      tag_473\n      jump\t// in\n    tag_547:\n        /* \"#utility.yul\":10507:10599   */\n      swap2\n      pop\n        /* \"#utility.yul\":10608:10701   */\n      tag_548\n        /* \"#utility.yul\":10697:10700   */\n      dup3\n        /* \"#utility.yul\":10608:10701   */\n      tag_549\n      jump\t// in\n    tag_548:\n        /* \"#utility.yul\":10726:10728   */\n      0x17\n        /* \"#utility.yul\":10721:10724   */\n      dup3\n        /* \"#utility.yul\":10717:10729   */\n      add\n        /* \"#utility.yul\":10710:10729   */\n      swap1\n      pop\n        /* \"#utility.yul\":10333:10735   */\n      swap2\n      swap1\n      pop\n      jump\t// out\n        /* \"#utility.yul\":10741:11107   */\n    tag_550:\n        /* \"#utility.yul\":10883:10886   */\n      0x00\n        /* \"#utility.yul\":10904:10971   */\n      tag_552\n        /* \"#utility.yul\":10968:10970   */\n      0x25\n        /* \"#utility.yul\":10963:10966   */\n      dup4\n        /* \"#utility.yul\":10904:10971   */\n      tag_464\n      jump\t// in\n    tag_552:\n        /* \"#utility.yul\":10897:10971   */\n      swap2\n      pop\n        /* \"#utility.yul\":10980:11073   */\n      tag_553\n        /* \"#utility.yul\":11069:11072   */\n      dup3\n        /* \"#utility.yul\":10980:11073   */\n      tag_554\n      jump\t// in\n    tag_553:\n        /* \"#utility.yul\":11098:11100   */\n      0x40\n        /* \"#utility.yul\":11093:11096   */\n      dup3\n        /* \"#utility.yul\":11089:11101   */\n      add\n        /* \"#utility.yul\":11082:11101   */\n      swap1\n      pop\n        /* \"#utility.yul\":10741:11107   */\n      swap2\n      swap1\n      pop\n      jump\t// out\n        /* \"#utility.yul\":11113:11515   */\n    tag_555:\n        /* \"#utility.yul\":11273:11276   */\n      0x00\n        /* \"#utility.yul\":11294:11379   */\n      tag_557\n        /* \"#utility.yul\":11376:11378   */\n      0x11\n        /* \"#utility.yul\":11371:11374   */\n      dup4\n        /* \"#utility.yul\":11294:11379   */\n      tag_473\n      jump\t// in\n    tag_557:\n        /* \"#utility.yul\":11287:11379   */\n      swap2\n      pop\n        /* \"#utility.yul\":11388:11481   */\n      tag_558\n        /* \"#utility.yul\":11477:11480   */\n      dup3\n        /* \"#utility.yul\":11388:11481   */\n      tag_559\n      jump\t// in\n    tag_558:\n        /* \"#utility.yul\":11506:11508   */\n      0x11\n        /* \"#utility.yul\":11501:11504   */\n      dup3\n        /* \"#utility.yul\":11497:11509   */\n      add\n        /* \"#utility.yul\":11490:11509   */\n      swap1\n      pop\n        /* \"#utility.yul\":11113:11515   */\n      swap2\n      swap1\n      pop\n      jump\t// out\n        /* \"#utility.yul\":11521:11887   */\n    tag_560:\n        /* \"#utility.yul\":11663:11666   */\n      0x00\n        /* \"#utility.yul\":11684:11751   */\n      tag_562\n        /* \"#utility.yul\":11748:11750   */\n      0x2f\n        /* \"#utility.yul\":11743:11746   */\n      dup4\n        /* \"#utility.yul\":11684:11751   */\n      tag_464\n      jump\t// in\n    tag_562:\n        /* \"#utility.yul\":11677:11751   */\n      swap2\n      pop\n        /* \"#utility.yul\":11760:11853   */\n      tag_563\n        /* \"#utility.yul\":11849:11852   */\n      dup3\n        /* \"#utility.yul\":11760:11853   */\n      tag_564\n      jump\t// in\n    tag_563:\n        /* \"#utility.yul\":11878:11880   */\n      0x40\n        /* \"#utility.yul\":11873:11876   */\n      dup3\n        /* \"#utility.yul\":11869:11881   */\n      add\n        /* \"#utility.yul\":11862:11881   */\n      swap1\n      pop\n        /* \"#utility.yul\":11521:11887   */\n      swap2\n      swap1\n      pop\n      jump\t// out\n        /* \"#utility.yul\":11893:12259   */\n    tag_565:\n        /* \"#utility.yul\":12035:12038   */\n      0x00\n        /* \"#utility.yul\":12056:12123   */\n      tag_567\n        /* \"#utility.yul\":12120:12122   */\n      0x1f\n        /* \"#utility.yul\":12115:12118   */\n      dup4\n        /* \"#utility.yul\":12056:12123   */\n      tag_464\n      jump\t// in\n    tag_567:\n        /* \"#utility.yul\":12049:12123   */\n      swap2\n      pop\n        /* \"#utility.yul\":12132:12225   */\n      tag_568\n        /* \"#utility.yul\":12221:12224   */\n      dup3\n        /* \"#utility.yul\":12132:12225   */\n      tag_569\n      jump\t// in\n    tag_568:\n        /* \"#utility.yul\":12250:12252   */\n      0x20\n        /* \"#utility.yul\":12245:12248   */\n      dup3\n        /* \"#utility.yul\":12241:12253   */\n      add\n        /* \"#utility.yul\":12234:12253   */\n      swap1\n      pop\n        /* \"#utility.yul\":11893:12259   */\n      swap2\n      swap1\n      pop\n      jump\t// out\n        /* \"#utility.yul\":12265:12383   */\n    tag_570:\n        /* \"#utility.yul\":12352:12376   */\n      tag_572\n        /* \"#utility.yul\":12370:12375   */\n      dup2\n        /* \"#utility.yul\":12352:12376   */\n      tag_573\n      jump\t// in\n    tag_572:\n        /* \"#utility.yul\":12347:12350   */\n      dup3\n        /* \"#utility.yul\":12340:12377   */\n      mstore\n        /* \"#utility.yul\":12265:12383   */\n      pop\n      pop\n      jump\t// out\n        /* \"#utility.yul\":12389:12501   */\n    tag_574:\n        /* \"#utility.yul\":12472:12494   */\n      tag_576\n        /* \"#utility.yul\":12488:12493   */\n      dup2\n        /* \"#utility.yul\":12472:12494   */\n      tag_577\n      jump\t// in\n    tag_576:\n        /* \"#utility.yul\":12467:12470   */\n      dup3\n        /* \"#utility.yul\":12460:12495   */\n      mstore\n        /* \"#utility.yul\":12389:12501   */\n      pop\n      pop\n      jump\t// out\n        /* \"#utility.yul\":12507:13474   */\n    tag_330:\n        /* \"#utility.yul\":12889:12892   */\n      0x00\n        /* \"#utility.yul\":12911:13059   */\n      tag_579\n        /* \"#utility.yul\":13055:13058   */\n      dup3\n        /* \"#utility.yul\":12911:13059   */\n      tag_545\n      jump\t// in\n    tag_579:\n        /* \"#utility.yul\":12904:13059   */\n      swap2\n      pop\n        /* \"#utility.yul\":13076:13171   */\n      tag_580\n        /* \"#utility.yul\":13167:13170   */\n      dup3\n        /* \"#utility.yul\":13158:13164   */\n      dup6\n        /* \"#utility.yul\":13076:13171   */\n      tag_469\n      jump\t// in\n    tag_580:\n        /* \"#utility.yul\":13069:13171   */\n      swap2\n      pop\n        /* \"#utility.yul\":13188:13336   */\n      tag_581\n        /* \"#utility.yul\":13332:13335   */\n      dup3\n        /* \"#utility.yul\":13188:13336   */\n      tag_555\n      jump\t// in\n    tag_581:\n        /* \"#utility.yul\":13181:13336   */\n      swap2\n      pop\n        /* \"#utility.yul\":13353:13448   */\n      tag_582\n        /* \"#utility.yul\":13444:13447   */\n      dup3\n        /* \"#utility.yul\":13435:13441   */\n      dup5\n        /* \"#utility.yul\":13353:13448   */\n      tag_469\n      jump\t// in\n    tag_582:\n        /* \"#utility.yul\":13346:13448   */\n      swap2\n      pop\n        /* \"#utility.yul\":13465:13468   */\n      dup2\n        /* \"#utility.yul\":13458:13468   */\n      swap1\n      pop\n        /* \"#utility.yul\":12507:13474   */\n      swap4\n      swap3\n      pop\n      pop\n      pop\n      jump\t// out\n        /* \"#utility.yul\":13480:13690   */\n    tag_44:\n        /* \"#utility.yul\":13567:13571   */\n      0x00\n        /* \"#utility.yul\":13605:13607   */\n      0x20\n        /* \"#utility.yul\":13594:13603   */\n      dup3\n        /* \"#utility.yul\":13590:13608   */\n      add\n        /* \"#utility.yul\":13582:13608   */\n      swap1\n      pop\n        /* \"#utility.yul\":13618:13683   */\n      tag_584\n        /* \"#utility.yul\":13680:13681   */\n      0x00\n        /* \"#utility.yul\":13669:13678   */\n      dup4\n        /* \"#utility.yul\":13665:13682   */\n      add\n        /* \"#utility.yul\":13656:13662   */\n      dup5\n        /* \"#utility.yul\":13618:13683   */\n      tag_451\n      jump\t// in\n    tag_584:\n        /* \"#utility.yul\":13480:13690   */\n      swap3\n      swap2\n      pop\n      pop\n      jump\t// out\n        /* \"#utility.yul\":13696:13918   */\n    tag_77:\n        /* \"#utility.yul\":13789:13793   */\n      0x00\n        /* \"#utility.yul\":13827:13829   */\n      0x20\n        /* \"#utility.yul\":13816:13825   */\n      dup3\n        /* \"#utility.yul\":13812:13830   */\n      add\n        /* \"#utility.yul\":13804:13830   */\n      swap1\n      pop\n        /* \"#utility.yul\":13840:13911   */\n      tag_586\n        /* \"#utility.yul\":13908:13909   */\n      0x00\n        /* \"#utility.yul\":13897:13906   */\n      dup4\n        /* \"#utility.yul\":13893:13910   */\n      add\n        /* \"#utility.yul\":13884:13890   */\n      dup5\n        /* \"#utility.yul\":13840:13911   */\n      tag_455\n      jump\t// in\n    tag_586:\n        /* \"#utility.yul\":13696:13918   */\n      swap3\n      swap2\n      pop\n      pop\n      jump\t// out\n        /* \"#utility.yul\":13924:14237   */\n    tag_49:\n        /* \"#utility.yul\":14037:14041   */\n      0x00\n        /* \"#utility.yul\":14075:14077   */\n      0x20\n        /* \"#utility.yul\":14064:14073   */\n      dup3\n        /* \"#utility.yul\":14060:14078   */\n      add\n        /* \"#utility.yul\":14052:14078   */\n      swap1\n      pop\n        /* \"#utility.yul\":14124:14133   */\n      dup2\n        /* \"#utility.yul\":14118:14122   */\n      dup2\n        /* \"#utility.yul\":14114:14134   */\n      sub\n        /* \"#utility.yul\":14110:14111   */\n      0x00\n        /* \"#utility.yul\":14099:14108   */\n      dup4\n        /* \"#utility.yul\":14095:14112   */\n      add\n        /* \"#utility.yul\":14088:14135   */\n      mstore\n        /* \"#utility.yul\":14152:14230   */\n      tag_588\n        /* \"#utility.yul\":14225:14229   */\n      dup2\n        /* \"#utility.yul\":14216:14222   */\n      dup5\n        /* \"#utility.yul\":14152:14230   */\n      tag_459\n      jump\t// in\n    tag_588:\n        /* \"#utility.yul\":14144:14230   */\n      swap1\n      pop\n        /* \"#utility.yul\":13924:14237   */\n      swap3\n      swap2\n      pop\n      pop\n      jump\t// out\n        /* \"#utility.yul\":14243:14662   */\n    tag_394:\n        /* \"#utility.yul\":14409:14413   */\n      0x00\n        /* \"#utility.yul\":14447:14449   */\n      0x20\n        /* \"#utility.yul\":14436:14445   */\n      dup3\n        /* \"#utility.yul\":14432:14450   */\n      add\n        /* \"#utility.yul\":14424:14450   */\n      swap1\n      pop\n        /* \"#utility.yul\":14496:14505   */\n      dup2\n        /* \"#utility.yul\":14490:14494   */\n      dup2\n        /* \"#utility.yul\":14486:14506   */\n      sub\n        /* \"#utility.yul\":14482:14483   */\n      0x00\n        /* \"#utility.yul\":14471:14480   */\n      dup4\n        /* \"#utility.yul\":14467:14484   */\n      add\n        /* \"#utility.yul\":14460:14507   */\n      mstore\n        /* \"#utility.yul\":14524:14655   */\n      tag_590\n        /* \"#utility.yul\":14650:14654   */\n      dup2\n        /* \"#utility.yul\":14524:14655   */\n      tag_475\n      jump\t// in\n    tag_590:\n        /* \"#utility.yul\":14516:14655   */\n      swap1\n      pop\n        /* \"#utility.yul\":14243:14662   */\n      swap2\n      swap1\n      pop\n      jump\t// out\n        /* \"#utility.yul\":14668:15087   */\n    tag_313:\n        /* \"#utility.yul\":14834:14838   */\n      0x00\n        /* \"#utility.yul\":14872:14874   */\n      0x20\n        /* \"#utility.yul\":14861:14870   */\n      dup3\n        /* \"#utility.yul\":14857:14875   */\n      add\n        /* \"#utility.yul\":14849:14875   */\n      swap1\n      pop\n        /* \"#utility.yul\":14921:14930   */\n      dup2\n        /* \"#utility.yul\":14915:14919   */\n      dup2\n        /* \"#utility.yul\":14911:14931   */\n      sub\n        /* \"#utility.yul\":14907:14908   */\n      0x00\n        /* \"#utility.yul\":14896:14905   */\n      dup4\n        /* \"#utility.yul\":14892:14909   */\n      add\n        /* \"#utility.yul\":14885:14932   */\n      mstore\n        /* \"#utility.yul\":14949:15080   */\n      tag_592\n        /* \"#utility.yul\":15075:15079   */\n      dup2\n        /* \"#utility.yul\":14949:15080   */\n      tag_480\n      jump\t// in\n    tag_592:\n        /* \"#utility.yul\":14941:15080   */\n      swap1\n      pop\n        /* \"#utility.yul\":14668:15087   */\n      swap2\n      swap1\n      pop\n      jump\t// out\n        /* \"#utility.yul\":15093:15512   */\n    tag_365:\n        /* \"#utility.yul\":15259:15263   */\n      0x00\n        /* \"#utility.yul\":15297:15299   */\n      0x20\n        /* \"#utility.yul\":15286:15295   */\n      dup3\n        /* \"#utility.yul\":15282:15300   */\n      add\n        /* \"#utility.yul\":15274:15300   */\n      swap1\n      pop\n        /* \"#utility.yul\":15346:15355   */\n      dup2\n        /* \"#utility.yul\":15340:15344   */\n      dup2\n        /* \"#utility.yul\":15336:15356   */\n      sub\n        /* \"#utility.yul\":15332:15333   */\n      0x00\n        /* \"#utility.yul\":15321:15330   */\n      dup4\n        /* \"#utility.yul\":15317:15334   */\n      add\n        /* \"#utility.yul\":15310:15357   */\n      mstore\n        /* \"#utility.yul\":15374:15505   */\n      tag_594\n        /* \"#utility.yul\":15500:15504   */\n      dup2\n        /* \"#utility.yul\":15374:15505   */\n      tag_485\n      jump\t// in\n    tag_594:\n        /* \"#utility.yul\":15366:15505   */\n      swap1\n      pop\n        /* \"#utility.yul\":15093:15512   */\n      swap2\n      swap1\n      pop\n      jump\t// out\n        /* \"#utility.yul\":15518:15937   */\n    tag_358:\n        /* \"#utility.yul\":15684:15688   */\n      0x00\n        /* \"#utility.yul\":15722:15724   */\n      0x20\n        /* \"#utility.yul\":15711:15720   */\n      dup3\n        /* \"#utility.yul\":15707:15725   */\n      add\n        /* \"#utility.yul\":15699:15725   */\n      swap1\n      pop\n        /* \"#utility.yul\":15771:15780   */\n      dup2\n        /* \"#utility.yul\":15765:15769   */\n      dup2\n        /* \"#utility.yul\":15761:15781   */\n      sub\n        /* \"#utility.yul\":15757:15758   */\n      0x00\n        /* \"#utility.yul\":15746:15755   */\n      dup4\n        /* \"#utility.yul\":15742:15759   */\n      add\n        /* \"#utility.yul\":15735:15782   */\n      mstore\n        /* \"#utility.yul\":15799:15930   */\n      tag_596\n        /* \"#utility.yul\":15925:15929   */\n      dup2\n        /* \"#utility.yul\":15799:15930   */\n      tag_490\n      jump\t// in\n    tag_596:\n        /* \"#utility.yul\":15791:15930   */\n      swap1\n      pop\n        /* \"#utility.yul\":15518:15937   */\n      swap2\n      swap1\n      pop\n      jump\t// out\n        /* \"#utility.yul\":15943:16362   */\n    tag_298:\n        /* \"#utility.yul\":16109:16113   */\n      0x00\n        /* \"#utility.yul\":16147:16149   */\n      0x20\n        /* \"#utility.yul\":16136:16145   */\n      dup3\n        /* \"#utility.yul\":16132:16150   */\n      add\n        /* \"#utility.yul\":16124:16150   */\n      swap1\n      pop\n        /* \"#utility.yul\":16196:16205   */\n      dup2\n        /* \"#utility.yul\":16190:16194   */\n      dup2\n        /* \"#utility.yul\":16186:16206   */\n      sub\n        /* \"#utility.yul\":16182:16183   */\n      0x00\n        /* \"#utility.yul\":16171:16180   */\n      dup4\n        /* \"#utility.yul\":16167:16184   */\n      add\n        /* \"#utility.yul\":16160:16207   */\n      mstore\n        /* \"#utility.yul\":16224:16355   */\n      tag_598\n        /* \"#utility.yul\":16350:16354   */\n      dup2\n        /* \"#utility.yul\":16224:16355   */\n      tag_495\n      jump\t// in\n    tag_598:\n        /* \"#utility.yul\":16216:16355   */\n      swap1\n      pop\n        /* \"#utility.yul\":15943:16362   */\n      swap2\n      swap1\n      pop\n      jump\t// out\n        /* \"#utility.yul\":16368:16787   */\n    tag_305:\n        /* \"#utility.yul\":16534:16538   */\n      0x00\n        /* \"#utility.yul\":16572:16574   */\n      0x20\n        /* \"#utility.yul\":16561:16570   */\n      dup3\n        /* \"#utility.yul\":16557:16575   */\n      add\n        /* \"#utility.yul\":16549:16575   */\n      swap1\n      pop\n        /* \"#utility.yul\":16621:16630   */\n      dup2\n        /* \"#utility.yul\":16615:16619   */\n      dup2\n        /* \"#utility.yul\":16611:16631   */\n      sub\n        /* \"#utility.yul\":16607:16608   */\n      0x00\n        /* \"#utility.yul\":16596:16605   */\n      dup4\n        /* \"#utility.yul\":16592:16609   */\n      add\n        /* \"#utility.yul\":16585:16632   */\n      mstore\n        /* \"#utility.yul\":16649:16780   */\n      tag_600\n        /* \"#utility.yul\":16775:16779   */\n      dup2\n        /* \"#utility.yul\":16649:16780   */\n      tag_500\n      jump\t// in\n    tag_600:\n        /* \"#utility.yul\":16641:16780   */\n      swap1\n      pop\n        /* \"#utility.yul\":16368:16787   */\n      swap2\n      swap1\n      pop\n      jump\t// out\n        /* \"#utility.yul\":16793:17212   */\n    tag_318:\n        /* \"#utility.yul\":16959:16963   */\n      0x00\n        /* \"#utility.yul\":16997:16999   */\n      0x20\n        /* \"#utility.yul\":16986:16995   */\n      dup3\n        /* \"#utility.yul\":16982:17000   */\n      add\n        /* \"#utility.yul\":16974:17000   */\n      swap1\n      pop\n        /* \"#utility.yul\":17046:17055   */\n      dup2\n        /* \"#utility.yul\":17040:17044   */\n      dup2\n        /* \"#utility.yul\":17036:17056   */\n      sub\n        /* \"#utility.yul\":17032:17033   */\n      0x00\n        /* \"#utility.yul\":17021:17030   */\n      dup4\n        /* \"#utility.yul\":17017:17034   */\n      add\n        /* \"#utility.yul\":17010:17057   */\n      mstore\n        /* \"#utility.yul\":17074:17205   */\n      tag_602\n        /* \"#utility.yul\":17200:17204   */\n      dup2\n        /* \"#utility.yul\":17074:17205   */\n      tag_505\n      jump\t// in\n    tag_602:\n        /* \"#utility.yul\":17066:17205   */\n      swap1\n      pop\n        /* \"#utility.yul\":16793:17212   */\n      swap2\n      swap1\n      pop\n      jump\t// out\n        /* \"#utility.yul\":17218:17637   */\n    tag_226:\n        /* \"#utility.yul\":17384:17388   */\n      0x00\n        /* \"#utility.yul\":17422:17424   */\n      0x20\n        /* \"#utility.yul\":17411:17420   */\n      dup3\n        /* \"#utility.yul\":17407:17425   */\n      add\n        /* \"#utility.yul\":17399:17425   */\n      swap1\n      pop\n        /* \"#utility.yul\":17471:17480   */\n      dup2\n        /* \"#utility.yul\":17465:17469   */\n      dup2\n        /* \"#utility.yul\":17461:17481   */\n      sub\n        /* \"#utility.yul\":17457:17458   */\n      0x00\n        /* \"#utility.yul\":17446:17455   */\n      dup4\n        /* \"#utility.yul\":17442:17459   */\n      add\n        /* \"#utility.yul\":17435:17482   */\n      mstore\n        /* \"#utility.yul\":17499:17630   */\n      tag_604\n        /* \"#utility.yul\":17625:17629   */\n      dup2\n        /* \"#utility.yul\":17499:17630   */\n      tag_510\n      jump\t// in\n    tag_604:\n        /* \"#utility.yul\":17491:17630   */\n      swap1\n      pop\n        /* \"#utility.yul\":17218:17637   */\n      swap2\n      swap1\n      pop\n      jump\t// out\n        /* \"#utility.yul\":17643:18062   */\n    tag_263:\n        /* \"#utility.yul\":17809:17813   */\n      0x00\n        /* \"#utility.yul\":17847:17849   */\n      0x20\n        /* \"#utility.yul\":17836:17845   */\n      dup3\n        /* \"#utility.yul\":17832:17850   */\n      add\n        /* \"#utility.yul\":17824:17850   */\n      swap1\n      pop\n        /* \"#utility.yul\":17896:17905   */\n      dup2\n        /* \"#utility.yul\":17890:17894   */\n      dup2\n        /* \"#utility.yul\":17886:17906   */\n      sub\n        /* \"#utility.yul\":17882:17883   */\n      0x00\n        /* \"#utility.yul\":17871:17880   */\n      dup4\n        /* \"#utility.yul\":17867:17884   */\n      add\n        /* \"#utility.yul\":17860:17907   */\n      mstore\n        /* \"#utility.yul\":17924:18055   */\n      tag_606\n        /* \"#utility.yul\":18050:18054   */\n      dup2\n        /* \"#utility.yul\":17924:18055   */\n      tag_515\n      jump\t// in\n    tag_606:\n        /* \"#utility.yul\":17916:18055   */\n      swap1\n      pop\n        /* \"#utility.yul\":17643:18062   */\n      swap2\n      swap1\n      pop\n      jump\t// out\n        /* \"#utility.yul\":18068:18487   */\n    tag_354:\n        /* \"#utility.yul\":18234:18238   */\n      0x00\n        /* \"#utility.yul\":18272:18274   */\n      0x20\n        /* \"#utility.yul\":18261:18270   */\n      dup3\n        /* \"#utility.yul\":18257:18275   */\n      add\n        /* \"#utility.yul\":18249:18275   */\n      swap1\n      pop\n        /* \"#utility.yul\":18321:18330   */\n      dup2\n        /* \"#utility.yul\":18315:18319   */\n      dup2\n        /* \"#utility.yul\":18311:18331   */\n      sub\n        /* \"#utility.yul\":18307:18308   */\n      0x00\n        /* \"#utility.yul\":18296:18305   */\n      dup4\n        /* \"#utility.yul\":18292:18309   */\n      add\n        /* \"#utility.yul\":18285:18332   */\n      mstore\n        /* \"#utility.yul\":18349:18480   */\n      tag_608\n        /* \"#utility.yul\":18475:18479   */\n      dup2\n        /* \"#utility.yul\":18349:18480   */\n      tag_520\n      jump\t// in\n    tag_608:\n        /* \"#utility.yul\":18341:18480   */\n      swap1\n      pop\n        /* \"#utility.yul\":18068:18487   */\n      swap2\n      swap1\n      pop\n      jump\t// out\n        /* \"#utility.yul\":18493:18912   */\n    tag_310:\n        /* \"#utility.yul\":18659:18663   */\n      0x00\n        /* \"#utility.yul\":18697:18699   */\n      0x20\n        /* \"#utility.yul\":18686:18695   */\n      dup3\n        /* \"#utility.yul\":18682:18700   */\n      add\n        /* \"#utility.yul\":18674:18700   */\n      swap1\n      pop\n        /* \"#utility.yul\":18746:18755   */\n      dup2\n        /* \"#utility.yul\":18740:18744   */\n      dup2\n        /* \"#utility.yul\":18736:18756   */\n      sub\n        /* \"#utility.yul\":18732:18733   */\n      0x00\n        /* \"#utility.yul\":18721:18730   */\n      dup4\n        /* \"#utility.yul\":18717:18734   */\n      add\n        /* \"#utility.yul\":18710:18757   */\n      mstore\n        /* \"#utility.yul\":18774:18905   */\n      tag_610\n        /* \"#utility.yul\":18900:18904   */\n      dup2\n        /* \"#utility.yul\":18774:18905   */\n      tag_525\n      jump\t// in\n    tag_610:\n        /* \"#utility.yul\":18766:18905   */\n      swap1\n      pop\n        /* \"#utility.yul\":18493:18912   */\n      swap2\n      swap1\n      pop\n      jump\t// out\n        /* \"#utility.yul\":18918:19337   */\n    tag_242:\n        /* \"#utility.yul\":19084:19088   */\n      0x00\n        /* \"#utility.yul\":19122:19124   */\n      0x20\n        /* \"#utility.yul\":19111:19120   */\n      dup3\n        /* \"#utility.yul\":19107:19125   */\n      add\n        /* \"#utility.yul\":19099:19125   */\n      swap1\n      pop\n        /* \"#utility.yul\":19171:19180   */\n      dup2\n        /* \"#utility.yul\":19165:19169   */\n      dup2\n        /* \"#utility.yul\":19161:19181   */\n      sub\n        /* \"#utility.yul\":19157:19158   */\n      0x00\n        /* \"#utility.yul\":19146:19155   */\n      dup4\n        /* \"#utility.yul\":19142:19159   */\n      add\n        /* \"#utility.yul\":19135:19182   */\n      mstore\n        /* \"#utility.yul\":19199:19330   */\n      tag_612\n        /* \"#utility.yul\":19325:19329   */\n      dup2\n        /* \"#utility.yul\":19199:19330   */\n      tag_530\n      jump\t// in\n    tag_612:\n        /* \"#utility.yul\":19191:19330   */\n      swap1\n      pop\n        /* \"#utility.yul\":18918:19337   */\n      swap2\n      swap1\n      pop\n      jump\t// out\n        /* \"#utility.yul\":19343:19762   */\n    tag_295:\n        /* \"#utility.yul\":19509:19513   */\n      0x00\n        /* \"#utility.yul\":19547:19549   */\n      0x20\n        /* \"#utility.yul\":19536:19545   */\n      dup3\n        /* \"#utility.yul\":19532:19550   */\n      add\n        /* \"#utility.yul\":19524:19550   */\n      swap1\n      pop\n        /* \"#utility.yul\":19596:19605   */\n      dup2\n        /* \"#utility.yul\":19590:19594   */\n      dup2\n        /* \"#utility.yul\":19586:19606   */\n      sub\n        /* \"#utility.yul\":19582:19583   */\n      0x00\n        /* \"#utility.yul\":19571:19580   */\n      dup4\n        /* \"#utility.yul\":19567:19584   */\n      add\n        /* \"#utility.yul\":19560:19607   */\n      mstore\n        /* \"#utility.yul\":19624:19755   */\n      tag_614\n        /* \"#utility.yul\":19750:19754   */\n      dup2\n        /* \"#utility.yul\":19624:19755   */\n      tag_535\n      jump\t// in\n    tag_614:\n        /* \"#utility.yul\":19616:19755   */\n      swap1\n      pop\n        /* \"#utility.yul\":19343:19762   */\n      swap2\n      swap1\n      pop\n      jump\t// out\n        /* \"#utility.yul\":19768:20187   */\n    tag_247:\n        /* \"#utility.yul\":19934:19938   */\n      0x00\n        /* \"#utility.yul\":19972:19974   */\n      0x20\n        /* \"#utility.yul\":19961:19970   */\n      dup3\n        /* \"#utility.yul\":19957:19975   */\n      add\n        /* \"#utility.yul\":19949:19975   */\n      swap1\n      pop\n        /* \"#utility.yul\":20021:20030   */\n      dup2\n        /* \"#utility.yul\":20015:20019   */\n      dup2\n        /* \"#utility.yul\":20011:20031   */\n      sub\n        /* \"#utility.yul\":20007:20008   */\n      0x00\n        /* \"#utility.yul\":19996:20005   */\n      dup4\n        /* \"#utility.yul\":19992:20009   */\n      add\n        /* \"#utility.yul\":19985:20032   */\n      mstore\n        /* \"#utility.yul\":20049:20180   */\n      tag_616\n        /* \"#utility.yul\":20175:20179   */\n      dup2\n        /* \"#utility.yul\":20049:20180   */\n      tag_540\n      jump\t// in\n    tag_616:\n        /* \"#utility.yul\":20041:20180   */\n      swap1\n      pop\n        /* \"#utility.yul\":19768:20187   */\n      swap2\n      swap1\n      pop\n      jump\t// out\n        /* \"#utility.yul\":20193:20612   */\n    tag_271:\n        /* \"#utility.yul\":20359:20363   */\n      0x00\n        /* \"#utility.yul\":20397:20399   */\n      0x20\n        /* \"#utility.yul\":20386:20395   */\n      dup3\n        /* \"#utility.yul\":20382:20400   */\n      add\n        /* \"#utility.yul\":20374:20400   */\n      swap1\n      pop\n        /* \"#utility.yul\":20446:20455   */\n      dup2\n        /* \"#utility.yul\":20440:20444   */\n      dup2\n        /* \"#utility.yul\":20436:20456   */\n      sub\n        /* \"#utility.yul\":20432:20433   */\n      0x00\n        /* \"#utility.yul\":20421:20430   */\n      dup4\n        /* \"#utility.yul\":20417:20434   */\n      add\n        /* \"#utility.yul\":20410:20457   */\n      mstore\n        /* \"#utility.yul\":20474:20605   */\n      tag_618\n        /* \"#utility.yul\":20600:20604   */\n      dup2\n        /* \"#utility.yul\":20474:20605   */\n      tag_550\n      jump\t// in\n    tag_618:\n        /* \"#utility.yul\":20466:20605   */\n      swap1\n      pop\n        /* \"#utility.yul\":20193:20612   */\n      swap2\n      swap1\n      pop\n      jump\t// out\n        /* \"#utility.yul\":20618:21037   */\n    tag_215:\n        /* \"#utility.yul\":20784:20788   */\n      0x00\n        /* \"#utility.yul\":20822:20824   */\n      0x20\n        /* \"#utility.yul\":20811:20820   */\n      dup3\n        /* \"#utility.yul\":20807:20825   */\n      add\n        /* \"#utility.yul\":20799:20825   */\n      swap1\n      pop\n        /* \"#utility.yul\":20871:20880   */\n      dup2\n        /* \"#utility.yul\":20865:20869   */\n      dup2\n        /* \"#utility.yul\":20861:20881   */\n      sub\n        /* \"#utility.yul\":20857:20858   */\n      0x00\n        /* \"#utility.yul\":20846:20855   */\n      dup4\n        /* \"#utility.yul\":20842:20859   */\n      add\n        /* \"#utility.yul\":20835:20882   */\n      mstore\n        /* \"#utility.yul\":20899:21030   */\n      tag_620\n        /* \"#utility.yul\":21025:21029   */\n      dup2\n        /* \"#utility.yul\":20899:21030   */\n      tag_560\n      jump\t// in\n    tag_620:\n        /* \"#utility.yul\":20891:21030   */\n      swap1\n      pop\n        /* \"#utility.yul\":20618:21037   */\n      swap2\n      swap1\n      pop\n      jump\t// out\n        /* \"#utility.yul\":21043:21462   */\n    tag_343:\n        /* \"#utility.yul\":21209:21213   */\n      0x00\n        /* \"#utility.yul\":21247:21249   */\n      0x20\n        /* \"#utility.yul\":21236:21245   */\n      dup3\n        /* \"#utility.yul\":21232:21250   */\n      add\n        /* \"#utility.yul\":21224:21250   */\n      swap1\n      pop\n        /* \"#utility.yul\":21296:21305   */\n      dup2\n        /* \"#utility.yul\":21290:21294   */\n      dup2\n        /* \"#utility.yul\":21286:21306   */\n      sub\n        /* \"#utility.yul\":21282:21283   */\n      0x00\n        /* \"#utility.yul\":21271:21280   */\n      dup4\n        /* \"#utility.yul\":21267:21284   */\n      add\n        /* \"#utility.yul\":21260:21307   */\n      mstore\n        /* \"#utility.yul\":21324:21455   */\n      tag_622\n        /* \"#utility.yul\":21450:21454   */\n      dup2\n        /* \"#utility.yul\":21324:21455   */\n      tag_565\n      jump\t// in\n    tag_622:\n        /* \"#utility.yul\":21316:21455   */\n      swap1\n      pop\n        /* \"#utility.yul\":21043:21462   */\n      swap2\n      swap1\n      pop\n      jump\t// out\n        /* \"#utility.yul\":21468:21690   */\n    tag_60:\n        /* \"#utility.yul\":21561:21565   */\n      0x00\n        /* \"#utility.yul\":21599:21601   */\n      0x20\n        /* \"#utility.yul\":21588:21597   */\n      dup3\n        /* \"#utility.yul\":21584:21602   */\n      add\n        /* \"#utility.yul\":21576:21602   */\n      swap1\n      pop\n        /* \"#utility.yul\":21612:21683   */\n      tag_624\n        /* \"#utility.yul\":21680:21681   */\n      0x00\n        /* \"#utility.yul\":21669:21678   */\n      dup4\n        /* \"#utility.yul\":21665:21682   */\n      add\n        /* \"#utility.yul\":21656:21662   */\n      dup5\n        /* \"#utility.yul\":21612:21683   */\n      tag_570\n      jump\t// in\n    tag_624:\n        /* \"#utility.yul\":21468:21690   */\n      swap3\n      swap2\n      pop\n      pop\n      jump\t// out\n        /* \"#utility.yul\":21696:21910   */\n    tag_91:\n        /* \"#utility.yul\":21785:21789   */\n      0x00\n        /* \"#utility.yul\":21823:21825   */\n      0x20\n        /* \"#utility.yul\":21812:21821   */\n      dup3\n        /* \"#utility.yul\":21808:21826   */\n      add\n        /* \"#utility.yul\":21800:21826   */\n      swap1\n      pop\n        /* \"#utility.yul\":21836:21903   */\n      tag_626\n        /* \"#utility.yul\":21900:21901   */\n      0x00\n        /* \"#utility.yul\":21889:21898   */\n      dup4\n        /* \"#utility.yul\":21885:21902   */\n      add\n        /* \"#utility.yul\":21876:21882   */\n      dup5\n        /* \"#utility.yul\":21836:21903   */\n      tag_574\n      jump\t// in\n    tag_626:\n        /* \"#utility.yul\":21696:21910   */\n      swap3\n      swap2\n      pop\n      pop\n      jump\t// out\n        /* \"#utility.yul\":21997:22096   */\n    tag_462:\n        /* \"#utility.yul\":22049:22055   */\n      0x00\n        /* \"#utility.yul\":22083:22088   */\n      dup2\n        /* \"#utility.yul\":22077:22089   */\n      mload\n        /* \"#utility.yul\":22067:22089   */\n      swap1\n      pop\n        /* \"#utility.yul\":21997:22096   */\n      swap2\n      swap1\n      pop\n      jump\t// out\n        /* \"#utility.yul\":22102:22271   */\n    tag_464:\n        /* \"#utility.yul\":22186:22197   */\n      0x00\n        /* \"#utility.yul\":22220:22226   */\n      dup3\n        /* \"#utility.yul\":22215:22218   */\n      dup3\n        /* \"#utility.yul\":22208:22227   */\n      mstore\n        /* \"#utility.yul\":22260:22264   */\n      0x20\n        /* \"#utility.yul\":22255:22258   */\n      dup3\n        /* \"#utility.yul\":22251:22265   */\n      add\n        /* \"#utility.yul\":22236:22265   */\n      swap1\n      pop\n        /* \"#utility.yul\":22102:22271   */\n      swap3\n      swap2\n      pop\n      pop\n      jump\t// out\n        /* \"#utility.yul\":22277:22425   */\n    tag_473:\n        /* \"#utility.yul\":22379:22390   */\n      0x00\n        /* \"#utility.yul\":22416:22419   */\n      dup2\n        /* \"#utility.yul\":22401:22419   */\n      swap1\n      pop\n        /* \"#utility.yul\":22277:22425   */\n      swap3\n      swap2\n      pop\n      pop\n      jump\t// out\n        /* \"#utility.yul\":22431:22736   */\n    tag_222:\n        /* \"#utility.yul\":22471:22474   */\n      0x00\n        /* \"#utility.yul\":22490:22510   */\n      tag_633\n        /* \"#utility.yul\":22508:22509   */\n      dup3\n        /* \"#utility.yul\":22490:22510   */\n      tag_573\n      jump\t// in\n    tag_633:\n        /* \"#utility.yul\":22485:22510   */\n      swap2\n      pop\n        /* \"#utility.yul\":22524:22544   */\n      tag_634\n        /* \"#utility.yul\":22542:22543   */\n      dup4\n        /* \"#utility.yul\":22524:22544   */\n      tag_573\n      jump\t// in\n    tag_634:\n        /* \"#utility.yul\":22519:22544   */\n      swap3\n      pop\n        /* \"#utility.yul\":22678:22679   */\n      dup3\n        /* \"#utility.yul\":22610:22676   */\n      0xffffffffffffffffffffffffffffffffffffffffffffffffffffffffffffffff\n        /* \"#utility.yul\":22606:22680   */\n      sub\n        /* \"#utility.yul\":22603:22604   */\n      dup3\n        /* \"#utility.yul\":22600:22681   */\n      gt\n        /* \"#utility.yul\":22597:22704   */\n      iszero\n      tag_635\n      jumpi\n        /* \"#utility.yul\":22684:22702   */\n      tag_636\n      tag_637\n      jump\t// in\n    tag_636:\n        /* \"#utility.yul\":22597:22704   */\n    tag_635:\n        /* \"#utility.yul\":22728:22729   */\n      dup3\n        /* \"#utility.yul\":22725:22726   */\n      dup3\n        /* \"#utility.yul\":22721:22730   */\n      add\n        /* \"#utility.yul\":22714:22730   */\n      swap1\n      pop\n        /* \"#utility.yul\":22431:22736   */\n      swap3\n      swap2\n      pop\n      pop\n      jump\t// out\n        /* \"#utility.yul\":22742:23090   */\n    tag_250:\n        /* \"#utility.yul\":22782:22789   */\n      0x00\n        /* \"#utility.yul\":22805:22825   */\n      tag_639\n        /* \"#utility.yul\":22823:22824   */\n      dup3\n        /* \"#utility.yul\":22805:22825   */\n      tag_573\n      jump\t// in\n    tag_639:\n        /* \"#utility.yul\":22800:22825   */\n      swap2\n      pop\n        /* \"#utility.yul\":22839:22859   */\n      tag_640\n        /* \"#utility.yul\":22857:22858   */\n      dup4\n        /* \"#utility.yul\":22839:22859   */\n      tag_573\n      jump\t// in\n    tag_640:\n        /* \"#utility.yul\":22834:22859   */\n      swap3\n      pop\n        /* \"#utility.yul\":23027:23028   */\n      dup2\n        /* \"#utility.yul\":22959:23025   */\n      0xffffffffffffffffffffffffffffffffffffffffffffffffffffffffffffffff\n        /* \"#utility.yul\":22955:23029   */\n      div\n        /* \"#utility.yul\":22952:22953   */\n      dup4\n        /* \"#utility.yul\":22949:23030   */\n      gt\n        /* \"#utility.yul\":22944:22945   */\n      dup3\n        /* \"#utility.yul\":22937:22946   */\n      iszero\n        /* \"#utility.yul\":22930:22947   */\n      iszero\n        /* \"#utility.yul\":22926:23031   */\n      and\n        /* \"#utility.yul\":22923:23054   */\n      iszero\n      tag_641\n      jumpi\n        /* \"#utility.yul\":23034:23052   */\n      tag_642\n      tag_637\n      jump\t// in\n    tag_642:\n        /* \"#utility.yul\":22923:23054   */\n    tag_641:\n        /* \"#utility.yul\":23082:23083   */\n      dup3\n        /* \"#utility.yul\":23079:23080   */\n      dup3\n        /* \"#utility.yul\":23075:23084   */\n      mul\n        /* \"#utility.yul\":23064:23084   */\n      swap1\n      pop\n        /* \"#utility.yul\":22742:23090   */\n      swap3\n      swap2\n      pop\n      pop\n      jump\t// out\n        /* \"#utility.yul\":23096:23287   */\n    tag_228:\n        /* \"#utility.yul\":23136:23140   */\n      0x00\n        /* \"#utility.yul\":23156:23176   */\n      tag_644\n        /* \"#utility.yul\":23174:23175   */\n      dup3\n        /* \"#utility.yul\":23156:23176   */\n      tag_573\n      jump\t// in\n    tag_644:\n        /* \"#utility.yul\":23151:23176   */\n      swap2\n      pop\n        /* \"#utility.yul\":23190:23210   */\n      tag_645\n        /* \"#utility.yul\":23208:23209   */\n      dup4\n        /* \"#utility.yul\":23190:23210   */\n      tag_573\n      jump\t// in\n    tag_645:\n        /* \"#utility.yul\":23185:23210   */\n      swap3\n      pop\n        /* \"#utility.yul\":23229:23230   */\n      dup3\n        /* \"#utility.yul\":23226:23227   */\n      dup3\n        /* \"#utility.yul\":23223:23231   */\n      lt\n        /* \"#utility.yul\":23220:23254   */\n      iszero\n      tag_646\n      jumpi\n        /* \"#utility.yul\":23234:23252   */\n      tag_647\n      tag_637\n      jump\t// in\n    tag_647:\n        /* \"#utility.yul\":23220:23254   */\n    tag_646:\n        /* \"#utility.yul\":23279:23280   */\n      dup3\n        /* \"#utility.yul\":23276:23277   */\n      dup3\n        /* \"#utility.yul\":23272:23281   */\n      sub\n        /* \"#utility.yul\":23264:23281   */\n      swap1\n      pop\n        /* \"#utility.yul\":23096:23287   */\n      swap3\n      swap2\n      pop\n      pop\n      jump\t// out\n        /* \"#utility.yul\":23293:23389   */\n    tag_648:\n        /* \"#utility.yul\":23330:23337   */\n      0x00\n        /* \"#utility.yul\":23359:23383   */\n      tag_650\n        /* \"#utility.yul\":23377:23382   */\n      dup3\n        /* \"#utility.yul\":23359:23383   */\n      tag_651\n      jump\t// in\n    tag_650:\n        /* \"#utility.yul\":23348:23383   */\n      swap1\n      pop\n        /* \"#utility.yul\":23293:23389   */\n      swap2\n      swap1\n      pop\n      jump\t// out\n        /* \"#utility.yul\":23395:23485   */\n    tag_454:\n        /* \"#utility.yul\":23429:23436   */\n      0x00\n        /* \"#utility.yul\":23472:23477   */\n      dup2\n        /* \"#utility.yul\":23465:23478   */\n      iszero\n        /* \"#utility.yul\":23458:23479   */\n      iszero\n        /* \"#utility.yul\":23447:23479   */\n      swap1\n      pop\n        /* \"#utility.yul\":23395:23485   */\n      swap2\n      swap1\n      pop\n      jump\t// out\n        /* \"#utility.yul\":23491:23568   */\n    tag_458:\n        /* \"#utility.yul\":23528:23535   */\n      0x00\n        /* \"#utility.yul\":23557:23562   */\n      dup2\n        /* \"#utility.yul\":23546:23562   */\n      swap1\n      pop\n        /* \"#utility.yul\":23491:23568   */\n      swap2\n      swap1\n      pop\n      jump\t// out\n        /* \"#utility.yul\":23574:23723   */\n    tag_654:\n        /* \"#utility.yul\":23610:23617   */\n      0x00\n        /* \"#utility.yul\":23650:23716   */\n      0xffffffff00000000000000000000000000000000000000000000000000000000\n        /* \"#utility.yul\":23643:23648   */\n      dup3\n        /* \"#utility.yul\":23639:23717   */\n      and\n        /* \"#utility.yul\":23628:23717   */\n      swap1\n      pop\n        /* \"#utility.yul\":23574:23723   */\n      swap2\n      swap1\n      pop\n      jump\t// out\n        /* \"#utility.yul\":23729:23855   */\n    tag_651:\n        /* \"#utility.yul\":23766:23773   */\n      0x00\n        /* \"#utility.yul\":23806:23848   */\n      0xffffffffffffffffffffffffffffffffffffffff\n        /* \"#utility.yul\":23799:23804   */\n      dup3\n        /* \"#utility.yul\":23795:23849   */\n      and\n        /* \"#utility.yul\":23784:23849   */\n      swap1\n      pop\n        /* \"#utility.yul\":23729:23855   */\n      swap2\n      swap1\n      pop\n      jump\t// out\n        /* \"#utility.yul\":23861:23938   */\n    tag_573:\n        /* \"#utility.yul\":23898:23905   */\n      0x00\n        /* \"#utility.yul\":23927:23932   */\n      dup2\n        /* \"#utility.yul\":23916:23932   */\n      swap1\n      pop\n        /* \"#utility.yul\":23861:23938   */\n      swap2\n      swap1\n      pop\n      jump\t// out\n        /* \"#utility.yul\":23944:24030   */\n    tag_577:\n        /* \"#utility.yul\":23979:23986   */\n      0x00\n        /* \"#utility.yul\":24019:24023   */\n      0xff\n        /* \"#utility.yul\":24012:24017   */\n      dup3\n        /* \"#utility.yul\":24008:24024   */\n      and\n        /* \"#utility.yul\":23997:24024   */\n      swap1\n      pop\n        /* \"#utility.yul\":23944:24030   */\n      swap2\n      swap1\n      pop\n      jump\t// out\n        /* \"#utility.yul\":24036:24343   */\n    tag_466:\n        /* \"#utility.yul\":24104:24105   */\n      0x00\n        /* \"#utility.yul\":24114:24227   */\n    tag_660:\n        /* \"#utility.yul\":24128:24134   */\n      dup4\n        /* \"#utility.yul\":24125:24126   */\n      dup2\n        /* \"#utility.yul\":24122:24135   */\n      lt\n        /* \"#utility.yul\":24114:24227   */\n      iszero\n      tag_662\n      jumpi\n        /* \"#utility.yul\":24213:24214   */\n      dup1\n        /* \"#utility.yul\":24208:24211   */\n      dup3\n        /* \"#utility.yul\":24204:24215   */\n      add\n        /* \"#utility.yul\":24198:24216   */\n      mload\n        /* \"#utility.yul\":24194:24195   */\n      dup2\n        /* \"#utility.yul\":24189:24192   */\n      dup5\n        /* \"#utility.yul\":24185:24196   */\n      add\n        /* \"#utility.yul\":24178:24217   */\n      mstore\n        /* \"#utility.yul\":24150:24152   */\n      0x20\n        /* \"#utility.yul\":24147:24148   */\n      dup2\n        /* \"#utility.yul\":24143:24153   */\n      add\n        /* \"#utility.yul\":24138:24153   */\n      swap1\n      pop\n        /* \"#utility.yul\":24114:24227   */\n      jump(tag_660)\n    tag_662:\n        /* \"#utility.yul\":24245:24251   */\n      dup4\n        /* \"#utility.yul\":24242:24243   */\n      dup2\n        /* \"#utility.yul\":24239:24252   */\n      gt\n        /* \"#utility.yul\":24236:24337   */\n      iszero\n      tag_663\n      jumpi\n        /* \"#utility.yul\":24325:24326   */\n      0x00\n        /* \"#utility.yul\":24316:24322   */\n      dup5\n        /* \"#utility.yul\":24311:24314   */\n      dup5\n        /* \"#utility.yul\":24307:24323   */\n      add\n        /* \"#utility.yul\":24300:24327   */\n      mstore\n        /* \"#utility.yul\":24236:24337   */\n    tag_663:\n        /* \"#utility.yul\":24085:24343   */\n      pop\n        /* \"#utility.yul\":24036:24343   */\n      pop\n      pop\n      pop\n      jump\t// out\n        /* \"#utility.yul\":24349:24520   */\n    tag_391:\n        /* \"#utility.yul\":24388:24391   */\n      0x00\n        /* \"#utility.yul\":24411:24435   */\n      tag_665\n        /* \"#utility.yul\":24429:24434   */\n      dup3\n        /* \"#utility.yul\":24411:24435   */\n      tag_573\n      jump\t// in\n    tag_665:\n        /* \"#utility.yul\":24402:24435   */\n      swap2\n      pop\n        /* \"#utility.yul\":24457:24461   */\n      0x00\n        /* \"#utility.yul\":24450:24455   */\n      dup3\n        /* \"#utility.yul\":24447:24462   */\n      eq\n        /* \"#utility.yul\":24444:24485   */\n      iszero\n      tag_666\n      jumpi\n        /* \"#utility.yul\":24465:24483   */\n      tag_667\n      tag_637\n      jump\t// in\n    tag_667:\n        /* \"#utility.yul\":24444:24485   */\n    tag_666:\n        /* \"#utility.yul\":24512:24513   */\n      0x01\n        /* \"#utility.yul\":24505:24510   */\n      dup3\n        /* \"#utility.yul\":24501:24514   */\n      sub\n        /* \"#utility.yul\":24494:24514   */\n      swap1\n      pop\n        /* \"#utility.yul\":24349:24520   */\n      swap2\n      swap1\n      pop\n      jump\t// out\n        /* \"#utility.yul\":24526:24846   */\n    tag_184:\n        /* \"#utility.yul\":24570:24576   */\n      0x00\n        /* \"#utility.yul\":24607:24608   */\n      0x02\n        /* \"#utility.yul\":24601:24605   */\n      dup3\n        /* \"#utility.yul\":24597:24609   */\n      div\n        /* \"#utility.yul\":24587:24609   */\n      swap1\n      pop\n        /* \"#utility.yul\":24654:24655   */\n      0x01\n        /* \"#utility.yul\":24648:24652   */\n      dup3\n        /* \"#utility.yul\":24644:24656   */\n      and\n        /* \"#utility.yul\":24675:24693   */\n      dup1\n        /* \"#utility.yul\":24665:24746   */\n      tag_669\n      jumpi\n        /* \"#utility.yul\":24731:24735   */\n      0x7f\n        /* \"#utility.yul\":24723:24729   */\n      dup3\n        /* \"#utility.yul\":24719:24736   */\n      and\n        /* \"#utility.yul\":24709:24736   */\n      swap2\n      pop\n        /* \"#utility.yul\":24665:24746   */\n    tag_669:\n        /* \"#utility.yul\":24793:24795   */\n      0x20\n        /* \"#utility.yul\":24785:24791   */\n      dup3\n        /* \"#utility.yul\":24782:24796   */\n      lt\n        /* \"#utility.yul\":24762:24780   */\n      dup2\n        /* \"#utility.yul\":24759:24797   */\n      eq\n        /* \"#utility.yul\":24756:24840   */\n      iszero\n      tag_670\n      jumpi\n        /* \"#utility.yul\":24812:24830   */\n      tag_671\n      tag_672\n      jump\t// in\n    tag_671:\n        /* \"#utility.yul\":24756:24840   */\n    tag_670:\n        /* \"#utility.yul\":24577:24846   */\n      pop\n        /* \"#utility.yul\":24526:24846   */\n      swap2\n      swap1\n      pop\n      jump\t// out\n        /* \"#utility.yul\":24852:25032   */\n    tag_637:\n        /* \"#utility.yul\":24900:24977   */\n      0x4e487b7100000000000000000000000000000000000000000000000000000000\n        /* \"#utility.yul\":24897:24898   */\n      0x00\n        /* \"#utility.yul\":24890:24978   */\n      mstore\n        /* \"#utility.yul\":24997:25001   */\n      0x11\n        /* \"#utility.yul\":24994:24995   */\n      0x04\n        /* \"#utility.yul\":24987:25002   */\n      mstore\n        /* \"#utility.yul\":25021:25025   */\n      0x24\n        /* \"#utility.yul\":25018:25019   */\n      0x00\n        /* \"#utility.yul\":25011:25026   */\n      revert\n        /* \"#utility.yul\":25038:25218   */\n    tag_672:\n        /* \"#utility.yul\":25086:25163   */\n      0x4e487b7100000000000000000000000000000000000000000000000000000000\n        /* \"#utility.yul\":25083:25084   */\n      0x00\n        /* \"#utility.yul\":25076:25164   */\n      mstore\n        /* \"#utility.yul\":25183:25187   */\n      0x22\n        /* \"#utility.yul\":25180:25181   */\n      0x04\n        /* \"#utility.yul\":25173:25188   */\n      mstore\n        /* \"#utility.yul\":25207:25211   */\n      0x24\n        /* \"#utility.yul\":25204:25205   */\n      0x00\n        /* \"#utility.yul\":25197:25212   */\n      revert\n        /* \"#utility.yul\":25224:25404   */\n    tag_378:\n        /* \"#utility.yul\":25272:25349   */\n      0x4e487b7100000000000000000000000000000000000000000000000000000000\n        /* \"#utility.yul\":25269:25270   */\n      0x00\n        /* \"#utility.yul\":25262:25350   */\n      mstore\n        /* \"#utility.yul\":25369:25373   */\n      0x32\n        /* \"#utility.yul\":25366:25367   */\n      0x04\n        /* \"#utility.yul\":25359:25374   */\n      mstore\n        /* \"#utility.yul\":25393:25397   */\n      0x24\n        /* \"#utility.yul\":25390:25391   */\n      0x00\n        /* \"#utility.yul\":25383:25398   */\n      revert\n        /* \"#utility.yul\":25410:25590   */\n    tag_374:\n        /* \"#utility.yul\":25458:25535   */\n      0x4e487b7100000000000000000000000000000000000000000000000000000000\n        /* \"#utility.yul\":25455:25456   */\n      0x00\n        /* \"#utility.yul\":25448:25536   */\n      mstore\n        /* \"#utility.yul\":25555:25559   */\n      0x41\n        /* \"#utility.yul\":25552:25553   */\n      0x04\n        /* \"#utility.yul\":25545:25560   */\n      mstore\n        /* \"#utility.yul\":25579:25583   */\n      0x24\n        /* \"#utility.yul\":25576:25577   */\n      0x00\n        /* \"#utility.yul\":25569:25584   */\n      revert\n        /* \"#utility.yul\":25719:25836   */\n    tag_415:\n        /* \"#utility.yul\":25828:25829   */\n      0x00\n        /* \"#utility.yul\":25825:25826   */\n      dup1\n        /* \"#utility.yul\":25818:25830   */\n      revert\n        /* \"#utility.yul\":25842:25944   */\n    tag_468:\n        /* \"#utility.yul\":25883:25889   */\n      0x00\n        /* \"#utility.yul\":25934:25936   */\n      0x1f\n        /* \"#utility.yul\":25930:25937   */\n      not\n        /* \"#utility.yul\":25925:25927   */\n      0x1f\n        /* \"#utility.yul\":25918:25923   */\n      dup4\n        /* \"#utility.yul\":25914:25928   */\n      add\n        /* \"#utility.yul\":25910:25938   */\n      and\n        /* \"#utility.yul\":25900:25938   */\n      swap1\n      pop\n        /* \"#utility.yul\":25842:25944   */\n      swap2\n      swap1\n      pop\n      jump\t// out\n        /* \"#utility.yul\":25950:26132   */\n    tag_479:\n        /* \"#utility.yul\":26090:26124   */\n      0x537472696e67733a20686578206c656e67746820696e73756666696369656e74\n        /* \"#utility.yul\":26086:26087   */\n      0x00\n        /* \"#utility.yul\":26078:26084   */\n      dup3\n        /* \"#utility.yul\":26074:26088   */\n      add\n        /* \"#utility.yul\":26067:26125   */\n      mstore\n        /* \"#utility.yul\":25950:26132   */\n      pop\n      jump\t// out\n        /* \"#utility.yul\":26138:26360   */\n    tag_484:\n        /* \"#utility.yul\":26278:26312   */\n      0x45524332303a207472616e7366657220746f20746865207a65726f2061646472\n        /* \"#utility.yul\":26274:26275   */\n      0x00\n        /* \"#utility.yul\":26266:26272   */\n      dup3\n        /* \"#utility.yul\":26262:26276   */\n      add\n        /* \"#utility.yul\":26255:26313   */\n      mstore\n        /* \"#utility.yul\":26347:26352   */\n      0x6573730000000000000000000000000000000000000000000000000000000000\n        /* \"#utility.yul\":26342:26344   */\n      0x20\n        /* \"#utility.yul\":26334:26340   */\n      dup3\n        /* \"#utility.yul\":26330:26345   */\n      add\n        /* \"#utility.yul\":26323:26353   */\n      mstore\n        /* \"#utility.yul\":26138:26360   */\n      pop\n      jump\t// out\n        /* \"#utility.yul\":26366:26609   */\n    tag_489:\n        /* \"#utility.yul\":26506:26540   */\n      0x416d6f756e7420746f2072656d6f76652063616e6e6f74206265206772656174\n        /* \"#utility.yul\":26502:26503   */\n      0x00\n        /* \"#utility.yul\":26494:26500   */\n      dup3\n        /* \"#utility.yul\":26490:26504   */\n      add\n        /* \"#utility.yul\":26483:26541   */\n      mstore\n        /* \"#utility.yul\":26575:26601   */\n      0x6572207468616e20756e636c61696d656420616d6f756e740000000000000000\n        /* \"#utility.yul\":26570:26572   */\n      0x20\n        /* \"#utility.yul\":26562:26568   */\n      dup3\n        /* \"#utility.yul\":26558:26573   */\n      add\n        /* \"#utility.yul\":26551:26602   */\n      mstore\n        /* \"#utility.yul\":26366:26609   */\n      pop\n      jump\t// out\n        /* \"#utility.yul\":26615:26836   */\n    tag_494:\n        /* \"#utility.yul\":26755:26789   */\n      0x45524332303a206275726e20616d6f756e7420657863656564732062616c616e\n        /* \"#utility.yul\":26751:26752   */\n      0x00\n        /* \"#utility.yul\":26743:26749   */\n      dup3\n        /* \"#utility.yul\":26739:26753   */\n      add\n        /* \"#utility.yul\":26732:26790   */\n      mstore\n        /* \"#utility.yul\":26824:26828   */\n      0x6365000000000000000000000000000000000000000000000000000000000000\n        /* \"#utility.yul\":26819:26821   */\n      0x20\n        /* \"#utility.yul\":26811:26817   */\n      dup3\n        /* \"#utility.yul\":26807:26822   */\n      add\n        /* \"#utility.yul\":26800:26829   */\n      mstore\n        /* \"#utility.yul\":26615:26836   */\n      pop\n      jump\t// out\n        /* \"#utility.yul\":26842:27063   */\n    tag_499:\n        /* \"#utility.yul\":26982:27016   */\n      0x45524332303a20617070726f766520746f20746865207a65726f206164647265\n        /* \"#utility.yul\":26978:26979   */\n      0x00\n        /* \"#utility.yul\":26970:26976   */\n      dup3\n        /* \"#utility.yul\":26966:26980   */\n      add\n        /* \"#utility.yul\":26959:27017   */\n      mstore\n        /* \"#utility.yul\":27051:27055   */\n      0x7373000000000000000000000000000000000000000000000000000000000000\n        /* \"#utility.yul\":27046:27048   */\n      0x20\n        /* \"#utility.yul\":27038:27044   */\n      dup3\n        /* \"#utility.yul\":27034:27049   */\n      add\n        /* \"#utility.yul\":27027:27056   */\n      mstore\n        /* \"#utility.yul\":26842:27063   */\n      pop\n      jump\t// out\n        /* \"#utility.yul\":27069:27248   */\n    tag_504:\n        /* \"#utility.yul\":27209:27240   */\n      0x45524332303a20696e73756666696369656e7420616c6c6f77616e6365000000\n        /* \"#utility.yul\":27205:27206   */\n      0x00\n        /* \"#utility.yul\":27197:27203   */\n      dup3\n        /* \"#utility.yul\":27193:27207   */\n      add\n        /* \"#utility.yul\":27186:27241   */\n      mstore\n        /* \"#utility.yul\":27069:27248   */\n      pop\n      jump\t// out\n        /* \"#utility.yul\":27254:27479   */\n    tag_509:\n        /* \"#utility.yul\":27394:27428   */\n      0x45524332303a207472616e7366657220616d6f756e7420657863656564732062\n        /* \"#utility.yul\":27390:27391   */\n      0x00\n        /* \"#utility.yul\":27382:27388   */\n      dup3\n        /* \"#utility.yul\":27378:27392   */\n      add\n        /* \"#utility.yul\":27371:27429   */\n      mstore\n        /* \"#utility.yul\":27463:27471   */\n      0x616c616e63650000000000000000000000000000000000000000000000000000\n        /* \"#utility.yul\":27458:27460   */\n      0x20\n        /* \"#utility.yul\":27450:27456   */\n      dup3\n        /* \"#utility.yul\":27446:27461   */\n      add\n        /* \"#utility.yul\":27439:27472   */\n      mstore\n        /* \"#utility.yul\":27254:27479   */\n      pop\n      jump\t// out\n        /* \"#utility.yul\":27485:27712   */\n    tag_514:\n        /* \"#utility.yul\":27625:27659   */\n      0x556e636c61696d65642062616c616e6365206d75737420626520677265617465\n        /* \"#utility.yul\":27621:27622   */\n      0x00\n        /* \"#utility.yul\":27613:27619   */\n      dup3\n        /* \"#utility.yul\":27609:27623   */\n      add\n        /* \"#utility.yul\":27602:27660   */\n      mstore\n        /* \"#utility.yul\":27694:27704   */\n      0x72207468616e2030000000000000000000000000000000000000000000000000\n        /* \"#utility.yul\":27689:27691   */\n      0x20\n        /* \"#utility.yul\":27681:27687   */\n      dup3\n        /* \"#utility.yul\":27677:27692   */\n      add\n        /* \"#utility.yul\":27670:27705   */\n      mstore\n        /* \"#utility.yul\":27485:27712   */\n      pop\n      jump\t// out\n        /* \"#utility.yul\":27718:27890   */\n    tag_519:\n        /* \"#utility.yul\":27858:27882   */\n      0x43616c6c6572206973206e6f742061206275726e657200000000000000000000\n        /* \"#utility.yul\":27854:27855   */\n      0x00\n        /* \"#utility.yul\":27846:27852   */\n      dup3\n        /* \"#utility.yul\":27842:27856   */\n      add\n        /* \"#utility.yul\":27835:27883   */\n      mstore\n        /* \"#utility.yul\":27718:27890   */\n      pop\n      jump\t// out\n        /* \"#utility.yul\":27896:28116   */\n    tag_524:\n        /* \"#utility.yul\":28036:28070   */\n      0x45524332303a206275726e2066726f6d20746865207a65726f20616464726573\n        /* \"#utility.yul\":28032:28033   */\n      0x00\n        /* \"#utility.yul\":28024:28030   */\n      dup3\n        /* \"#utility.yul\":28020:28034   */\n      add\n        /* \"#utility.yul\":28013:28071   */\n      mstore\n        /* \"#utility.yul\":28105:28108   */\n      0x7300000000000000000000000000000000000000000000000000000000000000\n        /* \"#utility.yul\":28100:28102   */\n      0x20\n        /* \"#utility.yul\":28092:28098   */\n      dup3\n        /* \"#utility.yul\":28088:28103   */\n      add\n        /* \"#utility.yul\":28081:28109   */\n      mstore\n        /* \"#utility.yul\":27896:28116   */\n      pop\n      jump\t// out\n        /* \"#utility.yul\":28122:28346   */\n    tag_529:\n        /* \"#utility.yul\":28262:28296   */\n      0x45524332303a207472616e736665722066726f6d20746865207a65726f206164\n        /* \"#utility.yul\":28258:28259   */\n      0x00\n        /* \"#utility.yul\":28250:28256   */\n      dup3\n        /* \"#utility.yul\":28246:28260   */\n      add\n        /* \"#utility.yul\":28239:28297   */\n      mstore\n        /* \"#utility.yul\":28331:28338   */\n      0x6472657373000000000000000000000000000000000000000000000000000000\n        /* \"#utility.yul\":28326:28328   */\n      0x20\n        /* \"#utility.yul\":28318:28324   */\n      dup3\n        /* \"#utility.yul\":28314:28329   */\n      add\n        /* \"#utility.yul\":28307:28339   */\n      mstore\n        /* \"#utility.yul\":28122:28346   */\n      pop\n      jump\t// out\n        /* \"#utility.yul\":28352:28526   */\n    tag_534:\n        /* \"#utility.yul\":28492:28518   */\n      0x43616c6c6572206973206e6f7420612072657761726465720000000000000000\n        /* \"#utility.yul\":28488:28489   */\n      0x00\n        /* \"#utility.yul\":28480:28486   */\n      dup3\n        /* \"#utility.yul\":28476:28490   */\n      add\n        /* \"#utility.yul\":28469:28519   */\n      mstore\n        /* \"#utility.yul\":28352:28526   */\n      pop\n      jump\t// out\n        /* \"#utility.yul\":28532:28755   */\n    tag_539:\n        /* \"#utility.yul\":28672:28706   */\n      0x45524332303a20617070726f76652066726f6d20746865207a65726f20616464\n        /* \"#utility.yul\":28668:28669   */\n      0x00\n        /* \"#utility.yul\":28660:28666   */\n      dup3\n        /* \"#utility.yul\":28656:28670   */\n      add\n        /* \"#utility.yul\":28649:28707   */\n      mstore\n        /* \"#utility.yul\":28741:28747   */\n      0x7265737300000000000000000000000000000000000000000000000000000000\n        /* \"#utility.yul\":28736:28738   */\n      0x20\n        /* \"#utility.yul\":28728:28734   */\n      dup3\n        /* \"#utility.yul\":28724:28739   */\n      add\n        /* \"#utility.yul\":28717:28748   */\n      mstore\n        /* \"#utility.yul\":28532:28755   */\n      pop\n      jump\t// out\n        /* \"#utility.yul\":28761:28943   */\n    tag_544:\n        /* \"#utility.yul\":28901:28935   */\n      0x636c61696d61626c65206d7573742062652067726561746572207468616e2030\n        /* \"#utility.yul\":28897:28898   */\n      0x00\n        /* \"#utility.yul\":28889:28895   */\n      dup3\n        /* \"#utility.yul\":28885:28899   */\n      add\n        /* \"#utility.yul\":28878:28936   */\n      mstore\n        /* \"#utility.yul\":28761:28943   */\n      pop\n      jump\t// out\n        /* \"#utility.yul\":28949:29122   */\n    tag_549:\n        /* \"#utility.yul\":29089:29114   */\n      0x416363657373436f6e74726f6c3a206163636f756e7420000000000000000000\n        /* \"#utility.yul\":29085:29086   */\n      0x00\n        /* \"#utility.yul\":29077:29083   */\n      dup3\n        /* \"#utility.yul\":29073:29087   */\n      add\n        /* \"#utility.yul\":29066:29115   */\n      mstore\n        /* \"#utility.yul\":28949:29122   */\n      pop\n      jump\t// out\n        /* \"#utility.yul\":29128:29352   */\n    tag_554:\n        /* \"#utility.yul\":29268:29302   */\n      0x45524332303a2064656372656173656420616c6c6f77616e63652062656c6f77\n        /* \"#utility.yul\":29264:29265   */\n      0x00\n        /* \"#utility.yul\":29256:29262   */\n      dup3\n        /* \"#utility.yul\":29252:29266   */\n      add\n        /* \"#utility.yul\":29245:29303   */\n      mstore\n        /* \"#utility.yul\":29337:29344   */\n      0x207a65726f000000000000000000000000000000000000000000000000000000\n        /* \"#utility.yul\":29332:29334   */\n      0x20\n        /* \"#utility.yul\":29324:29330   */\n      dup3\n        /* \"#utility.yul\":29320:29335   */\n      add\n        /* \"#utility.yul\":29313:29345   */\n      mstore\n        /* \"#utility.yul\":29128:29352   */\n      pop\n      jump\t// out\n        /* \"#utility.yul\":29358:29525   */\n    tag_559:\n        /* \"#utility.yul\":29498:29517   */\n      0x206973206d697373696e6720726f6c6520000000000000000000000000000000\n        /* \"#utility.yul\":29494:29495   */\n      0x00\n        /* \"#utility.yul\":29486:29492   */\n      dup3\n        /* \"#utility.yul\":29482:29496   */\n      add\n        /* \"#utility.yul\":29475:29518   */\n      mstore\n        /* \"#utility.yul\":29358:29525   */\n      pop\n      jump\t// out\n        /* \"#utility.yul\":29531:29765   */\n    tag_564:\n        /* \"#utility.yul\":29671:29705   */\n      0x416363657373436f6e74726f6c3a2063616e206f6e6c792072656e6f756e6365\n        /* \"#utility.yul\":29667:29668   */\n      0x00\n        /* \"#utility.yul\":29659:29665   */\n      dup3\n        /* \"#utility.yul\":29655:29669   */\n      add\n        /* \"#utility.yul\":29648:29706   */\n      mstore\n        /* \"#utility.yul\":29740:29757   */\n      0x20726f6c657320666f722073656c660000000000000000000000000000000000\n        /* \"#utility.yul\":29735:29737   */\n      0x20\n        /* \"#utility.yul\":29727:29733   */\n      dup3\n        /* \"#utility.yul\":29723:29738   */\n      add\n        /* \"#utility.yul\":29716:29758   */\n      mstore\n        /* \"#utility.yul\":29531:29765   */\n      pop\n      jump\t// out\n        /* \"#utility.yul\":29771:29952   */\n    tag_569:\n        /* \"#utility.yul\":29911:29944   */\n      0x45524332303a206d696e7420746f20746865207a65726f206164647265737300\n        /* \"#utility.yul\":29907:29908   */\n      0x00\n        /* \"#utility.yul\":29899:29905   */\n      dup3\n        /* \"#utility.yul\":29895:29909   */\n      add\n        /* \"#utility.yul\":29888:29945   */\n      mstore\n        /* \"#utility.yul\":29771:29952   */\n      pop\n      jump\t// out\n        /* \"#utility.yul\":29958:30080   */\n    tag_399:\n        /* \"#utility.yul\":30031:30055   */\n      tag_701\n        /* \"#utility.yul\":30049:30054   */\n      dup2\n        /* \"#utility.yul\":30031:30055   */\n      tag_648\n      jump\t// in\n    tag_701:\n        /* \"#utility.yul\":30024:30029   */\n      dup2\n        /* \"#utility.yul\":30021:30056   */\n      eq\n        /* \"#utility.yul\":30011:30074   */\n      tag_702\n      jumpi\n        /* \"#utility.yul\":30070:30071   */\n      0x00\n        /* \"#utility.yul\":30067:30068   */\n      dup1\n        /* \"#utility.yul\":30060:30072   */\n      revert\n        /* \"#utility.yul\":30011:30074   */\n    tag_702:\n        /* \"#utility.yul\":29958:30080   */\n      pop\n      jump\t// out\n        /* \"#utility.yul\":30086:30208   */\n    tag_403:\n        /* \"#utility.yul\":30159:30183   */\n      tag_704\n        /* \"#utility.yul\":30177:30182   */\n      dup2\n        /* \"#utility.yul\":30159:30183   */\n      tag_458\n      jump\t// in\n    tag_704:\n        /* \"#utility.yul\":30152:30157   */\n      dup2\n        /* \"#utility.yul\":30149:30184   */\n      eq\n        /* \"#utility.yul\":30139:30202   */\n      tag_705\n      jumpi\n        /* \"#utility.yul\":30198:30199   */\n      0x00\n        /* \"#utility.yul\":30195:30196   */\n      dup1\n        /* \"#utility.yul\":30188:30200   */\n      revert\n        /* \"#utility.yul\":30139:30202   */\n    tag_705:\n        /* \"#utility.yul\":30086:30208   */\n      pop\n      jump\t// out\n        /* \"#utility.yul\":30214:30334   */\n    tag_407:\n        /* \"#utility.yul\":30286:30309   */\n      tag_707\n        /* \"#utility.yul\":30303:30308   */\n      dup2\n        /* \"#utility.yul\":30286:30309   */\n      tag_654\n      jump\t// in\n    tag_707:\n        /* \"#utility.yul\":30279:30284   */\n      dup2\n        /* \"#utility.yul\":30276:30310   */\n      eq\n        /* \"#utility.yul\":30266:30328   */\n      tag_708\n      jumpi\n        /* \"#utility.yul\":30324:30325   */\n      0x00\n        /* \"#utility.yul\":30321:30322   */\n      dup1\n        /* \"#utility.yul\":30314:30326   */\n      revert\n        /* \"#utility.yul\":30266:30328   */\n    tag_708:\n        /* \"#utility.yul\":30214:30334   */\n      pop\n      jump\t// out\n        /* \"#utility.yul\":30340:30462   */\n    tag_411:\n        /* \"#utility.yul\":30413:30437   */\n      tag_710\n        /* \"#utility.yul\":30431:30436   */\n      dup2\n        /* \"#utility.yul\":30413:30437   */\n      tag_573\n      jump\t// in\n    tag_710:\n        /* \"#utility.yul\":30406:30411   */\n      dup2\n        /* \"#utility.yul\":30403:30438   */\n      eq\n        /* \"#utility.yul\":30393:30456   */\n      tag_711\n      jumpi\n        /* \"#utility.yul\":30452:30453   */\n      0x00\n        /* \"#utility.yul\":30449:30450   */\n      dup1\n        /* \"#utility.yul\":30442:30454   */\n      revert\n        /* \"#utility.yul\":30393:30456   */\n    tag_711:\n        /* \"#utility.yul\":30340:30462   */\n      pop\n      jump\t// out\n\n    auxdata: 0xa2646970667358221220b1f52c2db4f10948057b32630b412dfd9d6624bfd866215abb4e92b2396d2f0d64736f6c63430008070033\n}\n",
				"bytecode": {
					"linkReferences": {},
					"object": "60806040523480156200001157600080fd5b506040518060400160405280600981526020017f466f6f20546f6b656e00000000000000000000000000000000000000000000008152506040518060400160405280600381526020017f464f4f000000000000000000000000000000000000000000000000000000000081525081600390805190602001906200009692919062000248565b508060049080519060200190620000af92919062000248565b505050620000c76000801b33620000cd60201b60201c565b6200035d565b620000df8282620000e360201b60201c565b5050565b620000f58282620001d560201b60201c565b620001d15760016005600084815260200190815260200160002060000160008373ffffffffffffffffffffffffffffffffffffffff1673ffffffffffffffffffffffffffffffffffffffff16815260200190815260200160002060006101000a81548160ff021916908315150217905550620001766200024060201b60201c565b73ffffffffffffffffffffffffffffffffffffffff168173ffffffffffffffffffffffffffffffffffffffff16837f2f8788117e7eff1d82e926ec794901d17c78024a50270940304540a733656f0d60405160405180910390a45b5050565b60006005600084815260200190815260200160002060000160008373ffffffffffffffffffffffffffffffffffffffff1673ffffffffffffffffffffffffffffffffffffffff16815260200190815260200160002060009054906101000a900460ff16905092915050565b600033905090565b8280546200025690620002f8565b90600052602060002090601f0160209004810192826200027a5760008555620002c6565b82601f106200029557805160ff1916838001178555620002c6565b82800160010185558215620002c6579182015b82811115620002c5578251825591602001919060010190620002a8565b5b509050620002d59190620002d9565b5090565b5b80821115620002f4576000816000905550600101620002da565b5090565b600060028204905060018216806200031157607f821691505b602082108114156200032857620003276200032e565b5b50919050565b7f4e487b7100000000000000000000000000000000000000000000000000000000600052602260045260246000fd5b6130d2806200036d6000396000f3fe6080604052600436106101c25760003560e01c806370a08231116100f7578063a217fddf11610095578063d547741f11610064578063d547741f146106a9578063d5abeb01146106d2578063dd62ed3e146106fd578063e5b7f3051461073a576101c2565b8063a217fddf146105c7578063a457c2d7146105f2578063a9059cbb1461062f578063c884ef831461066c576101c2565b80638a9db765116100d15780638a9db7651461050d57806391d148541461053657806395d89b41146105735780639dc29fac1461059e576101c2565b806370a08231146104685780637ae2b5c7146104a55780638580cf76146104e2576101c2565b8063282c51f31161016457806336568abe1161013e57806336568abe146103bb57806339509351146103e45780634e71d92d14610421578063505bd3da1461042b576101c2565b8063282c51f31461033c5780632f2ff15d14610367578063313ce56714610390576101c2565b806318160ddd116101a057806318160ddd1461026c5780631adb068a1461029757806323b872dd146102c2578063248a9ca3146102ff576101c2565b806301ffc9a7146101c757806306fdde0314610204578063095ea7b31461022f575b600080fd5b3480156101d357600080fd5b506101ee60048036038101906101e99190612208565b610763565b6040516101fb91906125ee565b60405180910390f35b34801561021057600080fd5b506102196107dd565b6040516102269190612624565b60405180910390f35b34801561023b57600080fd5b506102566004803603810190610251919061215b565b61086f565b60405161026391906125ee565b60405180910390f35b34801561027857600080fd5b50610281610892565b60405161028e9190612866565b60405180910390f35b3480156102a357600080fd5b506102ac61089c565b6040516102b99190612866565b60405180910390f35b3480156102ce57600080fd5b506102e960048036038101906102e49190612108565b6108a2565b6040516102f691906125ee565b60405180910390f35b34801561030b57600080fd5b506103266004803603810190610321919061219b565b6108d1565b6040516103339190612609565b60405180910390f35b34801561034857600080fd5b506103516108f1565b60405161035e9190612609565b60405180910390f35b34801561037357600080fd5b5061038e600480360381019061038991906121c8565b610915565b005b34801561039c57600080fd5b506103a561093e565b6040516103b29190612881565b60405180910390f35b3480156103c757600080fd5b506103e260048036038101906103dd91906121c8565b610947565b005b3480156103f057600080fd5b5061040b6004803603810190610406919061215b565b6109ca565b60405161041891906125ee565b60405180910390f35b610429610a74565b005b34801561043757600080fd5b50610452600480360381019061044d919061209b565b610be9565b60405161045f9190612866565b60405180910390f35b34801561047457600080fd5b5061048f600480360381019061048a919061209b565b610c01565b60405161049c9190612866565b60405180910390f35b3480156104b157600080fd5b506104cc60048036038101906104c79190612235565b610c49565b6040516104d99190612866565b60405180910390f35b3480156104ee57600080fd5b506104f7610c63565b6040516105049190612609565b60405180910390f35b34801561051957600080fd5b50610534600480360381019061052f919061215b565b610c87565b005b34801561054257600080fd5b5061055d600480360381019061055891906121c8565b610dee565b60405161056a91906125ee565b60405180910390f35b34801561057f57600080fd5b50610588610e59565b6040516105959190612624565b60405180910390f35b3480156105aa57600080fd5b506105c560048036038101906105c0919061215b565b610eeb565b005b3480156105d357600080fd5b506105dc610f75565b6040516105e99190612609565b60405180910390f35b3480156105fe57600080fd5b506106196004803603810190610614919061215b565b610f7c565b60405161062691906125ee565b60405180910390f35b34801561063b57600080fd5b506106566004803603810190610651919061215b565b611066565b60405161066391906125ee565b60405180910390f35b34801561067857600080fd5b50610693600480360381019061068e919061209b565b611089565b6040516106a09190612866565b60405180910390f35b3480156106b557600080fd5b506106d060048036038101906106cb91906121c8565b6110a1565b005b3480156106de57600080fd5b506106e76110ca565b6040516106f49190612866565b60405180910390f35b34801561070957600080fd5b50610724600480360381019061071f91906120c8565b6110d9565b6040516107319190612866565b60405180910390f35b34801561074657600080fd5b50610761600480360381019061075c919061215b565b611160565b005b60007f7965db0b000000000000000000000000000000000000000000000000000000007bffffffffffffffffffffffffffffffffffffffffffffffffffffffff1916827bffffffffffffffffffffffffffffffffffffffffffffffffffffffff191614806107d657506107d5826111ea565b5b9050919050565b6060600380546107ec90612a8f565b80601f016020809104026020016040519081016040528092919081815260200182805461081890612a8f565b80156108655780601f1061083a57610100808354040283529160200191610865565b820191906000526020600020905b81548152906001019060200180831161084857829003601f168201915b5050505050905090565b60008061087a611254565b905061088781858561125c565b600191505092915050565b6000600254905090565b60085481565b6000806108ad611254565b90506108ba858285611427565b6108c58585856114b3565b60019150509392505050565b600060056000838152602001908152602001600020600101549050919050565b7f3c11d16cbaffd01df69ce1c404f6340ee057498f5f00246190ea54220576a84881565b61091e826108d1565b61092f8161092a611254565b611734565b61093983836117d1565b505050565b60006012905090565b61094f611254565b73ffffffffffffffffffffffffffffffffffffffff168173ffffffffffffffffffffffffffffffffffffffff16146109bc576040517f08c379a00000000000000000000000000000000000000000000000000000000081526004016109b390612826565b60405180910390fd5b6109c682826118b2565b5050565b6000806109d5611254565b9050610a69818585600160008673ffffffffffffffffffffffffffffffffffffffff1673ffffffffffffffffffffffffffffffffffffffff16815260200190815260200160002060008973ffffffffffffffffffffffffffffffffffffffff1673ffffffffffffffffffffffffffffffffffffffff16815260200190815260200160002054610a6491906128c3565b61125c565b600191505092915050565b6000600660003373ffffffffffffffffffffffffffffffffffffffff1673ffffffffffffffffffffffffffffffffffffffff16815260200190815260200160002054905060008111610afb576040517f08c379a0000000000000000000000000000000000000000000000000000000008152600401610af290612726565b60405180910390fd5b60006008546a52b7d2dcc80cd2e4000000610b169190612973565b90506000610b248383610c49565b905080600760003373ffffffffffffffffffffffffffffffffffffffff1673ffffffffffffffffffffffffffffffffffffffff1681526020019081526020016000206000828254610b7591906128c3565b925050819055506000600660003373ffffffffffffffffffffffffffffffffffffffff1673ffffffffffffffffffffffffffffffffffffffff168152602001908152602001600020819055508060086000828254610bd391906128c3565b92505081905550610be43382611994565b505050565b60066020528060005260406000206000915090505481565b60008060008373ffffffffffffffffffffffffffffffffffffffff1673ffffffffffffffffffffffffffffffffffffffff168152602001908152602001600020549050919050565b600081831115610c595781610c5b565b825b905092915050565b7fbeec13769b5f410b0584f69811bfd923818456d5edcf426b0e31cf90eed7a3f681565b610cb17fbeec13769b5f410b0584f69811bfd923818456d5edcf426b0e31cf90eed7a3f633610dee565b610cf0576040517f08c379a0000000000000000000000000000000000000000000000000000000008152600401610ce7906127a6565b60405180910390fd5b6000600660008473ffffffffffffffffffffffffffffffffffffffff1673ffffffffffffffffffffffffffffffffffffffff16815260200190815260200160002054600760008573ffffffffffffffffffffffffffffffffffffffff1673ffffffffffffffffffffffffffffffffffffffff1681526020019081526020016000205483610d7d9190612973565b610d879190612973565b905060008111610dcc576040517f08c379a0000000000000000000000000000000000000000000000000000000008152600401610dc3906127e6565b60405180910390fd5b610de983670de0b6b3a764000083610de49190612919565b611af4565b505050565b60006005600084815260200190815260200160002060000160008373ffffffffffffffffffffffffffffffffffffffff1673ffffffffffffffffffffffffffffffffffffffff16815260200190815260200160002060009054906101000a900460ff16905092915050565b606060048054610e6890612a8f565b80601f0160208091040260200160405190810160405280929190818152602001828054610e9490612a8f565b8015610ee15780601f10610eb657610100808354040283529160200191610ee1565b820191906000526020600020905b815481529060010190602001808311610ec457829003601f168201915b5050505050905090565b610f157f3c11d16cbaffd01df69ce1c404f6340ee057498f5f00246190ea54220576a84833610dee565b610f54576040517f08c379a0000000000000000000000000000000000000000000000000000000008152600401610f4b90612746565b60405180910390fd5b610f7182670de0b6b3a764000083610f6c9190612919565b611b4e565b5050565b6000801b81565b600080610f87611254565b90506000600160008373ffffffffffffffffffffffffffffffffffffffff1673ffffffffffffffffffffffffffffffffffffffff16815260200190815260200160002060008673ffffffffffffffffffffffffffffffffffffffff1673ffffffffffffffffffffffffffffffffffffffff1681526020019081526020016000205490508381101561104d576040517f08c379a000000000000000000000000000000000000000000000000000000000815260040161104490612806565b60405180910390fd5b61105a828686840361125c565b60019250505092915050565b600080611071611254565b905061107e8185856114b3565b600191505092915050565b60076020528060005260406000206000915090505481565b6110aa826108d1565b6110bb816110b6611254565b611734565b6110c583836118b2565b505050565b6a52b7d2dcc80cd2e400000081565b6000600160008473ffffffffffffffffffffffffffffffffffffffff1673ffffffffffffffffffffffffffffffffffffffff16815260200190815260200160002060008373ffffffffffffffffffffffffffffffffffffffff1673ffffffffffffffffffffffffffffffffffffffff16815260200190815260200160002054905092915050565b61118a7fbeec13769b5f410b0584f69811bfd923818456d5edcf426b0e31cf90eed7a3f633610dee565b6111c9576040517f08c379a00000000000000000000000000000000000000000000000000000000081526004016111c0906127a6565b60405180910390fd5b6111e682670de0b6b3a7640000836111e19190612919565b611d25565b5050565b60007f01ffc9a7000000000000000000000000000000000000000000000000000000007bffffffffffffffffffffffffffffffffffffffffffffffffffffffff1916827bffffffffffffffffffffffffffffffffffffffffffffffffffffffff1916149050919050565b600033905090565b600073ffffffffffffffffffffffffffffffffffffffff168373ffffffffffffffffffffffffffffffffffffffff1614156112cc576040517f08c379a00000000000000000000000000000000000000000000000000000000081526004016112c3906127c6565b60405180910390fd5b600073ffffffffffffffffffffffffffffffffffffffff168273ffffffffffffffffffffffffffffffffffffffff16141561133c576040517f08c379a0000000000000000000000000000000000000000000000000000000008152600401611333906126c6565b60405180910390fd5b80600160008573ffffffffffffffffffffffffffffffffffffffff1673ffffffffffffffffffffffffffffffffffffffff16815260200190815260200160002060008473ffffffffffffffffffffffffffffffffffffffff1673ffffffffffffffffffffffffffffffffffffffff168152602001908152602001600020819055508173ffffffffffffffffffffffffffffffffffffffff168373ffffffffffffffffffffffffffffffffffffffff167f8c5be1e5ebec7d5bd14f71427d1e84f3dd0314c0f7b2291e5b200ac8c7c3b9258360405161141a9190612866565b60405180910390a3505050565b600061143384846110d9565b90507fffffffffffffffffffffffffffffffffffffffffffffffffffffffffffffffff81146114ad578181101561149f576040517f08c379a0000000000000000000000000000000000000000000000000000000008152600401611496906126e6565b60405180910390fd5b6114ac848484840361125c565b5b50505050565b600073ffffffffffffffffffffffffffffffffffffffff168373ffffffffffffffffffffffffffffffffffffffff161415611523576040517f08c379a000000000000000000000000000000000000000000000000000000000815260040161151a90612786565b60405180910390fd5b600073ffffffffffffffffffffffffffffffffffffffff168273ffffffffffffffffffffffffffffffffffffffff161415611593576040517f08c379a000000000000000000000000000000000000000000000000000000000815260040161158a90612666565b60405180910390fd5b61159e838383611e01565b60008060008573ffffffffffffffffffffffffffffffffffffffff1673ffffffffffffffffffffffffffffffffffffffff16815260200190815260200160002054905081811015611624576040517f08c379a000000000000000000000000000000000000000000000000000000000815260040161161b90612706565b60405180910390fd5b8181036000808673ffffffffffffffffffffffffffffffffffffffff1673ffffffffffffffffffffffffffffffffffffffff16815260200190815260200160002081905550816000808573ffffffffffffffffffffffffffffffffffffffff1673ffffffffffffffffffffffffffffffffffffffff16815260200190815260200160002060008282546116b791906128c3565b925050819055508273ffffffffffffffffffffffffffffffffffffffff168473ffffffffffffffffffffffffffffffffffffffff167fddf252ad1be2c89b69c2b068fc378daa952ba7f163c4a11628f55a4df523b3ef8460405161171b9190612866565b60405180910390a361172e848484611e06565b50505050565b61173e8282610dee565b6117cd576117638173ffffffffffffffffffffffffffffffffffffffff166014611e0b565b6117718360001c6020611e0b565b6040516020016117829291906125b4565b6040516020818303038152906040526040517f08c379a00000000000000000000000000000000000000000000000000000000081526004016117c49190612624565b60405180910390fd5b5050565b6117db8282610dee565b6118ae5760016005600084815260200190815260200160002060000160008373ffffffffffffffffffffffffffffffffffffffff1673ffffffffffffffffffffffffffffffffffffffff16815260200190815260200160002060006101000a81548160ff021916908315150217905550611853611254565b73ffffffffffffffffffffffffffffffffffffffff168173ffffffffffffffffffffffffffffffffffffffff16837f2f8788117e7eff1d82e926ec794901d17c78024a50270940304540a733656f0d60405160405180910390a45b5050565b6118bc8282610dee565b156119905760006005600084815260200190815260200160002060000160008373ffffffffffffffffffffffffffffffffffffffff1673ffffffffffffffffffffffffffffffffffffffff16815260200190815260200160002060006101000a81548160ff021916908315150217905550611935611254565b73ffffffffffffffffffffffffffffffffffffffff168173ffffffffffffffffffffffffffffffffffffffff16837ff6391f5c32d9c69d2a47ea670b442974b53935d1edc7fd64eb21e047a839171b60405160405180910390a45b5050565b600073ffffffffffffffffffffffffffffffffffffffff168273ffffffffffffffffffffffffffffffffffffffff161415611a04576040517f08c379a00000000000000000000000000000000000000000000000000000000081526004016119fb90612846565b60405180910390fd5b611a1060008383611e01565b8060026000828254611a2291906128c3565b92505081905550806000808473ffffffffffffffffffffffffffffffffffffffff1673ffffffffffffffffffffffffffffffffffffffff1681526020019081526020016000206000828254611a7791906128c3565b925050819055508173ffffffffffffffffffffffffffffffffffffffff16600073ffffffffffffffffffffffffffffffffffffffff167fddf252ad1be2c89b69c2b068fc378daa952ba7f163c4a11628f55a4df523b3ef83604051611adc9190612866565b60405180910390a3611af060008383611e06565b5050565b80600660008473ffffffffffffffffffffffffffffffffffffffff1673ffffffffffffffffffffffffffffffffffffffff1681526020019081526020016000206000828254611b4391906128c3565b925050819055505050565b600073ffffffffffffffffffffffffffffffffffffffff168273ffffffffffffffffffffffffffffffffffffffff161415611bbe576040517f08c379a0000000000000000000000000000000000000000000000000000000008152600401611bb590612766565b60405180910390fd5b611bca82600083611e01565b60008060008473ffffffffffffffffffffffffffffffffffffffff1673ffffffffffffffffffffffffffffffffffffffff16815260200190815260200160002054905081811015611c50576040517f08c379a0000000000000000000000000000000000000000000000000000000008152600401611c47906126a6565b60405180910390fd5b8181036000808573ffffffffffffffffffffffffffffffffffffffff1673ffffffffffffffffffffffffffffffffffffffff168152602001908152602001600020819055508160026000828254611ca79190612973565b92505081905550600073ffffffffffffffffffffffffffffffffffffffff168373ffffffffffffffffffffffffffffffffffffffff167fddf252ad1be2c89b69c2b068fc378daa952ba7f163c4a11628f55a4df523b3ef84604051611d0c9190612866565b60405180910390a3611d2083600084611e06565b505050565b600660008373ffffffffffffffffffffffffffffffffffffffff1673ffffffffffffffffffffffffffffffffffffffff16815260200190815260200160002054811115611da7576040517f08c379a0000000000000000000000000000000000000000000000000000000008152600401611d9e90612686565b60405180910390fd5b80600660008473ffffffffffffffffffffffffffffffffffffffff1673ffffffffffffffffffffffffffffffffffffffff1681526020019081526020016000206000828254611df69190612973565b925050819055505050565b505050565b505050565b606060006002836002611e1e9190612919565b611e2891906128c3565b67ffffffffffffffff811115611e4157611e40612b4e565b5b6040519080825280601f01601f191660200182016040528015611e735781602001600182028036833780820191505090505b5090507f300000000000000000000000000000000000000000000000000000000000000081600081518110611eab57611eaa612b1f565b5b60200101907effffffffffffffffffffffffffffffffffffffffffffffffffffffffffffff1916908160001a9053507f780000000000000000000000000000000000000000000000000000000000000081600181518110611f0f57611f0e612b1f565b5b60200101907effffffffffffffffffffffffffffffffffffffffffffffffffffffffffffff1916908160001a90535060006001846002611f4f9190612919565b611f5991906128c3565b90505b6001811115611ff9577f3031323334353637383961626364656600000000000000000000000000000000600f861660108110611f9b57611f9a612b1f565b5b1a60f81b828281518110611fb257611fb1612b1f565b5b60200101907effffffffffffffffffffffffffffffffffffffffffffffffffffffffffffff1916908160001a905350600485901c945080611ff290612a65565b9050611f5c565b506000841461203d576040517f08c379a000000000000000000000000000000000000000000000000000000000815260040161203490612646565b60405180910390fd5b8091505092915050565b60008135905061205681613040565b92915050565b60008135905061206b81613057565b92915050565b6000813590506120808161306e565b92915050565b60008135905061209581613085565b92915050565b6000602082840312156120b1576120b0612b7d565b5b60006120bf84828501612047565b91505092915050565b600080604083850312156120df576120de612b7d565b5b60006120ed85828601612047565b92505060206120fe85828601612047565b9150509250929050565b60008060006060848603121561212157612120612b7d565b5b600061212f86828701612047565b935050602061214086828701612047565b925050604061215186828701612086565b9150509250925092565b6000806040838503121561217257612171612b7d565b5b600061218085828601612047565b925050602061219185828601612086565b9150509250929050565b6000602082840312156121b1576121b0612b7d565b5b60006121bf8482850161205c565b91505092915050565b600080604083850312156121df576121de612b7d565b5b60006121ed8582860161205c565b92505060206121fe85828601612047565b9150509250929050565b60006020828403121561221e5761221d612b7d565b5b600061222c84828501612071565b91505092915050565b6000806040838503121561224c5761224b612b7d565b5b600061225a85828601612086565b925050602061226b85828601612086565b9150509250929050565b61227e816129b9565b82525050565b61228d816129c5565b82525050565b600061229e8261289c565b6122a881856128a7565b93506122b8818560208601612a32565b6122c181612b82565b840191505092915050565b60006122d78261289c565b6122e181856128b8565b93506122f1818560208601612a32565b80840191505092915050565b600061230a6020836128a7565b915061231582612b93565b602082019050919050565b600061232d6023836128a7565b915061233882612bbc565b604082019050919050565b60006123506038836128a7565b915061235b82612c0b565b604082019050919050565b60006123736022836128a7565b915061237e82612c5a565b604082019050919050565b60006123966022836128a7565b91506123a182612ca9565b604082019050919050565b60006123b9601d836128a7565b91506123c482612cf8565b602082019050919050565b60006123dc6026836128a7565b91506123e782612d21565b604082019050919050565b60006123ff6028836128a7565b915061240a82612d70565b604082019050919050565b60006124226016836128a7565b915061242d82612dbf565b602082019050919050565b60006124456021836128a7565b915061245082612de8565b604082019050919050565b60006124686025836128a7565b915061247382612e37565b604082019050919050565b600061248b6018836128a7565b915061249682612e86565b602082019050919050565b60006124ae6024836128a7565b91506124b982612eaf565b604082019050919050565b60006124d16020836128a7565b91506124dc82612efe565b602082019050919050565b60006124f46017836128b8565b91506124ff82612f27565b601782019050919050565b60006125176025836128a7565b915061252282612f50565b604082019050919050565b600061253a6011836128b8565b915061254582612f9f565b601182019050919050565b600061255d602f836128a7565b915061256882612fc8565b604082019050919050565b6000612580601f836128a7565b915061258b82613017565b602082019050919050565b61259f81612a1b565b82525050565b6125ae81612a25565b82525050565b60006125bf826124e7565b91506125cb82856122cc565b91506125d68261252d565b91506125e282846122cc565b91508190509392505050565b60006020820190506126036000830184612275565b92915050565b600060208201905061261e6000830184612284565b92915050565b6000602082019050818103600083015261263e8184612293565b905092915050565b6000602082019050818103600083015261265f816122fd565b9050919050565b6000602082019050818103600083015261267f81612320565b9050919050565b6000602082019050818103600083015261269f81612343565b9050919050565b600060208201905081810360008301526126bf81612366565b9050919050565b600060208201905081810360008301526126df81612389565b9050919050565b600060208201905081810360008301526126ff816123ac565b9050919050565b6000602082019050818103600083015261271f816123cf565b9050919050565b6000602082019050818103600083015261273f816123f2565b9050919050565b6000602082019050818103600083015261275f81612415565b9050919050565b6000602082019050818103600083015261277f81612438565b9050919050565b6000602082019050818103600083015261279f8161245b565b9050919050565b600060208201905081810360008301526127bf8161247e565b9050919050565b600060208201905081810360008301526127df816124a1565b9050919050565b600060208201905081810360008301526127ff816124c4565b9050919050565b6000602082019050818103600083015261281f8161250a565b9050919050565b6000602082019050818103600083015261283f81612550565b9050919050565b6000602082019050818103600083015261285f81612573565b9050919050565b600060208201905061287b6000830184612596565b92915050565b600060208201905061289660008301846125a5565b92915050565b600081519050919050565b600082825260208201905092915050565b600081905092915050565b60006128ce82612a1b565b91506128d983612a1b565b9250827fffffffffffffffffffffffffffffffffffffffffffffffffffffffffffffffff0382111561290e5761290d612ac1565b5b828201905092915050565b600061292482612a1b565b915061292f83612a1b565b9250817fffffffffffffffffffffffffffffffffffffffffffffffffffffffffffffffff048311821515161561296857612967612ac1565b5b828202905092915050565b600061297e82612a1b565b915061298983612a1b565b92508282101561299c5761299b612ac1565b5b828203905092915050565b60006129b2826129fb565b9050919050565b60008115159050919050565b6000819050919050565b60007fffffffff0000000000000000000000000000000000000000000000000000000082169050919050565b600073ffffffffffffffffffffffffffffffffffffffff82169050919050565b6000819050919050565b600060ff82169050919050565b60005b83811015612a50578082015181840152602081019050612a35565b83811115612a5f576000848401525b50505050565b6000612a7082612a1b565b91506000821415612a8457612a83612ac1565b5b600182039050919050565b60006002820490506001821680612aa757607f821691505b60208210811415612abb57612aba612af0565b5b50919050565b7f4e487b7100000000000000000000000000000000000000000000000000000000600052601160045260246000fd5b7f4e487b7100000000000000000000000000000000000000000000000000000000600052602260045260246000fd5b7f4e487b7100000000000000000000000000000000000000000000000000000000600052603260045260246000fd5b7f4e487b7100000000000000000000000000000000000000000000000000000000600052604160045260246000fd5b600080fd5b6000601f19601f8301169050919050565b7f537472696e67733a20686578206c656e67746820696e73756666696369656e74600082015250565b7f45524332303a207472616e7366657220746f20746865207a65726f206164647260008201527f6573730000000000000000000000000000000000000000000000000000000000602082015250565b7f416d6f756e7420746f2072656d6f76652063616e6e6f7420626520677265617460008201527f6572207468616e20756e636c61696d656420616d6f756e740000000000000000602082015250565b7f45524332303a206275726e20616d6f756e7420657863656564732062616c616e60008201527f6365000000000000000000000000000000000000000000000000000000000000602082015250565b7f45524332303a20617070726f766520746f20746865207a65726f20616464726560008201527f7373000000000000000000000000000000000000000000000000000000000000602082015250565b7f45524332303a20696e73756666696369656e7420616c6c6f77616e6365000000600082015250565b7f45524332303a207472616e7366657220616d6f756e742065786365656473206260008201527f616c616e63650000000000000000000000000000000000000000000000000000602082015250565b7f556e636c61696d65642062616c616e6365206d7573742062652067726561746560008201527f72207468616e2030000000000000000000000000000000000000000000000000602082015250565b7f43616c6c6572206973206e6f742061206275726e657200000000000000000000600082015250565b7f45524332303a206275726e2066726f6d20746865207a65726f2061646472657360008201527f7300000000000000000000000000000000000000000000000000000000000000602082015250565b7f45524332303a207472616e736665722066726f6d20746865207a65726f20616460008201527f6472657373000000000000000000000000000000000000000000000000000000602082015250565b7f43616c6c6572206973206e6f7420612072657761726465720000000000000000600082015250565b7f45524332303a20617070726f76652066726f6d20746865207a65726f2061646460008201527f7265737300000000000000000000000000000000000000000000000000000000602082015250565b7f636c61696d61626c65206d7573742062652067726561746572207468616e2030600082015250565b7f416363657373436f6e74726f6c3a206163636f756e7420000000000000000000600082015250565b7f45524332303a2064656372656173656420616c6c6f77616e63652062656c6f7760008201527f207a65726f000000000000000000000000000000000000000000000000000000602082015250565b7f206973206d697373696e6720726f6c6520000000000000000000000000000000600082015250565b7f416363657373436f6e74726f6c3a2063616e206f6e6c792072656e6f756e636560008201527f20726f6c657320666f722073656c660000000000000000000000000000000000602082015250565b7f45524332303a206d696e7420746f20746865207a65726f206164647265737300600082015250565b613049816129a7565b811461305457600080fd5b50565b613060816129c5565b811461306b57600080fd5b50565b613077816129cf565b811461308257600080fd5b50565b61308e81612a1b565b811461309957600080fd5b5056fea2646970667358221220b1f52c2db4f10948057b32630b412dfd9d6624bfd866215abb4e92b2396d2f0d64736f6c63430008070033",
					"opcodes": "PUSH1 0x80 PUSH1 0x40 MSTORE CALLVALUE DUP1 ISZERO PUSH3 0x11 JUMPI PUSH1 0x0 DUP1 REVERT JUMPDEST POP PUSH1 0x40 MLOAD DUP1 PUSH1 0x40 ADD PUSH1 0x40 MSTORE DUP1 PUSH1 0x9 DUP2 MSTORE PUSH1 0x20 ADD PUSH32 0x466F6F20546F6B656E0000000000000000000000000000000000000000000000 DUP2 MSTORE POP PUSH1 0x40 MLOAD DUP1 PUSH1 0x40 ADD PUSH1 0x40 MSTORE DUP1 PUSH1 0x3 DUP2 MSTORE PUSH1 0x20 ADD PUSH32 0x464F4F0000000000000000000000000000000000000000000000000000000000 DUP2 MSTORE POP DUP2 PUSH1 0x3 SWAP1 DUP1 MLOAD SWAP1 PUSH1 0x20 ADD SWAP1 PUSH3 0x96 SWAP3 SWAP2 SWAP1 PUSH3 0x248 JUMP JUMPDEST POP DUP1 PUSH1 0x4 SWAP1 DUP1 MLOAD SWAP1 PUSH1 0x20 ADD SWAP1 PUSH3 0xAF SWAP3 SWAP2 SWAP1 PUSH3 0x248 JUMP JUMPDEST POP POP POP PUSH3 0xC7 PUSH1 0x0 DUP1 SHL CALLER PUSH3 0xCD PUSH1 0x20 SHL PUSH1 0x20 SHR JUMP JUMPDEST PUSH3 0x35D JUMP JUMPDEST PUSH3 0xDF DUP3 DUP3 PUSH3 0xE3 PUSH1 0x20 SHL PUSH1 0x20 SHR JUMP JUMPDEST POP POP JUMP JUMPDEST PUSH3 0xF5 DUP3 DUP3 PUSH3 0x1D5 PUSH1 0x20 SHL PUSH1 0x20 SHR JUMP JUMPDEST PUSH3 0x1D1 JUMPI PUSH1 0x1 PUSH1 0x5 PUSH1 0x0 DUP5 DUP2 MSTORE PUSH1 0x20 ADD SWAP1 DUP2 MSTORE PUSH1 0x20 ADD PUSH1 0x0 KECCAK256 PUSH1 0x0 ADD PUSH1 0x0 DUP4 PUSH20 0xFFFFFFFFFFFFFFFFFFFFFFFFFFFFFFFFFFFFFFFF AND PUSH20 0xFFFFFFFFFFFFFFFFFFFFFFFFFFFFFFFFFFFFFFFF AND DUP2 MSTORE PUSH1 0x20 ADD SWAP1 DUP2 MSTORE PUSH1 0x20 ADD PUSH1 0x0 KECCAK256 PUSH1 0x0 PUSH2 0x100 EXP DUP2 SLOAD DUP2 PUSH1 0xFF MUL NOT AND SWAP1 DUP4 ISZERO ISZERO MUL OR SWAP1 SSTORE POP PUSH3 0x176 PUSH3 0x240 PUSH1 0x20 SHL PUSH1 0x20 SHR JUMP JUMPDEST PUSH20 0xFFFFFFFFFFFFFFFFFFFFFFFFFFFFFFFFFFFFFFFF AND DUP2 PUSH20 0xFFFFFFFFFFFFFFFFFFFFFFFFFFFFFFFFFFFFFFFF AND DUP4 PUSH32 0x2F8788117E7EFF1D82E926EC794901D17C78024A50270940304540A733656F0D PUSH1 0x40 MLOAD PUSH1 0x40 MLOAD DUP1 SWAP2 SUB SWAP1 LOG4 JUMPDEST POP POP JUMP JUMPDEST PUSH1 0x0 PUSH1 0x5 PUSH1 0x0 DUP5 DUP2 MSTORE PUSH1 0x20 ADD SWAP1 DUP2 MSTORE PUSH1 0x20 ADD PUSH1 0x0 KECCAK256 PUSH1 0x0 ADD PUSH1 0x0 DUP4 PUSH20 0xFFFFFFFFFFFFFFFFFFFFFFFFFFFFFFFFFFFFFFFF AND PUSH20 0xFFFFFFFFFFFFFFFFFFFFFFFFFFFFFFFFFFFFFFFF AND DUP2 MSTORE PUSH1 0x20 ADD SWAP1 DUP2 MSTORE PUSH1 0x20 ADD PUSH1 0x0 KECCAK256 PUSH1 0x0 SWAP1 SLOAD SWAP1 PUSH2 0x100 EXP SWAP1 DIV PUSH1 0xFF AND SWAP1 POP SWAP3 SWAP2 POP POP JUMP JUMPDEST PUSH1 0x0 CALLER SWAP1 POP SWAP1 JUMP JUMPDEST DUP3 DUP1 SLOAD PUSH3 0x256 SWAP1 PUSH3 0x2F8 JUMP JUMPDEST SWAP1 PUSH1 0x0 MSTORE PUSH1 0x20 PUSH1 0x0 KECCAK256 SWAP1 PUSH1 0x1F ADD PUSH1 0x20 SWAP1 DIV DUP2 ADD SWAP3 DUP3 PUSH3 0x27A JUMPI PUSH1 0x0 DUP6 SSTORE PUSH3 0x2C6 JUMP JUMPDEST DUP3 PUSH1 0x1F LT PUSH3 0x295 JUMPI DUP1 MLOAD PUSH1 0xFF NOT AND DUP4 DUP1 ADD OR DUP6 SSTORE PUSH3 0x2C6 JUMP JUMPDEST DUP3 DUP1 ADD PUSH1 0x1 ADD DUP6 SSTORE DUP3 ISZERO PUSH3 0x2C6 JUMPI SWAP2 DUP3 ADD JUMPDEST DUP3 DUP2 GT ISZERO PUSH3 0x2C5 JUMPI DUP3 MLOAD DUP3 SSTORE SWAP2 PUSH1 0x20 ADD SWAP2 SWAP1 PUSH1 0x1 ADD SWAP1 PUSH3 0x2A8 JUMP JUMPDEST JUMPDEST POP SWAP1 POP PUSH3 0x2D5 SWAP2 SWAP1 PUSH3 0x2D9 JUMP JUMPDEST POP SWAP1 JUMP JUMPDEST JUMPDEST DUP1 DUP3 GT ISZERO PUSH3 0x2F4 JUMPI PUSH1 0x0 DUP2 PUSH1 0x0 SWAP1 SSTORE POP PUSH1 0x1 ADD PUSH3 0x2DA JUMP JUMPDEST POP SWAP1 JUMP JUMPDEST PUSH1 0x0 PUSH1 0x2 DUP3 DIV SWAP1 POP PUSH1 0x1 DUP3 AND DUP1 PUSH3 0x311 JUMPI PUSH1 0x7F DUP3 AND SWAP2 POP JUMPDEST PUSH1 0x20 DUP3 LT DUP2 EQ ISZERO PUSH3 0x328 JUMPI PUSH3 0x327 PUSH3 0x32E JUMP JUMPDEST JUMPDEST POP SWAP2 SWAP1 POP JUMP JUMPDEST PUSH32 0x4E487B7100000000000000000000000000000000000000000000000000000000 PUSH1 0x0 MSTORE PUSH1 0x22 PUSH1 0x4 MSTORE PUSH1 0x24 PUSH1 0x0 REVERT JUMPDEST PUSH2 0x30D2 DUP1 PUSH3 0x36D PUSH1 0x0 CODECOPY PUSH1 0x0 RETURN INVALID PUSH1 0x80 PUSH1 0x40 MSTORE PUSH1 0x4 CALLDATASIZE LT PUSH2 0x1C2 JUMPI PUSH1 0x0 CALLDATALOAD PUSH1 0xE0 SHR DUP1 PUSH4 0x70A08231 GT PUSH2 0xF7 JUMPI DUP1 PUSH4 0xA217FDDF GT PUSH2 0x95 JUMPI DUP1 PUSH4 0xD547741F GT PUSH2 0x64 JUMPI DUP1 PUSH4 0xD547741F EQ PUSH2 0x6A9 JUMPI DUP1 PUSH4 0xD5ABEB01 EQ PUSH2 0x6D2 JUMPI DUP1 PUSH4 0xDD62ED3E EQ PUSH2 0x6FD JUMPI DUP1 PUSH4 0xE5B7F305 EQ PUSH2 0x73A JUMPI PUSH2 0x1C2 JUMP JUMPDEST DUP1 PUSH4 0xA217FDDF EQ PUSH2 0x5C7 JUMPI DUP1 PUSH4 0xA457C2D7 EQ PUSH2 0x5F2 JUMPI DUP1 PUSH4 0xA9059CBB EQ PUSH2 0x62F JUMPI DUP1 PUSH4 0xC884EF83 EQ PUSH2 0x66C JUMPI PUSH2 0x1C2 JUMP JUMPDEST DUP1 PUSH4 0x8A9DB765 GT PUSH2 0xD1 JUMPI DUP1 PUSH4 0x8A9DB765 EQ PUSH2 0x50D JUMPI DUP1 PUSH4 0x91D14854 EQ PUSH2 0x536 JUMPI DUP1 PUSH4 0x95D89B41 EQ PUSH2 0x573 JUMPI DUP1 PUSH4 0x9DC29FAC EQ PUSH2 0x59E JUMPI PUSH2 0x1C2 JUMP JUMPDEST DUP1 PUSH4 0x70A08231 EQ PUSH2 0x468 JUMPI DUP1 PUSH4 0x7AE2B5C7 EQ PUSH2 0x4A5 JUMPI DUP1 PUSH4 0x8580CF76 EQ PUSH2 0x4E2 JUMPI PUSH2 0x1C2 JUMP JUMPDEST DUP1 PUSH4 0x282C51F3 GT PUSH2 0x164 JUMPI DUP1 PUSH4 0x36568ABE GT PUSH2 0x13E JUMPI DUP1 PUSH4 0x36568ABE EQ PUSH2 0x3BB JUMPI DUP1 PUSH4 0x39509351 EQ PUSH2 0x3E4 JUMPI DUP1 PUSH4 0x4E71D92D EQ PUSH2 0x421 JUMPI DUP1 PUSH4 0x505BD3DA EQ PUSH2 0x42B JUMPI PUSH2 0x1C2 JUMP JUMPDEST DUP1 PUSH4 0x282C51F3 EQ PUSH2 0x33C JUMPI DUP1 PUSH4 0x2F2FF15D EQ PUSH2 0x367 JUMPI DUP1 PUSH4 0x313CE567 EQ PUSH2 0x390 JUMPI PUSH2 0x1C2 JUMP JUMPDEST DUP1 PUSH4 0x18160DDD GT PUSH2 0x1A0 JUMPI DUP1 PUSH4 0x18160DDD EQ PUSH2 0x26C JUMPI DUP1 PUSH4 0x1ADB068A EQ PUSH2 0x297 JUMPI DUP1 PUSH4 0x23B872DD EQ PUSH2 0x2C2 JUMPI DUP1 PUSH4 0x248A9CA3 EQ PUSH2 0x2FF JUMPI PUSH2 0x1C2 JUMP JUMPDEST DUP1 PUSH4 0x1FFC9A7 EQ PUSH2 0x1C7 JUMPI DUP1 PUSH4 0x6FDDE03 EQ PUSH2 0x204 JUMPI DUP1 PUSH4 0x95EA7B3 EQ PUSH2 0x22F JUMPI JUMPDEST PUSH1 0x0 DUP1 REVERT JUMPDEST CALLVALUE DUP1 ISZERO PUSH2 0x1D3 JUMPI PUSH1 0x0 DUP1 REVERT JUMPDEST POP PUSH2 0x1EE PUSH1 0x4 DUP1 CALLDATASIZE SUB DUP2 ADD SWAP1 PUSH2 0x1E9 SWAP2 SWAP1 PUSH2 0x2208 JUMP JUMPDEST PUSH2 0x763 JUMP JUMPDEST PUSH1 0x40 MLOAD PUSH2 0x1FB SWAP2 SWAP1 PUSH2 0x25EE JUMP JUMPDEST PUSH1 0x40 MLOAD DUP1 SWAP2 SUB SWAP1 RETURN JUMPDEST CALLVALUE DUP1 ISZERO PUSH2 0x210 JUMPI PUSH1 0x0 DUP1 REVERT JUMPDEST POP PUSH2 0x219 PUSH2 0x7DD JUMP JUMPDEST PUSH1 0x40 MLOAD PUSH2 0x226 SWAP2 SWAP1 PUSH2 0x2624 JUMP JUMPDEST PUSH1 0x40 MLOAD DUP1 SWAP2 SUB SWAP1 RETURN JUMPDEST CALLVALUE DUP1 ISZERO PUSH2 0x23B JUMPI PUSH1 0x0 DUP1 REVERT JUMPDEST POP PUSH2 0x256 PUSH1 0x4 DUP1 CALLDATASIZE SUB DUP2 ADD SWAP1 PUSH2 0x251 SWAP2 SWAP1 PUSH2 0x215B JUMP JUMPDEST PUSH2 0x86F JUMP JUMPDEST PUSH1 0x40 MLOAD PUSH2 0x263 SWAP2 SWAP1 PUSH2 0x25EE JUMP JUMPDEST PUSH1 0x40 MLOAD DUP1 SWAP2 SUB SWAP1 RETURN JUMPDEST CALLVALUE DUP1 ISZERO PUSH2 0x278 JUMPI PUSH1 0x0 DUP1 REVERT JUMPDEST POP PUSH2 0x281 PUSH2 0x892 JUMP JUMPDEST PUSH1 0x40 MLOAD PUSH2 0x28E SWAP2 SWAP1 PUSH2 0x2866 JUMP JUMPDEST PUSH1 0x40 MLOAD DUP1 SWAP2 SUB SWAP1 RETURN JUMPDEST CALLVALUE DUP1 ISZERO PUSH2 0x2A3 JUMPI PUSH1 0x0 DUP1 REVERT JUMPDEST POP PUSH2 0x2AC PUSH2 0x89C JUMP JUMPDEST PUSH1 0x40 MLOAD PUSH2 0x2B9 SWAP2 SWAP1 PUSH2 0x2866 JUMP JUMPDEST PUSH1 0x40 MLOAD DUP1 SWAP2 SUB SWAP1 RETURN JUMPDEST CALLVALUE DUP1 ISZERO PUSH2 0x2CE JUMPI PUSH1 0x0 DUP1 REVERT JUMPDEST POP PUSH2 0x2E9 PUSH1 0x4 DUP1 CALLDATASIZE SUB DUP2 ADD SWAP1 PUSH2 0x2E4 SWAP2 SWAP1 PUSH2 0x2108 JUMP JUMPDEST PUSH2 0x8A2 JUMP JUMPDEST PUSH1 0x40 MLOAD PUSH2 0x2F6 SWAP2 SWAP1 PUSH2 0x25EE JUMP JUMPDEST PUSH1 0x40 MLOAD DUP1 SWAP2 SUB SWAP1 RETURN JUMPDEST CALLVALUE DUP1 ISZERO PUSH2 0x30B JUMPI PUSH1 0x0 DUP1 REVERT JUMPDEST POP PUSH2 0x326 PUSH1 0x4 DUP1 CALLDATASIZE SUB DUP2 ADD SWAP1 PUSH2 0x321 SWAP2 SWAP1 PUSH2 0x219B JUMP JUMPDEST PUSH2 0x8D1 JUMP JUMPDEST PUSH1 0x40 MLOAD PUSH2 0x333 SWAP2 SWAP1 PUSH2 0x2609 JUMP JUMPDEST PUSH1 0x40 MLOAD DUP1 SWAP2 SUB SWAP1 RETURN JUMPDEST CALLVALUE DUP1 ISZERO PUSH2 0x348 JUMPI PUSH1 0x0 DUP1 REVERT JUMPDEST POP PUSH2 0x351 PUSH2 0x8F1 JUMP JUMPDEST PUSH1 0x40 MLOAD PUSH2 0x35E SWAP2 SWAP1 PUSH2 0x2609 JUMP JUMPDEST PUSH1 0x40 MLOAD DUP1 SWAP2 SUB SWAP1 RETURN JUMPDEST CALLVALUE DUP1 ISZERO PUSH2 0x373 JUMPI PUSH1 0x0 DUP1 REVERT JUMPDEST POP PUSH2 0x38E PUSH1 0x4 DUP1 CALLDATASIZE SUB DUP2 ADD SWAP1 PUSH2 0x389 SWAP2 SWAP1 PUSH2 0x21C8 JUMP JUMPDEST PUSH2 0x915 JUMP JUMPDEST STOP JUMPDEST CALLVALUE DUP1 ISZERO PUSH2 0x39C JUMPI PUSH1 0x0 DUP1 REVERT JUMPDEST POP PUSH2 0x3A5 PUSH2 0x93E JUMP JUMPDEST PUSH1 0x40 MLOAD PUSH2 0x3B2 SWAP2 SWAP1 PUSH2 0x2881 JUMP JUMPDEST PUSH1 0x40 MLOAD DUP1 SWAP2 SUB SWAP1 RETURN JUMPDEST CALLVALUE DUP1 ISZERO PUSH2 0x3C7 JUMPI PUSH1 0x0 DUP1 REVERT JUMPDEST POP PUSH2 0x3E2 PUSH1 0x4 DUP1 CALLDATASIZE SUB DUP2 ADD SWAP1 PUSH2 0x3DD SWAP2 SWAP1 PUSH2 0x21C8 JUMP JUMPDEST PUSH2 0x947 JUMP JUMPDEST STOP JUMPDEST CALLVALUE DUP1 ISZERO PUSH2 0x3F0 JUMPI PUSH1 0x0 DUP1 REVERT JUMPDEST POP PUSH2 0x40B PUSH1 0x4 DUP1 CALLDATASIZE SUB DUP2 ADD SWAP1 PUSH2 0x406 SWAP2 SWAP1 PUSH2 0x215B JUMP JUMPDEST PUSH2 0x9CA JUMP JUMPDEST PUSH1 0x40 MLOAD PUSH2 0x418 SWAP2 SWAP1 PUSH2 0x25EE JUMP JUMPDEST PUSH1 0x40 MLOAD DUP1 SWAP2 SUB SWAP1 RETURN JUMPDEST PUSH2 0x429 PUSH2 0xA74 JUMP JUMPDEST STOP JUMPDEST CALLVALUE DUP1 ISZERO PUSH2 0x437 JUMPI PUSH1 0x0 DUP1 REVERT JUMPDEST POP PUSH2 0x452 PUSH1 0x4 DUP1 CALLDATASIZE SUB DUP2 ADD SWAP1 PUSH2 0x44D SWAP2 SWAP1 PUSH2 0x209B JUMP JUMPDEST PUSH2 0xBE9 JUMP JUMPDEST PUSH1 0x40 MLOAD PUSH2 0x45F SWAP2 SWAP1 PUSH2 0x2866 JUMP JUMPDEST PUSH1 0x40 MLOAD DUP1 SWAP2 SUB SWAP1 RETURN JUMPDEST CALLVALUE DUP1 ISZERO PUSH2 0x474 JUMPI PUSH1 0x0 DUP1 REVERT JUMPDEST POP PUSH2 0x48F PUSH1 0x4 DUP1 CALLDATASIZE SUB DUP2 ADD SWAP1 PUSH2 0x48A SWAP2 SWAP1 PUSH2 0x209B JUMP JUMPDEST PUSH2 0xC01 JUMP JUMPDEST PUSH1 0x40 MLOAD PUSH2 0x49C SWAP2 SWAP1 PUSH2 0x2866 JUMP JUMPDEST PUSH1 0x40 MLOAD DUP1 SWAP2 SUB SWAP1 RETURN JUMPDEST CALLVALUE DUP1 ISZERO PUSH2 0x4B1 JUMPI PUSH1 0x0 DUP1 REVERT JUMPDEST POP PUSH2 0x4CC PUSH1 0x4 DUP1 CALLDATASIZE SUB DUP2 ADD SWAP1 PUSH2 0x4C7 SWAP2 SWAP1 PUSH2 0x2235 JUMP JUMPDEST PUSH2 0xC49 JUMP JUMPDEST PUSH1 0x40 MLOAD PUSH2 0x4D9 SWAP2 SWAP1 PUSH2 0x2866 JUMP JUMPDEST PUSH1 0x40 MLOAD DUP1 SWAP2 SUB SWAP1 RETURN JUMPDEST CALLVALUE DUP1 ISZERO PUSH2 0x4EE JUMPI PUSH1 0x0 DUP1 REVERT JUMPDEST POP PUSH2 0x4F7 PUSH2 0xC63 JUMP JUMPDEST PUSH1 0x40 MLOAD PUSH2 0x504 SWAP2 SWAP1 PUSH2 0x2609 JUMP JUMPDEST PUSH1 0x40 MLOAD DUP1 SWAP2 SUB SWAP1 RETURN JUMPDEST CALLVALUE DUP1 ISZERO PUSH2 0x519 JUMPI PUSH1 0x0 DUP1 REVERT JUMPDEST POP PUSH2 0x534 PUSH1 0x4 DUP1 CALLDATASIZE SUB DUP2 ADD SWAP1 PUSH2 0x52F SWAP2 SWAP1 PUSH2 0x215B JUMP JUMPDEST PUSH2 0xC87 JUMP JUMPDEST STOP JUMPDEST CALLVALUE DUP1 ISZERO PUSH2 0x542 JUMPI PUSH1 0x0 DUP1 REVERT JUMPDEST POP PUSH2 0x55D PUSH1 0x4 DUP1 CALLDATASIZE SUB DUP2 ADD SWAP1 PUSH2 0x558 SWAP2 SWAP1 PUSH2 0x21C8 JUMP JUMPDEST PUSH2 0xDEE JUMP JUMPDEST PUSH1 0x40 MLOAD PUSH2 0x56A SWAP2 SWAP1 PUSH2 0x25EE JUMP JUMPDEST PUSH1 0x40 MLOAD DUP1 SWAP2 SUB SWAP1 RETURN JUMPDEST CALLVALUE DUP1 ISZERO PUSH2 0x57F JUMPI PUSH1 0x0 DUP1 REVERT JUMPDEST POP PUSH2 0x588 PUSH2 0xE59 JUMP JUMPDEST PUSH1 0x40 MLOAD PUSH2 0x595 SWAP2 SWAP1 PUSH2 0x2624 JUMP JUMPDEST PUSH1 0x40 MLOAD DUP1 SWAP2 SUB SWAP1 RETURN JUMPDEST CALLVALUE DUP1 ISZERO PUSH2 0x5AA JUMPI PUSH1 0x0 DUP1 REVERT JUMPDEST POP PUSH2 0x5C5 PUSH1 0x4 DUP1 CALLDATASIZE SUB DUP2 ADD SWAP1 PUSH2 0x5C0 SWAP2 SWAP1 PUSH2 0x215B JUMP JUMPDEST PUSH2 0xEEB JUMP JUMPDEST STOP JUMPDEST CALLVALUE DUP1 ISZERO PUSH2 0x5D3 JUMPI PUSH1 0x0 DUP1 REVERT JUMPDEST POP PUSH2 0x5DC PUSH2 0xF75 JUMP JUMPDEST PUSH1 0x40 MLOAD PUSH2 0x5E9 SWAP2 SWAP1 PUSH2 0x2609 JUMP JUMPDEST PUSH1 0x40 MLOAD DUP1 SWAP2 SUB SWAP1 RETURN JUMPDEST CALLVALUE DUP1 ISZERO PUSH2 0x5FE JUMPI PUSH1 0x0 DUP1 REVERT JUMPDEST POP PUSH2 0x619 PUSH1 0x4 DUP1 CALLDATASIZE SUB DUP2 ADD SWAP1 PUSH2 0x614 SWAP2 SWAP1 PUSH2 0x215B JUMP JUMPDEST PUSH2 0xF7C JUMP JUMPDEST PUSH1 0x40 MLOAD PUSH2 0x626 SWAP2 SWAP1 PUSH2 0x25EE JUMP JUMPDEST PUSH1 0x40 MLOAD DUP1 SWAP2 SUB SWAP1 RETURN JUMPDEST CALLVALUE DUP1 ISZERO PUSH2 0x63B JUMPI PUSH1 0x0 DUP1 REVERT JUMPDEST POP PUSH2 0x656 PUSH1 0x4 DUP1 CALLDATASIZE SUB DUP2 ADD SWAP1 PUSH2 0x651 SWAP2 SWAP1 PUSH2 0x215B JUMP JUMPDEST PUSH2 0x1066 JUMP JUMPDEST PUSH1 0x40 MLOAD PUSH2 0x663 SWAP2 SWAP1 PUSH2 0x25EE JUMP JUMPDEST PUSH1 0x40 MLOAD DUP1 SWAP2 SUB SWAP1 RETURN JUMPDEST CALLVALUE DUP1 ISZERO PUSH2 0x678 JUMPI PUSH1 0x0 DUP1 REVERT JUMPDEST POP PUSH2 0x693 PUSH1 0x4 DUP1 CALLDATASIZE SUB DUP2 ADD SWAP1 PUSH2 0x68E SWAP2 SWAP1 PUSH2 0x209B JUMP JUMPDEST PUSH2 0x1089 JUMP JUMPDEST PUSH1 0x40 MLOAD PUSH2 0x6A0 SWAP2 SWAP1 PUSH2 0x2866 JUMP JUMPDEST PUSH1 0x40 MLOAD DUP1 SWAP2 SUB SWAP1 RETURN JUMPDEST CALLVALUE DUP1 ISZERO PUSH2 0x6B5 JUMPI PUSH1 0x0 DUP1 REVERT JUMPDEST POP PUSH2 0x6D0 PUSH1 0x4 DUP1 CALLDATASIZE SUB DUP2 ADD SWAP1 PUSH2 0x6CB SWAP2 SWAP1 PUSH2 0x21C8 JUMP JUMPDEST PUSH2 0x10A1 JUMP JUMPDEST STOP JUMPDEST CALLVALUE DUP1 ISZERO PUSH2 0x6DE JUMPI PUSH1 0x0 DUP1 REVERT JUMPDEST POP PUSH2 0x6E7 PUSH2 0x10CA JUMP JUMPDEST PUSH1 0x40 MLOAD PUSH2 0x6F4 SWAP2 SWAP1 PUSH2 0x2866 JUMP JUMPDEST PUSH1 0x40 MLOAD DUP1 SWAP2 SUB SWAP1 RETURN JUMPDEST CALLVALUE DUP1 ISZERO PUSH2 0x709 JUMPI PUSH1 0x0 DUP1 REVERT JUMPDEST POP PUSH2 0x724 PUSH1 0x4 DUP1 CALLDATASIZE SUB DUP2 ADD SWAP1 PUSH2 0x71F SWAP2 SWAP1 PUSH2 0x20C8 JUMP JUMPDEST PUSH2 0x10D9 JUMP JUMPDEST PUSH1 0x40 MLOAD PUSH2 0x731 SWAP2 SWAP1 PUSH2 0x2866 JUMP JUMPDEST PUSH1 0x40 MLOAD DUP1 SWAP2 SUB SWAP1 RETURN JUMPDEST CALLVALUE DUP1 ISZERO PUSH2 0x746 JUMPI PUSH1 0x0 DUP1 REVERT JUMPDEST POP PUSH2 0x761 PUSH1 0x4 DUP1 CALLDATASIZE SUB DUP2 ADD SWAP1 PUSH2 0x75C SWAP2 SWAP1 PUSH2 0x215B JUMP JUMPDEST PUSH2 0x1160 JUMP JUMPDEST STOP JUMPDEST PUSH1 0x0 PUSH32 0x7965DB0B00000000000000000000000000000000000000000000000000000000 PUSH28 0xFFFFFFFFFFFFFFFFFFFFFFFFFFFFFFFFFFFFFFFFFFFFFFFFFFFFFFFF NOT AND DUP3 PUSH28 0xFFFFFFFFFFFFFFFFFFFFFFFFFFFFFFFFFFFFFFFFFFFFFFFFFFFFFFFF NOT AND EQ DUP1 PUSH2 0x7D6 JUMPI POP PUSH2 0x7D5 DUP3 PUSH2 0x11EA JUMP JUMPDEST JUMPDEST SWAP1 POP SWAP2 SWAP1 POP JUMP JUMPDEST PUSH1 0x60 PUSH1 0x3 DUP1 SLOAD PUSH2 0x7EC SWAP1 PUSH2 0x2A8F JUMP JUMPDEST DUP1 PUSH1 0x1F ADD PUSH1 0x20 DUP1 SWAP2 DIV MUL PUSH1 0x20 ADD PUSH1 0x40 MLOAD SWAP1 DUP2 ADD PUSH1 0x40 MSTORE DUP1 SWAP3 SWAP2 SWAP1 DUP2 DUP2 MSTORE PUSH1 0x20 ADD DUP3 DUP1 SLOAD PUSH2 0x818 SWAP1 PUSH2 0x2A8F JUMP JUMPDEST DUP1 ISZERO PUSH2 0x865 JUMPI DUP1 PUSH1 0x1F LT PUSH2 0x83A JUMPI PUSH2 0x100 DUP1 DUP4 SLOAD DIV MUL DUP4 MSTORE SWAP2 PUSH1 0x20 ADD SWAP2 PUSH2 0x865 JUMP JUMPDEST DUP3 ADD SWAP2 SWAP1 PUSH1 0x0 MSTORE PUSH1 0x20 PUSH1 0x0 KECCAK256 SWAP1 JUMPDEST DUP2 SLOAD DUP2 MSTORE SWAP1 PUSH1 0x1 ADD SWAP1 PUSH1 0x20 ADD DUP1 DUP4 GT PUSH2 0x848 JUMPI DUP3 SWAP1 SUB PUSH1 0x1F AND DUP3 ADD SWAP2 JUMPDEST POP POP POP POP POP SWAP1 POP SWAP1 JUMP JUMPDEST PUSH1 0x0 DUP1 PUSH2 0x87A PUSH2 0x1254 JUMP JUMPDEST SWAP1 POP PUSH2 0x887 DUP2 DUP6 DUP6 PUSH2 0x125C JUMP JUMPDEST PUSH1 0x1 SWAP2 POP POP SWAP3 SWAP2 POP POP JUMP JUMPDEST PUSH1 0x0 PUSH1 0x2 SLOAD SWAP1 POP SWAP1 JUMP JUMPDEST PUSH1 0x8 SLOAD DUP2 JUMP JUMPDEST PUSH1 0x0 DUP1 PUSH2 0x8AD PUSH2 0x1254 JUMP JUMPDEST SWAP1 POP PUSH2 0x8BA DUP6 DUP3 DUP6 PUSH2 0x1427 JUMP JUMPDEST PUSH2 0x8C5 DUP6 DUP6 DUP6 PUSH2 0x14B3 JUMP JUMPDEST PUSH1 0x1 SWAP2 POP POP SWAP4 SWAP3 POP POP POP JUMP JUMPDEST PUSH1 0x0 PUSH1 0x5 PUSH1 0x0 DUP4 DUP2 MSTORE PUSH1 0x20 ADD SWAP1 DUP2 MSTORE PUSH1 0x20 ADD PUSH1 0x0 KECCAK256 PUSH1 0x1 ADD SLOAD SWAP1 POP SWAP2 SWAP1 POP JUMP JUMPDEST PUSH32 0x3C11D16CBAFFD01DF69CE1C404F6340EE057498F5F00246190EA54220576A848 DUP2 JUMP JUMPDEST PUSH2 0x91E DUP3 PUSH2 0x8D1 JUMP JUMPDEST PUSH2 0x92F DUP2 PUSH2 0x92A PUSH2 0x1254 JUMP JUMPDEST PUSH2 0x1734 JUMP JUMPDEST PUSH2 0x939 DUP4 DUP4 PUSH2 0x17D1 JUMP JUMPDEST POP POP POP JUMP JUMPDEST PUSH1 0x0 PUSH1 0x12 SWAP1 POP SWAP1 JUMP JUMPDEST PUSH2 0x94F PUSH2 0x1254 JUMP JUMPDEST PUSH20 0xFFFFFFFFFFFFFFFFFFFFFFFFFFFFFFFFFFFFFFFF AND DUP2 PUSH20 0xFFFFFFFFFFFFFFFFFFFFFFFFFFFFFFFFFFFFFFFF AND EQ PUSH2 0x9BC JUMPI PUSH1 0x40 MLOAD PUSH32 0x8C379A000000000000000000000000000000000000000000000000000000000 DUP2 MSTORE PUSH1 0x4 ADD PUSH2 0x9B3 SWAP1 PUSH2 0x2826 JUMP JUMPDEST PUSH1 0x40 MLOAD DUP1 SWAP2 SUB SWAP1 REVERT JUMPDEST PUSH2 0x9C6 DUP3 DUP3 PUSH2 0x18B2 JUMP JUMPDEST POP POP JUMP JUMPDEST PUSH1 0x0 DUP1 PUSH2 0x9D5 PUSH2 0x1254 JUMP JUMPDEST SWAP1 POP PUSH2 0xA69 DUP2 DUP6 DUP6 PUSH1 0x1 PUSH1 0x0 DUP7 PUSH20 0xFFFFFFFFFFFFFFFFFFFFFFFFFFFFFFFFFFFFFFFF AND PUSH20 0xFFFFFFFFFFFFFFFFFFFFFFFFFFFFFFFFFFFFFFFF AND DUP2 MSTORE PUSH1 0x20 ADD SWAP1 DUP2 MSTORE PUSH1 0x20 ADD PUSH1 0x0 KECCAK256 PUSH1 0x0 DUP10 PUSH20 0xFFFFFFFFFFFFFFFFFFFFFFFFFFFFFFFFFFFFFFFF AND PUSH20 0xFFFFFFFFFFFFFFFFFFFFFFFFFFFFFFFFFFFFFFFF AND DUP2 MSTORE PUSH1 0x20 ADD SWAP1 DUP2 MSTORE PUSH1 0x20 ADD PUSH1 0x0 KECCAK256 SLOAD PUSH2 0xA64 SWAP2 SWAP1 PUSH2 0x28C3 JUMP JUMPDEST PUSH2 0x125C JUMP JUMPDEST PUSH1 0x1 SWAP2 POP POP SWAP3 SWAP2 POP POP JUMP JUMPDEST PUSH1 0x0 PUSH1 0x6 PUSH1 0x0 CALLER PUSH20 0xFFFFFFFFFFFFFFFFFFFFFFFFFFFFFFFFFFFFFFFF AND PUSH20 0xFFFFFFFFFFFFFFFFFFFFFFFFFFFFFFFFFFFFFFFF AND DUP2 MSTORE PUSH1 0x20 ADD SWAP1 DUP2 MSTORE PUSH1 0x20 ADD PUSH1 0x0 KECCAK256 SLOAD SWAP1 POP PUSH1 0x0 DUP2 GT PUSH2 0xAFB JUMPI PUSH1 0x40 MLOAD PUSH32 0x8C379A000000000000000000000000000000000000000000000000000000000 DUP2 MSTORE PUSH1 0x4 ADD PUSH2 0xAF2 SWAP1 PUSH2 0x2726 JUMP JUMPDEST PUSH1 0x40 MLOAD DUP1 SWAP2 SUB SWAP1 REVERT JUMPDEST PUSH1 0x0 PUSH1 0x8 SLOAD PUSH11 0x52B7D2DCC80CD2E4000000 PUSH2 0xB16 SWAP2 SWAP1 PUSH2 0x2973 JUMP JUMPDEST SWAP1 POP PUSH1 0x0 PUSH2 0xB24 DUP4 DUP4 PUSH2 0xC49 JUMP JUMPDEST SWAP1 POP DUP1 PUSH1 0x7 PUSH1 0x0 CALLER PUSH20 0xFFFFFFFFFFFFFFFFFFFFFFFFFFFFFFFFFFFFFFFF AND PUSH20 0xFFFFFFFFFFFFFFFFFFFFFFFFFFFFFFFFFFFFFFFF AND DUP2 MSTORE PUSH1 0x20 ADD SWAP1 DUP2 MSTORE PUSH1 0x20 ADD PUSH1 0x0 KECCAK256 PUSH1 0x0 DUP3 DUP3 SLOAD PUSH2 0xB75 SWAP2 SWAP1 PUSH2 0x28C3 JUMP JUMPDEST SWAP3 POP POP DUP2 SWAP1 SSTORE POP PUSH1 0x0 PUSH1 0x6 PUSH1 0x0 CALLER PUSH20 0xFFFFFFFFFFFFFFFFFFFFFFFFFFFFFFFFFFFFFFFF AND PUSH20 0xFFFFFFFFFFFFFFFFFFFFFFFFFFFFFFFFFFFFFFFF AND DUP2 MSTORE PUSH1 0x20 ADD SWAP1 DUP2 MSTORE PUSH1 0x20 ADD PUSH1 0x0 KECCAK256 DUP2 SWAP1 SSTORE POP DUP1 PUSH1 0x8 PUSH1 0x0 DUP3 DUP3 SLOAD PUSH2 0xBD3 SWAP2 SWAP1 PUSH2 0x28C3 JUMP JUMPDEST SWAP3 POP POP DUP2 SWAP1 SSTORE POP PUSH2 0xBE4 CALLER DUP3 PUSH2 0x1994 JUMP JUMPDEST POP POP POP JUMP JUMPDEST PUSH1 0x6 PUSH1 0x20 MSTORE DUP1 PUSH1 0x0 MSTORE PUSH1 0x40 PUSH1 0x0 KECCAK256 PUSH1 0x0 SWAP2 POP SWAP1 POP SLOAD DUP2 JUMP JUMPDEST PUSH1 0x0 DUP1 PUSH1 0x0 DUP4 PUSH20 0xFFFFFFFFFFFFFFFFFFFFFFFFFFFFFFFFFFFFFFFF AND PUSH20 0xFFFFFFFFFFFFFFFFFFFFFFFFFFFFFFFFFFFFFFFF AND DUP2 MSTORE PUSH1 0x20 ADD SWAP1 DUP2 MSTORE PUSH1 0x20 ADD PUSH1 0x0 KECCAK256 SLOAD SWAP1 POP SWAP2 SWAP1 POP JUMP JUMPDEST PUSH1 0x0 DUP2 DUP4 GT ISZERO PUSH2 0xC59 JUMPI DUP2 PUSH2 0xC5B JUMP JUMPDEST DUP3 JUMPDEST SWAP1 POP SWAP3 SWAP2 POP POP JUMP JUMPDEST PUSH32 0xBEEC13769B5F410B0584F69811BFD923818456D5EDCF426B0E31CF90EED7A3F6 DUP2 JUMP JUMPDEST PUSH2 0xCB1 PUSH32 0xBEEC13769B5F410B0584F69811BFD923818456D5EDCF426B0E31CF90EED7A3F6 CALLER PUSH2 0xDEE JUMP JUMPDEST PUSH2 0xCF0 JUMPI PUSH1 0x40 MLOAD PUSH32 0x8C379A000000000000000000000000000000000000000000000000000000000 DUP2 MSTORE PUSH1 0x4 ADD PUSH2 0xCE7 SWAP1 PUSH2 0x27A6 JUMP JUMPDEST PUSH1 0x40 MLOAD DUP1 SWAP2 SUB SWAP1 REVERT JUMPDEST PUSH1 0x0 PUSH1 0x6 PUSH1 0x0 DUP5 PUSH20 0xFFFFFFFFFFFFFFFFFFFFFFFFFFFFFFFFFFFFFFFF AND PUSH20 0xFFFFFFFFFFFFFFFFFFFFFFFFFFFFFFFFFFFFFFFF AND DUP2 MSTORE PUSH1 0x20 ADD SWAP1 DUP2 MSTORE PUSH1 0x20 ADD PUSH1 0x0 KECCAK256 SLOAD PUSH1 0x7 PUSH1 0x0 DUP6 PUSH20 0xFFFFFFFFFFFFFFFFFFFFFFFFFFFFFFFFFFFFFFFF AND PUSH20 0xFFFFFFFFFFFFFFFFFFFFFFFFFFFFFFFFFFFFFFFF AND DUP2 MSTORE PUSH1 0x20 ADD SWAP1 DUP2 MSTORE PUSH1 0x20 ADD PUSH1 0x0 KECCAK256 SLOAD DUP4 PUSH2 0xD7D SWAP2 SWAP1 PUSH2 0x2973 JUMP JUMPDEST PUSH2 0xD87 SWAP2 SWAP1 PUSH2 0x2973 JUMP JUMPDEST SWAP1 POP PUSH1 0x0 DUP2 GT PUSH2 0xDCC JUMPI PUSH1 0x40 MLOAD PUSH32 0x8C379A000000000000000000000000000000000000000000000000000000000 DUP2 MSTORE PUSH1 0x4 ADD PUSH2 0xDC3 SWAP1 PUSH2 0x27E6 JUMP JUMPDEST PUSH1 0x40 MLOAD DUP1 SWAP2 SUB SWAP1 REVERT JUMPDEST PUSH2 0xDE9 DUP4 PUSH8 0xDE0B6B3A7640000 DUP4 PUSH2 0xDE4 SWAP2 SWAP1 PUSH2 0x2919 JUMP JUMPDEST PUSH2 0x1AF4 JUMP JUMPDEST POP POP POP JUMP JUMPDEST PUSH1 0x0 PUSH1 0x5 PUSH1 0x0 DUP5 DUP2 MSTORE PUSH1 0x20 ADD SWAP1 DUP2 MSTORE PUSH1 0x20 ADD PUSH1 0x0 KECCAK256 PUSH1 0x0 ADD PUSH1 0x0 DUP4 PUSH20 0xFFFFFFFFFFFFFFFFFFFFFFFFFFFFFFFFFFFFFFFF AND PUSH20 0xFFFFFFFFFFFFFFFFFFFFFFFFFFFFFFFFFFFFFFFF AND DUP2 MSTORE PUSH1 0x20 ADD SWAP1 DUP2 MSTORE PUSH1 0x20 ADD PUSH1 0x0 KECCAK256 PUSH1 0x0 SWAP1 SLOAD SWAP1 PUSH2 0x100 EXP SWAP1 DIV PUSH1 0xFF AND SWAP1 POP SWAP3 SWAP2 POP POP JUMP JUMPDEST PUSH1 0x60 PUSH1 0x4 DUP1 SLOAD PUSH2 0xE68 SWAP1 PUSH2 0x2A8F JUMP JUMPDEST DUP1 PUSH1 0x1F ADD PUSH1 0x20 DUP1 SWAP2 DIV MUL PUSH1 0x20 ADD PUSH1 0x40 MLOAD SWAP1 DUP2 ADD PUSH1 0x40 MSTORE DUP1 SWAP3 SWAP2 SWAP1 DUP2 DUP2 MSTORE PUSH1 0x20 ADD DUP3 DUP1 SLOAD PUSH2 0xE94 SWAP1 PUSH2 0x2A8F JUMP JUMPDEST DUP1 ISZERO PUSH2 0xEE1 JUMPI DUP1 PUSH1 0x1F LT PUSH2 0xEB6 JUMPI PUSH2 0x100 DUP1 DUP4 SLOAD DIV MUL DUP4 MSTORE SWAP2 PUSH1 0x20 ADD SWAP2 PUSH2 0xEE1 JUMP JUMPDEST DUP3 ADD SWAP2 SWAP1 PUSH1 0x0 MSTORE PUSH1 0x20 PUSH1 0x0 KECCAK256 SWAP1 JUMPDEST DUP2 SLOAD DUP2 MSTORE SWAP1 PUSH1 0x1 ADD SWAP1 PUSH1 0x20 ADD DUP1 DUP4 GT PUSH2 0xEC4 JUMPI DUP3 SWAP1 SUB PUSH1 0x1F AND DUP3 ADD SWAP2 JUMPDEST POP POP POP POP POP SWAP1 POP SWAP1 JUMP JUMPDEST PUSH2 0xF15 PUSH32 0x3C11D16CBAFFD01DF69CE1C404F6340EE057498F5F00246190EA54220576A848 CALLER PUSH2 0xDEE JUMP JUMPDEST PUSH2 0xF54 JUMPI PUSH1 0x40 MLOAD PUSH32 0x8C379A000000000000000000000000000000000000000000000000000000000 DUP2 MSTORE PUSH1 0x4 ADD PUSH2 0xF4B SWAP1 PUSH2 0x2746 JUMP JUMPDEST PUSH1 0x40 MLOAD DUP1 SWAP2 SUB SWAP1 REVERT JUMPDEST PUSH2 0xF71 DUP3 PUSH8 0xDE0B6B3A7640000 DUP4 PUSH2 0xF6C SWAP2 SWAP1 PUSH2 0x2919 JUMP JUMPDEST PUSH2 0x1B4E JUMP JUMPDEST POP POP JUMP JUMPDEST PUSH1 0x0 DUP1 SHL DUP2 JUMP JUMPDEST PUSH1 0x0 DUP1 PUSH2 0xF87 PUSH2 0x1254 JUMP JUMPDEST SWAP1 POP PUSH1 0x0 PUSH1 0x1 PUSH1 0x0 DUP4 PUSH20 0xFFFFFFFFFFFFFFFFFFFFFFFFFFFFFFFFFFFFFFFF AND PUSH20 0xFFFFFFFFFFFFFFFFFFFFFFFFFFFFFFFFFFFFFFFF AND DUP2 MSTORE PUSH1 0x20 ADD SWAP1 DUP2 MSTORE PUSH1 0x20 ADD PUSH1 0x0 KECCAK256 PUSH1 0x0 DUP7 PUSH20 0xFFFFFFFFFFFFFFFFFFFFFFFFFFFFFFFFFFFFFFFF AND PUSH20 0xFFFFFFFFFFFFFFFFFFFFFFFFFFFFFFFFFFFFFFFF AND DUP2 MSTORE PUSH1 0x20 ADD SWAP1 DUP2 MSTORE PUSH1 0x20 ADD PUSH1 0x0 KECCAK256 SLOAD SWAP1 POP DUP4 DUP2 LT ISZERO PUSH2 0x104D JUMPI PUSH1 0x40 MLOAD PUSH32 0x8C379A000000000000000000000000000000000000000000000000000000000 DUP2 MSTORE PUSH1 0x4 ADD PUSH2 0x1044 SWAP1 PUSH2 0x2806 JUMP JUMPDEST PUSH1 0x40 MLOAD DUP1 SWAP2 SUB SWAP1 REVERT JUMPDEST PUSH2 0x105A DUP3 DUP7 DUP7 DUP5 SUB PUSH2 0x125C JUMP JUMPDEST PUSH1 0x1 SWAP3 POP POP POP SWAP3 SWAP2 POP POP JUMP JUMPDEST PUSH1 0x0 DUP1 PUSH2 0x1071 PUSH2 0x1254 JUMP JUMPDEST SWAP1 POP PUSH2 0x107E DUP2 DUP6 DUP6 PUSH2 0x14B3 JUMP JUMPDEST PUSH1 0x1 SWAP2 POP POP SWAP3 SWAP2 POP POP JUMP JUMPDEST PUSH1 0x7 PUSH1 0x20 MSTORE DUP1 PUSH1 0x0 MSTORE PUSH1 0x40 PUSH1 0x0 KECCAK256 PUSH1 0x0 SWAP2 POP SWAP1 POP SLOAD DUP2 JUMP JUMPDEST PUSH2 0x10AA DUP3 PUSH2 0x8D1 JUMP JUMPDEST PUSH2 0x10BB DUP2 PUSH2 0x10B6 PUSH2 0x1254 JUMP JUMPDEST PUSH2 0x1734 JUMP JUMPDEST PUSH2 0x10C5 DUP4 DUP4 PUSH2 0x18B2 JUMP JUMPDEST POP POP POP JUMP JUMPDEST PUSH11 0x52B7D2DCC80CD2E4000000 DUP2 JUMP JUMPDEST PUSH1 0x0 PUSH1 0x1 PUSH1 0x0 DUP5 PUSH20 0xFFFFFFFFFFFFFFFFFFFFFFFFFFFFFFFFFFFFFFFF AND PUSH20 0xFFFFFFFFFFFFFFFFFFFFFFFFFFFFFFFFFFFFFFFF AND DUP2 MSTORE PUSH1 0x20 ADD SWAP1 DUP2 MSTORE PUSH1 0x20 ADD PUSH1 0x0 KECCAK256 PUSH1 0x0 DUP4 PUSH20 0xFFFFFFFFFFFFFFFFFFFFFFFFFFFFFFFFFFFFFFFF AND PUSH20 0xFFFFFFFFFFFFFFFFFFFFFFFFFFFFFFFFFFFFFFFF AND DUP2 MSTORE PUSH1 0x20 ADD SWAP1 DUP2 MSTORE PUSH1 0x20 ADD PUSH1 0x0 KECCAK256 SLOAD SWAP1 POP SWAP3 SWAP2 POP POP JUMP JUMPDEST PUSH2 0x118A PUSH32 0xBEEC13769B5F410B0584F69811BFD923818456D5EDCF426B0E31CF90EED7A3F6 CALLER PUSH2 0xDEE JUMP JUMPDEST PUSH2 0x11C9 JUMPI PUSH1 0x40 MLOAD PUSH32 0x8C379A000000000000000000000000000000000000000000000000000000000 DUP2 MSTORE PUSH1 0x4 ADD PUSH2 0x11C0 SWAP1 PUSH2 0x27A6 JUMP JUMPDEST PUSH1 0x40 MLOAD DUP1 SWAP2 SUB SWAP1 REVERT JUMPDEST PUSH2 0x11E6 DUP3 PUSH8 0xDE0B6B3A7640000 DUP4 PUSH2 0x11E1 SWAP2 SWAP1 PUSH2 0x2919 JUMP JUMPDEST PUSH2 0x1D25 JUMP JUMPDEST POP POP JUMP JUMPDEST PUSH1 0x0 PUSH32 0x1FFC9A700000000000000000000000000000000000000000000000000000000 PUSH28 0xFFFFFFFFFFFFFFFFFFFFFFFFFFFFFFFFFFFFFFFFFFFFFFFFFFFFFFFF NOT AND DUP3 PUSH28 0xFFFFFFFFFFFFFFFFFFFFFFFFFFFFFFFFFFFFFFFFFFFFFFFFFFFFFFFF NOT AND EQ SWAP1 POP SWAP2 SWAP1 POP JUMP JUMPDEST PUSH1 0x0 CALLER SWAP1 POP SWAP1 JUMP JUMPDEST PUSH1 0x0 PUSH20 0xFFFFFFFFFFFFFFFFFFFFFFFFFFFFFFFFFFFFFFFF AND DUP4 PUSH20 0xFFFFFFFFFFFFFFFFFFFFFFFFFFFFFFFFFFFFFFFF AND EQ ISZERO PUSH2 0x12CC JUMPI PUSH1 0x40 MLOAD PUSH32 0x8C379A000000000000000000000000000000000000000000000000000000000 DUP2 MSTORE PUSH1 0x4 ADD PUSH2 0x12C3 SWAP1 PUSH2 0x27C6 JUMP JUMPDEST PUSH1 0x40 MLOAD DUP1 SWAP2 SUB SWAP1 REVERT JUMPDEST PUSH1 0x0 PUSH20 0xFFFFFFFFFFFFFFFFFFFFFFFFFFFFFFFFFFFFFFFF AND DUP3 PUSH20 0xFFFFFFFFFFFFFFFFFFFFFFFFFFFFFFFFFFFFFFFF AND EQ ISZERO PUSH2 0x133C JUMPI PUSH1 0x40 MLOAD PUSH32 0x8C379A000000000000000000000000000000000000000000000000000000000 DUP2 MSTORE PUSH1 0x4 ADD PUSH2 0x1333 SWAP1 PUSH2 0x26C6 JUMP JUMPDEST PUSH1 0x40 MLOAD DUP1 SWAP2 SUB SWAP1 REVERT JUMPDEST DUP1 PUSH1 0x1 PUSH1 0x0 DUP6 PUSH20 0xFFFFFFFFFFFFFFFFFFFFFFFFFFFFFFFFFFFFFFFF AND PUSH20 0xFFFFFFFFFFFFFFFFFFFFFFFFFFFFFFFFFFFFFFFF AND DUP2 MSTORE PUSH1 0x20 ADD SWAP1 DUP2 MSTORE PUSH1 0x20 ADD PUSH1 0x0 KECCAK256 PUSH1 0x0 DUP5 PUSH20 0xFFFFFFFFFFFFFFFFFFFFFFFFFFFFFFFFFFFFFFFF AND PUSH20 0xFFFFFFFFFFFFFFFFFFFFFFFFFFFFFFFFFFFFFFFF AND DUP2 MSTORE PUSH1 0x20 ADD SWAP1 DUP2 MSTORE PUSH1 0x20 ADD PUSH1 0x0 KECCAK256 DUP2 SWAP1 SSTORE POP DUP2 PUSH20 0xFFFFFFFFFFFFFFFFFFFFFFFFFFFFFFFFFFFFFFFF AND DUP4 PUSH20 0xFFFFFFFFFFFFFFFFFFFFFFFFFFFFFFFFFFFFFFFF AND PUSH32 0x8C5BE1E5EBEC7D5BD14F71427D1E84F3DD0314C0F7B2291E5B200AC8C7C3B925 DUP4 PUSH1 0x40 MLOAD PUSH2 0x141A SWAP2 SWAP1 PUSH2 0x2866 JUMP JUMPDEST PUSH1 0x40 MLOAD DUP1 SWAP2 SUB SWAP1 LOG3 POP POP POP JUMP JUMPDEST PUSH1 0x0 PUSH2 0x1433 DUP5 DUP5 PUSH2 0x10D9 JUMP JUMPDEST SWAP1 POP PUSH32 0xFFFFFFFFFFFFFFFFFFFFFFFFFFFFFFFFFFFFFFFFFFFFFFFFFFFFFFFFFFFFFFFF DUP2 EQ PUSH2 0x14AD JUMPI DUP2 DUP2 LT ISZERO PUSH2 0x149F JUMPI PUSH1 0x40 MLOAD PUSH32 0x8C379A000000000000000000000000000000000000000000000000000000000 DUP2 MSTORE PUSH1 0x4 ADD PUSH2 0x1496 SWAP1 PUSH2 0x26E6 JUMP JUMPDEST PUSH1 0x40 MLOAD DUP1 SWAP2 SUB SWAP1 REVERT JUMPDEST PUSH2 0x14AC DUP5 DUP5 DUP5 DUP5 SUB PUSH2 0x125C JUMP JUMPDEST JUMPDEST POP POP POP POP JUMP JUMPDEST PUSH1 0x0 PUSH20 0xFFFFFFFFFFFFFFFFFFFFFFFFFFFFFFFFFFFFFFFF AND DUP4 PUSH20 0xFFFFFFFFFFFFFFFFFFFFFFFFFFFFFFFFFFFFFFFF AND EQ ISZERO PUSH2 0x1523 JUMPI PUSH1 0x40 MLOAD PUSH32 0x8C379A000000000000000000000000000000000000000000000000000000000 DUP2 MSTORE PUSH1 0x4 ADD PUSH2 0x151A SWAP1 PUSH2 0x2786 JUMP JUMPDEST PUSH1 0x40 MLOAD DUP1 SWAP2 SUB SWAP1 REVERT JUMPDEST PUSH1 0x0 PUSH20 0xFFFFFFFFFFFFFFFFFFFFFFFFFFFFFFFFFFFFFFFF AND DUP3 PUSH20 0xFFFFFFFFFFFFFFFFFFFFFFFFFFFFFFFFFFFFFFFF AND EQ ISZERO PUSH2 0x1593 JUMPI PUSH1 0x40 MLOAD PUSH32 0x8C379A000000000000000000000000000000000000000000000000000000000 DUP2 MSTORE PUSH1 0x4 ADD PUSH2 0x158A SWAP1 PUSH2 0x2666 JUMP JUMPDEST PUSH1 0x40 MLOAD DUP1 SWAP2 SUB SWAP1 REVERT JUMPDEST PUSH2 0x159E DUP4 DUP4 DUP4 PUSH2 0x1E01 JUMP JUMPDEST PUSH1 0x0 DUP1 PUSH1 0x0 DUP6 PUSH20 0xFFFFFFFFFFFFFFFFFFFFFFFFFFFFFFFFFFFFFFFF AND PUSH20 0xFFFFFFFFFFFFFFFFFFFFFFFFFFFFFFFFFFFFFFFF AND DUP2 MSTORE PUSH1 0x20 ADD SWAP1 DUP2 MSTORE PUSH1 0x20 ADD PUSH1 0x0 KECCAK256 SLOAD SWAP1 POP DUP2 DUP2 LT ISZERO PUSH2 0x1624 JUMPI PUSH1 0x40 MLOAD PUSH32 0x8C379A000000000000000000000000000000000000000000000000000000000 DUP2 MSTORE PUSH1 0x4 ADD PUSH2 0x161B SWAP1 PUSH2 0x2706 JUMP JUMPDEST PUSH1 0x40 MLOAD DUP1 SWAP2 SUB SWAP1 REVERT JUMPDEST DUP2 DUP2 SUB PUSH1 0x0 DUP1 DUP7 PUSH20 0xFFFFFFFFFFFFFFFFFFFFFFFFFFFFFFFFFFFFFFFF AND PUSH20 0xFFFFFFFFFFFFFFFFFFFFFFFFFFFFFFFFFFFFFFFF AND DUP2 MSTORE PUSH1 0x20 ADD SWAP1 DUP2 MSTORE PUSH1 0x20 ADD PUSH1 0x0 KECCAK256 DUP2 SWAP1 SSTORE POP DUP2 PUSH1 0x0 DUP1 DUP6 PUSH20 0xFFFFFFFFFFFFFFFFFFFFFFFFFFFFFFFFFFFFFFFF AND PUSH20 0xFFFFFFFFFFFFFFFFFFFFFFFFFFFFFFFFFFFFFFFF AND DUP2 MSTORE PUSH1 0x20 ADD SWAP1 DUP2 MSTORE PUSH1 0x20 ADD PUSH1 0x0 KECCAK256 PUSH1 0x0 DUP3 DUP3 SLOAD PUSH2 0x16B7 SWAP2 SWAP1 PUSH2 0x28C3 JUMP JUMPDEST SWAP3 POP POP DUP2 SWAP1 SSTORE POP DUP3 PUSH20 0xFFFFFFFFFFFFFFFFFFFFFFFFFFFFFFFFFFFFFFFF AND DUP5 PUSH20 0xFFFFFFFFFFFFFFFFFFFFFFFFFFFFFFFFFFFFFFFF AND PUSH32 0xDDF252AD1BE2C89B69C2B068FC378DAA952BA7F163C4A11628F55A4DF523B3EF DUP5 PUSH1 0x40 MLOAD PUSH2 0x171B SWAP2 SWAP1 PUSH2 0x2866 JUMP JUMPDEST PUSH1 0x40 MLOAD DUP1 SWAP2 SUB SWAP1 LOG3 PUSH2 0x172E DUP5 DUP5 DUP5 PUSH2 0x1E06 JUMP JUMPDEST POP POP POP POP JUMP JUMPDEST PUSH2 0x173E DUP3 DUP3 PUSH2 0xDEE JUMP JUMPDEST PUSH2 0x17CD JUMPI PUSH2 0x1763 DUP2 PUSH20 0xFFFFFFFFFFFFFFFFFFFFFFFFFFFFFFFFFFFFFFFF AND PUSH1 0x14 PUSH2 0x1E0B JUMP JUMPDEST PUSH2 0x1771 DUP4 PUSH1 0x0 SHR PUSH1 0x20 PUSH2 0x1E0B JUMP JUMPDEST PUSH1 0x40 MLOAD PUSH1 0x20 ADD PUSH2 0x1782 SWAP3 SWAP2 SWAP1 PUSH2 0x25B4 JUMP JUMPDEST PUSH1 0x40 MLOAD PUSH1 0x20 DUP2 DUP4 SUB SUB DUP2 MSTORE SWAP1 PUSH1 0x40 MSTORE PUSH1 0x40 MLOAD PUSH32 0x8C379A000000000000000000000000000000000000000000000000000000000 DUP2 MSTORE PUSH1 0x4 ADD PUSH2 0x17C4 SWAP2 SWAP1 PUSH2 0x2624 JUMP JUMPDEST PUSH1 0x40 MLOAD DUP1 SWAP2 SUB SWAP1 REVERT JUMPDEST POP POP JUMP JUMPDEST PUSH2 0x17DB DUP3 DUP3 PUSH2 0xDEE JUMP JUMPDEST PUSH2 0x18AE JUMPI PUSH1 0x1 PUSH1 0x5 PUSH1 0x0 DUP5 DUP2 MSTORE PUSH1 0x20 ADD SWAP1 DUP2 MSTORE PUSH1 0x20 ADD PUSH1 0x0 KECCAK256 PUSH1 0x0 ADD PUSH1 0x0 DUP4 PUSH20 0xFFFFFFFFFFFFFFFFFFFFFFFFFFFFFFFFFFFFFFFF AND PUSH20 0xFFFFFFFFFFFFFFFFFFFFFFFFFFFFFFFFFFFFFFFF AND DUP2 MSTORE PUSH1 0x20 ADD SWAP1 DUP2 MSTORE PUSH1 0x20 ADD PUSH1 0x0 KECCAK256 PUSH1 0x0 PUSH2 0x100 EXP DUP2 SLOAD DUP2 PUSH1 0xFF MUL NOT AND SWAP1 DUP4 ISZERO ISZERO MUL OR SWAP1 SSTORE POP PUSH2 0x1853 PUSH2 0x1254 JUMP JUMPDEST PUSH20 0xFFFFFFFFFFFFFFFFFFFFFFFFFFFFFFFFFFFFFFFF AND DUP2 PUSH20 0xFFFFFFFFFFFFFFFFFFFFFFFFFFFFFFFFFFFFFFFF AND DUP4 PUSH32 0x2F8788117E7EFF1D82E926EC794901D17C78024A50270940304540A733656F0D PUSH1 0x40 MLOAD PUSH1 0x40 MLOAD DUP1 SWAP2 SUB SWAP1 LOG4 JUMPDEST POP POP JUMP JUMPDEST PUSH2 0x18BC DUP3 DUP3 PUSH2 0xDEE JUMP JUMPDEST ISZERO PUSH2 0x1990 JUMPI PUSH1 0x0 PUSH1 0x5 PUSH1 0x0 DUP5 DUP2 MSTORE PUSH1 0x20 ADD SWAP1 DUP2 MSTORE PUSH1 0x20 ADD PUSH1 0x0 KECCAK256 PUSH1 0x0 ADD PUSH1 0x0 DUP4 PUSH20 0xFFFFFFFFFFFFFFFFFFFFFFFFFFFFFFFFFFFFFFFF AND PUSH20 0xFFFFFFFFFFFFFFFFFFFFFFFFFFFFFFFFFFFFFFFF AND DUP2 MSTORE PUSH1 0x20 ADD SWAP1 DUP2 MSTORE PUSH1 0x20 ADD PUSH1 0x0 KECCAK256 PUSH1 0x0 PUSH2 0x100 EXP DUP2 SLOAD DUP2 PUSH1 0xFF MUL NOT AND SWAP1 DUP4 ISZERO ISZERO MUL OR SWAP1 SSTORE POP PUSH2 0x1935 PUSH2 0x1254 JUMP JUMPDEST PUSH20 0xFFFFFFFFFFFFFFFFFFFFFFFFFFFFFFFFFFFFFFFF AND DUP2 PUSH20 0xFFFFFFFFFFFFFFFFFFFFFFFFFFFFFFFFFFFFFFFF AND DUP4 PUSH32 0xF6391F5C32D9C69D2A47EA670B442974B53935D1EDC7FD64EB21E047A839171B PUSH1 0x40 MLOAD PUSH1 0x40 MLOAD DUP1 SWAP2 SUB SWAP1 LOG4 JUMPDEST POP POP JUMP JUMPDEST PUSH1 0x0 PUSH20 0xFFFFFFFFFFFFFFFFFFFFFFFFFFFFFFFFFFFFFFFF AND DUP3 PUSH20 0xFFFFFFFFFFFFFFFFFFFFFFFFFFFFFFFFFFFFFFFF AND EQ ISZERO PUSH2 0x1A04 JUMPI PUSH1 0x40 MLOAD PUSH32 0x8C379A000000000000000000000000000000000000000000000000000000000 DUP2 MSTORE PUSH1 0x4 ADD PUSH2 0x19FB SWAP1 PUSH2 0x2846 JUMP JUMPDEST PUSH1 0x40 MLOAD DUP1 SWAP2 SUB SWAP1 REVERT JUMPDEST PUSH2 0x1A10 PUSH1 0x0 DUP4 DUP4 PUSH2 0x1E01 JUMP JUMPDEST DUP1 PUSH1 0x2 PUSH1 0x0 DUP3 DUP3 SLOAD PUSH2 0x1A22 SWAP2 SWAP1 PUSH2 0x28C3 JUMP JUMPDEST SWAP3 POP POP DUP2 SWAP1 SSTORE POP DUP1 PUSH1 0x0 DUP1 DUP5 PUSH20 0xFFFFFFFFFFFFFFFFFFFFFFFFFFFFFFFFFFFFFFFF AND PUSH20 0xFFFFFFFFFFFFFFFFFFFFFFFFFFFFFFFFFFFFFFFF AND DUP2 MSTORE PUSH1 0x20 ADD SWAP1 DUP2 MSTORE PUSH1 0x20 ADD PUSH1 0x0 KECCAK256 PUSH1 0x0 DUP3 DUP3 SLOAD PUSH2 0x1A77 SWAP2 SWAP1 PUSH2 0x28C3 JUMP JUMPDEST SWAP3 POP POP DUP2 SWAP1 SSTORE POP DUP2 PUSH20 0xFFFFFFFFFFFFFFFFFFFFFFFFFFFFFFFFFFFFFFFF AND PUSH1 0x0 PUSH20 0xFFFFFFFFFFFFFFFFFFFFFFFFFFFFFFFFFFFFFFFF AND PUSH32 0xDDF252AD1BE2C89B69C2B068FC378DAA952BA7F163C4A11628F55A4DF523B3EF DUP4 PUSH1 0x40 MLOAD PUSH2 0x1ADC SWAP2 SWAP1 PUSH2 0x2866 JUMP JUMPDEST PUSH1 0x40 MLOAD DUP1 SWAP2 SUB SWAP1 LOG3 PUSH2 0x1AF0 PUSH1 0x0 DUP4 DUP4 PUSH2 0x1E06 JUMP JUMPDEST POP POP JUMP JUMPDEST DUP1 PUSH1 0x6 PUSH1 0x0 DUP5 PUSH20 0xFFFFFFFFFFFFFFFFFFFFFFFFFFFFFFFFFFFFFFFF AND PUSH20 0xFFFFFFFFFFFFFFFFFFFFFFFFFFFFFFFFFFFFFFFF AND DUP2 MSTORE PUSH1 0x20 ADD SWAP1 DUP2 MSTORE PUSH1 0x20 ADD PUSH1 0x0 KECCAK256 PUSH1 0x0 DUP3 DUP3 SLOAD PUSH2 0x1B43 SWAP2 SWAP1 PUSH2 0x28C3 JUMP JUMPDEST SWAP3 POP POP DUP2 SWAP1 SSTORE POP POP POP JUMP JUMPDEST PUSH1 0x0 PUSH20 0xFFFFFFFFFFFFFFFFFFFFFFFFFFFFFFFFFFFFFFFF AND DUP3 PUSH20 0xFFFFFFFFFFFFFFFFFFFFFFFFFFFFFFFFFFFFFFFF AND EQ ISZERO PUSH2 0x1BBE JUMPI PUSH1 0x40 MLOAD PUSH32 0x8C379A000000000000000000000000000000000000000000000000000000000 DUP2 MSTORE PUSH1 0x4 ADD PUSH2 0x1BB5 SWAP1 PUSH2 0x2766 JUMP JUMPDEST PUSH1 0x40 MLOAD DUP1 SWAP2 SUB SWAP1 REVERT JUMPDEST PUSH2 0x1BCA DUP3 PUSH1 0x0 DUP4 PUSH2 0x1E01 JUMP JUMPDEST PUSH1 0x0 DUP1 PUSH1 0x0 DUP5 PUSH20 0xFFFFFFFFFFFFFFFFFFFFFFFFFFFFFFFFFFFFFFFF AND PUSH20 0xFFFFFFFFFFFFFFFFFFFFFFFFFFFFFFFFFFFFFFFF AND DUP2 MSTORE PUSH1 0x20 ADD SWAP1 DUP2 MSTORE PUSH1 0x20 ADD PUSH1 0x0 KECCAK256 SLOAD SWAP1 POP DUP2 DUP2 LT ISZERO PUSH2 0x1C50 JUMPI PUSH1 0x40 MLOAD PUSH32 0x8C379A000000000000000000000000000000000000000000000000000000000 DUP2 MSTORE PUSH1 0x4 ADD PUSH2 0x1C47 SWAP1 PUSH2 0x26A6 JUMP JUMPDEST PUSH1 0x40 MLOAD DUP1 SWAP2 SUB SWAP1 REVERT JUMPDEST DUP2 DUP2 SUB PUSH1 0x0 DUP1 DUP6 PUSH20 0xFFFFFFFFFFFFFFFFFFFFFFFFFFFFFFFFFFFFFFFF AND PUSH20 0xFFFFFFFFFFFFFFFFFFFFFFFFFFFFFFFFFFFFFFFF AND DUP2 MSTORE PUSH1 0x20 ADD SWAP1 DUP2 MSTORE PUSH1 0x20 ADD PUSH1 0x0 KECCAK256 DUP2 SWAP1 SSTORE POP DUP2 PUSH1 0x2 PUSH1 0x0 DUP3 DUP3 SLOAD PUSH2 0x1CA7 SWAP2 SWAP1 PUSH2 0x2973 JUMP JUMPDEST SWAP3 POP POP DUP2 SWAP1 SSTORE POP PUSH1 0x0 PUSH20 0xFFFFFFFFFFFFFFFFFFFFFFFFFFFFFFFFFFFFFFFF AND DUP4 PUSH20 0xFFFFFFFFFFFFFFFFFFFFFFFFFFFFFFFFFFFFFFFF AND PUSH32 0xDDF252AD1BE2C89B69C2B068FC378DAA952BA7F163C4A11628F55A4DF523B3EF DUP5 PUSH1 0x40 MLOAD PUSH2 0x1D0C SWAP2 SWAP1 PUSH2 0x2866 JUMP JUMPDEST PUSH1 0x40 MLOAD DUP1 SWAP2 SUB SWAP1 LOG3 PUSH2 0x1D20 DUP4 PUSH1 0x0 DUP5 PUSH2 0x1E06 JUMP JUMPDEST POP POP POP JUMP JUMPDEST PUSH1 0x6 PUSH1 0x0 DUP4 PUSH20 0xFFFFFFFFFFFFFFFFFFFFFFFFFFFFFFFFFFFFFFFF AND PUSH20 0xFFFFFFFFFFFFFFFFFFFFFFFFFFFFFFFFFFFFFFFF AND DUP2 MSTORE PUSH1 0x20 ADD SWAP1 DUP2 MSTORE PUSH1 0x20 ADD PUSH1 0x0 KECCAK256 SLOAD DUP2 GT ISZERO PUSH2 0x1DA7 JUMPI PUSH1 0x40 MLOAD PUSH32 0x8C379A000000000000000000000000000000000000000000000000000000000 DUP2 MSTORE PUSH1 0x4 ADD PUSH2 0x1D9E SWAP1 PUSH2 0x2686 JUMP JUMPDEST PUSH1 0x40 MLOAD DUP1 SWAP2 SUB SWAP1 REVERT JUMPDEST DUP1 PUSH1 0x6 PUSH1 0x0 DUP5 PUSH20 0xFFFFFFFFFFFFFFFFFFFFFFFFFFFFFFFFFFFFFFFF AND PUSH20 0xFFFFFFFFFFFFFFFFFFFFFFFFFFFFFFFFFFFFFFFF AND DUP2 MSTORE PUSH1 0x20 ADD SWAP1 DUP2 MSTORE PUSH1 0x20 ADD PUSH1 0x0 KECCAK256 PUSH1 0x0 DUP3 DUP3 SLOAD PUSH2 0x1DF6 SWAP2 SWAP1 PUSH2 0x2973 JUMP JUMPDEST SWAP3 POP POP DUP2 SWAP1 SSTORE POP POP POP JUMP JUMPDEST POP POP POP JUMP JUMPDEST POP POP POP JUMP JUMPDEST PUSH1 0x60 PUSH1 0x0 PUSH1 0x2 DUP4 PUSH1 0x2 PUSH2 0x1E1E SWAP2 SWAP1 PUSH2 0x2919 JUMP JUMPDEST PUSH2 0x1E28 SWAP2 SWAP1 PUSH2 0x28C3 JUMP JUMPDEST PUSH8 0xFFFFFFFFFFFFFFFF DUP2 GT ISZERO PUSH2 0x1E41 JUMPI PUSH2 0x1E40 PUSH2 0x2B4E JUMP JUMPDEST JUMPDEST PUSH1 0x40 MLOAD SWAP1 DUP1 DUP3 MSTORE DUP1 PUSH1 0x1F ADD PUSH1 0x1F NOT AND PUSH1 0x20 ADD DUP3 ADD PUSH1 0x40 MSTORE DUP1 ISZERO PUSH2 0x1E73 JUMPI DUP2 PUSH1 0x20 ADD PUSH1 0x1 DUP3 MUL DUP1 CALLDATASIZE DUP4 CALLDATACOPY DUP1 DUP3 ADD SWAP2 POP POP SWAP1 POP JUMPDEST POP SWAP1 POP PUSH32 0x3000000000000000000000000000000000000000000000000000000000000000 DUP2 PUSH1 0x0 DUP2 MLOAD DUP2 LT PUSH2 0x1EAB JUMPI PUSH2 0x1EAA PUSH2 0x2B1F JUMP JUMPDEST JUMPDEST PUSH1 0x20 ADD ADD SWAP1 PUSH31 0xFFFFFFFFFFFFFFFFFFFFFFFFFFFFFFFFFFFFFFFFFFFFFFFFFFFFFFFFFFFFFF NOT AND SWAP1 DUP2 PUSH1 0x0 BYTE SWAP1 MSTORE8 POP PUSH32 0x7800000000000000000000000000000000000000000000000000000000000000 DUP2 PUSH1 0x1 DUP2 MLOAD DUP2 LT PUSH2 0x1F0F JUMPI PUSH2 0x1F0E PUSH2 0x2B1F JUMP JUMPDEST JUMPDEST PUSH1 0x20 ADD ADD SWAP1 PUSH31 0xFFFFFFFFFFFFFFFFFFFFFFFFFFFFFFFFFFFFFFFFFFFFFFFFFFFFFFFFFFFFFF NOT AND SWAP1 DUP2 PUSH1 0x0 BYTE SWAP1 MSTORE8 POP PUSH1 0x0 PUSH1 0x1 DUP5 PUSH1 0x2 PUSH2 0x1F4F SWAP2 SWAP1 PUSH2 0x2919 JUMP JUMPDEST PUSH2 0x1F59 SWAP2 SWAP1 PUSH2 0x28C3 JUMP JUMPDEST SWAP1 POP JUMPDEST PUSH1 0x1 DUP2 GT ISZERO PUSH2 0x1FF9 JUMPI PUSH32 0x3031323334353637383961626364656600000000000000000000000000000000 PUSH1 0xF DUP7 AND PUSH1 0x10 DUP2 LT PUSH2 0x1F9B JUMPI PUSH2 0x1F9A PUSH2 0x2B1F JUMP JUMPDEST JUMPDEST BYTE PUSH1 0xF8 SHL DUP3 DUP3 DUP2 MLOAD DUP2 LT PUSH2 0x1FB2 JUMPI PUSH2 0x1FB1 PUSH2 0x2B1F JUMP JUMPDEST JUMPDEST PUSH1 0x20 ADD ADD SWAP1 PUSH31 0xFFFFFFFFFFFFFFFFFFFFFFFFFFFFFFFFFFFFFFFFFFFFFFFFFFFFFFFFFFFFFF NOT AND SWAP1 DUP2 PUSH1 0x0 BYTE SWAP1 MSTORE8 POP PUSH1 0x4 DUP6 SWAP1 SHR SWAP5 POP DUP1 PUSH2 0x1FF2 SWAP1 PUSH2 0x2A65 JUMP JUMPDEST SWAP1 POP PUSH2 0x1F5C JUMP JUMPDEST POP PUSH1 0x0 DUP5 EQ PUSH2 0x203D JUMPI PUSH1 0x40 MLOAD PUSH32 0x8C379A000000000000000000000000000000000000000000000000000000000 DUP2 MSTORE PUSH1 0x4 ADD PUSH2 0x2034 SWAP1 PUSH2 0x2646 JUMP JUMPDEST PUSH1 0x40 MLOAD DUP1 SWAP2 SUB SWAP1 REVERT JUMPDEST DUP1 SWAP2 POP POP SWAP3 SWAP2 POP POP JUMP JUMPDEST PUSH1 0x0 DUP2 CALLDATALOAD SWAP1 POP PUSH2 0x2056 DUP2 PUSH2 0x3040 JUMP JUMPDEST SWAP3 SWAP2 POP POP JUMP JUMPDEST PUSH1 0x0 DUP2 CALLDATALOAD SWAP1 POP PUSH2 0x206B DUP2 PUSH2 0x3057 JUMP JUMPDEST SWAP3 SWAP2 POP POP JUMP JUMPDEST PUSH1 0x0 DUP2 CALLDATALOAD SWAP1 POP PUSH2 0x2080 DUP2 PUSH2 0x306E JUMP JUMPDEST SWAP3 SWAP2 POP POP JUMP JUMPDEST PUSH1 0x0 DUP2 CALLDATALOAD SWAP1 POP PUSH2 0x2095 DUP2 PUSH2 0x3085 JUMP JUMPDEST SWAP3 SWAP2 POP POP JUMP JUMPDEST PUSH1 0x0 PUSH1 0x20 DUP3 DUP5 SUB SLT ISZERO PUSH2 0x20B1 JUMPI PUSH2 0x20B0 PUSH2 0x2B7D JUMP JUMPDEST JUMPDEST PUSH1 0x0 PUSH2 0x20BF DUP5 DUP3 DUP6 ADD PUSH2 0x2047 JUMP JUMPDEST SWAP2 POP POP SWAP3 SWAP2 POP POP JUMP JUMPDEST PUSH1 0x0 DUP1 PUSH1 0x40 DUP4 DUP6 SUB SLT ISZERO PUSH2 0x20DF JUMPI PUSH2 0x20DE PUSH2 0x2B7D JUMP JUMPDEST JUMPDEST PUSH1 0x0 PUSH2 0x20ED DUP6 DUP3 DUP7 ADD PUSH2 0x2047 JUMP JUMPDEST SWAP3 POP POP PUSH1 0x20 PUSH2 0x20FE DUP6 DUP3 DUP7 ADD PUSH2 0x2047 JUMP JUMPDEST SWAP2 POP POP SWAP3 POP SWAP3 SWAP1 POP JUMP JUMPDEST PUSH1 0x0 DUP1 PUSH1 0x0 PUSH1 0x60 DUP5 DUP7 SUB SLT ISZERO PUSH2 0x2121 JUMPI PUSH2 0x2120 PUSH2 0x2B7D JUMP JUMPDEST JUMPDEST PUSH1 0x0 PUSH2 0x212F DUP7 DUP3 DUP8 ADD PUSH2 0x2047 JUMP JUMPDEST SWAP4 POP POP PUSH1 0x20 PUSH2 0x2140 DUP7 DUP3 DUP8 ADD PUSH2 0x2047 JUMP JUMPDEST SWAP3 POP POP PUSH1 0x40 PUSH2 0x2151 DUP7 DUP3 DUP8 ADD PUSH2 0x2086 JUMP JUMPDEST SWAP2 POP POP SWAP3 POP SWAP3 POP SWAP3 JUMP JUMPDEST PUSH1 0x0 DUP1 PUSH1 0x40 DUP4 DUP6 SUB SLT ISZERO PUSH2 0x2172 JUMPI PUSH2 0x2171 PUSH2 0x2B7D JUMP JUMPDEST JUMPDEST PUSH1 0x0 PUSH2 0x2180 DUP6 DUP3 DUP7 ADD PUSH2 0x2047 JUMP JUMPDEST SWAP3 POP POP PUSH1 0x20 PUSH2 0x2191 DUP6 DUP3 DUP7 ADD PUSH2 0x2086 JUMP JUMPDEST SWAP2 POP POP SWAP3 POP SWAP3 SWAP1 POP JUMP JUMPDEST PUSH1 0x0 PUSH1 0x20 DUP3 DUP5 SUB SLT ISZERO PUSH2 0x21B1 JUMPI PUSH2 0x21B0 PUSH2 0x2B7D JUMP JUMPDEST JUMPDEST PUSH1 0x0 PUSH2 0x21BF DUP5 DUP3 DUP6 ADD PUSH2 0x205C JUMP JUMPDEST SWAP2 POP POP SWAP3 SWAP2 POP POP JUMP JUMPDEST PUSH1 0x0 DUP1 PUSH1 0x40 DUP4 DUP6 SUB SLT ISZERO PUSH2 0x21DF JUMPI PUSH2 0x21DE PUSH2 0x2B7D JUMP JUMPDEST JUMPDEST PUSH1 0x0 PUSH2 0x21ED DUP6 DUP3 DUP7 ADD PUSH2 0x205C JUMP JUMPDEST SWAP3 POP POP PUSH1 0x20 PUSH2 0x21FE DUP6 DUP3 DUP7 ADD PUSH2 0x2047 JUMP JUMPDEST SWAP2 POP POP SWAP3 POP SWAP3 SWAP1 POP JUMP JUMPDEST PUSH1 0x0 PUSH1 0x20 DUP3 DUP5 SUB SLT ISZERO PUSH2 0x221E JUMPI PUSH2 0x221D PUSH2 0x2B7D JUMP JUMPDEST JUMPDEST PUSH1 0x0 PUSH2 0x222C DUP5 DUP3 DUP6 ADD PUSH2 0x2071 JUMP JUMPDEST SWAP2 POP POP SWAP3 SWAP2 POP POP JUMP JUMPDEST PUSH1 0x0 DUP1 PUSH1 0x40 DUP4 DUP6 SUB SLT ISZERO PUSH2 0x224C JUMPI PUSH2 0x224B PUSH2 0x2B7D JUMP JUMPDEST JUMPDEST PUSH1 0x0 PUSH2 0x225A DUP6 DUP3 DUP7 ADD PUSH2 0x2086 JUMP JUMPDEST SWAP3 POP POP PUSH1 0x20 PUSH2 0x226B DUP6 DUP3 DUP7 ADD PUSH2 0x2086 JUMP JUMPDEST SWAP2 POP POP SWAP3 POP SWAP3 SWAP1 POP JUMP JUMPDEST PUSH2 0x227E DUP2 PUSH2 0x29B9 JUMP JUMPDEST DUP3 MSTORE POP POP JUMP JUMPDEST PUSH2 0x228D DUP2 PUSH2 0x29C5 JUMP JUMPDEST DUP3 MSTORE POP POP JUMP JUMPDEST PUSH1 0x0 PUSH2 0x229E DUP3 PUSH2 0x289C JUMP JUMPDEST PUSH2 0x22A8 DUP2 DUP6 PUSH2 0x28A7 JUMP JUMPDEST SWAP4 POP PUSH2 0x22B8 DUP2 DUP6 PUSH1 0x20 DUP7 ADD PUSH2 0x2A32 JUMP JUMPDEST PUSH2 0x22C1 DUP2 PUSH2 0x2B82 JUMP JUMPDEST DUP5 ADD SWAP2 POP POP SWAP3 SWAP2 POP POP JUMP JUMPDEST PUSH1 0x0 PUSH2 0x22D7 DUP3 PUSH2 0x289C JUMP JUMPDEST PUSH2 0x22E1 DUP2 DUP6 PUSH2 0x28B8 JUMP JUMPDEST SWAP4 POP PUSH2 0x22F1 DUP2 DUP6 PUSH1 0x20 DUP7 ADD PUSH2 0x2A32 JUMP JUMPDEST DUP1 DUP5 ADD SWAP2 POP POP SWAP3 SWAP2 POP POP JUMP JUMPDEST PUSH1 0x0 PUSH2 0x230A PUSH1 0x20 DUP4 PUSH2 0x28A7 JUMP JUMPDEST SWAP2 POP PUSH2 0x2315 DUP3 PUSH2 0x2B93 JUMP JUMPDEST PUSH1 0x20 DUP3 ADD SWAP1 POP SWAP2 SWAP1 POP JUMP JUMPDEST PUSH1 0x0 PUSH2 0x232D PUSH1 0x23 DUP4 PUSH2 0x28A7 JUMP JUMPDEST SWAP2 POP PUSH2 0x2338 DUP3 PUSH2 0x2BBC JUMP JUMPDEST PUSH1 0x40 DUP3 ADD SWAP1 POP SWAP2 SWAP1 POP JUMP JUMPDEST PUSH1 0x0 PUSH2 0x2350 PUSH1 0x38 DUP4 PUSH2 0x28A7 JUMP JUMPDEST SWAP2 POP PUSH2 0x235B DUP3 PUSH2 0x2C0B JUMP JUMPDEST PUSH1 0x40 DUP3 ADD SWAP1 POP SWAP2 SWAP1 POP JUMP JUMPDEST PUSH1 0x0 PUSH2 0x2373 PUSH1 0x22 DUP4 PUSH2 0x28A7 JUMP JUMPDEST SWAP2 POP PUSH2 0x237E DUP3 PUSH2 0x2C5A JUMP JUMPDEST PUSH1 0x40 DUP3 ADD SWAP1 POP SWAP2 SWAP1 POP JUMP JUMPDEST PUSH1 0x0 PUSH2 0x2396 PUSH1 0x22 DUP4 PUSH2 0x28A7 JUMP JUMPDEST SWAP2 POP PUSH2 0x23A1 DUP3 PUSH2 0x2CA9 JUMP JUMPDEST PUSH1 0x40 DUP3 ADD SWAP1 POP SWAP2 SWAP1 POP JUMP JUMPDEST PUSH1 0x0 PUSH2 0x23B9 PUSH1 0x1D DUP4 PUSH2 0x28A7 JUMP JUMPDEST SWAP2 POP PUSH2 0x23C4 DUP3 PUSH2 0x2CF8 JUMP JUMPDEST PUSH1 0x20 DUP3 ADD SWAP1 POP SWAP2 SWAP1 POP JUMP JUMPDEST PUSH1 0x0 PUSH2 0x23DC PUSH1 0x26 DUP4 PUSH2 0x28A7 JUMP JUMPDEST SWAP2 POP PUSH2 0x23E7 DUP3 PUSH2 0x2D21 JUMP JUMPDEST PUSH1 0x40 DUP3 ADD SWAP1 POP SWAP2 SWAP1 POP JUMP JUMPDEST PUSH1 0x0 PUSH2 0x23FF PUSH1 0x28 DUP4 PUSH2 0x28A7 JUMP JUMPDEST SWAP2 POP PUSH2 0x240A DUP3 PUSH2 0x2D70 JUMP JUMPDEST PUSH1 0x40 DUP3 ADD SWAP1 POP SWAP2 SWAP1 POP JUMP JUMPDEST PUSH1 0x0 PUSH2 0x2422 PUSH1 0x16 DUP4 PUSH2 0x28A7 JUMP JUMPDEST SWAP2 POP PUSH2 0x242D DUP3 PUSH2 0x2DBF JUMP JUMPDEST PUSH1 0x20 DUP3 ADD SWAP1 POP SWAP2 SWAP1 POP JUMP JUMPDEST PUSH1 0x0 PUSH2 0x2445 PUSH1 0x21 DUP4 PUSH2 0x28A7 JUMP JUMPDEST SWAP2 POP PUSH2 0x2450 DUP3 PUSH2 0x2DE8 JUMP JUMPDEST PUSH1 0x40 DUP3 ADD SWAP1 POP SWAP2 SWAP1 POP JUMP JUMPDEST PUSH1 0x0 PUSH2 0x2468 PUSH1 0x25 DUP4 PUSH2 0x28A7 JUMP JUMPDEST SWAP2 POP PUSH2 0x2473 DUP3 PUSH2 0x2E37 JUMP JUMPDEST PUSH1 0x40 DUP3 ADD SWAP1 POP SWAP2 SWAP1 POP JUMP JUMPDEST PUSH1 0x0 PUSH2 0x248B PUSH1 0x18 DUP4 PUSH2 0x28A7 JUMP JUMPDEST SWAP2 POP PUSH2 0x2496 DUP3 PUSH2 0x2E86 JUMP JUMPDEST PUSH1 0x20 DUP3 ADD SWAP1 POP SWAP2 SWAP1 POP JUMP JUMPDEST PUSH1 0x0 PUSH2 0x24AE PUSH1 0x24 DUP4 PUSH2 0x28A7 JUMP JUMPDEST SWAP2 POP PUSH2 0x24B9 DUP3 PUSH2 0x2EAF JUMP JUMPDEST PUSH1 0x40 DUP3 ADD SWAP1 POP SWAP2 SWAP1 POP JUMP JUMPDEST PUSH1 0x0 PUSH2 0x24D1 PUSH1 0x20 DUP4 PUSH2 0x28A7 JUMP JUMPDEST SWAP2 POP PUSH2 0x24DC DUP3 PUSH2 0x2EFE JUMP JUMPDEST PUSH1 0x20 DUP3 ADD SWAP1 POP SWAP2 SWAP1 POP JUMP JUMPDEST PUSH1 0x0 PUSH2 0x24F4 PUSH1 0x17 DUP4 PUSH2 0x28B8 JUMP JUMPDEST SWAP2 POP PUSH2 0x24FF DUP3 PUSH2 0x2F27 JUMP JUMPDEST PUSH1 0x17 DUP3 ADD SWAP1 POP SWAP2 SWAP1 POP JUMP JUMPDEST PUSH1 0x0 PUSH2 0x2517 PUSH1 0x25 DUP4 PUSH2 0x28A7 JUMP JUMPDEST SWAP2 POP PUSH2 0x2522 DUP3 PUSH2 0x2F50 JUMP JUMPDEST PUSH1 0x40 DUP3 ADD SWAP1 POP SWAP2 SWAP1 POP JUMP JUMPDEST PUSH1 0x0 PUSH2 0x253A PUSH1 0x11 DUP4 PUSH2 0x28B8 JUMP JUMPDEST SWAP2 POP PUSH2 0x2545 DUP3 PUSH2 0x2F9F JUMP JUMPDEST PUSH1 0x11 DUP3 ADD SWAP1 POP SWAP2 SWAP1 POP JUMP JUMPDEST PUSH1 0x0 PUSH2 0x255D PUSH1 0x2F DUP4 PUSH2 0x28A7 JUMP JUMPDEST SWAP2 POP PUSH2 0x2568 DUP3 PUSH2 0x2FC8 JUMP JUMPDEST PUSH1 0x40 DUP3 ADD SWAP1 POP SWAP2 SWAP1 POP JUMP JUMPDEST PUSH1 0x0 PUSH2 0x2580 PUSH1 0x1F DUP4 PUSH2 0x28A7 JUMP JUMPDEST SWAP2 POP PUSH2 0x258B DUP3 PUSH2 0x3017 JUMP JUMPDEST PUSH1 0x20 DUP3 ADD SWAP1 POP SWAP2 SWAP1 POP JUMP JUMPDEST PUSH2 0x259F DUP2 PUSH2 0x2A1B JUMP JUMPDEST DUP3 MSTORE POP POP JUMP JUMPDEST PUSH2 0x25AE DUP2 PUSH2 0x2A25 JUMP JUMPDEST DUP3 MSTORE POP POP JUMP JUMPDEST PUSH1 0x0 PUSH2 0x25BF DUP3 PUSH2 0x24E7 JUMP JUMPDEST SWAP2 POP PUSH2 0x25CB DUP3 DUP6 PUSH2 0x22CC JUMP JUMPDEST SWAP2 POP PUSH2 0x25D6 DUP3 PUSH2 0x252D JUMP JUMPDEST SWAP2 POP PUSH2 0x25E2 DUP3 DUP5 PUSH2 0x22CC JUMP JUMPDEST SWAP2 POP DUP2 SWAP1 POP SWAP4 SWAP3 POP POP POP JUMP JUMPDEST PUSH1 0x0 PUSH1 0x20 DUP3 ADD SWAP1 POP PUSH2 0x2603 PUSH1 0x0 DUP4 ADD DUP5 PUSH2 0x2275 JUMP JUMPDEST SWAP3 SWAP2 POP POP JUMP JUMPDEST PUSH1 0x0 PUSH1 0x20 DUP3 ADD SWAP1 POP PUSH2 0x261E PUSH1 0x0 DUP4 ADD DUP5 PUSH2 0x2284 JUMP JUMPDEST SWAP3 SWAP2 POP POP JUMP JUMPDEST PUSH1 0x0 PUSH1 0x20 DUP3 ADD SWAP1 POP DUP2 DUP2 SUB PUSH1 0x0 DUP4 ADD MSTORE PUSH2 0x263E DUP2 DUP5 PUSH2 0x2293 JUMP JUMPDEST SWAP1 POP SWAP3 SWAP2 POP POP JUMP JUMPDEST PUSH1 0x0 PUSH1 0x20 DUP3 ADD SWAP1 POP DUP2 DUP2 SUB PUSH1 0x0 DUP4 ADD MSTORE PUSH2 0x265F DUP2 PUSH2 0x22FD JUMP JUMPDEST SWAP1 POP SWAP2 SWAP1 POP JUMP JUMPDEST PUSH1 0x0 PUSH1 0x20 DUP3 ADD SWAP1 POP DUP2 DUP2 SUB PUSH1 0x0 DUP4 ADD MSTORE PUSH2 0x267F DUP2 PUSH2 0x2320 JUMP JUMPDEST SWAP1 POP SWAP2 SWAP1 POP JUMP JUMPDEST PUSH1 0x0 PUSH1 0x20 DUP3 ADD SWAP1 POP DUP2 DUP2 SUB PUSH1 0x0 DUP4 ADD MSTORE PUSH2 0x269F DUP2 PUSH2 0x2343 JUMP JUMPDEST SWAP1 POP SWAP2 SWAP1 POP JUMP JUMPDEST PUSH1 0x0 PUSH1 0x20 DUP3 ADD SWAP1 POP DUP2 DUP2 SUB PUSH1 0x0 DUP4 ADD MSTORE PUSH2 0x26BF DUP2 PUSH2 0x2366 JUMP JUMPDEST SWAP1 POP SWAP2 SWAP1 POP JUMP JUMPDEST PUSH1 0x0 PUSH1 0x20 DUP3 ADD SWAP1 POP DUP2 DUP2 SUB PUSH1 0x0 DUP4 ADD MSTORE PUSH2 0x26DF DUP2 PUSH2 0x2389 JUMP JUMPDEST SWAP1 POP SWAP2 SWAP1 POP JUMP JUMPDEST PUSH1 0x0 PUSH1 0x20 DUP3 ADD SWAP1 POP DUP2 DUP2 SUB PUSH1 0x0 DUP4 ADD MSTORE PUSH2 0x26FF DUP2 PUSH2 0x23AC JUMP JUMPDEST SWAP1 POP SWAP2 SWAP1 POP JUMP JUMPDEST PUSH1 0x0 PUSH1 0x20 DUP3 ADD SWAP1 POP DUP2 DUP2 SUB PUSH1 0x0 DUP4 ADD MSTORE PUSH2 0x271F DUP2 PUSH2 0x23CF JUMP JUMPDEST SWAP1 POP SWAP2 SWAP1 POP JUMP JUMPDEST PUSH1 0x0 PUSH1 0x20 DUP3 ADD SWAP1 POP DUP2 DUP2 SUB PUSH1 0x0 DUP4 ADD MSTORE PUSH2 0x273F DUP2 PUSH2 0x23F2 JUMP JUMPDEST SWAP1 POP SWAP2 SWAP1 POP JUMP JUMPDEST PUSH1 0x0 PUSH1 0x20 DUP3 ADD SWAP1 POP DUP2 DUP2 SUB PUSH1 0x0 DUP4 ADD MSTORE PUSH2 0x275F DUP2 PUSH2 0x2415 JUMP JUMPDEST SWAP1 POP SWAP2 SWAP1 POP JUMP JUMPDEST PUSH1 0x0 PUSH1 0x20 DUP3 ADD SWAP1 POP DUP2 DUP2 SUB PUSH1 0x0 DUP4 ADD MSTORE PUSH2 0x277F DUP2 PUSH2 0x2438 JUMP JUMPDEST SWAP1 POP SWAP2 SWAP1 POP JUMP JUMPDEST PUSH1 0x0 PUSH1 0x20 DUP3 ADD SWAP1 POP DUP2 DUP2 SUB PUSH1 0x0 DUP4 ADD MSTORE PUSH2 0x279F DUP2 PUSH2 0x245B JUMP JUMPDEST SWAP1 POP SWAP2 SWAP1 POP JUMP JUMPDEST PUSH1 0x0 PUSH1 0x20 DUP3 ADD SWAP1 POP DUP2 DUP2 SUB PUSH1 0x0 DUP4 ADD MSTORE PUSH2 0x27BF DUP2 PUSH2 0x247E JUMP JUMPDEST SWAP1 POP SWAP2 SWAP1 POP JUMP JUMPDEST PUSH1 0x0 PUSH1 0x20 DUP3 ADD SWAP1 POP DUP2 DUP2 SUB PUSH1 0x0 DUP4 ADD MSTORE PUSH2 0x27DF DUP2 PUSH2 0x24A1 JUMP JUMPDEST SWAP1 POP SWAP2 SWAP1 POP JUMP JUMPDEST PUSH1 0x0 PUSH1 0x20 DUP3 ADD SWAP1 POP DUP2 DUP2 SUB PUSH1 0x0 DUP4 ADD MSTORE PUSH2 0x27FF DUP2 PUSH2 0x24C4 JUMP JUMPDEST SWAP1 POP SWAP2 SWAP1 POP JUMP JUMPDEST PUSH1 0x0 PUSH1 0x20 DUP3 ADD SWAP1 POP DUP2 DUP2 SUB PUSH1 0x0 DUP4 ADD MSTORE PUSH2 0x281F DUP2 PUSH2 0x250A JUMP JUMPDEST SWAP1 POP SWAP2 SWAP1 POP JUMP JUMPDEST PUSH1 0x0 PUSH1 0x20 DUP3 ADD SWAP1 POP DUP2 DUP2 SUB PUSH1 0x0 DUP4 ADD MSTORE PUSH2 0x283F DUP2 PUSH2 0x2550 JUMP JUMPDEST SWAP1 POP SWAP2 SWAP1 POP JUMP JUMPDEST PUSH1 0x0 PUSH1 0x20 DUP3 ADD SWAP1 POP DUP2 DUP2 SUB PUSH1 0x0 DUP4 ADD MSTORE PUSH2 0x285F DUP2 PUSH2 0x2573 JUMP JUMPDEST SWAP1 POP SWAP2 SWAP1 POP JUMP JUMPDEST PUSH1 0x0 PUSH1 0x20 DUP3 ADD SWAP1 POP PUSH2 0x287B PUSH1 0x0 DUP4 ADD DUP5 PUSH2 0x2596 JUMP JUMPDEST SWAP3 SWAP2 POP POP JUMP JUMPDEST PUSH1 0x0 PUSH1 0x20 DUP3 ADD SWAP1 POP PUSH2 0x2896 PUSH1 0x0 DUP4 ADD DUP5 PUSH2 0x25A5 JUMP JUMPDEST SWAP3 SWAP2 POP POP JUMP JUMPDEST PUSH1 0x0 DUP2 MLOAD SWAP1 POP SWAP2 SWAP1 POP JUMP JUMPDEST PUSH1 0x0 DUP3 DUP3 MSTORE PUSH1 0x20 DUP3 ADD SWAP1 POP SWAP3 SWAP2 POP POP JUMP JUMPDEST PUSH1 0x0 DUP2 SWAP1 POP SWAP3 SWAP2 POP POP JUMP JUMPDEST PUSH1 0x0 PUSH2 0x28CE DUP3 PUSH2 0x2A1B JUMP JUMPDEST SWAP2 POP PUSH2 0x28D9 DUP4 PUSH2 0x2A1B JUMP JUMPDEST SWAP3 POP DUP3 PUSH32 0xFFFFFFFFFFFFFFFFFFFFFFFFFFFFFFFFFFFFFFFFFFFFFFFFFFFFFFFFFFFFFFFF SUB DUP3 GT ISZERO PUSH2 0x290E JUMPI PUSH2 0x290D PUSH2 0x2AC1 JUMP JUMPDEST JUMPDEST DUP3 DUP3 ADD SWAP1 POP SWAP3 SWAP2 POP POP JUMP JUMPDEST PUSH1 0x0 PUSH2 0x2924 DUP3 PUSH2 0x2A1B JUMP JUMPDEST SWAP2 POP PUSH2 0x292F DUP4 PUSH2 0x2A1B JUMP JUMPDEST SWAP3 POP DUP2 PUSH32 0xFFFFFFFFFFFFFFFFFFFFFFFFFFFFFFFFFFFFFFFFFFFFFFFFFFFFFFFFFFFFFFFF DIV DUP4 GT DUP3 ISZERO ISZERO AND ISZERO PUSH2 0x2968 JUMPI PUSH2 0x2967 PUSH2 0x2AC1 JUMP JUMPDEST JUMPDEST DUP3 DUP3 MUL SWAP1 POP SWAP3 SWAP2 POP POP JUMP JUMPDEST PUSH1 0x0 PUSH2 0x297E DUP3 PUSH2 0x2A1B JUMP JUMPDEST SWAP2 POP PUSH2 0x2989 DUP4 PUSH2 0x2A1B JUMP JUMPDEST SWAP3 POP DUP3 DUP3 LT ISZERO PUSH2 0x299C JUMPI PUSH2 0x299B PUSH2 0x2AC1 JUMP JUMPDEST JUMPDEST DUP3 DUP3 SUB SWAP1 POP SWAP3 SWAP2 POP POP JUMP JUMPDEST PUSH1 0x0 PUSH2 0x29B2 DUP3 PUSH2 0x29FB JUMP JUMPDEST SWAP1 POP SWAP2 SWAP1 POP JUMP JUMPDEST PUSH1 0x0 DUP2 ISZERO ISZERO SWAP1 POP SWAP2 SWAP1 POP JUMP JUMPDEST PUSH1 0x0 DUP2 SWAP1 POP SWAP2 SWAP1 POP JUMP JUMPDEST PUSH1 0x0 PUSH32 0xFFFFFFFF00000000000000000000000000000000000000000000000000000000 DUP3 AND SWAP1 POP SWAP2 SWAP1 POP JUMP JUMPDEST PUSH1 0x0 PUSH20 0xFFFFFFFFFFFFFFFFFFFFFFFFFFFFFFFFFFFFFFFF DUP3 AND SWAP1 POP SWAP2 SWAP1 POP JUMP JUMPDEST PUSH1 0x0 DUP2 SWAP1 POP SWAP2 SWAP1 POP JUMP JUMPDEST PUSH1 0x0 PUSH1 0xFF DUP3 AND SWAP1 POP SWAP2 SWAP1 POP JUMP JUMPDEST PUSH1 0x0 JUMPDEST DUP4 DUP2 LT ISZERO PUSH2 0x2A50 JUMPI DUP1 DUP3 ADD MLOAD DUP2 DUP5 ADD MSTORE PUSH1 0x20 DUP2 ADD SWAP1 POP PUSH2 0x2A35 JUMP JUMPDEST DUP4 DUP2 GT ISZERO PUSH2 0x2A5F JUMPI PUSH1 0x0 DUP5 DUP5 ADD MSTORE JUMPDEST POP POP POP POP JUMP JUMPDEST PUSH1 0x0 PUSH2 0x2A70 DUP3 PUSH2 0x2A1B JUMP JUMPDEST SWAP2 POP PUSH1 0x0 DUP3 EQ ISZERO PUSH2 0x2A84 JUMPI PUSH2 0x2A83 PUSH2 0x2AC1 JUMP JUMPDEST JUMPDEST PUSH1 0x1 DUP3 SUB SWAP1 POP SWAP2 SWAP1 POP JUMP JUMPDEST PUSH1 0x0 PUSH1 0x2 DUP3 DIV SWAP1 POP PUSH1 0x1 DUP3 AND DUP1 PUSH2 0x2AA7 JUMPI PUSH1 0x7F DUP3 AND SWAP2 POP JUMPDEST PUSH1 0x20 DUP3 LT DUP2 EQ ISZERO PUSH2 0x2ABB JUMPI PUSH2 0x2ABA PUSH2 0x2AF0 JUMP JUMPDEST JUMPDEST POP SWAP2 SWAP1 POP JUMP JUMPDEST PUSH32 0x4E487B7100000000000000000000000000000000000000000000000000000000 PUSH1 0x0 MSTORE PUSH1 0x11 PUSH1 0x4 MSTORE PUSH1 0x24 PUSH1 0x0 REVERT JUMPDEST PUSH32 0x4E487B7100000000000000000000000000000000000000000000000000000000 PUSH1 0x0 MSTORE PUSH1 0x22 PUSH1 0x4 MSTORE PUSH1 0x24 PUSH1 0x0 REVERT JUMPDEST PUSH32 0x4E487B7100000000000000000000000000000000000000000000000000000000 PUSH1 0x0 MSTORE PUSH1 0x32 PUSH1 0x4 MSTORE PUSH1 0x24 PUSH1 0x0 REVERT JUMPDEST PUSH32 0x4E487B7100000000000000000000000000000000000000000000000000000000 PUSH1 0x0 MSTORE PUSH1 0x41 PUSH1 0x4 MSTORE PUSH1 0x24 PUSH1 0x0 REVERT JUMPDEST PUSH1 0x0 DUP1 REVERT JUMPDEST PUSH1 0x0 PUSH1 0x1F NOT PUSH1 0x1F DUP4 ADD AND SWAP1 POP SWAP2 SWAP1 POP JUMP JUMPDEST PUSH32 0x537472696E67733A20686578206C656E67746820696E73756666696369656E74 PUSH1 0x0 DUP3 ADD MSTORE POP JUMP JUMPDEST PUSH32 0x45524332303A207472616E7366657220746F20746865207A65726F2061646472 PUSH1 0x0 DUP3 ADD MSTORE PUSH32 0x6573730000000000000000000000000000000000000000000000000000000000 PUSH1 0x20 DUP3 ADD MSTORE POP JUMP JUMPDEST PUSH32 0x416D6F756E7420746F2072656D6F76652063616E6E6F74206265206772656174 PUSH1 0x0 DUP3 ADD MSTORE PUSH32 0x6572207468616E20756E636C61696D656420616D6F756E740000000000000000 PUSH1 0x20 DUP3 ADD MSTORE POP JUMP JUMPDEST PUSH32 0x45524332303A206275726E20616D6F756E7420657863656564732062616C616E PUSH1 0x0 DUP3 ADD MSTORE PUSH32 0x6365000000000000000000000000000000000000000000000000000000000000 PUSH1 0x20 DUP3 ADD MSTORE POP JUMP JUMPDEST PUSH32 0x45524332303A20617070726F766520746F20746865207A65726F206164647265 PUSH1 0x0 DUP3 ADD MSTORE PUSH32 0x7373000000000000000000000000000000000000000000000000000000000000 PUSH1 0x20 DUP3 ADD MSTORE POP JUMP JUMPDEST PUSH32 0x45524332303A20696E73756666696369656E7420616C6C6F77616E6365000000 PUSH1 0x0 DUP3 ADD MSTORE POP JUMP JUMPDEST PUSH32 0x45524332303A207472616E7366657220616D6F756E7420657863656564732062 PUSH1 0x0 DUP3 ADD MSTORE PUSH32 0x616C616E63650000000000000000000000000000000000000000000000000000 PUSH1 0x20 DUP3 ADD MSTORE POP JUMP JUMPDEST PUSH32 0x556E636C61696D65642062616C616E6365206D75737420626520677265617465 PUSH1 0x0 DUP3 ADD MSTORE PUSH32 0x72207468616E2030000000000000000000000000000000000000000000000000 PUSH1 0x20 DUP3 ADD MSTORE POP JUMP JUMPDEST PUSH32 0x43616C6C6572206973206E6F742061206275726E657200000000000000000000 PUSH1 0x0 DUP3 ADD MSTORE POP JUMP JUMPDEST PUSH32 0x45524332303A206275726E2066726F6D20746865207A65726F20616464726573 PUSH1 0x0 DUP3 ADD MSTORE PUSH32 0x7300000000000000000000000000000000000000000000000000000000000000 PUSH1 0x20 DUP3 ADD MSTORE POP JUMP JUMPDEST PUSH32 0x45524332303A207472616E736665722066726F6D20746865207A65726F206164 PUSH1 0x0 DUP3 ADD MSTORE PUSH32 0x6472657373000000000000000000000000000000000000000000000000000000 PUSH1 0x20 DUP3 ADD MSTORE POP JUMP JUMPDEST PUSH32 0x43616C6C6572206973206E6F7420612072657761726465720000000000000000 PUSH1 0x0 DUP3 ADD MSTORE POP JUMP JUMPDEST PUSH32 0x45524332303A20617070726F76652066726F6D20746865207A65726F20616464 PUSH1 0x0 DUP3 ADD MSTORE PUSH32 0x7265737300000000000000000000000000000000000000000000000000000000 PUSH1 0x20 DUP3 ADD MSTORE POP JUMP JUMPDEST PUSH32 0x636C61696D61626C65206D7573742062652067726561746572207468616E2030 PUSH1 0x0 DUP3 ADD MSTORE POP JUMP JUMPDEST PUSH32 0x416363657373436F6E74726F6C3A206163636F756E7420000000000000000000 PUSH1 0x0 DUP3 ADD MSTORE POP JUMP JUMPDEST PUSH32 0x45524332303A2064656372656173656420616C6C6F77616E63652062656C6F77 PUSH1 0x0 DUP3 ADD MSTORE PUSH32 0x207A65726F000000000000000000000000000000000000000000000000000000 PUSH1 0x20 DUP3 ADD MSTORE POP JUMP JUMPDEST PUSH32 0x206973206D697373696E6720726F6C6520000000000000000000000000000000 PUSH1 0x0 DUP3 ADD MSTORE POP JUMP JUMPDEST PUSH32 0x416363657373436F6E74726F6C3A2063616E206F6E6C792072656E6F756E6365 PUSH1 0x0 DUP3 ADD MSTORE PUSH32 0x20726F6C657320666F722073656C660000000000000000000000000000000000 PUSH1 0x20 DUP3 ADD MSTORE POP JUMP JUMPDEST PUSH32 0x45524332303A206D696E7420746F20746865207A65726F206164647265737300 PUSH1 0x0 DUP3 ADD MSTORE POP JUMP JUMPDEST PUSH2 0x3049 DUP2 PUSH2 0x29A7 JUMP JUMPDEST DUP2 EQ PUSH2 0x3054 JUMPI PUSH1 0x0 DUP1 REVERT JUMPDEST POP JUMP JUMPDEST PUSH2 0x3060 DUP2 PUSH2 0x29C5 JUMP JUMPDEST DUP2 EQ PUSH2 0x306B JUMPI PUSH1 0x0 DUP1 REVERT JUMPDEST POP JUMP JUMPDEST PUSH2 0x3077 DUP2 PUSH2 0x29CF JUMP JUMPDEST DUP2 EQ PUSH2 0x3082 JUMPI PUSH1 0x0 DUP1 REVERT JUMPDEST POP JUMP JUMPDEST PUSH2 0x308E DUP2 PUSH2 0x2A1B JUMP JUMPDEST DUP2 EQ PUSH2 0x3099 JUMPI PUSH1 0x0 DUP1 REVERT JUMPDEST POP JUMP INVALID LOG2 PUSH5 0x6970667358 0x22 SLT KECCAK256 0xB1 CREATE2 0x2C 0x2D 0xB4 CALL MULMOD BASEFEE SDIV PUSH28 0x32630B412DFD9D6624BFD866215ABB4E92B2396D2F0D64736F6C6343 STOP ADDMOD SMOD STOP CALLER "
				},
				"gasEstimates": {
					"creation": {
						"codeDepositCost": "2499600",
						"executionCost": "infinite",
						"totalCost": "infinite"
					},
					"external": {
						"BURNER_ROLE()": "375",
						"DEFAULT_ADMIN_ROLE()": "380",
						"REWARDER_ROLE()": "419",
						"allowance(address,address)": "infinite",
						"approve(address,uint256)": "infinite",
						"balanceOf(address)": "2887",
						"burn(address,uint256)": "infinite",
						"claim()": "infinite",
						"claimed(address)": "2925",
						"createClaimable(address,uint256)": "infinite",
						"decimals()": "433",
						"decreaseAllowance(address,uint256)": "infinite",
						"getRoleAdmin(bytes32)": "infinite",
						"grantRole(bytes32,address)": "infinite",
						"hasRole(bytes32,address)": "3207",
						"increaseAllowance(address,uint256)": "infinite",
						"maxSupply()": "395",
						"min(uint256,uint256)": "infinite",
						"mintedAmt()": "2497",
						"name()": "infinite",
						"removeClaimable(address,uint256)": "infinite",
						"renounceRole(bytes32,address)": "infinite",
						"revokeRole(bytes32,address)": "infinite",
						"supportsInterface(bytes4)": "774",
						"symbol()": "infinite",
						"totalSupply()": "2483",
						"transfer(address,uint256)": "infinite",
						"transferFrom(address,address,uint256)": "infinite",
						"unclaimed(address)": "2925"
					}
				},
				"methodIdentifiers": {
					"BURNER_ROLE()": "282c51f3",
					"DEFAULT_ADMIN_ROLE()": "a217fddf",
					"REWARDER_ROLE()": "8580cf76",
					"allowance(address,address)": "dd62ed3e",
					"approve(address,uint256)": "095ea7b3",
					"balanceOf(address)": "70a08231",
					"burn(address,uint256)": "9dc29fac",
					"claim()": "4e71d92d",
					"claimed(address)": "c884ef83",
					"createClaimable(address,uint256)": "8a9db765",
					"decimals()": "313ce567",
					"decreaseAllowance(address,uint256)": "a457c2d7",
					"getRoleAdmin(bytes32)": "248a9ca3",
					"grantRole(bytes32,address)": "2f2ff15d",
					"hasRole(bytes32,address)": "91d14854",
					"increaseAllowance(address,uint256)": "39509351",
					"maxSupply()": "d5abeb01",
					"min(uint256,uint256)": "7ae2b5c7",
					"mintedAmt()": "1adb068a",
					"name()": "06fdde03",
					"removeClaimable(address,uint256)": "e5b7f305",
					"renounceRole(bytes32,address)": "36568abe",
					"revokeRole(bytes32,address)": "d547741f",
					"supportsInterface(bytes4)": "01ffc9a7",
					"symbol()": "95d89b41",
					"totalSupply()": "18160ddd",
					"transfer(address,uint256)": "a9059cbb",
					"transferFrom(address,address,uint256)": "23b872dd",
					"unclaimed(address)": "505bd3da"
				}
			},
			"userdoc": {
				"kind": "user",
				"methods": {},
				"version": 1
			}
		}
	}
}