{
	"contracts/Token.sol": {
		"FooToken": {
			"abi": [
				{
					"inputs": [],
					"stateMutability": "nonpayable",
					"type": "constructor"
				},
				{
					"anonymous": false,
					"inputs": [
						{
							"indexed": true,
							"internalType": "address",
							"name": "owner",
							"type": "address"
						},
						{
							"indexed": true,
							"internalType": "address",
							"name": "spender",
							"type": "address"
						},
						{
							"indexed": false,
							"internalType": "uint256",
							"name": "value",
							"type": "uint256"
						}
					],
					"name": "Approval",
					"type": "event"
				},
				{
					"anonymous": false,
					"inputs": [
						{
							"indexed": true,
							"internalType": "bytes32",
							"name": "role",
							"type": "bytes32"
						},
						{
							"indexed": true,
							"internalType": "bytes32",
							"name": "previousAdminRole",
							"type": "bytes32"
						},
						{
							"indexed": true,
							"internalType": "bytes32",
							"name": "newAdminRole",
							"type": "bytes32"
						}
					],
					"name": "RoleAdminChanged",
					"type": "event"
				},
				{
					"anonymous": false,
					"inputs": [
						{
							"indexed": true,
							"internalType": "bytes32",
							"name": "role",
							"type": "bytes32"
						},
						{
							"indexed": true,
							"internalType": "address",
							"name": "account",
							"type": "address"
						},
						{
							"indexed": true,
							"internalType": "address",
							"name": "sender",
							"type": "address"
						}
					],
					"name": "RoleGranted",
					"type": "event"
				},
				{
					"anonymous": false,
					"inputs": [
						{
							"indexed": true,
							"internalType": "bytes32",
							"name": "role",
							"type": "bytes32"
						},
						{
							"indexed": true,
							"internalType": "address",
							"name": "account",
							"type": "address"
						},
						{
							"indexed": true,
							"internalType": "address",
							"name": "sender",
							"type": "address"
						}
					],
					"name": "RoleRevoked",
					"type": "event"
				},
				{
					"anonymous": false,
					"inputs": [
						{
							"indexed": true,
							"internalType": "address",
							"name": "from",
							"type": "address"
						},
						{
							"indexed": true,
							"internalType": "address",
							"name": "to",
							"type": "address"
						},
						{
							"indexed": false,
							"internalType": "uint256",
							"name": "value",
							"type": "uint256"
						}
					],
					"name": "Transfer",
					"type": "event"
				},
				{
					"inputs": [],
					"name": "BURNER_ROLE",
					"outputs": [
						{
							"internalType": "bytes32",
							"name": "",
							"type": "bytes32"
						}
					],
					"stateMutability": "view",
					"type": "function"
				},
				{
					"inputs": [],
					"name": "DEFAULT_ADMIN_ROLE",
					"outputs": [
						{
							"internalType": "bytes32",
							"name": "",
							"type": "bytes32"
						}
					],
					"stateMutability": "view",
					"type": "function"
				},
				{
					"inputs": [],
					"name": "MINTER_ROLE",
					"outputs": [
						{
							"internalType": "bytes32",
							"name": "",
							"type": "bytes32"
						}
					],
					"stateMutability": "view",
					"type": "function"
				},
				{
					"inputs": [],
					"name": "REWARDER_ROLE",
					"outputs": [
						{
							"internalType": "bytes32",
							"name": "",
							"type": "bytes32"
						}
					],
					"stateMutability": "view",
					"type": "function"
				},
				{
					"inputs": [
						{
							"internalType": "address",
							"name": "owner",
							"type": "address"
						},
						{
							"internalType": "address",
							"name": "spender",
							"type": "address"
						}
					],
					"name": "allowance",
					"outputs": [
						{
							"internalType": "uint256",
							"name": "",
							"type": "uint256"
						}
					],
					"stateMutability": "view",
					"type": "function"
				},
				{
					"inputs": [
						{
							"internalType": "address",
							"name": "spender",
							"type": "address"
						},
						{
							"internalType": "uint256",
							"name": "amount",
							"type": "uint256"
						}
					],
					"name": "approve",
					"outputs": [
						{
							"internalType": "bool",
							"name": "",
							"type": "bool"
						}
					],
					"stateMutability": "nonpayable",
					"type": "function"
				},
				{
					"inputs": [
						{
							"internalType": "address",
							"name": "account",
							"type": "address"
						}
					],
					"name": "balanceOf",
					"outputs": [
						{
							"internalType": "uint256",
							"name": "",
							"type": "uint256"
						}
					],
					"stateMutability": "view",
					"type": "function"
				},
				{
					"inputs": [
						{
							"internalType": "address",
							"name": "from",
							"type": "address"
						},
						{
							"internalType": "uint256",
							"name": "amount",
							"type": "uint256"
						}
					],
					"name": "burn",
					"outputs": [],
					"stateMutability": "nonpayable",
					"type": "function"
				},
				{
					"inputs": [],
					"name": "claim",
					"outputs": [],
					"stateMutability": "payable",
					"type": "function"
				},
				{
					"inputs": [
						{
							"internalType": "address",
							"name": "",
							"type": "address"
						}
					],
					"name": "claimed",
					"outputs": [
						{
							"internalType": "uint256",
							"name": "",
							"type": "uint256"
						}
					],
					"stateMutability": "view",
					"type": "function"
				},
				{
					"inputs": [
						{
							"internalType": "address",
							"name": "_account",
							"type": "address"
						},
						{
							"internalType": "uint256",
							"name": "_amount",
							"type": "uint256"
						}
					],
					"name": "createClaimable",
					"outputs": [],
					"stateMutability": "nonpayable",
					"type": "function"
				},
				{
					"inputs": [],
					"name": "decimals",
					"outputs": [
						{
							"internalType": "uint8",
							"name": "",
							"type": "uint8"
						}
					],
					"stateMutability": "view",
					"type": "function"
				},
				{
					"inputs": [
						{
							"internalType": "address",
							"name": "spender",
							"type": "address"
						},
						{
							"internalType": "uint256",
							"name": "subtractedValue",
							"type": "uint256"
						}
					],
					"name": "decreaseAllowance",
					"outputs": [
						{
							"internalType": "bool",
							"name": "",
							"type": "bool"
						}
					],
					"stateMutability": "nonpayable",
					"type": "function"
				},
				{
					"inputs": [
						{
							"internalType": "address",
							"name": "_account",
							"type": "address"
						}
					],
					"name": "getClaimed",
					"outputs": [
						{
							"internalType": "uint256",
							"name": "",
							"type": "uint256"
						}
					],
					"stateMutability": "view",
					"type": "function"
				},
				{
					"inputs": [
						{
							"internalType": "bytes32",
							"name": "role",
							"type": "bytes32"
						}
					],
					"name": "getRoleAdmin",
					"outputs": [
						{
							"internalType": "bytes32",
							"name": "",
							"type": "bytes32"
						}
					],
					"stateMutability": "view",
					"type": "function"
				},
				{
					"inputs": [
						{
							"internalType": "address",
							"name": "_account",
							"type": "address"
						}
					],
					"name": "getUnclaimed",
					"outputs": [
						{
							"internalType": "uint256",
							"name": "",
							"type": "uint256"
						}
					],
					"stateMutability": "view",
					"type": "function"
				},
				{
					"inputs": [
						{
							"internalType": "bytes32",
							"name": "role",
							"type": "bytes32"
						},
						{
							"internalType": "address",
							"name": "account",
							"type": "address"
						}
					],
					"name": "grantRole",
					"outputs": [],
					"stateMutability": "nonpayable",
					"type": "function"
				},
				{
					"inputs": [
						{
							"internalType": "bytes32",
							"name": "role",
							"type": "bytes32"
						},
						{
							"internalType": "address",
							"name": "account",
							"type": "address"
						}
					],
					"name": "hasRole",
					"outputs": [
						{
							"internalType": "bool",
							"name": "",
							"type": "bool"
						}
					],
					"stateMutability": "view",
					"type": "function"
				},
				{
					"inputs": [
						{
							"internalType": "address",
							"name": "spender",
							"type": "address"
						},
						{
							"internalType": "uint256",
							"name": "addedValue",
							"type": "uint256"
						}
					],
					"name": "increaseAllowance",
					"outputs": [
						{
							"internalType": "bool",
							"name": "",
							"type": "bool"
						}
					],
					"stateMutability": "nonpayable",
					"type": "function"
				},
				{
					"inputs": [
						{
							"internalType": "address",
							"name": "to",
							"type": "address"
						},
						{
							"internalType": "uint256",
							"name": "amount",
							"type": "uint256"
						}
					],
					"name": "mint",
					"outputs": [],
					"stateMutability": "nonpayable",
					"type": "function"
				},
				{
					"inputs": [],
					"name": "name",
					"outputs": [
						{
							"internalType": "string",
							"name": "",
							"type": "string"
						}
					],
					"stateMutability": "view",
					"type": "function"
				},
				{
					"inputs": [
						{
							"internalType": "bytes32",
							"name": "role",
							"type": "bytes32"
						},
						{
							"internalType": "address",
							"name": "account",
							"type": "address"
						}
					],
					"name": "renounceRole",
					"outputs": [],
					"stateMutability": "nonpayable",
					"type": "function"
				},
				{
					"inputs": [
						{
							"internalType": "bytes32",
							"name": "role",
							"type": "bytes32"
						},
						{
							"internalType": "address",
							"name": "account",
							"type": "address"
						}
					],
					"name": "revokeRole",
					"outputs": [],
					"stateMutability": "nonpayable",
					"type": "function"
				},
				{
					"inputs": [
						{
							"internalType": "bytes4",
							"name": "interfaceId",
							"type": "bytes4"
						}
					],
					"name": "supportsInterface",
					"outputs": [
						{
							"internalType": "bool",
							"name": "",
							"type": "bool"
						}
					],
					"stateMutability": "view",
					"type": "function"
				},
				{
					"inputs": [],
					"name": "symbol",
					"outputs": [
						{
							"internalType": "string",
							"name": "",
							"type": "string"
						}
					],
					"stateMutability": "view",
					"type": "function"
				},
				{
					"inputs": [],
					"name": "totalSupply",
					"outputs": [
						{
							"internalType": "uint256",
							"name": "",
							"type": "uint256"
						}
					],
					"stateMutability": "view",
					"type": "function"
				},
				{
					"inputs": [
						{
							"internalType": "address",
							"name": "to",
							"type": "address"
						},
						{
							"internalType": "uint256",
							"name": "amount",
							"type": "uint256"
						}
					],
					"name": "transfer",
					"outputs": [
						{
							"internalType": "bool",
							"name": "",
							"type": "bool"
						}
					],
					"stateMutability": "nonpayable",
					"type": "function"
				},
				{
					"inputs": [
						{
							"internalType": "address",
							"name": "from",
							"type": "address"
						},
						{
							"internalType": "address",
							"name": "to",
							"type": "address"
						},
						{
							"internalType": "uint256",
							"name": "amount",
							"type": "uint256"
						}
					],
					"name": "transferFrom",
					"outputs": [
						{
							"internalType": "bool",
							"name": "",
							"type": "bool"
						}
					],
					"stateMutability": "nonpayable",
					"type": "function"
				},
				{
					"inputs": [
						{
							"internalType": "address",
							"name": "",
							"type": "address"
						}
					],
					"name": "unclaimed",
					"outputs": [
						{
							"internalType": "uint256",
							"name": "",
							"type": "uint256"
						}
					],
					"stateMutability": "view",
					"type": "function"
				}
			],
			"devdoc": {
				"kind": "dev",
				"methods": {
					"allowance(address,address)": {
						"details": "See {IERC20-allowance}."
					},
					"approve(address,uint256)": {
						"details": "See {IERC20-approve}. NOTE: If `amount` is the maximum `uint256`, the allowance is not updated on `transferFrom`. This is semantically equivalent to an infinite approval. Requirements: - `spender` cannot be the zero address."
					},
					"balanceOf(address)": {
						"details": "See {IERC20-balanceOf}."
					},
					"claim()": {
						"details": "Transfer unclaimed value"
					},
					"createClaimable(address,uint256)": {
						"details": "Store value in address mapped with unclaimed amounts using virtual amount (offchain value)",
						"params": {
							"_account": "account with value stored",
							"_amount": "value from offchain"
						}
					},
					"decimals()": {
						"details": "Returns the number of decimals used to get its user representation. For example, if `decimals` equals `2`, a balance of `505` tokens should be displayed to a user as `5.05` (`505 / 10 ** 2`). Tokens usually opt for a value of 18, imitating the relationship between Ether and Wei. This is the value {ERC20} uses, unless this function is overridden; NOTE: This information is only used for _display_ purposes: it in no way affects any of the arithmetic of the contract, including {IERC20-balanceOf} and {IERC20-transfer}."
					},
					"decreaseAllowance(address,uint256)": {
						"details": "Atomically decreases the allowance granted to `spender` by the caller. This is an alternative to {approve} that can be used as a mitigation for problems described in {IERC20-approve}. Emits an {Approval} event indicating the updated allowance. Requirements: - `spender` cannot be the zero address. - `spender` must have allowance for the caller of at least `subtractedValue`."
					},
					"getClaimed(address)": {
						"details": "Return value in address mapped with claimed amounts",
						"params": {
							"_account": "account with value stored"
						}
					},
					"getRoleAdmin(bytes32)": {
						"details": "Returns the admin role that controls `role`. See {grantRole} and {revokeRole}. To change a role's admin, use {_setRoleAdmin}."
					},
					"getUnclaimed(address)": {
						"details": "Return value in address mapped with unclaimed amounts",
						"params": {
							"_account": "account with value stored"
						}
					},
					"grantRole(bytes32,address)": {
						"details": "Grants `role` to `account`. If `account` had not been already granted `role`, emits a {RoleGranted} event. Requirements: - the caller must have ``role``'s admin role."
					},
					"hasRole(bytes32,address)": {
						"details": "Returns `true` if `account` has been granted `role`."
					},
					"increaseAllowance(address,uint256)": {
						"details": "Atomically increases the allowance granted to `spender` by the caller. This is an alternative to {approve} that can be used as a mitigation for problems described in {IERC20-approve}. Emits an {Approval} event indicating the updated allowance. Requirements: - `spender` cannot be the zero address."
					},
					"name()": {
						"details": "Returns the name of the token."
					},
					"renounceRole(bytes32,address)": {
						"details": "Revokes `role` from the calling account. Roles are often managed via {grantRole} and {revokeRole}: this function's purpose is to provide a mechanism for accounts to lose their privileges if they are compromised (such as when a trusted device is misplaced). If the calling account had been revoked `role`, emits a {RoleRevoked} event. Requirements: - the caller must be `account`."
					},
					"revokeRole(bytes32,address)": {
						"details": "Revokes `role` from `account`. If `account` had been granted `role`, emits a {RoleRevoked} event. Requirements: - the caller must have ``role``'s admin role."
					},
					"supportsInterface(bytes4)": {
						"details": "See {IERC165-supportsInterface}."
					},
					"symbol()": {
						"details": "Returns the symbol of the token, usually a shorter version of the name."
					},
					"totalSupply()": {
						"details": "See {IERC20-totalSupply}."
					},
					"transfer(address,uint256)": {
						"details": "See {IERC20-transfer}. Requirements: - `to` cannot be the zero address. - the caller must have a balance of at least `amount`."
					},
					"transferFrom(address,address,uint256)": {
						"details": "See {IERC20-transferFrom}. Emits an {Approval} event indicating the updated allowance. This is not required by the EIP. See the note at the beginning of {ERC20}. NOTE: Does not update the allowance if the current allowance is the maximum `uint256`. Requirements: - `from` and `to` cannot be the zero address. - `from` must have a balance of at least `amount`. - the caller must have allowance for ``from``'s tokens of at least `amount`."
					}
				},
				"version": 1
			},
			"evm": {
				"assembly": "    /* \"contracts/Token.sol\":207:1888  contract FooToken is ERC20, AccessControl, Claim {... */\n  mstore(0x40, 0x80)\n    /* \"contracts/Token.sol\":472:623  constructor() ERC20('Foo Token', 'FOO') {... */\n  callvalue\n  dup1\n  iszero\n  tag_1\n  jumpi\n  0x00\n  dup1\n  revert\ntag_1:\n  pop\n    /* \"@openzeppelin/contracts/token/ERC20/ERC20.sol\":1978:2091  constructor(string memory name_, string memory symbol_) {... */\n  mload(0x40)\n  dup1\n  0x40\n  add\n  0x40\n  mstore\n  dup1\n  0x09\n  dup2\n  mstore\n  0x20\n  add\n  0x466f6f20546f6b656e0000000000000000000000000000000000000000000000\n  dup2\n  mstore\n  pop\n  mload(0x40)\n  dup1\n  0x40\n  add\n  0x40\n  mstore\n  dup1\n  0x03\n  dup2\n  mstore\n  0x20\n  add\n  0x464f4f0000000000000000000000000000000000000000000000000000000000\n  dup2\n  mstore\n  pop\n    /* \"@openzeppelin/contracts/token/ERC20/ERC20.sol\":2052:2057  name_ */\n  dup2\n    /* \"@openzeppelin/contracts/token/ERC20/ERC20.sol\":2044:2049  _name */\n  0x03\n    /* \"@openzeppelin/contracts/token/ERC20/ERC20.sol\":2044:2057  _name = name_ */\n  swap1\n  dup1\n  mload\n  swap1\n  0x20\n  add\n  swap1\n  tag_5\n  swap3\n  swap2\n  swap1\n  tag_6\n  jump\t// in\ntag_5:\n  pop\n    /* \"@openzeppelin/contracts/token/ERC20/ERC20.sol\":2077:2084  symbol_ */\n  dup1\n    /* \"@openzeppelin/contracts/token/ERC20/ERC20.sol\":2067:2074  _symbol */\n  0x04\n    /* \"@openzeppelin/contracts/token/ERC20/ERC20.sol\":2067:2084  _symbol = symbol_ */\n  swap1\n  dup1\n  mload\n  swap1\n  0x20\n  add\n  swap1\n  tag_7\n  swap3\n  swap2\n  swap1\n  tag_6\n  jump\t// in\ntag_7:\n  pop\n    /* \"@openzeppelin/contracts/token/ERC20/ERC20.sol\":1978:2091  constructor(string memory name_, string memory symbol_) {... */\n  pop\n  pop\n    /* \"contracts/Token.sol\":522:564  _mint(address(this), 100000000 * 10 ** 18) */\n  tag_9\n    /* \"contracts/Token.sol\":536:540  this */\n  address\n    /* \"contracts/Token.sol\":543:563  100000000 * 10 ** 18 */\n  0x52b7d2dcc80cd2e4000000\n    /* \"contracts/Token.sol\":522:527  _mint */\n  shl(0x20, tag_10)\n    /* \"contracts/Token.sol\":522:564  _mint(address(this), 100000000 * 10 ** 18) */\n  0x20\n  shr\n  jump\t// in\ntag_9:\n    /* \"contracts/Token.sol\":574:616  _setupRole(DEFAULT_ADMIN_ROLE, msg.sender) */\n  tag_11\n    /* \"@openzeppelin/contracts/access/AccessControl.sol\":2072:2076  0x00 */\n  0x00\n    /* \"contracts/Token.sol\":585:603  DEFAULT_ADMIN_ROLE */\n  dup1\n  shl\n    /* \"contracts/Token.sol\":605:615  msg.sender */\n  caller\n    /* \"contracts/Token.sol\":574:584  _setupRole */\n  shl(0x20, tag_12)\n    /* \"contracts/Token.sol\":574:616  _setupRole(DEFAULT_ADMIN_ROLE, msg.sender) */\n  0x20\n  shr\n  jump\t// in\ntag_11:\n    /* \"contracts/Token.sol\":207:1888  contract FooToken is ERC20, AccessControl, Claim {... */\n  jump(tag_13)\n    /* \"@openzeppelin/contracts/token/ERC20/ERC20.sol\":8415:8804  function _mint(address account, uint256 amount) internal virtual {... */\ntag_10:\n    /* \"@openzeppelin/contracts/token/ERC20/ERC20.sol\":8517:8518  0 */\n  0x00\n    /* \"@openzeppelin/contracts/token/ERC20/ERC20.sol\":8498:8519  account != address(0) */\n  0xffffffffffffffffffffffffffffffffffffffff\n  and\n    /* \"@openzeppelin/contracts/token/ERC20/ERC20.sol\":8498:8505  account */\n  dup3\n    /* \"@openzeppelin/contracts/token/ERC20/ERC20.sol\":8498:8519  account != address(0) */\n  0xffffffffffffffffffffffffffffffffffffffff\n  and\n  eq\n  iszero\n    /* \"@openzeppelin/contracts/token/ERC20/ERC20.sol\":8490:8555  require(account != address(0), \"ERC20: mint to the zero address\") */\n  tag_15\n  jumpi\n  mload(0x40)\n  0x08c379a000000000000000000000000000000000000000000000000000000000\n  dup2\n  mstore\n  0x04\n  add\n  tag_16\n  swap1\n  tag_17\n  jump\t// in\ntag_16:\n  mload(0x40)\n  dup1\n  swap2\n  sub\n  swap1\n  revert\ntag_15:\n    /* \"@openzeppelin/contracts/token/ERC20/ERC20.sol\":8566:8615  _beforeTokenTransfer(address(0), account, amount) */\n  tag_18\n    /* \"@openzeppelin/contracts/token/ERC20/ERC20.sol\":8595:8596  0 */\n  0x00\n    /* \"@openzeppelin/contracts/token/ERC20/ERC20.sol\":8599:8606  account */\n  dup4\n    /* \"@openzeppelin/contracts/token/ERC20/ERC20.sol\":8608:8614  amount */\n  dup4\n    /* \"@openzeppelin/contracts/token/ERC20/ERC20.sol\":8566:8586  _beforeTokenTransfer */\n  shl(0x20, tag_19)\n    /* \"@openzeppelin/contracts/token/ERC20/ERC20.sol\":8566:8615  _beforeTokenTransfer(address(0), account, amount) */\n  0x20\n  shr\n  jump\t// in\ntag_18:\n    /* \"@openzeppelin/contracts/token/ERC20/ERC20.sol\":8642:8648  amount */\n  dup1\n    /* \"@openzeppelin/contracts/token/ERC20/ERC20.sol\":8626:8638  _totalSupply */\n  0x02\n  0x00\n    /* \"@openzeppelin/contracts/token/ERC20/ERC20.sol\":8626:8648  _totalSupply += amount */\n  dup3\n  dup3\n  sload\n  tag_20\n  swap2\n  swap1\n  tag_21\n  jump\t// in\ntag_20:\n  swap3\n  pop\n  pop\n  dup2\n  swap1\n  sstore\n  pop\n    /* \"@openzeppelin/contracts/token/ERC20/ERC20.sol\":8680:8686  amount */\n  dup1\n    /* \"@openzeppelin/contracts/token/ERC20/ERC20.sol\":8658:8667  _balances */\n  0x00\n    /* \"@openzeppelin/contracts/token/ERC20/ERC20.sol\":8658:8676  _balances[account] */\n  dup1\n    /* \"@openzeppelin/contracts/token/ERC20/ERC20.sol\":8668:8675  account */\n  dup5\n    /* \"@openzeppelin/contracts/token/ERC20/ERC20.sol\":8658:8676  _balances[account] */\n  0xffffffffffffffffffffffffffffffffffffffff\n  and\n  0xffffffffffffffffffffffffffffffffffffffff\n  and\n  dup2\n  mstore\n  0x20\n  add\n  swap1\n  dup2\n  mstore\n  0x20\n  add\n  0x00\n  keccak256\n  0x00\n    /* \"@openzeppelin/contracts/token/ERC20/ERC20.sol\":8658:8686  _balances[account] += amount */\n  dup3\n  dup3\n  sload\n  tag_22\n  swap2\n  swap1\n  tag_21\n  jump\t// in\ntag_22:\n  swap3\n  pop\n  pop\n  dup2\n  swap1\n  sstore\n  pop\n    /* \"@openzeppelin/contracts/token/ERC20/ERC20.sol\":8722:8729  account */\n  dup2\n    /* \"@openzeppelin/contracts/token/ERC20/ERC20.sol\":8701:8738  Transfer(address(0), account, amount) */\n  0xffffffffffffffffffffffffffffffffffffffff\n  and\n    /* \"@openzeppelin/contracts/token/ERC20/ERC20.sol\":8718:8719  0 */\n  0x00\n    /* \"@openzeppelin/contracts/token/ERC20/ERC20.sol\":8701:8738  Transfer(address(0), account, amount) */\n  0xffffffffffffffffffffffffffffffffffffffff\n  and\n  0xddf252ad1be2c89b69c2b068fc378daa952ba7f163c4a11628f55a4df523b3ef\n    /* \"@openzeppelin/contracts/token/ERC20/ERC20.sol\":8731:8737  amount */\n  dup4\n    /* \"@openzeppelin/contracts/token/ERC20/ERC20.sol\":8701:8738  Transfer(address(0), account, amount) */\n  mload(0x40)\n  tag_23\n  swap2\n  swap1\n  tag_24\n  jump\t// in\ntag_23:\n  mload(0x40)\n  dup1\n  swap2\n  sub\n  swap1\n  log3\n    /* \"@openzeppelin/contracts/token/ERC20/ERC20.sol\":8749:8797  _afterTokenTransfer(address(0), account, amount) */\n  tag_25\n    /* \"@openzeppelin/contracts/token/ERC20/ERC20.sol\":8777:8778  0 */\n  0x00\n    /* \"@openzeppelin/contracts/token/ERC20/ERC20.sol\":8781:8788  account */\n  dup4\n    /* \"@openzeppelin/contracts/token/ERC20/ERC20.sol\":8790:8796  amount */\n  dup4\n    /* \"@openzeppelin/contracts/token/ERC20/ERC20.sol\":8749:8768  _afterTokenTransfer */\n  shl(0x20, tag_26)\n    /* \"@openzeppelin/contracts/token/ERC20/ERC20.sol\":8749:8797  _afterTokenTransfer(address(0), account, amount) */\n  0x20\n  shr\n  jump\t// in\ntag_25:\n    /* \"@openzeppelin/contracts/token/ERC20/ERC20.sol\":8415:8804  function _mint(address account, uint256 amount) internal virtual {... */\n  pop\n  pop\n  jump\t// out\n    /* \"@openzeppelin/contracts/access/AccessControl.sol\":6257:6367  function _setupRole(bytes32 role, address account) internal virtual {... */\ntag_12:\n    /* \"@openzeppelin/contracts/access/AccessControl.sol\":6335:6360  _grantRole(role, account) */\n  tag_28\n    /* \"@openzeppelin/contracts/access/AccessControl.sol\":6346:6350  role */\n  dup3\n    /* \"@openzeppelin/contracts/access/AccessControl.sol\":6352:6359  account */\n  dup3\n    /* \"@openzeppelin/contracts/access/AccessControl.sol\":6335:6345  _grantRole */\n  shl(0x20, tag_29)\n    /* \"@openzeppelin/contracts/access/AccessControl.sol\":6335:6360  _grantRole(role, account) */\n  0x20\n  shr\n  jump\t// in\ntag_28:\n    /* \"@openzeppelin/contracts/access/AccessControl.sol\":6257:6367  function _setupRole(bytes32 role, address account) internal virtual {... */\n  pop\n  pop\n  jump\t// out\n    /* \"@openzeppelin/contracts/token/ERC20/ERC20.sol\":11795:11916  function _beforeTokenTransfer(... */\ntag_19:\n  pop\n  pop\n  pop\n  jump\t// out\n    /* \"@openzeppelin/contracts/token/ERC20/ERC20.sol\":12504:12624  function _afterTokenTransfer(... */\ntag_26:\n  pop\n  pop\n  pop\n  jump\t// out\n    /* \"@openzeppelin/contracts/access/AccessControl.sol\":6861:7094  function _grantRole(bytes32 role, address account) internal virtual {... */\ntag_29:\n    /* \"@openzeppelin/contracts/access/AccessControl.sol\":6944:6966  hasRole(role, account) */\n  tag_33\n    /* \"@openzeppelin/contracts/access/AccessControl.sol\":6952:6956  role */\n  dup3\n    /* \"@openzeppelin/contracts/access/AccessControl.sol\":6958:6965  account */\n  dup3\n    /* \"@openzeppelin/contracts/access/AccessControl.sol\":6944:6951  hasRole */\n  shl(0x20, tag_34)\n    /* \"@openzeppelin/contracts/access/AccessControl.sol\":6944:6966  hasRole(role, account) */\n  0x20\n  shr\n  jump\t// in\ntag_33:\n    /* \"@openzeppelin/contracts/access/AccessControl.sol\":6939:7088  if (!hasRole(role, account)) {... */\n  tag_35\n  jumpi\n    /* \"@openzeppelin/contracts/access/AccessControl.sol\":7014:7018  true */\n  0x01\n    /* \"@openzeppelin/contracts/access/AccessControl.sol\":6982:6988  _roles */\n  0x05\n    /* \"@openzeppelin/contracts/access/AccessControl.sol\":6982:6994  _roles[role] */\n  0x00\n    /* \"@openzeppelin/contracts/access/AccessControl.sol\":6989:6993  role */\n  dup5\n    /* \"@openzeppelin/contracts/access/AccessControl.sol\":6982:6994  _roles[role] */\n  dup2\n  mstore\n  0x20\n  add\n  swap1\n  dup2\n  mstore\n  0x20\n  add\n  0x00\n  keccak256\n    /* \"@openzeppelin/contracts/access/AccessControl.sol\":6982:7002  _roles[role].members */\n  0x00\n  add\n    /* \"@openzeppelin/contracts/access/AccessControl.sol\":6982:7011  _roles[role].members[account] */\n  0x00\n    /* \"@openzeppelin/contracts/access/AccessControl.sol\":7003:7010  account */\n  dup4\n    /* \"@openzeppelin/contracts/access/AccessControl.sol\":6982:7011  _roles[role].members[account] */\n  0xffffffffffffffffffffffffffffffffffffffff\n  and\n  0xffffffffffffffffffffffffffffffffffffffff\n  and\n  dup2\n  mstore\n  0x20\n  add\n  swap1\n  dup2\n  mstore\n  0x20\n  add\n  0x00\n  keccak256\n  0x00\n    /* \"@openzeppelin/contracts/access/AccessControl.sol\":6982:7018  _roles[role].members[account] = true */\n  0x0100\n  exp\n  dup2\n  sload\n  dup2\n  0xff\n  mul\n  not\n  and\n  swap1\n  dup4\n  iszero\n  iszero\n  mul\n  or\n  swap1\n  sstore\n  pop\n    /* \"@openzeppelin/contracts/access/AccessControl.sol\":7064:7076  _msgSender() */\n  tag_36\n    /* \"@openzeppelin/contracts/access/AccessControl.sol\":7064:7074  _msgSender */\n  shl(0x20, tag_37)\n    /* \"@openzeppelin/contracts/access/AccessControl.sol\":7064:7076  _msgSender() */\n  0x20\n  shr\n  jump\t// in\ntag_36:\n    /* \"@openzeppelin/contracts/access/AccessControl.sol\":7037:7077  RoleGranted(role, account, _msgSender()) */\n  0xffffffffffffffffffffffffffffffffffffffff\n  and\n    /* \"@openzeppelin/contracts/access/AccessControl.sol\":7055:7062  account */\n  dup2\n    /* \"@openzeppelin/contracts/access/AccessControl.sol\":7037:7077  RoleGranted(role, account, _msgSender()) */\n  0xffffffffffffffffffffffffffffffffffffffff\n  and\n    /* \"@openzeppelin/contracts/access/AccessControl.sol\":7049:7053  role */\n  dup4\n    /* \"@openzeppelin/contracts/access/AccessControl.sol\":7037:7077  RoleGranted(role, account, _msgSender()) */\n  0x2f8788117e7eff1d82e926ec794901d17c78024a50270940304540a733656f0d\n  mload(0x40)\n  mload(0x40)\n  dup1\n  swap2\n  sub\n  swap1\n  log4\n    /* \"@openzeppelin/contracts/access/AccessControl.sol\":6939:7088  if (!hasRole(role, account)) {... */\ntag_35:\n    /* \"@openzeppelin/contracts/access/AccessControl.sol\":6861:7094  function _grantRole(bytes32 role, address account) internal virtual {... */\n  pop\n  pop\n  jump\t// out\n    /* \"@openzeppelin/contracts/access/AccessControl.sol\":2909:3054  function hasRole(bytes32 role, address account) public view virtual override returns (bool) {... */\ntag_34:\n    /* \"@openzeppelin/contracts/access/AccessControl.sol\":2995:2999  bool */\n  0x00\n    /* \"@openzeppelin/contracts/access/AccessControl.sol\":3018:3024  _roles */\n  0x05\n    /* \"@openzeppelin/contracts/access/AccessControl.sol\":3018:3030  _roles[role] */\n  0x00\n    /* \"@openzeppelin/contracts/access/AccessControl.sol\":3025:3029  role */\n  dup5\n    /* \"@openzeppelin/contracts/access/AccessControl.sol\":3018:3030  _roles[role] */\n  dup2\n  mstore\n  0x20\n  add\n  swap1\n  dup2\n  mstore\n  0x20\n  add\n  0x00\n  keccak256\n    /* \"@openzeppelin/contracts/access/AccessControl.sol\":3018:3038  _roles[role].members */\n  0x00\n  add\n    /* \"@openzeppelin/contracts/access/AccessControl.sol\":3018:3047  _roles[role].members[account] */\n  0x00\n    /* \"@openzeppelin/contracts/access/AccessControl.sol\":3039:3046  account */\n  dup4\n    /* \"@openzeppelin/contracts/access/AccessControl.sol\":3018:3047  _roles[role].members[account] */\n  0xffffffffffffffffffffffffffffffffffffffff\n  and\n  0xffffffffffffffffffffffffffffffffffffffff\n  and\n  dup2\n  mstore\n  0x20\n  add\n  swap1\n  dup2\n  mstore\n  0x20\n  add\n  0x00\n  keccak256\n  0x00\n  swap1\n  sload\n  swap1\n  0x0100\n  exp\n  swap1\n  div\n  0xff\n  and\n    /* \"@openzeppelin/contracts/access/AccessControl.sol\":3011:3047  return _roles[role].members[account] */\n  swap1\n  pop\n    /* \"@openzeppelin/contracts/access/AccessControl.sol\":2909:3054  function hasRole(bytes32 role, address account) public view virtual override returns (bool) {... */\n  swap3\n  swap2\n  pop\n  pop\n  jump\t// out\n    /* \"@openzeppelin/contracts/utils/Context.sol\":640:736  function _msgSender() internal view virtual returns (address) {... */\ntag_37:\n    /* \"@openzeppelin/contracts/utils/Context.sol\":693:700  address */\n  0x00\n    /* \"@openzeppelin/contracts/utils/Context.sol\":719:729  msg.sender */\n  caller\n    /* \"@openzeppelin/contracts/utils/Context.sol\":712:729  return msg.sender */\n  swap1\n  pop\n    /* \"@openzeppelin/contracts/utils/Context.sol\":640:736  function _msgSender() internal view virtual returns (address) {... */\n  swap1\n  jump\t// out\n    /* \"contracts/Token.sol\":207:1888  contract FooToken is ERC20, AccessControl, Claim {... */\ntag_6:\n  dup3\n  dup1\n  sload\n  tag_40\n  swap1\n  tag_41\n  jump\t// in\ntag_40:\n  swap1\n  0x00\n  mstore\n  keccak256(0x00, 0x20)\n  swap1\n  0x1f\n  add\n  0x20\n  swap1\n  div\n  dup2\n  add\n  swap3\n  dup3\n  tag_43\n  jumpi\n  0x00\n  dup6\n  sstore\n  jump(tag_42)\ntag_43:\n  dup3\n  0x1f\n  lt\n  tag_44\n  jumpi\n  dup1\n  mload\n  not(0xff)\n  and\n  dup4\n  dup1\n  add\n  or\n  dup6\n  sstore\n  jump(tag_42)\ntag_44:\n  dup3\n  dup1\n  add\n  0x01\n  add\n  dup6\n  sstore\n  dup3\n  iszero\n  tag_42\n  jumpi\n  swap2\n  dup3\n  add\ntag_45:\n  dup3\n  dup2\n  gt\n  iszero\n  tag_46\n  jumpi\n  dup3\n  mload\n  dup3\n  sstore\n  swap2\n  0x20\n  add\n  swap2\n  swap1\n  0x01\n  add\n  swap1\n  jump(tag_45)\ntag_46:\ntag_42:\n  pop\n  swap1\n  pop\n  tag_47\n  swap2\n  swap1\n  tag_48\n  jump\t// in\ntag_47:\n  pop\n  swap1\n  jump\t// out\ntag_48:\ntag_49:\n  dup1\n  dup3\n  gt\n  iszero\n  tag_50\n  jumpi\n  0x00\n  dup2\n  0x00\n  swap1\n  sstore\n  pop\n  0x01\n  add\n  jump(tag_49)\ntag_50:\n  pop\n  swap1\n  jump\t// out\n    /* \"#utility.yul\":7:373   */\ntag_52:\n    /* \"#utility.yul\":149:152   */\n  0x00\n    /* \"#utility.yul\":170:237   */\n  tag_54\n    /* \"#utility.yul\":234:236   */\n  0x1f\n    /* \"#utility.yul\":229:232   */\n  dup4\n    /* \"#utility.yul\":170:237   */\n  tag_55\n  jump\t// in\ntag_54:\n    /* \"#utility.yul\":163:237   */\n  swap2\n  pop\n    /* \"#utility.yul\":246:339   */\n  tag_56\n    /* \"#utility.yul\":335:338   */\n  dup3\n    /* \"#utility.yul\":246:339   */\n  tag_57\n  jump\t// in\ntag_56:\n    /* \"#utility.yul\":364:366   */\n  0x20\n    /* \"#utility.yul\":359:362   */\n  dup3\n    /* \"#utility.yul\":355:367   */\n  add\n    /* \"#utility.yul\":348:367   */\n  swap1\n  pop\n    /* \"#utility.yul\":7:373   */\n  swap2\n  swap1\n  pop\n  jump\t// out\n    /* \"#utility.yul\":379:497   */\ntag_58:\n    /* \"#utility.yul\":466:490   */\n  tag_60\n    /* \"#utility.yul\":484:489   */\n  dup2\n    /* \"#utility.yul\":466:490   */\n  tag_61\n  jump\t// in\ntag_60:\n    /* \"#utility.yul\":461:464   */\n  dup3\n    /* \"#utility.yul\":454:491   */\n  mstore\n    /* \"#utility.yul\":379:497   */\n  pop\n  pop\n  jump\t// out\n    /* \"#utility.yul\":503:922   */\ntag_17:\n    /* \"#utility.yul\":669:673   */\n  0x00\n    /* \"#utility.yul\":707:709   */\n  0x20\n    /* \"#utility.yul\":696:705   */\n  dup3\n    /* \"#utility.yul\":692:710   */\n  add\n    /* \"#utility.yul\":684:710   */\n  swap1\n  pop\n    /* \"#utility.yul\":756:765   */\n  dup2\n    /* \"#utility.yul\":750:754   */\n  dup2\n    /* \"#utility.yul\":746:766   */\n  sub\n    /* \"#utility.yul\":742:743   */\n  0x00\n    /* \"#utility.yul\":731:740   */\n  dup4\n    /* \"#utility.yul\":727:744   */\n  add\n    /* \"#utility.yul\":720:767   */\n  mstore\n    /* \"#utility.yul\":784:915   */\n  tag_63\n    /* \"#utility.yul\":910:914   */\n  dup2\n    /* \"#utility.yul\":784:915   */\n  tag_52\n  jump\t// in\ntag_63:\n    /* \"#utility.yul\":776:915   */\n  swap1\n  pop\n    /* \"#utility.yul\":503:922   */\n  swap2\n  swap1\n  pop\n  jump\t// out\n    /* \"#utility.yul\":928:1150   */\ntag_24:\n    /* \"#utility.yul\":1021:1025   */\n  0x00\n    /* \"#utility.yul\":1059:1061   */\n  0x20\n    /* \"#utility.yul\":1048:1057   */\n  dup3\n    /* \"#utility.yul\":1044:1062   */\n  add\n    /* \"#utility.yul\":1036:1062   */\n  swap1\n  pop\n    /* \"#utility.yul\":1072:1143   */\n  tag_65\n    /* \"#utility.yul\":1140:1141   */\n  0x00\n    /* \"#utility.yul\":1129:1138   */\n  dup4\n    /* \"#utility.yul\":1125:1142   */\n  add\n    /* \"#utility.yul\":1116:1122   */\n  dup5\n    /* \"#utility.yul\":1072:1143   */\n  tag_58\n  jump\t// in\ntag_65:\n    /* \"#utility.yul\":928:1150   */\n  swap3\n  swap2\n  pop\n  pop\n  jump\t// out\n    /* \"#utility.yul\":1156:1325   */\ntag_55:\n    /* \"#utility.yul\":1240:1251   */\n  0x00\n    /* \"#utility.yul\":1274:1280   */\n  dup3\n    /* \"#utility.yul\":1269:1272   */\n  dup3\n    /* \"#utility.yul\":1262:1281   */\n  mstore\n    /* \"#utility.yul\":1314:1318   */\n  0x20\n    /* \"#utility.yul\":1309:1312   */\n  dup3\n    /* \"#utility.yul\":1305:1319   */\n  add\n    /* \"#utility.yul\":1290:1319   */\n  swap1\n  pop\n    /* \"#utility.yul\":1156:1325   */\n  swap3\n  swap2\n  pop\n  pop\n  jump\t// out\n    /* \"#utility.yul\":1331:1636   */\ntag_21:\n    /* \"#utility.yul\":1371:1374   */\n  0x00\n    /* \"#utility.yul\":1390:1410   */\n  tag_68\n    /* \"#utility.yul\":1408:1409   */\n  dup3\n    /* \"#utility.yul\":1390:1410   */\n  tag_61\n  jump\t// in\ntag_68:\n    /* \"#utility.yul\":1385:1410   */\n  swap2\n  pop\n    /* \"#utility.yul\":1424:1444   */\n  tag_69\n    /* \"#utility.yul\":1442:1443   */\n  dup4\n    /* \"#utility.yul\":1424:1444   */\n  tag_61\n  jump\t// in\ntag_69:\n    /* \"#utility.yul\":1419:1444   */\n  swap3\n  pop\n    /* \"#utility.yul\":1578:1579   */\n  dup3\n    /* \"#utility.yul\":1510:1576   */\n  0xffffffffffffffffffffffffffffffffffffffffffffffffffffffffffffffff\n    /* \"#utility.yul\":1506:1580   */\n  sub\n    /* \"#utility.yul\":1503:1504   */\n  dup3\n    /* \"#utility.yul\":1500:1581   */\n  gt\n    /* \"#utility.yul\":1497:1604   */\n  iszero\n  tag_70\n  jumpi\n    /* \"#utility.yul\":1584:1602   */\n  tag_71\n  tag_72\n  jump\t// in\ntag_71:\n    /* \"#utility.yul\":1497:1604   */\ntag_70:\n    /* \"#utility.yul\":1628:1629   */\n  dup3\n    /* \"#utility.yul\":1625:1626   */\n  dup3\n    /* \"#utility.yul\":1621:1630   */\n  add\n    /* \"#utility.yul\":1614:1630   */\n  swap1\n  pop\n    /* \"#utility.yul\":1331:1636   */\n  swap3\n  swap2\n  pop\n  pop\n  jump\t// out\n    /* \"#utility.yul\":1642:1719   */\ntag_61:\n    /* \"#utility.yul\":1679:1686   */\n  0x00\n    /* \"#utility.yul\":1708:1713   */\n  dup2\n    /* \"#utility.yul\":1697:1713   */\n  swap1\n  pop\n    /* \"#utility.yul\":1642:1719   */\n  swap2\n  swap1\n  pop\n  jump\t// out\n    /* \"#utility.yul\":1725:2045   */\ntag_41:\n    /* \"#utility.yul\":1769:1775   */\n  0x00\n    /* \"#utility.yul\":1806:1807   */\n  0x02\n    /* \"#utility.yul\":1800:1804   */\n  dup3\n    /* \"#utility.yul\":1796:1808   */\n  div\n    /* \"#utility.yul\":1786:1808   */\n  swap1\n  pop\n    /* \"#utility.yul\":1853:1854   */\n  0x01\n    /* \"#utility.yul\":1847:1851   */\n  dup3\n    /* \"#utility.yul\":1843:1855   */\n  and\n    /* \"#utility.yul\":1874:1892   */\n  dup1\n    /* \"#utility.yul\":1864:1945   */\n  tag_75\n  jumpi\n    /* \"#utility.yul\":1930:1934   */\n  0x7f\n    /* \"#utility.yul\":1922:1928   */\n  dup3\n    /* \"#utility.yul\":1918:1935   */\n  and\n    /* \"#utility.yul\":1908:1935   */\n  swap2\n  pop\n    /* \"#utility.yul\":1864:1945   */\ntag_75:\n    /* \"#utility.yul\":1992:1994   */\n  0x20\n    /* \"#utility.yul\":1984:1990   */\n  dup3\n    /* \"#utility.yul\":1981:1995   */\n  lt\n    /* \"#utility.yul\":1961:1979   */\n  dup2\n    /* \"#utility.yul\":1958:1996   */\n  eq\n    /* \"#utility.yul\":1955:2039   */\n  iszero\n  tag_76\n  jumpi\n    /* \"#utility.yul\":2011:2029   */\n  tag_77\n  tag_78\n  jump\t// in\ntag_77:\n    /* \"#utility.yul\":1955:2039   */\ntag_76:\n    /* \"#utility.yul\":1776:2045   */\n  pop\n    /* \"#utility.yul\":1725:2045   */\n  swap2\n  swap1\n  pop\n  jump\t// out\n    /* \"#utility.yul\":2051:2231   */\ntag_72:\n    /* \"#utility.yul\":2099:2176   */\n  0x4e487b7100000000000000000000000000000000000000000000000000000000\n    /* \"#utility.yul\":2096:2097   */\n  0x00\n    /* \"#utility.yul\":2089:2177   */\n  mstore\n    /* \"#utility.yul\":2196:2200   */\n  0x11\n    /* \"#utility.yul\":2193:2194   */\n  0x04\n    /* \"#utility.yul\":2186:2201   */\n  mstore\n    /* \"#utility.yul\":2220:2224   */\n  0x24\n    /* \"#utility.yul\":2217:2218   */\n  0x00\n    /* \"#utility.yul\":2210:2225   */\n  revert\n    /* \"#utility.yul\":2237:2417   */\ntag_78:\n    /* \"#utility.yul\":2285:2362   */\n  0x4e487b7100000000000000000000000000000000000000000000000000000000\n    /* \"#utility.yul\":2282:2283   */\n  0x00\n    /* \"#utility.yul\":2275:2363   */\n  mstore\n    /* \"#utility.yul\":2382:2386   */\n  0x22\n    /* \"#utility.yul\":2379:2380   */\n  0x04\n    /* \"#utility.yul\":2372:2387   */\n  mstore\n    /* \"#utility.yul\":2406:2410   */\n  0x24\n    /* \"#utility.yul\":2403:2404   */\n  0x00\n    /* \"#utility.yul\":2396:2411   */\n  revert\n    /* \"#utility.yul\":2423:2604   */\ntag_57:\n    /* \"#utility.yul\":2563:2596   */\n  0x45524332303a206d696e7420746f20746865207a65726f206164647265737300\n    /* \"#utility.yul\":2559:2560   */\n  0x00\n    /* \"#utility.yul\":2551:2557   */\n  dup3\n    /* \"#utility.yul\":2547:2561   */\n  add\n    /* \"#utility.yul\":2540:2597   */\n  mstore\n    /* \"#utility.yul\":2423:2604   */\n  pop\n  jump\t// out\n    /* \"contracts/Token.sol\":207:1888  contract FooToken is ERC20, AccessControl, Claim {... */\ntag_13:\n  dataSize(sub_0)\n  dup1\n  dataOffset(sub_0)\n  0x00\n  codecopy\n  0x00\n  return\nstop\n\nsub_0: assembly {\n        /* \"contracts/Token.sol\":207:1888  contract FooToken is ERC20, AccessControl, Claim {... */\n      mstore(0x40, 0x80)\n      jumpi(tag_1, lt(calldatasize, 0x04))\n      shr(0xe0, calldataload(0x00))\n      dup1\n      0x505bd3da\n      gt\n      tag_31\n      jumpi\n      dup1\n      0xa217fddf\n      gt\n      tag_32\n      jumpi\n      dup1\n      0xd5391393\n      gt\n      tag_33\n      jumpi\n      dup1\n      0xd5391393\n      eq\n      tag_27\n      jumpi\n      dup1\n      0xd547741f\n      eq\n      tag_28\n      jumpi\n      dup1\n      0xdd62ed3e\n      eq\n      tag_29\n      jumpi\n      dup1\n      0xeb46260e\n      eq\n      tag_30\n      jumpi\n      jump(tag_1)\n    tag_33:\n      dup1\n      0xa217fddf\n      eq\n      tag_23\n      jumpi\n      dup1\n      0xa457c2d7\n      eq\n      tag_24\n      jumpi\n      dup1\n      0xa9059cbb\n      eq\n      tag_25\n      jumpi\n      dup1\n      0xc884ef83\n      eq\n      tag_26\n      jumpi\n      jump(tag_1)\n    tag_32:\n      dup1\n      0x8a9db765\n      gt\n      tag_34\n      jumpi\n      dup1\n      0x8a9db765\n      eq\n      tag_19\n      jumpi\n      dup1\n      0x91d14854\n      eq\n      tag_20\n      jumpi\n      dup1\n      0x95d89b41\n      eq\n      tag_21\n      jumpi\n      dup1\n      0x9dc29fac\n      eq\n      tag_22\n      jumpi\n      jump(tag_1)\n    tag_34:\n      dup1\n      0x505bd3da\n      eq\n      tag_16\n      jumpi\n      dup1\n      0x70a08231\n      eq\n      tag_17\n      jumpi\n      dup1\n      0x8580cf76\n      eq\n      tag_18\n      jumpi\n      jump(tag_1)\n    tag_31:\n      dup1\n      0x2f2ff15d\n      gt\n      tag_35\n      jumpi\n      dup1\n      0x39509351\n      gt\n      tag_36\n      jumpi\n      dup1\n      0x39509351\n      eq\n      tag_12\n      jumpi\n      dup1\n      0x3ab1ced1\n      eq\n      tag_13\n      jumpi\n      dup1\n      0x40c10f19\n      eq\n      tag_14\n      jumpi\n      dup1\n      0x4e71d92d\n      eq\n      tag_15\n      jumpi\n      jump(tag_1)\n    tag_36:\n      dup1\n      0x2f2ff15d\n      eq\n      tag_9\n      jumpi\n      dup1\n      0x313ce567\n      eq\n      tag_10\n      jumpi\n      dup1\n      0x36568abe\n      eq\n      tag_11\n      jumpi\n      jump(tag_1)\n    tag_35:\n      dup1\n      0x18160ddd\n      gt\n      tag_37\n      jumpi\n      dup1\n      0x18160ddd\n      eq\n      tag_5\n      jumpi\n      dup1\n      0x23b872dd\n      eq\n      tag_6\n      jumpi\n      dup1\n      0x248a9ca3\n      eq\n      tag_7\n      jumpi\n      dup1\n      0x282c51f3\n      eq\n      tag_8\n      jumpi\n      jump(tag_1)\n    tag_37:\n      dup1\n      0x01ffc9a7\n      eq\n      tag_2\n      jumpi\n      dup1\n      0x06fdde03\n      eq\n      tag_3\n      jumpi\n      dup1\n      0x095ea7b3\n      eq\n      tag_4\n      jumpi\n    tag_1:\n      0x00\n      dup1\n      revert\n        /* \"@openzeppelin/contracts/access/AccessControl.sol\":2620:2822  function supportsInterface(bytes4 interfaceId) public view virtual override returns (bool) {... */\n    tag_2:\n      callvalue\n      dup1\n      iszero\n      tag_38\n      jumpi\n      0x00\n      dup1\n      revert\n    tag_38:\n      pop\n      tag_39\n      0x04\n      dup1\n      calldatasize\n      sub\n      dup2\n      add\n      swap1\n      tag_40\n      swap2\n      swap1\n      tag_41\n      jump\t// in\n    tag_40:\n      tag_42\n      jump\t// in\n    tag_39:\n      mload(0x40)\n      tag_43\n      swap2\n      swap1\n      tag_44\n      jump\t// in\n    tag_43:\n      mload(0x40)\n      dup1\n      swap2\n      sub\n      swap1\n      return\n        /* \"@openzeppelin/contracts/token/ERC20/ERC20.sol\":2156:2254  function name() public view virtual override returns (string memory) {... */\n    tag_3:\n      callvalue\n      dup1\n      iszero\n      tag_45\n      jumpi\n      0x00\n      dup1\n      revert\n    tag_45:\n      pop\n      tag_46\n      tag_47\n      jump\t// in\n    tag_46:\n      mload(0x40)\n      tag_48\n      swap2\n      swap1\n      tag_49\n      jump\t// in\n    tag_48:\n      mload(0x40)\n      dup1\n      swap2\n      sub\n      swap1\n      return\n        /* \"@openzeppelin/contracts/token/ERC20/ERC20.sol\":4433:4630  function approve(address spender, uint256 amount) public virtual override returns (bool) {... */\n    tag_4:\n      callvalue\n      dup1\n      iszero\n      tag_50\n      jumpi\n      0x00\n      dup1\n      revert\n    tag_50:\n      pop\n      tag_51\n      0x04\n      dup1\n      calldatasize\n      sub\n      dup2\n      add\n      swap1\n      tag_52\n      swap2\n      swap1\n      tag_53\n      jump\t// in\n    tag_52:\n      tag_54\n      jump\t// in\n    tag_51:\n      mload(0x40)\n      tag_55\n      swap2\n      swap1\n      tag_44\n      jump\t// in\n    tag_55:\n      mload(0x40)\n      dup1\n      swap2\n      sub\n      swap1\n      return\n        /* \"@openzeppelin/contracts/token/ERC20/ERC20.sol\":3244:3350  function totalSupply() public view virtual override returns (uint256) {... */\n    tag_5:\n      callvalue\n      dup1\n      iszero\n      tag_56\n      jumpi\n      0x00\n      dup1\n      revert\n    tag_56:\n      pop\n      tag_57\n      tag_58\n      jump\t// in\n    tag_57:\n      mload(0x40)\n      tag_59\n      swap2\n      swap1\n      tag_60\n      jump\t// in\n    tag_59:\n      mload(0x40)\n      dup1\n      swap2\n      sub\n      swap1\n      return\n        /* \"@openzeppelin/contracts/token/ERC20/ERC20.sol\":5192:5478  function transferFrom(... */\n    tag_6:\n      callvalue\n      dup1\n      iszero\n      tag_61\n      jumpi\n      0x00\n      dup1\n      revert\n    tag_61:\n      pop\n      tag_62\n      0x04\n      dup1\n      calldatasize\n      sub\n      dup2\n      add\n      swap1\n      tag_63\n      swap2\n      swap1\n      tag_64\n      jump\t// in\n    tag_63:\n      tag_65\n      jump\t// in\n    tag_62:\n      mload(0x40)\n      tag_66\n      swap2\n      swap1\n      tag_44\n      jump\t// in\n    tag_66:\n      mload(0x40)\n      dup1\n      swap2\n      sub\n      swap1\n      return\n        /* \"@openzeppelin/contracts/access/AccessControl.sol\":4008:4137  function getRoleAdmin(bytes32 role) public view virtual override returns (bytes32) {... */\n    tag_7:\n      callvalue\n      dup1\n      iszero\n      tag_67\n      jumpi\n      0x00\n      dup1\n      revert\n    tag_67:\n      pop\n      tag_68\n      0x04\n      dup1\n      calldatasize\n      sub\n      dup2\n      add\n      swap1\n      tag_69\n      swap2\n      swap1\n      tag_70\n      jump\t// in\n    tag_69:\n      tag_71\n      jump\t// in\n    tag_68:\n      mload(0x40)\n      tag_72\n      swap2\n      swap1\n      tag_73\n      jump\t// in\n    tag_72:\n      mload(0x40)\n      dup1\n      swap2\n      sub\n      swap1\n      return\n        /* \"contracts/Token.sol\":331:393  bytes32 public constant BURNER_ROLE = keccak256(\"BURNER_ROLE\") */\n    tag_8:\n      callvalue\n      dup1\n      iszero\n      tag_74\n      jumpi\n      0x00\n      dup1\n      revert\n    tag_74:\n      pop\n      tag_75\n      tag_76\n      jump\t// in\n    tag_75:\n      mload(0x40)\n      tag_77\n      swap2\n      swap1\n      tag_73\n      jump\t// in\n    tag_77:\n      mload(0x40)\n      dup1\n      swap2\n      sub\n      swap1\n      return\n        /* \"@openzeppelin/contracts/access/AccessControl.sol\":4387:4532  function grantRole(bytes32 role, address account) public virtual override onlyRole(getRoleAdmin(role)) {... */\n    tag_9:\n      callvalue\n      dup1\n      iszero\n      tag_78\n      jumpi\n      0x00\n      dup1\n      revert\n    tag_78:\n      pop\n      tag_79\n      0x04\n      dup1\n      calldatasize\n      sub\n      dup2\n      add\n      swap1\n      tag_80\n      swap2\n      swap1\n      tag_81\n      jump\t// in\n    tag_80:\n      tag_82\n      jump\t// in\n    tag_79:\n      stop\n        /* \"@openzeppelin/contracts/token/ERC20/ERC20.sol\":3093:3184  function decimals() public view virtual override returns (uint8) {... */\n    tag_10:\n      callvalue\n      dup1\n      iszero\n      tag_83\n      jumpi\n      0x00\n      dup1\n      revert\n    tag_83:\n      pop\n      tag_84\n      tag_85\n      jump\t// in\n    tag_84:\n      mload(0x40)\n      tag_86\n      swap2\n      swap1\n      tag_87\n      jump\t// in\n    tag_86:\n      mload(0x40)\n      dup1\n      swap2\n      sub\n      swap1\n      return\n        /* \"@openzeppelin/contracts/access/AccessControl.sol\":5404:5618  function renounceRole(bytes32 role, address account) public virtual override {... */\n    tag_11:\n      callvalue\n      dup1\n      iszero\n      tag_88\n      jumpi\n      0x00\n      dup1\n      revert\n    tag_88:\n      pop\n      tag_89\n      0x04\n      dup1\n      calldatasize\n      sub\n      dup2\n      add\n      swap1\n      tag_90\n      swap2\n      swap1\n      tag_81\n      jump\t// in\n    tag_90:\n      tag_91\n      jump\t// in\n    tag_89:\n      stop\n        /* \"@openzeppelin/contracts/token/ERC20/ERC20.sol\":5873:6109  function increaseAllowance(address spender, uint256 addedValue) public virtual returns (bool) {... */\n    tag_12:\n      callvalue\n      dup1\n      iszero\n      tag_92\n      jumpi\n      0x00\n      dup1\n      revert\n    tag_92:\n      pop\n      tag_93\n      0x04\n      dup1\n      calldatasize\n      sub\n      dup2\n      add\n      swap1\n      tag_94\n      swap2\n      swap1\n      tag_53\n      jump\t// in\n    tag_94:\n      tag_95\n      jump\t// in\n    tag_93:\n      mload(0x40)\n      tag_96\n      swap2\n      swap1\n      tag_44\n      jump\t// in\n    tag_96:\n      mload(0x40)\n      dup1\n      swap2\n      sub\n      swap1\n      return\n        /* \"contracts/Claim.sol\":673:786  function getUnclaimed(address _account) public view returns (uint256) {... */\n    tag_13:\n      callvalue\n      dup1\n      iszero\n      tag_97\n      jumpi\n      0x00\n      dup1\n      revert\n    tag_97:\n      pop\n      tag_98\n      0x04\n      dup1\n      calldatasize\n      sub\n      dup2\n      add\n      swap1\n      tag_99\n      swap2\n      swap1\n      tag_100\n      jump\t// in\n    tag_99:\n      tag_101\n      jump\t// in\n    tag_98:\n      mload(0x40)\n      tag_102\n      swap2\n      swap1\n      tag_60\n      jump\t// in\n    tag_102:\n      mload(0x40)\n      dup1\n      swap2\n      sub\n      swap1\n      return\n        /* \"contracts/Token.sol\":629:786  function mint(address to, uint amount) public {... */\n    tag_14:\n      callvalue\n      dup1\n      iszero\n      tag_103\n      jumpi\n      0x00\n      dup1\n      revert\n    tag_103:\n      pop\n      tag_104\n      0x04\n      dup1\n      calldatasize\n      sub\n      dup2\n      add\n      swap1\n      tag_105\n      swap2\n      swap1\n      tag_53\n      jump\t// in\n    tag_105:\n      tag_106\n      jump\t// in\n    tag_104:\n      stop\n        /* \"contracts/Token.sol\":1582:1886  function claim() public payable {... */\n    tag_15:\n      tag_107\n      tag_108\n      jump\t// in\n    tag_107:\n      stop\n        /* \"contracts/Claim.sol\":163:204  mapping(address => uint) public unclaimed */\n    tag_16:\n      callvalue\n      dup1\n      iszero\n      tag_109\n      jumpi\n      0x00\n      dup1\n      revert\n    tag_109:\n      pop\n      tag_110\n      0x04\n      dup1\n      calldatasize\n      sub\n      dup2\n      add\n      swap1\n      tag_111\n      swap2\n      swap1\n      tag_100\n      jump\t// in\n    tag_111:\n      tag_112\n      jump\t// in\n    tag_110:\n      mload(0x40)\n      tag_113\n      swap2\n      swap1\n      tag_60\n      jump\t// in\n    tag_113:\n      mload(0x40)\n      dup1\n      swap2\n      sub\n      swap1\n      return\n        /* \"@openzeppelin/contracts/token/ERC20/ERC20.sol\":3408:3533  function balanceOf(address account) public view virtual override returns (uint256) {... */\n    tag_17:\n      callvalue\n      dup1\n      iszero\n      tag_114\n      jumpi\n      0x00\n      dup1\n      revert\n    tag_114:\n      pop\n      tag_115\n      0x04\n      dup1\n      calldatasize\n      sub\n      dup2\n      add\n      swap1\n      tag_116\n      swap2\n      swap1\n      tag_100\n      jump\t// in\n    tag_116:\n      tag_117\n      jump\t// in\n    tag_115:\n      mload(0x40)\n      tag_118\n      swap2\n      swap1\n      tag_60\n      jump\t// in\n    tag_118:\n      mload(0x40)\n      dup1\n      swap2\n      sub\n      swap1\n      return\n        /* \"contracts/Token.sol\":399:465  bytes32 public constant REWARDER_ROLE = keccak256(\"REWARDER_ROLE\") */\n    tag_18:\n      callvalue\n      dup1\n      iszero\n      tag_119\n      jumpi\n      0x00\n      dup1\n      revert\n    tag_119:\n      pop\n      tag_120\n      tag_121\n      jump\t// in\n    tag_120:\n      mload(0x40)\n      tag_122\n      swap2\n      swap1\n      tag_73\n      jump\t// in\n    tag_122:\n      mload(0x40)\n      dup1\n      swap2\n      sub\n      swap1\n      return\n        /* \"contracts/Token.sol\":1173:1523  function createClaimable(address _account, uint256 _amount) external {... */\n    tag_19:\n      callvalue\n      dup1\n      iszero\n      tag_123\n      jumpi\n      0x00\n      dup1\n      revert\n    tag_123:\n      pop\n      tag_124\n      0x04\n      dup1\n      calldatasize\n      sub\n      dup2\n      add\n      swap1\n      tag_125\n      swap2\n      swap1\n      tag_53\n      jump\t// in\n    tag_125:\n      tag_126\n      jump\t// in\n    tag_124:\n      stop\n        /* \"@openzeppelin/contracts/access/AccessControl.sol\":2909:3054  function hasRole(bytes32 role, address account) public view virtual override returns (bool) {... */\n    tag_20:\n      callvalue\n      dup1\n      iszero\n      tag_127\n      jumpi\n      0x00\n      dup1\n      revert\n    tag_127:\n      pop\n      tag_128\n      0x04\n      dup1\n      calldatasize\n      sub\n      dup2\n      add\n      swap1\n      tag_129\n      swap2\n      swap1\n      tag_81\n      jump\t// in\n    tag_129:\n      tag_130\n      jump\t// in\n    tag_128:\n      mload(0x40)\n      tag_131\n      swap2\n      swap1\n      tag_44\n      jump\t// in\n    tag_131:\n      mload(0x40)\n      dup1\n      swap2\n      sub\n      swap1\n      return\n        /* \"@openzeppelin/contracts/token/ERC20/ERC20.sol\":2367:2469  function symbol() public view virtual override returns (string memory) {... */\n    tag_21:\n      callvalue\n      dup1\n      iszero\n      tag_132\n      jumpi\n      0x00\n      dup1\n      revert\n    tag_132:\n      pop\n      tag_133\n      tag_134\n      jump\t// in\n    tag_133:\n      mload(0x40)\n      tag_135\n      swap2\n      swap1\n      tag_49\n      jump\t// in\n    tag_135:\n      mload(0x40)\n      dup1\n      swap2\n      sub\n      swap1\n      return\n        /* \"contracts/Token.sol\":793:957  function burn(address from, uint256 amount) public {... */\n    tag_22:\n      callvalue\n      dup1\n      iszero\n      tag_136\n      jumpi\n      0x00\n      dup1\n      revert\n    tag_136:\n      pop\n      tag_137\n      0x04\n      dup1\n      calldatasize\n      sub\n      dup2\n      add\n      swap1\n      tag_138\n      swap2\n      swap1\n      tag_53\n      jump\t// in\n    tag_138:\n      tag_139\n      jump\t// in\n    tag_137:\n      stop\n        /* \"@openzeppelin/contracts/access/AccessControl.sol\":2027:2076  bytes32 public constant DEFAULT_ADMIN_ROLE = 0x00 */\n    tag_23:\n      callvalue\n      dup1\n      iszero\n      tag_140\n      jumpi\n      0x00\n      dup1\n      revert\n    tag_140:\n      pop\n      tag_141\n      tag_142\n      jump\t// in\n    tag_141:\n      mload(0x40)\n      tag_143\n      swap2\n      swap1\n      tag_73\n      jump\t// in\n    tag_143:\n      mload(0x40)\n      dup1\n      swap2\n      sub\n      swap1\n      return\n        /* \"@openzeppelin/contracts/token/ERC20/ERC20.sol\":6596:7025  function decreaseAllowance(address spender, uint256 subtractedValue) public virtual returns (bool) {... */\n    tag_24:\n      callvalue\n      dup1\n      iszero\n      tag_144\n      jumpi\n      0x00\n      dup1\n      revert\n    tag_144:\n      pop\n      tag_145\n      0x04\n      dup1\n      calldatasize\n      sub\n      dup2\n      add\n      swap1\n      tag_146\n      swap2\n      swap1\n      tag_53\n      jump\t// in\n    tag_146:\n      tag_147\n      jump\t// in\n    tag_145:\n      mload(0x40)\n      tag_148\n      swap2\n      swap1\n      tag_44\n      jump\t// in\n    tag_148:\n      mload(0x40)\n      dup1\n      swap2\n      sub\n      swap1\n      return\n        /* \"@openzeppelin/contracts/token/ERC20/ERC20.sol\":3729:3918  function transfer(address to, uint256 amount) public virtual override returns (bool) {... */\n    tag_25:\n      callvalue\n      dup1\n      iszero\n      tag_149\n      jumpi\n      0x00\n      dup1\n      revert\n    tag_149:\n      pop\n      tag_150\n      0x04\n      dup1\n      calldatasize\n      sub\n      dup2\n      add\n      swap1\n      tag_151\n      swap2\n      swap1\n      tag_53\n      jump\t// in\n    tag_151:\n      tag_152\n      jump\t// in\n    tag_150:\n      mload(0x40)\n      tag_153\n      swap2\n      swap1\n      tag_44\n      jump\t// in\n    tag_153:\n      mload(0x40)\n      dup1\n      swap2\n      sub\n      swap1\n      return\n        /* \"contracts/Claim.sol\":210:249  mapping(address => uint) public claimed */\n    tag_26:\n      callvalue\n      dup1\n      iszero\n      tag_154\n      jumpi\n      0x00\n      dup1\n      revert\n    tag_154:\n      pop\n      tag_155\n      0x04\n      dup1\n      calldatasize\n      sub\n      dup2\n      add\n      swap1\n      tag_156\n      swap2\n      swap1\n      tag_100\n      jump\t// in\n    tag_156:\n      tag_157\n      jump\t// in\n    tag_155:\n      mload(0x40)\n      tag_158\n      swap2\n      swap1\n      tag_60\n      jump\t// in\n    tag_158:\n      mload(0x40)\n      dup1\n      swap2\n      sub\n      swap1\n      return\n        /* \"contracts/Token.sol\":263:325  bytes32 public constant MINTER_ROLE = keccak256(\"MINTER_ROLE\") */\n    tag_27:\n      callvalue\n      dup1\n      iszero\n      tag_159\n      jumpi\n      0x00\n      dup1\n      revert\n    tag_159:\n      pop\n      tag_160\n      tag_161\n      jump\t// in\n    tag_160:\n      mload(0x40)\n      tag_162\n      swap2\n      swap1\n      tag_73\n      jump\t// in\n    tag_162:\n      mload(0x40)\n      dup1\n      swap2\n      sub\n      swap1\n      return\n        /* \"@openzeppelin/contracts/access/AccessControl.sol\":4766:4913  function revokeRole(bytes32 role, address account) public virtual override onlyRole(getRoleAdmin(role)) {... */\n    tag_28:\n      callvalue\n      dup1\n      iszero\n      tag_163\n      jumpi\n      0x00\n      dup1\n      revert\n    tag_163:\n      pop\n      tag_164\n      0x04\n      dup1\n      calldatasize\n      sub\n      dup2\n      add\n      swap1\n      tag_165\n      swap2\n      swap1\n      tag_81\n      jump\t// in\n    tag_165:\n      tag_166\n      jump\t// in\n    tag_164:\n      stop\n        /* \"@openzeppelin/contracts/token/ERC20/ERC20.sol\":3976:4125  function allowance(address owner, address spender) public view virtual override returns (uint256) {... */\n    tag_29:\n      callvalue\n      dup1\n      iszero\n      tag_167\n      jumpi\n      0x00\n      dup1\n      revert\n    tag_167:\n      pop\n      tag_168\n      0x04\n      dup1\n      calldatasize\n      sub\n      dup2\n      add\n      swap1\n      tag_169\n      swap2\n      swap1\n      tag_170\n      jump\t// in\n    tag_169:\n      tag_171\n      jump\t// in\n    tag_168:\n      mload(0x40)\n      tag_172\n      swap2\n      swap1\n      tag_60\n      jump\t// in\n    tag_172:\n      mload(0x40)\n      dup1\n      swap2\n      sub\n      swap1\n      return\n        /* \"contracts/Claim.sol\":1199:1308  function getClaimed(address _account) public view returns (uint256) {... */\n    tag_30:\n      callvalue\n      dup1\n      iszero\n      tag_173\n      jumpi\n      0x00\n      dup1\n      revert\n    tag_173:\n      pop\n      tag_174\n      0x04\n      dup1\n      calldatasize\n      sub\n      dup2\n      add\n      swap1\n      tag_175\n      swap2\n      swap1\n      tag_100\n      jump\t// in\n    tag_175:\n      tag_176\n      jump\t// in\n    tag_174:\n      mload(0x40)\n      tag_177\n      swap2\n      swap1\n      tag_60\n      jump\t// in\n    tag_177:\n      mload(0x40)\n      dup1\n      swap2\n      sub\n      swap1\n      return\n        /* \"@openzeppelin/contracts/access/AccessControl.sol\":2620:2822  function supportsInterface(bytes4 interfaceId) public view virtual override returns (bool) {... */\n    tag_42:\n        /* \"@openzeppelin/contracts/access/AccessControl.sol\":2705:2709  bool */\n      0x00\n        /* \"@openzeppelin/contracts/access/AccessControl.sol\":2743:2775  type(IAccessControl).interfaceId */\n      0x7965db0b00000000000000000000000000000000000000000000000000000000\n        /* \"@openzeppelin/contracts/access/AccessControl.sol\":2728:2775  interfaceId == type(IAccessControl).interfaceId */\n      not(0xffffffffffffffffffffffffffffffffffffffffffffffffffffffff)\n      and\n        /* \"@openzeppelin/contracts/access/AccessControl.sol\":2728:2739  interfaceId */\n      dup3\n        /* \"@openzeppelin/contracts/access/AccessControl.sol\":2728:2775  interfaceId == type(IAccessControl).interfaceId */\n      not(0xffffffffffffffffffffffffffffffffffffffffffffffffffffffff)\n      and\n      eq\n        /* \"@openzeppelin/contracts/access/AccessControl.sol\":2728:2815  interfaceId == type(IAccessControl).interfaceId || super.supportsInterface(interfaceId) */\n      dup1\n      tag_179\n      jumpi\n      pop\n        /* \"@openzeppelin/contracts/access/AccessControl.sol\":2779:2815  super.supportsInterface(interfaceId) */\n      tag_180\n        /* \"@openzeppelin/contracts/access/AccessControl.sol\":2803:2814  interfaceId */\n      dup3\n        /* \"@openzeppelin/contracts/access/AccessControl.sol\":2779:2802  super.supportsInterface */\n      tag_181\n        /* \"@openzeppelin/contracts/access/AccessControl.sol\":2779:2815  super.supportsInterface(interfaceId) */\n      jump\t// in\n    tag_180:\n        /* \"@openzeppelin/contracts/access/AccessControl.sol\":2728:2815  interfaceId == type(IAccessControl).interfaceId || super.supportsInterface(interfaceId) */\n    tag_179:\n        /* \"@openzeppelin/contracts/access/AccessControl.sol\":2721:2815  return interfaceId == type(IAccessControl).interfaceId || super.supportsInterface(interfaceId) */\n      swap1\n      pop\n        /* \"@openzeppelin/contracts/access/AccessControl.sol\":2620:2822  function supportsInterface(bytes4 interfaceId) public view virtual override returns (bool) {... */\n      swap2\n      swap1\n      pop\n      jump\t// out\n        /* \"@openzeppelin/contracts/token/ERC20/ERC20.sol\":2156:2254  function name() public view virtual override returns (string memory) {... */\n    tag_47:\n        /* \"@openzeppelin/contracts/token/ERC20/ERC20.sol\":2210:2223  string memory */\n      0x60\n        /* \"@openzeppelin/contracts/token/ERC20/ERC20.sol\":2242:2247  _name */\n      0x03\n        /* \"@openzeppelin/contracts/token/ERC20/ERC20.sol\":2235:2247  return _name */\n      dup1\n      sload\n      tag_183\n      swap1\n      tag_184\n      jump\t// in\n    tag_183:\n      dup1\n      0x1f\n      add\n      0x20\n      dup1\n      swap2\n      div\n      mul\n      0x20\n      add\n      mload(0x40)\n      swap1\n      dup2\n      add\n      0x40\n      mstore\n      dup1\n      swap3\n      swap2\n      swap1\n      dup2\n      dup2\n      mstore\n      0x20\n      add\n      dup3\n      dup1\n      sload\n      tag_185\n      swap1\n      tag_184\n      jump\t// in\n    tag_185:\n      dup1\n      iszero\n      tag_186\n      jumpi\n      dup1\n      0x1f\n      lt\n      tag_187\n      jumpi\n      0x0100\n      dup1\n      dup4\n      sload\n      div\n      mul\n      dup4\n      mstore\n      swap2\n      0x20\n      add\n      swap2\n      jump(tag_186)\n    tag_187:\n      dup3\n      add\n      swap2\n      swap1\n      0x00\n      mstore\n      keccak256(0x00, 0x20)\n      swap1\n    tag_188:\n      dup2\n      sload\n      dup2\n      mstore\n      swap1\n      0x01\n      add\n      swap1\n      0x20\n      add\n      dup1\n      dup4\n      gt\n      tag_188\n      jumpi\n      dup3\n      swap1\n      sub\n      0x1f\n      and\n      dup3\n      add\n      swap2\n    tag_186:\n      pop\n      pop\n      pop\n      pop\n      pop\n      swap1\n      pop\n        /* \"@openzeppelin/contracts/token/ERC20/ERC20.sol\":2156:2254  function name() public view virtual override returns (string memory) {... */\n      swap1\n      jump\t// out\n        /* \"@openzeppelin/contracts/token/ERC20/ERC20.sol\":4433:4630  function approve(address spender, uint256 amount) public virtual override returns (bool) {... */\n    tag_54:\n        /* \"@openzeppelin/contracts/token/ERC20/ERC20.sol\":4516:4520  bool */\n      0x00\n        /* \"@openzeppelin/contracts/token/ERC20/ERC20.sol\":4532:4545  address owner */\n      dup1\n        /* \"@openzeppelin/contracts/token/ERC20/ERC20.sol\":4548:4560  _msgSender() */\n      tag_190\n        /* \"@openzeppelin/contracts/token/ERC20/ERC20.sol\":4548:4558  _msgSender */\n      tag_191\n        /* \"@openzeppelin/contracts/token/ERC20/ERC20.sol\":4548:4560  _msgSender() */\n      jump\t// in\n    tag_190:\n        /* \"@openzeppelin/contracts/token/ERC20/ERC20.sol\":4532:4560  address owner = _msgSender() */\n      swap1\n      pop\n        /* \"@openzeppelin/contracts/token/ERC20/ERC20.sol\":4570:4602  _approve(owner, spender, amount) */\n      tag_192\n        /* \"@openzeppelin/contracts/token/ERC20/ERC20.sol\":4579:4584  owner */\n      dup2\n        /* \"@openzeppelin/contracts/token/ERC20/ERC20.sol\":4586:4593  spender */\n      dup6\n        /* \"@openzeppelin/contracts/token/ERC20/ERC20.sol\":4595:4601  amount */\n      dup6\n        /* \"@openzeppelin/contracts/token/ERC20/ERC20.sol\":4570:4578  _approve */\n      tag_193\n        /* \"@openzeppelin/contracts/token/ERC20/ERC20.sol\":4570:4602  _approve(owner, spender, amount) */\n      jump\t// in\n    tag_192:\n        /* \"@openzeppelin/contracts/token/ERC20/ERC20.sol\":4619:4623  true */\n      0x01\n        /* \"@openzeppelin/contracts/token/ERC20/ERC20.sol\":4612:4623  return true */\n      swap2\n      pop\n      pop\n        /* \"@openzeppelin/contracts/token/ERC20/ERC20.sol\":4433:4630  function approve(address spender, uint256 amount) public virtual override returns (bool) {... */\n      swap3\n      swap2\n      pop\n      pop\n      jump\t// out\n        /* \"@openzeppelin/contracts/token/ERC20/ERC20.sol\":3244:3350  function totalSupply() public view virtual override returns (uint256) {... */\n    tag_58:\n        /* \"@openzeppelin/contracts/token/ERC20/ERC20.sol\":3305:3312  uint256 */\n      0x00\n        /* \"@openzeppelin/contracts/token/ERC20/ERC20.sol\":3331:3343  _totalSupply */\n      sload(0x02)\n        /* \"@openzeppelin/contracts/token/ERC20/ERC20.sol\":3324:3343  return _totalSupply */\n      swap1\n      pop\n        /* \"@openzeppelin/contracts/token/ERC20/ERC20.sol\":3244:3350  function totalSupply() public view virtual override returns (uint256) {... */\n      swap1\n      jump\t// out\n        /* \"@openzeppelin/contracts/token/ERC20/ERC20.sol\":5192:5478  function transferFrom(... */\n    tag_65:\n        /* \"@openzeppelin/contracts/token/ERC20/ERC20.sol\":5319:5323  bool */\n      0x00\n        /* \"@openzeppelin/contracts/token/ERC20/ERC20.sol\":5335:5350  address spender */\n      dup1\n        /* \"@openzeppelin/contracts/token/ERC20/ERC20.sol\":5353:5365  _msgSender() */\n      tag_196\n        /* \"@openzeppelin/contracts/token/ERC20/ERC20.sol\":5353:5363  _msgSender */\n      tag_191\n        /* \"@openzeppelin/contracts/token/ERC20/ERC20.sol\":5353:5365  _msgSender() */\n      jump\t// in\n    tag_196:\n        /* \"@openzeppelin/contracts/token/ERC20/ERC20.sol\":5335:5365  address spender = _msgSender() */\n      swap1\n      pop\n        /* \"@openzeppelin/contracts/token/ERC20/ERC20.sol\":5375:5413  _spendAllowance(from, spender, amount) */\n      tag_197\n        /* \"@openzeppelin/contracts/token/ERC20/ERC20.sol\":5391:5395  from */\n      dup6\n        /* \"@openzeppelin/contracts/token/ERC20/ERC20.sol\":5397:5404  spender */\n      dup3\n        /* \"@openzeppelin/contracts/token/ERC20/ERC20.sol\":5406:5412  amount */\n      dup6\n        /* \"@openzeppelin/contracts/token/ERC20/ERC20.sol\":5375:5390  _spendAllowance */\n      tag_198\n        /* \"@openzeppelin/contracts/token/ERC20/ERC20.sol\":5375:5413  _spendAllowance(from, spender, amount) */\n      jump\t// in\n    tag_197:\n        /* \"@openzeppelin/contracts/token/ERC20/ERC20.sol\":5423:5450  _transfer(from, to, amount) */\n      tag_199\n        /* \"@openzeppelin/contracts/token/ERC20/ERC20.sol\":5433:5437  from */\n      dup6\n        /* \"@openzeppelin/contracts/token/ERC20/ERC20.sol\":5439:5441  to */\n      dup6\n        /* \"@openzeppelin/contracts/token/ERC20/ERC20.sol\":5443:5449  amount */\n      dup6\n        /* \"@openzeppelin/contracts/token/ERC20/ERC20.sol\":5423:5432  _transfer */\n      tag_200\n        /* \"@openzeppelin/contracts/token/ERC20/ERC20.sol\":5423:5450  _transfer(from, to, amount) */\n      jump\t// in\n    tag_199:\n        /* \"@openzeppelin/contracts/token/ERC20/ERC20.sol\":5467:5471  true */\n      0x01\n        /* \"@openzeppelin/contracts/token/ERC20/ERC20.sol\":5460:5471  return true */\n      swap2\n      pop\n      pop\n        /* \"@openzeppelin/contracts/token/ERC20/ERC20.sol\":5192:5478  function transferFrom(... */\n      swap4\n      swap3\n      pop\n      pop\n      pop\n      jump\t// out\n        /* \"@openzeppelin/contracts/access/AccessControl.sol\":4008:4137  function getRoleAdmin(bytes32 role) public view virtual override returns (bytes32) {... */\n    tag_71:\n        /* \"@openzeppelin/contracts/access/AccessControl.sol\":4082:4089  bytes32 */\n      0x00\n        /* \"@openzeppelin/contracts/access/AccessControl.sol\":4108:4114  _roles */\n      0x05\n        /* \"@openzeppelin/contracts/access/AccessControl.sol\":4108:4120  _roles[role] */\n      0x00\n        /* \"@openzeppelin/contracts/access/AccessControl.sol\":4115:4119  role */\n      dup4\n        /* \"@openzeppelin/contracts/access/AccessControl.sol\":4108:4120  _roles[role] */\n      dup2\n      mstore\n      0x20\n      add\n      swap1\n      dup2\n      mstore\n      0x20\n      add\n      0x00\n      keccak256\n        /* \"@openzeppelin/contracts/access/AccessControl.sol\":4108:4130  _roles[role].adminRole */\n      0x01\n      add\n      sload\n        /* \"@openzeppelin/contracts/access/AccessControl.sol\":4101:4130  return _roles[role].adminRole */\n      swap1\n      pop\n        /* \"@openzeppelin/contracts/access/AccessControl.sol\":4008:4137  function getRoleAdmin(bytes32 role) public view virtual override returns (bytes32) {... */\n      swap2\n      swap1\n      pop\n      jump\t// out\n        /* \"contracts/Token.sol\":331:393  bytes32 public constant BURNER_ROLE = keccak256(\"BURNER_ROLE\") */\n    tag_76:\n        /* \"contracts/Token.sol\":369:393  keccak256(\"BURNER_ROLE\") */\n      0x3c11d16cbaffd01df69ce1c404f6340ee057498f5f00246190ea54220576a848\n        /* \"contracts/Token.sol\":331:393  bytes32 public constant BURNER_ROLE = keccak256(\"BURNER_ROLE\") */\n      dup2\n      jump\t// out\n        /* \"@openzeppelin/contracts/access/AccessControl.sol\":4387:4532  function grantRole(bytes32 role, address account) public virtual override onlyRole(getRoleAdmin(role)) {... */\n    tag_82:\n        /* \"@openzeppelin/contracts/access/AccessControl.sol\":4470:4488  getRoleAdmin(role) */\n      tag_202\n        /* \"@openzeppelin/contracts/access/AccessControl.sol\":4483:4487  role */\n      dup3\n        /* \"@openzeppelin/contracts/access/AccessControl.sol\":4470:4482  getRoleAdmin */\n      tag_71\n        /* \"@openzeppelin/contracts/access/AccessControl.sol\":4470:4488  getRoleAdmin(role) */\n      jump\t// in\n    tag_202:\n        /* \"@openzeppelin/contracts/access/AccessControl.sol\":2505:2535  _checkRole(role, _msgSender()) */\n      tag_204\n        /* \"@openzeppelin/contracts/access/AccessControl.sol\":2516:2520  role */\n      dup2\n        /* \"@openzeppelin/contracts/access/AccessControl.sol\":2522:2534  _msgSender() */\n      tag_205\n        /* \"@openzeppelin/contracts/access/AccessControl.sol\":2522:2532  _msgSender */\n      tag_191\n        /* \"@openzeppelin/contracts/access/AccessControl.sol\":2522:2534  _msgSender() */\n      jump\t// in\n    tag_205:\n        /* \"@openzeppelin/contracts/access/AccessControl.sol\":2505:2515  _checkRole */\n      tag_206\n        /* \"@openzeppelin/contracts/access/AccessControl.sol\":2505:2535  _checkRole(role, _msgSender()) */\n      jump\t// in\n    tag_204:\n        /* \"@openzeppelin/contracts/access/AccessControl.sol\":4500:4525  _grantRole(role, account) */\n      tag_208\n        /* \"@openzeppelin/contracts/access/AccessControl.sol\":4511:4515  role */\n      dup4\n        /* \"@openzeppelin/contracts/access/AccessControl.sol\":4517:4524  account */\n      dup4\n        /* \"@openzeppelin/contracts/access/AccessControl.sol\":4500:4510  _grantRole */\n      tag_209\n        /* \"@openzeppelin/contracts/access/AccessControl.sol\":4500:4525  _grantRole(role, account) */\n      jump\t// in\n    tag_208:\n        /* \"@openzeppelin/contracts/access/AccessControl.sol\":4387:4532  function grantRole(bytes32 role, address account) public virtual override onlyRole(getRoleAdmin(role)) {... */\n      pop\n      pop\n      pop\n      jump\t// out\n        /* \"@openzeppelin/contracts/token/ERC20/ERC20.sol\":3093:3184  function decimals() public view virtual override returns (uint8) {... */\n    tag_85:\n        /* \"@openzeppelin/contracts/token/ERC20/ERC20.sol\":3151:3156  uint8 */\n      0x00\n        /* \"@openzeppelin/contracts/token/ERC20/ERC20.sol\":3175:3177  18 */\n      0x12\n        /* \"@openzeppelin/contracts/token/ERC20/ERC20.sol\":3168:3177  return 18 */\n      swap1\n      pop\n        /* \"@openzeppelin/contracts/token/ERC20/ERC20.sol\":3093:3184  function decimals() public view virtual override returns (uint8) {... */\n      swap1\n      jump\t// out\n        /* \"@openzeppelin/contracts/access/AccessControl.sol\":5404:5618  function renounceRole(bytes32 role, address account) public virtual override {... */\n    tag_91:\n        /* \"@openzeppelin/contracts/access/AccessControl.sol\":5510:5522  _msgSender() */\n      tag_212\n        /* \"@openzeppelin/contracts/access/AccessControl.sol\":5510:5520  _msgSender */\n      tag_191\n        /* \"@openzeppelin/contracts/access/AccessControl.sol\":5510:5522  _msgSender() */\n      jump\t// in\n    tag_212:\n        /* \"@openzeppelin/contracts/access/AccessControl.sol\":5499:5522  account == _msgSender() */\n      0xffffffffffffffffffffffffffffffffffffffff\n      and\n        /* \"@openzeppelin/contracts/access/AccessControl.sol\":5499:5506  account */\n      dup2\n        /* \"@openzeppelin/contracts/access/AccessControl.sol\":5499:5522  account == _msgSender() */\n      0xffffffffffffffffffffffffffffffffffffffff\n      and\n      eq\n        /* \"@openzeppelin/contracts/access/AccessControl.sol\":5491:5574  require(account == _msgSender(), \"AccessControl: can only renounce roles for self\") */\n      tag_213\n      jumpi\n      mload(0x40)\n      0x08c379a000000000000000000000000000000000000000000000000000000000\n      dup2\n      mstore\n      0x04\n      add\n      tag_214\n      swap1\n      tag_215\n      jump\t// in\n    tag_214:\n      mload(0x40)\n      dup1\n      swap2\n      sub\n      swap1\n      revert\n    tag_213:\n        /* \"@openzeppelin/contracts/access/AccessControl.sol\":5585:5611  _revokeRole(role, account) */\n      tag_216\n        /* \"@openzeppelin/contracts/access/AccessControl.sol\":5597:5601  role */\n      dup3\n        /* \"@openzeppelin/contracts/access/AccessControl.sol\":5603:5610  account */\n      dup3\n        /* \"@openzeppelin/contracts/access/AccessControl.sol\":5585:5596  _revokeRole */\n      tag_217\n        /* \"@openzeppelin/contracts/access/AccessControl.sol\":5585:5611  _revokeRole(role, account) */\n      jump\t// in\n    tag_216:\n        /* \"@openzeppelin/contracts/access/AccessControl.sol\":5404:5618  function renounceRole(bytes32 role, address account) public virtual override {... */\n      pop\n      pop\n      jump\t// out\n        /* \"@openzeppelin/contracts/token/ERC20/ERC20.sol\":5873:6109  function increaseAllowance(address spender, uint256 addedValue) public virtual returns (bool) {... */\n    tag_95:\n        /* \"@openzeppelin/contracts/token/ERC20/ERC20.sol\":5961:5965  bool */\n      0x00\n        /* \"@openzeppelin/contracts/token/ERC20/ERC20.sol\":5977:5990  address owner */\n      dup1\n        /* \"@openzeppelin/contracts/token/ERC20/ERC20.sol\":5993:6005  _msgSender() */\n      tag_219\n        /* \"@openzeppelin/contracts/token/ERC20/ERC20.sol\":5993:6003  _msgSender */\n      tag_191\n        /* \"@openzeppelin/contracts/token/ERC20/ERC20.sol\":5993:6005  _msgSender() */\n      jump\t// in\n    tag_219:\n        /* \"@openzeppelin/contracts/token/ERC20/ERC20.sol\":5977:6005  address owner = _msgSender() */\n      swap1\n      pop\n        /* \"@openzeppelin/contracts/token/ERC20/ERC20.sol\":6015:6081  _approve(owner, spender, _allowances[owner][spender] + addedValue) */\n      tag_220\n        /* \"@openzeppelin/contracts/token/ERC20/ERC20.sol\":6024:6029  owner */\n      dup2\n        /* \"@openzeppelin/contracts/token/ERC20/ERC20.sol\":6031:6038  spender */\n      dup6\n        /* \"@openzeppelin/contracts/token/ERC20/ERC20.sol\":6070:6080  addedValue */\n      dup6\n        /* \"@openzeppelin/contracts/token/ERC20/ERC20.sol\":6040:6051  _allowances */\n      0x01\n        /* \"@openzeppelin/contracts/token/ERC20/ERC20.sol\":6040:6058  _allowances[owner] */\n      0x00\n        /* \"@openzeppelin/contracts/token/ERC20/ERC20.sol\":6052:6057  owner */\n      dup7\n        /* \"@openzeppelin/contracts/token/ERC20/ERC20.sol\":6040:6058  _allowances[owner] */\n      0xffffffffffffffffffffffffffffffffffffffff\n      and\n      0xffffffffffffffffffffffffffffffffffffffff\n      and\n      dup2\n      mstore\n      0x20\n      add\n      swap1\n      dup2\n      mstore\n      0x20\n      add\n      0x00\n      keccak256\n        /* \"@openzeppelin/contracts/token/ERC20/ERC20.sol\":6040:6067  _allowances[owner][spender] */\n      0x00\n        /* \"@openzeppelin/contracts/token/ERC20/ERC20.sol\":6059:6066  spender */\n      dup10\n        /* \"@openzeppelin/contracts/token/ERC20/ERC20.sol\":6040:6067  _allowances[owner][spender] */\n      0xffffffffffffffffffffffffffffffffffffffff\n      and\n      0xffffffffffffffffffffffffffffffffffffffff\n      and\n      dup2\n      mstore\n      0x20\n      add\n      swap1\n      dup2\n      mstore\n      0x20\n      add\n      0x00\n      keccak256\n      sload\n        /* \"@openzeppelin/contracts/token/ERC20/ERC20.sol\":6040:6080  _allowances[owner][spender] + addedValue */\n      tag_221\n      swap2\n      swap1\n      tag_222\n      jump\t// in\n    tag_221:\n        /* \"@openzeppelin/contracts/token/ERC20/ERC20.sol\":6015:6023  _approve */\n      tag_193\n        /* \"@openzeppelin/contracts/token/ERC20/ERC20.sol\":6015:6081  _approve(owner, spender, _allowances[owner][spender] + addedValue) */\n      jump\t// in\n    tag_220:\n        /* \"@openzeppelin/contracts/token/ERC20/ERC20.sol\":6098:6102  true */\n      0x01\n        /* \"@openzeppelin/contracts/token/ERC20/ERC20.sol\":6091:6102  return true */\n      swap2\n      pop\n      pop\n        /* \"@openzeppelin/contracts/token/ERC20/ERC20.sol\":5873:6109  function increaseAllowance(address spender, uint256 addedValue) public virtual returns (bool) {... */\n      swap3\n      swap2\n      pop\n      pop\n      jump\t// out\n        /* \"contracts/Claim.sol\":673:786  function getUnclaimed(address _account) public view returns (uint256) {... */\n    tag_101:\n        /* \"contracts/Claim.sol\":734:741  uint256 */\n      0x00\n        /* \"contracts/Claim.sol\":760:769  unclaimed */\n      0x06\n        /* \"contracts/Claim.sol\":760:779  unclaimed[_account] */\n      0x00\n        /* \"contracts/Claim.sol\":770:778  _account */\n      dup4\n        /* \"contracts/Claim.sol\":760:779  unclaimed[_account] */\n      0xffffffffffffffffffffffffffffffffffffffff\n      and\n      0xffffffffffffffffffffffffffffffffffffffff\n      and\n      dup2\n      mstore\n      0x20\n      add\n      swap1\n      dup2\n      mstore\n      0x20\n      add\n      0x00\n      keccak256\n      sload\n        /* \"contracts/Claim.sol\":753:779  return unclaimed[_account] */\n      swap1\n      pop\n        /* \"contracts/Claim.sol\":673:786  function getUnclaimed(address _account) public view returns (uint256) {... */\n      swap2\n      swap1\n      pop\n      jump\t// out\n        /* \"contracts/Token.sol\":629:786  function mint(address to, uint amount) public {... */\n    tag_106:\n        /* \"contracts/Token.sol\":693:725  hasRole(MINTER_ROLE, msg.sender) */\n      tag_225\n        /* \"contracts/Token.sol\":301:325  keccak256(\"MINTER_ROLE\") */\n      0x9f2df0fed2c77648de5860a4cc508cd0818c85b8b8a1ab4ceeef8d981c8956a6\n        /* \"contracts/Token.sol\":714:724  msg.sender */\n      caller\n        /* \"contracts/Token.sol\":693:700  hasRole */\n      tag_130\n        /* \"contracts/Token.sol\":693:725  hasRole(MINTER_ROLE, msg.sender) */\n      jump\t// in\n    tag_225:\n        /* \"contracts/Token.sol\":685:752  require(hasRole(MINTER_ROLE, msg.sender), \"Caller is not a minter\") */\n      tag_226\n      jumpi\n      mload(0x40)\n      0x08c379a000000000000000000000000000000000000000000000000000000000\n      dup2\n      mstore\n      0x04\n      add\n      tag_227\n      swap1\n      tag_228\n      jump\t// in\n    tag_227:\n      mload(0x40)\n      dup1\n      swap2\n      sub\n      swap1\n      revert\n    tag_226:\n        /* \"contracts/Token.sol\":762:779  _mint(to, amount) */\n      tag_229\n        /* \"contracts/Token.sol\":768:770  to */\n      dup3\n        /* \"contracts/Token.sol\":772:778  amount */\n      dup3\n        /* \"contracts/Token.sol\":762:767  _mint */\n      tag_230\n        /* \"contracts/Token.sol\":762:779  _mint(to, amount) */\n      jump\t// in\n    tag_229:\n        /* \"contracts/Token.sol\":629:786  function mint(address to, uint amount) public {... */\n      pop\n      pop\n      jump\t// out\n        /* \"contracts/Token.sol\":1582:1886  function claim() public payable {... */\n    tag_108:\n        /* \"contracts/Token.sol\":1624:1642  uint256 _unclaimed */\n      0x00\n        /* \"contracts/Token.sol\":1645:1654  unclaimed */\n      0x06\n        /* \"contracts/Token.sol\":1645:1666  unclaimed[msg.sender] */\n      0x00\n        /* \"contracts/Token.sol\":1655:1665  msg.sender */\n      caller\n        /* \"contracts/Token.sol\":1645:1666  unclaimed[msg.sender] */\n      0xffffffffffffffffffffffffffffffffffffffff\n      and\n      0xffffffffffffffffffffffffffffffffffffffff\n      and\n      dup2\n      mstore\n      0x20\n      add\n      swap1\n      dup2\n      mstore\n      0x20\n      add\n      0x00\n      keccak256\n      sload\n        /* \"contracts/Token.sol\":1624:1666  uint256 _unclaimed = unclaimed[msg.sender] */\n      swap1\n      pop\n        /* \"contracts/Token.sol\":1697:1698  0 */\n      0x00\n        /* \"contracts/Token.sol\":1684:1694  _unclaimed */\n      dup2\n        /* \"contracts/Token.sol\":1684:1698  _unclaimed > 0 */\n      gt\n        /* \"contracts/Token.sol\":1676:1743  require(_unclaimed > 0, \"Unclaimed balance must be greater than 0\") */\n      tag_232\n      jumpi\n      mload(0x40)\n      0x08c379a000000000000000000000000000000000000000000000000000000000\n      dup2\n      mstore\n      0x04\n      add\n      tag_233\n      swap1\n      tag_234\n      jump\t// in\n    tag_233:\n      mload(0x40)\n      dup1\n      swap2\n      sub\n      swap1\n      revert\n    tag_232:\n        /* \"contracts/Token.sol\":1776:1786  _unclaimed */\n      dup1\n        /* \"contracts/Token.sol\":1753:1760  claimed */\n      0x07\n        /* \"contracts/Token.sol\":1753:1772  claimed[msg.sender] */\n      0x00\n        /* \"contracts/Token.sol\":1761:1771  msg.sender */\n      caller\n        /* \"contracts/Token.sol\":1753:1772  claimed[msg.sender] */\n      0xffffffffffffffffffffffffffffffffffffffff\n      and\n      0xffffffffffffffffffffffffffffffffffffffff\n      and\n      dup2\n      mstore\n      0x20\n      add\n      swap1\n      dup2\n      mstore\n      0x20\n      add\n      0x00\n      keccak256\n      0x00\n        /* \"contracts/Token.sol\":1753:1786  claimed[msg.sender] += _unclaimed */\n      dup3\n      dup3\n      sload\n      tag_235\n      swap2\n      swap1\n      tag_222\n      jump\t// in\n    tag_235:\n      swap3\n      pop\n      pop\n      dup2\n      swap1\n      sstore\n      pop\n        /* \"contracts/Token.sol\":1820:1821  0 */\n      0x00\n        /* \"contracts/Token.sol\":1796:1805  unclaimed */\n      0x06\n        /* \"contracts/Token.sol\":1796:1817  unclaimed[msg.sender] */\n      0x00\n        /* \"contracts/Token.sol\":1806:1816  msg.sender */\n      caller\n        /* \"contracts/Token.sol\":1796:1817  unclaimed[msg.sender] */\n      0xffffffffffffffffffffffffffffffffffffffff\n      and\n      0xffffffffffffffffffffffffffffffffffffffff\n      and\n      dup2\n      mstore\n      0x20\n      add\n      swap1\n      dup2\n      mstore\n      0x20\n      add\n      0x00\n      keccak256\n        /* \"contracts/Token.sol\":1796:1821  unclaimed[msg.sender] = 0 */\n      dup2\n      swap1\n      sstore\n      pop\n        /* \"contracts/Token.sol\":1831:1835  this */\n      address\n        /* \"contracts/Token.sol\":1831:1844  this.transfer */\n      0xffffffffffffffffffffffffffffffffffffffff\n      and\n      0xa9059cbb\n        /* \"contracts/Token.sol\":1845:1855  msg.sender */\n      caller\n        /* \"contracts/Token.sol\":1870:1878  10 ** 18 */\n      0x0de0b6b3a7640000\n        /* \"contracts/Token.sol\":1857:1867  _unclaimed */\n      dup5\n        /* \"contracts/Token.sol\":1857:1878  _unclaimed * 10 ** 18 */\n      tag_236\n      swap2\n      swap1\n      tag_237\n      jump\t// in\n    tag_236:\n        /* \"contracts/Token.sol\":1831:1879  this.transfer(msg.sender, _unclaimed * 10 ** 18) */\n      mload(0x40)\n      dup4\n      0xffffffff\n      and\n      0xe0\n      shl\n      dup2\n      mstore\n      0x04\n      add\n      tag_238\n      swap3\n      swap2\n      swap1\n      tag_239\n      jump\t// in\n    tag_238:\n      0x20\n      mload(0x40)\n      dup1\n      dup4\n      sub\n      dup2\n      0x00\n      dup8\n      dup1\n      extcodesize\n      iszero\n      dup1\n      iszero\n      tag_240\n      jumpi\n      0x00\n      dup1\n      revert\n    tag_240:\n      pop\n      gas\n      call\n      iszero\n      dup1\n      iszero\n      tag_242\n      jumpi\n      returndatasize\n      0x00\n      dup1\n      returndatacopy\n      revert(0x00, returndatasize)\n    tag_242:\n      pop\n      pop\n      pop\n      pop\n      mload(0x40)\n      returndatasize\n      not(0x1f)\n      0x1f\n      dup3\n      add\n      and\n      dup3\n      add\n      dup1\n      0x40\n      mstore\n      pop\n      dup2\n      add\n      swap1\n      tag_243\n      swap2\n      swap1\n      tag_244\n      jump\t// in\n    tag_243:\n      pop\n        /* \"contracts/Token.sol\":1614:1886  {... */\n      pop\n        /* \"contracts/Token.sol\":1582:1886  function claim() public payable {... */\n      jump\t// out\n        /* \"contracts/Claim.sol\":163:204  mapping(address => uint) public unclaimed */\n    tag_112:\n      mstore(0x20, 0x06)\n      dup1\n      0x00\n      mstore\n      keccak256(0x00, 0x40)\n      0x00\n      swap2\n      pop\n      swap1\n      pop\n      sload\n      dup2\n      jump\t// out\n        /* \"@openzeppelin/contracts/token/ERC20/ERC20.sol\":3408:3533  function balanceOf(address account) public view virtual override returns (uint256) {... */\n    tag_117:\n        /* \"@openzeppelin/contracts/token/ERC20/ERC20.sol\":3482:3489  uint256 */\n      0x00\n        /* \"@openzeppelin/contracts/token/ERC20/ERC20.sol\":3508:3517  _balances */\n      dup1\n        /* \"@openzeppelin/contracts/token/ERC20/ERC20.sol\":3508:3526  _balances[account] */\n      0x00\n        /* \"@openzeppelin/contracts/token/ERC20/ERC20.sol\":3518:3525  account */\n      dup4\n        /* \"@openzeppelin/contracts/token/ERC20/ERC20.sol\":3508:3526  _balances[account] */\n      0xffffffffffffffffffffffffffffffffffffffff\n      and\n      0xffffffffffffffffffffffffffffffffffffffff\n      and\n      dup2\n      mstore\n      0x20\n      add\n      swap1\n      dup2\n      mstore\n      0x20\n      add\n      0x00\n      keccak256\n      sload\n        /* \"@openzeppelin/contracts/token/ERC20/ERC20.sol\":3501:3526  return _balances[account] */\n      swap1\n      pop\n        /* \"@openzeppelin/contracts/token/ERC20/ERC20.sol\":3408:3533  function balanceOf(address account) public view virtual override returns (uint256) {... */\n      swap2\n      swap1\n      pop\n      jump\t// out\n        /* \"contracts/Token.sol\":399:465  bytes32 public constant REWARDER_ROLE = keccak256(\"REWARDER_ROLE\") */\n    tag_121:\n        /* \"contracts/Token.sol\":439:465  keccak256(\"REWARDER_ROLE\") */\n      0xbeec13769b5f410b0584f69811bfd923818456d5edcf426b0e31cf90eed7a3f6\n        /* \"contracts/Token.sol\":399:465  bytes32 public constant REWARDER_ROLE = keccak256(\"REWARDER_ROLE\") */\n      dup2\n      jump\t// out\n        /* \"contracts/Token.sol\":1173:1523  function createClaimable(address _account, uint256 _amount) external {... */\n    tag_126:\n        /* \"contracts/Token.sol\":1260:1294  hasRole(REWARDER_ROLE, msg.sender) */\n      tag_247\n        /* \"contracts/Token.sol\":439:465  keccak256(\"REWARDER_ROLE\") */\n      0xbeec13769b5f410b0584f69811bfd923818456d5edcf426b0e31cf90eed7a3f6\n        /* \"contracts/Token.sol\":1283:1293  msg.sender */\n      caller\n        /* \"contracts/Token.sol\":1260:1267  hasRole */\n      tag_130\n        /* \"contracts/Token.sol\":1260:1294  hasRole(REWARDER_ROLE, msg.sender) */\n      jump\t// in\n    tag_247:\n        /* \"contracts/Token.sol\":1252:1323  require(hasRole(REWARDER_ROLE, msg.sender), \"Caller is not a rewarder\") */\n      tag_248\n      jumpi\n      mload(0x40)\n      0x08c379a000000000000000000000000000000000000000000000000000000000\n      dup2\n      mstore\n      0x04\n      add\n      tag_249\n      swap1\n      tag_250\n      jump\t// in\n    tag_249:\n      mload(0x40)\n      dup1\n      swap2\n      sub\n      swap1\n      revert\n    tag_248:\n        /* \"contracts/Token.sol\":1333:1351  uint256 _unclaimed */\n      0x00\n        /* \"contracts/Token.sol\":1384:1393  unclaimed */\n      0x06\n        /* \"contracts/Token.sol\":1384:1403  unclaimed[_account] */\n      0x00\n        /* \"contracts/Token.sol\":1394:1402  _account */\n      dup5\n        /* \"contracts/Token.sol\":1384:1403  unclaimed[_account] */\n      0xffffffffffffffffffffffffffffffffffffffff\n      and\n      0xffffffffffffffffffffffffffffffffffffffff\n      and\n      dup2\n      mstore\n      0x20\n      add\n      swap1\n      dup2\n      mstore\n      0x20\n      add\n      0x00\n      keccak256\n      sload\n        /* \"contracts/Token.sol\":1364:1371  claimed */\n      0x07\n        /* \"contracts/Token.sol\":1364:1381  claimed[_account] */\n      0x00\n        /* \"contracts/Token.sol\":1372:1380  _account */\n      dup6\n        /* \"contracts/Token.sol\":1364:1381  claimed[_account] */\n      0xffffffffffffffffffffffffffffffffffffffff\n      and\n      0xffffffffffffffffffffffffffffffffffffffff\n      and\n      dup2\n      mstore\n      0x20\n      add\n      swap1\n      dup2\n      mstore\n      0x20\n      add\n      0x00\n      keccak256\n      sload\n        /* \"contracts/Token.sol\":1354:1361  _amount */\n      dup4\n        /* \"contracts/Token.sol\":1354:1381  _amount - claimed[_account] */\n      tag_251\n      swap2\n      swap1\n      tag_252\n      jump\t// in\n    tag_251:\n        /* \"contracts/Token.sol\":1354:1403  _amount - claimed[_account] - unclaimed[_account] */\n      tag_253\n      swap2\n      swap1\n      tag_252\n      jump\t// in\n    tag_253:\n        /* \"contracts/Token.sol\":1333:1403  uint256 _unclaimed = _amount - claimed[_account] - unclaimed[_account] */\n      swap1\n      pop\n        /* \"contracts/Token.sol\":1434:1435  0 */\n      0x00\n        /* \"contracts/Token.sol\":1421:1431  _unclaimed */\n      dup2\n        /* \"contracts/Token.sol\":1421:1435  _unclaimed > 0 */\n      gt\n        /* \"contracts/Token.sol\":1413:1472  require(_unclaimed > 0, 'claimable must be greater than 0') */\n      tag_254\n      jumpi\n      mload(0x40)\n      0x08c379a000000000000000000000000000000000000000000000000000000000\n      dup2\n      mstore\n      0x04\n      add\n      tag_255\n      swap1\n      tag_256\n      jump\t// in\n    tag_255:\n      mload(0x40)\n      dup1\n      swap2\n      sub\n      swap1\n      revert\n    tag_254:\n        /* \"contracts/Token.sol\":1482:1516  setUnclaimed(_account, _unclaimed) */\n      tag_257\n        /* \"contracts/Token.sol\":1495:1503  _account */\n      dup4\n        /* \"contracts/Token.sol\":1505:1515  _unclaimed */\n      dup3\n        /* \"contracts/Token.sol\":1482:1494  setUnclaimed */\n      tag_258\n        /* \"contracts/Token.sol\":1482:1516  setUnclaimed(_account, _unclaimed) */\n      jump\t// in\n    tag_257:\n        /* \"contracts/Token.sol\":1242:1523  {... */\n      pop\n        /* \"contracts/Token.sol\":1173:1523  function createClaimable(address _account, uint256 _amount) external {... */\n      pop\n      pop\n      jump\t// out\n        /* \"@openzeppelin/contracts/access/AccessControl.sol\":2909:3054  function hasRole(bytes32 role, address account) public view virtual override returns (bool) {... */\n    tag_130:\n        /* \"@openzeppelin/contracts/access/AccessControl.sol\":2995:2999  bool */\n      0x00\n        /* \"@openzeppelin/contracts/access/AccessControl.sol\":3018:3024  _roles */\n      0x05\n        /* \"@openzeppelin/contracts/access/AccessControl.sol\":3018:3030  _roles[role] */\n      0x00\n        /* \"@openzeppelin/contracts/access/AccessControl.sol\":3025:3029  role */\n      dup5\n        /* \"@openzeppelin/contracts/access/AccessControl.sol\":3018:3030  _roles[role] */\n      dup2\n      mstore\n      0x20\n      add\n      swap1\n      dup2\n      mstore\n      0x20\n      add\n      0x00\n      keccak256\n        /* \"@openzeppelin/contracts/access/AccessControl.sol\":3018:3038  _roles[role].members */\n      0x00\n      add\n        /* \"@openzeppelin/contracts/access/AccessControl.sol\":3018:3047  _roles[role].members[account] */\n      0x00\n        /* \"@openzeppelin/contracts/access/AccessControl.sol\":3039:3046  account */\n      dup4\n        /* \"@openzeppelin/contracts/access/AccessControl.sol\":3018:3047  _roles[role].members[account] */\n      0xffffffffffffffffffffffffffffffffffffffff\n      and\n      0xffffffffffffffffffffffffffffffffffffffff\n      and\n      dup2\n      mstore\n      0x20\n      add\n      swap1\n      dup2\n      mstore\n      0x20\n      add\n      0x00\n      keccak256\n      0x00\n      swap1\n      sload\n      swap1\n      0x0100\n      exp\n      swap1\n      div\n      0xff\n      and\n        /* \"@openzeppelin/contracts/access/AccessControl.sol\":3011:3047  return _roles[role].members[account] */\n      swap1\n      pop\n        /* \"@openzeppelin/contracts/access/AccessControl.sol\":2909:3054  function hasRole(bytes32 role, address account) public view virtual override returns (bool) {... */\n      swap3\n      swap2\n      pop\n      pop\n      jump\t// out\n        /* \"@openzeppelin/contracts/token/ERC20/ERC20.sol\":2367:2469  function symbol() public view virtual override returns (string memory) {... */\n    tag_134:\n        /* \"@openzeppelin/contracts/token/ERC20/ERC20.sol\":2423:2436  string memory */\n      0x60\n        /* \"@openzeppelin/contracts/token/ERC20/ERC20.sol\":2455:2462  _symbol */\n      0x04\n        /* \"@openzeppelin/contracts/token/ERC20/ERC20.sol\":2448:2462  return _symbol */\n      dup1\n      sload\n      tag_261\n      swap1\n      tag_184\n      jump\t// in\n    tag_261:\n      dup1\n      0x1f\n      add\n      0x20\n      dup1\n      swap2\n      div\n      mul\n      0x20\n      add\n      mload(0x40)\n      swap1\n      dup2\n      add\n      0x40\n      mstore\n      dup1\n      swap3\n      swap2\n      swap1\n      dup2\n      dup2\n      mstore\n      0x20\n      add\n      dup3\n      dup1\n      sload\n      tag_262\n      swap1\n      tag_184\n      jump\t// in\n    tag_262:\n      dup1\n      iszero\n      tag_263\n      jumpi\n      dup1\n      0x1f\n      lt\n      tag_264\n      jumpi\n      0x0100\n      dup1\n      dup4\n      sload\n      div\n      mul\n      dup4\n      mstore\n      swap2\n      0x20\n      add\n      swap2\n      jump(tag_263)\n    tag_264:\n      dup3\n      add\n      swap2\n      swap1\n      0x00\n      mstore\n      keccak256(0x00, 0x20)\n      swap1\n    tag_265:\n      dup2\n      sload\n      dup2\n      mstore\n      swap1\n      0x01\n      add\n      swap1\n      0x20\n      add\n      dup1\n      dup4\n      gt\n      tag_265\n      jumpi\n      dup3\n      swap1\n      sub\n      0x1f\n      and\n      dup3\n      add\n      swap2\n    tag_263:\n      pop\n      pop\n      pop\n      pop\n      pop\n      swap1\n      pop\n        /* \"@openzeppelin/contracts/token/ERC20/ERC20.sol\":2367:2469  function symbol() public view virtual override returns (string memory) {... */\n      swap1\n      jump\t// out\n        /* \"contracts/Token.sol\":793:957  function burn(address from, uint256 amount) public {... */\n    tag_139:\n        /* \"contracts/Token.sol\":862:894  hasRole(BURNER_ROLE, msg.sender) */\n      tag_267\n        /* \"contracts/Token.sol\":369:393  keccak256(\"BURNER_ROLE\") */\n      0x3c11d16cbaffd01df69ce1c404f6340ee057498f5f00246190ea54220576a848\n        /* \"contracts/Token.sol\":883:893  msg.sender */\n      caller\n        /* \"contracts/Token.sol\":862:869  hasRole */\n      tag_130\n        /* \"contracts/Token.sol\":862:894  hasRole(BURNER_ROLE, msg.sender) */\n      jump\t// in\n    tag_267:\n        /* \"contracts/Token.sol\":854:921  require(hasRole(BURNER_ROLE, msg.sender), \"Caller is not a burner\") */\n      tag_268\n      jumpi\n      mload(0x40)\n      0x08c379a000000000000000000000000000000000000000000000000000000000\n      dup2\n      mstore\n      0x04\n      add\n      tag_269\n      swap1\n      tag_270\n      jump\t// in\n    tag_269:\n      mload(0x40)\n      dup1\n      swap2\n      sub\n      swap1\n      revert\n    tag_268:\n        /* \"contracts/Token.sol\":931:950  _burn(from, amount) */\n      tag_271\n        /* \"contracts/Token.sol\":937:941  from */\n      dup3\n        /* \"contracts/Token.sol\":943:949  amount */\n      dup3\n        /* \"contracts/Token.sol\":931:936  _burn */\n      tag_272\n        /* \"contracts/Token.sol\":931:950  _burn(from, amount) */\n      jump\t// in\n    tag_271:\n        /* \"contracts/Token.sol\":793:957  function burn(address from, uint256 amount) public {... */\n      pop\n      pop\n      jump\t// out\n        /* \"@openzeppelin/contracts/access/AccessControl.sol\":2027:2076  bytes32 public constant DEFAULT_ADMIN_ROLE = 0x00 */\n    tag_142:\n        /* \"@openzeppelin/contracts/access/AccessControl.sol\":2072:2076  0x00 */\n      0x00\n        /* \"@openzeppelin/contracts/access/AccessControl.sol\":2027:2076  bytes32 public constant DEFAULT_ADMIN_ROLE = 0x00 */\n      dup1\n      shl\n      dup2\n      jump\t// out\n        /* \"@openzeppelin/contracts/token/ERC20/ERC20.sol\":6596:7025  function decreaseAllowance(address spender, uint256 subtractedValue) public virtual returns (bool) {... */\n    tag_147:\n        /* \"@openzeppelin/contracts/token/ERC20/ERC20.sol\":6689:6693  bool */\n      0x00\n        /* \"@openzeppelin/contracts/token/ERC20/ERC20.sol\":6705:6718  address owner */\n      dup1\n        /* \"@openzeppelin/contracts/token/ERC20/ERC20.sol\":6721:6733  _msgSender() */\n      tag_274\n        /* \"@openzeppelin/contracts/token/ERC20/ERC20.sol\":6721:6731  _msgSender */\n      tag_191\n        /* \"@openzeppelin/contracts/token/ERC20/ERC20.sol\":6721:6733  _msgSender() */\n      jump\t// in\n    tag_274:\n        /* \"@openzeppelin/contracts/token/ERC20/ERC20.sol\":6705:6733  address owner = _msgSender() */\n      swap1\n      pop\n        /* \"@openzeppelin/contracts/token/ERC20/ERC20.sol\":6743:6767  uint256 currentAllowance */\n      0x00\n        /* \"@openzeppelin/contracts/token/ERC20/ERC20.sol\":6770:6781  _allowances */\n      0x01\n        /* \"@openzeppelin/contracts/token/ERC20/ERC20.sol\":6770:6788  _allowances[owner] */\n      0x00\n        /* \"@openzeppelin/contracts/token/ERC20/ERC20.sol\":6782:6787  owner */\n      dup4\n        /* \"@openzeppelin/contracts/token/ERC20/ERC20.sol\":6770:6788  _allowances[owner] */\n      0xffffffffffffffffffffffffffffffffffffffff\n      and\n      0xffffffffffffffffffffffffffffffffffffffff\n      and\n      dup2\n      mstore\n      0x20\n      add\n      swap1\n      dup2\n      mstore\n      0x20\n      add\n      0x00\n      keccak256\n        /* \"@openzeppelin/contracts/token/ERC20/ERC20.sol\":6770:6797  _allowances[owner][spender] */\n      0x00\n        /* \"@openzeppelin/contracts/token/ERC20/ERC20.sol\":6789:6796  spender */\n      dup7\n        /* \"@openzeppelin/contracts/token/ERC20/ERC20.sol\":6770:6797  _allowances[owner][spender] */\n      0xffffffffffffffffffffffffffffffffffffffff\n      and\n      0xffffffffffffffffffffffffffffffffffffffff\n      and\n      dup2\n      mstore\n      0x20\n      add\n      swap1\n      dup2\n      mstore\n      0x20\n      add\n      0x00\n      keccak256\n      sload\n        /* \"@openzeppelin/contracts/token/ERC20/ERC20.sol\":6743:6797  uint256 currentAllowance = _allowances[owner][spender] */\n      swap1\n      pop\n        /* \"@openzeppelin/contracts/token/ERC20/ERC20.sol\":6835:6850  subtractedValue */\n      dup4\n        /* \"@openzeppelin/contracts/token/ERC20/ERC20.sol\":6815:6831  currentAllowance */\n      dup2\n        /* \"@openzeppelin/contracts/token/ERC20/ERC20.sol\":6815:6850  currentAllowance >= subtractedValue */\n      lt\n      iszero\n        /* \"@openzeppelin/contracts/token/ERC20/ERC20.sol\":6807:6892  require(currentAllowance >= subtractedValue, \"ERC20: decreased allowance below zero\") */\n      tag_275\n      jumpi\n      mload(0x40)\n      0x08c379a000000000000000000000000000000000000000000000000000000000\n      dup2\n      mstore\n      0x04\n      add\n      tag_276\n      swap1\n      tag_277\n      jump\t// in\n    tag_276:\n      mload(0x40)\n      dup1\n      swap2\n      sub\n      swap1\n      revert\n    tag_275:\n        /* \"@openzeppelin/contracts/token/ERC20/ERC20.sol\":6926:6986  _approve(owner, spender, currentAllowance - subtractedValue) */\n      tag_278\n        /* \"@openzeppelin/contracts/token/ERC20/ERC20.sol\":6935:6940  owner */\n      dup3\n        /* \"@openzeppelin/contracts/token/ERC20/ERC20.sol\":6942:6949  spender */\n      dup7\n        /* \"@openzeppelin/contracts/token/ERC20/ERC20.sol\":6970:6985  subtractedValue */\n      dup7\n        /* \"@openzeppelin/contracts/token/ERC20/ERC20.sol\":6951:6967  currentAllowance */\n      dup5\n        /* \"@openzeppelin/contracts/token/ERC20/ERC20.sol\":6951:6985  currentAllowance - subtractedValue */\n      sub\n        /* \"@openzeppelin/contracts/token/ERC20/ERC20.sol\":6926:6934  _approve */\n      tag_193\n        /* \"@openzeppelin/contracts/token/ERC20/ERC20.sol\":6926:6986  _approve(owner, spender, currentAllowance - subtractedValue) */\n      jump\t// in\n    tag_278:\n        /* \"@openzeppelin/contracts/token/ERC20/ERC20.sol\":7014:7018  true */\n      0x01\n        /* \"@openzeppelin/contracts/token/ERC20/ERC20.sol\":7007:7018  return true */\n      swap3\n      pop\n      pop\n      pop\n        /* \"@openzeppelin/contracts/token/ERC20/ERC20.sol\":6596:7025  function decreaseAllowance(address spender, uint256 subtractedValue) public virtual returns (bool) {... */\n      swap3\n      swap2\n      pop\n      pop\n      jump\t// out\n        /* \"@openzeppelin/contracts/token/ERC20/ERC20.sol\":3729:3918  function transfer(address to, uint256 amount) public virtual override returns (bool) {... */\n    tag_152:\n        /* \"@openzeppelin/contracts/token/ERC20/ERC20.sol\":3808:3812  bool */\n      0x00\n        /* \"@openzeppelin/contracts/token/ERC20/ERC20.sol\":3824:3837  address owner */\n      dup1\n        /* \"@openzeppelin/contracts/token/ERC20/ERC20.sol\":3840:3852  _msgSender() */\n      tag_280\n        /* \"@openzeppelin/contracts/token/ERC20/ERC20.sol\":3840:3850  _msgSender */\n      tag_191\n        /* \"@openzeppelin/contracts/token/ERC20/ERC20.sol\":3840:3852  _msgSender() */\n      jump\t// in\n    tag_280:\n        /* \"@openzeppelin/contracts/token/ERC20/ERC20.sol\":3824:3852  address owner = _msgSender() */\n      swap1\n      pop\n        /* \"@openzeppelin/contracts/token/ERC20/ERC20.sol\":3862:3890  _transfer(owner, to, amount) */\n      tag_281\n        /* \"@openzeppelin/contracts/token/ERC20/ERC20.sol\":3872:3877  owner */\n      dup2\n        /* \"@openzeppelin/contracts/token/ERC20/ERC20.sol\":3879:3881  to */\n      dup6\n        /* \"@openzeppelin/contracts/token/ERC20/ERC20.sol\":3883:3889  amount */\n      dup6\n        /* \"@openzeppelin/contracts/token/ERC20/ERC20.sol\":3862:3871  _transfer */\n      tag_200\n        /* \"@openzeppelin/contracts/token/ERC20/ERC20.sol\":3862:3890  _transfer(owner, to, amount) */\n      jump\t// in\n    tag_281:\n        /* \"@openzeppelin/contracts/token/ERC20/ERC20.sol\":3907:3911  true */\n      0x01\n        /* \"@openzeppelin/contracts/token/ERC20/ERC20.sol\":3900:3911  return true */\n      swap2\n      pop\n      pop\n        /* \"@openzeppelin/contracts/token/ERC20/ERC20.sol\":3729:3918  function transfer(address to, uint256 amount) public virtual override returns (bool) {... */\n      swap3\n      swap2\n      pop\n      pop\n      jump\t// out\n        /* \"contracts/Claim.sol\":210:249  mapping(address => uint) public claimed */\n    tag_157:\n      mstore(0x20, 0x07)\n      dup1\n      0x00\n      mstore\n      keccak256(0x00, 0x40)\n      0x00\n      swap2\n      pop\n      swap1\n      pop\n      sload\n      dup2\n      jump\t// out\n        /* \"contracts/Token.sol\":263:325  bytes32 public constant MINTER_ROLE = keccak256(\"MINTER_ROLE\") */\n    tag_161:\n        /* \"contracts/Token.sol\":301:325  keccak256(\"MINTER_ROLE\") */\n      0x9f2df0fed2c77648de5860a4cc508cd0818c85b8b8a1ab4ceeef8d981c8956a6\n        /* \"contracts/Token.sol\":263:325  bytes32 public constant MINTER_ROLE = keccak256(\"MINTER_ROLE\") */\n      dup2\n      jump\t// out\n        /* \"@openzeppelin/contracts/access/AccessControl.sol\":4766:4913  function revokeRole(bytes32 role, address account) public virtual override onlyRole(getRoleAdmin(role)) {... */\n    tag_166:\n        /* \"@openzeppelin/contracts/access/AccessControl.sol\":4850:4868  getRoleAdmin(role) */\n      tag_282\n        /* \"@openzeppelin/contracts/access/AccessControl.sol\":4863:4867  role */\n      dup3\n        /* \"@openzeppelin/contracts/access/AccessControl.sol\":4850:4862  getRoleAdmin */\n      tag_71\n        /* \"@openzeppelin/contracts/access/AccessControl.sol\":4850:4868  getRoleAdmin(role) */\n      jump\t// in\n    tag_282:\n        /* \"@openzeppelin/contracts/access/AccessControl.sol\":2505:2535  _checkRole(role, _msgSender()) */\n      tag_284\n        /* \"@openzeppelin/contracts/access/AccessControl.sol\":2516:2520  role */\n      dup2\n        /* \"@openzeppelin/contracts/access/AccessControl.sol\":2522:2534  _msgSender() */\n      tag_285\n        /* \"@openzeppelin/contracts/access/AccessControl.sol\":2522:2532  _msgSender */\n      tag_191\n        /* \"@openzeppelin/contracts/access/AccessControl.sol\":2522:2534  _msgSender() */\n      jump\t// in\n    tag_285:\n        /* \"@openzeppelin/contracts/access/AccessControl.sol\":2505:2515  _checkRole */\n      tag_206\n        /* \"@openzeppelin/contracts/access/AccessControl.sol\":2505:2535  _checkRole(role, _msgSender()) */\n      jump\t// in\n    tag_284:\n        /* \"@openzeppelin/contracts/access/AccessControl.sol\":4880:4906  _revokeRole(role, account) */\n      tag_287\n        /* \"@openzeppelin/contracts/access/AccessControl.sol\":4892:4896  role */\n      dup4\n        /* \"@openzeppelin/contracts/access/AccessControl.sol\":4898:4905  account */\n      dup4\n        /* \"@openzeppelin/contracts/access/AccessControl.sol\":4880:4891  _revokeRole */\n      tag_217\n        /* \"@openzeppelin/contracts/access/AccessControl.sol\":4880:4906  _revokeRole(role, account) */\n      jump\t// in\n    tag_287:\n        /* \"@openzeppelin/contracts/access/AccessControl.sol\":4766:4913  function revokeRole(bytes32 role, address account) public virtual override onlyRole(getRoleAdmin(role)) {... */\n      pop\n      pop\n      pop\n      jump\t// out\n        /* \"@openzeppelin/contracts/token/ERC20/ERC20.sol\":3976:4125  function allowance(address owner, address spender) public view virtual override returns (uint256) {... */\n    tag_171:\n        /* \"@openzeppelin/contracts/token/ERC20/ERC20.sol\":4065:4072  uint256 */\n      0x00\n        /* \"@openzeppelin/contracts/token/ERC20/ERC20.sol\":4091:4102  _allowances */\n      0x01\n        /* \"@openzeppelin/contracts/token/ERC20/ERC20.sol\":4091:4109  _allowances[owner] */\n      0x00\n        /* \"@openzeppelin/contracts/token/ERC20/ERC20.sol\":4103:4108  owner */\n      dup5\n        /* \"@openzeppelin/contracts/token/ERC20/ERC20.sol\":4091:4109  _allowances[owner] */\n      0xffffffffffffffffffffffffffffffffffffffff\n      and\n      0xffffffffffffffffffffffffffffffffffffffff\n      and\n      dup2\n      mstore\n      0x20\n      add\n      swap1\n      dup2\n      mstore\n      0x20\n      add\n      0x00\n      keccak256\n        /* \"@openzeppelin/contracts/token/ERC20/ERC20.sol\":4091:4118  _allowances[owner][spender] */\n      0x00\n        /* \"@openzeppelin/contracts/token/ERC20/ERC20.sol\":4110:4117  spender */\n      dup4\n        /* \"@openzeppelin/contracts/token/ERC20/ERC20.sol\":4091:4118  _allowances[owner][spender] */\n      0xffffffffffffffffffffffffffffffffffffffff\n      and\n      0xffffffffffffffffffffffffffffffffffffffff\n      and\n      dup2\n      mstore\n      0x20\n      add\n      swap1\n      dup2\n      mstore\n      0x20\n      add\n      0x00\n      keccak256\n      sload\n        /* \"@openzeppelin/contracts/token/ERC20/ERC20.sol\":4084:4118  return _allowances[owner][spender] */\n      swap1\n      pop\n        /* \"@openzeppelin/contracts/token/ERC20/ERC20.sol\":3976:4125  function allowance(address owner, address spender) public view virtual override returns (uint256) {... */\n      swap3\n      swap2\n      pop\n      pop\n      jump\t// out\n        /* \"contracts/Claim.sol\":1199:1308  function getClaimed(address _account) public view returns (uint256) {... */\n    tag_176:\n        /* \"contracts/Claim.sol\":1258:1265  uint256 */\n      0x00\n        /* \"contracts/Claim.sol\":1284:1291  claimed */\n      0x07\n        /* \"contracts/Claim.sol\":1284:1301  claimed[_account] */\n      0x00\n        /* \"contracts/Claim.sol\":1292:1300  _account */\n      dup4\n        /* \"contracts/Claim.sol\":1284:1301  claimed[_account] */\n      0xffffffffffffffffffffffffffffffffffffffff\n      and\n      0xffffffffffffffffffffffffffffffffffffffff\n      and\n      dup2\n      mstore\n      0x20\n      add\n      swap1\n      dup2\n      mstore\n      0x20\n      add\n      0x00\n      keccak256\n      sload\n        /* \"contracts/Claim.sol\":1277:1301  return claimed[_account] */\n      swap1\n      pop\n        /* \"contracts/Claim.sol\":1199:1308  function getClaimed(address _account) public view returns (uint256) {... */\n      swap2\n      swap1\n      pop\n      jump\t// out\n        /* \"@openzeppelin/contracts/utils/introspection/ERC165.sol\":829:984  function supportsInterface(bytes4 interfaceId) public view virtual override returns (bool) {... */\n    tag_181:\n        /* \"@openzeppelin/contracts/utils/introspection/ERC165.sol\":914:918  bool */\n      0x00\n        /* \"@openzeppelin/contracts/utils/introspection/ERC165.sol\":952:977  type(IERC165).interfaceId */\n      0x01ffc9a700000000000000000000000000000000000000000000000000000000\n        /* \"@openzeppelin/contracts/utils/introspection/ERC165.sol\":937:977  interfaceId == type(IERC165).interfaceId */\n      not(0xffffffffffffffffffffffffffffffffffffffffffffffffffffffff)\n      and\n        /* \"@openzeppelin/contracts/utils/introspection/ERC165.sol\":937:948  interfaceId */\n      dup3\n        /* \"@openzeppelin/contracts/utils/introspection/ERC165.sol\":937:977  interfaceId == type(IERC165).interfaceId */\n      not(0xffffffffffffffffffffffffffffffffffffffffffffffffffffffff)\n      and\n      eq\n        /* \"@openzeppelin/contracts/utils/introspection/ERC165.sol\":930:977  return interfaceId == type(IERC165).interfaceId */\n      swap1\n      pop\n        /* \"@openzeppelin/contracts/utils/introspection/ERC165.sol\":829:984  function supportsInterface(bytes4 interfaceId) public view virtual override returns (bool) {... */\n      swap2\n      swap1\n      pop\n      jump\t// out\n        /* \"@openzeppelin/contracts/utils/Context.sol\":640:736  function _msgSender() internal view virtual returns (address) {... */\n    tag_191:\n        /* \"@openzeppelin/contracts/utils/Context.sol\":693:700  address */\n      0x00\n        /* \"@openzeppelin/contracts/utils/Context.sol\":719:729  msg.sender */\n      caller\n        /* \"@openzeppelin/contracts/utils/Context.sol\":712:729  return msg.sender */\n      swap1\n      pop\n        /* \"@openzeppelin/contracts/utils/Context.sol\":640:736  function _msgSender() internal view virtual returns (address) {... */\n      swap1\n      jump\t// out\n        /* \"@openzeppelin/contracts/token/ERC20/ERC20.sol\":10123:10493  function _approve(... */\n    tag_193:\n        /* \"@openzeppelin/contracts/token/ERC20/ERC20.sol\":10271:10272  0 */\n      0x00\n        /* \"@openzeppelin/contracts/token/ERC20/ERC20.sol\":10254:10273  owner != address(0) */\n      0xffffffffffffffffffffffffffffffffffffffff\n      and\n        /* \"@openzeppelin/contracts/token/ERC20/ERC20.sol\":10254:10259  owner */\n      dup4\n        /* \"@openzeppelin/contracts/token/ERC20/ERC20.sol\":10254:10273  owner != address(0) */\n      0xffffffffffffffffffffffffffffffffffffffff\n      and\n      eq\n      iszero\n        /* \"@openzeppelin/contracts/token/ERC20/ERC20.sol\":10246:10314  require(owner != address(0), \"ERC20: approve from the zero address\") */\n      tag_293\n      jumpi\n      mload(0x40)\n      0x08c379a000000000000000000000000000000000000000000000000000000000\n      dup2\n      mstore\n      0x04\n      add\n      tag_294\n      swap1\n      tag_295\n      jump\t// in\n    tag_294:\n      mload(0x40)\n      dup1\n      swap2\n      sub\n      swap1\n      revert\n    tag_293:\n        /* \"@openzeppelin/contracts/token/ERC20/ERC20.sol\":10351:10352  0 */\n      0x00\n        /* \"@openzeppelin/contracts/token/ERC20/ERC20.sol\":10332:10353  spender != address(0) */\n      0xffffffffffffffffffffffffffffffffffffffff\n      and\n        /* \"@openzeppelin/contracts/token/ERC20/ERC20.sol\":10332:10339  spender */\n      dup3\n        /* \"@openzeppelin/contracts/token/ERC20/ERC20.sol\":10332:10353  spender != address(0) */\n      0xffffffffffffffffffffffffffffffffffffffff\n      and\n      eq\n      iszero\n        /* \"@openzeppelin/contracts/token/ERC20/ERC20.sol\":10324:10392  require(spender != address(0), \"ERC20: approve to the zero address\") */\n      tag_296\n      jumpi\n      mload(0x40)\n      0x08c379a000000000000000000000000000000000000000000000000000000000\n      dup2\n      mstore\n      0x04\n      add\n      tag_297\n      swap1\n      tag_298\n      jump\t// in\n    tag_297:\n      mload(0x40)\n      dup1\n      swap2\n      sub\n      swap1\n      revert\n    tag_296:\n        /* \"@openzeppelin/contracts/token/ERC20/ERC20.sol\":10433:10439  amount */\n      dup1\n        /* \"@openzeppelin/contracts/token/ERC20/ERC20.sol\":10403:10414  _allowances */\n      0x01\n        /* \"@openzeppelin/contracts/token/ERC20/ERC20.sol\":10403:10421  _allowances[owner] */\n      0x00\n        /* \"@openzeppelin/contracts/token/ERC20/ERC20.sol\":10415:10420  owner */\n      dup6\n        /* \"@openzeppelin/contracts/token/ERC20/ERC20.sol\":10403:10421  _allowances[owner] */\n      0xffffffffffffffffffffffffffffffffffffffff\n      and\n      0xffffffffffffffffffffffffffffffffffffffff\n      and\n      dup2\n      mstore\n      0x20\n      add\n      swap1\n      dup2\n      mstore\n      0x20\n      add\n      0x00\n      keccak256\n        /* \"@openzeppelin/contracts/token/ERC20/ERC20.sol\":10403:10430  _allowances[owner][spender] */\n      0x00\n        /* \"@openzeppelin/contracts/token/ERC20/ERC20.sol\":10422:10429  spender */\n      dup5\n        /* \"@openzeppelin/contracts/token/ERC20/ERC20.sol\":10403:10430  _allowances[owner][spender] */\n      0xffffffffffffffffffffffffffffffffffffffff\n      and\n      0xffffffffffffffffffffffffffffffffffffffff\n      and\n      dup2\n      mstore\n      0x20\n      add\n      swap1\n      dup2\n      mstore\n      0x20\n      add\n      0x00\n      keccak256\n        /* \"@openzeppelin/contracts/token/ERC20/ERC20.sol\":10403:10439  _allowances[owner][spender] = amount */\n      dup2\n      swap1\n      sstore\n      pop\n        /* \"@openzeppelin/contracts/token/ERC20/ERC20.sol\":10470:10477  spender */\n      dup2\n        /* \"@openzeppelin/contracts/token/ERC20/ERC20.sol\":10454:10486  Approval(owner, spender, amount) */\n      0xffffffffffffffffffffffffffffffffffffffff\n      and\n        /* \"@openzeppelin/contracts/token/ERC20/ERC20.sol\":10463:10468  owner */\n      dup4\n        /* \"@openzeppelin/contracts/token/ERC20/ERC20.sol\":10454:10486  Approval(owner, spender, amount) */\n      0xffffffffffffffffffffffffffffffffffffffff\n      and\n      0x8c5be1e5ebec7d5bd14f71427d1e84f3dd0314c0f7b2291e5b200ac8c7c3b925\n        /* \"@openzeppelin/contracts/token/ERC20/ERC20.sol\":10479:10485  amount */\n      dup4\n        /* \"@openzeppelin/contracts/token/ERC20/ERC20.sol\":10454:10486  Approval(owner, spender, amount) */\n      mload(0x40)\n      tag_299\n      swap2\n      swap1\n      tag_60\n      jump\t// in\n    tag_299:\n      mload(0x40)\n      dup1\n      swap2\n      sub\n      swap1\n      log3\n        /* \"@openzeppelin/contracts/token/ERC20/ERC20.sol\":10123:10493  function _approve(... */\n      pop\n      pop\n      pop\n      jump\t// out\n        /* \"@openzeppelin/contracts/token/ERC20/ERC20.sol\":10770:11211  function _spendAllowance(... */\n    tag_198:\n        /* \"@openzeppelin/contracts/token/ERC20/ERC20.sol\":10900:10924  uint256 currentAllowance */\n      0x00\n        /* \"@openzeppelin/contracts/token/ERC20/ERC20.sol\":10927:10952  allowance(owner, spender) */\n      tag_301\n        /* \"@openzeppelin/contracts/token/ERC20/ERC20.sol\":10937:10942  owner */\n      dup5\n        /* \"@openzeppelin/contracts/token/ERC20/ERC20.sol\":10944:10951  spender */\n      dup5\n        /* \"@openzeppelin/contracts/token/ERC20/ERC20.sol\":10927:10936  allowance */\n      tag_171\n        /* \"@openzeppelin/contracts/token/ERC20/ERC20.sol\":10927:10952  allowance(owner, spender) */\n      jump\t// in\n    tag_301:\n        /* \"@openzeppelin/contracts/token/ERC20/ERC20.sol\":10900:10952  uint256 currentAllowance = allowance(owner, spender) */\n      swap1\n      pop\n        /* \"@openzeppelin/contracts/token/ERC20/ERC20.sol\":10986:11003  type(uint256).max */\n      0xffffffffffffffffffffffffffffffffffffffffffffffffffffffffffffffff\n        /* \"@openzeppelin/contracts/token/ERC20/ERC20.sol\":10966:10982  currentAllowance */\n      dup2\n        /* \"@openzeppelin/contracts/token/ERC20/ERC20.sol\":10966:11003  currentAllowance != type(uint256).max */\n      eq\n        /* \"@openzeppelin/contracts/token/ERC20/ERC20.sol\":10962:11205  if (currentAllowance != type(uint256).max) {... */\n      tag_302\n      jumpi\n        /* \"@openzeppelin/contracts/token/ERC20/ERC20.sol\":11047:11053  amount */\n      dup2\n        /* \"@openzeppelin/contracts/token/ERC20/ERC20.sol\":11027:11043  currentAllowance */\n      dup2\n        /* \"@openzeppelin/contracts/token/ERC20/ERC20.sol\":11027:11053  currentAllowance >= amount */\n      lt\n      iszero\n        /* \"@openzeppelin/contracts/token/ERC20/ERC20.sol\":11019:11087  require(currentAllowance >= amount, \"ERC20: insufficient allowance\") */\n      tag_303\n      jumpi\n      mload(0x40)\n      0x08c379a000000000000000000000000000000000000000000000000000000000\n      dup2\n      mstore\n      0x04\n      add\n      tag_304\n      swap1\n      tag_305\n      jump\t// in\n    tag_304:\n      mload(0x40)\n      dup1\n      swap2\n      sub\n      swap1\n      revert\n    tag_303:\n        /* \"@openzeppelin/contracts/token/ERC20/ERC20.sol\":11129:11180  _approve(owner, spender, currentAllowance - amount) */\n      tag_306\n        /* \"@openzeppelin/contracts/token/ERC20/ERC20.sol\":11138:11143  owner */\n      dup5\n        /* \"@openzeppelin/contracts/token/ERC20/ERC20.sol\":11145:11152  spender */\n      dup5\n        /* \"@openzeppelin/contracts/token/ERC20/ERC20.sol\":11173:11179  amount */\n      dup5\n        /* \"@openzeppelin/contracts/token/ERC20/ERC20.sol\":11154:11170  currentAllowance */\n      dup5\n        /* \"@openzeppelin/contracts/token/ERC20/ERC20.sol\":11154:11179  currentAllowance - amount */\n      sub\n        /* \"@openzeppelin/contracts/token/ERC20/ERC20.sol\":11129:11137  _approve */\n      tag_193\n        /* \"@openzeppelin/contracts/token/ERC20/ERC20.sol\":11129:11180  _approve(owner, spender, currentAllowance - amount) */\n      jump\t// in\n    tag_306:\n        /* \"@openzeppelin/contracts/token/ERC20/ERC20.sol\":10962:11205  if (currentAllowance != type(uint256).max) {... */\n    tag_302:\n        /* \"@openzeppelin/contracts/token/ERC20/ERC20.sol\":10890:11211  {... */\n      pop\n        /* \"@openzeppelin/contracts/token/ERC20/ERC20.sol\":10770:11211  function _spendAllowance(... */\n      pop\n      pop\n      pop\n      jump\t// out\n        /* \"@openzeppelin/contracts/token/ERC20/ERC20.sol\":7488:8139  function _transfer(... */\n    tag_200:\n        /* \"@openzeppelin/contracts/token/ERC20/ERC20.sol\":7630:7631  0 */\n      0x00\n        /* \"@openzeppelin/contracts/token/ERC20/ERC20.sol\":7614:7632  from != address(0) */\n      0xffffffffffffffffffffffffffffffffffffffff\n      and\n        /* \"@openzeppelin/contracts/token/ERC20/ERC20.sol\":7614:7618  from */\n      dup4\n        /* \"@openzeppelin/contracts/token/ERC20/ERC20.sol\":7614:7632  from != address(0) */\n      0xffffffffffffffffffffffffffffffffffffffff\n      and\n      eq\n      iszero\n        /* \"@openzeppelin/contracts/token/ERC20/ERC20.sol\":7606:7674  require(from != address(0), \"ERC20: transfer from the zero address\") */\n      tag_308\n      jumpi\n      mload(0x40)\n      0x08c379a000000000000000000000000000000000000000000000000000000000\n      dup2\n      mstore\n      0x04\n      add\n      tag_309\n      swap1\n      tag_310\n      jump\t// in\n    tag_309:\n      mload(0x40)\n      dup1\n      swap2\n      sub\n      swap1\n      revert\n    tag_308:\n        /* \"@openzeppelin/contracts/token/ERC20/ERC20.sol\":7706:7707  0 */\n      0x00\n        /* \"@openzeppelin/contracts/token/ERC20/ERC20.sol\":7692:7708  to != address(0) */\n      0xffffffffffffffffffffffffffffffffffffffff\n      and\n        /* \"@openzeppelin/contracts/token/ERC20/ERC20.sol\":7692:7694  to */\n      dup3\n        /* \"@openzeppelin/contracts/token/ERC20/ERC20.sol\":7692:7708  to != address(0) */\n      0xffffffffffffffffffffffffffffffffffffffff\n      and\n      eq\n      iszero\n        /* \"@openzeppelin/contracts/token/ERC20/ERC20.sol\":7684:7748  require(to != address(0), \"ERC20: transfer to the zero address\") */\n      tag_311\n      jumpi\n      mload(0x40)\n      0x08c379a000000000000000000000000000000000000000000000000000000000\n      dup2\n      mstore\n      0x04\n      add\n      tag_312\n      swap1\n      tag_313\n      jump\t// in\n    tag_312:\n      mload(0x40)\n      dup1\n      swap2\n      sub\n      swap1\n      revert\n    tag_311:\n        /* \"@openzeppelin/contracts/token/ERC20/ERC20.sol\":7759:7797  _beforeTokenTransfer(from, to, amount) */\n      tag_314\n        /* \"@openzeppelin/contracts/token/ERC20/ERC20.sol\":7780:7784  from */\n      dup4\n        /* \"@openzeppelin/contracts/token/ERC20/ERC20.sol\":7786:7788  to */\n      dup4\n        /* \"@openzeppelin/contracts/token/ERC20/ERC20.sol\":7790:7796  amount */\n      dup4\n        /* \"@openzeppelin/contracts/token/ERC20/ERC20.sol\":7759:7779  _beforeTokenTransfer */\n      tag_315\n        /* \"@openzeppelin/contracts/token/ERC20/ERC20.sol\":7759:7797  _beforeTokenTransfer(from, to, amount) */\n      jump\t// in\n    tag_314:\n        /* \"@openzeppelin/contracts/token/ERC20/ERC20.sol\":7808:7827  uint256 fromBalance */\n      0x00\n        /* \"@openzeppelin/contracts/token/ERC20/ERC20.sol\":7830:7839  _balances */\n      dup1\n        /* \"@openzeppelin/contracts/token/ERC20/ERC20.sol\":7830:7845  _balances[from] */\n      0x00\n        /* \"@openzeppelin/contracts/token/ERC20/ERC20.sol\":7840:7844  from */\n      dup6\n        /* \"@openzeppelin/contracts/token/ERC20/ERC20.sol\":7830:7845  _balances[from] */\n      0xffffffffffffffffffffffffffffffffffffffff\n      and\n      0xffffffffffffffffffffffffffffffffffffffff\n      and\n      dup2\n      mstore\n      0x20\n      add\n      swap1\n      dup2\n      mstore\n      0x20\n      add\n      0x00\n      keccak256\n      sload\n        /* \"@openzeppelin/contracts/token/ERC20/ERC20.sol\":7808:7845  uint256 fromBalance = _balances[from] */\n      swap1\n      pop\n        /* \"@openzeppelin/contracts/token/ERC20/ERC20.sol\":7878:7884  amount */\n      dup2\n        /* \"@openzeppelin/contracts/token/ERC20/ERC20.sol\":7863:7874  fromBalance */\n      dup2\n        /* \"@openzeppelin/contracts/token/ERC20/ERC20.sol\":7863:7884  fromBalance >= amount */\n      lt\n      iszero\n        /* \"@openzeppelin/contracts/token/ERC20/ERC20.sol\":7855:7927  require(fromBalance >= amount, \"ERC20: transfer amount exceeds balance\") */\n      tag_316\n      jumpi\n      mload(0x40)\n      0x08c379a000000000000000000000000000000000000000000000000000000000\n      dup2\n      mstore\n      0x04\n      add\n      tag_317\n      swap1\n      tag_318\n      jump\t// in\n    tag_317:\n      mload(0x40)\n      dup1\n      swap2\n      sub\n      swap1\n      revert\n    tag_316:\n        /* \"@openzeppelin/contracts/token/ERC20/ERC20.sol\":7993:7999  amount */\n      dup2\n        /* \"@openzeppelin/contracts/token/ERC20/ERC20.sol\":7979:7990  fromBalance */\n      dup2\n        /* \"@openzeppelin/contracts/token/ERC20/ERC20.sol\":7979:7999  fromBalance - amount */\n      sub\n        /* \"@openzeppelin/contracts/token/ERC20/ERC20.sol\":7961:7970  _balances */\n      0x00\n        /* \"@openzeppelin/contracts/token/ERC20/ERC20.sol\":7961:7976  _balances[from] */\n      dup1\n        /* \"@openzeppelin/contracts/token/ERC20/ERC20.sol\":7971:7975  from */\n      dup7\n        /* \"@openzeppelin/contracts/token/ERC20/ERC20.sol\":7961:7976  _balances[from] */\n      0xffffffffffffffffffffffffffffffffffffffff\n      and\n      0xffffffffffffffffffffffffffffffffffffffff\n      and\n      dup2\n      mstore\n      0x20\n      add\n      swap1\n      dup2\n      mstore\n      0x20\n      add\n      0x00\n      keccak256\n        /* \"@openzeppelin/contracts/token/ERC20/ERC20.sol\":7961:7999  _balances[from] = fromBalance - amount */\n      dup2\n      swap1\n      sstore\n      pop\n        /* \"@openzeppelin/contracts/token/ERC20/ERC20.sol\":8036:8042  amount */\n      dup2\n        /* \"@openzeppelin/contracts/token/ERC20/ERC20.sol\":8019:8028  _balances */\n      0x00\n        /* \"@openzeppelin/contracts/token/ERC20/ERC20.sol\":8019:8032  _balances[to] */\n      dup1\n        /* \"@openzeppelin/contracts/token/ERC20/ERC20.sol\":8029:8031  to */\n      dup6\n        /* \"@openzeppelin/contracts/token/ERC20/ERC20.sol\":8019:8032  _balances[to] */\n      0xffffffffffffffffffffffffffffffffffffffff\n      and\n      0xffffffffffffffffffffffffffffffffffffffff\n      and\n      dup2\n      mstore\n      0x20\n      add\n      swap1\n      dup2\n      mstore\n      0x20\n      add\n      0x00\n      keccak256\n      0x00\n        /* \"@openzeppelin/contracts/token/ERC20/ERC20.sol\":8019:8042  _balances[to] += amount */\n      dup3\n      dup3\n      sload\n      tag_319\n      swap2\n      swap1\n      tag_222\n      jump\t// in\n    tag_319:\n      swap3\n      pop\n      pop\n      dup2\n      swap1\n      sstore\n      pop\n        /* \"@openzeppelin/contracts/token/ERC20/ERC20.sol\":8073:8075  to */\n      dup3\n        /* \"@openzeppelin/contracts/token/ERC20/ERC20.sol\":8058:8084  Transfer(from, to, amount) */\n      0xffffffffffffffffffffffffffffffffffffffff\n      and\n        /* \"@openzeppelin/contracts/token/ERC20/ERC20.sol\":8067:8071  from */\n      dup5\n        /* \"@openzeppelin/contracts/token/ERC20/ERC20.sol\":8058:8084  Transfer(from, to, amount) */\n      0xffffffffffffffffffffffffffffffffffffffff\n      and\n      0xddf252ad1be2c89b69c2b068fc378daa952ba7f163c4a11628f55a4df523b3ef\n        /* \"@openzeppelin/contracts/token/ERC20/ERC20.sol\":8077:8083  amount */\n      dup5\n        /* \"@openzeppelin/contracts/token/ERC20/ERC20.sol\":8058:8084  Transfer(from, to, amount) */\n      mload(0x40)\n      tag_320\n      swap2\n      swap1\n      tag_60\n      jump\t// in\n    tag_320:\n      mload(0x40)\n      dup1\n      swap2\n      sub\n      swap1\n      log3\n        /* \"@openzeppelin/contracts/token/ERC20/ERC20.sol\":8095:8132  _afterTokenTransfer(from, to, amount) */\n      tag_321\n        /* \"@openzeppelin/contracts/token/ERC20/ERC20.sol\":8115:8119  from */\n      dup5\n        /* \"@openzeppelin/contracts/token/ERC20/ERC20.sol\":8121:8123  to */\n      dup5\n        /* \"@openzeppelin/contracts/token/ERC20/ERC20.sol\":8125:8131  amount */\n      dup5\n        /* \"@openzeppelin/contracts/token/ERC20/ERC20.sol\":8095:8114  _afterTokenTransfer */\n      tag_322\n        /* \"@openzeppelin/contracts/token/ERC20/ERC20.sol\":8095:8132  _afterTokenTransfer(from, to, amount) */\n      jump\t// in\n    tag_321:\n        /* \"@openzeppelin/contracts/token/ERC20/ERC20.sol\":7596:8139  {... */\n      pop\n        /* \"@openzeppelin/contracts/token/ERC20/ERC20.sol\":7488:8139  function _transfer(... */\n      pop\n      pop\n      pop\n      jump\t// out\n        /* \"@openzeppelin/contracts/access/AccessControl.sol\":3335:3827  function _checkRole(bytes32 role, address account) internal view virtual {... */\n    tag_206:\n        /* \"@openzeppelin/contracts/access/AccessControl.sol\":3423:3445  hasRole(role, account) */\n      tag_324\n        /* \"@openzeppelin/contracts/access/AccessControl.sol\":3431:3435  role */\n      dup3\n        /* \"@openzeppelin/contracts/access/AccessControl.sol\":3437:3444  account */\n      dup3\n        /* \"@openzeppelin/contracts/access/AccessControl.sol\":3423:3430  hasRole */\n      tag_130\n        /* \"@openzeppelin/contracts/access/AccessControl.sol\":3423:3445  hasRole(role, account) */\n      jump\t// in\n    tag_324:\n        /* \"@openzeppelin/contracts/access/AccessControl.sol\":3418:3821  if (!hasRole(role, account)) {... */\n      tag_325\n      jumpi\n        /* \"@openzeppelin/contracts/access/AccessControl.sol\":3606:3647  Strings.toHexString(uint160(account), 20) */\n      tag_326\n        /* \"@openzeppelin/contracts/access/AccessControl.sol\":3634:3641  account */\n      dup2\n        /* \"@openzeppelin/contracts/access/AccessControl.sol\":3606:3647  Strings.toHexString(uint160(account), 20) */\n      0xffffffffffffffffffffffffffffffffffffffff\n      and\n        /* \"@openzeppelin/contracts/access/AccessControl.sol\":3644:3646  20 */\n      0x14\n        /* \"@openzeppelin/contracts/access/AccessControl.sol\":3606:3625  Strings.toHexString */\n      tag_327\n        /* \"@openzeppelin/contracts/access/AccessControl.sol\":3606:3647  Strings.toHexString(uint160(account), 20) */\n      jump\t// in\n    tag_326:\n        /* \"@openzeppelin/contracts/access/AccessControl.sol\":3718:3756  Strings.toHexString(uint256(role), 32) */\n      tag_328\n        /* \"@openzeppelin/contracts/access/AccessControl.sol\":3746:3750  role */\n      dup4\n        /* \"@openzeppelin/contracts/access/AccessControl.sol\":3738:3751  uint256(role) */\n      0x00\n      shr\n        /* \"@openzeppelin/contracts/access/AccessControl.sol\":3753:3755  32 */\n      0x20\n        /* \"@openzeppelin/contracts/access/AccessControl.sol\":3718:3737  Strings.toHexString */\n      tag_327\n        /* \"@openzeppelin/contracts/access/AccessControl.sol\":3718:3756  Strings.toHexString(uint256(role), 32) */\n      jump\t// in\n    tag_328:\n        /* \"@openzeppelin/contracts/access/AccessControl.sol\":3513:3778  abi.encodePacked(... */\n      add(0x20, mload(0x40))\n      tag_329\n      swap3\n      swap2\n      swap1\n      tag_330\n      jump\t// in\n    tag_329:\n      mload(0x40)\n      0x20\n      dup2\n      dup4\n      sub\n      sub\n      dup2\n      mstore\n      swap1\n      0x40\n      mstore\n        /* \"@openzeppelin/contracts/access/AccessControl.sol\":3461:3810  revert(... */\n      mload(0x40)\n      0x08c379a000000000000000000000000000000000000000000000000000000000\n      dup2\n      mstore\n      0x04\n      add\n      tag_331\n      swap2\n      swap1\n      tag_49\n      jump\t// in\n    tag_331:\n      mload(0x40)\n      dup1\n      swap2\n      sub\n      swap1\n      revert\n        /* \"@openzeppelin/contracts/access/AccessControl.sol\":3418:3821  if (!hasRole(role, account)) {... */\n    tag_325:\n        /* \"@openzeppelin/contracts/access/AccessControl.sol\":3335:3827  function _checkRole(bytes32 role, address account) internal view virtual {... */\n      pop\n      pop\n      jump\t// out\n        /* \"@openzeppelin/contracts/access/AccessControl.sol\":6861:7094  function _grantRole(bytes32 role, address account) internal virtual {... */\n    tag_209:\n        /* \"@openzeppelin/contracts/access/AccessControl.sol\":6944:6966  hasRole(role, account) */\n      tag_333\n        /* \"@openzeppelin/contracts/access/AccessControl.sol\":6952:6956  role */\n      dup3\n        /* \"@openzeppelin/contracts/access/AccessControl.sol\":6958:6965  account */\n      dup3\n        /* \"@openzeppelin/contracts/access/AccessControl.sol\":6944:6951  hasRole */\n      tag_130\n        /* \"@openzeppelin/contracts/access/AccessControl.sol\":6944:6966  hasRole(role, account) */\n      jump\t// in\n    tag_333:\n        /* \"@openzeppelin/contracts/access/AccessControl.sol\":6939:7088  if (!hasRole(role, account)) {... */\n      tag_334\n      jumpi\n        /* \"@openzeppelin/contracts/access/AccessControl.sol\":7014:7018  true */\n      0x01\n        /* \"@openzeppelin/contracts/access/AccessControl.sol\":6982:6988  _roles */\n      0x05\n        /* \"@openzeppelin/contracts/access/AccessControl.sol\":6982:6994  _roles[role] */\n      0x00\n        /* \"@openzeppelin/contracts/access/AccessControl.sol\":6989:6993  role */\n      dup5\n        /* \"@openzeppelin/contracts/access/AccessControl.sol\":6982:6994  _roles[role] */\n      dup2\n      mstore\n      0x20\n      add\n      swap1\n      dup2\n      mstore\n      0x20\n      add\n      0x00\n      keccak256\n        /* \"@openzeppelin/contracts/access/AccessControl.sol\":6982:7002  _roles[role].members */\n      0x00\n      add\n        /* \"@openzeppelin/contracts/access/AccessControl.sol\":6982:7011  _roles[role].members[account] */\n      0x00\n        /* \"@openzeppelin/contracts/access/AccessControl.sol\":7003:7010  account */\n      dup4\n        /* \"@openzeppelin/contracts/access/AccessControl.sol\":6982:7011  _roles[role].members[account] */\n      0xffffffffffffffffffffffffffffffffffffffff\n      and\n      0xffffffffffffffffffffffffffffffffffffffff\n      and\n      dup2\n      mstore\n      0x20\n      add\n      swap1\n      dup2\n      mstore\n      0x20\n      add\n      0x00\n      keccak256\n      0x00\n        /* \"@openzeppelin/contracts/access/AccessControl.sol\":6982:7018  _roles[role].members[account] = true */\n      0x0100\n      exp\n      dup2\n      sload\n      dup2\n      0xff\n      mul\n      not\n      and\n      swap1\n      dup4\n      iszero\n      iszero\n      mul\n      or\n      swap1\n      sstore\n      pop\n        /* \"@openzeppelin/contracts/access/AccessControl.sol\":7064:7076  _msgSender() */\n      tag_335\n        /* \"@openzeppelin/contracts/access/AccessControl.sol\":7064:7074  _msgSender */\n      tag_191\n        /* \"@openzeppelin/contracts/access/AccessControl.sol\":7064:7076  _msgSender() */\n      jump\t// in\n    tag_335:\n        /* \"@openzeppelin/contracts/access/AccessControl.sol\":7037:7077  RoleGranted(role, account, _msgSender()) */\n      0xffffffffffffffffffffffffffffffffffffffff\n      and\n        /* \"@openzeppelin/contracts/access/AccessControl.sol\":7055:7062  account */\n      dup2\n        /* \"@openzeppelin/contracts/access/AccessControl.sol\":7037:7077  RoleGranted(role, account, _msgSender()) */\n      0xffffffffffffffffffffffffffffffffffffffff\n      and\n        /* \"@openzeppelin/contracts/access/AccessControl.sol\":7049:7053  role */\n      dup4\n        /* \"@openzeppelin/contracts/access/AccessControl.sol\":7037:7077  RoleGranted(role, account, _msgSender()) */\n      0x2f8788117e7eff1d82e926ec794901d17c78024a50270940304540a733656f0d\n      mload(0x40)\n      mload(0x40)\n      dup1\n      swap2\n      sub\n      swap1\n      log4\n        /* \"@openzeppelin/contracts/access/AccessControl.sol\":6939:7088  if (!hasRole(role, account)) {... */\n    tag_334:\n        /* \"@openzeppelin/contracts/access/AccessControl.sol\":6861:7094  function _grantRole(bytes32 role, address account) internal virtual {... */\n      pop\n      pop\n      jump\t// out\n        /* \"@openzeppelin/contracts/access/AccessControl.sol\":7219:7453  function _revokeRole(bytes32 role, address account) internal virtual {... */\n    tag_217:\n        /* \"@openzeppelin/contracts/access/AccessControl.sol\":7302:7324  hasRole(role, account) */\n      tag_337\n        /* \"@openzeppelin/contracts/access/AccessControl.sol\":7310:7314  role */\n      dup3\n        /* \"@openzeppelin/contracts/access/AccessControl.sol\":7316:7323  account */\n      dup3\n        /* \"@openzeppelin/contracts/access/AccessControl.sol\":7302:7309  hasRole */\n      tag_130\n        /* \"@openzeppelin/contracts/access/AccessControl.sol\":7302:7324  hasRole(role, account) */\n      jump\t// in\n    tag_337:\n        /* \"@openzeppelin/contracts/access/AccessControl.sol\":7298:7447  if (hasRole(role, account)) {... */\n      iszero\n      tag_338\n      jumpi\n        /* \"@openzeppelin/contracts/access/AccessControl.sol\":7372:7377  false */\n      0x00\n        /* \"@openzeppelin/contracts/access/AccessControl.sol\":7340:7346  _roles */\n      0x05\n        /* \"@openzeppelin/contracts/access/AccessControl.sol\":7340:7352  _roles[role] */\n      0x00\n        /* \"@openzeppelin/contracts/access/AccessControl.sol\":7347:7351  role */\n      dup5\n        /* \"@openzeppelin/contracts/access/AccessControl.sol\":7340:7352  _roles[role] */\n      dup2\n      mstore\n      0x20\n      add\n      swap1\n      dup2\n      mstore\n      0x20\n      add\n      0x00\n      keccak256\n        /* \"@openzeppelin/contracts/access/AccessControl.sol\":7340:7360  _roles[role].members */\n      0x00\n      add\n        /* \"@openzeppelin/contracts/access/AccessControl.sol\":7340:7369  _roles[role].members[account] */\n      0x00\n        /* \"@openzeppelin/contracts/access/AccessControl.sol\":7361:7368  account */\n      dup4\n        /* \"@openzeppelin/contracts/access/AccessControl.sol\":7340:7369  _roles[role].members[account] */\n      0xffffffffffffffffffffffffffffffffffffffff\n      and\n      0xffffffffffffffffffffffffffffffffffffffff\n      and\n      dup2\n      mstore\n      0x20\n      add\n      swap1\n      dup2\n      mstore\n      0x20\n      add\n      0x00\n      keccak256\n      0x00\n        /* \"@openzeppelin/contracts/access/AccessControl.sol\":7340:7377  _roles[role].members[account] = false */\n      0x0100\n      exp\n      dup2\n      sload\n      dup2\n      0xff\n      mul\n      not\n      and\n      swap1\n      dup4\n      iszero\n      iszero\n      mul\n      or\n      swap1\n      sstore\n      pop\n        /* \"@openzeppelin/contracts/access/AccessControl.sol\":7423:7435  _msgSender() */\n      tag_339\n        /* \"@openzeppelin/contracts/access/AccessControl.sol\":7423:7433  _msgSender */\n      tag_191\n        /* \"@openzeppelin/contracts/access/AccessControl.sol\":7423:7435  _msgSender() */\n      jump\t// in\n    tag_339:\n        /* \"@openzeppelin/contracts/access/AccessControl.sol\":7396:7436  RoleRevoked(role, account, _msgSender()) */\n      0xffffffffffffffffffffffffffffffffffffffff\n      and\n        /* \"@openzeppelin/contracts/access/AccessControl.sol\":7414:7421  account */\n      dup2\n        /* \"@openzeppelin/contracts/access/AccessControl.sol\":7396:7436  RoleRevoked(role, account, _msgSender()) */\n      0xffffffffffffffffffffffffffffffffffffffff\n      and\n        /* \"@openzeppelin/contracts/access/AccessControl.sol\":7408:7412  role */\n      dup4\n        /* \"@openzeppelin/contracts/access/AccessControl.sol\":7396:7436  RoleRevoked(role, account, _msgSender()) */\n      0xf6391f5c32d9c69d2a47ea670b442974b53935d1edc7fd64eb21e047a839171b\n      mload(0x40)\n      mload(0x40)\n      dup1\n      swap2\n      sub\n      swap1\n      log4\n        /* \"@openzeppelin/contracts/access/AccessControl.sol\":7298:7447  if (hasRole(role, account)) {... */\n    tag_338:\n        /* \"@openzeppelin/contracts/access/AccessControl.sol\":7219:7453  function _revokeRole(bytes32 role, address account) internal virtual {... */\n      pop\n      pop\n      jump\t// out\n        /* \"@openzeppelin/contracts/token/ERC20/ERC20.sol\":8415:8804  function _mint(address account, uint256 amount) internal virtual {... */\n    tag_230:\n        /* \"@openzeppelin/contracts/token/ERC20/ERC20.sol\":8517:8518  0 */\n      0x00\n        /* \"@openzeppelin/contracts/token/ERC20/ERC20.sol\":8498:8519  account != address(0) */\n      0xffffffffffffffffffffffffffffffffffffffff\n      and\n        /* \"@openzeppelin/contracts/token/ERC20/ERC20.sol\":8498:8505  account */\n      dup3\n        /* \"@openzeppelin/contracts/token/ERC20/ERC20.sol\":8498:8519  account != address(0) */\n      0xffffffffffffffffffffffffffffffffffffffff\n      and\n      eq\n      iszero\n        /* \"@openzeppelin/contracts/token/ERC20/ERC20.sol\":8490:8555  require(account != address(0), \"ERC20: mint to the zero address\") */\n      tag_341\n      jumpi\n      mload(0x40)\n      0x08c379a000000000000000000000000000000000000000000000000000000000\n      dup2\n      mstore\n      0x04\n      add\n      tag_342\n      swap1\n      tag_343\n      jump\t// in\n    tag_342:\n      mload(0x40)\n      dup1\n      swap2\n      sub\n      swap1\n      revert\n    tag_341:\n        /* \"@openzeppelin/contracts/token/ERC20/ERC20.sol\":8566:8615  _beforeTokenTransfer(address(0), account, amount) */\n      tag_344\n        /* \"@openzeppelin/contracts/token/ERC20/ERC20.sol\":8595:8596  0 */\n      0x00\n        /* \"@openzeppelin/contracts/token/ERC20/ERC20.sol\":8599:8606  account */\n      dup4\n        /* \"@openzeppelin/contracts/token/ERC20/ERC20.sol\":8608:8614  amount */\n      dup4\n        /* \"@openzeppelin/contracts/token/ERC20/ERC20.sol\":8566:8586  _beforeTokenTransfer */\n      tag_315\n        /* \"@openzeppelin/contracts/token/ERC20/ERC20.sol\":8566:8615  _beforeTokenTransfer(address(0), account, amount) */\n      jump\t// in\n    tag_344:\n        /* \"@openzeppelin/contracts/token/ERC20/ERC20.sol\":8642:8648  amount */\n      dup1\n        /* \"@openzeppelin/contracts/token/ERC20/ERC20.sol\":8626:8638  _totalSupply */\n      0x02\n      0x00\n        /* \"@openzeppelin/contracts/token/ERC20/ERC20.sol\":8626:8648  _totalSupply += amount */\n      dup3\n      dup3\n      sload\n      tag_345\n      swap2\n      swap1\n      tag_222\n      jump\t// in\n    tag_345:\n      swap3\n      pop\n      pop\n      dup2\n      swap1\n      sstore\n      pop\n        /* \"@openzeppelin/contracts/token/ERC20/ERC20.sol\":8680:8686  amount */\n      dup1\n        /* \"@openzeppelin/contracts/token/ERC20/ERC20.sol\":8658:8667  _balances */\n      0x00\n        /* \"@openzeppelin/contracts/token/ERC20/ERC20.sol\":8658:8676  _balances[account] */\n      dup1\n        /* \"@openzeppelin/contracts/token/ERC20/ERC20.sol\":8668:8675  account */\n      dup5\n        /* \"@openzeppelin/contracts/token/ERC20/ERC20.sol\":8658:8676  _balances[account] */\n      0xffffffffffffffffffffffffffffffffffffffff\n      and\n      0xffffffffffffffffffffffffffffffffffffffff\n      and\n      dup2\n      mstore\n      0x20\n      add\n      swap1\n      dup2\n      mstore\n      0x20\n      add\n      0x00\n      keccak256\n      0x00\n        /* \"@openzeppelin/contracts/token/ERC20/ERC20.sol\":8658:8686  _balances[account] += amount */\n      dup3\n      dup3\n      sload\n      tag_346\n      swap2\n      swap1\n      tag_222\n      jump\t// in\n    tag_346:\n      swap3\n      pop\n      pop\n      dup2\n      swap1\n      sstore\n      pop\n        /* \"@openzeppelin/contracts/token/ERC20/ERC20.sol\":8722:8729  account */\n      dup2\n        /* \"@openzeppelin/contracts/token/ERC20/ERC20.sol\":8701:8738  Transfer(address(0), account, amount) */\n      0xffffffffffffffffffffffffffffffffffffffff\n      and\n        /* \"@openzeppelin/contracts/token/ERC20/ERC20.sol\":8718:8719  0 */\n      0x00\n        /* \"@openzeppelin/contracts/token/ERC20/ERC20.sol\":8701:8738  Transfer(address(0), account, amount) */\n      0xffffffffffffffffffffffffffffffffffffffff\n      and\n      0xddf252ad1be2c89b69c2b068fc378daa952ba7f163c4a11628f55a4df523b3ef\n        /* \"@openzeppelin/contracts/token/ERC20/ERC20.sol\":8731:8737  amount */\n      dup4\n        /* \"@openzeppelin/contracts/token/ERC20/ERC20.sol\":8701:8738  Transfer(address(0), account, amount) */\n      mload(0x40)\n      tag_347\n      swap2\n      swap1\n      tag_60\n      jump\t// in\n    tag_347:\n      mload(0x40)\n      dup1\n      swap2\n      sub\n      swap1\n      log3\n        /* \"@openzeppelin/contracts/token/ERC20/ERC20.sol\":8749:8797  _afterTokenTransfer(address(0), account, amount) */\n      tag_348\n        /* \"@openzeppelin/contracts/token/ERC20/ERC20.sol\":8777:8778  0 */\n      0x00\n        /* \"@openzeppelin/contracts/token/ERC20/ERC20.sol\":8781:8788  account */\n      dup4\n        /* \"@openzeppelin/contracts/token/ERC20/ERC20.sol\":8790:8796  amount */\n      dup4\n        /* \"@openzeppelin/contracts/token/ERC20/ERC20.sol\":8749:8768  _afterTokenTransfer */\n      tag_322\n        /* \"@openzeppelin/contracts/token/ERC20/ERC20.sol\":8749:8797  _afterTokenTransfer(address(0), account, amount) */\n      jump\t// in\n    tag_348:\n        /* \"@openzeppelin/contracts/token/ERC20/ERC20.sol\":8415:8804  function _mint(address account, uint256 amount) internal virtual {... */\n      pop\n      pop\n      jump\t// out\n        /* \"contracts/Claim.sol\":429:536  function setUnclaimed(address _account, uint256 _amt) internal {... */\n    tag_258:\n        /* \"contracts/Claim.sol\":525:529  _amt */\n      dup1\n        /* \"contracts/Claim.sol\":502:511  unclaimed */\n      0x06\n        /* \"contracts/Claim.sol\":502:521  unclaimed[_account] */\n      0x00\n        /* \"contracts/Claim.sol\":512:520  _account */\n      dup5\n        /* \"contracts/Claim.sol\":502:521  unclaimed[_account] */\n      0xffffffffffffffffffffffffffffffffffffffff\n      and\n      0xffffffffffffffffffffffffffffffffffffffff\n      and\n      dup2\n      mstore\n      0x20\n      add\n      swap1\n      dup2\n      mstore\n      0x20\n      add\n      0x00\n      keccak256\n      0x00\n        /* \"contracts/Claim.sol\":502:529  unclaimed[_account] += _amt */\n      dup3\n      dup3\n      sload\n      tag_350\n      swap2\n      swap1\n      tag_222\n      jump\t// in\n    tag_350:\n      swap3\n      pop\n      pop\n      dup2\n      swap1\n      sstore\n      pop\n        /* \"contracts/Claim.sol\":429:536  function setUnclaimed(address _account, uint256 _amt) internal {... */\n      pop\n      pop\n      jump\t// out\n        /* \"@openzeppelin/contracts/token/ERC20/ERC20.sol\":9124:9700  function _burn(address account, uint256 amount) internal virtual {... */\n    tag_272:\n        /* \"@openzeppelin/contracts/token/ERC20/ERC20.sol\":9226:9227  0 */\n      0x00\n        /* \"@openzeppelin/contracts/token/ERC20/ERC20.sol\":9207:9228  account != address(0) */\n      0xffffffffffffffffffffffffffffffffffffffff\n      and\n        /* \"@openzeppelin/contracts/token/ERC20/ERC20.sol\":9207:9214  account */\n      dup3\n        /* \"@openzeppelin/contracts/token/ERC20/ERC20.sol\":9207:9228  account != address(0) */\n      0xffffffffffffffffffffffffffffffffffffffff\n      and\n      eq\n      iszero\n        /* \"@openzeppelin/contracts/token/ERC20/ERC20.sol\":9199:9266  require(account != address(0), \"ERC20: burn from the zero address\") */\n      tag_352\n      jumpi\n      mload(0x40)\n      0x08c379a000000000000000000000000000000000000000000000000000000000\n      dup2\n      mstore\n      0x04\n      add\n      tag_353\n      swap1\n      tag_354\n      jump\t// in\n    tag_353:\n      mload(0x40)\n      dup1\n      swap2\n      sub\n      swap1\n      revert\n    tag_352:\n        /* \"@openzeppelin/contracts/token/ERC20/ERC20.sol\":9277:9326  _beforeTokenTransfer(account, address(0), amount) */\n      tag_355\n        /* \"@openzeppelin/contracts/token/ERC20/ERC20.sol\":9298:9305  account */\n      dup3\n        /* \"@openzeppelin/contracts/token/ERC20/ERC20.sol\":9315:9316  0 */\n      0x00\n        /* \"@openzeppelin/contracts/token/ERC20/ERC20.sol\":9319:9325  amount */\n      dup4\n        /* \"@openzeppelin/contracts/token/ERC20/ERC20.sol\":9277:9297  _beforeTokenTransfer */\n      tag_315\n        /* \"@openzeppelin/contracts/token/ERC20/ERC20.sol\":9277:9326  _beforeTokenTransfer(account, address(0), amount) */\n      jump\t// in\n    tag_355:\n        /* \"@openzeppelin/contracts/token/ERC20/ERC20.sol\":9337:9359  uint256 accountBalance */\n      0x00\n        /* \"@openzeppelin/contracts/token/ERC20/ERC20.sol\":9362:9371  _balances */\n      dup1\n        /* \"@openzeppelin/contracts/token/ERC20/ERC20.sol\":9362:9380  _balances[account] */\n      0x00\n        /* \"@openzeppelin/contracts/token/ERC20/ERC20.sol\":9372:9379  account */\n      dup5\n        /* \"@openzeppelin/contracts/token/ERC20/ERC20.sol\":9362:9380  _balances[account] */\n      0xffffffffffffffffffffffffffffffffffffffff\n      and\n      0xffffffffffffffffffffffffffffffffffffffff\n      and\n      dup2\n      mstore\n      0x20\n      add\n      swap1\n      dup2\n      mstore\n      0x20\n      add\n      0x00\n      keccak256\n      sload\n        /* \"@openzeppelin/contracts/token/ERC20/ERC20.sol\":9337:9380  uint256 accountBalance = _balances[account] */\n      swap1\n      pop\n        /* \"@openzeppelin/contracts/token/ERC20/ERC20.sol\":9416:9422  amount */\n      dup2\n        /* \"@openzeppelin/contracts/token/ERC20/ERC20.sol\":9398:9412  accountBalance */\n      dup2\n        /* \"@openzeppelin/contracts/token/ERC20/ERC20.sol\":9398:9422  accountBalance >= amount */\n      lt\n      iszero\n        /* \"@openzeppelin/contracts/token/ERC20/ERC20.sol\":9390:9461  require(accountBalance >= amount, \"ERC20: burn amount exceeds balance\") */\n      tag_356\n      jumpi\n      mload(0x40)\n      0x08c379a000000000000000000000000000000000000000000000000000000000\n      dup2\n      mstore\n      0x04\n      add\n      tag_357\n      swap1\n      tag_358\n      jump\t// in\n    tag_357:\n      mload(0x40)\n      dup1\n      swap2\n      sub\n      swap1\n      revert\n    tag_356:\n        /* \"@openzeppelin/contracts/token/ERC20/ERC20.sol\":9533:9539  amount */\n      dup2\n        /* \"@openzeppelin/contracts/token/ERC20/ERC20.sol\":9516:9530  accountBalance */\n      dup2\n        /* \"@openzeppelin/contracts/token/ERC20/ERC20.sol\":9516:9539  accountBalance - amount */\n      sub\n        /* \"@openzeppelin/contracts/token/ERC20/ERC20.sol\":9495:9504  _balances */\n      0x00\n        /* \"@openzeppelin/contracts/token/ERC20/ERC20.sol\":9495:9513  _balances[account] */\n      dup1\n        /* \"@openzeppelin/contracts/token/ERC20/ERC20.sol\":9505:9512  account */\n      dup6\n        /* \"@openzeppelin/contracts/token/ERC20/ERC20.sol\":9495:9513  _balances[account] */\n      0xffffffffffffffffffffffffffffffffffffffff\n      and\n      0xffffffffffffffffffffffffffffffffffffffff\n      and\n      dup2\n      mstore\n      0x20\n      add\n      swap1\n      dup2\n      mstore\n      0x20\n      add\n      0x00\n      keccak256\n        /* \"@openzeppelin/contracts/token/ERC20/ERC20.sol\":9495:9539  _balances[account] = accountBalance - amount */\n      dup2\n      swap1\n      sstore\n      pop\n        /* \"@openzeppelin/contracts/token/ERC20/ERC20.sol\":9575:9581  amount */\n      dup2\n        /* \"@openzeppelin/contracts/token/ERC20/ERC20.sol\":9559:9571  _totalSupply */\n      0x02\n      0x00\n        /* \"@openzeppelin/contracts/token/ERC20/ERC20.sol\":9559:9581  _totalSupply -= amount */\n      dup3\n      dup3\n      sload\n      tag_359\n      swap2\n      swap1\n      tag_252\n      jump\t// in\n    tag_359:\n      swap3\n      pop\n      pop\n      dup2\n      swap1\n      sstore\n      pop\n        /* \"@openzeppelin/contracts/token/ERC20/ERC20.sol\":9623:9624  0 */\n      0x00\n        /* \"@openzeppelin/contracts/token/ERC20/ERC20.sol\":9597:9634  Transfer(account, address(0), amount) */\n      0xffffffffffffffffffffffffffffffffffffffff\n      and\n        /* \"@openzeppelin/contracts/token/ERC20/ERC20.sol\":9606:9613  account */\n      dup4\n        /* \"@openzeppelin/contracts/token/ERC20/ERC20.sol\":9597:9634  Transfer(account, address(0), amount) */\n      0xffffffffffffffffffffffffffffffffffffffff\n      and\n      0xddf252ad1be2c89b69c2b068fc378daa952ba7f163c4a11628f55a4df523b3ef\n        /* \"@openzeppelin/contracts/token/ERC20/ERC20.sol\":9627:9633  amount */\n      dup5\n        /* \"@openzeppelin/contracts/token/ERC20/ERC20.sol\":9597:9634  Transfer(account, address(0), amount) */\n      mload(0x40)\n      tag_360\n      swap2\n      swap1\n      tag_60\n      jump\t// in\n    tag_360:\n      mload(0x40)\n      dup1\n      swap2\n      sub\n      swap1\n      log3\n        /* \"@openzeppelin/contracts/token/ERC20/ERC20.sol\":9645:9693  _afterTokenTransfer(account, address(0), amount) */\n      tag_361\n        /* \"@openzeppelin/contracts/token/ERC20/ERC20.sol\":9665:9672  account */\n      dup4\n        /* \"@openzeppelin/contracts/token/ERC20/ERC20.sol\":9682:9683  0 */\n      0x00\n        /* \"@openzeppelin/contracts/token/ERC20/ERC20.sol\":9686:9692  amount */\n      dup5\n        /* \"@openzeppelin/contracts/token/ERC20/ERC20.sol\":9645:9664  _afterTokenTransfer */\n      tag_322\n        /* \"@openzeppelin/contracts/token/ERC20/ERC20.sol\":9645:9693  _afterTokenTransfer(account, address(0), amount) */\n      jump\t// in\n    tag_361:\n        /* \"@openzeppelin/contracts/token/ERC20/ERC20.sol\":9189:9700  {... */\n      pop\n        /* \"@openzeppelin/contracts/token/ERC20/ERC20.sol\":9124:9700  function _burn(address account, uint256 amount) internal virtual {... */\n      pop\n      pop\n      jump\t// out\n        /* \"@openzeppelin/contracts/token/ERC20/ERC20.sol\":11795:11916  function _beforeTokenTransfer(... */\n    tag_315:\n      pop\n      pop\n      pop\n      jump\t// out\n        /* \"@openzeppelin/contracts/token/ERC20/ERC20.sol\":12504:12624  function _afterTokenTransfer(... */\n    tag_322:\n      pop\n      pop\n      pop\n      jump\t// out\n        /* \"@openzeppelin/contracts/utils/Strings.sol\":1588:2029  function toHexString(uint256 value, uint256 length) internal pure returns (string memory) {... */\n    tag_327:\n        /* \"@openzeppelin/contracts/utils/Strings.sol\":1663:1676  string memory */\n      0x60\n        /* \"@openzeppelin/contracts/utils/Strings.sol\":1688:1707  bytes memory buffer */\n      0x00\n        /* \"@openzeppelin/contracts/utils/Strings.sol\":1733:1734  2 */\n      0x02\n        /* \"@openzeppelin/contracts/utils/Strings.sol\":1724:1730  length */\n      dup4\n        /* \"@openzeppelin/contracts/utils/Strings.sol\":1720:1721  2 */\n      0x02\n        /* \"@openzeppelin/contracts/utils/Strings.sol\":1720:1730  2 * length */\n      tag_365\n      swap2\n      swap1\n      tag_237\n      jump\t// in\n    tag_365:\n        /* \"@openzeppelin/contracts/utils/Strings.sol\":1720:1734  2 * length + 2 */\n      tag_366\n      swap2\n      swap1\n      tag_222\n      jump\t// in\n    tag_366:\n        /* \"@openzeppelin/contracts/utils/Strings.sol\":1710:1735  new bytes(2 * length + 2) */\n      0xffffffffffffffff\n      dup2\n      gt\n      iszero\n      tag_367\n      jumpi\n      tag_368\n      tag_369\n      jump\t// in\n    tag_368:\n    tag_367:\n      mload(0x40)\n      swap1\n      dup1\n      dup3\n      mstore\n      dup1\n      0x1f\n      add\n      not(0x1f)\n      and\n      0x20\n      add\n      dup3\n      add\n      0x40\n      mstore\n      dup1\n      iszero\n      tag_370\n      jumpi\n      dup2\n      0x20\n      add\n      0x01\n      dup3\n      mul\n      dup1\n      calldatasize\n      dup4\n      calldatacopy\n      dup1\n      dup3\n      add\n      swap2\n      pop\n      pop\n      swap1\n      pop\n    tag_370:\n      pop\n        /* \"@openzeppelin/contracts/utils/Strings.sol\":1688:1735  bytes memory buffer = new bytes(2 * length + 2) */\n      swap1\n      pop\n        /* \"@openzeppelin/contracts/utils/Strings.sol\":1745:1760  buffer[0] = \"0\" */\n      0x3000000000000000000000000000000000000000000000000000000000000000\n        /* \"@openzeppelin/contracts/utils/Strings.sol\":1745:1751  buffer */\n      dup2\n        /* \"@openzeppelin/contracts/utils/Strings.sol\":1752:1753  0 */\n      0x00\n        /* \"@openzeppelin/contracts/utils/Strings.sol\":1745:1754  buffer[0] */\n      dup2\n      mload\n      dup2\n      lt\n      tag_371\n      jumpi\n      tag_372\n      tag_373\n      jump\t// in\n    tag_372:\n    tag_371:\n      0x20\n      add\n      add\n        /* \"@openzeppelin/contracts/utils/Strings.sol\":1745:1760  buffer[0] = \"0\" */\n      swap1\n      not(0xffffffffffffffffffffffffffffffffffffffffffffffffffffffffffffff)\n      and\n      swap1\n      dup2\n      0x00\n      byte\n      swap1\n      mstore8\n      pop\n        /* \"@openzeppelin/contracts/utils/Strings.sol\":1770:1785  buffer[1] = \"x\" */\n      0x7800000000000000000000000000000000000000000000000000000000000000\n        /* \"@openzeppelin/contracts/utils/Strings.sol\":1770:1776  buffer */\n      dup2\n        /* \"@openzeppelin/contracts/utils/Strings.sol\":1777:1778  1 */\n      0x01\n        /* \"@openzeppelin/contracts/utils/Strings.sol\":1770:1779  buffer[1] */\n      dup2\n      mload\n      dup2\n      lt\n      tag_374\n      jumpi\n      tag_375\n      tag_373\n      jump\t// in\n    tag_375:\n    tag_374:\n      0x20\n      add\n      add\n        /* \"@openzeppelin/contracts/utils/Strings.sol\":1770:1785  buffer[1] = \"x\" */\n      swap1\n      not(0xffffffffffffffffffffffffffffffffffffffffffffffffffffffffffffff)\n      and\n      swap1\n      dup2\n      0x00\n      byte\n      swap1\n      mstore8\n      pop\n        /* \"@openzeppelin/contracts/utils/Strings.sol\":1800:1809  uint256 i */\n      0x00\n        /* \"@openzeppelin/contracts/utils/Strings.sol\":1825:1826  1 */\n      0x01\n        /* \"@openzeppelin/contracts/utils/Strings.sol\":1816:1822  length */\n      dup5\n        /* \"@openzeppelin/contracts/utils/Strings.sol\":1812:1813  2 */\n      0x02\n        /* \"@openzeppelin/contracts/utils/Strings.sol\":1812:1822  2 * length */\n      tag_379\n      swap2\n      swap1\n      tag_237\n      jump\t// in\n    tag_379:\n        /* \"@openzeppelin/contracts/utils/Strings.sol\":1812:1826  2 * length + 1 */\n      tag_380\n      swap2\n      swap1\n      tag_222\n      jump\t// in\n    tag_380:\n        /* \"@openzeppelin/contracts/utils/Strings.sol\":1800:1826  uint256 i = 2 * length + 1 */\n      swap1\n      pop\n        /* \"@openzeppelin/contracts/utils/Strings.sol\":1795:1927  for (uint256 i = 2 * length + 1; i > 1; --i) {... */\n    tag_376:\n        /* \"@openzeppelin/contracts/utils/Strings.sol\":1832:1833  1 */\n      0x01\n        /* \"@openzeppelin/contracts/utils/Strings.sol\":1828:1829  i */\n      dup2\n        /* \"@openzeppelin/contracts/utils/Strings.sol\":1828:1833  i > 1 */\n      gt\n        /* \"@openzeppelin/contracts/utils/Strings.sol\":1795:1927  for (uint256 i = 2 * length + 1; i > 1; --i) {... */\n      iszero\n      tag_377\n      jumpi\n        /* \"@openzeppelin/contracts/utils/Strings.sol\":1866:1878  _HEX_SYMBOLS */\n      0x3031323334353637383961626364656600000000000000000000000000000000\n        /* \"@openzeppelin/contracts/utils/Strings.sol\":1887:1890  0xf */\n      0x0f\n        /* \"@openzeppelin/contracts/utils/Strings.sol\":1879:1884  value */\n      dup7\n        /* \"@openzeppelin/contracts/utils/Strings.sol\":1879:1890  value & 0xf */\n      and\n        /* \"@openzeppelin/contracts/utils/Strings.sol\":1866:1891  _HEX_SYMBOLS[value & 0xf] */\n      0x10\n      dup2\n      lt\n      tag_381\n      jumpi\n      tag_382\n      tag_373\n      jump\t// in\n    tag_382:\n    tag_381:\n      byte\n      0xf8\n      shl\n        /* \"@openzeppelin/contracts/utils/Strings.sol\":1854:1860  buffer */\n      dup3\n        /* \"@openzeppelin/contracts/utils/Strings.sol\":1861:1862  i */\n      dup3\n        /* \"@openzeppelin/contracts/utils/Strings.sol\":1854:1863  buffer[i] */\n      dup2\n      mload\n      dup2\n      lt\n      tag_383\n      jumpi\n      tag_384\n      tag_373\n      jump\t// in\n    tag_384:\n    tag_383:\n      0x20\n      add\n      add\n        /* \"@openzeppelin/contracts/utils/Strings.sol\":1854:1891  buffer[i] = _HEX_SYMBOLS[value & 0xf] */\n      swap1\n      not(0xffffffffffffffffffffffffffffffffffffffffffffffffffffffffffffff)\n      and\n      swap1\n      dup2\n      0x00\n      byte\n      swap1\n      mstore8\n      pop\n        /* \"@openzeppelin/contracts/utils/Strings.sol\":1915:1916  4 */\n      0x04\n        /* \"@openzeppelin/contracts/utils/Strings.sol\":1905:1916  value >>= 4 */\n      dup6\n      swap1\n      shr\n      swap5\n      pop\n        /* \"@openzeppelin/contracts/utils/Strings.sol\":1835:1838  --i */\n      dup1\n      tag_385\n      swap1\n      tag_386\n      jump\t// in\n    tag_385:\n      swap1\n      pop\n        /* \"@openzeppelin/contracts/utils/Strings.sol\":1795:1927  for (uint256 i = 2 * length + 1; i > 1; --i) {... */\n      jump(tag_376)\n    tag_377:\n      pop\n        /* \"@openzeppelin/contracts/utils/Strings.sol\":1953:1954  0 */\n      0x00\n        /* \"@openzeppelin/contracts/utils/Strings.sol\":1944:1949  value */\n      dup5\n        /* \"@openzeppelin/contracts/utils/Strings.sol\":1944:1954  value == 0 */\n      eq\n        /* \"@openzeppelin/contracts/utils/Strings.sol\":1936:1991  require(value == 0, \"Strings: hex length insufficient\") */\n      tag_387\n      jumpi\n      mload(0x40)\n      0x08c379a000000000000000000000000000000000000000000000000000000000\n      dup2\n      mstore\n      0x04\n      add\n      tag_388\n      swap1\n      tag_389\n      jump\t// in\n    tag_388:\n      mload(0x40)\n      dup1\n      swap2\n      sub\n      swap1\n      revert\n    tag_387:\n        /* \"@openzeppelin/contracts/utils/Strings.sol\":2015:2021  buffer */\n      dup1\n        /* \"@openzeppelin/contracts/utils/Strings.sol\":2001:2022  return string(buffer) */\n      swap2\n      pop\n      pop\n        /* \"@openzeppelin/contracts/utils/Strings.sol\":1588:2029  function toHexString(uint256 value, uint256 length) internal pure returns (string memory) {... */\n      swap3\n      swap2\n      pop\n      pop\n      jump\t// out\n        /* \"#utility.yul\":7:146   */\n    tag_391:\n        /* \"#utility.yul\":53:58   */\n      0x00\n        /* \"#utility.yul\":91:97   */\n      dup2\n        /* \"#utility.yul\":78:98   */\n      calldataload\n        /* \"#utility.yul\":69:98   */\n      swap1\n      pop\n        /* \"#utility.yul\":107:140   */\n      tag_393\n        /* \"#utility.yul\":134:139   */\n      dup2\n        /* \"#utility.yul\":107:140   */\n      tag_394\n      jump\t// in\n    tag_393:\n        /* \"#utility.yul\":7:146   */\n      swap3\n      swap2\n      pop\n      pop\n      jump\t// out\n        /* \"#utility.yul\":152:289   */\n    tag_395:\n        /* \"#utility.yul\":206:211   */\n      0x00\n        /* \"#utility.yul\":237:243   */\n      dup2\n        /* \"#utility.yul\":231:244   */\n      mload\n        /* \"#utility.yul\":222:244   */\n      swap1\n      pop\n        /* \"#utility.yul\":253:283   */\n      tag_397\n        /* \"#utility.yul\":277:282   */\n      dup2\n        /* \"#utility.yul\":253:283   */\n      tag_398\n      jump\t// in\n    tag_397:\n        /* \"#utility.yul\":152:289   */\n      swap3\n      swap2\n      pop\n      pop\n      jump\t// out\n        /* \"#utility.yul\":295:434   */\n    tag_399:\n        /* \"#utility.yul\":341:346   */\n      0x00\n        /* \"#utility.yul\":379:385   */\n      dup2\n        /* \"#utility.yul\":366:386   */\n      calldataload\n        /* \"#utility.yul\":357:386   */\n      swap1\n      pop\n        /* \"#utility.yul\":395:428   */\n      tag_401\n        /* \"#utility.yul\":422:427   */\n      dup2\n        /* \"#utility.yul\":395:428   */\n      tag_402\n      jump\t// in\n    tag_401:\n        /* \"#utility.yul\":295:434   */\n      swap3\n      swap2\n      pop\n      pop\n      jump\t// out\n        /* \"#utility.yul\":440:577   */\n    tag_403:\n        /* \"#utility.yul\":485:490   */\n      0x00\n        /* \"#utility.yul\":523:529   */\n      dup2\n        /* \"#utility.yul\":510:530   */\n      calldataload\n        /* \"#utility.yul\":501:530   */\n      swap1\n      pop\n        /* \"#utility.yul\":539:571   */\n      tag_405\n        /* \"#utility.yul\":565:570   */\n      dup2\n        /* \"#utility.yul\":539:571   */\n      tag_406\n      jump\t// in\n    tag_405:\n        /* \"#utility.yul\":440:577   */\n      swap3\n      swap2\n      pop\n      pop\n      jump\t// out\n        /* \"#utility.yul\":583:722   */\n    tag_407:\n        /* \"#utility.yul\":629:634   */\n      0x00\n        /* \"#utility.yul\":667:673   */\n      dup2\n        /* \"#utility.yul\":654:674   */\n      calldataload\n        /* \"#utility.yul\":645:674   */\n      swap1\n      pop\n        /* \"#utility.yul\":683:716   */\n      tag_409\n        /* \"#utility.yul\":710:715   */\n      dup2\n        /* \"#utility.yul\":683:716   */\n      tag_410\n      jump\t// in\n    tag_409:\n        /* \"#utility.yul\":583:722   */\n      swap3\n      swap2\n      pop\n      pop\n      jump\t// out\n        /* \"#utility.yul\":728:1057   */\n    tag_100:\n        /* \"#utility.yul\":787:793   */\n      0x00\n        /* \"#utility.yul\":836:838   */\n      0x20\n        /* \"#utility.yul\":824:833   */\n      dup3\n        /* \"#utility.yul\":815:822   */\n      dup5\n        /* \"#utility.yul\":811:834   */\n      sub\n        /* \"#utility.yul\":807:839   */\n      slt\n        /* \"#utility.yul\":804:923   */\n      iszero\n      tag_412\n      jumpi\n        /* \"#utility.yul\":842:921   */\n      tag_413\n      tag_414\n      jump\t// in\n    tag_413:\n        /* \"#utility.yul\":804:923   */\n    tag_412:\n        /* \"#utility.yul\":962:963   */\n      0x00\n        /* \"#utility.yul\":987:1040   */\n      tag_415\n        /* \"#utility.yul\":1032:1039   */\n      dup5\n        /* \"#utility.yul\":1023:1029   */\n      dup3\n        /* \"#utility.yul\":1012:1021   */\n      dup6\n        /* \"#utility.yul\":1008:1030   */\n      add\n        /* \"#utility.yul\":987:1040   */\n      tag_391\n      jump\t// in\n    tag_415:\n        /* \"#utility.yul\":977:1040   */\n      swap2\n      pop\n        /* \"#utility.yul\":933:1050   */\n      pop\n        /* \"#utility.yul\":728:1057   */\n      swap3\n      swap2\n      pop\n      pop\n      jump\t// out\n        /* \"#utility.yul\":1063:1537   */\n    tag_170:\n        /* \"#utility.yul\":1131:1137   */\n      0x00\n        /* \"#utility.yul\":1139:1145   */\n      dup1\n        /* \"#utility.yul\":1188:1190   */\n      0x40\n        /* \"#utility.yul\":1176:1185   */\n      dup4\n        /* \"#utility.yul\":1167:1174   */\n      dup6\n        /* \"#utility.yul\":1163:1186   */\n      sub\n        /* \"#utility.yul\":1159:1191   */\n      slt\n        /* \"#utility.yul\":1156:1275   */\n      iszero\n      tag_417\n      jumpi\n        /* \"#utility.yul\":1194:1273   */\n      tag_418\n      tag_414\n      jump\t// in\n    tag_418:\n        /* \"#utility.yul\":1156:1275   */\n    tag_417:\n        /* \"#utility.yul\":1314:1315   */\n      0x00\n        /* \"#utility.yul\":1339:1392   */\n      tag_419\n        /* \"#utility.yul\":1384:1391   */\n      dup6\n        /* \"#utility.yul\":1375:1381   */\n      dup3\n        /* \"#utility.yul\":1364:1373   */\n      dup7\n        /* \"#utility.yul\":1360:1382   */\n      add\n        /* \"#utility.yul\":1339:1392   */\n      tag_391\n      jump\t// in\n    tag_419:\n        /* \"#utility.yul\":1329:1392   */\n      swap3\n      pop\n        /* \"#utility.yul\":1285:1402   */\n      pop\n        /* \"#utility.yul\":1441:1443   */\n      0x20\n        /* \"#utility.yul\":1467:1520   */\n      tag_420\n        /* \"#utility.yul\":1512:1519   */\n      dup6\n        /* \"#utility.yul\":1503:1509   */\n      dup3\n        /* \"#utility.yul\":1492:1501   */\n      dup7\n        /* \"#utility.yul\":1488:1510   */\n      add\n        /* \"#utility.yul\":1467:1520   */\n      tag_391\n      jump\t// in\n    tag_420:\n        /* \"#utility.yul\":1457:1520   */\n      swap2\n      pop\n        /* \"#utility.yul\":1412:1530   */\n      pop\n        /* \"#utility.yul\":1063:1537   */\n      swap3\n      pop\n      swap3\n      swap1\n      pop\n      jump\t// out\n        /* \"#utility.yul\":1543:2162   */\n    tag_64:\n        /* \"#utility.yul\":1620:1626   */\n      0x00\n        /* \"#utility.yul\":1628:1634   */\n      dup1\n        /* \"#utility.yul\":1636:1642   */\n      0x00\n        /* \"#utility.yul\":1685:1687   */\n      0x60\n        /* \"#utility.yul\":1673:1682   */\n      dup5\n        /* \"#utility.yul\":1664:1671   */\n      dup7\n        /* \"#utility.yul\":1660:1683   */\n      sub\n        /* \"#utility.yul\":1656:1688   */\n      slt\n        /* \"#utility.yul\":1653:1772   */\n      iszero\n      tag_422\n      jumpi\n        /* \"#utility.yul\":1691:1770   */\n      tag_423\n      tag_414\n      jump\t// in\n    tag_423:\n        /* \"#utility.yul\":1653:1772   */\n    tag_422:\n        /* \"#utility.yul\":1811:1812   */\n      0x00\n        /* \"#utility.yul\":1836:1889   */\n      tag_424\n        /* \"#utility.yul\":1881:1888   */\n      dup7\n        /* \"#utility.yul\":1872:1878   */\n      dup3\n        /* \"#utility.yul\":1861:1870   */\n      dup8\n        /* \"#utility.yul\":1857:1879   */\n      add\n        /* \"#utility.yul\":1836:1889   */\n      tag_391\n      jump\t// in\n    tag_424:\n        /* \"#utility.yul\":1826:1889   */\n      swap4\n      pop\n        /* \"#utility.yul\":1782:1899   */\n      pop\n        /* \"#utility.yul\":1938:1940   */\n      0x20\n        /* \"#utility.yul\":1964:2017   */\n      tag_425\n        /* \"#utility.yul\":2009:2016   */\n      dup7\n        /* \"#utility.yul\":2000:2006   */\n      dup3\n        /* \"#utility.yul\":1989:1998   */\n      dup8\n        /* \"#utility.yul\":1985:2007   */\n      add\n        /* \"#utility.yul\":1964:2017   */\n      tag_391\n      jump\t// in\n    tag_425:\n        /* \"#utility.yul\":1954:2017   */\n      swap3\n      pop\n        /* \"#utility.yul\":1909:2027   */\n      pop\n        /* \"#utility.yul\":2066:2068   */\n      0x40\n        /* \"#utility.yul\":2092:2145   */\n      tag_426\n        /* \"#utility.yul\":2137:2144   */\n      dup7\n        /* \"#utility.yul\":2128:2134   */\n      dup3\n        /* \"#utility.yul\":2117:2126   */\n      dup8\n        /* \"#utility.yul\":2113:2135   */\n      add\n        /* \"#utility.yul\":2092:2145   */\n      tag_407\n      jump\t// in\n    tag_426:\n        /* \"#utility.yul\":2082:2145   */\n      swap2\n      pop\n        /* \"#utility.yul\":2037:2155   */\n      pop\n        /* \"#utility.yul\":1543:2162   */\n      swap3\n      pop\n      swap3\n      pop\n      swap3\n      jump\t// out\n        /* \"#utility.yul\":2168:2642   */\n    tag_53:\n        /* \"#utility.yul\":2236:2242   */\n      0x00\n        /* \"#utility.yul\":2244:2250   */\n      dup1\n        /* \"#utility.yul\":2293:2295   */\n      0x40\n        /* \"#utility.yul\":2281:2290   */\n      dup4\n        /* \"#utility.yul\":2272:2279   */\n      dup6\n        /* \"#utility.yul\":2268:2291   */\n      sub\n        /* \"#utility.yul\":2264:2296   */\n      slt\n        /* \"#utility.yul\":2261:2380   */\n      iszero\n      tag_428\n      jumpi\n        /* \"#utility.yul\":2299:2378   */\n      tag_429\n      tag_414\n      jump\t// in\n    tag_429:\n        /* \"#utility.yul\":2261:2380   */\n    tag_428:\n        /* \"#utility.yul\":2419:2420   */\n      0x00\n        /* \"#utility.yul\":2444:2497   */\n      tag_430\n        /* \"#utility.yul\":2489:2496   */\n      dup6\n        /* \"#utility.yul\":2480:2486   */\n      dup3\n        /* \"#utility.yul\":2469:2478   */\n      dup7\n        /* \"#utility.yul\":2465:2487   */\n      add\n        /* \"#utility.yul\":2444:2497   */\n      tag_391\n      jump\t// in\n    tag_430:\n        /* \"#utility.yul\":2434:2497   */\n      swap3\n      pop\n        /* \"#utility.yul\":2390:2507   */\n      pop\n        /* \"#utility.yul\":2546:2548   */\n      0x20\n        /* \"#utility.yul\":2572:2625   */\n      tag_431\n        /* \"#utility.yul\":2617:2624   */\n      dup6\n        /* \"#utility.yul\":2608:2614   */\n      dup3\n        /* \"#utility.yul\":2597:2606   */\n      dup7\n        /* \"#utility.yul\":2593:2615   */\n      add\n        /* \"#utility.yul\":2572:2625   */\n      tag_407\n      jump\t// in\n    tag_431:\n        /* \"#utility.yul\":2562:2625   */\n      swap2\n      pop\n        /* \"#utility.yul\":2517:2635   */\n      pop\n        /* \"#utility.yul\":2168:2642   */\n      swap3\n      pop\n      swap3\n      swap1\n      pop\n      jump\t// out\n        /* \"#utility.yul\":2648:2993   */\n    tag_244:\n        /* \"#utility.yul\":2715:2721   */\n      0x00\n        /* \"#utility.yul\":2764:2766   */\n      0x20\n        /* \"#utility.yul\":2752:2761   */\n      dup3\n        /* \"#utility.yul\":2743:2750   */\n      dup5\n        /* \"#utility.yul\":2739:2762   */\n      sub\n        /* \"#utility.yul\":2735:2767   */\n      slt\n        /* \"#utility.yul\":2732:2851   */\n      iszero\n      tag_433\n      jumpi\n        /* \"#utility.yul\":2770:2849   */\n      tag_434\n      tag_414\n      jump\t// in\n    tag_434:\n        /* \"#utility.yul\":2732:2851   */\n    tag_433:\n        /* \"#utility.yul\":2890:2891   */\n      0x00\n        /* \"#utility.yul\":2915:2976   */\n      tag_435\n        /* \"#utility.yul\":2968:2975   */\n      dup5\n        /* \"#utility.yul\":2959:2965   */\n      dup3\n        /* \"#utility.yul\":2948:2957   */\n      dup6\n        /* \"#utility.yul\":2944:2966   */\n      add\n        /* \"#utility.yul\":2915:2976   */\n      tag_395\n      jump\t// in\n    tag_435:\n        /* \"#utility.yul\":2905:2976   */\n      swap2\n      pop\n        /* \"#utility.yul\":2861:2986   */\n      pop\n        /* \"#utility.yul\":2648:2993   */\n      swap3\n      swap2\n      pop\n      pop\n      jump\t// out\n        /* \"#utility.yul\":2999:3328   */\n    tag_70:\n        /* \"#utility.yul\":3058:3064   */\n      0x00\n        /* \"#utility.yul\":3107:3109   */\n      0x20\n        /* \"#utility.yul\":3095:3104   */\n      dup3\n        /* \"#utility.yul\":3086:3093   */\n      dup5\n        /* \"#utility.yul\":3082:3105   */\n      sub\n        /* \"#utility.yul\":3078:3110   */\n      slt\n        /* \"#utility.yul\":3075:3194   */\n      iszero\n      tag_437\n      jumpi\n        /* \"#utility.yul\":3113:3192   */\n      tag_438\n      tag_414\n      jump\t// in\n    tag_438:\n        /* \"#utility.yul\":3075:3194   */\n    tag_437:\n        /* \"#utility.yul\":3233:3234   */\n      0x00\n        /* \"#utility.yul\":3258:3311   */\n      tag_439\n        /* \"#utility.yul\":3303:3310   */\n      dup5\n        /* \"#utility.yul\":3294:3300   */\n      dup3\n        /* \"#utility.yul\":3283:3292   */\n      dup6\n        /* \"#utility.yul\":3279:3301   */\n      add\n        /* \"#utility.yul\":3258:3311   */\n      tag_399\n      jump\t// in\n    tag_439:\n        /* \"#utility.yul\":3248:3311   */\n      swap2\n      pop\n        /* \"#utility.yul\":3204:3321   */\n      pop\n        /* \"#utility.yul\":2999:3328   */\n      swap3\n      swap2\n      pop\n      pop\n      jump\t// out\n        /* \"#utility.yul\":3334:3808   */\n    tag_81:\n        /* \"#utility.yul\":3402:3408   */\n      0x00\n        /* \"#utility.yul\":3410:3416   */\n      dup1\n        /* \"#utility.yul\":3459:3461   */\n      0x40\n        /* \"#utility.yul\":3447:3456   */\n      dup4\n        /* \"#utility.yul\":3438:3445   */\n      dup6\n        /* \"#utility.yul\":3434:3457   */\n      sub\n        /* \"#utility.yul\":3430:3462   */\n      slt\n        /* \"#utility.yul\":3427:3546   */\n      iszero\n      tag_441\n      jumpi\n        /* \"#utility.yul\":3465:3544   */\n      tag_442\n      tag_414\n      jump\t// in\n    tag_442:\n        /* \"#utility.yul\":3427:3546   */\n    tag_441:\n        /* \"#utility.yul\":3585:3586   */\n      0x00\n        /* \"#utility.yul\":3610:3663   */\n      tag_443\n        /* \"#utility.yul\":3655:3662   */\n      dup6\n        /* \"#utility.yul\":3646:3652   */\n      dup3\n        /* \"#utility.yul\":3635:3644   */\n      dup7\n        /* \"#utility.yul\":3631:3653   */\n      add\n        /* \"#utility.yul\":3610:3663   */\n      tag_399\n      jump\t// in\n    tag_443:\n        /* \"#utility.yul\":3600:3663   */\n      swap3\n      pop\n        /* \"#utility.yul\":3556:3673   */\n      pop\n        /* \"#utility.yul\":3712:3714   */\n      0x20\n        /* \"#utility.yul\":3738:3791   */\n      tag_444\n        /* \"#utility.yul\":3783:3790   */\n      dup6\n        /* \"#utility.yul\":3774:3780   */\n      dup3\n        /* \"#utility.yul\":3763:3772   */\n      dup7\n        /* \"#utility.yul\":3759:3781   */\n      add\n        /* \"#utility.yul\":3738:3791   */\n      tag_391\n      jump\t// in\n    tag_444:\n        /* \"#utility.yul\":3728:3791   */\n      swap2\n      pop\n        /* \"#utility.yul\":3683:3801   */\n      pop\n        /* \"#utility.yul\":3334:3808   */\n      swap3\n      pop\n      swap3\n      swap1\n      pop\n      jump\t// out\n        /* \"#utility.yul\":3814:4141   */\n    tag_41:\n        /* \"#utility.yul\":3872:3878   */\n      0x00\n        /* \"#utility.yul\":3921:3923   */\n      0x20\n        /* \"#utility.yul\":3909:3918   */\n      dup3\n        /* \"#utility.yul\":3900:3907   */\n      dup5\n        /* \"#utility.yul\":3896:3919   */\n      sub\n        /* \"#utility.yul\":3892:3924   */\n      slt\n        /* \"#utility.yul\":3889:4008   */\n      iszero\n      tag_446\n      jumpi\n        /* \"#utility.yul\":3927:4006   */\n      tag_447\n      tag_414\n      jump\t// in\n    tag_447:\n        /* \"#utility.yul\":3889:4008   */\n    tag_446:\n        /* \"#utility.yul\":4047:4048   */\n      0x00\n        /* \"#utility.yul\":4072:4124   */\n      tag_448\n        /* \"#utility.yul\":4116:4123   */\n      dup5\n        /* \"#utility.yul\":4107:4113   */\n      dup3\n        /* \"#utility.yul\":4096:4105   */\n      dup6\n        /* \"#utility.yul\":4092:4114   */\n      add\n        /* \"#utility.yul\":4072:4124   */\n      tag_403\n      jump\t// in\n    tag_448:\n        /* \"#utility.yul\":4062:4124   */\n      swap2\n      pop\n        /* \"#utility.yul\":4018:4134   */\n      pop\n        /* \"#utility.yul\":3814:4141   */\n      swap3\n      swap2\n      pop\n      pop\n      jump\t// out\n        /* \"#utility.yul\":4147:4265   */\n    tag_449:\n        /* \"#utility.yul\":4234:4258   */\n      tag_451\n        /* \"#utility.yul\":4252:4257   */\n      dup2\n        /* \"#utility.yul\":4234:4258   */\n      tag_452\n      jump\t// in\n    tag_451:\n        /* \"#utility.yul\":4229:4232   */\n      dup3\n        /* \"#utility.yul\":4222:4259   */\n      mstore\n        /* \"#utility.yul\":4147:4265   */\n      pop\n      pop\n      jump\t// out\n        /* \"#utility.yul\":4271:4380   */\n    tag_453:\n        /* \"#utility.yul\":4352:4373   */\n      tag_455\n        /* \"#utility.yul\":4367:4372   */\n      dup2\n        /* \"#utility.yul\":4352:4373   */\n      tag_456\n      jump\t// in\n    tag_455:\n        /* \"#utility.yul\":4347:4350   */\n      dup3\n        /* \"#utility.yul\":4340:4374   */\n      mstore\n        /* \"#utility.yul\":4271:4380   */\n      pop\n      pop\n      jump\t// out\n        /* \"#utility.yul\":4386:4504   */\n    tag_457:\n        /* \"#utility.yul\":4473:4497   */\n      tag_459\n        /* \"#utility.yul\":4491:4496   */\n      dup2\n        /* \"#utility.yul\":4473:4497   */\n      tag_460\n      jump\t// in\n    tag_459:\n        /* \"#utility.yul\":4468:4471   */\n      dup3\n        /* \"#utility.yul\":4461:4498   */\n      mstore\n        /* \"#utility.yul\":4386:4504   */\n      pop\n      pop\n      jump\t// out\n        /* \"#utility.yul\":4510:4874   */\n    tag_461:\n        /* \"#utility.yul\":4598:4601   */\n      0x00\n        /* \"#utility.yul\":4626:4665   */\n      tag_463\n        /* \"#utility.yul\":4659:4664   */\n      dup3\n        /* \"#utility.yul\":4626:4665   */\n      tag_464\n      jump\t// in\n    tag_463:\n        /* \"#utility.yul\":4681:4752   */\n      tag_465\n        /* \"#utility.yul\":4745:4751   */\n      dup2\n        /* \"#utility.yul\":4740:4743   */\n      dup6\n        /* \"#utility.yul\":4681:4752   */\n      tag_466\n      jump\t// in\n    tag_465:\n        /* \"#utility.yul\":4674:4752   */\n      swap4\n      pop\n        /* \"#utility.yul\":4761:4813   */\n      tag_467\n        /* \"#utility.yul\":4806:4812   */\n      dup2\n        /* \"#utility.yul\":4801:4804   */\n      dup6\n        /* \"#utility.yul\":4794:4798   */\n      0x20\n        /* \"#utility.yul\":4787:4792   */\n      dup7\n        /* \"#utility.yul\":4783:4799   */\n      add\n        /* \"#utility.yul\":4761:4813   */\n      tag_468\n      jump\t// in\n    tag_467:\n        /* \"#utility.yul\":4838:4867   */\n      tag_469\n        /* \"#utility.yul\":4860:4866   */\n      dup2\n        /* \"#utility.yul\":4838:4867   */\n      tag_470\n      jump\t// in\n    tag_469:\n        /* \"#utility.yul\":4833:4836   */\n      dup5\n        /* \"#utility.yul\":4829:4868   */\n      add\n        /* \"#utility.yul\":4822:4868   */\n      swap2\n      pop\n        /* \"#utility.yul\":4602:4874   */\n      pop\n        /* \"#utility.yul\":4510:4874   */\n      swap3\n      swap2\n      pop\n      pop\n      jump\t// out\n        /* \"#utility.yul\":4880:5257   */\n    tag_471:\n        /* \"#utility.yul\":4986:4989   */\n      0x00\n        /* \"#utility.yul\":5014:5053   */\n      tag_473\n        /* \"#utility.yul\":5047:5052   */\n      dup3\n        /* \"#utility.yul\":5014:5053   */\n      tag_464\n      jump\t// in\n    tag_473:\n        /* \"#utility.yul\":5069:5158   */\n      tag_474\n        /* \"#utility.yul\":5151:5157   */\n      dup2\n        /* \"#utility.yul\":5146:5149   */\n      dup6\n        /* \"#utility.yul\":5069:5158   */\n      tag_475\n      jump\t// in\n    tag_474:\n        /* \"#utility.yul\":5062:5158   */\n      swap4\n      pop\n        /* \"#utility.yul\":5167:5219   */\n      tag_476\n        /* \"#utility.yul\":5212:5218   */\n      dup2\n        /* \"#utility.yul\":5207:5210   */\n      dup6\n        /* \"#utility.yul\":5200:5204   */\n      0x20\n        /* \"#utility.yul\":5193:5198   */\n      dup7\n        /* \"#utility.yul\":5189:5205   */\n      add\n        /* \"#utility.yul\":5167:5219   */\n      tag_468\n      jump\t// in\n    tag_476:\n        /* \"#utility.yul\":5244:5250   */\n      dup1\n        /* \"#utility.yul\":5239:5242   */\n      dup5\n        /* \"#utility.yul\":5235:5251   */\n      add\n        /* \"#utility.yul\":5228:5251   */\n      swap2\n      pop\n        /* \"#utility.yul\":4990:5257   */\n      pop\n        /* \"#utility.yul\":4880:5257   */\n      swap3\n      swap2\n      pop\n      pop\n      jump\t// out\n        /* \"#utility.yul\":5263:5629   */\n    tag_477:\n        /* \"#utility.yul\":5405:5408   */\n      0x00\n        /* \"#utility.yul\":5426:5493   */\n      tag_479\n        /* \"#utility.yul\":5490:5492   */\n      0x20\n        /* \"#utility.yul\":5485:5488   */\n      dup4\n        /* \"#utility.yul\":5426:5493   */\n      tag_466\n      jump\t// in\n    tag_479:\n        /* \"#utility.yul\":5419:5493   */\n      swap2\n      pop\n        /* \"#utility.yul\":5502:5595   */\n      tag_480\n        /* \"#utility.yul\":5591:5594   */\n      dup3\n        /* \"#utility.yul\":5502:5595   */\n      tag_481\n      jump\t// in\n    tag_480:\n        /* \"#utility.yul\":5620:5622   */\n      0x20\n        /* \"#utility.yul\":5615:5618   */\n      dup3\n        /* \"#utility.yul\":5611:5623   */\n      add\n        /* \"#utility.yul\":5604:5623   */\n      swap1\n      pop\n        /* \"#utility.yul\":5263:5629   */\n      swap2\n      swap1\n      pop\n      jump\t// out\n        /* \"#utility.yul\":5635:6001   */\n    tag_482:\n        /* \"#utility.yul\":5777:5780   */\n      0x00\n        /* \"#utility.yul\":5798:5865   */\n      tag_484\n        /* \"#utility.yul\":5862:5864   */\n      0x23\n        /* \"#utility.yul\":5857:5860   */\n      dup4\n        /* \"#utility.yul\":5798:5865   */\n      tag_466\n      jump\t// in\n    tag_484:\n        /* \"#utility.yul\":5791:5865   */\n      swap2\n      pop\n        /* \"#utility.yul\":5874:5967   */\n      tag_485\n        /* \"#utility.yul\":5963:5966   */\n      dup3\n        /* \"#utility.yul\":5874:5967   */\n      tag_486\n      jump\t// in\n    tag_485:\n        /* \"#utility.yul\":5992:5994   */\n      0x40\n        /* \"#utility.yul\":5987:5990   */\n      dup3\n        /* \"#utility.yul\":5983:5995   */\n      add\n        /* \"#utility.yul\":5976:5995   */\n      swap1\n      pop\n        /* \"#utility.yul\":5635:6001   */\n      swap2\n      swap1\n      pop\n      jump\t// out\n        /* \"#utility.yul\":6007:6373   */\n    tag_487:\n        /* \"#utility.yul\":6149:6152   */\n      0x00\n        /* \"#utility.yul\":6170:6237   */\n      tag_489\n        /* \"#utility.yul\":6234:6236   */\n      0x22\n        /* \"#utility.yul\":6229:6232   */\n      dup4\n        /* \"#utility.yul\":6170:6237   */\n      tag_466\n      jump\t// in\n    tag_489:\n        /* \"#utility.yul\":6163:6237   */\n      swap2\n      pop\n        /* \"#utility.yul\":6246:6339   */\n      tag_490\n        /* \"#utility.yul\":6335:6338   */\n      dup3\n        /* \"#utility.yul\":6246:6339   */\n      tag_491\n      jump\t// in\n    tag_490:\n        /* \"#utility.yul\":6364:6366   */\n      0x40\n        /* \"#utility.yul\":6359:6362   */\n      dup3\n        /* \"#utility.yul\":6355:6367   */\n      add\n        /* \"#utility.yul\":6348:6367   */\n      swap1\n      pop\n        /* \"#utility.yul\":6007:6373   */\n      swap2\n      swap1\n      pop\n      jump\t// out\n        /* \"#utility.yul\":6379:6745   */\n    tag_492:\n        /* \"#utility.yul\":6521:6524   */\n      0x00\n        /* \"#utility.yul\":6542:6609   */\n      tag_494\n        /* \"#utility.yul\":6606:6608   */\n      0x22\n        /* \"#utility.yul\":6601:6604   */\n      dup4\n        /* \"#utility.yul\":6542:6609   */\n      tag_466\n      jump\t// in\n    tag_494:\n        /* \"#utility.yul\":6535:6609   */\n      swap2\n      pop\n        /* \"#utility.yul\":6618:6711   */\n      tag_495\n        /* \"#utility.yul\":6707:6710   */\n      dup3\n        /* \"#utility.yul\":6618:6711   */\n      tag_496\n      jump\t// in\n    tag_495:\n        /* \"#utility.yul\":6736:6738   */\n      0x40\n        /* \"#utility.yul\":6731:6734   */\n      dup3\n        /* \"#utility.yul\":6727:6739   */\n      add\n        /* \"#utility.yul\":6720:6739   */\n      swap1\n      pop\n        /* \"#utility.yul\":6379:6745   */\n      swap2\n      swap1\n      pop\n      jump\t// out\n        /* \"#utility.yul\":6751:7117   */\n    tag_497:\n        /* \"#utility.yul\":6893:6896   */\n      0x00\n        /* \"#utility.yul\":6914:6981   */\n      tag_499\n        /* \"#utility.yul\":6978:6980   */\n      0x1d\n        /* \"#utility.yul\":6973:6976   */\n      dup4\n        /* \"#utility.yul\":6914:6981   */\n      tag_466\n      jump\t// in\n    tag_499:\n        /* \"#utility.yul\":6907:6981   */\n      swap2\n      pop\n        /* \"#utility.yul\":6990:7083   */\n      tag_500\n        /* \"#utility.yul\":7079:7082   */\n      dup3\n        /* \"#utility.yul\":6990:7083   */\n      tag_501\n      jump\t// in\n    tag_500:\n        /* \"#utility.yul\":7108:7110   */\n      0x20\n        /* \"#utility.yul\":7103:7106   */\n      dup3\n        /* \"#utility.yul\":7099:7111   */\n      add\n        /* \"#utility.yul\":7092:7111   */\n      swap1\n      pop\n        /* \"#utility.yul\":6751:7117   */\n      swap2\n      swap1\n      pop\n      jump\t// out\n        /* \"#utility.yul\":7123:7489   */\n    tag_502:\n        /* \"#utility.yul\":7265:7268   */\n      0x00\n        /* \"#utility.yul\":7286:7353   */\n      tag_504\n        /* \"#utility.yul\":7350:7352   */\n      0x26\n        /* \"#utility.yul\":7345:7348   */\n      dup4\n        /* \"#utility.yul\":7286:7353   */\n      tag_466\n      jump\t// in\n    tag_504:\n        /* \"#utility.yul\":7279:7353   */\n      swap2\n      pop\n        /* \"#utility.yul\":7362:7455   */\n      tag_505\n        /* \"#utility.yul\":7451:7454   */\n      dup3\n        /* \"#utility.yul\":7362:7455   */\n      tag_506\n      jump\t// in\n    tag_505:\n        /* \"#utility.yul\":7480:7482   */\n      0x40\n        /* \"#utility.yul\":7475:7478   */\n      dup3\n        /* \"#utility.yul\":7471:7483   */\n      add\n        /* \"#utility.yul\":7464:7483   */\n      swap1\n      pop\n        /* \"#utility.yul\":7123:7489   */\n      swap2\n      swap1\n      pop\n      jump\t// out\n        /* \"#utility.yul\":7495:7861   */\n    tag_507:\n        /* \"#utility.yul\":7637:7640   */\n      0x00\n        /* \"#utility.yul\":7658:7725   */\n      tag_509\n        /* \"#utility.yul\":7722:7724   */\n      0x28\n        /* \"#utility.yul\":7717:7720   */\n      dup4\n        /* \"#utility.yul\":7658:7725   */\n      tag_466\n      jump\t// in\n    tag_509:\n        /* \"#utility.yul\":7651:7725   */\n      swap2\n      pop\n        /* \"#utility.yul\":7734:7827   */\n      tag_510\n        /* \"#utility.yul\":7823:7826   */\n      dup3\n        /* \"#utility.yul\":7734:7827   */\n      tag_511\n      jump\t// in\n    tag_510:\n        /* \"#utility.yul\":7852:7854   */\n      0x40\n        /* \"#utility.yul\":7847:7850   */\n      dup3\n        /* \"#utility.yul\":7843:7855   */\n      add\n        /* \"#utility.yul\":7836:7855   */\n      swap1\n      pop\n        /* \"#utility.yul\":7495:7861   */\n      swap2\n      swap1\n      pop\n      jump\t// out\n        /* \"#utility.yul\":7867:8233   */\n    tag_512:\n        /* \"#utility.yul\":8009:8012   */\n      0x00\n        /* \"#utility.yul\":8030:8097   */\n      tag_514\n        /* \"#utility.yul\":8094:8096   */\n      0x16\n        /* \"#utility.yul\":8089:8092   */\n      dup4\n        /* \"#utility.yul\":8030:8097   */\n      tag_466\n      jump\t// in\n    tag_514:\n        /* \"#utility.yul\":8023:8097   */\n      swap2\n      pop\n        /* \"#utility.yul\":8106:8199   */\n      tag_515\n        /* \"#utility.yul\":8195:8198   */\n      dup3\n        /* \"#utility.yul\":8106:8199   */\n      tag_516\n      jump\t// in\n    tag_515:\n        /* \"#utility.yul\":8224:8226   */\n      0x20\n        /* \"#utility.yul\":8219:8222   */\n      dup3\n        /* \"#utility.yul\":8215:8227   */\n      add\n        /* \"#utility.yul\":8208:8227   */\n      swap1\n      pop\n        /* \"#utility.yul\":7867:8233   */\n      swap2\n      swap1\n      pop\n      jump\t// out\n        /* \"#utility.yul\":8239:8605   */\n    tag_517:\n        /* \"#utility.yul\":8381:8384   */\n      0x00\n        /* \"#utility.yul\":8402:8469   */\n      tag_519\n        /* \"#utility.yul\":8466:8468   */\n      0x16\n        /* \"#utility.yul\":8461:8464   */\n      dup4\n        /* \"#utility.yul\":8402:8469   */\n      tag_466\n      jump\t// in\n    tag_519:\n        /* \"#utility.yul\":8395:8469   */\n      swap2\n      pop\n        /* \"#utility.yul\":8478:8571   */\n      tag_520\n        /* \"#utility.yul\":8567:8570   */\n      dup3\n        /* \"#utility.yul\":8478:8571   */\n      tag_521\n      jump\t// in\n    tag_520:\n        /* \"#utility.yul\":8596:8598   */\n      0x20\n        /* \"#utility.yul\":8591:8594   */\n      dup3\n        /* \"#utility.yul\":8587:8599   */\n      add\n        /* \"#utility.yul\":8580:8599   */\n      swap1\n      pop\n        /* \"#utility.yul\":8239:8605   */\n      swap2\n      swap1\n      pop\n      jump\t// out\n        /* \"#utility.yul\":8611:8977   */\n    tag_522:\n        /* \"#utility.yul\":8753:8756   */\n      0x00\n        /* \"#utility.yul\":8774:8841   */\n      tag_524\n        /* \"#utility.yul\":8838:8840   */\n      0x21\n        /* \"#utility.yul\":8833:8836   */\n      dup4\n        /* \"#utility.yul\":8774:8841   */\n      tag_466\n      jump\t// in\n    tag_524:\n        /* \"#utility.yul\":8767:8841   */\n      swap2\n      pop\n        /* \"#utility.yul\":8850:8943   */\n      tag_525\n        /* \"#utility.yul\":8939:8942   */\n      dup3\n        /* \"#utility.yul\":8850:8943   */\n      tag_526\n      jump\t// in\n    tag_525:\n        /* \"#utility.yul\":8968:8970   */\n      0x40\n        /* \"#utility.yul\":8963:8966   */\n      dup3\n        /* \"#utility.yul\":8959:8971   */\n      add\n        /* \"#utility.yul\":8952:8971   */\n      swap1\n      pop\n        /* \"#utility.yul\":8611:8977   */\n      swap2\n      swap1\n      pop\n      jump\t// out\n        /* \"#utility.yul\":8983:9349   */\n    tag_527:\n        /* \"#utility.yul\":9125:9128   */\n      0x00\n        /* \"#utility.yul\":9146:9213   */\n      tag_529\n        /* \"#utility.yul\":9210:9212   */\n      0x25\n        /* \"#utility.yul\":9205:9208   */\n      dup4\n        /* \"#utility.yul\":9146:9213   */\n      tag_466\n      jump\t// in\n    tag_529:\n        /* \"#utility.yul\":9139:9213   */\n      swap2\n      pop\n        /* \"#utility.yul\":9222:9315   */\n      tag_530\n        /* \"#utility.yul\":9311:9314   */\n      dup3\n        /* \"#utility.yul\":9222:9315   */\n      tag_531\n      jump\t// in\n    tag_530:\n        /* \"#utility.yul\":9340:9342   */\n      0x40\n        /* \"#utility.yul\":9335:9338   */\n      dup3\n        /* \"#utility.yul\":9331:9343   */\n      add\n        /* \"#utility.yul\":9324:9343   */\n      swap1\n      pop\n        /* \"#utility.yul\":8983:9349   */\n      swap2\n      swap1\n      pop\n      jump\t// out\n        /* \"#utility.yul\":9355:9721   */\n    tag_532:\n        /* \"#utility.yul\":9497:9500   */\n      0x00\n        /* \"#utility.yul\":9518:9585   */\n      tag_534\n        /* \"#utility.yul\":9582:9584   */\n      0x18\n        /* \"#utility.yul\":9577:9580   */\n      dup4\n        /* \"#utility.yul\":9518:9585   */\n      tag_466\n      jump\t// in\n    tag_534:\n        /* \"#utility.yul\":9511:9585   */\n      swap2\n      pop\n        /* \"#utility.yul\":9594:9687   */\n      tag_535\n        /* \"#utility.yul\":9683:9686   */\n      dup3\n        /* \"#utility.yul\":9594:9687   */\n      tag_536\n      jump\t// in\n    tag_535:\n        /* \"#utility.yul\":9712:9714   */\n      0x20\n        /* \"#utility.yul\":9707:9710   */\n      dup3\n        /* \"#utility.yul\":9703:9715   */\n      add\n        /* \"#utility.yul\":9696:9715   */\n      swap1\n      pop\n        /* \"#utility.yul\":9355:9721   */\n      swap2\n      swap1\n      pop\n      jump\t// out\n        /* \"#utility.yul\":9727:10093   */\n    tag_537:\n        /* \"#utility.yul\":9869:9872   */\n      0x00\n        /* \"#utility.yul\":9890:9957   */\n      tag_539\n        /* \"#utility.yul\":9954:9956   */\n      0x24\n        /* \"#utility.yul\":9949:9952   */\n      dup4\n        /* \"#utility.yul\":9890:9957   */\n      tag_466\n      jump\t// in\n    tag_539:\n        /* \"#utility.yul\":9883:9957   */\n      swap2\n      pop\n        /* \"#utility.yul\":9966:10059   */\n      tag_540\n        /* \"#utility.yul\":10055:10058   */\n      dup3\n        /* \"#utility.yul\":9966:10059   */\n      tag_541\n      jump\t// in\n    tag_540:\n        /* \"#utility.yul\":10084:10086   */\n      0x40\n        /* \"#utility.yul\":10079:10082   */\n      dup3\n        /* \"#utility.yul\":10075:10087   */\n      add\n        /* \"#utility.yul\":10068:10087   */\n      swap1\n      pop\n        /* \"#utility.yul\":9727:10093   */\n      swap2\n      swap1\n      pop\n      jump\t// out\n        /* \"#utility.yul\":10099:10465   */\n    tag_542:\n        /* \"#utility.yul\":10241:10244   */\n      0x00\n        /* \"#utility.yul\":10262:10329   */\n      tag_544\n        /* \"#utility.yul\":10326:10328   */\n      0x20\n        /* \"#utility.yul\":10321:10324   */\n      dup4\n        /* \"#utility.yul\":10262:10329   */\n      tag_466\n      jump\t// in\n    tag_544:\n        /* \"#utility.yul\":10255:10329   */\n      swap2\n      pop\n        /* \"#utility.yul\":10338:10431   */\n      tag_545\n        /* \"#utility.yul\":10427:10430   */\n      dup3\n        /* \"#utility.yul\":10338:10431   */\n      tag_546\n      jump\t// in\n    tag_545:\n        /* \"#utility.yul\":10456:10458   */\n      0x20\n        /* \"#utility.yul\":10451:10454   */\n      dup3\n        /* \"#utility.yul\":10447:10459   */\n      add\n        /* \"#utility.yul\":10440:10459   */\n      swap1\n      pop\n        /* \"#utility.yul\":10099:10465   */\n      swap2\n      swap1\n      pop\n      jump\t// out\n        /* \"#utility.yul\":10471:10873   */\n    tag_547:\n        /* \"#utility.yul\":10631:10634   */\n      0x00\n        /* \"#utility.yul\":10652:10737   */\n      tag_549\n        /* \"#utility.yul\":10734:10736   */\n      0x17\n        /* \"#utility.yul\":10729:10732   */\n      dup4\n        /* \"#utility.yul\":10652:10737   */\n      tag_475\n      jump\t// in\n    tag_549:\n        /* \"#utility.yul\":10645:10737   */\n      swap2\n      pop\n        /* \"#utility.yul\":10746:10839   */\n      tag_550\n        /* \"#utility.yul\":10835:10838   */\n      dup3\n        /* \"#utility.yul\":10746:10839   */\n      tag_551\n      jump\t// in\n    tag_550:\n        /* \"#utility.yul\":10864:10866   */\n      0x17\n        /* \"#utility.yul\":10859:10862   */\n      dup3\n        /* \"#utility.yul\":10855:10867   */\n      add\n        /* \"#utility.yul\":10848:10867   */\n      swap1\n      pop\n        /* \"#utility.yul\":10471:10873   */\n      swap2\n      swap1\n      pop\n      jump\t// out\n        /* \"#utility.yul\":10879:11245   */\n    tag_552:\n        /* \"#utility.yul\":11021:11024   */\n      0x00\n        /* \"#utility.yul\":11042:11109   */\n      tag_554\n        /* \"#utility.yul\":11106:11108   */\n      0x25\n        /* \"#utility.yul\":11101:11104   */\n      dup4\n        /* \"#utility.yul\":11042:11109   */\n      tag_466\n      jump\t// in\n    tag_554:\n        /* \"#utility.yul\":11035:11109   */\n      swap2\n      pop\n        /* \"#utility.yul\":11118:11211   */\n      tag_555\n        /* \"#utility.yul\":11207:11210   */\n      dup3\n        /* \"#utility.yul\":11118:11211   */\n      tag_556\n      jump\t// in\n    tag_555:\n        /* \"#utility.yul\":11236:11238   */\n      0x40\n        /* \"#utility.yul\":11231:11234   */\n      dup3\n        /* \"#utility.yul\":11227:11239   */\n      add\n        /* \"#utility.yul\":11220:11239   */\n      swap1\n      pop\n        /* \"#utility.yul\":10879:11245   */\n      swap2\n      swap1\n      pop\n      jump\t// out\n        /* \"#utility.yul\":11251:11653   */\n    tag_557:\n        /* \"#utility.yul\":11411:11414   */\n      0x00\n        /* \"#utility.yul\":11432:11517   */\n      tag_559\n        /* \"#utility.yul\":11514:11516   */\n      0x11\n        /* \"#utility.yul\":11509:11512   */\n      dup4\n        /* \"#utility.yul\":11432:11517   */\n      tag_475\n      jump\t// in\n    tag_559:\n        /* \"#utility.yul\":11425:11517   */\n      swap2\n      pop\n        /* \"#utility.yul\":11526:11619   */\n      tag_560\n        /* \"#utility.yul\":11615:11618   */\n      dup3\n        /* \"#utility.yul\":11526:11619   */\n      tag_561\n      jump\t// in\n    tag_560:\n        /* \"#utility.yul\":11644:11646   */\n      0x11\n        /* \"#utility.yul\":11639:11642   */\n      dup3\n        /* \"#utility.yul\":11635:11647   */\n      add\n        /* \"#utility.yul\":11628:11647   */\n      swap1\n      pop\n        /* \"#utility.yul\":11251:11653   */\n      swap2\n      swap1\n      pop\n      jump\t// out\n        /* \"#utility.yul\":11659:12025   */\n    tag_562:\n        /* \"#utility.yul\":11801:11804   */\n      0x00\n        /* \"#utility.yul\":11822:11889   */\n      tag_564\n        /* \"#utility.yul\":11886:11888   */\n      0x2f\n        /* \"#utility.yul\":11881:11884   */\n      dup4\n        /* \"#utility.yul\":11822:11889   */\n      tag_466\n      jump\t// in\n    tag_564:\n        /* \"#utility.yul\":11815:11889   */\n      swap2\n      pop\n        /* \"#utility.yul\":11898:11991   */\n      tag_565\n        /* \"#utility.yul\":11987:11990   */\n      dup3\n        /* \"#utility.yul\":11898:11991   */\n      tag_566\n      jump\t// in\n    tag_565:\n        /* \"#utility.yul\":12016:12018   */\n      0x40\n        /* \"#utility.yul\":12011:12014   */\n      dup3\n        /* \"#utility.yul\":12007:12019   */\n      add\n        /* \"#utility.yul\":12000:12019   */\n      swap1\n      pop\n        /* \"#utility.yul\":11659:12025   */\n      swap2\n      swap1\n      pop\n      jump\t// out\n        /* \"#utility.yul\":12031:12397   */\n    tag_567:\n        /* \"#utility.yul\":12173:12176   */\n      0x00\n        /* \"#utility.yul\":12194:12261   */\n      tag_569\n        /* \"#utility.yul\":12258:12260   */\n      0x1f\n        /* \"#utility.yul\":12253:12256   */\n      dup4\n        /* \"#utility.yul\":12194:12261   */\n      tag_466\n      jump\t// in\n    tag_569:\n        /* \"#utility.yul\":12187:12261   */\n      swap2\n      pop\n        /* \"#utility.yul\":12270:12363   */\n      tag_570\n        /* \"#utility.yul\":12359:12362   */\n      dup3\n        /* \"#utility.yul\":12270:12363   */\n      tag_571\n      jump\t// in\n    tag_570:\n        /* \"#utility.yul\":12388:12390   */\n      0x20\n        /* \"#utility.yul\":12383:12386   */\n      dup3\n        /* \"#utility.yul\":12379:12391   */\n      add\n        /* \"#utility.yul\":12372:12391   */\n      swap1\n      pop\n        /* \"#utility.yul\":12031:12397   */\n      swap2\n      swap1\n      pop\n      jump\t// out\n        /* \"#utility.yul\":12403:12521   */\n    tag_572:\n        /* \"#utility.yul\":12490:12514   */\n      tag_574\n        /* \"#utility.yul\":12508:12513   */\n      dup2\n        /* \"#utility.yul\":12490:12514   */\n      tag_575\n      jump\t// in\n    tag_574:\n        /* \"#utility.yul\":12485:12488   */\n      dup3\n        /* \"#utility.yul\":12478:12515   */\n      mstore\n        /* \"#utility.yul\":12403:12521   */\n      pop\n      pop\n      jump\t// out\n        /* \"#utility.yul\":12527:12639   */\n    tag_576:\n        /* \"#utility.yul\":12610:12632   */\n      tag_578\n        /* \"#utility.yul\":12626:12631   */\n      dup2\n        /* \"#utility.yul\":12610:12632   */\n      tag_579\n      jump\t// in\n    tag_578:\n        /* \"#utility.yul\":12605:12608   */\n      dup3\n        /* \"#utility.yul\":12598:12633   */\n      mstore\n        /* \"#utility.yul\":12527:12639   */\n      pop\n      pop\n      jump\t// out\n        /* \"#utility.yul\":12645:13612   */\n    tag_330:\n        /* \"#utility.yul\":13027:13030   */\n      0x00\n        /* \"#utility.yul\":13049:13197   */\n      tag_581\n        /* \"#utility.yul\":13193:13196   */\n      dup3\n        /* \"#utility.yul\":13049:13197   */\n      tag_547\n      jump\t// in\n    tag_581:\n        /* \"#utility.yul\":13042:13197   */\n      swap2\n      pop\n        /* \"#utility.yul\":13214:13309   */\n      tag_582\n        /* \"#utility.yul\":13305:13308   */\n      dup3\n        /* \"#utility.yul\":13296:13302   */\n      dup6\n        /* \"#utility.yul\":13214:13309   */\n      tag_471\n      jump\t// in\n    tag_582:\n        /* \"#utility.yul\":13207:13309   */\n      swap2\n      pop\n        /* \"#utility.yul\":13326:13474   */\n      tag_583\n        /* \"#utility.yul\":13470:13473   */\n      dup3\n        /* \"#utility.yul\":13326:13474   */\n      tag_557\n      jump\t// in\n    tag_583:\n        /* \"#utility.yul\":13319:13474   */\n      swap2\n      pop\n        /* \"#utility.yul\":13491:13586   */\n      tag_584\n        /* \"#utility.yul\":13582:13585   */\n      dup3\n        /* \"#utility.yul\":13573:13579   */\n      dup5\n        /* \"#utility.yul\":13491:13586   */\n      tag_471\n      jump\t// in\n    tag_584:\n        /* \"#utility.yul\":13484:13586   */\n      swap2\n      pop\n        /* \"#utility.yul\":13603:13606   */\n      dup2\n        /* \"#utility.yul\":13596:13606   */\n      swap1\n      pop\n        /* \"#utility.yul\":12645:13612   */\n      swap4\n      swap3\n      pop\n      pop\n      pop\n      jump\t// out\n        /* \"#utility.yul\":13618:13950   */\n    tag_239:\n        /* \"#utility.yul\":13739:13743   */\n      0x00\n        /* \"#utility.yul\":13777:13779   */\n      0x40\n        /* \"#utility.yul\":13766:13775   */\n      dup3\n        /* \"#utility.yul\":13762:13780   */\n      add\n        /* \"#utility.yul\":13754:13780   */\n      swap1\n      pop\n        /* \"#utility.yul\":13790:13861   */\n      tag_586\n        /* \"#utility.yul\":13858:13859   */\n      0x00\n        /* \"#utility.yul\":13847:13856   */\n      dup4\n        /* \"#utility.yul\":13843:13860   */\n      add\n        /* \"#utility.yul\":13834:13840   */\n      dup6\n        /* \"#utility.yul\":13790:13861   */\n      tag_449\n      jump\t// in\n    tag_586:\n        /* \"#utility.yul\":13871:13943   */\n      tag_587\n        /* \"#utility.yul\":13939:13941   */\n      0x20\n        /* \"#utility.yul\":13928:13937   */\n      dup4\n        /* \"#utility.yul\":13924:13942   */\n      add\n        /* \"#utility.yul\":13915:13921   */\n      dup5\n        /* \"#utility.yul\":13871:13943   */\n      tag_572\n      jump\t// in\n    tag_587:\n        /* \"#utility.yul\":13618:13950   */\n      swap4\n      swap3\n      pop\n      pop\n      pop\n      jump\t// out\n        /* \"#utility.yul\":13956:14166   */\n    tag_44:\n        /* \"#utility.yul\":14043:14047   */\n      0x00\n        /* \"#utility.yul\":14081:14083   */\n      0x20\n        /* \"#utility.yul\":14070:14079   */\n      dup3\n        /* \"#utility.yul\":14066:14084   */\n      add\n        /* \"#utility.yul\":14058:14084   */\n      swap1\n      pop\n        /* \"#utility.yul\":14094:14159   */\n      tag_589\n        /* \"#utility.yul\":14156:14157   */\n      0x00\n        /* \"#utility.yul\":14145:14154   */\n      dup4\n        /* \"#utility.yul\":14141:14158   */\n      add\n        /* \"#utility.yul\":14132:14138   */\n      dup5\n        /* \"#utility.yul\":14094:14159   */\n      tag_453\n      jump\t// in\n    tag_589:\n        /* \"#utility.yul\":13956:14166   */\n      swap3\n      swap2\n      pop\n      pop\n      jump\t// out\n        /* \"#utility.yul\":14172:14394   */\n    tag_73:\n        /* \"#utility.yul\":14265:14269   */\n      0x00\n        /* \"#utility.yul\":14303:14305   */\n      0x20\n        /* \"#utility.yul\":14292:14301   */\n      dup3\n        /* \"#utility.yul\":14288:14306   */\n      add\n        /* \"#utility.yul\":14280:14306   */\n      swap1\n      pop\n        /* \"#utility.yul\":14316:14387   */\n      tag_591\n        /* \"#utility.yul\":14384:14385   */\n      0x00\n        /* \"#utility.yul\":14373:14382   */\n      dup4\n        /* \"#utility.yul\":14369:14386   */\n      add\n        /* \"#utility.yul\":14360:14366   */\n      dup5\n        /* \"#utility.yul\":14316:14387   */\n      tag_457\n      jump\t// in\n    tag_591:\n        /* \"#utility.yul\":14172:14394   */\n      swap3\n      swap2\n      pop\n      pop\n      jump\t// out\n        /* \"#utility.yul\":14400:14713   */\n    tag_49:\n        /* \"#utility.yul\":14513:14517   */\n      0x00\n        /* \"#utility.yul\":14551:14553   */\n      0x20\n        /* \"#utility.yul\":14540:14549   */\n      dup3\n        /* \"#utility.yul\":14536:14554   */\n      add\n        /* \"#utility.yul\":14528:14554   */\n      swap1\n      pop\n        /* \"#utility.yul\":14600:14609   */\n      dup2\n        /* \"#utility.yul\":14594:14598   */\n      dup2\n        /* \"#utility.yul\":14590:14610   */\n      sub\n        /* \"#utility.yul\":14586:14587   */\n      0x00\n        /* \"#utility.yul\":14575:14584   */\n      dup4\n        /* \"#utility.yul\":14571:14588   */\n      add\n        /* \"#utility.yul\":14564:14611   */\n      mstore\n        /* \"#utility.yul\":14628:14706   */\n      tag_593\n        /* \"#utility.yul\":14701:14705   */\n      dup2\n        /* \"#utility.yul\":14692:14698   */\n      dup5\n        /* \"#utility.yul\":14628:14706   */\n      tag_461\n      jump\t// in\n    tag_593:\n        /* \"#utility.yul\":14620:14706   */\n      swap1\n      pop\n        /* \"#utility.yul\":14400:14713   */\n      swap3\n      swap2\n      pop\n      pop\n      jump\t// out\n        /* \"#utility.yul\":14719:15138   */\n    tag_389:\n        /* \"#utility.yul\":14885:14889   */\n      0x00\n        /* \"#utility.yul\":14923:14925   */\n      0x20\n        /* \"#utility.yul\":14912:14921   */\n      dup3\n        /* \"#utility.yul\":14908:14926   */\n      add\n        /* \"#utility.yul\":14900:14926   */\n      swap1\n      pop\n        /* \"#utility.yul\":14972:14981   */\n      dup2\n        /* \"#utility.yul\":14966:14970   */\n      dup2\n        /* \"#utility.yul\":14962:14982   */\n      sub\n        /* \"#utility.yul\":14958:14959   */\n      0x00\n        /* \"#utility.yul\":14947:14956   */\n      dup4\n        /* \"#utility.yul\":14943:14960   */\n      add\n        /* \"#utility.yul\":14936:14983   */\n      mstore\n        /* \"#utility.yul\":15000:15131   */\n      tag_595\n        /* \"#utility.yul\":15126:15130   */\n      dup2\n        /* \"#utility.yul\":15000:15131   */\n      tag_477\n      jump\t// in\n    tag_595:\n        /* \"#utility.yul\":14992:15131   */\n      swap1\n      pop\n        /* \"#utility.yul\":14719:15138   */\n      swap2\n      swap1\n      pop\n      jump\t// out\n        /* \"#utility.yul\":15144:15563   */\n    tag_313:\n        /* \"#utility.yul\":15310:15314   */\n      0x00\n        /* \"#utility.yul\":15348:15350   */\n      0x20\n        /* \"#utility.yul\":15337:15346   */\n      dup3\n        /* \"#utility.yul\":15333:15351   */\n      add\n        /* \"#utility.yul\":15325:15351   */\n      swap1\n      pop\n        /* \"#utility.yul\":15397:15406   */\n      dup2\n        /* \"#utility.yul\":15391:15395   */\n      dup2\n        /* \"#utility.yul\":15387:15407   */\n      sub\n        /* \"#utility.yul\":15383:15384   */\n      0x00\n        /* \"#utility.yul\":15372:15381   */\n      dup4\n        /* \"#utility.yul\":15368:15385   */\n      add\n        /* \"#utility.yul\":15361:15408   */\n      mstore\n        /* \"#utility.yul\":15425:15556   */\n      tag_597\n        /* \"#utility.yul\":15551:15555   */\n      dup2\n        /* \"#utility.yul\":15425:15556   */\n      tag_482\n      jump\t// in\n    tag_597:\n        /* \"#utility.yul\":15417:15556   */\n      swap1\n      pop\n        /* \"#utility.yul\":15144:15563   */\n      swap2\n      swap1\n      pop\n      jump\t// out\n        /* \"#utility.yul\":15569:15988   */\n    tag_358:\n        /* \"#utility.yul\":15735:15739   */\n      0x00\n        /* \"#utility.yul\":15773:15775   */\n      0x20\n        /* \"#utility.yul\":15762:15771   */\n      dup3\n        /* \"#utility.yul\":15758:15776   */\n      add\n        /* \"#utility.yul\":15750:15776   */\n      swap1\n      pop\n        /* \"#utility.yul\":15822:15831   */\n      dup2\n        /* \"#utility.yul\":15816:15820   */\n      dup2\n        /* \"#utility.yul\":15812:15832   */\n      sub\n        /* \"#utility.yul\":15808:15809   */\n      0x00\n        /* \"#utility.yul\":15797:15806   */\n      dup4\n        /* \"#utility.yul\":15793:15810   */\n      add\n        /* \"#utility.yul\":15786:15833   */\n      mstore\n        /* \"#utility.yul\":15850:15981   */\n      tag_599\n        /* \"#utility.yul\":15976:15980   */\n      dup2\n        /* \"#utility.yul\":15850:15981   */\n      tag_487\n      jump\t// in\n    tag_599:\n        /* \"#utility.yul\":15842:15981   */\n      swap1\n      pop\n        /* \"#utility.yul\":15569:15988   */\n      swap2\n      swap1\n      pop\n      jump\t// out\n        /* \"#utility.yul\":15994:16413   */\n    tag_298:\n        /* \"#utility.yul\":16160:16164   */\n      0x00\n        /* \"#utility.yul\":16198:16200   */\n      0x20\n        /* \"#utility.yul\":16187:16196   */\n      dup3\n        /* \"#utility.yul\":16183:16201   */\n      add\n        /* \"#utility.yul\":16175:16201   */\n      swap1\n      pop\n        /* \"#utility.yul\":16247:16256   */\n      dup2\n        /* \"#utility.yul\":16241:16245   */\n      dup2\n        /* \"#utility.yul\":16237:16257   */\n      sub\n        /* \"#utility.yul\":16233:16234   */\n      0x00\n        /* \"#utility.yul\":16222:16231   */\n      dup4\n        /* \"#utility.yul\":16218:16235   */\n      add\n        /* \"#utility.yul\":16211:16258   */\n      mstore\n        /* \"#utility.yul\":16275:16406   */\n      tag_601\n        /* \"#utility.yul\":16401:16405   */\n      dup2\n        /* \"#utility.yul\":16275:16406   */\n      tag_492\n      jump\t// in\n    tag_601:\n        /* \"#utility.yul\":16267:16406   */\n      swap1\n      pop\n        /* \"#utility.yul\":15994:16413   */\n      swap2\n      swap1\n      pop\n      jump\t// out\n        /* \"#utility.yul\":16419:16838   */\n    tag_305:\n        /* \"#utility.yul\":16585:16589   */\n      0x00\n        /* \"#utility.yul\":16623:16625   */\n      0x20\n        /* \"#utility.yul\":16612:16621   */\n      dup3\n        /* \"#utility.yul\":16608:16626   */\n      add\n        /* \"#utility.yul\":16600:16626   */\n      swap1\n      pop\n        /* \"#utility.yul\":16672:16681   */\n      dup2\n        /* \"#utility.yul\":16666:16670   */\n      dup2\n        /* \"#utility.yul\":16662:16682   */\n      sub\n        /* \"#utility.yul\":16658:16659   */\n      0x00\n        /* \"#utility.yul\":16647:16656   */\n      dup4\n        /* \"#utility.yul\":16643:16660   */\n      add\n        /* \"#utility.yul\":16636:16683   */\n      mstore\n        /* \"#utility.yul\":16700:16831   */\n      tag_603\n        /* \"#utility.yul\":16826:16830   */\n      dup2\n        /* \"#utility.yul\":16700:16831   */\n      tag_497\n      jump\t// in\n    tag_603:\n        /* \"#utility.yul\":16692:16831   */\n      swap1\n      pop\n        /* \"#utility.yul\":16419:16838   */\n      swap2\n      swap1\n      pop\n      jump\t// out\n        /* \"#utility.yul\":16844:17263   */\n    tag_318:\n        /* \"#utility.yul\":17010:17014   */\n      0x00\n        /* \"#utility.yul\":17048:17050   */\n      0x20\n        /* \"#utility.yul\":17037:17046   */\n      dup3\n        /* \"#utility.yul\":17033:17051   */\n      add\n        /* \"#utility.yul\":17025:17051   */\n      swap1\n      pop\n        /* \"#utility.yul\":17097:17106   */\n      dup2\n        /* \"#utility.yul\":17091:17095   */\n      dup2\n        /* \"#utility.yul\":17087:17107   */\n      sub\n        /* \"#utility.yul\":17083:17084   */\n      0x00\n        /* \"#utility.yul\":17072:17081   */\n      dup4\n        /* \"#utility.yul\":17068:17085   */\n      add\n        /* \"#utility.yul\":17061:17108   */\n      mstore\n        /* \"#utility.yul\":17125:17256   */\n      tag_605\n        /* \"#utility.yul\":17251:17255   */\n      dup2\n        /* \"#utility.yul\":17125:17256   */\n      tag_502\n      jump\t// in\n    tag_605:\n        /* \"#utility.yul\":17117:17256   */\n      swap1\n      pop\n        /* \"#utility.yul\":16844:17263   */\n      swap2\n      swap1\n      pop\n      jump\t// out\n        /* \"#utility.yul\":17269:17688   */\n    tag_234:\n        /* \"#utility.yul\":17435:17439   */\n      0x00\n        /* \"#utility.yul\":17473:17475   */\n      0x20\n        /* \"#utility.yul\":17462:17471   */\n      dup3\n        /* \"#utility.yul\":17458:17476   */\n      add\n        /* \"#utility.yul\":17450:17476   */\n      swap1\n      pop\n        /* \"#utility.yul\":17522:17531   */\n      dup2\n        /* \"#utility.yul\":17516:17520   */\n      dup2\n        /* \"#utility.yul\":17512:17532   */\n      sub\n        /* \"#utility.yul\":17508:17509   */\n      0x00\n        /* \"#utility.yul\":17497:17506   */\n      dup4\n        /* \"#utility.yul\":17493:17510   */\n      add\n        /* \"#utility.yul\":17486:17533   */\n      mstore\n        /* \"#utility.yul\":17550:17681   */\n      tag_607\n        /* \"#utility.yul\":17676:17680   */\n      dup2\n        /* \"#utility.yul\":17550:17681   */\n      tag_507\n      jump\t// in\n    tag_607:\n        /* \"#utility.yul\":17542:17681   */\n      swap1\n      pop\n        /* \"#utility.yul\":17269:17688   */\n      swap2\n      swap1\n      pop\n      jump\t// out\n        /* \"#utility.yul\":17694:18113   */\n    tag_228:\n        /* \"#utility.yul\":17860:17864   */\n      0x00\n        /* \"#utility.yul\":17898:17900   */\n      0x20\n        /* \"#utility.yul\":17887:17896   */\n      dup3\n        /* \"#utility.yul\":17883:17901   */\n      add\n        /* \"#utility.yul\":17875:17901   */\n      swap1\n      pop\n        /* \"#utility.yul\":17947:17956   */\n      dup2\n        /* \"#utility.yul\":17941:17945   */\n      dup2\n        /* \"#utility.yul\":17937:17957   */\n      sub\n        /* \"#utility.yul\":17933:17934   */\n      0x00\n        /* \"#utility.yul\":17922:17931   */\n      dup4\n        /* \"#utility.yul\":17918:17935   */\n      add\n        /* \"#utility.yul\":17911:17958   */\n      mstore\n        /* \"#utility.yul\":17975:18106   */\n      tag_609\n        /* \"#utility.yul\":18101:18105   */\n      dup2\n        /* \"#utility.yul\":17975:18106   */\n      tag_512\n      jump\t// in\n    tag_609:\n        /* \"#utility.yul\":17967:18106   */\n      swap1\n      pop\n        /* \"#utility.yul\":17694:18113   */\n      swap2\n      swap1\n      pop\n      jump\t// out\n        /* \"#utility.yul\":18119:18538   */\n    tag_270:\n        /* \"#utility.yul\":18285:18289   */\n      0x00\n        /* \"#utility.yul\":18323:18325   */\n      0x20\n        /* \"#utility.yul\":18312:18321   */\n      dup3\n        /* \"#utility.yul\":18308:18326   */\n      add\n        /* \"#utility.yul\":18300:18326   */\n      swap1\n      pop\n        /* \"#utility.yul\":18372:18381   */\n      dup2\n        /* \"#utility.yul\":18366:18370   */\n      dup2\n        /* \"#utility.yul\":18362:18382   */\n      sub\n        /* \"#utility.yul\":18358:18359   */\n      0x00\n        /* \"#utility.yul\":18347:18356   */\n      dup4\n        /* \"#utility.yul\":18343:18360   */\n      add\n        /* \"#utility.yul\":18336:18383   */\n      mstore\n        /* \"#utility.yul\":18400:18531   */\n      tag_611\n        /* \"#utility.yul\":18526:18530   */\n      dup2\n        /* \"#utility.yul\":18400:18531   */\n      tag_517\n      jump\t// in\n    tag_611:\n        /* \"#utility.yul\":18392:18531   */\n      swap1\n      pop\n        /* \"#utility.yul\":18119:18538   */\n      swap2\n      swap1\n      pop\n      jump\t// out\n        /* \"#utility.yul\":18544:18963   */\n    tag_354:\n        /* \"#utility.yul\":18710:18714   */\n      0x00\n        /* \"#utility.yul\":18748:18750   */\n      0x20\n        /* \"#utility.yul\":18737:18746   */\n      dup3\n        /* \"#utility.yul\":18733:18751   */\n      add\n        /* \"#utility.yul\":18725:18751   */\n      swap1\n      pop\n        /* \"#utility.yul\":18797:18806   */\n      dup2\n        /* \"#utility.yul\":18791:18795   */\n      dup2\n        /* \"#utility.yul\":18787:18807   */\n      sub\n        /* \"#utility.yul\":18783:18784   */\n      0x00\n        /* \"#utility.yul\":18772:18781   */\n      dup4\n        /* \"#utility.yul\":18768:18785   */\n      add\n        /* \"#utility.yul\":18761:18808   */\n      mstore\n        /* \"#utility.yul\":18825:18956   */\n      tag_613\n        /* \"#utility.yul\":18951:18955   */\n      dup2\n        /* \"#utility.yul\":18825:18956   */\n      tag_522\n      jump\t// in\n    tag_613:\n        /* \"#utility.yul\":18817:18956   */\n      swap1\n      pop\n        /* \"#utility.yul\":18544:18963   */\n      swap2\n      swap1\n      pop\n      jump\t// out\n        /* \"#utility.yul\":18969:19388   */\n    tag_310:\n        /* \"#utility.yul\":19135:19139   */\n      0x00\n        /* \"#utility.yul\":19173:19175   */\n      0x20\n        /* \"#utility.yul\":19162:19171   */\n      dup3\n        /* \"#utility.yul\":19158:19176   */\n      add\n        /* \"#utility.yul\":19150:19176   */\n      swap1\n      pop\n        /* \"#utility.yul\":19222:19231   */\n      dup2\n        /* \"#utility.yul\":19216:19220   */\n      dup2\n        /* \"#utility.yul\":19212:19232   */\n      sub\n        /* \"#utility.yul\":19208:19209   */\n      0x00\n        /* \"#utility.yul\":19197:19206   */\n      dup4\n        /* \"#utility.yul\":19193:19210   */\n      add\n        /* \"#utility.yul\":19186:19233   */\n      mstore\n        /* \"#utility.yul\":19250:19381   */\n      tag_615\n        /* \"#utility.yul\":19376:19380   */\n      dup2\n        /* \"#utility.yul\":19250:19381   */\n      tag_527\n      jump\t// in\n    tag_615:\n        /* \"#utility.yul\":19242:19381   */\n      swap1\n      pop\n        /* \"#utility.yul\":18969:19388   */\n      swap2\n      swap1\n      pop\n      jump\t// out\n        /* \"#utility.yul\":19394:19813   */\n    tag_250:\n        /* \"#utility.yul\":19560:19564   */\n      0x00\n        /* \"#utility.yul\":19598:19600   */\n      0x20\n        /* \"#utility.yul\":19587:19596   */\n      dup3\n        /* \"#utility.yul\":19583:19601   */\n      add\n        /* \"#utility.yul\":19575:19601   */\n      swap1\n      pop\n        /* \"#utility.yul\":19647:19656   */\n      dup2\n        /* \"#utility.yul\":19641:19645   */\n      dup2\n        /* \"#utility.yul\":19637:19657   */\n      sub\n        /* \"#utility.yul\":19633:19634   */\n      0x00\n        /* \"#utility.yul\":19622:19631   */\n      dup4\n        /* \"#utility.yul\":19618:19635   */\n      add\n        /* \"#utility.yul\":19611:19658   */\n      mstore\n        /* \"#utility.yul\":19675:19806   */\n      tag_617\n        /* \"#utility.yul\":19801:19805   */\n      dup2\n        /* \"#utility.yul\":19675:19806   */\n      tag_532\n      jump\t// in\n    tag_617:\n        /* \"#utility.yul\":19667:19806   */\n      swap1\n      pop\n        /* \"#utility.yul\":19394:19813   */\n      swap2\n      swap1\n      pop\n      jump\t// out\n        /* \"#utility.yul\":19819:20238   */\n    tag_295:\n        /* \"#utility.yul\":19985:19989   */\n      0x00\n        /* \"#utility.yul\":20023:20025   */\n      0x20\n        /* \"#utility.yul\":20012:20021   */\n      dup3\n        /* \"#utility.yul\":20008:20026   */\n      add\n        /* \"#utility.yul\":20000:20026   */\n      swap1\n      pop\n        /* \"#utility.yul\":20072:20081   */\n      dup2\n        /* \"#utility.yul\":20066:20070   */\n      dup2\n        /* \"#utility.yul\":20062:20082   */\n      sub\n        /* \"#utility.yul\":20058:20059   */\n      0x00\n        /* \"#utility.yul\":20047:20056   */\n      dup4\n        /* \"#utility.yul\":20043:20060   */\n      add\n        /* \"#utility.yul\":20036:20083   */\n      mstore\n        /* \"#utility.yul\":20100:20231   */\n      tag_619\n        /* \"#utility.yul\":20226:20230   */\n      dup2\n        /* \"#utility.yul\":20100:20231   */\n      tag_537\n      jump\t// in\n    tag_619:\n        /* \"#utility.yul\":20092:20231   */\n      swap1\n      pop\n        /* \"#utility.yul\":19819:20238   */\n      swap2\n      swap1\n      pop\n      jump\t// out\n        /* \"#utility.yul\":20244:20663   */\n    tag_256:\n        /* \"#utility.yul\":20410:20414   */\n      0x00\n        /* \"#utility.yul\":20448:20450   */\n      0x20\n        /* \"#utility.yul\":20437:20446   */\n      dup3\n        /* \"#utility.yul\":20433:20451   */\n      add\n        /* \"#utility.yul\":20425:20451   */\n      swap1\n      pop\n        /* \"#utility.yul\":20497:20506   */\n      dup2\n        /* \"#utility.yul\":20491:20495   */\n      dup2\n        /* \"#utility.yul\":20487:20507   */\n      sub\n        /* \"#utility.yul\":20483:20484   */\n      0x00\n        /* \"#utility.yul\":20472:20481   */\n      dup4\n        /* \"#utility.yul\":20468:20485   */\n      add\n        /* \"#utility.yul\":20461:20508   */\n      mstore\n        /* \"#utility.yul\":20525:20656   */\n      tag_621\n        /* \"#utility.yul\":20651:20655   */\n      dup2\n        /* \"#utility.yul\":20525:20656   */\n      tag_542\n      jump\t// in\n    tag_621:\n        /* \"#utility.yul\":20517:20656   */\n      swap1\n      pop\n        /* \"#utility.yul\":20244:20663   */\n      swap2\n      swap1\n      pop\n      jump\t// out\n        /* \"#utility.yul\":20669:21088   */\n    tag_277:\n        /* \"#utility.yul\":20835:20839   */\n      0x00\n        /* \"#utility.yul\":20873:20875   */\n      0x20\n        /* \"#utility.yul\":20862:20871   */\n      dup3\n        /* \"#utility.yul\":20858:20876   */\n      add\n        /* \"#utility.yul\":20850:20876   */\n      swap1\n      pop\n        /* \"#utility.yul\":20922:20931   */\n      dup2\n        /* \"#utility.yul\":20916:20920   */\n      dup2\n        /* \"#utility.yul\":20912:20932   */\n      sub\n        /* \"#utility.yul\":20908:20909   */\n      0x00\n        /* \"#utility.yul\":20897:20906   */\n      dup4\n        /* \"#utility.yul\":20893:20910   */\n      add\n        /* \"#utility.yul\":20886:20933   */\n      mstore\n        /* \"#utility.yul\":20950:21081   */\n      tag_623\n        /* \"#utility.yul\":21076:21080   */\n      dup2\n        /* \"#utility.yul\":20950:21081   */\n      tag_552\n      jump\t// in\n    tag_623:\n        /* \"#utility.yul\":20942:21081   */\n      swap1\n      pop\n        /* \"#utility.yul\":20669:21088   */\n      swap2\n      swap1\n      pop\n      jump\t// out\n        /* \"#utility.yul\":21094:21513   */\n    tag_215:\n        /* \"#utility.yul\":21260:21264   */\n      0x00\n        /* \"#utility.yul\":21298:21300   */\n      0x20\n        /* \"#utility.yul\":21287:21296   */\n      dup3\n        /* \"#utility.yul\":21283:21301   */\n      add\n        /* \"#utility.yul\":21275:21301   */\n      swap1\n      pop\n        /* \"#utility.yul\":21347:21356   */\n      dup2\n        /* \"#utility.yul\":21341:21345   */\n      dup2\n        /* \"#utility.yul\":21337:21357   */\n      sub\n        /* \"#utility.yul\":21333:21334   */\n      0x00\n        /* \"#utility.yul\":21322:21331   */\n      dup4\n        /* \"#utility.yul\":21318:21335   */\n      add\n        /* \"#utility.yul\":21311:21358   */\n      mstore\n        /* \"#utility.yul\":21375:21506   */\n      tag_625\n        /* \"#utility.yul\":21501:21505   */\n      dup2\n        /* \"#utility.yul\":21375:21506   */\n      tag_562\n      jump\t// in\n    tag_625:\n        /* \"#utility.yul\":21367:21506   */\n      swap1\n      pop\n        /* \"#utility.yul\":21094:21513   */\n      swap2\n      swap1\n      pop\n      jump\t// out\n        /* \"#utility.yul\":21519:21938   */\n    tag_343:\n        /* \"#utility.yul\":21685:21689   */\n      0x00\n        /* \"#utility.yul\":21723:21725   */\n      0x20\n        /* \"#utility.yul\":21712:21721   */\n      dup3\n        /* \"#utility.yul\":21708:21726   */\n      add\n        /* \"#utility.yul\":21700:21726   */\n      swap1\n      pop\n        /* \"#utility.yul\":21772:21781   */\n      dup2\n        /* \"#utility.yul\":21766:21770   */\n      dup2\n        /* \"#utility.yul\":21762:21782   */\n      sub\n        /* \"#utility.yul\":21758:21759   */\n      0x00\n        /* \"#utility.yul\":21747:21756   */\n      dup4\n        /* \"#utility.yul\":21743:21760   */\n      add\n        /* \"#utility.yul\":21736:21783   */\n      mstore\n        /* \"#utility.yul\":21800:21931   */\n      tag_627\n        /* \"#utility.yul\":21926:21930   */\n      dup2\n        /* \"#utility.yul\":21800:21931   */\n      tag_567\n      jump\t// in\n    tag_627:\n        /* \"#utility.yul\":21792:21931   */\n      swap1\n      pop\n        /* \"#utility.yul\":21519:21938   */\n      swap2\n      swap1\n      pop\n      jump\t// out\n        /* \"#utility.yul\":21944:22166   */\n    tag_60:\n        /* \"#utility.yul\":22037:22041   */\n      0x00\n        /* \"#utility.yul\":22075:22077   */\n      0x20\n        /* \"#utility.yul\":22064:22073   */\n      dup3\n        /* \"#utility.yul\":22060:22078   */\n      add\n        /* \"#utility.yul\":22052:22078   */\n      swap1\n      pop\n        /* \"#utility.yul\":22088:22159   */\n      tag_629\n        /* \"#utility.yul\":22156:22157   */\n      0x00\n        /* \"#utility.yul\":22145:22154   */\n      dup4\n        /* \"#utility.yul\":22141:22158   */\n      add\n        /* \"#utility.yul\":22132:22138   */\n      dup5\n        /* \"#utility.yul\":22088:22159   */\n      tag_572\n      jump\t// in\n    tag_629:\n        /* \"#utility.yul\":21944:22166   */\n      swap3\n      swap2\n      pop\n      pop\n      jump\t// out\n        /* \"#utility.yul\":22172:22386   */\n    tag_87:\n        /* \"#utility.yul\":22261:22265   */\n      0x00\n        /* \"#utility.yul\":22299:22301   */\n      0x20\n        /* \"#utility.yul\":22288:22297   */\n      dup3\n        /* \"#utility.yul\":22284:22302   */\n      add\n        /* \"#utility.yul\":22276:22302   */\n      swap1\n      pop\n        /* \"#utility.yul\":22312:22379   */\n      tag_631\n        /* \"#utility.yul\":22376:22377   */\n      0x00\n        /* \"#utility.yul\":22365:22374   */\n      dup4\n        /* \"#utility.yul\":22361:22378   */\n      add\n        /* \"#utility.yul\":22352:22358   */\n      dup5\n        /* \"#utility.yul\":22312:22379   */\n      tag_576\n      jump\t// in\n    tag_631:\n        /* \"#utility.yul\":22172:22386   */\n      swap3\n      swap2\n      pop\n      pop\n      jump\t// out\n        /* \"#utility.yul\":22473:22572   */\n    tag_464:\n        /* \"#utility.yul\":22525:22531   */\n      0x00\n        /* \"#utility.yul\":22559:22564   */\n      dup2\n        /* \"#utility.yul\":22553:22565   */\n      mload\n        /* \"#utility.yul\":22543:22565   */\n      swap1\n      pop\n        /* \"#utility.yul\":22473:22572   */\n      swap2\n      swap1\n      pop\n      jump\t// out\n        /* \"#utility.yul\":22578:22747   */\n    tag_466:\n        /* \"#utility.yul\":22662:22673   */\n      0x00\n        /* \"#utility.yul\":22696:22702   */\n      dup3\n        /* \"#utility.yul\":22691:22694   */\n      dup3\n        /* \"#utility.yul\":22684:22703   */\n      mstore\n        /* \"#utility.yul\":22736:22740   */\n      0x20\n        /* \"#utility.yul\":22731:22734   */\n      dup3\n        /* \"#utility.yul\":22727:22741   */\n      add\n        /* \"#utility.yul\":22712:22741   */\n      swap1\n      pop\n        /* \"#utility.yul\":22578:22747   */\n      swap3\n      swap2\n      pop\n      pop\n      jump\t// out\n        /* \"#utility.yul\":22753:22901   */\n    tag_475:\n        /* \"#utility.yul\":22855:22866   */\n      0x00\n        /* \"#utility.yul\":22892:22895   */\n      dup2\n        /* \"#utility.yul\":22877:22895   */\n      swap1\n      pop\n        /* \"#utility.yul\":22753:22901   */\n      swap3\n      swap2\n      pop\n      pop\n      jump\t// out\n        /* \"#utility.yul\":22907:23212   */\n    tag_222:\n        /* \"#utility.yul\":22947:22950   */\n      0x00\n        /* \"#utility.yul\":22966:22986   */\n      tag_638\n        /* \"#utility.yul\":22984:22985   */\n      dup3\n        /* \"#utility.yul\":22966:22986   */\n      tag_575\n      jump\t// in\n    tag_638:\n        /* \"#utility.yul\":22961:22986   */\n      swap2\n      pop\n        /* \"#utility.yul\":23000:23020   */\n      tag_639\n        /* \"#utility.yul\":23018:23019   */\n      dup4\n        /* \"#utility.yul\":23000:23020   */\n      tag_575\n      jump\t// in\n    tag_639:\n        /* \"#utility.yul\":22995:23020   */\n      swap3\n      pop\n        /* \"#utility.yul\":23154:23155   */\n      dup3\n        /* \"#utility.yul\":23086:23152   */\n      0xffffffffffffffffffffffffffffffffffffffffffffffffffffffffffffffff\n        /* \"#utility.yul\":23082:23156   */\n      sub\n        /* \"#utility.yul\":23079:23080   */\n      dup3\n        /* \"#utility.yul\":23076:23157   */\n      gt\n        /* \"#utility.yul\":23073:23180   */\n      iszero\n      tag_640\n      jumpi\n        /* \"#utility.yul\":23160:23178   */\n      tag_641\n      tag_642\n      jump\t// in\n    tag_641:\n        /* \"#utility.yul\":23073:23180   */\n    tag_640:\n        /* \"#utility.yul\":23204:23205   */\n      dup3\n        /* \"#utility.yul\":23201:23202   */\n      dup3\n        /* \"#utility.yul\":23197:23206   */\n      add\n        /* \"#utility.yul\":23190:23206   */\n      swap1\n      pop\n        /* \"#utility.yul\":22907:23212   */\n      swap3\n      swap2\n      pop\n      pop\n      jump\t// out\n        /* \"#utility.yul\":23218:23566   */\n    tag_237:\n        /* \"#utility.yul\":23258:23265   */\n      0x00\n        /* \"#utility.yul\":23281:23301   */\n      tag_644\n        /* \"#utility.yul\":23299:23300   */\n      dup3\n        /* \"#utility.yul\":23281:23301   */\n      tag_575\n      jump\t// in\n    tag_644:\n        /* \"#utility.yul\":23276:23301   */\n      swap2\n      pop\n        /* \"#utility.yul\":23315:23335   */\n      tag_645\n        /* \"#utility.yul\":23333:23334   */\n      dup4\n        /* \"#utility.yul\":23315:23335   */\n      tag_575\n      jump\t// in\n    tag_645:\n        /* \"#utility.yul\":23310:23335   */\n      swap3\n      pop\n        /* \"#utility.yul\":23503:23504   */\n      dup2\n        /* \"#utility.yul\":23435:23501   */\n      0xffffffffffffffffffffffffffffffffffffffffffffffffffffffffffffffff\n        /* \"#utility.yul\":23431:23505   */\n      div\n        /* \"#utility.yul\":23428:23429   */\n      dup4\n        /* \"#utility.yul\":23425:23506   */\n      gt\n        /* \"#utility.yul\":23420:23421   */\n      dup3\n        /* \"#utility.yul\":23413:23422   */\n      iszero\n        /* \"#utility.yul\":23406:23423   */\n      iszero\n        /* \"#utility.yul\":23402:23507   */\n      and\n        /* \"#utility.yul\":23399:23530   */\n      iszero\n      tag_646\n      jumpi\n        /* \"#utility.yul\":23510:23528   */\n      tag_647\n      tag_642\n      jump\t// in\n    tag_647:\n        /* \"#utility.yul\":23399:23530   */\n    tag_646:\n        /* \"#utility.yul\":23558:23559   */\n      dup3\n        /* \"#utility.yul\":23555:23556   */\n      dup3\n        /* \"#utility.yul\":23551:23560   */\n      mul\n        /* \"#utility.yul\":23540:23560   */\n      swap1\n      pop\n        /* \"#utility.yul\":23218:23566   */\n      swap3\n      swap2\n      pop\n      pop\n      jump\t// out\n        /* \"#utility.yul\":23572:23763   */\n    tag_252:\n        /* \"#utility.yul\":23612:23616   */\n      0x00\n        /* \"#utility.yul\":23632:23652   */\n      tag_649\n        /* \"#utility.yul\":23650:23651   */\n      dup3\n        /* \"#utility.yul\":23632:23652   */\n      tag_575\n      jump\t// in\n    tag_649:\n        /* \"#utility.yul\":23627:23652   */\n      swap2\n      pop\n        /* \"#utility.yul\":23666:23686   */\n      tag_650\n        /* \"#utility.yul\":23684:23685   */\n      dup4\n        /* \"#utility.yul\":23666:23686   */\n      tag_575\n      jump\t// in\n    tag_650:\n        /* \"#utility.yul\":23661:23686   */\n      swap3\n      pop\n        /* \"#utility.yul\":23705:23706   */\n      dup3\n        /* \"#utility.yul\":23702:23703   */\n      dup3\n        /* \"#utility.yul\":23699:23707   */\n      lt\n        /* \"#utility.yul\":23696:23730   */\n      iszero\n      tag_651\n      jumpi\n        /* \"#utility.yul\":23710:23728   */\n      tag_652\n      tag_642\n      jump\t// in\n    tag_652:\n        /* \"#utility.yul\":23696:23730   */\n    tag_651:\n        /* \"#utility.yul\":23755:23756   */\n      dup3\n        /* \"#utility.yul\":23752:23753   */\n      dup3\n        /* \"#utility.yul\":23748:23757   */\n      sub\n        /* \"#utility.yul\":23740:23757   */\n      swap1\n      pop\n        /* \"#utility.yul\":23572:23763   */\n      swap3\n      swap2\n      pop\n      pop\n      jump\t// out\n        /* \"#utility.yul\":23769:23865   */\n    tag_452:\n        /* \"#utility.yul\":23806:23813   */\n      0x00\n        /* \"#utility.yul\":23835:23859   */\n      tag_654\n        /* \"#utility.yul\":23853:23858   */\n      dup3\n        /* \"#utility.yul\":23835:23859   */\n      tag_655\n      jump\t// in\n    tag_654:\n        /* \"#utility.yul\":23824:23859   */\n      swap1\n      pop\n        /* \"#utility.yul\":23769:23865   */\n      swap2\n      swap1\n      pop\n      jump\t// out\n        /* \"#utility.yul\":23871:23961   */\n    tag_456:\n        /* \"#utility.yul\":23905:23912   */\n      0x00\n        /* \"#utility.yul\":23948:23953   */\n      dup2\n        /* \"#utility.yul\":23941:23954   */\n      iszero\n        /* \"#utility.yul\":23934:23955   */\n      iszero\n        /* \"#utility.yul\":23923:23955   */\n      swap1\n      pop\n        /* \"#utility.yul\":23871:23961   */\n      swap2\n      swap1\n      pop\n      jump\t// out\n        /* \"#utility.yul\":23967:24044   */\n    tag_460:\n        /* \"#utility.yul\":24004:24011   */\n      0x00\n        /* \"#utility.yul\":24033:24038   */\n      dup2\n        /* \"#utility.yul\":24022:24038   */\n      swap1\n      pop\n        /* \"#utility.yul\":23967:24044   */\n      swap2\n      swap1\n      pop\n      jump\t// out\n        /* \"#utility.yul\":24050:24199   */\n    tag_658:\n        /* \"#utility.yul\":24086:24093   */\n      0x00\n        /* \"#utility.yul\":24126:24192   */\n      0xffffffff00000000000000000000000000000000000000000000000000000000\n        /* \"#utility.yul\":24119:24124   */\n      dup3\n        /* \"#utility.yul\":24115:24193   */\n      and\n        /* \"#utility.yul\":24104:24193   */\n      swap1\n      pop\n        /* \"#utility.yul\":24050:24199   */\n      swap2\n      swap1\n      pop\n      jump\t// out\n        /* \"#utility.yul\":24205:24331   */\n    tag_655:\n        /* \"#utility.yul\":24242:24249   */\n      0x00\n        /* \"#utility.yul\":24282:24324   */\n      0xffffffffffffffffffffffffffffffffffffffff\n        /* \"#utility.yul\":24275:24280   */\n      dup3\n        /* \"#utility.yul\":24271:24325   */\n      and\n        /* \"#utility.yul\":24260:24325   */\n      swap1\n      pop\n        /* \"#utility.yul\":24205:24331   */\n      swap2\n      swap1\n      pop\n      jump\t// out\n        /* \"#utility.yul\":24337:24414   */\n    tag_575:\n        /* \"#utility.yul\":24374:24381   */\n      0x00\n        /* \"#utility.yul\":24403:24408   */\n      dup2\n        /* \"#utility.yul\":24392:24408   */\n      swap1\n      pop\n        /* \"#utility.yul\":24337:24414   */\n      swap2\n      swap1\n      pop\n      jump\t// out\n        /* \"#utility.yul\":24420:24506   */\n    tag_579:\n        /* \"#utility.yul\":24455:24462   */\n      0x00\n        /* \"#utility.yul\":24495:24499   */\n      0xff\n        /* \"#utility.yul\":24488:24493   */\n      dup3\n        /* \"#utility.yul\":24484:24500   */\n      and\n        /* \"#utility.yul\":24473:24500   */\n      swap1\n      pop\n        /* \"#utility.yul\":24420:24506   */\n      swap2\n      swap1\n      pop\n      jump\t// out\n        /* \"#utility.yul\":24512:24819   */\n    tag_468:\n        /* \"#utility.yul\":24580:24581   */\n      0x00\n        /* \"#utility.yul\":24590:24703   */\n    tag_664:\n        /* \"#utility.yul\":24604:24610   */\n      dup4\n        /* \"#utility.yul\":24601:24602   */\n      dup2\n        /* \"#utility.yul\":24598:24611   */\n      lt\n        /* \"#utility.yul\":24590:24703   */\n      iszero\n      tag_666\n      jumpi\n        /* \"#utility.yul\":24689:24690   */\n      dup1\n        /* \"#utility.yul\":24684:24687   */\n      dup3\n        /* \"#utility.yul\":24680:24691   */\n      add\n        /* \"#utility.yul\":24674:24692   */\n      mload\n        /* \"#utility.yul\":24670:24671   */\n      dup2\n        /* \"#utility.yul\":24665:24668   */\n      dup5\n        /* \"#utility.yul\":24661:24672   */\n      add\n        /* \"#utility.yul\":24654:24693   */\n      mstore\n        /* \"#utility.yul\":24626:24628   */\n      0x20\n        /* \"#utility.yul\":24623:24624   */\n      dup2\n        /* \"#utility.yul\":24619:24629   */\n      add\n        /* \"#utility.yul\":24614:24629   */\n      swap1\n      pop\n        /* \"#utility.yul\":24590:24703   */\n      jump(tag_664)\n    tag_666:\n        /* \"#utility.yul\":24721:24727   */\n      dup4\n        /* \"#utility.yul\":24718:24719   */\n      dup2\n        /* \"#utility.yul\":24715:24728   */\n      gt\n        /* \"#utility.yul\":24712:24813   */\n      iszero\n      tag_667\n      jumpi\n        /* \"#utility.yul\":24801:24802   */\n      0x00\n        /* \"#utility.yul\":24792:24798   */\n      dup5\n        /* \"#utility.yul\":24787:24790   */\n      dup5\n        /* \"#utility.yul\":24783:24799   */\n      add\n        /* \"#utility.yul\":24776:24803   */\n      mstore\n        /* \"#utility.yul\":24712:24813   */\n    tag_667:\n        /* \"#utility.yul\":24561:24819   */\n      pop\n        /* \"#utility.yul\":24512:24819   */\n      pop\n      pop\n      pop\n      jump\t// out\n        /* \"#utility.yul\":24825:24996   */\n    tag_386:\n        /* \"#utility.yul\":24864:24867   */\n      0x00\n        /* \"#utility.yul\":24887:24911   */\n      tag_669\n        /* \"#utility.yul\":24905:24910   */\n      dup3\n        /* \"#utility.yul\":24887:24911   */\n      tag_575\n      jump\t// in\n    tag_669:\n        /* \"#utility.yul\":24878:24911   */\n      swap2\n      pop\n        /* \"#utility.yul\":24933:24937   */\n      0x00\n        /* \"#utility.yul\":24926:24931   */\n      dup3\n        /* \"#utility.yul\":24923:24938   */\n      eq\n        /* \"#utility.yul\":24920:24961   */\n      iszero\n      tag_670\n      jumpi\n        /* \"#utility.yul\":24941:24959   */\n      tag_671\n      tag_642\n      jump\t// in\n    tag_671:\n        /* \"#utility.yul\":24920:24961   */\n    tag_670:\n        /* \"#utility.yul\":24988:24989   */\n      0x01\n        /* \"#utility.yul\":24981:24986   */\n      dup3\n        /* \"#utility.yul\":24977:24990   */\n      sub\n        /* \"#utility.yul\":24970:24990   */\n      swap1\n      pop\n        /* \"#utility.yul\":24825:24996   */\n      swap2\n      swap1\n      pop\n      jump\t// out\n        /* \"#utility.yul\":25002:25322   */\n    tag_184:\n        /* \"#utility.yul\":25046:25052   */\n      0x00\n        /* \"#utility.yul\":25083:25084   */\n      0x02\n        /* \"#utility.yul\":25077:25081   */\n      dup3\n        /* \"#utility.yul\":25073:25085   */\n      div\n        /* \"#utility.yul\":25063:25085   */\n      swap1\n      pop\n        /* \"#utility.yul\":25130:25131   */\n      0x01\n        /* \"#utility.yul\":25124:25128   */\n      dup3\n        /* \"#utility.yul\":25120:25132   */\n      and\n        /* \"#utility.yul\":25151:25169   */\n      dup1\n        /* \"#utility.yul\":25141:25222   */\n      tag_673\n      jumpi\n        /* \"#utility.yul\":25207:25211   */\n      0x7f\n        /* \"#utility.yul\":25199:25205   */\n      dup3\n        /* \"#utility.yul\":25195:25212   */\n      and\n        /* \"#utility.yul\":25185:25212   */\n      swap2\n      pop\n        /* \"#utility.yul\":25141:25222   */\n    tag_673:\n        /* \"#utility.yul\":25269:25271   */\n      0x20\n        /* \"#utility.yul\":25261:25267   */\n      dup3\n        /* \"#utility.yul\":25258:25272   */\n      lt\n        /* \"#utility.yul\":25238:25256   */\n      dup2\n        /* \"#utility.yul\":25235:25273   */\n      eq\n        /* \"#utility.yul\":25232:25316   */\n      iszero\n      tag_674\n      jumpi\n        /* \"#utility.yul\":25288:25306   */\n      tag_675\n      tag_676\n      jump\t// in\n    tag_675:\n        /* \"#utility.yul\":25232:25316   */\n    tag_674:\n        /* \"#utility.yul\":25053:25322   */\n      pop\n        /* \"#utility.yul\":25002:25322   */\n      swap2\n      swap1\n      pop\n      jump\t// out\n        /* \"#utility.yul\":25328:25508   */\n    tag_642:\n        /* \"#utility.yul\":25376:25453   */\n      0x4e487b7100000000000000000000000000000000000000000000000000000000\n        /* \"#utility.yul\":25373:25374   */\n      0x00\n        /* \"#utility.yul\":25366:25454   */\n      mstore\n        /* \"#utility.yul\":25473:25477   */\n      0x11\n        /* \"#utility.yul\":25470:25471   */\n      0x04\n        /* \"#utility.yul\":25463:25478   */\n      mstore\n        /* \"#utility.yul\":25497:25501   */\n      0x24\n        /* \"#utility.yul\":25494:25495   */\n      0x00\n        /* \"#utility.yul\":25487:25502   */\n      revert\n        /* \"#utility.yul\":25514:25694   */\n    tag_676:\n        /* \"#utility.yul\":25562:25639   */\n      0x4e487b7100000000000000000000000000000000000000000000000000000000\n        /* \"#utility.yul\":25559:25560   */\n      0x00\n        /* \"#utility.yul\":25552:25640   */\n      mstore\n        /* \"#utility.yul\":25659:25663   */\n      0x22\n        /* \"#utility.yul\":25656:25657   */\n      0x04\n        /* \"#utility.yul\":25649:25664   */\n      mstore\n        /* \"#utility.yul\":25683:25687   */\n      0x24\n        /* \"#utility.yul\":25680:25681   */\n      0x00\n        /* \"#utility.yul\":25673:25688   */\n      revert\n        /* \"#utility.yul\":25700:25880   */\n    tag_373:\n        /* \"#utility.yul\":25748:25825   */\n      0x4e487b7100000000000000000000000000000000000000000000000000000000\n        /* \"#utility.yul\":25745:25746   */\n      0x00\n        /* \"#utility.yul\":25738:25826   */\n      mstore\n        /* \"#utility.yul\":25845:25849   */\n      0x32\n        /* \"#utility.yul\":25842:25843   */\n      0x04\n        /* \"#utility.yul\":25835:25850   */\n      mstore\n        /* \"#utility.yul\":25869:25873   */\n      0x24\n        /* \"#utility.yul\":25866:25867   */\n      0x00\n        /* \"#utility.yul\":25859:25874   */\n      revert\n        /* \"#utility.yul\":25886:26066   */\n    tag_369:\n        /* \"#utility.yul\":25934:26011   */\n      0x4e487b7100000000000000000000000000000000000000000000000000000000\n        /* \"#utility.yul\":25931:25932   */\n      0x00\n        /* \"#utility.yul\":25924:26012   */\n      mstore\n        /* \"#utility.yul\":26031:26035   */\n      0x41\n        /* \"#utility.yul\":26028:26029   */\n      0x04\n        /* \"#utility.yul\":26021:26036   */\n      mstore\n        /* \"#utility.yul\":26055:26059   */\n      0x24\n        /* \"#utility.yul\":26052:26053   */\n      0x00\n        /* \"#utility.yul\":26045:26060   */\n      revert\n        /* \"#utility.yul\":26195:26312   */\n    tag_414:\n        /* \"#utility.yul\":26304:26305   */\n      0x00\n        /* \"#utility.yul\":26301:26302   */\n      dup1\n        /* \"#utility.yul\":26294:26306   */\n      revert\n        /* \"#utility.yul\":26318:26420   */\n    tag_470:\n        /* \"#utility.yul\":26359:26365   */\n      0x00\n        /* \"#utility.yul\":26410:26412   */\n      0x1f\n        /* \"#utility.yul\":26406:26413   */\n      not\n        /* \"#utility.yul\":26401:26403   */\n      0x1f\n        /* \"#utility.yul\":26394:26399   */\n      dup4\n        /* \"#utility.yul\":26390:26404   */\n      add\n        /* \"#utility.yul\":26386:26414   */\n      and\n        /* \"#utility.yul\":26376:26414   */\n      swap1\n      pop\n        /* \"#utility.yul\":26318:26420   */\n      swap2\n      swap1\n      pop\n      jump\t// out\n        /* \"#utility.yul\":26426:26608   */\n    tag_481:\n        /* \"#utility.yul\":26566:26600   */\n      0x537472696e67733a20686578206c656e67746820696e73756666696369656e74\n        /* \"#utility.yul\":26562:26563   */\n      0x00\n        /* \"#utility.yul\":26554:26560   */\n      dup3\n        /* \"#utility.yul\":26550:26564   */\n      add\n        /* \"#utility.yul\":26543:26601   */\n      mstore\n        /* \"#utility.yul\":26426:26608   */\n      pop\n      jump\t// out\n        /* \"#utility.yul\":26614:26836   */\n    tag_486:\n        /* \"#utility.yul\":26754:26788   */\n      0x45524332303a207472616e7366657220746f20746865207a65726f2061646472\n        /* \"#utility.yul\":26750:26751   */\n      0x00\n        /* \"#utility.yul\":26742:26748   */\n      dup3\n        /* \"#utility.yul\":26738:26752   */\n      add\n        /* \"#utility.yul\":26731:26789   */\n      mstore\n        /* \"#utility.yul\":26823:26828   */\n      0x6573730000000000000000000000000000000000000000000000000000000000\n        /* \"#utility.yul\":26818:26820   */\n      0x20\n        /* \"#utility.yul\":26810:26816   */\n      dup3\n        /* \"#utility.yul\":26806:26821   */\n      add\n        /* \"#utility.yul\":26799:26829   */\n      mstore\n        /* \"#utility.yul\":26614:26836   */\n      pop\n      jump\t// out\n        /* \"#utility.yul\":26842:27063   */\n    tag_491:\n        /* \"#utility.yul\":26982:27016   */\n      0x45524332303a206275726e20616d6f756e7420657863656564732062616c616e\n        /* \"#utility.yul\":26978:26979   */\n      0x00\n        /* \"#utility.yul\":26970:26976   */\n      dup3\n        /* \"#utility.yul\":26966:26980   */\n      add\n        /* \"#utility.yul\":26959:27017   */\n      mstore\n        /* \"#utility.yul\":27051:27055   */\n      0x6365000000000000000000000000000000000000000000000000000000000000\n        /* \"#utility.yul\":27046:27048   */\n      0x20\n        /* \"#utility.yul\":27038:27044   */\n      dup3\n        /* \"#utility.yul\":27034:27049   */\n      add\n        /* \"#utility.yul\":27027:27056   */\n      mstore\n        /* \"#utility.yul\":26842:27063   */\n      pop\n      jump\t// out\n        /* \"#utility.yul\":27069:27290   */\n    tag_496:\n        /* \"#utility.yul\":27209:27243   */\n      0x45524332303a20617070726f766520746f20746865207a65726f206164647265\n        /* \"#utility.yul\":27205:27206   */\n      0x00\n        /* \"#utility.yul\":27197:27203   */\n      dup3\n        /* \"#utility.yul\":27193:27207   */\n      add\n        /* \"#utility.yul\":27186:27244   */\n      mstore\n        /* \"#utility.yul\":27278:27282   */\n      0x7373000000000000000000000000000000000000000000000000000000000000\n        /* \"#utility.yul\":27273:27275   */\n      0x20\n        /* \"#utility.yul\":27265:27271   */\n      dup3\n        /* \"#utility.yul\":27261:27276   */\n      add\n        /* \"#utility.yul\":27254:27283   */\n      mstore\n        /* \"#utility.yul\":27069:27290   */\n      pop\n      jump\t// out\n        /* \"#utility.yul\":27296:27475   */\n    tag_501:\n        /* \"#utility.yul\":27436:27467   */\n      0x45524332303a20696e73756666696369656e7420616c6c6f77616e6365000000\n        /* \"#utility.yul\":27432:27433   */\n      0x00\n        /* \"#utility.yul\":27424:27430   */\n      dup3\n        /* \"#utility.yul\":27420:27434   */\n      add\n        /* \"#utility.yul\":27413:27468   */\n      mstore\n        /* \"#utility.yul\":27296:27475   */\n      pop\n      jump\t// out\n        /* \"#utility.yul\":27481:27706   */\n    tag_506:\n        /* \"#utility.yul\":27621:27655   */\n      0x45524332303a207472616e7366657220616d6f756e7420657863656564732062\n        /* \"#utility.yul\":27617:27618   */\n      0x00\n        /* \"#utility.yul\":27609:27615   */\n      dup3\n        /* \"#utility.yul\":27605:27619   */\n      add\n        /* \"#utility.yul\":27598:27656   */\n      mstore\n        /* \"#utility.yul\":27690:27698   */\n      0x616c616e63650000000000000000000000000000000000000000000000000000\n        /* \"#utility.yul\":27685:27687   */\n      0x20\n        /* \"#utility.yul\":27677:27683   */\n      dup3\n        /* \"#utility.yul\":27673:27688   */\n      add\n        /* \"#utility.yul\":27666:27699   */\n      mstore\n        /* \"#utility.yul\":27481:27706   */\n      pop\n      jump\t// out\n        /* \"#utility.yul\":27712:27939   */\n    tag_511:\n        /* \"#utility.yul\":27852:27886   */\n      0x556e636c61696d65642062616c616e6365206d75737420626520677265617465\n        /* \"#utility.yul\":27848:27849   */\n      0x00\n        /* \"#utility.yul\":27840:27846   */\n      dup3\n        /* \"#utility.yul\":27836:27850   */\n      add\n        /* \"#utility.yul\":27829:27887   */\n      mstore\n        /* \"#utility.yul\":27921:27931   */\n      0x72207468616e2030000000000000000000000000000000000000000000000000\n        /* \"#utility.yul\":27916:27918   */\n      0x20\n        /* \"#utility.yul\":27908:27914   */\n      dup3\n        /* \"#utility.yul\":27904:27919   */\n      add\n        /* \"#utility.yul\":27897:27932   */\n      mstore\n        /* \"#utility.yul\":27712:27939   */\n      pop\n      jump\t// out\n        /* \"#utility.yul\":27945:28117   */\n    tag_516:\n        /* \"#utility.yul\":28085:28109   */\n      0x43616c6c6572206973206e6f742061206d696e74657200000000000000000000\n        /* \"#utility.yul\":28081:28082   */\n      0x00\n        /* \"#utility.yul\":28073:28079   */\n      dup3\n        /* \"#utility.yul\":28069:28083   */\n      add\n        /* \"#utility.yul\":28062:28110   */\n      mstore\n        /* \"#utility.yul\":27945:28117   */\n      pop\n      jump\t// out\n        /* \"#utility.yul\":28123:28295   */\n    tag_521:\n        /* \"#utility.yul\":28263:28287   */\n      0x43616c6c6572206973206e6f742061206275726e657200000000000000000000\n        /* \"#utility.yul\":28259:28260   */\n      0x00\n        /* \"#utility.yul\":28251:28257   */\n      dup3\n        /* \"#utility.yul\":28247:28261   */\n      add\n        /* \"#utility.yul\":28240:28288   */\n      mstore\n        /* \"#utility.yul\":28123:28295   */\n      pop\n      jump\t// out\n        /* \"#utility.yul\":28301:28521   */\n    tag_526:\n        /* \"#utility.yul\":28441:28475   */\n      0x45524332303a206275726e2066726f6d20746865207a65726f20616464726573\n        /* \"#utility.yul\":28437:28438   */\n      0x00\n        /* \"#utility.yul\":28429:28435   */\n      dup3\n        /* \"#utility.yul\":28425:28439   */\n      add\n        /* \"#utility.yul\":28418:28476   */\n      mstore\n        /* \"#utility.yul\":28510:28513   */\n      0x7300000000000000000000000000000000000000000000000000000000000000\n        /* \"#utility.yul\":28505:28507   */\n      0x20\n        /* \"#utility.yul\":28497:28503   */\n      dup3\n        /* \"#utility.yul\":28493:28508   */\n      add\n        /* \"#utility.yul\":28486:28514   */\n      mstore\n        /* \"#utility.yul\":28301:28521   */\n      pop\n      jump\t// out\n        /* \"#utility.yul\":28527:28751   */\n    tag_531:\n        /* \"#utility.yul\":28667:28701   */\n      0x45524332303a207472616e736665722066726f6d20746865207a65726f206164\n        /* \"#utility.yul\":28663:28664   */\n      0x00\n        /* \"#utility.yul\":28655:28661   */\n      dup3\n        /* \"#utility.yul\":28651:28665   */\n      add\n        /* \"#utility.yul\":28644:28702   */\n      mstore\n        /* \"#utility.yul\":28736:28743   */\n      0x6472657373000000000000000000000000000000000000000000000000000000\n        /* \"#utility.yul\":28731:28733   */\n      0x20\n        /* \"#utility.yul\":28723:28729   */\n      dup3\n        /* \"#utility.yul\":28719:28734   */\n      add\n        /* \"#utility.yul\":28712:28744   */\n      mstore\n        /* \"#utility.yul\":28527:28751   */\n      pop\n      jump\t// out\n        /* \"#utility.yul\":28757:28931   */\n    tag_536:\n        /* \"#utility.yul\":28897:28923   */\n      0x43616c6c6572206973206e6f7420612072657761726465720000000000000000\n        /* \"#utility.yul\":28893:28894   */\n      0x00\n        /* \"#utility.yul\":28885:28891   */\n      dup3\n        /* \"#utility.yul\":28881:28895   */\n      add\n        /* \"#utility.yul\":28874:28924   */\n      mstore\n        /* \"#utility.yul\":28757:28931   */\n      pop\n      jump\t// out\n        /* \"#utility.yul\":28937:29160   */\n    tag_541:\n        /* \"#utility.yul\":29077:29111   */\n      0x45524332303a20617070726f76652066726f6d20746865207a65726f20616464\n        /* \"#utility.yul\":29073:29074   */\n      0x00\n        /* \"#utility.yul\":29065:29071   */\n      dup3\n        /* \"#utility.yul\":29061:29075   */\n      add\n        /* \"#utility.yul\":29054:29112   */\n      mstore\n        /* \"#utility.yul\":29146:29152   */\n      0x7265737300000000000000000000000000000000000000000000000000000000\n        /* \"#utility.yul\":29141:29143   */\n      0x20\n        /* \"#utility.yul\":29133:29139   */\n      dup3\n        /* \"#utility.yul\":29129:29144   */\n      add\n        /* \"#utility.yul\":29122:29153   */\n      mstore\n        /* \"#utility.yul\":28937:29160   */\n      pop\n      jump\t// out\n        /* \"#utility.yul\":29166:29348   */\n    tag_546:\n        /* \"#utility.yul\":29306:29340   */\n      0x636c61696d61626c65206d7573742062652067726561746572207468616e2030\n        /* \"#utility.yul\":29302:29303   */\n      0x00\n        /* \"#utility.yul\":29294:29300   */\n      dup3\n        /* \"#utility.yul\":29290:29304   */\n      add\n        /* \"#utility.yul\":29283:29341   */\n      mstore\n        /* \"#utility.yul\":29166:29348   */\n      pop\n      jump\t// out\n        /* \"#utility.yul\":29354:29527   */\n    tag_551:\n        /* \"#utility.yul\":29494:29519   */\n      0x416363657373436f6e74726f6c3a206163636f756e7420000000000000000000\n        /* \"#utility.yul\":29490:29491   */\n      0x00\n        /* \"#utility.yul\":29482:29488   */\n      dup3\n        /* \"#utility.yul\":29478:29492   */\n      add\n        /* \"#utility.yul\":29471:29520   */\n      mstore\n        /* \"#utility.yul\":29354:29527   */\n      pop\n      jump\t// out\n        /* \"#utility.yul\":29533:29757   */\n    tag_556:\n        /* \"#utility.yul\":29673:29707   */\n      0x45524332303a2064656372656173656420616c6c6f77616e63652062656c6f77\n        /* \"#utility.yul\":29669:29670   */\n      0x00\n        /* \"#utility.yul\":29661:29667   */\n      dup3\n        /* \"#utility.yul\":29657:29671   */\n      add\n        /* \"#utility.yul\":29650:29708   */\n      mstore\n        /* \"#utility.yul\":29742:29749   */\n      0x207a65726f000000000000000000000000000000000000000000000000000000\n        /* \"#utility.yul\":29737:29739   */\n      0x20\n        /* \"#utility.yul\":29729:29735   */\n      dup3\n        /* \"#utility.yul\":29725:29740   */\n      add\n        /* \"#utility.yul\":29718:29750   */\n      mstore\n        /* \"#utility.yul\":29533:29757   */\n      pop\n      jump\t// out\n        /* \"#utility.yul\":29763:29930   */\n    tag_561:\n        /* \"#utility.yul\":29903:29922   */\n      0x206973206d697373696e6720726f6c6520000000000000000000000000000000\n        /* \"#utility.yul\":29899:29900   */\n      0x00\n        /* \"#utility.yul\":29891:29897   */\n      dup3\n        /* \"#utility.yul\":29887:29901   */\n      add\n        /* \"#utility.yul\":29880:29923   */\n      mstore\n        /* \"#utility.yul\":29763:29930   */\n      pop\n      jump\t// out\n        /* \"#utility.yul\":29936:30170   */\n    tag_566:\n        /* \"#utility.yul\":30076:30110   */\n      0x416363657373436f6e74726f6c3a2063616e206f6e6c792072656e6f756e6365\n        /* \"#utility.yul\":30072:30073   */\n      0x00\n        /* \"#utility.yul\":30064:30070   */\n      dup3\n        /* \"#utility.yul\":30060:30074   */\n      add\n        /* \"#utility.yul\":30053:30111   */\n      mstore\n        /* \"#utility.yul\":30145:30162   */\n      0x20726f6c657320666f722073656c660000000000000000000000000000000000\n        /* \"#utility.yul\":30140:30142   */\n      0x20\n        /* \"#utility.yul\":30132:30138   */\n      dup3\n        /* \"#utility.yul\":30128:30143   */\n      add\n        /* \"#utility.yul\":30121:30163   */\n      mstore\n        /* \"#utility.yul\":29936:30170   */\n      pop\n      jump\t// out\n        /* \"#utility.yul\":30176:30357   */\n    tag_571:\n        /* \"#utility.yul\":30316:30349   */\n      0x45524332303a206d696e7420746f20746865207a65726f206164647265737300\n        /* \"#utility.yul\":30312:30313   */\n      0x00\n        /* \"#utility.yul\":30304:30310   */\n      dup3\n        /* \"#utility.yul\":30300:30314   */\n      add\n        /* \"#utility.yul\":30293:30350   */\n      mstore\n        /* \"#utility.yul\":30176:30357   */\n      pop\n      jump\t// out\n        /* \"#utility.yul\":30363:30485   */\n    tag_394:\n        /* \"#utility.yul\":30436:30460   */\n      tag_705\n        /* \"#utility.yul\":30454:30459   */\n      dup2\n        /* \"#utility.yul\":30436:30460   */\n      tag_452\n      jump\t// in\n    tag_705:\n        /* \"#utility.yul\":30429:30434   */\n      dup2\n        /* \"#utility.yul\":30426:30461   */\n      eq\n        /* \"#utility.yul\":30416:30479   */\n      tag_706\n      jumpi\n        /* \"#utility.yul\":30475:30476   */\n      0x00\n        /* \"#utility.yul\":30472:30473   */\n      dup1\n        /* \"#utility.yul\":30465:30477   */\n      revert\n        /* \"#utility.yul\":30416:30479   */\n    tag_706:\n        /* \"#utility.yul\":30363:30485   */\n      pop\n      jump\t// out\n        /* \"#utility.yul\":30491:30607   */\n    tag_398:\n        /* \"#utility.yul\":30561:30582   */\n      tag_708\n        /* \"#utility.yul\":30576:30581   */\n      dup2\n        /* \"#utility.yul\":30561:30582   */\n      tag_456\n      jump\t// in\n    tag_708:\n        /* \"#utility.yul\":30554:30559   */\n      dup2\n        /* \"#utility.yul\":30551:30583   */\n      eq\n        /* \"#utility.yul\":30541:30601   */\n      tag_709\n      jumpi\n        /* \"#utility.yul\":30597:30598   */\n      0x00\n        /* \"#utility.yul\":30594:30595   */\n      dup1\n        /* \"#utility.yul\":30587:30599   */\n      revert\n        /* \"#utility.yul\":30541:30601   */\n    tag_709:\n        /* \"#utility.yul\":30491:30607   */\n      pop\n      jump\t// out\n        /* \"#utility.yul\":30613:30735   */\n    tag_402:\n        /* \"#utility.yul\":30686:30710   */\n      tag_711\n        /* \"#utility.yul\":30704:30709   */\n      dup2\n        /* \"#utility.yul\":30686:30710   */\n      tag_460\n      jump\t// in\n    tag_711:\n        /* \"#utility.yul\":30679:30684   */\n      dup2\n        /* \"#utility.yul\":30676:30711   */\n      eq\n        /* \"#utility.yul\":30666:30729   */\n      tag_712\n      jumpi\n        /* \"#utility.yul\":30725:30726   */\n      0x00\n        /* \"#utility.yul\":30722:30723   */\n      dup1\n        /* \"#utility.yul\":30715:30727   */\n      revert\n        /* \"#utility.yul\":30666:30729   */\n    tag_712:\n        /* \"#utility.yul\":30613:30735   */\n      pop\n      jump\t// out\n        /* \"#utility.yul\":30741:30861   */\n    tag_406:\n        /* \"#utility.yul\":30813:30836   */\n      tag_714\n        /* \"#utility.yul\":30830:30835   */\n      dup2\n        /* \"#utility.yul\":30813:30836   */\n      tag_658\n      jump\t// in\n    tag_714:\n        /* \"#utility.yul\":30806:30811   */\n      dup2\n        /* \"#utility.yul\":30803:30837   */\n      eq\n        /* \"#utility.yul\":30793:30855   */\n      tag_715\n      jumpi\n        /* \"#utility.yul\":30851:30852   */\n      0x00\n        /* \"#utility.yul\":30848:30849   */\n      dup1\n        /* \"#utility.yul\":30841:30853   */\n      revert\n        /* \"#utility.yul\":30793:30855   */\n    tag_715:\n        /* \"#utility.yul\":30741:30861   */\n      pop\n      jump\t// out\n        /* \"#utility.yul\":30867:30989   */\n    tag_410:\n        /* \"#utility.yul\":30940:30964   */\n      tag_717\n        /* \"#utility.yul\":30958:30963   */\n      dup2\n        /* \"#utility.yul\":30940:30964   */\n      tag_575\n      jump\t// in\n    tag_717:\n        /* \"#utility.yul\":30933:30938   */\n      dup2\n        /* \"#utility.yul\":30930:30965   */\n      eq\n        /* \"#utility.yul\":30920:30983   */\n      tag_718\n      jumpi\n        /* \"#utility.yul\":30979:30980   */\n      0x00\n        /* \"#utility.yul\":30976:30977   */\n      dup1\n        /* \"#utility.yul\":30969:30981   */\n      revert\n        /* \"#utility.yul\":30920:30983   */\n    tag_718:\n        /* \"#utility.yul\":30867:30989   */\n      pop\n      jump\t// out\n\n    auxdata: 0xa26469706673582212206e93508b470027660d6814c2f9d7a2e0c14b4620eb09fe31523e368a5982c41764736f6c63430008070033\n}\n",
				"bytecode": {
					"linkReferences": {},
					"object": "60806040523480156200001157600080fd5b506040518060400160405280600981526020017f466f6f20546f6b656e00000000000000000000000000000000000000000000008152506040518060400160405280600381526020017f464f4f0000000000000000000000000000000000000000000000000000000000815250816003908051906020019062000096929190620003e8565b508060049080519060200190620000af929190620003e8565b505050620000cf306a52b7d2dcc80cd2e4000000620000ea60201b60201c565b620000e46000801b336200026360201b60201c565b62000644565b600073ffffffffffffffffffffffffffffffffffffffff168273ffffffffffffffffffffffffffffffffffffffff1614156200015d576040517f08c379a00000000000000000000000000000000000000000000000000000000081526004016200015490620004d0565b60405180910390fd5b62000171600083836200027960201b60201c565b806002600082825462000185919062000520565b92505081905550806000808473ffffffffffffffffffffffffffffffffffffffff1673ffffffffffffffffffffffffffffffffffffffff1681526020019081526020016000206000828254620001dc919062000520565b925050819055508173ffffffffffffffffffffffffffffffffffffffff16600073ffffffffffffffffffffffffffffffffffffffff167fddf252ad1be2c89b69c2b068fc378daa952ba7f163c4a11628f55a4df523b3ef83604051620002439190620004f2565b60405180910390a36200025f600083836200027e60201b60201c565b5050565b6200027582826200028360201b60201c565b5050565b505050565b505050565b6200029582826200037560201b60201c565b620003715760016005600084815260200190815260200160002060000160008373ffffffffffffffffffffffffffffffffffffffff1673ffffffffffffffffffffffffffffffffffffffff16815260200190815260200160002060006101000a81548160ff02191690831515021790555062000316620003e060201b60201c565b73ffffffffffffffffffffffffffffffffffffffff168173ffffffffffffffffffffffffffffffffffffffff16837f2f8788117e7eff1d82e926ec794901d17c78024a50270940304540a733656f0d60405160405180910390a45b5050565b60006005600084815260200190815260200160002060000160008373ffffffffffffffffffffffffffffffffffffffff1673ffffffffffffffffffffffffffffffffffffffff16815260200190815260200160002060009054906101000a900460ff16905092915050565b600033905090565b828054620003f69062000587565b90600052602060002090601f0160209004810192826200041a576000855562000466565b82601f106200043557805160ff191683800117855562000466565b8280016001018555821562000466579182015b828111156200046557825182559160200191906001019062000448565b5b50905062000475919062000479565b5090565b5b80821115620004945760008160009055506001016200047a565b5090565b6000620004a7601f836200050f565b9150620004b4826200061b565b602082019050919050565b620004ca816200057d565b82525050565b60006020820190508181036000830152620004eb8162000498565b9050919050565b6000602082019050620005096000830184620004bf565b92915050565b600082825260208201905092915050565b60006200052d826200057d565b91506200053a836200057d565b9250827fffffffffffffffffffffffffffffffffffffffffffffffffffffffffffffffff03821115620005725762000571620005bd565b5b828201905092915050565b6000819050919050565b60006002820490506001821680620005a057607f821691505b60208210811415620005b757620005b6620005ec565b5b50919050565b7f4e487b7100000000000000000000000000000000000000000000000000000000600052601160045260246000fd5b7f4e487b7100000000000000000000000000000000000000000000000000000000600052602260045260246000fd5b7f45524332303a206d696e7420746f20746865207a65726f206164647265737300600082015250565b6130d280620006546000396000f3fe6080604052600436106101c25760003560e01c8063505bd3da116100f7578063a217fddf11610095578063d539139311610064578063d5391393146106a7578063d547741f146106d2578063dd62ed3e146106fb578063eb46260e14610738576101c2565b8063a217fddf146105c5578063a457c2d7146105f0578063a9059cbb1461062d578063c884ef831461066a576101c2565b80638a9db765116100d15780638a9db7651461050b57806391d148541461053457806395d89b41146105715780639dc29fac1461059c576101c2565b8063505bd3da1461046657806370a08231146104a35780638580cf76146104e0576101c2565b80632f2ff15d11610164578063395093511161013e57806339509351146103b95780633ab1ced1146103f657806340c10f19146104335780634e71d92d1461045c576101c2565b80632f2ff15d1461033c578063313ce5671461036557806336568abe14610390576101c2565b806318160ddd116101a057806318160ddd1461026c57806323b872dd14610297578063248a9ca3146102d4578063282c51f314610311576101c2565b806301ffc9a7146101c757806306fdde0314610204578063095ea7b31461022f575b600080fd5b3480156101d357600080fd5b506101ee60048036038101906101e9919061221f565b610775565b6040516101fb91906125fd565b60405180910390f35b34801561021057600080fd5b506102196107ef565b6040516102269190612633565b60405180910390f35b34801561023b57600080fd5b5061025660048036038101906102519190612145565b610881565b60405161026391906125fd565b60405180910390f35b34801561027857600080fd5b506102816108a4565b60405161028e9190612875565b60405180910390f35b3480156102a357600080fd5b506102be60048036038101906102b991906120f2565b6108ae565b6040516102cb91906125fd565b60405180910390f35b3480156102e057600080fd5b506102fb60048036038101906102f691906121b2565b6108dd565b6040516103089190612618565b60405180910390f35b34801561031d57600080fd5b506103266108fd565b6040516103339190612618565b60405180910390f35b34801561034857600080fd5b50610363600480360381019061035e91906121df565b610921565b005b34801561037157600080fd5b5061037a61094a565b6040516103879190612890565b60405180910390f35b34801561039c57600080fd5b506103b760048036038101906103b291906121df565b610953565b005b3480156103c557600080fd5b506103e060048036038101906103db9190612145565b6109d6565b6040516103ed91906125fd565b60405180910390f35b34801561040257600080fd5b5061041d60048036038101906104189190612085565b610a80565b60405161042a9190612875565b60405180910390f35b34801561043f57600080fd5b5061045a60048036038101906104559190612145565b610ac9565b005b610464610b40565b005b34801561047257600080fd5b5061048d60048036038101906104889190612085565b610d06565b60405161049a9190612875565b60405180910390f35b3480156104af57600080fd5b506104ca60048036038101906104c59190612085565b610d1e565b6040516104d79190612875565b60405180910390f35b3480156104ec57600080fd5b506104f5610d66565b6040516105029190612618565b60405180910390f35b34801561051757600080fd5b50610532600480360381019061052d9190612145565b610d8a565b005b34801561054057600080fd5b5061055b600480360381019061055691906121df565b610ede565b60405161056891906125fd565b60405180910390f35b34801561057d57600080fd5b50610586610f49565b6040516105939190612633565b60405180910390f35b3480156105a857600080fd5b506105c360048036038101906105be9190612145565b610fdb565b005b3480156105d157600080fd5b506105da611052565b6040516105e79190612618565b60405180910390f35b3480156105fc57600080fd5b5061061760048036038101906106129190612145565b611059565b60405161062491906125fd565b60405180910390f35b34801561063957600080fd5b50610654600480360381019061064f9190612145565b611143565b60405161066191906125fd565b60405180910390f35b34801561067657600080fd5b50610691600480360381019061068c9190612085565b611166565b60405161069e9190612875565b60405180910390f35b3480156106b357600080fd5b506106bc61117e565b6040516106c99190612618565b60405180910390f35b3480156106de57600080fd5b506106f960048036038101906106f491906121df565b6111a2565b005b34801561070757600080fd5b50610722600480360381019061071d91906120b2565b6111cb565b60405161072f9190612875565b60405180910390f35b34801561074457600080fd5b5061075f600480360381019061075a9190612085565b611252565b60405161076c9190612875565b60405180910390f35b60007f7965db0b000000000000000000000000000000000000000000000000000000007bffffffffffffffffffffffffffffffffffffffffffffffffffffffff1916827bffffffffffffffffffffffffffffffffffffffffffffffffffffffff191614806107e857506107e78261129b565b5b9050919050565b6060600380546107fe90612a9e565b80601f016020809104026020016040519081016040528092919081815260200182805461082a90612a9e565b80156108775780601f1061084c57610100808354040283529160200191610877565b820191906000526020600020905b81548152906001019060200180831161085a57829003601f168201915b5050505050905090565b60008061088c611305565b905061089981858561130d565b600191505092915050565b6000600254905090565b6000806108b9611305565b90506108c68582856114d8565b6108d1858585611564565b60019150509392505050565b600060056000838152602001908152602001600020600101549050919050565b7f3c11d16cbaffd01df69ce1c404f6340ee057498f5f00246190ea54220576a84881565b61092a826108dd565b61093b81610936611305565b6117e5565b6109458383611882565b505050565b60006012905090565b61095b611305565b73ffffffffffffffffffffffffffffffffffffffff168173ffffffffffffffffffffffffffffffffffffffff16146109c8576040517f08c379a00000000000000000000000000000000000000000000000000000000081526004016109bf90612835565b60405180910390fd5b6109d28282611963565b5050565b6000806109e1611305565b9050610a75818585600160008673ffffffffffffffffffffffffffffffffffffffff1673ffffffffffffffffffffffffffffffffffffffff16815260200190815260200160002060008973ffffffffffffffffffffffffffffffffffffffff1673ffffffffffffffffffffffffffffffffffffffff16815260200190815260200160002054610a7091906128d2565b61130d565b600191505092915050565b6000600660008373ffffffffffffffffffffffffffffffffffffffff1673ffffffffffffffffffffffffffffffffffffffff168152602001908152602001600020549050919050565b610af37f9f2df0fed2c77648de5860a4cc508cd0818c85b8b8a1ab4ceeef8d981c8956a633610ede565b610b32576040517f08c379a0000000000000000000000000000000000000000000000000000000008152600401610b2990612735565b60405180910390fd5b610b3c8282611a45565b5050565b6000600660003373ffffffffffffffffffffffffffffffffffffffff1673ffffffffffffffffffffffffffffffffffffffff16815260200190815260200160002054905060008111610bc7576040517f08c379a0000000000000000000000000000000000000000000000000000000008152600401610bbe90612715565b60405180910390fd5b80600760003373ffffffffffffffffffffffffffffffffffffffff1673ffffffffffffffffffffffffffffffffffffffff1681526020019081526020016000206000828254610c1691906128d2565b925050819055506000600660003373ffffffffffffffffffffffffffffffffffffffff1673ffffffffffffffffffffffffffffffffffffffff168152602001908152602001600020819055503073ffffffffffffffffffffffffffffffffffffffff1663a9059cbb33670de0b6b3a764000084610c939190612928565b6040518363ffffffff1660e01b8152600401610cb09291906125d4565b602060405180830381600087803b158015610cca57600080fd5b505af1158015610cde573d6000803e3d6000fd5b505050506040513d601f19601f82011682018060405250810190610d029190612185565b5050565b60066020528060005260406000206000915090505481565b60008060008373ffffffffffffffffffffffffffffffffffffffff1673ffffffffffffffffffffffffffffffffffffffff168152602001908152602001600020549050919050565b7fbeec13769b5f410b0584f69811bfd923818456d5edcf426b0e31cf90eed7a3f681565b610db47fbeec13769b5f410b0584f69811bfd923818456d5edcf426b0e31cf90eed7a3f633610ede565b610df3576040517f08c379a0000000000000000000000000000000000000000000000000000000008152600401610dea906127b5565b60405180910390fd5b6000600660008473ffffffffffffffffffffffffffffffffffffffff1673ffffffffffffffffffffffffffffffffffffffff16815260200190815260200160002054600760008573ffffffffffffffffffffffffffffffffffffffff1673ffffffffffffffffffffffffffffffffffffffff1681526020019081526020016000205483610e809190612982565b610e8a9190612982565b905060008111610ecf576040517f08c379a0000000000000000000000000000000000000000000000000000000008152600401610ec6906127f5565b60405180910390fd5b610ed98382611ba5565b505050565b60006005600084815260200190815260200160002060000160008373ffffffffffffffffffffffffffffffffffffffff1673ffffffffffffffffffffffffffffffffffffffff16815260200190815260200160002060009054906101000a900460ff16905092915050565b606060048054610f5890612a9e565b80601f0160208091040260200160405190810160405280929190818152602001828054610f8490612a9e565b8015610fd15780601f10610fa657610100808354040283529160200191610fd1565b820191906000526020600020905b815481529060010190602001808311610fb457829003601f168201915b5050505050905090565b6110057f3c11d16cbaffd01df69ce1c404f6340ee057498f5f00246190ea54220576a84833610ede565b611044576040517f08c379a000000000000000000000000000000000000000000000000000000000815260040161103b90612755565b60405180910390fd5b61104e8282611bff565b5050565b6000801b81565b600080611064611305565b90506000600160008373ffffffffffffffffffffffffffffffffffffffff1673ffffffffffffffffffffffffffffffffffffffff16815260200190815260200160002060008673ffffffffffffffffffffffffffffffffffffffff1673ffffffffffffffffffffffffffffffffffffffff1681526020019081526020016000205490508381101561112a576040517f08c379a000000000000000000000000000000000000000000000000000000000815260040161112190612815565b60405180910390fd5b611137828686840361130d565b60019250505092915050565b60008061114e611305565b905061115b818585611564565b600191505092915050565b60076020528060005260406000206000915090505481565b7f9f2df0fed2c77648de5860a4cc508cd0818c85b8b8a1ab4ceeef8d981c8956a681565b6111ab826108dd565b6111bc816111b7611305565b6117e5565b6111c68383611963565b505050565b6000600160008473ffffffffffffffffffffffffffffffffffffffff1673ffffffffffffffffffffffffffffffffffffffff16815260200190815260200160002060008373ffffffffffffffffffffffffffffffffffffffff1673ffffffffffffffffffffffffffffffffffffffff16815260200190815260200160002054905092915050565b6000600760008373ffffffffffffffffffffffffffffffffffffffff1673ffffffffffffffffffffffffffffffffffffffff168152602001908152602001600020549050919050565b60007f01ffc9a7000000000000000000000000000000000000000000000000000000007bffffffffffffffffffffffffffffffffffffffffffffffffffffffff1916827bffffffffffffffffffffffffffffffffffffffffffffffffffffffff1916149050919050565b600033905090565b600073ffffffffffffffffffffffffffffffffffffffff168373ffffffffffffffffffffffffffffffffffffffff16141561137d576040517f08c379a0000000000000000000000000000000000000000000000000000000008152600401611374906127d5565b60405180910390fd5b600073ffffffffffffffffffffffffffffffffffffffff168273ffffffffffffffffffffffffffffffffffffffff1614156113ed576040517f08c379a00000000000000000000000000000000000000000000000000000000081526004016113e4906126b5565b60405180910390fd5b80600160008573ffffffffffffffffffffffffffffffffffffffff1673ffffffffffffffffffffffffffffffffffffffff16815260200190815260200160002060008473ffffffffffffffffffffffffffffffffffffffff1673ffffffffffffffffffffffffffffffffffffffff168152602001908152602001600020819055508173ffffffffffffffffffffffffffffffffffffffff168373ffffffffffffffffffffffffffffffffffffffff167f8c5be1e5ebec7d5bd14f71427d1e84f3dd0314c0f7b2291e5b200ac8c7c3b925836040516114cb9190612875565b60405180910390a3505050565b60006114e484846111cb565b90507fffffffffffffffffffffffffffffffffffffffffffffffffffffffffffffffff811461155e5781811015611550576040517f08c379a0000000000000000000000000000000000000000000000000000000008152600401611547906126d5565b60405180910390fd5b61155d848484840361130d565b5b50505050565b600073ffffffffffffffffffffffffffffffffffffffff168373ffffffffffffffffffffffffffffffffffffffff1614156115d4576040517f08c379a00000000000000000000000000000000000000000000000000000000081526004016115cb90612795565b60405180910390fd5b600073ffffffffffffffffffffffffffffffffffffffff168273ffffffffffffffffffffffffffffffffffffffff161415611644576040517f08c379a000000000000000000000000000000000000000000000000000000000815260040161163b90612675565b60405180910390fd5b61164f838383611dd6565b60008060008573ffffffffffffffffffffffffffffffffffffffff1673ffffffffffffffffffffffffffffffffffffffff168152602001908152602001600020549050818110156116d5576040517f08c379a00000000000000000000000000000000000000000000000000000000081526004016116cc906126f5565b60405180910390fd5b8181036000808673ffffffffffffffffffffffffffffffffffffffff1673ffffffffffffffffffffffffffffffffffffffff16815260200190815260200160002081905550816000808573ffffffffffffffffffffffffffffffffffffffff1673ffffffffffffffffffffffffffffffffffffffff168152602001908152602001600020600082825461176891906128d2565b925050819055508273ffffffffffffffffffffffffffffffffffffffff168473ffffffffffffffffffffffffffffffffffffffff167fddf252ad1be2c89b69c2b068fc378daa952ba7f163c4a11628f55a4df523b3ef846040516117cc9190612875565b60405180910390a36117df848484611ddb565b50505050565b6117ef8282610ede565b61187e576118148173ffffffffffffffffffffffffffffffffffffffff166014611de0565b6118228360001c6020611de0565b60405160200161183392919061259a565b6040516020818303038152906040526040517f08c379a00000000000000000000000000000000000000000000000000000000081526004016118759190612633565b60405180910390fd5b5050565b61188c8282610ede565b61195f5760016005600084815260200190815260200160002060000160008373ffffffffffffffffffffffffffffffffffffffff1673ffffffffffffffffffffffffffffffffffffffff16815260200190815260200160002060006101000a81548160ff021916908315150217905550611904611305565b73ffffffffffffffffffffffffffffffffffffffff168173ffffffffffffffffffffffffffffffffffffffff16837f2f8788117e7eff1d82e926ec794901d17c78024a50270940304540a733656f0d60405160405180910390a45b5050565b61196d8282610ede565b15611a415760006005600084815260200190815260200160002060000160008373ffffffffffffffffffffffffffffffffffffffff1673ffffffffffffffffffffffffffffffffffffffff16815260200190815260200160002060006101000a81548160ff0219169083151502179055506119e6611305565b73ffffffffffffffffffffffffffffffffffffffff168173ffffffffffffffffffffffffffffffffffffffff16837ff6391f5c32d9c69d2a47ea670b442974b53935d1edc7fd64eb21e047a839171b60405160405180910390a45b5050565b600073ffffffffffffffffffffffffffffffffffffffff168273ffffffffffffffffffffffffffffffffffffffff161415611ab5576040517f08c379a0000000000000000000000000000000000000000000000000000000008152600401611aac90612855565b60405180910390fd5b611ac160008383611dd6565b8060026000828254611ad391906128d2565b92505081905550806000808473ffffffffffffffffffffffffffffffffffffffff1673ffffffffffffffffffffffffffffffffffffffff1681526020019081526020016000206000828254611b2891906128d2565b925050819055508173ffffffffffffffffffffffffffffffffffffffff16600073ffffffffffffffffffffffffffffffffffffffff167fddf252ad1be2c89b69c2b068fc378daa952ba7f163c4a11628f55a4df523b3ef83604051611b8d9190612875565b60405180910390a3611ba160008383611ddb565b5050565b80600660008473ffffffffffffffffffffffffffffffffffffffff1673ffffffffffffffffffffffffffffffffffffffff1681526020019081526020016000206000828254611bf491906128d2565b925050819055505050565b600073ffffffffffffffffffffffffffffffffffffffff168273ffffffffffffffffffffffffffffffffffffffff161415611c6f576040517f08c379a0000000000000000000000000000000000000000000000000000000008152600401611c6690612775565b60405180910390fd5b611c7b82600083611dd6565b60008060008473ffffffffffffffffffffffffffffffffffffffff1673ffffffffffffffffffffffffffffffffffffffff16815260200190815260200160002054905081811015611d01576040517f08c379a0000000000000000000000000000000000000000000000000000000008152600401611cf890612695565b60405180910390fd5b8181036000808573ffffffffffffffffffffffffffffffffffffffff1673ffffffffffffffffffffffffffffffffffffffff168152602001908152602001600020819055508160026000828254611d589190612982565b92505081905550600073ffffffffffffffffffffffffffffffffffffffff168373ffffffffffffffffffffffffffffffffffffffff167fddf252ad1be2c89b69c2b068fc378daa952ba7f163c4a11628f55a4df523b3ef84604051611dbd9190612875565b60405180910390a3611dd183600084611ddb565b505050565b505050565b505050565b606060006002836002611df39190612928565b611dfd91906128d2565b67ffffffffffffffff811115611e1657611e15612b5d565b5b6040519080825280601f01601f191660200182016040528015611e485781602001600182028036833780820191505090505b5090507f300000000000000000000000000000000000000000000000000000000000000081600081518110611e8057611e7f612b2e565b5b60200101907effffffffffffffffffffffffffffffffffffffffffffffffffffffffffffff1916908160001a9053507f780000000000000000000000000000000000000000000000000000000000000081600181518110611ee457611ee3612b2e565b5b60200101907effffffffffffffffffffffffffffffffffffffffffffffffffffffffffffff1916908160001a90535060006001846002611f249190612928565b611f2e91906128d2565b90505b6001811115611fce577f3031323334353637383961626364656600000000000000000000000000000000600f861660108110611f7057611f6f612b2e565b5b1a60f81b828281518110611f8757611f86612b2e565b5b60200101907effffffffffffffffffffffffffffffffffffffffffffffffffffffffffffff1916908160001a905350600485901c945080611fc790612a74565b9050611f31565b5060008414612012576040517f08c379a000000000000000000000000000000000000000000000000000000000815260040161200990612655565b60405180910390fd5b8091505092915050565b60008135905061202b81613029565b92915050565b60008151905061204081613040565b92915050565b60008135905061205581613057565b92915050565b60008135905061206a8161306e565b92915050565b60008135905061207f81613085565b92915050565b60006020828403121561209b5761209a612b8c565b5b60006120a98482850161201c565b91505092915050565b600080604083850312156120c9576120c8612b8c565b5b60006120d78582860161201c565b92505060206120e88582860161201c565b9150509250929050565b60008060006060848603121561210b5761210a612b8c565b5b60006121198682870161201c565b935050602061212a8682870161201c565b925050604061213b86828701612070565b9150509250925092565b6000806040838503121561215c5761215b612b8c565b5b600061216a8582860161201c565b925050602061217b85828601612070565b9150509250929050565b60006020828403121561219b5761219a612b8c565b5b60006121a984828501612031565b91505092915050565b6000602082840312156121c8576121c7612b8c565b5b60006121d684828501612046565b91505092915050565b600080604083850312156121f6576121f5612b8c565b5b600061220485828601612046565b92505060206122158582860161201c565b9150509250929050565b60006020828403121561223557612234612b8c565b5b60006122438482850161205b565b91505092915050565b612255816129b6565b82525050565b612264816129c8565b82525050565b612273816129d4565b82525050565b6000612284826128ab565b61228e81856128b6565b935061229e818560208601612a41565b6122a781612b91565b840191505092915050565b60006122bd826128ab565b6122c781856128c7565b93506122d7818560208601612a41565b80840191505092915050565b60006122f06020836128b6565b91506122fb82612ba2565b602082019050919050565b60006123136023836128b6565b915061231e82612bcb565b604082019050919050565b60006123366022836128b6565b915061234182612c1a565b604082019050919050565b60006123596022836128b6565b915061236482612c69565b604082019050919050565b600061237c601d836128b6565b915061238782612cb8565b602082019050919050565b600061239f6026836128b6565b91506123aa82612ce1565b604082019050919050565b60006123c26028836128b6565b91506123cd82612d30565b604082019050919050565b60006123e56016836128b6565b91506123f082612d7f565b602082019050919050565b60006124086016836128b6565b915061241382612da8565b602082019050919050565b600061242b6021836128b6565b915061243682612dd1565b604082019050919050565b600061244e6025836128b6565b915061245982612e20565b604082019050919050565b60006124716018836128b6565b915061247c82612e6f565b602082019050919050565b60006124946024836128b6565b915061249f82612e98565b604082019050919050565b60006124b76020836128b6565b91506124c282612ee7565b602082019050919050565b60006124da6017836128c7565b91506124e582612f10565b601782019050919050565b60006124fd6025836128b6565b915061250882612f39565b604082019050919050565b60006125206011836128c7565b915061252b82612f88565b601182019050919050565b6000612543602f836128b6565b915061254e82612fb1565b604082019050919050565b6000612566601f836128b6565b915061257182613000565b602082019050919050565b61258581612a2a565b82525050565b61259481612a34565b82525050565b60006125a5826124cd565b91506125b182856122b2565b91506125bc82612513565b91506125c882846122b2565b91508190509392505050565b60006040820190506125e9600083018561224c565b6125f6602083018461257c565b9392505050565b6000602082019050612612600083018461225b565b92915050565b600060208201905061262d600083018461226a565b92915050565b6000602082019050818103600083015261264d8184612279565b905092915050565b6000602082019050818103600083015261266e816122e3565b9050919050565b6000602082019050818103600083015261268e81612306565b9050919050565b600060208201905081810360008301526126ae81612329565b9050919050565b600060208201905081810360008301526126ce8161234c565b9050919050565b600060208201905081810360008301526126ee8161236f565b9050919050565b6000602082019050818103600083015261270e81612392565b9050919050565b6000602082019050818103600083015261272e816123b5565b9050919050565b6000602082019050818103600083015261274e816123d8565b9050919050565b6000602082019050818103600083015261276e816123fb565b9050919050565b6000602082019050818103600083015261278e8161241e565b9050919050565b600060208201905081810360008301526127ae81612441565b9050919050565b600060208201905081810360008301526127ce81612464565b9050919050565b600060208201905081810360008301526127ee81612487565b9050919050565b6000602082019050818103600083015261280e816124aa565b9050919050565b6000602082019050818103600083015261282e816124f0565b9050919050565b6000602082019050818103600083015261284e81612536565b9050919050565b6000602082019050818103600083015261286e81612559565b9050919050565b600060208201905061288a600083018461257c565b92915050565b60006020820190506128a5600083018461258b565b92915050565b600081519050919050565b600082825260208201905092915050565b600081905092915050565b60006128dd82612a2a565b91506128e883612a2a565b9250827fffffffffffffffffffffffffffffffffffffffffffffffffffffffffffffffff0382111561291d5761291c612ad0565b5b828201905092915050565b600061293382612a2a565b915061293e83612a2a565b9250817fffffffffffffffffffffffffffffffffffffffffffffffffffffffffffffffff048311821515161561297757612976612ad0565b5b828202905092915050565b600061298d82612a2a565b915061299883612a2a565b9250828210156129ab576129aa612ad0565b5b828203905092915050565b60006129c182612a0a565b9050919050565b60008115159050919050565b6000819050919050565b60007fffffffff0000000000000000000000000000000000000000000000000000000082169050919050565b600073ffffffffffffffffffffffffffffffffffffffff82169050919050565b6000819050919050565b600060ff82169050919050565b60005b83811015612a5f578082015181840152602081019050612a44565b83811115612a6e576000848401525b50505050565b6000612a7f82612a2a565b91506000821415612a9357612a92612ad0565b5b600182039050919050565b60006002820490506001821680612ab657607f821691505b60208210811415612aca57612ac9612aff565b5b50919050565b7f4e487b7100000000000000000000000000000000000000000000000000000000600052601160045260246000fd5b7f4e487b7100000000000000000000000000000000000000000000000000000000600052602260045260246000fd5b7f4e487b7100000000000000000000000000000000000000000000000000000000600052603260045260246000fd5b7f4e487b7100000000000000000000000000000000000000000000000000000000600052604160045260246000fd5b600080fd5b6000601f19601f8301169050919050565b7f537472696e67733a20686578206c656e67746820696e73756666696369656e74600082015250565b7f45524332303a207472616e7366657220746f20746865207a65726f206164647260008201527f6573730000000000000000000000000000000000000000000000000000000000602082015250565b7f45524332303a206275726e20616d6f756e7420657863656564732062616c616e60008201527f6365000000000000000000000000000000000000000000000000000000000000602082015250565b7f45524332303a20617070726f766520746f20746865207a65726f20616464726560008201527f7373000000000000000000000000000000000000000000000000000000000000602082015250565b7f45524332303a20696e73756666696369656e7420616c6c6f77616e6365000000600082015250565b7f45524332303a207472616e7366657220616d6f756e742065786365656473206260008201527f616c616e63650000000000000000000000000000000000000000000000000000602082015250565b7f556e636c61696d65642062616c616e6365206d7573742062652067726561746560008201527f72207468616e2030000000000000000000000000000000000000000000000000602082015250565b7f43616c6c6572206973206e6f742061206d696e74657200000000000000000000600082015250565b7f43616c6c6572206973206e6f742061206275726e657200000000000000000000600082015250565b7f45524332303a206275726e2066726f6d20746865207a65726f2061646472657360008201527f7300000000000000000000000000000000000000000000000000000000000000602082015250565b7f45524332303a207472616e736665722066726f6d20746865207a65726f20616460008201527f6472657373000000000000000000000000000000000000000000000000000000602082015250565b7f43616c6c6572206973206e6f7420612072657761726465720000000000000000600082015250565b7f45524332303a20617070726f76652066726f6d20746865207a65726f2061646460008201527f7265737300000000000000000000000000000000000000000000000000000000602082015250565b7f636c61696d61626c65206d7573742062652067726561746572207468616e2030600082015250565b7f416363657373436f6e74726f6c3a206163636f756e7420000000000000000000600082015250565b7f45524332303a2064656372656173656420616c6c6f77616e63652062656c6f7760008201527f207a65726f000000000000000000000000000000000000000000000000000000602082015250565b7f206973206d697373696e6720726f6c6520000000000000000000000000000000600082015250565b7f416363657373436f6e74726f6c3a2063616e206f6e6c792072656e6f756e636560008201527f20726f6c657320666f722073656c660000000000000000000000000000000000602082015250565b7f45524332303a206d696e7420746f20746865207a65726f206164647265737300600082015250565b613032816129b6565b811461303d57600080fd5b50565b613049816129c8565b811461305457600080fd5b50565b613060816129d4565b811461306b57600080fd5b50565b613077816129de565b811461308257600080fd5b50565b61308e81612a2a565b811461309957600080fd5b5056fea26469706673582212206e93508b470027660d6814c2f9d7a2e0c14b4620eb09fe31523e368a5982c41764736f6c63430008070033",
					"opcodes": "PUSH1 0x80 PUSH1 0x40 MSTORE CALLVALUE DUP1 ISZERO PUSH3 0x11 JUMPI PUSH1 0x0 DUP1 REVERT JUMPDEST POP PUSH1 0x40 MLOAD DUP1 PUSH1 0x40 ADD PUSH1 0x40 MSTORE DUP1 PUSH1 0x9 DUP2 MSTORE PUSH1 0x20 ADD PUSH32 0x466F6F20546F6B656E0000000000000000000000000000000000000000000000 DUP2 MSTORE POP PUSH1 0x40 MLOAD DUP1 PUSH1 0x40 ADD PUSH1 0x40 MSTORE DUP1 PUSH1 0x3 DUP2 MSTORE PUSH1 0x20 ADD PUSH32 0x464F4F0000000000000000000000000000000000000000000000000000000000 DUP2 MSTORE POP DUP2 PUSH1 0x3 SWAP1 DUP1 MLOAD SWAP1 PUSH1 0x20 ADD SWAP1 PUSH3 0x96 SWAP3 SWAP2 SWAP1 PUSH3 0x3E8 JUMP JUMPDEST POP DUP1 PUSH1 0x4 SWAP1 DUP1 MLOAD SWAP1 PUSH1 0x20 ADD SWAP1 PUSH3 0xAF SWAP3 SWAP2 SWAP1 PUSH3 0x3E8 JUMP JUMPDEST POP POP POP PUSH3 0xCF ADDRESS PUSH11 0x52B7D2DCC80CD2E4000000 PUSH3 0xEA PUSH1 0x20 SHL PUSH1 0x20 SHR JUMP JUMPDEST PUSH3 0xE4 PUSH1 0x0 DUP1 SHL CALLER PUSH3 0x263 PUSH1 0x20 SHL PUSH1 0x20 SHR JUMP JUMPDEST PUSH3 0x644 JUMP JUMPDEST PUSH1 0x0 PUSH20 0xFFFFFFFFFFFFFFFFFFFFFFFFFFFFFFFFFFFFFFFF AND DUP3 PUSH20 0xFFFFFFFFFFFFFFFFFFFFFFFFFFFFFFFFFFFFFFFF AND EQ ISZERO PUSH3 0x15D JUMPI PUSH1 0x40 MLOAD PUSH32 0x8C379A000000000000000000000000000000000000000000000000000000000 DUP2 MSTORE PUSH1 0x4 ADD PUSH3 0x154 SWAP1 PUSH3 0x4D0 JUMP JUMPDEST PUSH1 0x40 MLOAD DUP1 SWAP2 SUB SWAP1 REVERT JUMPDEST PUSH3 0x171 PUSH1 0x0 DUP4 DUP4 PUSH3 0x279 PUSH1 0x20 SHL PUSH1 0x20 SHR JUMP JUMPDEST DUP1 PUSH1 0x2 PUSH1 0x0 DUP3 DUP3 SLOAD PUSH3 0x185 SWAP2 SWAP1 PUSH3 0x520 JUMP JUMPDEST SWAP3 POP POP DUP2 SWAP1 SSTORE POP DUP1 PUSH1 0x0 DUP1 DUP5 PUSH20 0xFFFFFFFFFFFFFFFFFFFFFFFFFFFFFFFFFFFFFFFF AND PUSH20 0xFFFFFFFFFFFFFFFFFFFFFFFFFFFFFFFFFFFFFFFF AND DUP2 MSTORE PUSH1 0x20 ADD SWAP1 DUP2 MSTORE PUSH1 0x20 ADD PUSH1 0x0 KECCAK256 PUSH1 0x0 DUP3 DUP3 SLOAD PUSH3 0x1DC SWAP2 SWAP1 PUSH3 0x520 JUMP JUMPDEST SWAP3 POP POP DUP2 SWAP1 SSTORE POP DUP2 PUSH20 0xFFFFFFFFFFFFFFFFFFFFFFFFFFFFFFFFFFFFFFFF AND PUSH1 0x0 PUSH20 0xFFFFFFFFFFFFFFFFFFFFFFFFFFFFFFFFFFFFFFFF AND PUSH32 0xDDF252AD1BE2C89B69C2B068FC378DAA952BA7F163C4A11628F55A4DF523B3EF DUP4 PUSH1 0x40 MLOAD PUSH3 0x243 SWAP2 SWAP1 PUSH3 0x4F2 JUMP JUMPDEST PUSH1 0x40 MLOAD DUP1 SWAP2 SUB SWAP1 LOG3 PUSH3 0x25F PUSH1 0x0 DUP4 DUP4 PUSH3 0x27E PUSH1 0x20 SHL PUSH1 0x20 SHR JUMP JUMPDEST POP POP JUMP JUMPDEST PUSH3 0x275 DUP3 DUP3 PUSH3 0x283 PUSH1 0x20 SHL PUSH1 0x20 SHR JUMP JUMPDEST POP POP JUMP JUMPDEST POP POP POP JUMP JUMPDEST POP POP POP JUMP JUMPDEST PUSH3 0x295 DUP3 DUP3 PUSH3 0x375 PUSH1 0x20 SHL PUSH1 0x20 SHR JUMP JUMPDEST PUSH3 0x371 JUMPI PUSH1 0x1 PUSH1 0x5 PUSH1 0x0 DUP5 DUP2 MSTORE PUSH1 0x20 ADD SWAP1 DUP2 MSTORE PUSH1 0x20 ADD PUSH1 0x0 KECCAK256 PUSH1 0x0 ADD PUSH1 0x0 DUP4 PUSH20 0xFFFFFFFFFFFFFFFFFFFFFFFFFFFFFFFFFFFFFFFF AND PUSH20 0xFFFFFFFFFFFFFFFFFFFFFFFFFFFFFFFFFFFFFFFF AND DUP2 MSTORE PUSH1 0x20 ADD SWAP1 DUP2 MSTORE PUSH1 0x20 ADD PUSH1 0x0 KECCAK256 PUSH1 0x0 PUSH2 0x100 EXP DUP2 SLOAD DUP2 PUSH1 0xFF MUL NOT AND SWAP1 DUP4 ISZERO ISZERO MUL OR SWAP1 SSTORE POP PUSH3 0x316 PUSH3 0x3E0 PUSH1 0x20 SHL PUSH1 0x20 SHR JUMP JUMPDEST PUSH20 0xFFFFFFFFFFFFFFFFFFFFFFFFFFFFFFFFFFFFFFFF AND DUP2 PUSH20 0xFFFFFFFFFFFFFFFFFFFFFFFFFFFFFFFFFFFFFFFF AND DUP4 PUSH32 0x2F8788117E7EFF1D82E926EC794901D17C78024A50270940304540A733656F0D PUSH1 0x40 MLOAD PUSH1 0x40 MLOAD DUP1 SWAP2 SUB SWAP1 LOG4 JUMPDEST POP POP JUMP JUMPDEST PUSH1 0x0 PUSH1 0x5 PUSH1 0x0 DUP5 DUP2 MSTORE PUSH1 0x20 ADD SWAP1 DUP2 MSTORE PUSH1 0x20 ADD PUSH1 0x0 KECCAK256 PUSH1 0x0 ADD PUSH1 0x0 DUP4 PUSH20 0xFFFFFFFFFFFFFFFFFFFFFFFFFFFFFFFFFFFFFFFF AND PUSH20 0xFFFFFFFFFFFFFFFFFFFFFFFFFFFFFFFFFFFFFFFF AND DUP2 MSTORE PUSH1 0x20 ADD SWAP1 DUP2 MSTORE PUSH1 0x20 ADD PUSH1 0x0 KECCAK256 PUSH1 0x0 SWAP1 SLOAD SWAP1 PUSH2 0x100 EXP SWAP1 DIV PUSH1 0xFF AND SWAP1 POP SWAP3 SWAP2 POP POP JUMP JUMPDEST PUSH1 0x0 CALLER SWAP1 POP SWAP1 JUMP JUMPDEST DUP3 DUP1 SLOAD PUSH3 0x3F6 SWAP1 PUSH3 0x587 JUMP JUMPDEST SWAP1 PUSH1 0x0 MSTORE PUSH1 0x20 PUSH1 0x0 KECCAK256 SWAP1 PUSH1 0x1F ADD PUSH1 0x20 SWAP1 DIV DUP2 ADD SWAP3 DUP3 PUSH3 0x41A JUMPI PUSH1 0x0 DUP6 SSTORE PUSH3 0x466 JUMP JUMPDEST DUP3 PUSH1 0x1F LT PUSH3 0x435 JUMPI DUP1 MLOAD PUSH1 0xFF NOT AND DUP4 DUP1 ADD OR DUP6 SSTORE PUSH3 0x466 JUMP JUMPDEST DUP3 DUP1 ADD PUSH1 0x1 ADD DUP6 SSTORE DUP3 ISZERO PUSH3 0x466 JUMPI SWAP2 DUP3 ADD JUMPDEST DUP3 DUP2 GT ISZERO PUSH3 0x465 JUMPI DUP3 MLOAD DUP3 SSTORE SWAP2 PUSH1 0x20 ADD SWAP2 SWAP1 PUSH1 0x1 ADD SWAP1 PUSH3 0x448 JUMP JUMPDEST JUMPDEST POP SWAP1 POP PUSH3 0x475 SWAP2 SWAP1 PUSH3 0x479 JUMP JUMPDEST POP SWAP1 JUMP JUMPDEST JUMPDEST DUP1 DUP3 GT ISZERO PUSH3 0x494 JUMPI PUSH1 0x0 DUP2 PUSH1 0x0 SWAP1 SSTORE POP PUSH1 0x1 ADD PUSH3 0x47A JUMP JUMPDEST POP SWAP1 JUMP JUMPDEST PUSH1 0x0 PUSH3 0x4A7 PUSH1 0x1F DUP4 PUSH3 0x50F JUMP JUMPDEST SWAP2 POP PUSH3 0x4B4 DUP3 PUSH3 0x61B JUMP JUMPDEST PUSH1 0x20 DUP3 ADD SWAP1 POP SWAP2 SWAP1 POP JUMP JUMPDEST PUSH3 0x4CA DUP2 PUSH3 0x57D JUMP JUMPDEST DUP3 MSTORE POP POP JUMP JUMPDEST PUSH1 0x0 PUSH1 0x20 DUP3 ADD SWAP1 POP DUP2 DUP2 SUB PUSH1 0x0 DUP4 ADD MSTORE PUSH3 0x4EB DUP2 PUSH3 0x498 JUMP JUMPDEST SWAP1 POP SWAP2 SWAP1 POP JUMP JUMPDEST PUSH1 0x0 PUSH1 0x20 DUP3 ADD SWAP1 POP PUSH3 0x509 PUSH1 0x0 DUP4 ADD DUP5 PUSH3 0x4BF JUMP JUMPDEST SWAP3 SWAP2 POP POP JUMP JUMPDEST PUSH1 0x0 DUP3 DUP3 MSTORE PUSH1 0x20 DUP3 ADD SWAP1 POP SWAP3 SWAP2 POP POP JUMP JUMPDEST PUSH1 0x0 PUSH3 0x52D DUP3 PUSH3 0x57D JUMP JUMPDEST SWAP2 POP PUSH3 0x53A DUP4 PUSH3 0x57D JUMP JUMPDEST SWAP3 POP DUP3 PUSH32 0xFFFFFFFFFFFFFFFFFFFFFFFFFFFFFFFFFFFFFFFFFFFFFFFFFFFFFFFFFFFFFFFF SUB DUP3 GT ISZERO PUSH3 0x572 JUMPI PUSH3 0x571 PUSH3 0x5BD JUMP JUMPDEST JUMPDEST DUP3 DUP3 ADD SWAP1 POP SWAP3 SWAP2 POP POP JUMP JUMPDEST PUSH1 0x0 DUP2 SWAP1 POP SWAP2 SWAP1 POP JUMP JUMPDEST PUSH1 0x0 PUSH1 0x2 DUP3 DIV SWAP1 POP PUSH1 0x1 DUP3 AND DUP1 PUSH3 0x5A0 JUMPI PUSH1 0x7F DUP3 AND SWAP2 POP JUMPDEST PUSH1 0x20 DUP3 LT DUP2 EQ ISZERO PUSH3 0x5B7 JUMPI PUSH3 0x5B6 PUSH3 0x5EC JUMP JUMPDEST JUMPDEST POP SWAP2 SWAP1 POP JUMP JUMPDEST PUSH32 0x4E487B7100000000000000000000000000000000000000000000000000000000 PUSH1 0x0 MSTORE PUSH1 0x11 PUSH1 0x4 MSTORE PUSH1 0x24 PUSH1 0x0 REVERT JUMPDEST PUSH32 0x4E487B7100000000000000000000000000000000000000000000000000000000 PUSH1 0x0 MSTORE PUSH1 0x22 PUSH1 0x4 MSTORE PUSH1 0x24 PUSH1 0x0 REVERT JUMPDEST PUSH32 0x45524332303A206D696E7420746F20746865207A65726F206164647265737300 PUSH1 0x0 DUP3 ADD MSTORE POP JUMP JUMPDEST PUSH2 0x30D2 DUP1 PUSH3 0x654 PUSH1 0x0 CODECOPY PUSH1 0x0 RETURN INVALID PUSH1 0x80 PUSH1 0x40 MSTORE PUSH1 0x4 CALLDATASIZE LT PUSH2 0x1C2 JUMPI PUSH1 0x0 CALLDATALOAD PUSH1 0xE0 SHR DUP1 PUSH4 0x505BD3DA GT PUSH2 0xF7 JUMPI DUP1 PUSH4 0xA217FDDF GT PUSH2 0x95 JUMPI DUP1 PUSH4 0xD5391393 GT PUSH2 0x64 JUMPI DUP1 PUSH4 0xD5391393 EQ PUSH2 0x6A7 JUMPI DUP1 PUSH4 0xD547741F EQ PUSH2 0x6D2 JUMPI DUP1 PUSH4 0xDD62ED3E EQ PUSH2 0x6FB JUMPI DUP1 PUSH4 0xEB46260E EQ PUSH2 0x738 JUMPI PUSH2 0x1C2 JUMP JUMPDEST DUP1 PUSH4 0xA217FDDF EQ PUSH2 0x5C5 JUMPI DUP1 PUSH4 0xA457C2D7 EQ PUSH2 0x5F0 JUMPI DUP1 PUSH4 0xA9059CBB EQ PUSH2 0x62D JUMPI DUP1 PUSH4 0xC884EF83 EQ PUSH2 0x66A JUMPI PUSH2 0x1C2 JUMP JUMPDEST DUP1 PUSH4 0x8A9DB765 GT PUSH2 0xD1 JUMPI DUP1 PUSH4 0x8A9DB765 EQ PUSH2 0x50B JUMPI DUP1 PUSH4 0x91D14854 EQ PUSH2 0x534 JUMPI DUP1 PUSH4 0x95D89B41 EQ PUSH2 0x571 JUMPI DUP1 PUSH4 0x9DC29FAC EQ PUSH2 0x59C JUMPI PUSH2 0x1C2 JUMP JUMPDEST DUP1 PUSH4 0x505BD3DA EQ PUSH2 0x466 JUMPI DUP1 PUSH4 0x70A08231 EQ PUSH2 0x4A3 JUMPI DUP1 PUSH4 0x8580CF76 EQ PUSH2 0x4E0 JUMPI PUSH2 0x1C2 JUMP JUMPDEST DUP1 PUSH4 0x2F2FF15D GT PUSH2 0x164 JUMPI DUP1 PUSH4 0x39509351 GT PUSH2 0x13E JUMPI DUP1 PUSH4 0x39509351 EQ PUSH2 0x3B9 JUMPI DUP1 PUSH4 0x3AB1CED1 EQ PUSH2 0x3F6 JUMPI DUP1 PUSH4 0x40C10F19 EQ PUSH2 0x433 JUMPI DUP1 PUSH4 0x4E71D92D EQ PUSH2 0x45C JUMPI PUSH2 0x1C2 JUMP JUMPDEST DUP1 PUSH4 0x2F2FF15D EQ PUSH2 0x33C JUMPI DUP1 PUSH4 0x313CE567 EQ PUSH2 0x365 JUMPI DUP1 PUSH4 0x36568ABE EQ PUSH2 0x390 JUMPI PUSH2 0x1C2 JUMP JUMPDEST DUP1 PUSH4 0x18160DDD GT PUSH2 0x1A0 JUMPI DUP1 PUSH4 0x18160DDD EQ PUSH2 0x26C JUMPI DUP1 PUSH4 0x23B872DD EQ PUSH2 0x297 JUMPI DUP1 PUSH4 0x248A9CA3 EQ PUSH2 0x2D4 JUMPI DUP1 PUSH4 0x282C51F3 EQ PUSH2 0x311 JUMPI PUSH2 0x1C2 JUMP JUMPDEST DUP1 PUSH4 0x1FFC9A7 EQ PUSH2 0x1C7 JUMPI DUP1 PUSH4 0x6FDDE03 EQ PUSH2 0x204 JUMPI DUP1 PUSH4 0x95EA7B3 EQ PUSH2 0x22F JUMPI JUMPDEST PUSH1 0x0 DUP1 REVERT JUMPDEST CALLVALUE DUP1 ISZERO PUSH2 0x1D3 JUMPI PUSH1 0x0 DUP1 REVERT JUMPDEST POP PUSH2 0x1EE PUSH1 0x4 DUP1 CALLDATASIZE SUB DUP2 ADD SWAP1 PUSH2 0x1E9 SWAP2 SWAP1 PUSH2 0x221F JUMP JUMPDEST PUSH2 0x775 JUMP JUMPDEST PUSH1 0x40 MLOAD PUSH2 0x1FB SWAP2 SWAP1 PUSH2 0x25FD JUMP JUMPDEST PUSH1 0x40 MLOAD DUP1 SWAP2 SUB SWAP1 RETURN JUMPDEST CALLVALUE DUP1 ISZERO PUSH2 0x210 JUMPI PUSH1 0x0 DUP1 REVERT JUMPDEST POP PUSH2 0x219 PUSH2 0x7EF JUMP JUMPDEST PUSH1 0x40 MLOAD PUSH2 0x226 SWAP2 SWAP1 PUSH2 0x2633 JUMP JUMPDEST PUSH1 0x40 MLOAD DUP1 SWAP2 SUB SWAP1 RETURN JUMPDEST CALLVALUE DUP1 ISZERO PUSH2 0x23B JUMPI PUSH1 0x0 DUP1 REVERT JUMPDEST POP PUSH2 0x256 PUSH1 0x4 DUP1 CALLDATASIZE SUB DUP2 ADD SWAP1 PUSH2 0x251 SWAP2 SWAP1 PUSH2 0x2145 JUMP JUMPDEST PUSH2 0x881 JUMP JUMPDEST PUSH1 0x40 MLOAD PUSH2 0x263 SWAP2 SWAP1 PUSH2 0x25FD JUMP JUMPDEST PUSH1 0x40 MLOAD DUP1 SWAP2 SUB SWAP1 RETURN JUMPDEST CALLVALUE DUP1 ISZERO PUSH2 0x278 JUMPI PUSH1 0x0 DUP1 REVERT JUMPDEST POP PUSH2 0x281 PUSH2 0x8A4 JUMP JUMPDEST PUSH1 0x40 MLOAD PUSH2 0x28E SWAP2 SWAP1 PUSH2 0x2875 JUMP JUMPDEST PUSH1 0x40 MLOAD DUP1 SWAP2 SUB SWAP1 RETURN JUMPDEST CALLVALUE DUP1 ISZERO PUSH2 0x2A3 JUMPI PUSH1 0x0 DUP1 REVERT JUMPDEST POP PUSH2 0x2BE PUSH1 0x4 DUP1 CALLDATASIZE SUB DUP2 ADD SWAP1 PUSH2 0x2B9 SWAP2 SWAP1 PUSH2 0x20F2 JUMP JUMPDEST PUSH2 0x8AE JUMP JUMPDEST PUSH1 0x40 MLOAD PUSH2 0x2CB SWAP2 SWAP1 PUSH2 0x25FD JUMP JUMPDEST PUSH1 0x40 MLOAD DUP1 SWAP2 SUB SWAP1 RETURN JUMPDEST CALLVALUE DUP1 ISZERO PUSH2 0x2E0 JUMPI PUSH1 0x0 DUP1 REVERT JUMPDEST POP PUSH2 0x2FB PUSH1 0x4 DUP1 CALLDATASIZE SUB DUP2 ADD SWAP1 PUSH2 0x2F6 SWAP2 SWAP1 PUSH2 0x21B2 JUMP JUMPDEST PUSH2 0x8DD JUMP JUMPDEST PUSH1 0x40 MLOAD PUSH2 0x308 SWAP2 SWAP1 PUSH2 0x2618 JUMP JUMPDEST PUSH1 0x40 MLOAD DUP1 SWAP2 SUB SWAP1 RETURN JUMPDEST CALLVALUE DUP1 ISZERO PUSH2 0x31D JUMPI PUSH1 0x0 DUP1 REVERT JUMPDEST POP PUSH2 0x326 PUSH2 0x8FD JUMP JUMPDEST PUSH1 0x40 MLOAD PUSH2 0x333 SWAP2 SWAP1 PUSH2 0x2618 JUMP JUMPDEST PUSH1 0x40 MLOAD DUP1 SWAP2 SUB SWAP1 RETURN JUMPDEST CALLVALUE DUP1 ISZERO PUSH2 0x348 JUMPI PUSH1 0x0 DUP1 REVERT JUMPDEST POP PUSH2 0x363 PUSH1 0x4 DUP1 CALLDATASIZE SUB DUP2 ADD SWAP1 PUSH2 0x35E SWAP2 SWAP1 PUSH2 0x21DF JUMP JUMPDEST PUSH2 0x921 JUMP JUMPDEST STOP JUMPDEST CALLVALUE DUP1 ISZERO PUSH2 0x371 JUMPI PUSH1 0x0 DUP1 REVERT JUMPDEST POP PUSH2 0x37A PUSH2 0x94A JUMP JUMPDEST PUSH1 0x40 MLOAD PUSH2 0x387 SWAP2 SWAP1 PUSH2 0x2890 JUMP JUMPDEST PUSH1 0x40 MLOAD DUP1 SWAP2 SUB SWAP1 RETURN JUMPDEST CALLVALUE DUP1 ISZERO PUSH2 0x39C JUMPI PUSH1 0x0 DUP1 REVERT JUMPDEST POP PUSH2 0x3B7 PUSH1 0x4 DUP1 CALLDATASIZE SUB DUP2 ADD SWAP1 PUSH2 0x3B2 SWAP2 SWAP1 PUSH2 0x21DF JUMP JUMPDEST PUSH2 0x953 JUMP JUMPDEST STOP JUMPDEST CALLVALUE DUP1 ISZERO PUSH2 0x3C5 JUMPI PUSH1 0x0 DUP1 REVERT JUMPDEST POP PUSH2 0x3E0 PUSH1 0x4 DUP1 CALLDATASIZE SUB DUP2 ADD SWAP1 PUSH2 0x3DB SWAP2 SWAP1 PUSH2 0x2145 JUMP JUMPDEST PUSH2 0x9D6 JUMP JUMPDEST PUSH1 0x40 MLOAD PUSH2 0x3ED SWAP2 SWAP1 PUSH2 0x25FD JUMP JUMPDEST PUSH1 0x40 MLOAD DUP1 SWAP2 SUB SWAP1 RETURN JUMPDEST CALLVALUE DUP1 ISZERO PUSH2 0x402 JUMPI PUSH1 0x0 DUP1 REVERT JUMPDEST POP PUSH2 0x41D PUSH1 0x4 DUP1 CALLDATASIZE SUB DUP2 ADD SWAP1 PUSH2 0x418 SWAP2 SWAP1 PUSH2 0x2085 JUMP JUMPDEST PUSH2 0xA80 JUMP JUMPDEST PUSH1 0x40 MLOAD PUSH2 0x42A SWAP2 SWAP1 PUSH2 0x2875 JUMP JUMPDEST PUSH1 0x40 MLOAD DUP1 SWAP2 SUB SWAP1 RETURN JUMPDEST CALLVALUE DUP1 ISZERO PUSH2 0x43F JUMPI PUSH1 0x0 DUP1 REVERT JUMPDEST POP PUSH2 0x45A PUSH1 0x4 DUP1 CALLDATASIZE SUB DUP2 ADD SWAP1 PUSH2 0x455 SWAP2 SWAP1 PUSH2 0x2145 JUMP JUMPDEST PUSH2 0xAC9 JUMP JUMPDEST STOP JUMPDEST PUSH2 0x464 PUSH2 0xB40 JUMP JUMPDEST STOP JUMPDEST CALLVALUE DUP1 ISZERO PUSH2 0x472 JUMPI PUSH1 0x0 DUP1 REVERT JUMPDEST POP PUSH2 0x48D PUSH1 0x4 DUP1 CALLDATASIZE SUB DUP2 ADD SWAP1 PUSH2 0x488 SWAP2 SWAP1 PUSH2 0x2085 JUMP JUMPDEST PUSH2 0xD06 JUMP JUMPDEST PUSH1 0x40 MLOAD PUSH2 0x49A SWAP2 SWAP1 PUSH2 0x2875 JUMP JUMPDEST PUSH1 0x40 MLOAD DUP1 SWAP2 SUB SWAP1 RETURN JUMPDEST CALLVALUE DUP1 ISZERO PUSH2 0x4AF JUMPI PUSH1 0x0 DUP1 REVERT JUMPDEST POP PUSH2 0x4CA PUSH1 0x4 DUP1 CALLDATASIZE SUB DUP2 ADD SWAP1 PUSH2 0x4C5 SWAP2 SWAP1 PUSH2 0x2085 JUMP JUMPDEST PUSH2 0xD1E JUMP JUMPDEST PUSH1 0x40 MLOAD PUSH2 0x4D7 SWAP2 SWAP1 PUSH2 0x2875 JUMP JUMPDEST PUSH1 0x40 MLOAD DUP1 SWAP2 SUB SWAP1 RETURN JUMPDEST CALLVALUE DUP1 ISZERO PUSH2 0x4EC JUMPI PUSH1 0x0 DUP1 REVERT JUMPDEST POP PUSH2 0x4F5 PUSH2 0xD66 JUMP JUMPDEST PUSH1 0x40 MLOAD PUSH2 0x502 SWAP2 SWAP1 PUSH2 0x2618 JUMP JUMPDEST PUSH1 0x40 MLOAD DUP1 SWAP2 SUB SWAP1 RETURN JUMPDEST CALLVALUE DUP1 ISZERO PUSH2 0x517 JUMPI PUSH1 0x0 DUP1 REVERT JUMPDEST POP PUSH2 0x532 PUSH1 0x4 DUP1 CALLDATASIZE SUB DUP2 ADD SWAP1 PUSH2 0x52D SWAP2 SWAP1 PUSH2 0x2145 JUMP JUMPDEST PUSH2 0xD8A JUMP JUMPDEST STOP JUMPDEST CALLVALUE DUP1 ISZERO PUSH2 0x540 JUMPI PUSH1 0x0 DUP1 REVERT JUMPDEST POP PUSH2 0x55B PUSH1 0x4 DUP1 CALLDATASIZE SUB DUP2 ADD SWAP1 PUSH2 0x556 SWAP2 SWAP1 PUSH2 0x21DF JUMP JUMPDEST PUSH2 0xEDE JUMP JUMPDEST PUSH1 0x40 MLOAD PUSH2 0x568 SWAP2 SWAP1 PUSH2 0x25FD JUMP JUMPDEST PUSH1 0x40 MLOAD DUP1 SWAP2 SUB SWAP1 RETURN JUMPDEST CALLVALUE DUP1 ISZERO PUSH2 0x57D JUMPI PUSH1 0x0 DUP1 REVERT JUMPDEST POP PUSH2 0x586 PUSH2 0xF49 JUMP JUMPDEST PUSH1 0x40 MLOAD PUSH2 0x593 SWAP2 SWAP1 PUSH2 0x2633 JUMP JUMPDEST PUSH1 0x40 MLOAD DUP1 SWAP2 SUB SWAP1 RETURN JUMPDEST CALLVALUE DUP1 ISZERO PUSH2 0x5A8 JUMPI PUSH1 0x0 DUP1 REVERT JUMPDEST POP PUSH2 0x5C3 PUSH1 0x4 DUP1 CALLDATASIZE SUB DUP2 ADD SWAP1 PUSH2 0x5BE SWAP2 SWAP1 PUSH2 0x2145 JUMP JUMPDEST PUSH2 0xFDB JUMP JUMPDEST STOP JUMPDEST CALLVALUE DUP1 ISZERO PUSH2 0x5D1 JUMPI PUSH1 0x0 DUP1 REVERT JUMPDEST POP PUSH2 0x5DA PUSH2 0x1052 JUMP JUMPDEST PUSH1 0x40 MLOAD PUSH2 0x5E7 SWAP2 SWAP1 PUSH2 0x2618 JUMP JUMPDEST PUSH1 0x40 MLOAD DUP1 SWAP2 SUB SWAP1 RETURN JUMPDEST CALLVALUE DUP1 ISZERO PUSH2 0x5FC JUMPI PUSH1 0x0 DUP1 REVERT JUMPDEST POP PUSH2 0x617 PUSH1 0x4 DUP1 CALLDATASIZE SUB DUP2 ADD SWAP1 PUSH2 0x612 SWAP2 SWAP1 PUSH2 0x2145 JUMP JUMPDEST PUSH2 0x1059 JUMP JUMPDEST PUSH1 0x40 MLOAD PUSH2 0x624 SWAP2 SWAP1 PUSH2 0x25FD JUMP JUMPDEST PUSH1 0x40 MLOAD DUP1 SWAP2 SUB SWAP1 RETURN JUMPDEST CALLVALUE DUP1 ISZERO PUSH2 0x639 JUMPI PUSH1 0x0 DUP1 REVERT JUMPDEST POP PUSH2 0x654 PUSH1 0x4 DUP1 CALLDATASIZE SUB DUP2 ADD SWAP1 PUSH2 0x64F SWAP2 SWAP1 PUSH2 0x2145 JUMP JUMPDEST PUSH2 0x1143 JUMP JUMPDEST PUSH1 0x40 MLOAD PUSH2 0x661 SWAP2 SWAP1 PUSH2 0x25FD JUMP JUMPDEST PUSH1 0x40 MLOAD DUP1 SWAP2 SUB SWAP1 RETURN JUMPDEST CALLVALUE DUP1 ISZERO PUSH2 0x676 JUMPI PUSH1 0x0 DUP1 REVERT JUMPDEST POP PUSH2 0x691 PUSH1 0x4 DUP1 CALLDATASIZE SUB DUP2 ADD SWAP1 PUSH2 0x68C SWAP2 SWAP1 PUSH2 0x2085 JUMP JUMPDEST PUSH2 0x1166 JUMP JUMPDEST PUSH1 0x40 MLOAD PUSH2 0x69E SWAP2 SWAP1 PUSH2 0x2875 JUMP JUMPDEST PUSH1 0x40 MLOAD DUP1 SWAP2 SUB SWAP1 RETURN JUMPDEST CALLVALUE DUP1 ISZERO PUSH2 0x6B3 JUMPI PUSH1 0x0 DUP1 REVERT JUMPDEST POP PUSH2 0x6BC PUSH2 0x117E JUMP JUMPDEST PUSH1 0x40 MLOAD PUSH2 0x6C9 SWAP2 SWAP1 PUSH2 0x2618 JUMP JUMPDEST PUSH1 0x40 MLOAD DUP1 SWAP2 SUB SWAP1 RETURN JUMPDEST CALLVALUE DUP1 ISZERO PUSH2 0x6DE JUMPI PUSH1 0x0 DUP1 REVERT JUMPDEST POP PUSH2 0x6F9 PUSH1 0x4 DUP1 CALLDATASIZE SUB DUP2 ADD SWAP1 PUSH2 0x6F4 SWAP2 SWAP1 PUSH2 0x21DF JUMP JUMPDEST PUSH2 0x11A2 JUMP JUMPDEST STOP JUMPDEST CALLVALUE DUP1 ISZERO PUSH2 0x707 JUMPI PUSH1 0x0 DUP1 REVERT JUMPDEST POP PUSH2 0x722 PUSH1 0x4 DUP1 CALLDATASIZE SUB DUP2 ADD SWAP1 PUSH2 0x71D SWAP2 SWAP1 PUSH2 0x20B2 JUMP JUMPDEST PUSH2 0x11CB JUMP JUMPDEST PUSH1 0x40 MLOAD PUSH2 0x72F SWAP2 SWAP1 PUSH2 0x2875 JUMP JUMPDEST PUSH1 0x40 MLOAD DUP1 SWAP2 SUB SWAP1 RETURN JUMPDEST CALLVALUE DUP1 ISZERO PUSH2 0x744 JUMPI PUSH1 0x0 DUP1 REVERT JUMPDEST POP PUSH2 0x75F PUSH1 0x4 DUP1 CALLDATASIZE SUB DUP2 ADD SWAP1 PUSH2 0x75A SWAP2 SWAP1 PUSH2 0x2085 JUMP JUMPDEST PUSH2 0x1252 JUMP JUMPDEST PUSH1 0x40 MLOAD PUSH2 0x76C SWAP2 SWAP1 PUSH2 0x2875 JUMP JUMPDEST PUSH1 0x40 MLOAD DUP1 SWAP2 SUB SWAP1 RETURN JUMPDEST PUSH1 0x0 PUSH32 0x7965DB0B00000000000000000000000000000000000000000000000000000000 PUSH28 0xFFFFFFFFFFFFFFFFFFFFFFFFFFFFFFFFFFFFFFFFFFFFFFFFFFFFFFFF NOT AND DUP3 PUSH28 0xFFFFFFFFFFFFFFFFFFFFFFFFFFFFFFFFFFFFFFFFFFFFFFFFFFFFFFFF NOT AND EQ DUP1 PUSH2 0x7E8 JUMPI POP PUSH2 0x7E7 DUP3 PUSH2 0x129B JUMP JUMPDEST JUMPDEST SWAP1 POP SWAP2 SWAP1 POP JUMP JUMPDEST PUSH1 0x60 PUSH1 0x3 DUP1 SLOAD PUSH2 0x7FE SWAP1 PUSH2 0x2A9E JUMP JUMPDEST DUP1 PUSH1 0x1F ADD PUSH1 0x20 DUP1 SWAP2 DIV MUL PUSH1 0x20 ADD PUSH1 0x40 MLOAD SWAP1 DUP2 ADD PUSH1 0x40 MSTORE DUP1 SWAP3 SWAP2 SWAP1 DUP2 DUP2 MSTORE PUSH1 0x20 ADD DUP3 DUP1 SLOAD PUSH2 0x82A SWAP1 PUSH2 0x2A9E JUMP JUMPDEST DUP1 ISZERO PUSH2 0x877 JUMPI DUP1 PUSH1 0x1F LT PUSH2 0x84C JUMPI PUSH2 0x100 DUP1 DUP4 SLOAD DIV MUL DUP4 MSTORE SWAP2 PUSH1 0x20 ADD SWAP2 PUSH2 0x877 JUMP JUMPDEST DUP3 ADD SWAP2 SWAP1 PUSH1 0x0 MSTORE PUSH1 0x20 PUSH1 0x0 KECCAK256 SWAP1 JUMPDEST DUP2 SLOAD DUP2 MSTORE SWAP1 PUSH1 0x1 ADD SWAP1 PUSH1 0x20 ADD DUP1 DUP4 GT PUSH2 0x85A JUMPI DUP3 SWAP1 SUB PUSH1 0x1F AND DUP3 ADD SWAP2 JUMPDEST POP POP POP POP POP SWAP1 POP SWAP1 JUMP JUMPDEST PUSH1 0x0 DUP1 PUSH2 0x88C PUSH2 0x1305 JUMP JUMPDEST SWAP1 POP PUSH2 0x899 DUP2 DUP6 DUP6 PUSH2 0x130D JUMP JUMPDEST PUSH1 0x1 SWAP2 POP POP SWAP3 SWAP2 POP POP JUMP JUMPDEST PUSH1 0x0 PUSH1 0x2 SLOAD SWAP1 POP SWAP1 JUMP JUMPDEST PUSH1 0x0 DUP1 PUSH2 0x8B9 PUSH2 0x1305 JUMP JUMPDEST SWAP1 POP PUSH2 0x8C6 DUP6 DUP3 DUP6 PUSH2 0x14D8 JUMP JUMPDEST PUSH2 0x8D1 DUP6 DUP6 DUP6 PUSH2 0x1564 JUMP JUMPDEST PUSH1 0x1 SWAP2 POP POP SWAP4 SWAP3 POP POP POP JUMP JUMPDEST PUSH1 0x0 PUSH1 0x5 PUSH1 0x0 DUP4 DUP2 MSTORE PUSH1 0x20 ADD SWAP1 DUP2 MSTORE PUSH1 0x20 ADD PUSH1 0x0 KECCAK256 PUSH1 0x1 ADD SLOAD SWAP1 POP SWAP2 SWAP1 POP JUMP JUMPDEST PUSH32 0x3C11D16CBAFFD01DF69CE1C404F6340EE057498F5F00246190EA54220576A848 DUP2 JUMP JUMPDEST PUSH2 0x92A DUP3 PUSH2 0x8DD JUMP JUMPDEST PUSH2 0x93B DUP2 PUSH2 0x936 PUSH2 0x1305 JUMP JUMPDEST PUSH2 0x17E5 JUMP JUMPDEST PUSH2 0x945 DUP4 DUP4 PUSH2 0x1882 JUMP JUMPDEST POP POP POP JUMP JUMPDEST PUSH1 0x0 PUSH1 0x12 SWAP1 POP SWAP1 JUMP JUMPDEST PUSH2 0x95B PUSH2 0x1305 JUMP JUMPDEST PUSH20 0xFFFFFFFFFFFFFFFFFFFFFFFFFFFFFFFFFFFFFFFF AND DUP2 PUSH20 0xFFFFFFFFFFFFFFFFFFFFFFFFFFFFFFFFFFFFFFFF AND EQ PUSH2 0x9C8 JUMPI PUSH1 0x40 MLOAD PUSH32 0x8C379A000000000000000000000000000000000000000000000000000000000 DUP2 MSTORE PUSH1 0x4 ADD PUSH2 0x9BF SWAP1 PUSH2 0x2835 JUMP JUMPDEST PUSH1 0x40 MLOAD DUP1 SWAP2 SUB SWAP1 REVERT JUMPDEST PUSH2 0x9D2 DUP3 DUP3 PUSH2 0x1963 JUMP JUMPDEST POP POP JUMP JUMPDEST PUSH1 0x0 DUP1 PUSH2 0x9E1 PUSH2 0x1305 JUMP JUMPDEST SWAP1 POP PUSH2 0xA75 DUP2 DUP6 DUP6 PUSH1 0x1 PUSH1 0x0 DUP7 PUSH20 0xFFFFFFFFFFFFFFFFFFFFFFFFFFFFFFFFFFFFFFFF AND PUSH20 0xFFFFFFFFFFFFFFFFFFFFFFFFFFFFFFFFFFFFFFFF AND DUP2 MSTORE PUSH1 0x20 ADD SWAP1 DUP2 MSTORE PUSH1 0x20 ADD PUSH1 0x0 KECCAK256 PUSH1 0x0 DUP10 PUSH20 0xFFFFFFFFFFFFFFFFFFFFFFFFFFFFFFFFFFFFFFFF AND PUSH20 0xFFFFFFFFFFFFFFFFFFFFFFFFFFFFFFFFFFFFFFFF AND DUP2 MSTORE PUSH1 0x20 ADD SWAP1 DUP2 MSTORE PUSH1 0x20 ADD PUSH1 0x0 KECCAK256 SLOAD PUSH2 0xA70 SWAP2 SWAP1 PUSH2 0x28D2 JUMP JUMPDEST PUSH2 0x130D JUMP JUMPDEST PUSH1 0x1 SWAP2 POP POP SWAP3 SWAP2 POP POP JUMP JUMPDEST PUSH1 0x0 PUSH1 0x6 PUSH1 0x0 DUP4 PUSH20 0xFFFFFFFFFFFFFFFFFFFFFFFFFFFFFFFFFFFFFFFF AND PUSH20 0xFFFFFFFFFFFFFFFFFFFFFFFFFFFFFFFFFFFFFFFF AND DUP2 MSTORE PUSH1 0x20 ADD SWAP1 DUP2 MSTORE PUSH1 0x20 ADD PUSH1 0x0 KECCAK256 SLOAD SWAP1 POP SWAP2 SWAP1 POP JUMP JUMPDEST PUSH2 0xAF3 PUSH32 0x9F2DF0FED2C77648DE5860A4CC508CD0818C85B8B8A1AB4CEEEF8D981C8956A6 CALLER PUSH2 0xEDE JUMP JUMPDEST PUSH2 0xB32 JUMPI PUSH1 0x40 MLOAD PUSH32 0x8C379A000000000000000000000000000000000000000000000000000000000 DUP2 MSTORE PUSH1 0x4 ADD PUSH2 0xB29 SWAP1 PUSH2 0x2735 JUMP JUMPDEST PUSH1 0x40 MLOAD DUP1 SWAP2 SUB SWAP1 REVERT JUMPDEST PUSH2 0xB3C DUP3 DUP3 PUSH2 0x1A45 JUMP JUMPDEST POP POP JUMP JUMPDEST PUSH1 0x0 PUSH1 0x6 PUSH1 0x0 CALLER PUSH20 0xFFFFFFFFFFFFFFFFFFFFFFFFFFFFFFFFFFFFFFFF AND PUSH20 0xFFFFFFFFFFFFFFFFFFFFFFFFFFFFFFFFFFFFFFFF AND DUP2 MSTORE PUSH1 0x20 ADD SWAP1 DUP2 MSTORE PUSH1 0x20 ADD PUSH1 0x0 KECCAK256 SLOAD SWAP1 POP PUSH1 0x0 DUP2 GT PUSH2 0xBC7 JUMPI PUSH1 0x40 MLOAD PUSH32 0x8C379A000000000000000000000000000000000000000000000000000000000 DUP2 MSTORE PUSH1 0x4 ADD PUSH2 0xBBE SWAP1 PUSH2 0x2715 JUMP JUMPDEST PUSH1 0x40 MLOAD DUP1 SWAP2 SUB SWAP1 REVERT JUMPDEST DUP1 PUSH1 0x7 PUSH1 0x0 CALLER PUSH20 0xFFFFFFFFFFFFFFFFFFFFFFFFFFFFFFFFFFFFFFFF AND PUSH20 0xFFFFFFFFFFFFFFFFFFFFFFFFFFFFFFFFFFFFFFFF AND DUP2 MSTORE PUSH1 0x20 ADD SWAP1 DUP2 MSTORE PUSH1 0x20 ADD PUSH1 0x0 KECCAK256 PUSH1 0x0 DUP3 DUP3 SLOAD PUSH2 0xC16 SWAP2 SWAP1 PUSH2 0x28D2 JUMP JUMPDEST SWAP3 POP POP DUP2 SWAP1 SSTORE POP PUSH1 0x0 PUSH1 0x6 PUSH1 0x0 CALLER PUSH20 0xFFFFFFFFFFFFFFFFFFFFFFFFFFFFFFFFFFFFFFFF AND PUSH20 0xFFFFFFFFFFFFFFFFFFFFFFFFFFFFFFFFFFFFFFFF AND DUP2 MSTORE PUSH1 0x20 ADD SWAP1 DUP2 MSTORE PUSH1 0x20 ADD PUSH1 0x0 KECCAK256 DUP2 SWAP1 SSTORE POP ADDRESS PUSH20 0xFFFFFFFFFFFFFFFFFFFFFFFFFFFFFFFFFFFFFFFF AND PUSH4 0xA9059CBB CALLER PUSH8 0xDE0B6B3A7640000 DUP5 PUSH2 0xC93 SWAP2 SWAP1 PUSH2 0x2928 JUMP JUMPDEST PUSH1 0x40 MLOAD DUP4 PUSH4 0xFFFFFFFF AND PUSH1 0xE0 SHL DUP2 MSTORE PUSH1 0x4 ADD PUSH2 0xCB0 SWAP3 SWAP2 SWAP1 PUSH2 0x25D4 JUMP JUMPDEST PUSH1 0x20 PUSH1 0x40 MLOAD DUP1 DUP4 SUB DUP2 PUSH1 0x0 DUP8 DUP1 EXTCODESIZE ISZERO DUP1 ISZERO PUSH2 0xCCA JUMPI PUSH1 0x0 DUP1 REVERT JUMPDEST POP GAS CALL ISZERO DUP1 ISZERO PUSH2 0xCDE JUMPI RETURNDATASIZE PUSH1 0x0 DUP1 RETURNDATACOPY RETURNDATASIZE PUSH1 0x0 REVERT JUMPDEST POP POP POP POP PUSH1 0x40 MLOAD RETURNDATASIZE PUSH1 0x1F NOT PUSH1 0x1F DUP3 ADD AND DUP3 ADD DUP1 PUSH1 0x40 MSTORE POP DUP2 ADD SWAP1 PUSH2 0xD02 SWAP2 SWAP1 PUSH2 0x2185 JUMP JUMPDEST POP POP JUMP JUMPDEST PUSH1 0x6 PUSH1 0x20 MSTORE DUP1 PUSH1 0x0 MSTORE PUSH1 0x40 PUSH1 0x0 KECCAK256 PUSH1 0x0 SWAP2 POP SWAP1 POP SLOAD DUP2 JUMP JUMPDEST PUSH1 0x0 DUP1 PUSH1 0x0 DUP4 PUSH20 0xFFFFFFFFFFFFFFFFFFFFFFFFFFFFFFFFFFFFFFFF AND PUSH20 0xFFFFFFFFFFFFFFFFFFFFFFFFFFFFFFFFFFFFFFFF AND DUP2 MSTORE PUSH1 0x20 ADD SWAP1 DUP2 MSTORE PUSH1 0x20 ADD PUSH1 0x0 KECCAK256 SLOAD SWAP1 POP SWAP2 SWAP1 POP JUMP JUMPDEST PUSH32 0xBEEC13769B5F410B0584F69811BFD923818456D5EDCF426B0E31CF90EED7A3F6 DUP2 JUMP JUMPDEST PUSH2 0xDB4 PUSH32 0xBEEC13769B5F410B0584F69811BFD923818456D5EDCF426B0E31CF90EED7A3F6 CALLER PUSH2 0xEDE JUMP JUMPDEST PUSH2 0xDF3 JUMPI PUSH1 0x40 MLOAD PUSH32 0x8C379A000000000000000000000000000000000000000000000000000000000 DUP2 MSTORE PUSH1 0x4 ADD PUSH2 0xDEA SWAP1 PUSH2 0x27B5 JUMP JUMPDEST PUSH1 0x40 MLOAD DUP1 SWAP2 SUB SWAP1 REVERT JUMPDEST PUSH1 0x0 PUSH1 0x6 PUSH1 0x0 DUP5 PUSH20 0xFFFFFFFFFFFFFFFFFFFFFFFFFFFFFFFFFFFFFFFF AND PUSH20 0xFFFFFFFFFFFFFFFFFFFFFFFFFFFFFFFFFFFFFFFF AND DUP2 MSTORE PUSH1 0x20 ADD SWAP1 DUP2 MSTORE PUSH1 0x20 ADD PUSH1 0x0 KECCAK256 SLOAD PUSH1 0x7 PUSH1 0x0 DUP6 PUSH20 0xFFFFFFFFFFFFFFFFFFFFFFFFFFFFFFFFFFFFFFFF AND PUSH20 0xFFFFFFFFFFFFFFFFFFFFFFFFFFFFFFFFFFFFFFFF AND DUP2 MSTORE PUSH1 0x20 ADD SWAP1 DUP2 MSTORE PUSH1 0x20 ADD PUSH1 0x0 KECCAK256 SLOAD DUP4 PUSH2 0xE80 SWAP2 SWAP1 PUSH2 0x2982 JUMP JUMPDEST PUSH2 0xE8A SWAP2 SWAP1 PUSH2 0x2982 JUMP JUMPDEST SWAP1 POP PUSH1 0x0 DUP2 GT PUSH2 0xECF JUMPI PUSH1 0x40 MLOAD PUSH32 0x8C379A000000000000000000000000000000000000000000000000000000000 DUP2 MSTORE PUSH1 0x4 ADD PUSH2 0xEC6 SWAP1 PUSH2 0x27F5 JUMP JUMPDEST PUSH1 0x40 MLOAD DUP1 SWAP2 SUB SWAP1 REVERT JUMPDEST PUSH2 0xED9 DUP4 DUP3 PUSH2 0x1BA5 JUMP JUMPDEST POP POP POP JUMP JUMPDEST PUSH1 0x0 PUSH1 0x5 PUSH1 0x0 DUP5 DUP2 MSTORE PUSH1 0x20 ADD SWAP1 DUP2 MSTORE PUSH1 0x20 ADD PUSH1 0x0 KECCAK256 PUSH1 0x0 ADD PUSH1 0x0 DUP4 PUSH20 0xFFFFFFFFFFFFFFFFFFFFFFFFFFFFFFFFFFFFFFFF AND PUSH20 0xFFFFFFFFFFFFFFFFFFFFFFFFFFFFFFFFFFFFFFFF AND DUP2 MSTORE PUSH1 0x20 ADD SWAP1 DUP2 MSTORE PUSH1 0x20 ADD PUSH1 0x0 KECCAK256 PUSH1 0x0 SWAP1 SLOAD SWAP1 PUSH2 0x100 EXP SWAP1 DIV PUSH1 0xFF AND SWAP1 POP SWAP3 SWAP2 POP POP JUMP JUMPDEST PUSH1 0x60 PUSH1 0x4 DUP1 SLOAD PUSH2 0xF58 SWAP1 PUSH2 0x2A9E JUMP JUMPDEST DUP1 PUSH1 0x1F ADD PUSH1 0x20 DUP1 SWAP2 DIV MUL PUSH1 0x20 ADD PUSH1 0x40 MLOAD SWAP1 DUP2 ADD PUSH1 0x40 MSTORE DUP1 SWAP3 SWAP2 SWAP1 DUP2 DUP2 MSTORE PUSH1 0x20 ADD DUP3 DUP1 SLOAD PUSH2 0xF84 SWAP1 PUSH2 0x2A9E JUMP JUMPDEST DUP1 ISZERO PUSH2 0xFD1 JUMPI DUP1 PUSH1 0x1F LT PUSH2 0xFA6 JUMPI PUSH2 0x100 DUP1 DUP4 SLOAD DIV MUL DUP4 MSTORE SWAP2 PUSH1 0x20 ADD SWAP2 PUSH2 0xFD1 JUMP JUMPDEST DUP3 ADD SWAP2 SWAP1 PUSH1 0x0 MSTORE PUSH1 0x20 PUSH1 0x0 KECCAK256 SWAP1 JUMPDEST DUP2 SLOAD DUP2 MSTORE SWAP1 PUSH1 0x1 ADD SWAP1 PUSH1 0x20 ADD DUP1 DUP4 GT PUSH2 0xFB4 JUMPI DUP3 SWAP1 SUB PUSH1 0x1F AND DUP3 ADD SWAP2 JUMPDEST POP POP POP POP POP SWAP1 POP SWAP1 JUMP JUMPDEST PUSH2 0x1005 PUSH32 0x3C11D16CBAFFD01DF69CE1C404F6340EE057498F5F00246190EA54220576A848 CALLER PUSH2 0xEDE JUMP JUMPDEST PUSH2 0x1044 JUMPI PUSH1 0x40 MLOAD PUSH32 0x8C379A000000000000000000000000000000000000000000000000000000000 DUP2 MSTORE PUSH1 0x4 ADD PUSH2 0x103B SWAP1 PUSH2 0x2755 JUMP JUMPDEST PUSH1 0x40 MLOAD DUP1 SWAP2 SUB SWAP1 REVERT JUMPDEST PUSH2 0x104E DUP3 DUP3 PUSH2 0x1BFF JUMP JUMPDEST POP POP JUMP JUMPDEST PUSH1 0x0 DUP1 SHL DUP2 JUMP JUMPDEST PUSH1 0x0 DUP1 PUSH2 0x1064 PUSH2 0x1305 JUMP JUMPDEST SWAP1 POP PUSH1 0x0 PUSH1 0x1 PUSH1 0x0 DUP4 PUSH20 0xFFFFFFFFFFFFFFFFFFFFFFFFFFFFFFFFFFFFFFFF AND PUSH20 0xFFFFFFFFFFFFFFFFFFFFFFFFFFFFFFFFFFFFFFFF AND DUP2 MSTORE PUSH1 0x20 ADD SWAP1 DUP2 MSTORE PUSH1 0x20 ADD PUSH1 0x0 KECCAK256 PUSH1 0x0 DUP7 PUSH20 0xFFFFFFFFFFFFFFFFFFFFFFFFFFFFFFFFFFFFFFFF AND PUSH20 0xFFFFFFFFFFFFFFFFFFFFFFFFFFFFFFFFFFFFFFFF AND DUP2 MSTORE PUSH1 0x20 ADD SWAP1 DUP2 MSTORE PUSH1 0x20 ADD PUSH1 0x0 KECCAK256 SLOAD SWAP1 POP DUP4 DUP2 LT ISZERO PUSH2 0x112A JUMPI PUSH1 0x40 MLOAD PUSH32 0x8C379A000000000000000000000000000000000000000000000000000000000 DUP2 MSTORE PUSH1 0x4 ADD PUSH2 0x1121 SWAP1 PUSH2 0x2815 JUMP JUMPDEST PUSH1 0x40 MLOAD DUP1 SWAP2 SUB SWAP1 REVERT JUMPDEST PUSH2 0x1137 DUP3 DUP7 DUP7 DUP5 SUB PUSH2 0x130D JUMP JUMPDEST PUSH1 0x1 SWAP3 POP POP POP SWAP3 SWAP2 POP POP JUMP JUMPDEST PUSH1 0x0 DUP1 PUSH2 0x114E PUSH2 0x1305 JUMP JUMPDEST SWAP1 POP PUSH2 0x115B DUP2 DUP6 DUP6 PUSH2 0x1564 JUMP JUMPDEST PUSH1 0x1 SWAP2 POP POP SWAP3 SWAP2 POP POP JUMP JUMPDEST PUSH1 0x7 PUSH1 0x20 MSTORE DUP1 PUSH1 0x0 MSTORE PUSH1 0x40 PUSH1 0x0 KECCAK256 PUSH1 0x0 SWAP2 POP SWAP1 POP SLOAD DUP2 JUMP JUMPDEST PUSH32 0x9F2DF0FED2C77648DE5860A4CC508CD0818C85B8B8A1AB4CEEEF8D981C8956A6 DUP2 JUMP JUMPDEST PUSH2 0x11AB DUP3 PUSH2 0x8DD JUMP JUMPDEST PUSH2 0x11BC DUP2 PUSH2 0x11B7 PUSH2 0x1305 JUMP JUMPDEST PUSH2 0x17E5 JUMP JUMPDEST PUSH2 0x11C6 DUP4 DUP4 PUSH2 0x1963 JUMP JUMPDEST POP POP POP JUMP JUMPDEST PUSH1 0x0 PUSH1 0x1 PUSH1 0x0 DUP5 PUSH20 0xFFFFFFFFFFFFFFFFFFFFFFFFFFFFFFFFFFFFFFFF AND PUSH20 0xFFFFFFFFFFFFFFFFFFFFFFFFFFFFFFFFFFFFFFFF AND DUP2 MSTORE PUSH1 0x20 ADD SWAP1 DUP2 MSTORE PUSH1 0x20 ADD PUSH1 0x0 KECCAK256 PUSH1 0x0 DUP4 PUSH20 0xFFFFFFFFFFFFFFFFFFFFFFFFFFFFFFFFFFFFFFFF AND PUSH20 0xFFFFFFFFFFFFFFFFFFFFFFFFFFFFFFFFFFFFFFFF AND DUP2 MSTORE PUSH1 0x20 ADD SWAP1 DUP2 MSTORE PUSH1 0x20 ADD PUSH1 0x0 KECCAK256 SLOAD SWAP1 POP SWAP3 SWAP2 POP POP JUMP JUMPDEST PUSH1 0x0 PUSH1 0x7 PUSH1 0x0 DUP4 PUSH20 0xFFFFFFFFFFFFFFFFFFFFFFFFFFFFFFFFFFFFFFFF AND PUSH20 0xFFFFFFFFFFFFFFFFFFFFFFFFFFFFFFFFFFFFFFFF AND DUP2 MSTORE PUSH1 0x20 ADD SWAP1 DUP2 MSTORE PUSH1 0x20 ADD PUSH1 0x0 KECCAK256 SLOAD SWAP1 POP SWAP2 SWAP1 POP JUMP JUMPDEST PUSH1 0x0 PUSH32 0x1FFC9A700000000000000000000000000000000000000000000000000000000 PUSH28 0xFFFFFFFFFFFFFFFFFFFFFFFFFFFFFFFFFFFFFFFFFFFFFFFFFFFFFFFF NOT AND DUP3 PUSH28 0xFFFFFFFFFFFFFFFFFFFFFFFFFFFFFFFFFFFFFFFFFFFFFFFFFFFFFFFF NOT AND EQ SWAP1 POP SWAP2 SWAP1 POP JUMP JUMPDEST PUSH1 0x0 CALLER SWAP1 POP SWAP1 JUMP JUMPDEST PUSH1 0x0 PUSH20 0xFFFFFFFFFFFFFFFFFFFFFFFFFFFFFFFFFFFFFFFF AND DUP4 PUSH20 0xFFFFFFFFFFFFFFFFFFFFFFFFFFFFFFFFFFFFFFFF AND EQ ISZERO PUSH2 0x137D JUMPI PUSH1 0x40 MLOAD PUSH32 0x8C379A000000000000000000000000000000000000000000000000000000000 DUP2 MSTORE PUSH1 0x4 ADD PUSH2 0x1374 SWAP1 PUSH2 0x27D5 JUMP JUMPDEST PUSH1 0x40 MLOAD DUP1 SWAP2 SUB SWAP1 REVERT JUMPDEST PUSH1 0x0 PUSH20 0xFFFFFFFFFFFFFFFFFFFFFFFFFFFFFFFFFFFFFFFF AND DUP3 PUSH20 0xFFFFFFFFFFFFFFFFFFFFFFFFFFFFFFFFFFFFFFFF AND EQ ISZERO PUSH2 0x13ED JUMPI PUSH1 0x40 MLOAD PUSH32 0x8C379A000000000000000000000000000000000000000000000000000000000 DUP2 MSTORE PUSH1 0x4 ADD PUSH2 0x13E4 SWAP1 PUSH2 0x26B5 JUMP JUMPDEST PUSH1 0x40 MLOAD DUP1 SWAP2 SUB SWAP1 REVERT JUMPDEST DUP1 PUSH1 0x1 PUSH1 0x0 DUP6 PUSH20 0xFFFFFFFFFFFFFFFFFFFFFFFFFFFFFFFFFFFFFFFF AND PUSH20 0xFFFFFFFFFFFFFFFFFFFFFFFFFFFFFFFFFFFFFFFF AND DUP2 MSTORE PUSH1 0x20 ADD SWAP1 DUP2 MSTORE PUSH1 0x20 ADD PUSH1 0x0 KECCAK256 PUSH1 0x0 DUP5 PUSH20 0xFFFFFFFFFFFFFFFFFFFFFFFFFFFFFFFFFFFFFFFF AND PUSH20 0xFFFFFFFFFFFFFFFFFFFFFFFFFFFFFFFFFFFFFFFF AND DUP2 MSTORE PUSH1 0x20 ADD SWAP1 DUP2 MSTORE PUSH1 0x20 ADD PUSH1 0x0 KECCAK256 DUP2 SWAP1 SSTORE POP DUP2 PUSH20 0xFFFFFFFFFFFFFFFFFFFFFFFFFFFFFFFFFFFFFFFF AND DUP4 PUSH20 0xFFFFFFFFFFFFFFFFFFFFFFFFFFFFFFFFFFFFFFFF AND PUSH32 0x8C5BE1E5EBEC7D5BD14F71427D1E84F3DD0314C0F7B2291E5B200AC8C7C3B925 DUP4 PUSH1 0x40 MLOAD PUSH2 0x14CB SWAP2 SWAP1 PUSH2 0x2875 JUMP JUMPDEST PUSH1 0x40 MLOAD DUP1 SWAP2 SUB SWAP1 LOG3 POP POP POP JUMP JUMPDEST PUSH1 0x0 PUSH2 0x14E4 DUP5 DUP5 PUSH2 0x11CB JUMP JUMPDEST SWAP1 POP PUSH32 0xFFFFFFFFFFFFFFFFFFFFFFFFFFFFFFFFFFFFFFFFFFFFFFFFFFFFFFFFFFFFFFFF DUP2 EQ PUSH2 0x155E JUMPI DUP2 DUP2 LT ISZERO PUSH2 0x1550 JUMPI PUSH1 0x40 MLOAD PUSH32 0x8C379A000000000000000000000000000000000000000000000000000000000 DUP2 MSTORE PUSH1 0x4 ADD PUSH2 0x1547 SWAP1 PUSH2 0x26D5 JUMP JUMPDEST PUSH1 0x40 MLOAD DUP1 SWAP2 SUB SWAP1 REVERT JUMPDEST PUSH2 0x155D DUP5 DUP5 DUP5 DUP5 SUB PUSH2 0x130D JUMP JUMPDEST JUMPDEST POP POP POP POP JUMP JUMPDEST PUSH1 0x0 PUSH20 0xFFFFFFFFFFFFFFFFFFFFFFFFFFFFFFFFFFFFFFFF AND DUP4 PUSH20 0xFFFFFFFFFFFFFFFFFFFFFFFFFFFFFFFFFFFFFFFF AND EQ ISZERO PUSH2 0x15D4 JUMPI PUSH1 0x40 MLOAD PUSH32 0x8C379A000000000000000000000000000000000000000000000000000000000 DUP2 MSTORE PUSH1 0x4 ADD PUSH2 0x15CB SWAP1 PUSH2 0x2795 JUMP JUMPDEST PUSH1 0x40 MLOAD DUP1 SWAP2 SUB SWAP1 REVERT JUMPDEST PUSH1 0x0 PUSH20 0xFFFFFFFFFFFFFFFFFFFFFFFFFFFFFFFFFFFFFFFF AND DUP3 PUSH20 0xFFFFFFFFFFFFFFFFFFFFFFFFFFFFFFFFFFFFFFFF AND EQ ISZERO PUSH2 0x1644 JUMPI PUSH1 0x40 MLOAD PUSH32 0x8C379A000000000000000000000000000000000000000000000000000000000 DUP2 MSTORE PUSH1 0x4 ADD PUSH2 0x163B SWAP1 PUSH2 0x2675 JUMP JUMPDEST PUSH1 0x40 MLOAD DUP1 SWAP2 SUB SWAP1 REVERT JUMPDEST PUSH2 0x164F DUP4 DUP4 DUP4 PUSH2 0x1DD6 JUMP JUMPDEST PUSH1 0x0 DUP1 PUSH1 0x0 DUP6 PUSH20 0xFFFFFFFFFFFFFFFFFFFFFFFFFFFFFFFFFFFFFFFF AND PUSH20 0xFFFFFFFFFFFFFFFFFFFFFFFFFFFFFFFFFFFFFFFF AND DUP2 MSTORE PUSH1 0x20 ADD SWAP1 DUP2 MSTORE PUSH1 0x20 ADD PUSH1 0x0 KECCAK256 SLOAD SWAP1 POP DUP2 DUP2 LT ISZERO PUSH2 0x16D5 JUMPI PUSH1 0x40 MLOAD PUSH32 0x8C379A000000000000000000000000000000000000000000000000000000000 DUP2 MSTORE PUSH1 0x4 ADD PUSH2 0x16CC SWAP1 PUSH2 0x26F5 JUMP JUMPDEST PUSH1 0x40 MLOAD DUP1 SWAP2 SUB SWAP1 REVERT JUMPDEST DUP2 DUP2 SUB PUSH1 0x0 DUP1 DUP7 PUSH20 0xFFFFFFFFFFFFFFFFFFFFFFFFFFFFFFFFFFFFFFFF AND PUSH20 0xFFFFFFFFFFFFFFFFFFFFFFFFFFFFFFFFFFFFFFFF AND DUP2 MSTORE PUSH1 0x20 ADD SWAP1 DUP2 MSTORE PUSH1 0x20 ADD PUSH1 0x0 KECCAK256 DUP2 SWAP1 SSTORE POP DUP2 PUSH1 0x0 DUP1 DUP6 PUSH20 0xFFFFFFFFFFFFFFFFFFFFFFFFFFFFFFFFFFFFFFFF AND PUSH20 0xFFFFFFFFFFFFFFFFFFFFFFFFFFFFFFFFFFFFFFFF AND DUP2 MSTORE PUSH1 0x20 ADD SWAP1 DUP2 MSTORE PUSH1 0x20 ADD PUSH1 0x0 KECCAK256 PUSH1 0x0 DUP3 DUP3 SLOAD PUSH2 0x1768 SWAP2 SWAP1 PUSH2 0x28D2 JUMP JUMPDEST SWAP3 POP POP DUP2 SWAP1 SSTORE POP DUP3 PUSH20 0xFFFFFFFFFFFFFFFFFFFFFFFFFFFFFFFFFFFFFFFF AND DUP5 PUSH20 0xFFFFFFFFFFFFFFFFFFFFFFFFFFFFFFFFFFFFFFFF AND PUSH32 0xDDF252AD1BE2C89B69C2B068FC378DAA952BA7F163C4A11628F55A4DF523B3EF DUP5 PUSH1 0x40 MLOAD PUSH2 0x17CC SWAP2 SWAP1 PUSH2 0x2875 JUMP JUMPDEST PUSH1 0x40 MLOAD DUP1 SWAP2 SUB SWAP1 LOG3 PUSH2 0x17DF DUP5 DUP5 DUP5 PUSH2 0x1DDB JUMP JUMPDEST POP POP POP POP JUMP JUMPDEST PUSH2 0x17EF DUP3 DUP3 PUSH2 0xEDE JUMP JUMPDEST PUSH2 0x187E JUMPI PUSH2 0x1814 DUP2 PUSH20 0xFFFFFFFFFFFFFFFFFFFFFFFFFFFFFFFFFFFFFFFF AND PUSH1 0x14 PUSH2 0x1DE0 JUMP JUMPDEST PUSH2 0x1822 DUP4 PUSH1 0x0 SHR PUSH1 0x20 PUSH2 0x1DE0 JUMP JUMPDEST PUSH1 0x40 MLOAD PUSH1 0x20 ADD PUSH2 0x1833 SWAP3 SWAP2 SWAP1 PUSH2 0x259A JUMP JUMPDEST PUSH1 0x40 MLOAD PUSH1 0x20 DUP2 DUP4 SUB SUB DUP2 MSTORE SWAP1 PUSH1 0x40 MSTORE PUSH1 0x40 MLOAD PUSH32 0x8C379A000000000000000000000000000000000000000000000000000000000 DUP2 MSTORE PUSH1 0x4 ADD PUSH2 0x1875 SWAP2 SWAP1 PUSH2 0x2633 JUMP JUMPDEST PUSH1 0x40 MLOAD DUP1 SWAP2 SUB SWAP1 REVERT JUMPDEST POP POP JUMP JUMPDEST PUSH2 0x188C DUP3 DUP3 PUSH2 0xEDE JUMP JUMPDEST PUSH2 0x195F JUMPI PUSH1 0x1 PUSH1 0x5 PUSH1 0x0 DUP5 DUP2 MSTORE PUSH1 0x20 ADD SWAP1 DUP2 MSTORE PUSH1 0x20 ADD PUSH1 0x0 KECCAK256 PUSH1 0x0 ADD PUSH1 0x0 DUP4 PUSH20 0xFFFFFFFFFFFFFFFFFFFFFFFFFFFFFFFFFFFFFFFF AND PUSH20 0xFFFFFFFFFFFFFFFFFFFFFFFFFFFFFFFFFFFFFFFF AND DUP2 MSTORE PUSH1 0x20 ADD SWAP1 DUP2 MSTORE PUSH1 0x20 ADD PUSH1 0x0 KECCAK256 PUSH1 0x0 PUSH2 0x100 EXP DUP2 SLOAD DUP2 PUSH1 0xFF MUL NOT AND SWAP1 DUP4 ISZERO ISZERO MUL OR SWAP1 SSTORE POP PUSH2 0x1904 PUSH2 0x1305 JUMP JUMPDEST PUSH20 0xFFFFFFFFFFFFFFFFFFFFFFFFFFFFFFFFFFFFFFFF AND DUP2 PUSH20 0xFFFFFFFFFFFFFFFFFFFFFFFFFFFFFFFFFFFFFFFF AND DUP4 PUSH32 0x2F8788117E7EFF1D82E926EC794901D17C78024A50270940304540A733656F0D PUSH1 0x40 MLOAD PUSH1 0x40 MLOAD DUP1 SWAP2 SUB SWAP1 LOG4 JUMPDEST POP POP JUMP JUMPDEST PUSH2 0x196D DUP3 DUP3 PUSH2 0xEDE JUMP JUMPDEST ISZERO PUSH2 0x1A41 JUMPI PUSH1 0x0 PUSH1 0x5 PUSH1 0x0 DUP5 DUP2 MSTORE PUSH1 0x20 ADD SWAP1 DUP2 MSTORE PUSH1 0x20 ADD PUSH1 0x0 KECCAK256 PUSH1 0x0 ADD PUSH1 0x0 DUP4 PUSH20 0xFFFFFFFFFFFFFFFFFFFFFFFFFFFFFFFFFFFFFFFF AND PUSH20 0xFFFFFFFFFFFFFFFFFFFFFFFFFFFFFFFFFFFFFFFF AND DUP2 MSTORE PUSH1 0x20 ADD SWAP1 DUP2 MSTORE PUSH1 0x20 ADD PUSH1 0x0 KECCAK256 PUSH1 0x0 PUSH2 0x100 EXP DUP2 SLOAD DUP2 PUSH1 0xFF MUL NOT AND SWAP1 DUP4 ISZERO ISZERO MUL OR SWAP1 SSTORE POP PUSH2 0x19E6 PUSH2 0x1305 JUMP JUMPDEST PUSH20 0xFFFFFFFFFFFFFFFFFFFFFFFFFFFFFFFFFFFFFFFF AND DUP2 PUSH20 0xFFFFFFFFFFFFFFFFFFFFFFFFFFFFFFFFFFFFFFFF AND DUP4 PUSH32 0xF6391F5C32D9C69D2A47EA670B442974B53935D1EDC7FD64EB21E047A839171B PUSH1 0x40 MLOAD PUSH1 0x40 MLOAD DUP1 SWAP2 SUB SWAP1 LOG4 JUMPDEST POP POP JUMP JUMPDEST PUSH1 0x0 PUSH20 0xFFFFFFFFFFFFFFFFFFFFFFFFFFFFFFFFFFFFFFFF AND DUP3 PUSH20 0xFFFFFFFFFFFFFFFFFFFFFFFFFFFFFFFFFFFFFFFF AND EQ ISZERO PUSH2 0x1AB5 JUMPI PUSH1 0x40 MLOAD PUSH32 0x8C379A000000000000000000000000000000000000000000000000000000000 DUP2 MSTORE PUSH1 0x4 ADD PUSH2 0x1AAC SWAP1 PUSH2 0x2855 JUMP JUMPDEST PUSH1 0x40 MLOAD DUP1 SWAP2 SUB SWAP1 REVERT JUMPDEST PUSH2 0x1AC1 PUSH1 0x0 DUP4 DUP4 PUSH2 0x1DD6 JUMP JUMPDEST DUP1 PUSH1 0x2 PUSH1 0x0 DUP3 DUP3 SLOAD PUSH2 0x1AD3 SWAP2 SWAP1 PUSH2 0x28D2 JUMP JUMPDEST SWAP3 POP POP DUP2 SWAP1 SSTORE POP DUP1 PUSH1 0x0 DUP1 DUP5 PUSH20 0xFFFFFFFFFFFFFFFFFFFFFFFFFFFFFFFFFFFFFFFF AND PUSH20 0xFFFFFFFFFFFFFFFFFFFFFFFFFFFFFFFFFFFFFFFF AND DUP2 MSTORE PUSH1 0x20 ADD SWAP1 DUP2 MSTORE PUSH1 0x20 ADD PUSH1 0x0 KECCAK256 PUSH1 0x0 DUP3 DUP3 SLOAD PUSH2 0x1B28 SWAP2 SWAP1 PUSH2 0x28D2 JUMP JUMPDEST SWAP3 POP POP DUP2 SWAP1 SSTORE POP DUP2 PUSH20 0xFFFFFFFFFFFFFFFFFFFFFFFFFFFFFFFFFFFFFFFF AND PUSH1 0x0 PUSH20 0xFFFFFFFFFFFFFFFFFFFFFFFFFFFFFFFFFFFFFFFF AND PUSH32 0xDDF252AD1BE2C89B69C2B068FC378DAA952BA7F163C4A11628F55A4DF523B3EF DUP4 PUSH1 0x40 MLOAD PUSH2 0x1B8D SWAP2 SWAP1 PUSH2 0x2875 JUMP JUMPDEST PUSH1 0x40 MLOAD DUP1 SWAP2 SUB SWAP1 LOG3 PUSH2 0x1BA1 PUSH1 0x0 DUP4 DUP4 PUSH2 0x1DDB JUMP JUMPDEST POP POP JUMP JUMPDEST DUP1 PUSH1 0x6 PUSH1 0x0 DUP5 PUSH20 0xFFFFFFFFFFFFFFFFFFFFFFFFFFFFFFFFFFFFFFFF AND PUSH20 0xFFFFFFFFFFFFFFFFFFFFFFFFFFFFFFFFFFFFFFFF AND DUP2 MSTORE PUSH1 0x20 ADD SWAP1 DUP2 MSTORE PUSH1 0x20 ADD PUSH1 0x0 KECCAK256 PUSH1 0x0 DUP3 DUP3 SLOAD PUSH2 0x1BF4 SWAP2 SWAP1 PUSH2 0x28D2 JUMP JUMPDEST SWAP3 POP POP DUP2 SWAP1 SSTORE POP POP POP JUMP JUMPDEST PUSH1 0x0 PUSH20 0xFFFFFFFFFFFFFFFFFFFFFFFFFFFFFFFFFFFFFFFF AND DUP3 PUSH20 0xFFFFFFFFFFFFFFFFFFFFFFFFFFFFFFFFFFFFFFFF AND EQ ISZERO PUSH2 0x1C6F JUMPI PUSH1 0x40 MLOAD PUSH32 0x8C379A000000000000000000000000000000000000000000000000000000000 DUP2 MSTORE PUSH1 0x4 ADD PUSH2 0x1C66 SWAP1 PUSH2 0x2775 JUMP JUMPDEST PUSH1 0x40 MLOAD DUP1 SWAP2 SUB SWAP1 REVERT JUMPDEST PUSH2 0x1C7B DUP3 PUSH1 0x0 DUP4 PUSH2 0x1DD6 JUMP JUMPDEST PUSH1 0x0 DUP1 PUSH1 0x0 DUP5 PUSH20 0xFFFFFFFFFFFFFFFFFFFFFFFFFFFFFFFFFFFFFFFF AND PUSH20 0xFFFFFFFFFFFFFFFFFFFFFFFFFFFFFFFFFFFFFFFF AND DUP2 MSTORE PUSH1 0x20 ADD SWAP1 DUP2 MSTORE PUSH1 0x20 ADD PUSH1 0x0 KECCAK256 SLOAD SWAP1 POP DUP2 DUP2 LT ISZERO PUSH2 0x1D01 JUMPI PUSH1 0x40 MLOAD PUSH32 0x8C379A000000000000000000000000000000000000000000000000000000000 DUP2 MSTORE PUSH1 0x4 ADD PUSH2 0x1CF8 SWAP1 PUSH2 0x2695 JUMP JUMPDEST PUSH1 0x40 MLOAD DUP1 SWAP2 SUB SWAP1 REVERT JUMPDEST DUP2 DUP2 SUB PUSH1 0x0 DUP1 DUP6 PUSH20 0xFFFFFFFFFFFFFFFFFFFFFFFFFFFFFFFFFFFFFFFF AND PUSH20 0xFFFFFFFFFFFFFFFFFFFFFFFFFFFFFFFFFFFFFFFF AND DUP2 MSTORE PUSH1 0x20 ADD SWAP1 DUP2 MSTORE PUSH1 0x20 ADD PUSH1 0x0 KECCAK256 DUP2 SWAP1 SSTORE POP DUP2 PUSH1 0x2 PUSH1 0x0 DUP3 DUP3 SLOAD PUSH2 0x1D58 SWAP2 SWAP1 PUSH2 0x2982 JUMP JUMPDEST SWAP3 POP POP DUP2 SWAP1 SSTORE POP PUSH1 0x0 PUSH20 0xFFFFFFFFFFFFFFFFFFFFFFFFFFFFFFFFFFFFFFFF AND DUP4 PUSH20 0xFFFFFFFFFFFFFFFFFFFFFFFFFFFFFFFFFFFFFFFF AND PUSH32 0xDDF252AD1BE2C89B69C2B068FC378DAA952BA7F163C4A11628F55A4DF523B3EF DUP5 PUSH1 0x40 MLOAD PUSH2 0x1DBD SWAP2 SWAP1 PUSH2 0x2875 JUMP JUMPDEST PUSH1 0x40 MLOAD DUP1 SWAP2 SUB SWAP1 LOG3 PUSH2 0x1DD1 DUP4 PUSH1 0x0 DUP5 PUSH2 0x1DDB JUMP JUMPDEST POP POP POP JUMP JUMPDEST POP POP POP JUMP JUMPDEST POP POP POP JUMP JUMPDEST PUSH1 0x60 PUSH1 0x0 PUSH1 0x2 DUP4 PUSH1 0x2 PUSH2 0x1DF3 SWAP2 SWAP1 PUSH2 0x2928 JUMP JUMPDEST PUSH2 0x1DFD SWAP2 SWAP1 PUSH2 0x28D2 JUMP JUMPDEST PUSH8 0xFFFFFFFFFFFFFFFF DUP2 GT ISZERO PUSH2 0x1E16 JUMPI PUSH2 0x1E15 PUSH2 0x2B5D JUMP JUMPDEST JUMPDEST PUSH1 0x40 MLOAD SWAP1 DUP1 DUP3 MSTORE DUP1 PUSH1 0x1F ADD PUSH1 0x1F NOT AND PUSH1 0x20 ADD DUP3 ADD PUSH1 0x40 MSTORE DUP1 ISZERO PUSH2 0x1E48 JUMPI DUP2 PUSH1 0x20 ADD PUSH1 0x1 DUP3 MUL DUP1 CALLDATASIZE DUP4 CALLDATACOPY DUP1 DUP3 ADD SWAP2 POP POP SWAP1 POP JUMPDEST POP SWAP1 POP PUSH32 0x3000000000000000000000000000000000000000000000000000000000000000 DUP2 PUSH1 0x0 DUP2 MLOAD DUP2 LT PUSH2 0x1E80 JUMPI PUSH2 0x1E7F PUSH2 0x2B2E JUMP JUMPDEST JUMPDEST PUSH1 0x20 ADD ADD SWAP1 PUSH31 0xFFFFFFFFFFFFFFFFFFFFFFFFFFFFFFFFFFFFFFFFFFFFFFFFFFFFFFFFFFFFFF NOT AND SWAP1 DUP2 PUSH1 0x0 BYTE SWAP1 MSTORE8 POP PUSH32 0x7800000000000000000000000000000000000000000000000000000000000000 DUP2 PUSH1 0x1 DUP2 MLOAD DUP2 LT PUSH2 0x1EE4 JUMPI PUSH2 0x1EE3 PUSH2 0x2B2E JUMP JUMPDEST JUMPDEST PUSH1 0x20 ADD ADD SWAP1 PUSH31 0xFFFFFFFFFFFFFFFFFFFFFFFFFFFFFFFFFFFFFFFFFFFFFFFFFFFFFFFFFFFFFF NOT AND SWAP1 DUP2 PUSH1 0x0 BYTE SWAP1 MSTORE8 POP PUSH1 0x0 PUSH1 0x1 DUP5 PUSH1 0x2 PUSH2 0x1F24 SWAP2 SWAP1 PUSH2 0x2928 JUMP JUMPDEST PUSH2 0x1F2E SWAP2 SWAP1 PUSH2 0x28D2 JUMP JUMPDEST SWAP1 POP JUMPDEST PUSH1 0x1 DUP2 GT ISZERO PUSH2 0x1FCE JUMPI PUSH32 0x3031323334353637383961626364656600000000000000000000000000000000 PUSH1 0xF DUP7 AND PUSH1 0x10 DUP2 LT PUSH2 0x1F70 JUMPI PUSH2 0x1F6F PUSH2 0x2B2E JUMP JUMPDEST JUMPDEST BYTE PUSH1 0xF8 SHL DUP3 DUP3 DUP2 MLOAD DUP2 LT PUSH2 0x1F87 JUMPI PUSH2 0x1F86 PUSH2 0x2B2E JUMP JUMPDEST JUMPDEST PUSH1 0x20 ADD ADD SWAP1 PUSH31 0xFFFFFFFFFFFFFFFFFFFFFFFFFFFFFFFFFFFFFFFFFFFFFFFFFFFFFFFFFFFFFF NOT AND SWAP1 DUP2 PUSH1 0x0 BYTE SWAP1 MSTORE8 POP PUSH1 0x4 DUP6 SWAP1 SHR SWAP5 POP DUP1 PUSH2 0x1FC7 SWAP1 PUSH2 0x2A74 JUMP JUMPDEST SWAP1 POP PUSH2 0x1F31 JUMP JUMPDEST POP PUSH1 0x0 DUP5 EQ PUSH2 0x2012 JUMPI PUSH1 0x40 MLOAD PUSH32 0x8C379A000000000000000000000000000000000000000000000000000000000 DUP2 MSTORE PUSH1 0x4 ADD PUSH2 0x2009 SWAP1 PUSH2 0x2655 JUMP JUMPDEST PUSH1 0x40 MLOAD DUP1 SWAP2 SUB SWAP1 REVERT JUMPDEST DUP1 SWAP2 POP POP SWAP3 SWAP2 POP POP JUMP JUMPDEST PUSH1 0x0 DUP2 CALLDATALOAD SWAP1 POP PUSH2 0x202B DUP2 PUSH2 0x3029 JUMP JUMPDEST SWAP3 SWAP2 POP POP JUMP JUMPDEST PUSH1 0x0 DUP2 MLOAD SWAP1 POP PUSH2 0x2040 DUP2 PUSH2 0x3040 JUMP JUMPDEST SWAP3 SWAP2 POP POP JUMP JUMPDEST PUSH1 0x0 DUP2 CALLDATALOAD SWAP1 POP PUSH2 0x2055 DUP2 PUSH2 0x3057 JUMP JUMPDEST SWAP3 SWAP2 POP POP JUMP JUMPDEST PUSH1 0x0 DUP2 CALLDATALOAD SWAP1 POP PUSH2 0x206A DUP2 PUSH2 0x306E JUMP JUMPDEST SWAP3 SWAP2 POP POP JUMP JUMPDEST PUSH1 0x0 DUP2 CALLDATALOAD SWAP1 POP PUSH2 0x207F DUP2 PUSH2 0x3085 JUMP JUMPDEST SWAP3 SWAP2 POP POP JUMP JUMPDEST PUSH1 0x0 PUSH1 0x20 DUP3 DUP5 SUB SLT ISZERO PUSH2 0x209B JUMPI PUSH2 0x209A PUSH2 0x2B8C JUMP JUMPDEST JUMPDEST PUSH1 0x0 PUSH2 0x20A9 DUP5 DUP3 DUP6 ADD PUSH2 0x201C JUMP JUMPDEST SWAP2 POP POP SWAP3 SWAP2 POP POP JUMP JUMPDEST PUSH1 0x0 DUP1 PUSH1 0x40 DUP4 DUP6 SUB SLT ISZERO PUSH2 0x20C9 JUMPI PUSH2 0x20C8 PUSH2 0x2B8C JUMP JUMPDEST JUMPDEST PUSH1 0x0 PUSH2 0x20D7 DUP6 DUP3 DUP7 ADD PUSH2 0x201C JUMP JUMPDEST SWAP3 POP POP PUSH1 0x20 PUSH2 0x20E8 DUP6 DUP3 DUP7 ADD PUSH2 0x201C JUMP JUMPDEST SWAP2 POP POP SWAP3 POP SWAP3 SWAP1 POP JUMP JUMPDEST PUSH1 0x0 DUP1 PUSH1 0x0 PUSH1 0x60 DUP5 DUP7 SUB SLT ISZERO PUSH2 0x210B JUMPI PUSH2 0x210A PUSH2 0x2B8C JUMP JUMPDEST JUMPDEST PUSH1 0x0 PUSH2 0x2119 DUP7 DUP3 DUP8 ADD PUSH2 0x201C JUMP JUMPDEST SWAP4 POP POP PUSH1 0x20 PUSH2 0x212A DUP7 DUP3 DUP8 ADD PUSH2 0x201C JUMP JUMPDEST SWAP3 POP POP PUSH1 0x40 PUSH2 0x213B DUP7 DUP3 DUP8 ADD PUSH2 0x2070 JUMP JUMPDEST SWAP2 POP POP SWAP3 POP SWAP3 POP SWAP3 JUMP JUMPDEST PUSH1 0x0 DUP1 PUSH1 0x40 DUP4 DUP6 SUB SLT ISZERO PUSH2 0x215C JUMPI PUSH2 0x215B PUSH2 0x2B8C JUMP JUMPDEST JUMPDEST PUSH1 0x0 PUSH2 0x216A DUP6 DUP3 DUP7 ADD PUSH2 0x201C JUMP JUMPDEST SWAP3 POP POP PUSH1 0x20 PUSH2 0x217B DUP6 DUP3 DUP7 ADD PUSH2 0x2070 JUMP JUMPDEST SWAP2 POP POP SWAP3 POP SWAP3 SWAP1 POP JUMP JUMPDEST PUSH1 0x0 PUSH1 0x20 DUP3 DUP5 SUB SLT ISZERO PUSH2 0x219B JUMPI PUSH2 0x219A PUSH2 0x2B8C JUMP JUMPDEST JUMPDEST PUSH1 0x0 PUSH2 0x21A9 DUP5 DUP3 DUP6 ADD PUSH2 0x2031 JUMP JUMPDEST SWAP2 POP POP SWAP3 SWAP2 POP POP JUMP JUMPDEST PUSH1 0x0 PUSH1 0x20 DUP3 DUP5 SUB SLT ISZERO PUSH2 0x21C8 JUMPI PUSH2 0x21C7 PUSH2 0x2B8C JUMP JUMPDEST JUMPDEST PUSH1 0x0 PUSH2 0x21D6 DUP5 DUP3 DUP6 ADD PUSH2 0x2046 JUMP JUMPDEST SWAP2 POP POP SWAP3 SWAP2 POP POP JUMP JUMPDEST PUSH1 0x0 DUP1 PUSH1 0x40 DUP4 DUP6 SUB SLT ISZERO PUSH2 0x21F6 JUMPI PUSH2 0x21F5 PUSH2 0x2B8C JUMP JUMPDEST JUMPDEST PUSH1 0x0 PUSH2 0x2204 DUP6 DUP3 DUP7 ADD PUSH2 0x2046 JUMP JUMPDEST SWAP3 POP POP PUSH1 0x20 PUSH2 0x2215 DUP6 DUP3 DUP7 ADD PUSH2 0x201C JUMP JUMPDEST SWAP2 POP POP SWAP3 POP SWAP3 SWAP1 POP JUMP JUMPDEST PUSH1 0x0 PUSH1 0x20 DUP3 DUP5 SUB SLT ISZERO PUSH2 0x2235 JUMPI PUSH2 0x2234 PUSH2 0x2B8C JUMP JUMPDEST JUMPDEST PUSH1 0x0 PUSH2 0x2243 DUP5 DUP3 DUP6 ADD PUSH2 0x205B JUMP JUMPDEST SWAP2 POP POP SWAP3 SWAP2 POP POP JUMP JUMPDEST PUSH2 0x2255 DUP2 PUSH2 0x29B6 JUMP JUMPDEST DUP3 MSTORE POP POP JUMP JUMPDEST PUSH2 0x2264 DUP2 PUSH2 0x29C8 JUMP JUMPDEST DUP3 MSTORE POP POP JUMP JUMPDEST PUSH2 0x2273 DUP2 PUSH2 0x29D4 JUMP JUMPDEST DUP3 MSTORE POP POP JUMP JUMPDEST PUSH1 0x0 PUSH2 0x2284 DUP3 PUSH2 0x28AB JUMP JUMPDEST PUSH2 0x228E DUP2 DUP6 PUSH2 0x28B6 JUMP JUMPDEST SWAP4 POP PUSH2 0x229E DUP2 DUP6 PUSH1 0x20 DUP7 ADD PUSH2 0x2A41 JUMP JUMPDEST PUSH2 0x22A7 DUP2 PUSH2 0x2B91 JUMP JUMPDEST DUP5 ADD SWAP2 POP POP SWAP3 SWAP2 POP POP JUMP JUMPDEST PUSH1 0x0 PUSH2 0x22BD DUP3 PUSH2 0x28AB JUMP JUMPDEST PUSH2 0x22C7 DUP2 DUP6 PUSH2 0x28C7 JUMP JUMPDEST SWAP4 POP PUSH2 0x22D7 DUP2 DUP6 PUSH1 0x20 DUP7 ADD PUSH2 0x2A41 JUMP JUMPDEST DUP1 DUP5 ADD SWAP2 POP POP SWAP3 SWAP2 POP POP JUMP JUMPDEST PUSH1 0x0 PUSH2 0x22F0 PUSH1 0x20 DUP4 PUSH2 0x28B6 JUMP JUMPDEST SWAP2 POP PUSH2 0x22FB DUP3 PUSH2 0x2BA2 JUMP JUMPDEST PUSH1 0x20 DUP3 ADD SWAP1 POP SWAP2 SWAP1 POP JUMP JUMPDEST PUSH1 0x0 PUSH2 0x2313 PUSH1 0x23 DUP4 PUSH2 0x28B6 JUMP JUMPDEST SWAP2 POP PUSH2 0x231E DUP3 PUSH2 0x2BCB JUMP JUMPDEST PUSH1 0x40 DUP3 ADD SWAP1 POP SWAP2 SWAP1 POP JUMP JUMPDEST PUSH1 0x0 PUSH2 0x2336 PUSH1 0x22 DUP4 PUSH2 0x28B6 JUMP JUMPDEST SWAP2 POP PUSH2 0x2341 DUP3 PUSH2 0x2C1A JUMP JUMPDEST PUSH1 0x40 DUP3 ADD SWAP1 POP SWAP2 SWAP1 POP JUMP JUMPDEST PUSH1 0x0 PUSH2 0x2359 PUSH1 0x22 DUP4 PUSH2 0x28B6 JUMP JUMPDEST SWAP2 POP PUSH2 0x2364 DUP3 PUSH2 0x2C69 JUMP JUMPDEST PUSH1 0x40 DUP3 ADD SWAP1 POP SWAP2 SWAP1 POP JUMP JUMPDEST PUSH1 0x0 PUSH2 0x237C PUSH1 0x1D DUP4 PUSH2 0x28B6 JUMP JUMPDEST SWAP2 POP PUSH2 0x2387 DUP3 PUSH2 0x2CB8 JUMP JUMPDEST PUSH1 0x20 DUP3 ADD SWAP1 POP SWAP2 SWAP1 POP JUMP JUMPDEST PUSH1 0x0 PUSH2 0x239F PUSH1 0x26 DUP4 PUSH2 0x28B6 JUMP JUMPDEST SWAP2 POP PUSH2 0x23AA DUP3 PUSH2 0x2CE1 JUMP JUMPDEST PUSH1 0x40 DUP3 ADD SWAP1 POP SWAP2 SWAP1 POP JUMP JUMPDEST PUSH1 0x0 PUSH2 0x23C2 PUSH1 0x28 DUP4 PUSH2 0x28B6 JUMP JUMPDEST SWAP2 POP PUSH2 0x23CD DUP3 PUSH2 0x2D30 JUMP JUMPDEST PUSH1 0x40 DUP3 ADD SWAP1 POP SWAP2 SWAP1 POP JUMP JUMPDEST PUSH1 0x0 PUSH2 0x23E5 PUSH1 0x16 DUP4 PUSH2 0x28B6 JUMP JUMPDEST SWAP2 POP PUSH2 0x23F0 DUP3 PUSH2 0x2D7F JUMP JUMPDEST PUSH1 0x20 DUP3 ADD SWAP1 POP SWAP2 SWAP1 POP JUMP JUMPDEST PUSH1 0x0 PUSH2 0x2408 PUSH1 0x16 DUP4 PUSH2 0x28B6 JUMP JUMPDEST SWAP2 POP PUSH2 0x2413 DUP3 PUSH2 0x2DA8 JUMP JUMPDEST PUSH1 0x20 DUP3 ADD SWAP1 POP SWAP2 SWAP1 POP JUMP JUMPDEST PUSH1 0x0 PUSH2 0x242B PUSH1 0x21 DUP4 PUSH2 0x28B6 JUMP JUMPDEST SWAP2 POP PUSH2 0x2436 DUP3 PUSH2 0x2DD1 JUMP JUMPDEST PUSH1 0x40 DUP3 ADD SWAP1 POP SWAP2 SWAP1 POP JUMP JUMPDEST PUSH1 0x0 PUSH2 0x244E PUSH1 0x25 DUP4 PUSH2 0x28B6 JUMP JUMPDEST SWAP2 POP PUSH2 0x2459 DUP3 PUSH2 0x2E20 JUMP JUMPDEST PUSH1 0x40 DUP3 ADD SWAP1 POP SWAP2 SWAP1 POP JUMP JUMPDEST PUSH1 0x0 PUSH2 0x2471 PUSH1 0x18 DUP4 PUSH2 0x28B6 JUMP JUMPDEST SWAP2 POP PUSH2 0x247C DUP3 PUSH2 0x2E6F JUMP JUMPDEST PUSH1 0x20 DUP3 ADD SWAP1 POP SWAP2 SWAP1 POP JUMP JUMPDEST PUSH1 0x0 PUSH2 0x2494 PUSH1 0x24 DUP4 PUSH2 0x28B6 JUMP JUMPDEST SWAP2 POP PUSH2 0x249F DUP3 PUSH2 0x2E98 JUMP JUMPDEST PUSH1 0x40 DUP3 ADD SWAP1 POP SWAP2 SWAP1 POP JUMP JUMPDEST PUSH1 0x0 PUSH2 0x24B7 PUSH1 0x20 DUP4 PUSH2 0x28B6 JUMP JUMPDEST SWAP2 POP PUSH2 0x24C2 DUP3 PUSH2 0x2EE7 JUMP JUMPDEST PUSH1 0x20 DUP3 ADD SWAP1 POP SWAP2 SWAP1 POP JUMP JUMPDEST PUSH1 0x0 PUSH2 0x24DA PUSH1 0x17 DUP4 PUSH2 0x28C7 JUMP JUMPDEST SWAP2 POP PUSH2 0x24E5 DUP3 PUSH2 0x2F10 JUMP JUMPDEST PUSH1 0x17 DUP3 ADD SWAP1 POP SWAP2 SWAP1 POP JUMP JUMPDEST PUSH1 0x0 PUSH2 0x24FD PUSH1 0x25 DUP4 PUSH2 0x28B6 JUMP JUMPDEST SWAP2 POP PUSH2 0x2508 DUP3 PUSH2 0x2F39 JUMP JUMPDEST PUSH1 0x40 DUP3 ADD SWAP1 POP SWAP2 SWAP1 POP JUMP JUMPDEST PUSH1 0x0 PUSH2 0x2520 PUSH1 0x11 DUP4 PUSH2 0x28C7 JUMP JUMPDEST SWAP2 POP PUSH2 0x252B DUP3 PUSH2 0x2F88 JUMP JUMPDEST PUSH1 0x11 DUP3 ADD SWAP1 POP SWAP2 SWAP1 POP JUMP JUMPDEST PUSH1 0x0 PUSH2 0x2543 PUSH1 0x2F DUP4 PUSH2 0x28B6 JUMP JUMPDEST SWAP2 POP PUSH2 0x254E DUP3 PUSH2 0x2FB1 JUMP JUMPDEST PUSH1 0x40 DUP3 ADD SWAP1 POP SWAP2 SWAP1 POP JUMP JUMPDEST PUSH1 0x0 PUSH2 0x2566 PUSH1 0x1F DUP4 PUSH2 0x28B6 JUMP JUMPDEST SWAP2 POP PUSH2 0x2571 DUP3 PUSH2 0x3000 JUMP JUMPDEST PUSH1 0x20 DUP3 ADD SWAP1 POP SWAP2 SWAP1 POP JUMP JUMPDEST PUSH2 0x2585 DUP2 PUSH2 0x2A2A JUMP JUMPDEST DUP3 MSTORE POP POP JUMP JUMPDEST PUSH2 0x2594 DUP2 PUSH2 0x2A34 JUMP JUMPDEST DUP3 MSTORE POP POP JUMP JUMPDEST PUSH1 0x0 PUSH2 0x25A5 DUP3 PUSH2 0x24CD JUMP JUMPDEST SWAP2 POP PUSH2 0x25B1 DUP3 DUP6 PUSH2 0x22B2 JUMP JUMPDEST SWAP2 POP PUSH2 0x25BC DUP3 PUSH2 0x2513 JUMP JUMPDEST SWAP2 POP PUSH2 0x25C8 DUP3 DUP5 PUSH2 0x22B2 JUMP JUMPDEST SWAP2 POP DUP2 SWAP1 POP SWAP4 SWAP3 POP POP POP JUMP JUMPDEST PUSH1 0x0 PUSH1 0x40 DUP3 ADD SWAP1 POP PUSH2 0x25E9 PUSH1 0x0 DUP4 ADD DUP6 PUSH2 0x224C JUMP JUMPDEST PUSH2 0x25F6 PUSH1 0x20 DUP4 ADD DUP5 PUSH2 0x257C JUMP JUMPDEST SWAP4 SWAP3 POP POP POP JUMP JUMPDEST PUSH1 0x0 PUSH1 0x20 DUP3 ADD SWAP1 POP PUSH2 0x2612 PUSH1 0x0 DUP4 ADD DUP5 PUSH2 0x225B JUMP JUMPDEST SWAP3 SWAP2 POP POP JUMP JUMPDEST PUSH1 0x0 PUSH1 0x20 DUP3 ADD SWAP1 POP PUSH2 0x262D PUSH1 0x0 DUP4 ADD DUP5 PUSH2 0x226A JUMP JUMPDEST SWAP3 SWAP2 POP POP JUMP JUMPDEST PUSH1 0x0 PUSH1 0x20 DUP3 ADD SWAP1 POP DUP2 DUP2 SUB PUSH1 0x0 DUP4 ADD MSTORE PUSH2 0x264D DUP2 DUP5 PUSH2 0x2279 JUMP JUMPDEST SWAP1 POP SWAP3 SWAP2 POP POP JUMP JUMPDEST PUSH1 0x0 PUSH1 0x20 DUP3 ADD SWAP1 POP DUP2 DUP2 SUB PUSH1 0x0 DUP4 ADD MSTORE PUSH2 0x266E DUP2 PUSH2 0x22E3 JUMP JUMPDEST SWAP1 POP SWAP2 SWAP1 POP JUMP JUMPDEST PUSH1 0x0 PUSH1 0x20 DUP3 ADD SWAP1 POP DUP2 DUP2 SUB PUSH1 0x0 DUP4 ADD MSTORE PUSH2 0x268E DUP2 PUSH2 0x2306 JUMP JUMPDEST SWAP1 POP SWAP2 SWAP1 POP JUMP JUMPDEST PUSH1 0x0 PUSH1 0x20 DUP3 ADD SWAP1 POP DUP2 DUP2 SUB PUSH1 0x0 DUP4 ADD MSTORE PUSH2 0x26AE DUP2 PUSH2 0x2329 JUMP JUMPDEST SWAP1 POP SWAP2 SWAP1 POP JUMP JUMPDEST PUSH1 0x0 PUSH1 0x20 DUP3 ADD SWAP1 POP DUP2 DUP2 SUB PUSH1 0x0 DUP4 ADD MSTORE PUSH2 0x26CE DUP2 PUSH2 0x234C JUMP JUMPDEST SWAP1 POP SWAP2 SWAP1 POP JUMP JUMPDEST PUSH1 0x0 PUSH1 0x20 DUP3 ADD SWAP1 POP DUP2 DUP2 SUB PUSH1 0x0 DUP4 ADD MSTORE PUSH2 0x26EE DUP2 PUSH2 0x236F JUMP JUMPDEST SWAP1 POP SWAP2 SWAP1 POP JUMP JUMPDEST PUSH1 0x0 PUSH1 0x20 DUP3 ADD SWAP1 POP DUP2 DUP2 SUB PUSH1 0x0 DUP4 ADD MSTORE PUSH2 0x270E DUP2 PUSH2 0x2392 JUMP JUMPDEST SWAP1 POP SWAP2 SWAP1 POP JUMP JUMPDEST PUSH1 0x0 PUSH1 0x20 DUP3 ADD SWAP1 POP DUP2 DUP2 SUB PUSH1 0x0 DUP4 ADD MSTORE PUSH2 0x272E DUP2 PUSH2 0x23B5 JUMP JUMPDEST SWAP1 POP SWAP2 SWAP1 POP JUMP JUMPDEST PUSH1 0x0 PUSH1 0x20 DUP3 ADD SWAP1 POP DUP2 DUP2 SUB PUSH1 0x0 DUP4 ADD MSTORE PUSH2 0x274E DUP2 PUSH2 0x23D8 JUMP JUMPDEST SWAP1 POP SWAP2 SWAP1 POP JUMP JUMPDEST PUSH1 0x0 PUSH1 0x20 DUP3 ADD SWAP1 POP DUP2 DUP2 SUB PUSH1 0x0 DUP4 ADD MSTORE PUSH2 0x276E DUP2 PUSH2 0x23FB JUMP JUMPDEST SWAP1 POP SWAP2 SWAP1 POP JUMP JUMPDEST PUSH1 0x0 PUSH1 0x20 DUP3 ADD SWAP1 POP DUP2 DUP2 SUB PUSH1 0x0 DUP4 ADD MSTORE PUSH2 0x278E DUP2 PUSH2 0x241E JUMP JUMPDEST SWAP1 POP SWAP2 SWAP1 POP JUMP JUMPDEST PUSH1 0x0 PUSH1 0x20 DUP3 ADD SWAP1 POP DUP2 DUP2 SUB PUSH1 0x0 DUP4 ADD MSTORE PUSH2 0x27AE DUP2 PUSH2 0x2441 JUMP JUMPDEST SWAP1 POP SWAP2 SWAP1 POP JUMP JUMPDEST PUSH1 0x0 PUSH1 0x20 DUP3 ADD SWAP1 POP DUP2 DUP2 SUB PUSH1 0x0 DUP4 ADD MSTORE PUSH2 0x27CE DUP2 PUSH2 0x2464 JUMP JUMPDEST SWAP1 POP SWAP2 SWAP1 POP JUMP JUMPDEST PUSH1 0x0 PUSH1 0x20 DUP3 ADD SWAP1 POP DUP2 DUP2 SUB PUSH1 0x0 DUP4 ADD MSTORE PUSH2 0x27EE DUP2 PUSH2 0x2487 JUMP JUMPDEST SWAP1 POP SWAP2 SWAP1 POP JUMP JUMPDEST PUSH1 0x0 PUSH1 0x20 DUP3 ADD SWAP1 POP DUP2 DUP2 SUB PUSH1 0x0 DUP4 ADD MSTORE PUSH2 0x280E DUP2 PUSH2 0x24AA JUMP JUMPDEST SWAP1 POP SWAP2 SWAP1 POP JUMP JUMPDEST PUSH1 0x0 PUSH1 0x20 DUP3 ADD SWAP1 POP DUP2 DUP2 SUB PUSH1 0x0 DUP4 ADD MSTORE PUSH2 0x282E DUP2 PUSH2 0x24F0 JUMP JUMPDEST SWAP1 POP SWAP2 SWAP1 POP JUMP JUMPDEST PUSH1 0x0 PUSH1 0x20 DUP3 ADD SWAP1 POP DUP2 DUP2 SUB PUSH1 0x0 DUP4 ADD MSTORE PUSH2 0x284E DUP2 PUSH2 0x2536 JUMP JUMPDEST SWAP1 POP SWAP2 SWAP1 POP JUMP JUMPDEST PUSH1 0x0 PUSH1 0x20 DUP3 ADD SWAP1 POP DUP2 DUP2 SUB PUSH1 0x0 DUP4 ADD MSTORE PUSH2 0x286E DUP2 PUSH2 0x2559 JUMP JUMPDEST SWAP1 POP SWAP2 SWAP1 POP JUMP JUMPDEST PUSH1 0x0 PUSH1 0x20 DUP3 ADD SWAP1 POP PUSH2 0x288A PUSH1 0x0 DUP4 ADD DUP5 PUSH2 0x257C JUMP JUMPDEST SWAP3 SWAP2 POP POP JUMP JUMPDEST PUSH1 0x0 PUSH1 0x20 DUP3 ADD SWAP1 POP PUSH2 0x28A5 PUSH1 0x0 DUP4 ADD DUP5 PUSH2 0x258B JUMP JUMPDEST SWAP3 SWAP2 POP POP JUMP JUMPDEST PUSH1 0x0 DUP2 MLOAD SWAP1 POP SWAP2 SWAP1 POP JUMP JUMPDEST PUSH1 0x0 DUP3 DUP3 MSTORE PUSH1 0x20 DUP3 ADD SWAP1 POP SWAP3 SWAP2 POP POP JUMP JUMPDEST PUSH1 0x0 DUP2 SWAP1 POP SWAP3 SWAP2 POP POP JUMP JUMPDEST PUSH1 0x0 PUSH2 0x28DD DUP3 PUSH2 0x2A2A JUMP JUMPDEST SWAP2 POP PUSH2 0x28E8 DUP4 PUSH2 0x2A2A JUMP JUMPDEST SWAP3 POP DUP3 PUSH32 0xFFFFFFFFFFFFFFFFFFFFFFFFFFFFFFFFFFFFFFFFFFFFFFFFFFFFFFFFFFFFFFFF SUB DUP3 GT ISZERO PUSH2 0x291D JUMPI PUSH2 0x291C PUSH2 0x2AD0 JUMP JUMPDEST JUMPDEST DUP3 DUP3 ADD SWAP1 POP SWAP3 SWAP2 POP POP JUMP JUMPDEST PUSH1 0x0 PUSH2 0x2933 DUP3 PUSH2 0x2A2A JUMP JUMPDEST SWAP2 POP PUSH2 0x293E DUP4 PUSH2 0x2A2A JUMP JUMPDEST SWAP3 POP DUP2 PUSH32 0xFFFFFFFFFFFFFFFFFFFFFFFFFFFFFFFFFFFFFFFFFFFFFFFFFFFFFFFFFFFFFFFF DIV DUP4 GT DUP3 ISZERO ISZERO AND ISZERO PUSH2 0x2977 JUMPI PUSH2 0x2976 PUSH2 0x2AD0 JUMP JUMPDEST JUMPDEST DUP3 DUP3 MUL SWAP1 POP SWAP3 SWAP2 POP POP JUMP JUMPDEST PUSH1 0x0 PUSH2 0x298D DUP3 PUSH2 0x2A2A JUMP JUMPDEST SWAP2 POP PUSH2 0x2998 DUP4 PUSH2 0x2A2A JUMP JUMPDEST SWAP3 POP DUP3 DUP3 LT ISZERO PUSH2 0x29AB JUMPI PUSH2 0x29AA PUSH2 0x2AD0 JUMP JUMPDEST JUMPDEST DUP3 DUP3 SUB SWAP1 POP SWAP3 SWAP2 POP POP JUMP JUMPDEST PUSH1 0x0 PUSH2 0x29C1 DUP3 PUSH2 0x2A0A JUMP JUMPDEST SWAP1 POP SWAP2 SWAP1 POP JUMP JUMPDEST PUSH1 0x0 DUP2 ISZERO ISZERO SWAP1 POP SWAP2 SWAP1 POP JUMP JUMPDEST PUSH1 0x0 DUP2 SWAP1 POP SWAP2 SWAP1 POP JUMP JUMPDEST PUSH1 0x0 PUSH32 0xFFFFFFFF00000000000000000000000000000000000000000000000000000000 DUP3 AND SWAP1 POP SWAP2 SWAP1 POP JUMP JUMPDEST PUSH1 0x0 PUSH20 0xFFFFFFFFFFFFFFFFFFFFFFFFFFFFFFFFFFFFFFFF DUP3 AND SWAP1 POP SWAP2 SWAP1 POP JUMP JUMPDEST PUSH1 0x0 DUP2 SWAP1 POP SWAP2 SWAP1 POP JUMP JUMPDEST PUSH1 0x0 PUSH1 0xFF DUP3 AND SWAP1 POP SWAP2 SWAP1 POP JUMP JUMPDEST PUSH1 0x0 JUMPDEST DUP4 DUP2 LT ISZERO PUSH2 0x2A5F JUMPI DUP1 DUP3 ADD MLOAD DUP2 DUP5 ADD MSTORE PUSH1 0x20 DUP2 ADD SWAP1 POP PUSH2 0x2A44 JUMP JUMPDEST DUP4 DUP2 GT ISZERO PUSH2 0x2A6E JUMPI PUSH1 0x0 DUP5 DUP5 ADD MSTORE JUMPDEST POP POP POP POP JUMP JUMPDEST PUSH1 0x0 PUSH2 0x2A7F DUP3 PUSH2 0x2A2A JUMP JUMPDEST SWAP2 POP PUSH1 0x0 DUP3 EQ ISZERO PUSH2 0x2A93 JUMPI PUSH2 0x2A92 PUSH2 0x2AD0 JUMP JUMPDEST JUMPDEST PUSH1 0x1 DUP3 SUB SWAP1 POP SWAP2 SWAP1 POP JUMP JUMPDEST PUSH1 0x0 PUSH1 0x2 DUP3 DIV SWAP1 POP PUSH1 0x1 DUP3 AND DUP1 PUSH2 0x2AB6 JUMPI PUSH1 0x7F DUP3 AND SWAP2 POP JUMPDEST PUSH1 0x20 DUP3 LT DUP2 EQ ISZERO PUSH2 0x2ACA JUMPI PUSH2 0x2AC9 PUSH2 0x2AFF JUMP JUMPDEST JUMPDEST POP SWAP2 SWAP1 POP JUMP JUMPDEST PUSH32 0x4E487B7100000000000000000000000000000000000000000000000000000000 PUSH1 0x0 MSTORE PUSH1 0x11 PUSH1 0x4 MSTORE PUSH1 0x24 PUSH1 0x0 REVERT JUMPDEST PUSH32 0x4E487B7100000000000000000000000000000000000000000000000000000000 PUSH1 0x0 MSTORE PUSH1 0x22 PUSH1 0x4 MSTORE PUSH1 0x24 PUSH1 0x0 REVERT JUMPDEST PUSH32 0x4E487B7100000000000000000000000000000000000000000000000000000000 PUSH1 0x0 MSTORE PUSH1 0x32 PUSH1 0x4 MSTORE PUSH1 0x24 PUSH1 0x0 REVERT JUMPDEST PUSH32 0x4E487B7100000000000000000000000000000000000000000000000000000000 PUSH1 0x0 MSTORE PUSH1 0x41 PUSH1 0x4 MSTORE PUSH1 0x24 PUSH1 0x0 REVERT JUMPDEST PUSH1 0x0 DUP1 REVERT JUMPDEST PUSH1 0x0 PUSH1 0x1F NOT PUSH1 0x1F DUP4 ADD AND SWAP1 POP SWAP2 SWAP1 POP JUMP JUMPDEST PUSH32 0x537472696E67733A20686578206C656E67746820696E73756666696369656E74 PUSH1 0x0 DUP3 ADD MSTORE POP JUMP JUMPDEST PUSH32 0x45524332303A207472616E7366657220746F20746865207A65726F2061646472 PUSH1 0x0 DUP3 ADD MSTORE PUSH32 0x6573730000000000000000000000000000000000000000000000000000000000 PUSH1 0x20 DUP3 ADD MSTORE POP JUMP JUMPDEST PUSH32 0x45524332303A206275726E20616D6F756E7420657863656564732062616C616E PUSH1 0x0 DUP3 ADD MSTORE PUSH32 0x6365000000000000000000000000000000000000000000000000000000000000 PUSH1 0x20 DUP3 ADD MSTORE POP JUMP JUMPDEST PUSH32 0x45524332303A20617070726F766520746F20746865207A65726F206164647265 PUSH1 0x0 DUP3 ADD MSTORE PUSH32 0x7373000000000000000000000000000000000000000000000000000000000000 PUSH1 0x20 DUP3 ADD MSTORE POP JUMP JUMPDEST PUSH32 0x45524332303A20696E73756666696369656E7420616C6C6F77616E6365000000 PUSH1 0x0 DUP3 ADD MSTORE POP JUMP JUMPDEST PUSH32 0x45524332303A207472616E7366657220616D6F756E7420657863656564732062 PUSH1 0x0 DUP3 ADD MSTORE PUSH32 0x616C616E63650000000000000000000000000000000000000000000000000000 PUSH1 0x20 DUP3 ADD MSTORE POP JUMP JUMPDEST PUSH32 0x556E636C61696D65642062616C616E6365206D75737420626520677265617465 PUSH1 0x0 DUP3 ADD MSTORE PUSH32 0x72207468616E2030000000000000000000000000000000000000000000000000 PUSH1 0x20 DUP3 ADD MSTORE POP JUMP JUMPDEST PUSH32 0x43616C6C6572206973206E6F742061206D696E74657200000000000000000000 PUSH1 0x0 DUP3 ADD MSTORE POP JUMP JUMPDEST PUSH32 0x43616C6C6572206973206E6F742061206275726E657200000000000000000000 PUSH1 0x0 DUP3 ADD MSTORE POP JUMP JUMPDEST PUSH32 0x45524332303A206275726E2066726F6D20746865207A65726F20616464726573 PUSH1 0x0 DUP3 ADD MSTORE PUSH32 0x7300000000000000000000000000000000000000000000000000000000000000 PUSH1 0x20 DUP3 ADD MSTORE POP JUMP JUMPDEST PUSH32 0x45524332303A207472616E736665722066726F6D20746865207A65726F206164 PUSH1 0x0 DUP3 ADD MSTORE PUSH32 0x6472657373000000000000000000000000000000000000000000000000000000 PUSH1 0x20 DUP3 ADD MSTORE POP JUMP JUMPDEST PUSH32 0x43616C6C6572206973206E6F7420612072657761726465720000000000000000 PUSH1 0x0 DUP3 ADD MSTORE POP JUMP JUMPDEST PUSH32 0x45524332303A20617070726F76652066726F6D20746865207A65726F20616464 PUSH1 0x0 DUP3 ADD MSTORE PUSH32 0x7265737300000000000000000000000000000000000000000000000000000000 PUSH1 0x20 DUP3 ADD MSTORE POP JUMP JUMPDEST PUSH32 0x636C61696D61626C65206D7573742062652067726561746572207468616E2030 PUSH1 0x0 DUP3 ADD MSTORE POP JUMP JUMPDEST PUSH32 0x416363657373436F6E74726F6C3A206163636F756E7420000000000000000000 PUSH1 0x0 DUP3 ADD MSTORE POP JUMP JUMPDEST PUSH32 0x45524332303A2064656372656173656420616C6C6F77616E63652062656C6F77 PUSH1 0x0 DUP3 ADD MSTORE PUSH32 0x207A65726F000000000000000000000000000000000000000000000000000000 PUSH1 0x20 DUP3 ADD MSTORE POP JUMP JUMPDEST PUSH32 0x206973206D697373696E6720726F6C6520000000000000000000000000000000 PUSH1 0x0 DUP3 ADD MSTORE POP JUMP JUMPDEST PUSH32 0x416363657373436F6E74726F6C3A2063616E206F6E6C792072656E6F756E6365 PUSH1 0x0 DUP3 ADD MSTORE PUSH32 0x20726F6C657320666F722073656C660000000000000000000000000000000000 PUSH1 0x20 DUP3 ADD MSTORE POP JUMP JUMPDEST PUSH32 0x45524332303A206D696E7420746F20746865207A65726F206164647265737300 PUSH1 0x0 DUP3 ADD MSTORE POP JUMP JUMPDEST PUSH2 0x3032 DUP2 PUSH2 0x29B6 JUMP JUMPDEST DUP2 EQ PUSH2 0x303D JUMPI PUSH1 0x0 DUP1 REVERT JUMPDEST POP JUMP JUMPDEST PUSH2 0x3049 DUP2 PUSH2 0x29C8 JUMP JUMPDEST DUP2 EQ PUSH2 0x3054 JUMPI PUSH1 0x0 DUP1 REVERT JUMPDEST POP JUMP JUMPDEST PUSH2 0x3060 DUP2 PUSH2 0x29D4 JUMP JUMPDEST DUP2 EQ PUSH2 0x306B JUMPI PUSH1 0x0 DUP1 REVERT JUMPDEST POP JUMP JUMPDEST PUSH2 0x3077 DUP2 PUSH2 0x29DE JUMP JUMPDEST DUP2 EQ PUSH2 0x3082 JUMPI PUSH1 0x0 DUP1 REVERT JUMPDEST POP JUMP JUMPDEST PUSH2 0x308E DUP2 PUSH2 0x2A2A JUMP JUMPDEST DUP2 EQ PUSH2 0x3099 JUMPI PUSH1 0x0 DUP1 REVERT JUMPDEST POP JUMP INVALID LOG2 PUSH5 0x6970667358 0x22 SLT KECCAK256 PUSH15 0x93508B470027660D6814C2F9D7A2E0 0xC1 0x4B CHAINID KECCAK256 0xEB MULMOD INVALID BALANCE MSTORE RETURNDATACOPY CALLDATASIZE DUP11 MSIZE DUP3 0xC4 OR PUSH5 0x736F6C6343 STOP ADDMOD SMOD STOP CALLER "
				},
				"gasEstimates": {
					"creation": {
						"codeDepositCost": "2499600",
						"executionCost": "infinite",
						"totalCost": "infinite"
					},
					"external": {
						"BURNER_ROLE()": "441",
						"DEFAULT_ADMIN_ROLE()": "380",
						"MINTER_ROLE()": "373",
						"REWARDER_ROLE()": "419",
						"allowance(address,address)": "infinite",
						"approve(address,uint256)": "infinite",
						"balanceOf(address)": "2909",
						"burn(address,uint256)": "infinite",
						"claim()": "infinite",
						"claimed(address)": "2925",
						"createClaimable(address,uint256)": "infinite",
						"decimals()": "411",
						"decreaseAllowance(address,uint256)": "infinite",
						"getClaimed(address)": "2951",
						"getRoleAdmin(bytes32)": "infinite",
						"getUnclaimed(address)": "2908",
						"grantRole(bytes32,address)": "infinite",
						"hasRole(bytes32,address)": "3207",
						"increaseAllowance(address,uint256)": "infinite",
						"mint(address,uint256)": "infinite",
						"name()": "infinite",
						"renounceRole(bytes32,address)": "infinite",
						"revokeRole(bytes32,address)": "infinite",
						"supportsInterface(bytes4)": "774",
						"symbol()": "infinite",
						"totalSupply()": "2483",
						"transfer(address,uint256)": "infinite",
						"transferFrom(address,address,uint256)": "infinite",
						"unclaimed(address)": "2860"
					}
				},
				"methodIdentifiers": {
					"BURNER_ROLE()": "282c51f3",
					"DEFAULT_ADMIN_ROLE()": "a217fddf",
					"MINTER_ROLE()": "d5391393",
					"REWARDER_ROLE()": "8580cf76",
					"allowance(address,address)": "dd62ed3e",
					"approve(address,uint256)": "095ea7b3",
					"balanceOf(address)": "70a08231",
					"burn(address,uint256)": "9dc29fac",
					"claim()": "4e71d92d",
					"claimed(address)": "c884ef83",
					"createClaimable(address,uint256)": "8a9db765",
					"decimals()": "313ce567",
					"decreaseAllowance(address,uint256)": "a457c2d7",
					"getClaimed(address)": "eb46260e",
					"getRoleAdmin(bytes32)": "248a9ca3",
					"getUnclaimed(address)": "3ab1ced1",
					"grantRole(bytes32,address)": "2f2ff15d",
					"hasRole(bytes32,address)": "91d14854",
					"increaseAllowance(address,uint256)": "39509351",
					"mint(address,uint256)": "40c10f19",
					"name()": "06fdde03",
					"renounceRole(bytes32,address)": "36568abe",
					"revokeRole(bytes32,address)": "d547741f",
					"supportsInterface(bytes4)": "01ffc9a7",
					"symbol()": "95d89b41",
					"totalSupply()": "18160ddd",
					"transfer(address,uint256)": "a9059cbb",
					"transferFrom(address,address,uint256)": "23b872dd",
					"unclaimed(address)": "505bd3da"
				}
			},
			"userdoc": {
				"kind": "user",
				"methods": {},
				"version": 1
			}
		}
	}
}